{
  "_format": "hh3-artifact-1",
  "contractName": "AccountantWithYieldStreaming",
  "sourceName": "contracts/core/AccountantWithYieldStreaming.sol",
  "abi": [
    {
      "inputs": [
        {
          "internalType": "address",
          "name": "_primeRBAC",
          "type": "address"
        },
        {
          "internalType": "address",
          "name": "_vault",
          "type": "address"
        },
        {
          "internalType": "address",
          "name": "payoutAddress",
          "type": "address"
        },
        {
          "internalType": "uint96",
          "name": "startingExchangeRate",
          "type": "uint96"
        },
        {
          "internalType": "uint16",
          "name": "allowedExchangeRateChangeUpper",
          "type": "uint16"
        },
        {
          "internalType": "uint16",
          "name": "allowedExchangeRateChangeLower",
          "type": "uint16"
        },
        {
          "internalType": "uint24",
          "name": "minimumUpdateDelayInSeconds",
          "type": "uint24"
        },
        {
          "internalType": "uint16",
          "name": "platformFee",
          "type": "uint16"
        },
        {
          "internalType": "uint16",
          "name": "performanceFee",
          "type": "uint16"
        }
      ],
      "stateMutability": "nonpayable",
      "type": "constructor"
    },
    {
      "inputs": [],
      "name": "AccountantWithRateProviders__LowerBoundTooLarge",
      "type": "error"
    },
    {
      "inputs": [],
      "name": "AccountantWithRateProviders__OnlyCallableByBoringVault",
      "type": "error"
    },
    {
      "inputs": [],
      "name": "AccountantWithRateProviders__Paused",
      "type": "error"
    },
    {
      "inputs": [],
      "name": "AccountantWithRateProviders__PerformanceFeeTooLarge",
      "type": "error"
    },
    {
      "inputs": [],
      "name": "AccountantWithRateProviders__PlatformFeeTooLarge",
      "type": "error"
    },
    {
      "inputs": [],
      "name": "AccountantWithRateProviders__UpdateDelayTooLarge",
      "type": "error"
    },
    {
      "inputs": [],
      "name": "AccountantWithRateProviders__UpperBoundTooSmall",
      "type": "error"
    },
    {
      "inputs": [],
      "name": "AccountantWithRateProviders__ZeroFeesOwed",
      "type": "error"
    },
    {
      "inputs": [],
      "name": "AccountantWithYieldStreaming__DurationExceedsMaximum",
      "type": "error"
    },
    {
      "inputs": [],
      "name": "AccountantWithYieldStreaming__DurationUnderMinimum",
      "type": "error"
    },
    {
      "inputs": [],
      "name": "AccountantWithYieldStreaming__MaxDeviationYieldExceeded",
      "type": "error"
    },
    {
      "inputs": [],
      "name": "AccountantWithYieldStreaming__NotEnoughTimePassed",
      "type": "error"
    },
    {
      "inputs": [],
      "name": "AccountantWithYieldStreaming__UpdateExchangeRateNotSupported",
      "type": "error"
    },
    {
      "inputs": [],
      "name": "AccountantWithYieldStreaming__ZeroYieldUpdate",
      "type": "error"
    },
    {
      "inputs": [],
      "name": "NOT_EMERGENCY_ADMIN",
      "type": "error"
    },
    {
      "inputs": [],
      "name": "NOT_PROTOCOL_ADMIN",
      "type": "error"
    },
    {
      "inputs": [],
      "name": "ZERO_ADDRESS",
      "type": "error"
    },
    {
      "anonymous": false,
      "inputs": [
        {
          "indexed": true,
          "internalType": "address",
          "name": "user",
          "type": "address"
        },
        {
          "indexed": true,
          "internalType": "contract Authority",
          "name": "newAuthority",
          "type": "address"
        }
      ],
      "name": "AuthorityUpdated",
      "type": "event"
    },
    {
      "anonymous": false,
      "inputs": [
        {
          "indexed": false,
          "internalType": "uint24",
          "name": "oldDelay",
          "type": "uint24"
        },
        {
          "indexed": false,
          "internalType": "uint24",
          "name": "newDelay",
          "type": "uint24"
        }
      ],
      "name": "DelayInSecondsUpdated",
      "type": "event"
    },
    {
      "anonymous": false,
      "inputs": [
        {
          "indexed": false,
          "internalType": "uint96",
          "name": "oldRate",
          "type": "uint96"
        },
        {
          "indexed": false,
          "internalType": "uint96",
          "name": "newRate",
          "type": "uint96"
        },
        {
          "indexed": false,
          "internalType": "uint64",
          "name": "currentTime",
          "type": "uint64"
        }
      ],
      "name": "ExchangeRateUpdated",
      "type": "event"
    },
    {
      "anonymous": false,
      "inputs": [
        {
          "indexed": false,
          "internalType": "uint256",
          "name": "newExchangeRate",
          "type": "uint256"
        }
      ],
      "name": "ExchangeRateUpdated",
      "type": "event"
    },
    {
      "anonymous": false,
      "inputs": [
        {
          "indexed": true,
          "internalType": "address",
          "name": "feeAsset",
          "type": "address"
        },
        {
          "indexed": false,
          "internalType": "uint256",
          "name": "amount",
          "type": "uint256"
        }
      ],
      "name": "FeesClaimed",
      "type": "event"
    },
    {
      "anonymous": false,
      "inputs": [
        {
          "indexed": false,
          "internalType": "uint16",
          "name": "oldBound",
          "type": "uint16"
        },
        {
          "indexed": false,
          "internalType": "uint16",
          "name": "newBound",
          "type": "uint16"
        }
      ],
      "name": "LowerBoundUpdated",
      "type": "event"
    },
    {
      "anonymous": false,
      "inputs": [
        {
          "indexed": false,
          "internalType": "uint64",
          "name": "newMaximum",
          "type": "uint64"
        }
      ],
      "name": "MaximumDeviationYieldUpdated",
      "type": "event"
    },
    {
      "anonymous": false,
      "inputs": [
        {
          "indexed": false,
          "internalType": "uint64",
          "name": "newMaximum",
          "type": "uint64"
        }
      ],
      "name": "MaximumVestDurationUpdated",
      "type": "event"
    },
    {
      "anonymous": false,
      "inputs": [
        {
          "indexed": false,
          "internalType": "uint64",
          "name": "newMinimum",
          "type": "uint64"
        }
      ],
      "name": "MinimumVestDurationUpdated",
      "type": "event"
    },
    {
      "anonymous": false,
      "inputs": [
        {
          "indexed": true,
          "internalType": "address",
          "name": "user",
          "type": "address"
        },
        {
          "indexed": true,
          "internalType": "address",
          "name": "newOwner",
          "type": "address"
        }
      ],
      "name": "OwnershipTransferred",
      "type": "event"
    },
    {
      "anonymous": false,
      "inputs": [],
      "name": "Paused",
      "type": "event"
    },
    {
      "anonymous": false,
      "inputs": [
        {
          "indexed": false,
          "internalType": "address",
          "name": "oldPayout",
          "type": "address"
        },
        {
          "indexed": false,
          "internalType": "address",
          "name": "newPayout",
          "type": "address"
        }
      ],
      "name": "PayoutAddressUpdated",
      "type": "event"
    },
    {
      "anonymous": false,
      "inputs": [
        {
          "indexed": false,
          "internalType": "uint16",
          "name": "oldFee",
          "type": "uint16"
        },
        {
          "indexed": false,
          "internalType": "uint16",
          "name": "newFee",
          "type": "uint16"
        }
      ],
      "name": "PerformanceFeeUpdated",
      "type": "event"
    },
    {
      "anonymous": false,
      "inputs": [
        {
          "indexed": false,
          "internalType": "uint16",
          "name": "oldFee",
          "type": "uint16"
        },
        {
          "indexed": false,
          "internalType": "uint16",
          "name": "newFee",
          "type": "uint16"
        }
      ],
      "name": "PlatformFeeUpdated",
      "type": "event"
    },
    {
      "anonymous": false,
      "inputs": [],
      "name": "Unpaused",
      "type": "event"
    },
    {
      "anonymous": false,
      "inputs": [
        {
          "indexed": false,
          "internalType": "uint16",
          "name": "oldBound",
          "type": "uint16"
        },
        {
          "indexed": false,
          "internalType": "uint16",
          "name": "newBound",
          "type": "uint16"
        }
      ],
      "name": "UpperBoundUpdated",
      "type": "event"
    },
    {
      "anonymous": false,
      "inputs": [
        {
          "indexed": false,
          "internalType": "uint256",
          "name": "amountAdded",
          "type": "uint256"
        },
        {
          "indexed": false,
          "internalType": "uint64",
          "name": "endVestingTime",
          "type": "uint64"
        }
      ],
      "name": "YieldRecorded",
      "type": "event"
    },
    {
      "inputs": [],
      "name": "accountantState",
      "outputs": [
        {
          "internalType": "address",
          "name": "payoutAddress",
          "type": "address"
        },
        {
          "internalType": "uint128",
          "name": "feesOwedInBase",
          "type": "uint128"
        },
        {
          "internalType": "uint128",
          "name": "totalSharesLastUpdate",
          "type": "uint128"
        },
        {
          "internalType": "uint96",
          "name": "exchangeRate",
          "type": "uint96"
        },
        {
          "internalType": "uint16",
          "name": "allowedExchangeRateChangeUpper",
          "type": "uint16"
        },
        {
          "internalType": "uint16",
          "name": "allowedExchangeRateChangeLower",
          "type": "uint16"
        },
        {
          "internalType": "uint64",
          "name": "lastUpdateTimestamp",
          "type": "uint64"
        },
        {
          "internalType": "bool",
          "name": "isPaused",
          "type": "bool"
        },
        {
          "internalType": "uint24",
          "name": "minimumUpdateDelayInSeconds",
          "type": "uint24"
        },
        {
          "internalType": "uint16",
          "name": "platformFee",
          "type": "uint16"
        },
        {
          "internalType": "uint16",
          "name": "performanceFee",
          "type": "uint16"
        }
      ],
      "stateMutability": "view",
      "type": "function"
    },
    {
      "inputs": [],
      "name": "authority",
      "outputs": [
        {
          "internalType": "contract Authority",
          "name": "",
          "type": "address"
        }
      ],
      "stateMutability": "view",
      "type": "function"
    },
    {
      "inputs": [],
      "name": "base",
      "outputs": [
        {
          "internalType": "contract ERC20",
          "name": "",
          "type": "address"
        }
      ],
      "stateMutability": "view",
      "type": "function"
    },
    {
      "inputs": [],
      "name": "claimFees",
      "outputs": [],
      "stateMutability": "nonpayable",
      "type": "function"
    },
    {
      "inputs": [],
      "name": "decimals",
      "outputs": [
        {
          "internalType": "uint8",
          "name": "",
          "type": "uint8"
        }
      ],
      "stateMutability": "view",
      "type": "function"
    },
    {
      "inputs": [],
      "name": "getPendingUnvestedGains",
      "outputs": [
        {
          "internalType": "uint256",
          "name": "",
          "type": "uint256"
        }
      ],
      "stateMutability": "view",
      "type": "function"
    },
    {
      "inputs": [],
      "name": "getPendingVestingGains",
      "outputs": [
        {
          "internalType": "uint256",
          "name": "amountVested",
          "type": "uint256"
        }
      ],
      "stateMutability": "view",
      "type": "function"
    },
    {
      "inputs": [],
      "name": "getRate",
      "outputs": [
        {
          "internalType": "uint256",
          "name": "rate",
          "type": "uint256"
        }
      ],
      "stateMutability": "view",
      "type": "function"
    },
    {
      "inputs": [],
      "name": "getRateSafe",
      "outputs": [
        {
          "internalType": "uint256",
          "name": "rate",
          "type": "uint256"
        }
      ],
      "stateMutability": "view",
      "type": "function"
    },
    {
      "inputs": [],
      "name": "lastStrategistUpdateTimestamp",
      "outputs": [
        {
          "internalType": "uint64",
          "name": "",
          "type": "uint64"
        }
      ],
      "stateMutability": "view",
      "type": "function"
    },
    {
      "inputs": [],
      "name": "maxDeviationYield",
      "outputs": [
        {
          "internalType": "uint32",
          "name": "",
          "type": "uint32"
        }
      ],
      "stateMutability": "view",
      "type": "function"
    },
    {
      "inputs": [],
      "name": "maximumVestingTime",
      "outputs": [
        {
          "internalType": "uint64",
          "name": "",
          "type": "uint64"
        }
      ],
      "stateMutability": "view",
      "type": "function"
    },
    {
      "inputs": [],
      "name": "minimumVestingTime",
      "outputs": [
        {
          "internalType": "uint64",
          "name": "",
          "type": "uint64"
        }
      ],
      "stateMutability": "view",
      "type": "function"
    },
    {
      "inputs": [],
      "name": "owner",
      "outputs": [
        {
          "internalType": "address",
          "name": "",
          "type": "address"
        }
      ],
      "stateMutability": "view",
      "type": "function"
    },
    {
      "inputs": [],
      "name": "pause",
      "outputs": [],
      "stateMutability": "nonpayable",
      "type": "function"
    },
    {
      "inputs": [
        {
          "internalType": "uint96",
          "name": "",
          "type": "uint96"
        }
      ],
      "name": "previewUpdateExchangeRate",
      "outputs": [
        {
          "internalType": "bool",
          "name": "",
          "type": "bool"
        },
        {
          "internalType": "uint256",
          "name": "",
          "type": "uint256"
        },
        {
          "internalType": "uint256",
          "name": "",
          "type": "uint256"
        }
      ],
      "stateMutability": "view",
      "type": "function"
    },
    {
      "inputs": [],
      "name": "primeRBAC",
      "outputs": [
        {
          "internalType": "contract IPrimeRBAC",
          "name": "",
          "type": "address"
        }
      ],
      "stateMutability": "view",
      "type": "function"
    },
    {
      "inputs": [
        {
          "internalType": "contract Authority",
          "name": "newAuthority",
          "type": "address"
        }
      ],
      "name": "setAuthority",
      "outputs": [],
      "stateMutability": "nonpayable",
      "type": "function"
    },
    {
      "inputs": [],
      "name": "setFirstDepositTimestamp",
      "outputs": [],
      "stateMutability": "nonpayable",
      "type": "function"
    },
    {
      "inputs": [],
      "name": "supplyObservation",
      "outputs": [
        {
          "internalType": "uint256",
          "name": "cumulativeSupply",
          "type": "uint256"
        },
        {
          "internalType": "uint256",
          "name": "cumulativeSupplyLast",
          "type": "uint256"
        },
        {
          "internalType": "uint256",
          "name": "lastUpdateTimestamp",
          "type": "uint256"
        }
      ],
      "stateMutability": "view",
      "type": "function"
    },
    {
      "inputs": [],
      "name": "totalAssets",
      "outputs": [
        {
          "internalType": "uint256",
          "name": "",
          "type": "uint256"
        }
      ],
      "stateMutability": "view",
      "type": "function"
    },
    {
      "inputs": [
        {
          "internalType": "address",
          "name": "newOwner",
          "type": "address"
        }
      ],
      "name": "transferOwnership",
      "outputs": [],
      "stateMutability": "nonpayable",
      "type": "function"
    },
    {
      "inputs": [],
      "name": "unpause",
      "outputs": [],
      "stateMutability": "nonpayable",
      "type": "function"
    },
    {
      "inputs": [
        {
          "internalType": "uint24",
          "name": "minimumUpdateDelayInSeconds",
          "type": "uint24"
        }
      ],
      "name": "updateDelay",
      "outputs": [],
      "stateMutability": "nonpayable",
      "type": "function"
    },
    {
      "inputs": [],
      "name": "updateExchangeRate",
      "outputs": [],
      "stateMutability": "nonpayable",
      "type": "function"
    },
    {
      "inputs": [
        {
          "internalType": "uint96",
          "name": "",
          "type": "uint96"
        }
      ],
      "name": "updateExchangeRate",
      "outputs": [],
      "stateMutability": "view",
      "type": "function"
    },
    {
      "inputs": [
        {
          "internalType": "uint16",
          "name": "allowedExchangeRateChangeLower",
          "type": "uint16"
        }
      ],
      "name": "updateLower",
      "outputs": [],
      "stateMutability": "nonpayable",
      "type": "function"
    },
    {
      "inputs": [
        {
          "internalType": "uint32",
          "name": "newMaximum",
          "type": "uint32"
        }
      ],
      "name": "updateMaximumDeviationYield",
      "outputs": [],
      "stateMutability": "nonpayable",
      "type": "function"
    },
    {
      "inputs": [
        {
          "internalType": "uint64",
          "name": "newMaximum",
          "type": "uint64"
        }
      ],
      "name": "updateMaximumVestDuration",
      "outputs": [],
      "stateMutability": "nonpayable",
      "type": "function"
    },
    {
      "inputs": [
        {
          "internalType": "uint64",
          "name": "newMinimum",
          "type": "uint64"
        }
      ],
      "name": "updateMinimumVestDuration",
      "outputs": [],
      "stateMutability": "nonpayable",
      "type": "function"
    },
    {
      "inputs": [
        {
          "internalType": "address",
          "name": "payoutAddress",
          "type": "address"
        }
      ],
      "name": "updatePayoutAddress",
      "outputs": [],
      "stateMutability": "nonpayable",
      "type": "function"
    },
    {
      "inputs": [
        {
          "internalType": "uint16",
          "name": "performanceFee",
          "type": "uint16"
        }
      ],
      "name": "updatePerformanceFee",
      "outputs": [],
      "stateMutability": "nonpayable",
      "type": "function"
    },
    {
      "inputs": [
        {
          "internalType": "uint16",
          "name": "platformFee",
          "type": "uint16"
        }
      ],
      "name": "updatePlatformFee",
      "outputs": [],
      "stateMutability": "nonpayable",
      "type": "function"
    },
    {
      "inputs": [
        {
          "internalType": "uint16",
          "name": "allowedExchangeRateChangeUpper",
          "type": "uint16"
        }
      ],
      "name": "updateUpper",
      "outputs": [],
      "stateMutability": "nonpayable",
      "type": "function"
    },
    {
      "inputs": [],
      "name": "vault",
      "outputs": [
        {
          "internalType": "contract BoringVault",
          "name": "",
          "type": "address"
        }
      ],
      "stateMutability": "view",
      "type": "function"
    },
    {
      "inputs": [],
      "name": "version",
      "outputs": [
        {
          "internalType": "string",
          "name": "",
          "type": "string"
        }
      ],
      "stateMutability": "pure",
      "type": "function"
    },
    {
      "inputs": [
        {
          "internalType": "uint256",
          "name": "yieldAmount",
          "type": "uint256"
        },
        {
          "internalType": "uint256",
          "name": "duration",
          "type": "uint256"
        }
      ],
      "name": "vestYield",
      "outputs": [],
      "stateMutability": "nonpayable",
      "type": "function"
    },
    {
      "inputs": [],
      "name": "vestingState",
      "outputs": [
        {
          "internalType": "uint128",
          "name": "lastSharePrice",
          "type": "uint128"
        },
        {
          "internalType": "uint128",
          "name": "vestingGains",
          "type": "uint128"
        },
        {
          "internalType": "uint128",
          "name": "lastVestingUpdate",
          "type": "uint128"
        },
        {
          "internalType": "uint64",
          "name": "startVestingTime",
          "type": "uint64"
        },
        {
          "internalType": "uint64",
          "name": "endVestingTime",
          "type": "uint64"
        }
      ],
      "stateMutability": "view",
      "type": "function"
    }
  ],
  "bytecode": "0x61010060405262015180600b5f6101000a81548167ffffffffffffffff021916908367ffffffffffffffff16021790555062093a80600b60086101000a81548167ffffffffffffffff021916908367ffffffffffffffff1602179055506101f4600b60106101000a81548163ffffffff021916908363ffffffff16021790555034801561008a575f5ffd5b50604051614f12380380614f1283398181016040528101906100ac9190610a8a565b888888888888888888888873ffffffffffffffffffffffffffffffffffffffff1663bf7e214f6040518163ffffffff1660e01b8152600401602060405180830381865afa1580156100ff573d5f5f3e3d5ffd5b505050506040513d601f19601f820116820180604052508101906101239190610b89565b3381815f5f6101000a81548173ffffffffffffffffffffffffffffffffffffffff021916908373ffffffffffffffffffffffffffffffffffffffff1602179055508060015f6101000a81548173ffffffffffffffffffffffffffffffffffffffff021916908373ffffffffffffffffffffffffffffffffffffffff1602179055508173ffffffffffffffffffffffffffffffffffffffff163373ffffffffffffffffffffffffffffffffffffffff167f8be0079c531659141344cd1fd0a4f28419497f9722a3daafe3b4186f6b6457e060405160405180910390a38073ffffffffffffffffffffffffffffffffffffffff163373ffffffffffffffffffffffffffffffffffffffff167fa3396fd7f6e0a21b50e5089d2da70d5ac0a3bbbd1f617a93f134b7638998019860405160405180910390a350505f73ffffffffffffffffffffffffffffffffffffffff168273ffffffffffffffffffffffffffffffffffffffff16036102bf576040517f538ba4f900000000000000000000000000000000000000000000000000000000815260040160405180910390fd5b8160025f6101000a81548173ffffffffffffffffffffffffffffffffffffffff021916908373ffffffffffffffffffffffffffffffffffffffff16021790555050508773ffffffffffffffffffffffffffffffffffffffff1660c08173ffffffffffffffffffffffffffffffffffffffff168152505060c05173ffffffffffffffffffffffffffffffffffffffff166338d52e0f6040518163ffffffff1660e01b8152600401602060405180830381865afa158015610380573d5f5f3e3d5ffd5b505050506040513d601f19601f820116820180604052508101906103a49190610bef565b73ffffffffffffffffffffffffffffffffffffffff1660808173ffffffffffffffffffffffffffffffffffffffff168152505060805173ffffffffffffffffffffffffffffffffffffffff1663313ce5676040518163ffffffff1660e01b8152600401602060405180830381865afa158015610422573d5f5f3e3d5ffd5b505050506040513d601f19601f820116820180604052508101906104469190610c50565b60ff1660a08160ff168152505060c05173ffffffffffffffffffffffffffffffffffffffff1663313ce5676040518163ffffffff1660e01b8152600401602060405180830381865afa15801561049e573d5f5f3e3d5ffd5b505050506040513d601f19601f820116820180604052508101906104c29190610c50565b600a6104ce9190610de0565b60e081815250506040518061016001604052808873ffffffffffffffffffffffffffffffffffffffff1681526020015f6fffffffffffffffffffffffffffffffff16815260200160c05173ffffffffffffffffffffffffffffffffffffffff166318160ddd6040518163ffffffff1660e01b8152600401602060405180830381865afa158015610560573d5f5f3e3d5ffd5b505050506040513d601f19601f820116820180604052508101906105849190610e54565b6fffffffffffffffffffffffffffffffff168152602001876bffffffffffffffffffffffff1681526020018661ffff1681526020018561ffff1681526020014267ffffffffffffffff1681526020015f151581526020018462ffffff1681526020018361ffff1681526020018261ffff1681525060035f820151815f015f6101000a81548173ffffffffffffffffffffffffffffffffffffffff021916908373ffffffffffffffffffffffffffffffffffffffff1602179055506020820151816001015f6101000a8154816fffffffffffffffffffffffffffffffff02191690836fffffffffffffffffffffffffffffffff16021790555060408201518160010160106101000a8154816fffffffffffffffffffffffffffffffff02191690836fffffffffffffffffffffffffffffffff1602179055506060820151816002015f6101000a8154816bffffffffffffffffffffffff02191690836bffffffffffffffffffffffff160217905550608082015181600201600c6101000a81548161ffff021916908361ffff16021790555060a082015181600201600e6101000a81548161ffff021916908361ffff16021790555060c08201518160020160106101000a81548167ffffffffffffffff021916908367ffffffffffffffff16021790555060e08201518160020160186101000a81548160ff0219169083151502179055506101008201518160020160196101000a81548162ffffff021916908362ffffff16021790555061012082015181600201601c6101000a81548161ffff021916908361ffff16021790555061014082015181600201601e6101000a81548161ffff021916908361ffff160217905550905050505050505050505050856bffffffffffffffffffffffff1660065f015f6101000a8154816fffffffffffffffffffffffffffffffff02191690836fffffffffffffffffffffffffffffffff1602179055505f60065f0160106101000a8154816fffffffffffffffffffffffffffffffff02191690836fffffffffffffffffffffffffffffffff1602179055504260066001015f6101000a8154816fffffffffffffffffffffffffffffffff02191690836fffffffffffffffffffffffffffffffff16021790555042600660010160106101000a81548167ffffffffffffffff021916908367ffffffffffffffff16021790555042600660010160186101000a81548167ffffffffffffffff021916908367ffffffffffffffff1602179055505f60085f01819055505f600860010181905550426fffffffffffffffffffffffffffffffff1660086002018190555042600b60146101000a81548167ffffffffffffffff021916908367ffffffffffffffff160217905550505050505050505050610e7f565b5f5ffd5b5f73ffffffffffffffffffffffffffffffffffffffff82169050919050565b5f6109a982610980565b9050919050565b6109b98161099f565b81146109c3575f5ffd5b50565b5f815190506109d4816109b0565b92915050565b5f6bffffffffffffffffffffffff82169050919050565b6109fa816109da565b8114610a04575f5ffd5b50565b5f81519050610a15816109f1565b92915050565b5f61ffff82169050919050565b610a3181610a1b565b8114610a3b575f5ffd5b50565b5f81519050610a4c81610a28565b92915050565b5f62ffffff82169050919050565b610a6981610a52565b8114610a73575f5ffd5b50565b5f81519050610a8481610a60565b92915050565b5f5f5f5f5f5f5f5f5f6101208a8c031215610aa857610aa761097c565b5b5f610ab58c828d016109c6565b9950506020610ac68c828d016109c6565b9850506040610ad78c828d016109c6565b9750506060610ae88c828d01610a07565b9650506080610af98c828d01610a3e565b95505060a0610b0a8c828d01610a3e565b94505060c0610b1b8c828d01610a76565b93505060e0610b2c8c828d01610a3e565b925050610100610b3e8c828d01610a3e565b9150509295985092959850929598565b5f610b588261099f565b9050919050565b610b6881610b4e565b8114610b72575f5ffd5b50565b5f81519050610b8381610b5f565b92915050565b5f60208284031215610b9e57610b9d61097c565b5b5f610bab84828501610b75565b91505092915050565b5f610bbe8261099f565b9050919050565b610bce81610bb4565b8114610bd8575f5ffd5b50565b5f81519050610be981610bc5565b92915050565b5f60208284031215610c0457610c0361097c565b5b5f610c1184828501610bdb565b91505092915050565b5f60ff82169050919050565b610c2f81610c1a565b8114610c39575f5ffd5b50565b5f81519050610c4a81610c26565b92915050565b5f60208284031215610c6557610c6461097c565b5b5f610c7284828501610c3c565b91505092915050565b7f4e487b71000000000000000000000000000000000000000000000000000000005f52601160045260245ffd5b5f8160011c9050919050565b5f5f8291508390505b6001851115610cfd57808604811115610cd957610cd8610c7b565b5b6001851615610ce85780820291505b8081029050610cf685610ca8565b9450610cbd565b94509492505050565b5f82610d155760019050610dd0565b81610d22575f9050610dd0565b8160018114610d385760028114610d4257610d71565b6001915050610dd0565b60ff841115610d5457610d53610c7b565b5b8360020a915084821115610d6b57610d6a610c7b565b5b50610dd0565b5060208310610133831016604e8410600b8410161715610da65782820a905083811115610da157610da0610c7b565b5b610dd0565b610db38484846001610cb4565b92509050818404811115610dca57610dc9610c7b565b5b81810290505b9392505050565b5f819050919050565b5f610dea82610dd7565b9150610df583610c1a565b9250610e227fffffffffffffffffffffffffffffffffffffffffffffffffffffffffffffffff8484610d06565b905092915050565b610e3381610dd7565b8114610e3d575f5ffd5b50565b5f81519050610e4e81610e2a565b92915050565b5f60208284031215610e6957610e6861097c565b5b5f610e7684828501610e40565b91505092915050565b60805160a05160c05160e051613ff0610f225f395f81816106ed015281816113bb015281816123f2015281816129e301528181612a4a01528181613211015261324b01525f8181610652015281816112e801528181611e9c0152818161272e0152818161294701528181612ce001528181612dad01528181612e990152612f5e01525f6109dd01525f8181610ed20152818161207001526120b70152613ff05ff3fe608060405234801561000f575f5ffd5b5060043610610230575f3560e01c8063679aefce1161012e578063c436a2d4116100b6578063ec0f6e8e1161007a578063ec0f6e8e146105bc578063f2fde38b146105d8578063f3e5b2d4146105f4578063fbfa77cf14610612578063ff21a7791461063057610230565b8063c436a2d41461053c578063c62c100b1461055a578063c830136a14610576578063d294f09314610594578063e37d7e681461059e57610230565b80638456cb59116100fd5780638456cb59146104be5780638da5cb5b146104c8578063afb06952146104e6578063b55b7b5a14610502578063bf7e214f1461051e57610230565b8063679aefce1461044c5780636a054dc91461046a578063709ac1c3146104865780637a9e5e4b146104a257610230565b806337348dc2116101bc57806354fd4d501161018057806354fd4d50146103a657806355da7cb7146103c457806356200819146103e25780636183fb95146103fe578063634da58f1461043057610230565b806337348dc2146103305780633f4ba83a1461034c578063433255de146103565780634512deb71461037e5780635001f3b51461038857610230565b8063207ec0e711610203578063207ec0e71461029a578063282a8700146102b6578063313ce567146102d457806332a633c0146102f25780633458113d1461031457610230565b806301e1d1141461023457806302ce728f1461025257806305cc0ed81461025c57806307586faf1461027c575b5f5ffd5b61023c61064e565b60405161024991906132de565b60405180910390f35b61025a61075d565b005b6102646107d3565b604051610273939291906132f7565b60405180910390f35b6102846107ea565b604051610291919061334a565b60405180910390f35b6102b460048036038101906102af919061339e565b610800565b005b6102be610983565b6040516102cb91906132de565b60405180910390f35b6102dc6109db565b6040516102e991906133e4565b60405180910390f35b6102fa6109ff565b60405161030b959493929190613449565b60405180910390f35b61032e600480360381019061032991906134db565b610a9b565b005b61034a60048036038101906103459190613530565b610b39565b005b610354610c00565b005b61035e610d1a565b6040516103759b9a999897969594939291906135ef565b60405180910390f35b610386610e36565b005b610390610ed0565b60405161039d91906136f3565b60405180910390f35b6103ae610ef4565b6040516103bb919061377c565b60405180910390f35b6103cc610f31565b6040516103d9919061379c565b60405180910390f35b6103fc60048036038101906103f791906137df565b610f4b565b005b610418600480360381019061041391906134db565b6110c0565b6040516104279392919061380a565b60405180910390f35b61044a6004803603810190610445919061339e565b611161565b005b6104546112e4565b60405161046191906132de565b60405180910390f35b610484600480360381019061047f9190613869565b6113f9565b005b6104a0600480360381019061049b919061339e565b611581565b005b6104bc60048036038101906104b791906138cf565b6116a1565b005b6104c661185c565b005b6104d0611977565b6040516104dd91906138fa565b60405180910390f35b61050060048036038101906104fb919061339e565b61199b565b005b61051c6004803603810190610517919061393d565b611b1e565b005b610526611bed565b6040516105339190613988565b60405180910390f35b610544611c12565b604051610551919061379c565b60405180910390f35b610574600480360381019061056f919061393d565b611c2c565b005b61057e611cf9565b60405161058b91906132de565b60405180910390f35b61059c611e9a565b005b6105a6612127565b6040516105b391906139c1565b60405180910390f35b6105d660048036038101906105d19190613a04565b61214c565b005b6105f260048036038101906105ed91906137df565b6125d9565b005b6105fc6126e1565b60405161060991906132de565b60405180910390f35b61061a61272c565b6040516106279190613a73565b60405180910390f35b610638612750565b604051610645919061379c565b60405180910390f35b5f5f7f000000000000000000000000000000000000000000000000000000000000000073ffffffffffffffffffffffffffffffffffffffff166318160ddd6040518163ffffffff1660e01b8152600401602060405180830381865afa1580156106b9573d5f5f3e3d5ffd5b505050506040513d601f19601f820116820180604052508101906106dd9190613aa0565b90506106e7611cf9565b61074d827f000000000000000000000000000000000000000000000000000000000000000060065f015f9054906101000a90046fffffffffffffffffffffffffffffffff166fffffffffffffffffffffffffffffffff166127699092919063ffffffff16565b6107579190613af8565b91505090565b61078a335f357fffffffff00000000000000000000000000000000000000000000000000000000166127aa565b6107c9576040517f08c379a00000000000000000000000000000000000000000000000000000000081526004016107c090613b75565b60405180910390fd5b6107d16128e3565b565b6008805f0154908060010154908060020154905083565b600b60109054906101000a900463ffffffff1681565b60025f9054906101000a900473ffffffffffffffffffffffffffffffffffffffff1673ffffffffffffffffffffffffffffffffffffffff1663d35911f2336040518263ffffffff1660e01b815260040161085a91906138fa565b602060405180830381865afa158015610875573d5f5f3e3d5ffd5b505050506040513d601f19601f820116820180604052508101906108999190613bbd565b6108cf576040517fdc85555400000000000000000000000000000000000000000000000000000000815260040160405180910390fd5b6127108161ffff16111561090f576040517f7375d3bf00000000000000000000000000000000000000000000000000000000815260040160405180910390fd5b5f6003600201600e9054906101000a900461ffff169050816003600201600e6101000a81548161ffff021916908361ffff1602179055507f76fe3c3557dd03afa5caf76f66f4019444ef3999e784ba08f47a33428fcc64d58183604051610977929190613be8565b60405180910390a15050565b5f600360020160189054906101000a900460ff16156109ce576040517f3b3132f600000000000000000000000000000000000000000000000000000000815260040160405180910390fd5b6109d66112e4565b905090565b7f000000000000000000000000000000000000000000000000000000000000000081565b6006805f015f9054906101000a90046fffffffffffffffffffffffffffffffff1690805f0160109054906101000a90046fffffffffffffffffffffffffffffffff1690806001015f9054906101000a90046fffffffffffffffffffffffffffffffff16908060010160109054906101000a900467ffffffffffffffff16908060010160189054906101000a900467ffffffffffffffff16905085565b610ac8335f357fffffffff00000000000000000000000000000000000000000000000000000000166127aa565b610b07576040517f08c379a0000000000000000000000000000000000000000000000000000000008152600401610afe90613b75565b60405180910390fd5b6040517f941ad18400000000000000000000000000000000000000000000000000000000815260040160405180910390fd5b610b66335f357fffffffff00000000000000000000000000000000000000000000000000000000166127aa565b610ba5576040517f08c379a0000000000000000000000000000000000000000000000000000000008152600401610b9c90613b75565b60405180910390fd5b80600b60106101000a81548163ffffffff021916908363ffffffff1602179055507fc9cf26d489c6904635aea74890c5f0e73b4c0c4532dd87e84c3b3dde6f24044d81604051610bf59190613c3f565b60405180910390a150565b60025f9054906101000a900473ffffffffffffffffffffffffffffffffffffffff1673ffffffffffffffffffffffffffffffffffffffff16632f41ca96336040518263ffffffff1660e01b8152600401610c5a91906138fa565b602060405180830381865afa158015610c75573d5f5f3e3d5ffd5b505050506040513d601f19601f82011682018060405250810190610c999190613bbd565b610ccf576040517f445b0c3a00000000000000000000000000000000000000000000000000000000815260040160405180910390fd5b5f600360020160186101000a81548160ff0219169083151502179055507fa45f47fdea8a1efdd9029a5691c7f759c32b7c698632b563573e155625d1693360405160405180910390a1565b6003805f015f9054906101000a900473ffffffffffffffffffffffffffffffffffffffff1690806001015f9054906101000a90046fffffffffffffffffffffffffffffffff16908060010160109054906101000a90046fffffffffffffffffffffffffffffffff1690806002015f9054906101000a90046bffffffffffffffffffffffff169080600201600c9054906101000a900461ffff169080600201600e9054906101000a900461ffff16908060020160109054906101000a900467ffffffffffffffff16908060020160189054906101000a900460ff16908060020160199054906101000a900462ffffff169080600201601c9054906101000a900461ffff169080600201601e9054906101000a900461ffff1690508b565b610e63335f357fffffffff00000000000000000000000000000000000000000000000000000000166127aa565b610ea2576040517f08c379a0000000000000000000000000000000000000000000000000000000008152600401610e9990613b75565b60405180910390fd5b42600660010160106101000a81548167ffffffffffffffff021916908367ffffffffffffffff160217905550565b7f000000000000000000000000000000000000000000000000000000000000000081565b60606040518060400160405280600481526020017f56302e3100000000000000000000000000000000000000000000000000000000815250905090565b600b60089054906101000a900467ffffffffffffffff1681565b60025f9054906101000a900473ffffffffffffffffffffffffffffffffffffffff1673ffffffffffffffffffffffffffffffffffffffff1663d35911f2336040518263ffffffff1660e01b8152600401610fa591906138fa565b602060405180830381865afa158015610fc0573d5f5f3e3d5ffd5b505050506040513d601f19601f82011682018060405250810190610fe49190613bbd565b61101a576040517fdc85555400000000000000000000000000000000000000000000000000000000815260040160405180910390fd5b5f60035f015f9054906101000a900473ffffffffffffffffffffffffffffffffffffffff1690508160035f015f6101000a81548173ffffffffffffffffffffffffffffffffffffffff021916908373ffffffffffffffffffffffffffffffffffffffff1602179055507fba2be5e898fed1646bc0814dee1cc9a2aee98f51fced7d5fc4699c47d990775381836040516110b4929190613c58565b60405180910390a15050565b5f5f5f6110f0335f357fffffffff00000000000000000000000000000000000000000000000000000000166127aa565b61112f576040517f08c379a000000000000000000000000000000000000000000000000000000000815260040161112690613b75565b60405180910390fd5b6040517f941ad18400000000000000000000000000000000000000000000000000000000815260040160405180910390fd5b60025f9054906101000a900473ffffffffffffffffffffffffffffffffffffffff1673ffffffffffffffffffffffffffffffffffffffff1663d35911f2336040518263ffffffff1660e01b81526004016111bb91906138fa565b602060405180830381865afa1580156111d6573d5f5f3e3d5ffd5b505050506040513d601f19601f820116820180604052508101906111fa9190613bbd565b611230576040517fdc85555400000000000000000000000000000000000000000000000000000000815260040160405180910390fd5b6127108161ffff161015611270576040517fa4ec27a900000000000000000000000000000000000000000000000000000000815260040160405180910390fd5b5f6003600201600c9054906101000a900461ffff169050816003600201600c6101000a81548161ffff021916908361ffff1602179055507f67d3a3f6bebb5b894324217d5224ff719d5d95dfc67f1bb2645dddbfcd43cadb81836040516112d8929190613be8565b60405180910390a15050565b5f5f7f000000000000000000000000000000000000000000000000000000000000000073ffffffffffffffffffffffffffffffffffffffff166318160ddd6040518163ffffffff1660e01b8152600401602060405180830381865afa15801561134f573d5f5f3e3d5ffd5b505050506040513d601f19601f820116820180604052508101906113739190613aa0565b90505f81036113b65760065f015f9054906101000a90046fffffffffffffffffffffffffffffffff166fffffffffffffffffffffffffffffffff169150506113f6565b6113f27f0000000000000000000000000000000000000000000000000000000000000000826113e361064e565b6127699092919063ffffffff16565b9150505b90565b60025f9054906101000a900473ffffffffffffffffffffffffffffffffffffffff1673ffffffffffffffffffffffffffffffffffffffff1663d35911f2336040518263ffffffff1660e01b815260040161145391906138fa565b602060405180830381865afa15801561146e573d5f5f3e3d5ffd5b505050506040513d601f19601f820116820180604052508101906114929190613bbd565b6114c8576040517fdc85555400000000000000000000000000000000000000000000000000000000815260040160405180910390fd5b621275008162ffffff16111561150a576040517f5badbfbb00000000000000000000000000000000000000000000000000000000815260040160405180910390fd5b5f600360020160199054906101000a900462ffffff16905081600360020160196101000a81548162ffffff021916908362ffffff1602179055507f5f7db254db512f40348d8a7ca15d574c051dfe59c19b47e273d926f2f43186068183604051611575929190613c7f565b60405180910390a15050565b6115ae335f357fffffffff00000000000000000000000000000000000000000000000000000000166127aa565b6115ed576040517f08c379a00000000000000000000000000000000000000000000000000000000081526004016115e490613b75565b60405180910390fd5b6113888161ffff16111561162d576040517ffdaeddbb00000000000000000000000000000000000000000000000000000000815260040160405180910390fd5b5f6003600201601e9054906101000a900461ffff169050816003600201601e6101000a81548161ffff021916908361ffff1602179055507fba8506b6cb85330fea21cbca8490aafb6a69b166f06201ef755eb511b2709fc18183604051611695929190613be8565b60405180910390a15050565b5f5f9054906101000a900473ffffffffffffffffffffffffffffffffffffffff1673ffffffffffffffffffffffffffffffffffffffff163373ffffffffffffffffffffffffffffffffffffffff1614806117b7575060015f9054906101000a900473ffffffffffffffffffffffffffffffffffffffff1673ffffffffffffffffffffffffffffffffffffffff1663b700961333305f357fffffffff00000000000000000000000000000000000000000000000000000000166040518463ffffffff1660e01b815260040161177793929190613ce0565b602060405180830381865afa158015611792573d5f5f3e3d5ffd5b505050506040513d601f19601f820116820180604052508101906117b69190613bbd565b5b6117bf575f5ffd5b8060015f6101000a81548173ffffffffffffffffffffffffffffffffffffffff021916908373ffffffffffffffffffffffffffffffffffffffff1602179055508073ffffffffffffffffffffffffffffffffffffffff163373ffffffffffffffffffffffffffffffffffffffff167fa3396fd7f6e0a21b50e5089d2da70d5ac0a3bbbd1f617a93f134b7638998019860405160405180910390a350565b60025f9054906101000a900473ffffffffffffffffffffffffffffffffffffffff1673ffffffffffffffffffffffffffffffffffffffff16632f41ca96336040518263ffffffff1660e01b81526004016118b691906138fa565b602060405180830381865afa1580156118d1573d5f5f3e3d5ffd5b505050506040513d601f19601f820116820180604052508101906118f59190613bbd565b61192b576040517f445b0c3a00000000000000000000000000000000000000000000000000000000815260040160405180910390fd5b6001600360020160186101000a81548160ff0219169083151502179055507f9e87fac88ff661f02d44f95383c817fece4bce600a3dab7a54406878b965e75260405160405180910390a1565b5f5f9054906101000a900473ffffffffffffffffffffffffffffffffffffffff1681565b60025f9054906101000a900473ffffffffffffffffffffffffffffffffffffffff1673ffffffffffffffffffffffffffffffffffffffff1663d35911f2336040518263ffffffff1660e01b81526004016119f591906138fa565b602060405180830381865afa158015611a10573d5f5f3e3d5ffd5b505050506040513d601f19601f82011682018060405250810190611a349190613bbd565b611a6a576040517fdc85555400000000000000000000000000000000000000000000000000000000815260040160405180910390fd5b6107d08161ffff161115611aaa576040517fb9d5660800000000000000000000000000000000000000000000000000000000815260040160405180910390fd5b5f6003600201601c9054906101000a900461ffff169050816003600201601c6101000a81548161ffff021916908361ffff1602179055507f84e4fe32bf74c4011a7e1fde79c63acdffaf92a0112cde153e7b0abee665bc6b8183604051611b12929190613be8565b60405180910390a15050565b611b4b335f357fffffffff00000000000000000000000000000000000000000000000000000000166127aa565b611b8a576040517f08c379a0000000000000000000000000000000000000000000000000000000008152600401611b8190613b75565b60405180910390fd5b80600b60086101000a81548167ffffffffffffffff021916908367ffffffffffffffff1602179055507f620d555bffc43346a25eb42c041617a27d39a7eae44e158d3627e9d77f5f4d2281604051611be2919061379c565b60405180910390a150565b60015f9054906101000a900473ffffffffffffffffffffffffffffffffffffffff1681565b600b60149054906101000a900467ffffffffffffffff1681565b611c59335f357fffffffff00000000000000000000000000000000000000000000000000000000166127aa565b611c98576040517f08c379a0000000000000000000000000000000000000000000000000000000008152600401611c8f90613b75565b60405180910390fd5b80600b5f6101000a81548167ffffffffffffffff021916908367ffffffffffffffff1602179055507ed0fffa248fc4e13e00f11c3623d01724abe53b60d486b121b3157ce2228ad281604051611cee919061379c565b60405180910390a150565b5f5f429050600660010160189054906101000a900467ffffffffffffffff1667ffffffffffffffff168110611d635760065f0160109054906101000a90046fffffffffffffffffffffffffffffffff166fffffffffffffffffffffffffffffffff16915050611e97565b5f60065f0160109054906101000a90046fffffffffffffffffffffffffffffffff166fffffffffffffffffffffffffffffffff1603611da5575f915050611e97565b5f60066001015f9054906101000a90046fffffffffffffffffffffffffffffffff166fffffffffffffffffffffffffffffffff1682611de49190613d15565b90505f60066001015f9054906101000a90046fffffffffffffffffffffffffffffffff16600660010160189054906101000a900467ffffffffffffffff1667ffffffffffffffff16611e369190613d48565b6fffffffffffffffffffffffffffffffff169050611e91828260065f0160109054906101000a90046fffffffffffffffffffffffffffffffff166fffffffffffffffffffffffffffffffff166127699092919063ffffffff16565b93505050505b90565b7f000000000000000000000000000000000000000000000000000000000000000073ffffffffffffffffffffffffffffffffffffffff163373ffffffffffffffffffffffffffffffffffffffff1614611f1f576040517f7e3db46f00000000000000000000000000000000000000000000000000000000815260040160405180910390fd5b5f600390508060020160189054906101000a900460ff1615611f6d576040517f3b3132f600000000000000000000000000000000000000000000000000000000815260040160405180910390fd5b5f816001015f9054906101000a90046fffffffffffffffffffffffffffffffff166fffffffffffffffffffffffffffffffff1603611fd7576040517f456e762c00000000000000000000000000000000000000000000000000000000815260040160405180910390fd5b5f816001015f9054906101000a90046fffffffffffffffffffffffffffffffff166fffffffffffffffffffffffffffffffff1690505f826001015f6101000a8154816fffffffffffffffffffffffffffffffff02191690836fffffffffffffffffffffffffffffffff1602179055506120b533835f015f9054906101000a900473ffffffffffffffffffffffffffffffffffffffff16837f000000000000000000000000000000000000000000000000000000000000000073ffffffffffffffffffffffffffffffffffffffff16612bfe909392919063ffffffff16565b7f000000000000000000000000000000000000000000000000000000000000000073ffffffffffffffffffffffffffffffffffffffff167f9493e5bbe4e8e0ac67284469a2d677403d0378a85a59e341d3abc433d0d9a2098260405161211b91906132de565b60405180910390a25050565b60025f9054906101000a900473ffffffffffffffffffffffffffffffffffffffff1681565b612179335f357fffffffff00000000000000000000000000000000000000000000000000000000166127aa565b6121b8576040517f08c379a00000000000000000000000000000000000000000000000000000000081526004016121af90613b75565b60405180910390fd5b600360020160189054906101000a900460ff1615612202576040517f3b3132f600000000000000000000000000000000000000000000000000000000815260040160405180910390fd5b600b60089054906101000a900467ffffffffffffffff1667ffffffffffffffff1681111561225c576040517f7a13668b00000000000000000000000000000000000000000000000000000000815260040160405180910390fd5b600b5f9054906101000a900467ffffffffffffffff1667ffffffffffffffff168110156122b5576040517fbdcd8a6b00000000000000000000000000000000000000000000000000000000815260040160405180910390fd5b5f82036122ee576040517f98edbead00000000000000000000000000000000000000000000000000000000815260040160405180910390fd5b5f60065f0160109054906101000a90046fffffffffffffffffffffffffffffffff166fffffffffffffffffffffffffffffffff1611156123a757600360020160199054906101000a900462ffffff1662ffffff16600b60149054906101000a900467ffffffffffffffff166123639190613d8b565b67ffffffffffffffff164210156123a6576040517f1bf9119700000000000000000000000000000000000000000000000000000000815260040160405180910390fd5b5b6123af6128e3565b5f6123b8612cd2565b90505f61242160065f015f9054906101000a90046fffffffffffffffffffffffffffffffff166fffffffffffffffffffffffffffffffff167f0000000000000000000000000000000000000000000000000000000000000000846127699092919063ffffffff16565b90505f61243c6201518085876127699092919063ffffffff16565b90505f61245661271084846127699092919063ffffffff16565b9050600b60109054906101000a900463ffffffff1663ffffffff168111156124aa576040517f6da4058200000000000000000000000000000000000000000000000000000000815260040160405180910390fd5b60085f01546008600101819055508560065f0160106101000a8154816fffffffffffffffffffffffffffffffff02191690836fffffffffffffffffffffffffffffffff16021790555042600660010160106101000a81548167ffffffffffffffff021916908367ffffffffffffffff160217905550844261252b9190613af8565b600660010160186101000a81548167ffffffffffffffff021916908367ffffffffffffffff16021790555042600b60146101000a81548167ffffffffffffffff021916908367ffffffffffffffff1602179055507f2583e410b6b90509698867351826d69a02f114f22c9b563a6247bf598e352b4c86600660010160189054906101000a900467ffffffffffffffff166040516125c9929190613dc6565b60405180910390a1505050505050565b612606335f357fffffffff00000000000000000000000000000000000000000000000000000000166127aa565b612645576040517f08c379a000000000000000000000000000000000000000000000000000000000815260040161263c90613b75565b60405180910390fd5b805f5f6101000a81548173ffffffffffffffffffffffffffffffffffffffff021916908373ffffffffffffffffffffffffffffffffffffffff1602179055508073ffffffffffffffffffffffffffffffffffffffff163373ffffffffffffffffffffffffffffffffffffffff167f8be0079c531659141344cd1fd0a4f28419497f9722a3daafe3b4186f6b6457e060405160405180910390a350565b5f6126ea611cf9565b60065f0160109054906101000a90046fffffffffffffffffffffffffffffffff166fffffffffffffffffffffffffffffffff166127279190613d15565b905090565b7f000000000000000000000000000000000000000000000000000000000000000081565b600b5f9054906101000a900467ffffffffffffffff1681565b5f827fffffffffffffffffffffffffffffffffffffffffffffffffffffffffffffffff048411830215820261279c575f5ffd5b818385020490509392505050565b5f5f60015f9054906101000a900473ffffffffffffffffffffffffffffffffffffffff1690505f73ffffffffffffffffffffffffffffffffffffffff168173ffffffffffffffffffffffffffffffffffffffff161415801561288457508073ffffffffffffffffffffffffffffffffffffffff1663b70096138530866040518463ffffffff1660e01b815260040161284493929190613ce0565b602060405180830381865afa15801561285f573d5f5f3e3d5ffd5b505050506040513d601f19601f820116820180604052508101906128839190613bbd565b5b806128da57505f5f9054906101000a900473ffffffffffffffffffffffffffffffffffffffff1673ffffffffffffffffffffffffffffffffffffffff168473ffffffffffffffffffffffffffffffffffffffff16145b91505092915050565b5f600390508060020160189054906101000a900460ff1615612931576040517f3b3132f600000000000000000000000000000000000000000000000000000000815260040160405180910390fd5b612939612e76565b5f612942611cf9565b90505f7f000000000000000000000000000000000000000000000000000000000000000073ffffffffffffffffffffffffffffffffffffffff166318160ddd6040518163ffffffff1660e01b8152600401602060405180830381865afa1580156129ae573d5f5f3e3d5ffd5b505050506040513d601f19601f820116820180604052508101906129d29190613aa0565b90505f821115612b25575f612a43827f000000000000000000000000000000000000000000000000000000000000000060065f015f9054906101000a90046fffffffffffffffffffffffffffffffff166fffffffffffffffffffffffffffffffff166127699092919063ffffffff16565b9050612a857f0000000000000000000000000000000000000000000000000000000000000000838584612a769190613af8565b6127699092919063ffffffff16565b60065f015f6101000a8154816fffffffffffffffffffffffffffffffff02191690836fffffffffffffffffffffffffffffffff1602179055508260065f0160108282829054906101000a90046fffffffffffffffffffffffffffffffff16612aed9190613d48565b92506101000a8154816fffffffffffffffffffffffffffffffff02191690836fffffffffffffffffffffffffffffffff160217905550505b612b2d612f56565b4260066001015f6101000a8154816fffffffffffffffffffffffffffffffff02191690836fffffffffffffffffffffffffffffffff160217905550808360010160106101000a8154816fffffffffffffffffffffffffffffffff02191690836fffffffffffffffffffffffffffffffff1602179055507f388f446e9526fe5c9af20a5919b342370c8a7c0cb05245afe1e545658fa3cdba60065f015f9054906101000a90046fffffffffffffffffffffffffffffffff16604051612bf19190613e1d565b60405180910390a1505050565b5f6040517f23b872dd00000000000000000000000000000000000000000000000000000000815273ffffffffffffffffffffffffffffffffffffffff8516600482015273ffffffffffffffffffffffffffffffffffffffff8416602482015282604482015260205f6064835f8a5af1915081601f3d1160015f511416151615612c8a573d863b15171591505b5080612ccb576040517f08c379a0000000000000000000000000000000000000000000000000000000008152600401612cc290613e80565b60405180910390fd5b5050505050565b5f5f60085f015403612d72577f000000000000000000000000000000000000000000000000000000000000000073ffffffffffffffffffffffffffffffffffffffff166318160ddd6040518163ffffffff1660e01b8152600401602060405180830381865afa158015612d47573d5f5f3e3d5ffd5b505050506040513d601f19601f82011682018060405250810190612d6b9190613aa0565b9050612e73565b5f600660010160109054906101000a900467ffffffffffffffff1642612d989190613e9e565b90505f8167ffffffffffffffff1603612e40577f000000000000000000000000000000000000000000000000000000000000000073ffffffffffffffffffffffffffffffffffffffff166318160ddd6040518163ffffffff1660e01b8152600401602060405180830381865afa158015612e14573d5f5f3e3d5ffd5b505050506040513d601f19601f82011682018060405250810190612e389190613aa0565b915050612e73565b5f60086001015460085f0154612e569190613d15565b90508167ffffffffffffffff1681612e6e9190613f06565b925050505b90565b5f4290505f60086002015482612e8c9190613d15565b90505f811115612f5257807f000000000000000000000000000000000000000000000000000000000000000073ffffffffffffffffffffffffffffffffffffffff166318160ddd6040518163ffffffff1660e01b8152600401602060405180830381865afa158015612f00573d5f5f3e3d5ffd5b505050506040513d601f19601f82011682018060405250810190612f249190613aa0565b612f2e9190613f36565b60085f015f828254612f409190613af8565b92505081905550816008600201819055505b5050565b5f600390505f7f000000000000000000000000000000000000000000000000000000000000000073ffffffffffffffffffffffffffffffffffffffff166318160ddd6040518163ffffffff1660e01b8152600401602060405180830381865afa158015612fc5573d5f5f3e3d5ffd5b505050506040513d601f19601f82011682018060405250810190612fe99190613aa0565b90505f4290506130448360065f015f9054906101000a90046fffffffffffffffffffffffffffffffff16856002015f9054906101000a90046bffffffffffffffffffffffff166bffffffffffffffffffffffff1685856130c5565b60065f015f9054906101000a90046fffffffffffffffffffffffffffffffff16836002015f6101000a8154816bffffffffffffffffffffffff02191690836bffffffffffffffffffffffff160217905550808360020160106101000a81548167ffffffffffffffff021916908367ffffffffffffffff160217905550505050565b5f61311f8660010160109054906101000a90046fffffffffffffffffffffffffffffffff168760020160109054906101000a900467ffffffffffffffff1688600201601c9054906101000a900461ffff168888888861318d565b905080866001015f8282829054906101000a90046fffffffffffffffffffffffffffffffff1661314f9190613f77565b92506101000a8154816fffffffffffffffffffffffffffffffff02191690836fffffffffffffffffffffffffffffffff160217905550505050505050565b5f5f83905080896fffffffffffffffffffffffffffffffff1610156131c257886fffffffffffffffffffffffffffffffff1690505b5f8761ffff1611156132ba575f88846131db9190613e9e565b67ffffffffffffffff1690505f86886bffffffffffffffffffffffff161161324557613240886bffffffffffffffffffffffff167f0000000000000000000000000000000000000000000000000000000000000000856127699092919063ffffffff16565b61327b565b61327a877f0000000000000000000000000000000000000000000000000000000000000000856127699092919063ffffffff16565b5b90505f6132998a61ffff16612710846127699092919063ffffffff16565b90506132b4836301e13380836127699092919063ffffffff16565b94505050505b50979650505050505050565b5f819050919050565b6132d8816132c6565b82525050565b5f6020820190506132f15f8301846132cf565b92915050565b5f60608201905061330a5f8301866132cf565b61331760208301856132cf565b61332460408301846132cf565b949350505050565b5f63ffffffff82169050919050565b6133448161332c565b82525050565b5f60208201905061335d5f83018461333b565b92915050565b5f5ffd5b5f61ffff82169050919050565b61337d81613367565b8114613387575f5ffd5b50565b5f8135905061339881613374565b92915050565b5f602082840312156133b3576133b2613363565b5b5f6133c08482850161338a565b91505092915050565b5f60ff82169050919050565b6133de816133c9565b82525050565b5f6020820190506133f75f8301846133d5565b92915050565b5f6fffffffffffffffffffffffffffffffff82169050919050565b613421816133fd565b82525050565b5f67ffffffffffffffff82169050919050565b61344381613427565b82525050565b5f60a08201905061345c5f830188613418565b6134696020830187613418565b6134766040830186613418565b613483606083018561343a565b613490608083018461343a565b9695505050505050565b5f6bffffffffffffffffffffffff82169050919050565b6134ba8161349a565b81146134c4575f5ffd5b50565b5f813590506134d5816134b1565b92915050565b5f602082840312156134f0576134ef613363565b5b5f6134fd848285016134c7565b91505092915050565b61350f8161332c565b8114613519575f5ffd5b50565b5f8135905061352a81613506565b92915050565b5f6020828403121561354557613544613363565b5b5f6135528482850161351c565b91505092915050565b5f73ffffffffffffffffffffffffffffffffffffffff82169050919050565b5f6135848261355b565b9050919050565b6135948161357a565b82525050565b6135a38161349a565b82525050565b6135b281613367565b82525050565b5f8115159050919050565b6135cc816135b8565b82525050565b5f62ffffff82169050919050565b6135e9816135d2565b82525050565b5f610160820190506136035f83018e61358b565b613610602083018d613418565b61361d604083018c613418565b61362a606083018b61359a565b613637608083018a6135a9565b61364460a08301896135a9565b61365160c083018861343a565b61365e60e08301876135c3565b61366c6101008301866135e0565b61367a6101208301856135a9565b6136886101408301846135a9565b9c9b505050505050505050505050565b5f819050919050565b5f6136bb6136b66136b18461355b565b613698565b61355b565b9050919050565b5f6136cc826136a1565b9050919050565b5f6136dd826136c2565b9050919050565b6136ed816136d3565b82525050565b5f6020820190506137065f8301846136e4565b92915050565b5f81519050919050565b5f82825260208201905092915050565b8281835e5f83830152505050565b5f601f19601f8301169050919050565b5f61374e8261370c565b6137588185613716565b9350613768818560208601613726565b61377181613734565b840191505092915050565b5f6020820190508181035f8301526137948184613744565b905092915050565b5f6020820190506137af5f83018461343a565b92915050565b6137be8161357a565b81146137c8575f5ffd5b50565b5f813590506137d9816137b5565b92915050565b5f602082840312156137f4576137f3613363565b5b5f613801848285016137cb565b91505092915050565b5f60608201905061381d5f8301866135c3565b61382a60208301856132cf565b61383760408301846132cf565b949350505050565b613848816135d2565b8114613852575f5ffd5b50565b5f813590506138638161383f565b92915050565b5f6020828403121561387e5761387d613363565b5b5f61388b84828501613855565b91505092915050565b5f61389e8261357a565b9050919050565b6138ae81613894565b81146138b8575f5ffd5b50565b5f813590506138c9816138a5565b92915050565b5f602082840312156138e4576138e3613363565b5b5f6138f1848285016138bb565b91505092915050565b5f60208201905061390d5f83018461358b565b92915050565b61391c81613427565b8114613926575f5ffd5b50565b5f8135905061393781613913565b92915050565b5f6020828403121561395257613951613363565b5b5f61395f84828501613929565b91505092915050565b5f613972826136c2565b9050919050565b61398281613968565b82525050565b5f60208201905061399b5f830184613979565b92915050565b5f6139ab826136c2565b9050919050565b6139bb816139a1565b82525050565b5f6020820190506139d45f8301846139b2565b92915050565b6139e3816132c6565b81146139ed575f5ffd5b50565b5f813590506139fe816139da565b92915050565b5f5f60408385031215613a1a57613a19613363565b5b5f613a27858286016139f0565b9250506020613a38858286016139f0565b9150509250929050565b5f613a4c826136a1565b9050919050565b5f613a5d82613a42565b9050919050565b613a6d81613a53565b82525050565b5f602082019050613a865f830184613a64565b92915050565b5f81519050613a9a816139da565b92915050565b5f60208284031215613ab557613ab4613363565b5b5f613ac284828501613a8c565b91505092915050565b7f4e487b71000000000000000000000000000000000000000000000000000000005f52601160045260245ffd5b5f613b02826132c6565b9150613b0d836132c6565b9250828201905080821115613b2557613b24613acb565b5b92915050565b7f554e415554484f52495a454400000000000000000000000000000000000000005f82015250565b5f613b5f600c83613716565b9150613b6a82613b2b565b602082019050919050565b5f6020820190508181035f830152613b8c81613b53565b9050919050565b613b9c816135b8565b8114613ba6575f5ffd5b50565b5f81519050613bb781613b93565b92915050565b5f60208284031215613bd257613bd1613363565b5b5f613bdf84828501613ba9565b91505092915050565b5f604082019050613bfb5f8301856135a9565b613c0860208301846135a9565b9392505050565b5f613c29613c24613c1f8461332c565b613698565b613427565b9050919050565b613c3981613c0f565b82525050565b5f602082019050613c525f830184613c30565b92915050565b5f604082019050613c6b5f83018561358b565b613c78602083018461358b565b9392505050565b5f604082019050613c925f8301856135e0565b613c9f60208301846135e0565b9392505050565b5f7fffffffff0000000000000000000000000000000000000000000000000000000082169050919050565b613cda81613ca6565b82525050565b5f606082019050613cf35f83018661358b565b613d00602083018561358b565b613d0d6040830184613cd1565b949350505050565b5f613d1f826132c6565b9150613d2a836132c6565b9250828203905081811115613d4257613d41613acb565b5b92915050565b5f613d52826133fd565b9150613d5d836133fd565b925082820390506fffffffffffffffffffffffffffffffff811115613d8557613d84613acb565b5b92915050565b5f613d9582613427565b9150613da083613427565b9250828201905067ffffffffffffffff811115613dc057613dbf613acb565b5b92915050565b5f604082019050613dd95f8301856132cf565b613de6602083018461343a565b9392505050565b5f613e07613e02613dfd846133fd565b613698565b6132c6565b9050919050565b613e1781613ded565b82525050565b5f602082019050613e305f830184613e0e565b92915050565b7f5452414e534645525f46524f4d5f4641494c45440000000000000000000000005f82015250565b5f613e6a601483613716565b9150613e7582613e36565b602082019050919050565b5f6020820190508181035f830152613e9781613e5e565b9050919050565b5f613ea882613427565b9150613eb383613427565b9250828203905067ffffffffffffffff811115613ed357613ed2613acb565b5b92915050565b7f4e487b71000000000000000000000000000000000000000000000000000000005f52601260045260245ffd5b5f613f10826132c6565b9150613f1b836132c6565b925082613f2b57613f2a613ed9565b5b828204905092915050565b5f613f40826132c6565b9150613f4b836132c6565b9250828202613f59816132c6565b91508282048414831517613f7057613f6f613acb565b5b5092915050565b5f613f81826133fd565b9150613f8c836133fd565b925082820190506fffffffffffffffffffffffffffffffff811115613fb457613fb3613acb565b5b9291505056fea2646970667358221220f01213f4a2c6912aaed6d6a3f5b8b9581de537225ca4f8e4e8a2f08ba2ea95dd64736f6c634300081e0033",
  "linkReferences": {},
  "deployedLinkReferences": {},
  "immutableReferences": {
    "10478": [
      {
        "length": 32,
        "start": 3794
      },
      {
        "length": 32,
        "start": 8304
      },
      {
        "length": 32,
        "start": 8375
      }
    ],
    "10481": [
      {
        "length": 32,
        "start": 2525
      }
    ],
    "10485": [
      {
        "length": 32,
        "start": 1618
      },
      {
        "length": 32,
        "start": 4840
      },
      {
        "length": 32,
        "start": 7836
      },
      {
        "length": 32,
        "start": 10030
      },
      {
        "length": 32,
        "start": 10567
      },
      {
        "length": 32,
        "start": 11488
      },
      {
        "length": 32,
        "start": 11693
      },
      {
        "length": 32,
        "start": 11929
      },
      {
        "length": 32,
        "start": 12126
      }
    ],
    "10488": [
      {
        "length": 32,
        "start": 1773
      },
      {
        "length": 32,
        "start": 5051
      },
      {
        "length": 32,
        "start": 9202
      },
      {
        "length": 32,
        "start": 10723
      },
      {
        "length": 32,
        "start": 10826
      },
      {
        "length": 32,
        "start": 12817
      },
      {
        "length": 32,
        "start": 12875
      }
    ]
  },
  "inputSourceName": "project/contracts/core/AccountantWithYieldStreaming.sol",
  "buildInfoId": "solc-0_8_30-b812b6f9c8de22d6d072c72da0837b4069544e24"
}