{
  "_format": "hh3-artifact-1",
  "contractName": "Distributor",
  "sourceName": "contracts/core/Distributor.sol",
  "abi": [
    {
      "inputs": [
        {
          "internalType": "address",
          "name": "_primeRBAC",
          "type": "address"
        },
        {
          "internalType": "address",
          "name": "_vault",
          "type": "address"
        }
      ],
      "stateMutability": "nonpayable",
      "type": "constructor"
    },
    {
      "inputs": [],
      "name": "Distributor__AlreadyAdded",
      "type": "error"
    },
    {
      "inputs": [],
      "name": "Distributor__CannotWithdrawRewardToken",
      "type": "error"
    },
    {
      "inputs": [],
      "name": "Distributor__NotAuthorized",
      "type": "error"
    },
    {
      "inputs": [],
      "name": "Distributor__Paused",
      "type": "error"
    },
    {
      "inputs": [],
      "name": "Distributor__RewardPeriodActive",
      "type": "error"
    },
    {
      "inputs": [],
      "name": "Distributor__ZeroDuration",
      "type": "error"
    },
    {
      "inputs": [],
      "name": "ZERO_ADDRESS",
      "type": "error"
    },
    {
      "anonymous": false,
      "inputs": [
        {
          "indexed": true,
          "internalType": "address",
          "name": "user",
          "type": "address"
        },
        {
          "indexed": true,
          "internalType": "contract Authority",
          "name": "newAuthority",
          "type": "address"
        }
      ],
      "name": "AuthorityUpdated",
      "type": "event"
    },
    {
      "anonymous": false,
      "inputs": [
        {
          "indexed": true,
          "internalType": "address",
          "name": "user",
          "type": "address"
        },
        {
          "indexed": true,
          "internalType": "address",
          "name": "newOwner",
          "type": "address"
        }
      ],
      "name": "OwnershipTransferred",
      "type": "event"
    },
    {
      "anonymous": false,
      "inputs": [
        {
          "indexed": false,
          "internalType": "bool",
          "name": "isPaused",
          "type": "bool"
        }
      ],
      "name": "PausedUpdated",
      "type": "event"
    },
    {
      "anonymous": false,
      "inputs": [
        {
          "indexed": false,
          "internalType": "address",
          "name": "token",
          "type": "address"
        },
        {
          "indexed": false,
          "internalType": "uint256",
          "name": "amount",
          "type": "uint256"
        }
      ],
      "name": "Recovered",
      "type": "event"
    },
    {
      "anonymous": false,
      "inputs": [
        {
          "indexed": false,
          "internalType": "uint256",
          "name": "reward",
          "type": "uint256"
        }
      ],
      "name": "RewardAdded",
      "type": "event"
    },
    {
      "anonymous": false,
      "inputs": [
        {
          "indexed": true,
          "internalType": "address",
          "name": "user",
          "type": "address"
        },
        {
          "indexed": true,
          "internalType": "address",
          "name": "rewardsToken",
          "type": "address"
        },
        {
          "indexed": false,
          "internalType": "uint256",
          "name": "reward",
          "type": "uint256"
        }
      ],
      "name": "RewardPaid",
      "type": "event"
    },
    {
      "anonymous": false,
      "inputs": [
        {
          "indexed": false,
          "internalType": "address",
          "name": "token",
          "type": "address"
        },
        {
          "indexed": false,
          "internalType": "uint256",
          "name": "newDuration",
          "type": "uint256"
        }
      ],
      "name": "RewardsDurationUpdated",
      "type": "event"
    },
    {
      "inputs": [
        {
          "internalType": "address",
          "name": "_rewardsToken",
          "type": "address"
        },
        {
          "internalType": "address",
          "name": "_rewardsDistributor",
          "type": "address"
        },
        {
          "internalType": "uint256",
          "name": "_rewardsDuration",
          "type": "uint256"
        }
      ],
      "name": "addReward",
      "outputs": [],
      "stateMutability": "nonpayable",
      "type": "function"
    },
    {
      "inputs": [],
      "name": "authority",
      "outputs": [
        {
          "internalType": "contract Authority",
          "name": "",
          "type": "address"
        }
      ],
      "stateMutability": "view",
      "type": "function"
    },
    {
      "inputs": [
        {
          "internalType": "address",
          "name": "account",
          "type": "address"
        }
      ],
      "name": "balanceOf",
      "outputs": [
        {
          "internalType": "uint256",
          "name": "",
          "type": "uint256"
        }
      ],
      "stateMutability": "view",
      "type": "function"
    },
    {
      "inputs": [
        {
          "internalType": "address",
          "name": "from",
          "type": "address"
        },
        {
          "internalType": "address",
          "name": "to",
          "type": "address"
        },
        {
          "internalType": "uint256",
          "name": "",
          "type": "uint256"
        },
        {
          "internalType": "address",
          "name": "",
          "type": "address"
        }
      ],
      "name": "beforeUpdate",
      "outputs": [],
      "stateMutability": "nonpayable",
      "type": "function"
    },
    {
      "inputs": [
        {
          "internalType": "address[]",
          "name": "_rewardTokens",
          "type": "address[]"
        }
      ],
      "name": "claimRewards",
      "outputs": [],
      "stateMutability": "nonpayable",
      "type": "function"
    },
    {
      "inputs": [
        {
          "internalType": "address",
          "name": "account",
          "type": "address"
        },
        {
          "internalType": "address",
          "name": "_rewardsToken",
          "type": "address"
        }
      ],
      "name": "earned",
      "outputs": [
        {
          "internalType": "uint256",
          "name": "",
          "type": "uint256"
        }
      ],
      "stateMutability": "view",
      "type": "function"
    },
    {
      "inputs": [
        {
          "internalType": "address",
          "name": "_rewardsToken",
          "type": "address"
        }
      ],
      "name": "getRewardForDuration",
      "outputs": [
        {
          "internalType": "uint256",
          "name": "",
          "type": "uint256"
        }
      ],
      "stateMutability": "view",
      "type": "function"
    },
    {
      "inputs": [
        {
          "internalType": "address",
          "name": "_rewardsToken",
          "type": "address"
        }
      ],
      "name": "lastTimeRewardApplicable",
      "outputs": [
        {
          "internalType": "uint256",
          "name": "",
          "type": "uint256"
        }
      ],
      "stateMutability": "view",
      "type": "function"
    },
    {
      "inputs": [
        {
          "internalType": "address",
          "name": "_rewardsToken",
          "type": "address"
        },
        {
          "internalType": "uint256",
          "name": "reward",
          "type": "uint256"
        }
      ],
      "name": "notifyRewardAmount",
      "outputs": [],
      "stateMutability": "nonpayable",
      "type": "function"
    },
    {
      "inputs": [],
      "name": "owner",
      "outputs": [
        {
          "internalType": "address",
          "name": "",
          "type": "address"
        }
      ],
      "stateMutability": "view",
      "type": "function"
    },
    {
      "inputs": [],
      "name": "paused",
      "outputs": [
        {
          "internalType": "bool",
          "name": "",
          "type": "bool"
        }
      ],
      "stateMutability": "view",
      "type": "function"
    },
    {
      "inputs": [],
      "name": "primeRBAC",
      "outputs": [
        {
          "internalType": "contract IPrimeRBAC",
          "name": "",
          "type": "address"
        }
      ],
      "stateMutability": "view",
      "type": "function"
    },
    {
      "inputs": [
        {
          "internalType": "address",
          "name": "tokenAddress",
          "type": "address"
        },
        {
          "internalType": "uint256",
          "name": "tokenAmount",
          "type": "uint256"
        }
      ],
      "name": "recoverERC20",
      "outputs": [],
      "stateMutability": "nonpayable",
      "type": "function"
    },
    {
      "inputs": [
        {
          "internalType": "address",
          "name": "",
          "type": "address"
        }
      ],
      "name": "rewardData",
      "outputs": [
        {
          "internalType": "address",
          "name": "rewardsDistributor",
          "type": "address"
        },
        {
          "internalType": "uint256",
          "name": "rewardsDuration",
          "type": "uint256"
        },
        {
          "internalType": "uint256",
          "name": "periodFinish",
          "type": "uint256"
        },
        {
          "internalType": "uint256",
          "name": "rewardRate",
          "type": "uint256"
        },
        {
          "internalType": "uint256",
          "name": "lastUpdateTime",
          "type": "uint256"
        },
        {
          "internalType": "uint256",
          "name": "rewardPerTokenStored",
          "type": "uint256"
        }
      ],
      "stateMutability": "view",
      "type": "function"
    },
    {
      "inputs": [
        {
          "internalType": "address",
          "name": "_rewardsToken",
          "type": "address"
        }
      ],
      "name": "rewardPerToken",
      "outputs": [
        {
          "internalType": "uint256",
          "name": "",
          "type": "uint256"
        }
      ],
      "stateMutability": "view",
      "type": "function"
    },
    {
      "inputs": [
        {
          "internalType": "uint256",
          "name": "",
          "type": "uint256"
        }
      ],
      "name": "rewardTokens",
      "outputs": [
        {
          "internalType": "address",
          "name": "",
          "type": "address"
        }
      ],
      "stateMutability": "view",
      "type": "function"
    },
    {
      "inputs": [
        {
          "internalType": "address",
          "name": "",
          "type": "address"
        },
        {
          "internalType": "address",
          "name": "",
          "type": "address"
        }
      ],
      "name": "rewards",
      "outputs": [
        {
          "internalType": "uint256",
          "name": "",
          "type": "uint256"
        }
      ],
      "stateMutability": "view",
      "type": "function"
    },
    {
      "inputs": [
        {
          "internalType": "contract Authority",
          "name": "newAuthority",
          "type": "address"
        }
      ],
      "name": "setAuthority",
      "outputs": [],
      "stateMutability": "nonpayable",
      "type": "function"
    },
    {
      "inputs": [
        {
          "internalType": "bool",
          "name": "_paused",
          "type": "bool"
        }
      ],
      "name": "setPaused",
      "outputs": [],
      "stateMutability": "nonpayable",
      "type": "function"
    },
    {
      "inputs": [
        {
          "internalType": "address",
          "name": "_rewardsToken",
          "type": "address"
        },
        {
          "internalType": "address",
          "name": "_rewardsDistributor",
          "type": "address"
        }
      ],
      "name": "setRewardsDistributor",
      "outputs": [],
      "stateMutability": "nonpayable",
      "type": "function"
    },
    {
      "inputs": [
        {
          "internalType": "address",
          "name": "_rewardsToken",
          "type": "address"
        },
        {
          "internalType": "uint256",
          "name": "_rewardsDuration",
          "type": "uint256"
        }
      ],
      "name": "setRewardsDuration",
      "outputs": [],
      "stateMutability": "nonpayable",
      "type": "function"
    },
    {
      "inputs": [],
      "name": "totalSupply",
      "outputs": [
        {
          "internalType": "uint256",
          "name": "",
          "type": "uint256"
        }
      ],
      "stateMutability": "view",
      "type": "function"
    },
    {
      "inputs": [
        {
          "internalType": "address",
          "name": "newOwner",
          "type": "address"
        }
      ],
      "name": "transferOwnership",
      "outputs": [],
      "stateMutability": "nonpayable",
      "type": "function"
    },
    {
      "inputs": [
        {
          "internalType": "address",
          "name": "account",
          "type": "address"
        }
      ],
      "name": "updateRewardForAccount",
      "outputs": [],
      "stateMutability": "nonpayable",
      "type": "function"
    },
    {
      "inputs": [
        {
          "internalType": "address",
          "name": "",
          "type": "address"
        },
        {
          "internalType": "address",
          "name": "",
          "type": "address"
        }
      ],
      "name": "userRewardPerTokenPaid",
      "outputs": [
        {
          "internalType": "uint256",
          "name": "",
          "type": "uint256"
        }
      ],
      "stateMutability": "view",
      "type": "function"
    },
    {
      "inputs": [],
      "name": "vault",
      "outputs": [
        {
          "internalType": "contract ERC20",
          "name": "",
          "type": "address"
        }
      ],
      "stateMutability": "view",
      "type": "function"
    }
  ],
  "bytecode": "0x60a06040526001600355348015610014575f5ffd5b5060405161371d38038061371d8339818101604052810190610036919061031b565b818173ffffffffffffffffffffffffffffffffffffffff1663bf7e214f6040518163ffffffff1660e01b8152600401602060405180830381865afa158015610080573d5f5f3e3d5ffd5b505050506040513d601f19601f820116820180604052508101906100a49190610394565b3381815f5f6101000a81548173ffffffffffffffffffffffffffffffffffffffff021916908373ffffffffffffffffffffffffffffffffffffffff1602179055508060015f6101000a81548173ffffffffffffffffffffffffffffffffffffffff021916908373ffffffffffffffffffffffffffffffffffffffff1602179055508173ffffffffffffffffffffffffffffffffffffffff163373ffffffffffffffffffffffffffffffffffffffff167f8be0079c531659141344cd1fd0a4f28419497f9722a3daafe3b4186f6b6457e060405160405180910390a38073ffffffffffffffffffffffffffffffffffffffff163373ffffffffffffffffffffffffffffffffffffffff167fa3396fd7f6e0a21b50e5089d2da70d5ac0a3bbbd1f617a93f134b7638998019860405160405180910390a350505f73ffffffffffffffffffffffffffffffffffffffff168273ffffffffffffffffffffffffffffffffffffffff1603610240576040517f538ba4f900000000000000000000000000000000000000000000000000000000815260040160405180910390fd5b8160025f6101000a81548173ffffffffffffffffffffffffffffffffffffffff021916908373ffffffffffffffffffffffffffffffffffffffff16021790555050508073ffffffffffffffffffffffffffffffffffffffff1660808173ffffffffffffffffffffffffffffffffffffffff168152505050506103bf565b5f5ffd5b5f73ffffffffffffffffffffffffffffffffffffffff82169050919050565b5f6102ea826102c1565b9050919050565b6102fa816102e0565b8114610304575f5ffd5b50565b5f81519050610315816102f1565b92915050565b5f5f60408385031215610331576103306102bd565b5b5f61033e85828601610307565b925050602061034f85828601610307565b9150509250929050565b5f610363826102e0565b9050919050565b61037381610359565b811461037d575f5ffd5b50565b5f8151905061038e8161036a565b92915050565b5f602082840312156103a9576103a86102bd565b5b5f6103b684828501610380565b91505092915050565b60805161331c6104015f395f81816105ef0152818161079001528181610c930152818161109901528181611d8901528181611e6301526125a0015261331c5ff3fe608060405234801561000f575f5ffd5b506004361061018c575f3560e01c80638da5cb5b116100dc578063e37d7e6811610095578063f12297771161006f578063f1229777146104a7578063f2fde38b146104d7578063f9f031df146104f3578063fbfa77cf1461050f5761018c565b8063e37d7e681461043d578063e70b9e271461045b578063f0ea59151461048b5761018c565b80638da5cb5b1461037d578063a65492211461039b578063b66503cf146103b7578063bcd11014146103d3578063bf7e214f14610403578063d0ed26ae146104215761018c565b80635c975abb1161014957806370a082311161012357806370a08231146102e55780637a9e5e4b146103155780637bb7bed1146103315780638980f11f146103615761018c565b80635c975abb14610267578063638634ee146102855780637035ab98146102b55761018c565b806316c38b3c1461019057806318160ddd146101ac578063211dc32d146101ca5780632378bea6146101fa5780633f695b451461021657806348e5d9f814610232575b5f5ffd5b6101aa60048036038101906101a591906128cc565b61052d565b005b6101b46105ec565b6040516101c1919061290f565b60405180910390f35b6101e460048036038101906101df9190612982565b61067f565b6040516101f1919061290f565b60405180910390f35b610214600480360381019061020f91906129ea565b61084c565b005b610230600480360381019061022b9190612982565b610a83565b005b61024c60048036038101906102479190612a28565b610b70565b60405161025e96959493929190612a62565b60405180910390f35b61026f610bc7565b60405161027c9190612ad0565b60405180910390f35b61029f600480360381019061029a9190612a28565b610bd9565b6040516102ac919061290f565b60405180910390f35b6102cf60048036038101906102ca9190612982565b610c70565b6040516102dc919061290f565b60405180910390f35b6102ff60048036038101906102fa9190612a28565b610c90565b60405161030c919061290f565b60405180910390f35b61032f600480360381019061032a9190612b24565b610d30565b005b61034b60048036038101906103469190612b4f565b610eeb565b6040516103589190612b7a565b60405180910390f35b61037b600480360381019061037691906129ea565b610f26565b005b610385611073565b6040516103929190612b7a565b60405180910390f35b6103b560048036038101906103b09190612b93565b611097565b005b6103d160048036038101906103cc91906129ea565b6111b0565b005b6103ed60048036038101906103e89190612a28565b61183b565b6040516103fa919061290f565b60405180910390f35b61040b6118cf565b6040516104189190612c52565b60405180910390f35b61043b60048036038101906104369190612c6b565b6118f4565b005b610445611b00565b6040516104529190612cdb565b60405180910390f35b61047560048036038101906104709190612982565b611b25565b604051610482919061290f565b60405180910390f35b6104a560048036038101906104a09190612a28565b611b45565b005b6104c160048036038101906104bc9190612a28565b611d85565b6040516104ce919061290f565b60405180910390f35b6104f160048036038101906104ec9190612a28565b611ffd565b005b61050d60048036038101906105089190612e44565b612105565b005b61051761259e565b6040516105249190612eab565b60405180910390f35b61055a335f357fffffffff00000000000000000000000000000000000000000000000000000000166125c2565b610599576040517f08c379a000000000000000000000000000000000000000000000000000000000815260040161059090612f1e565b60405180910390fd5b8060085f6101000a81548160ff0219169083151502179055507f31311016d7204faff81880133e3db244ae8a8b9ce15e83e2432258226d15f942816040516105e19190612ad0565b60405180910390a150565b5f7f000000000000000000000000000000000000000000000000000000000000000073ffffffffffffffffffffffffffffffffffffffff166318160ddd6040518163ffffffff1660e01b8152600401602060405180830381865afa158015610656573d5f5f3e3d5ffd5b505050506040513d601f19601f8201168201806040525081019061067a9190612f50565b905090565b5f60075f8473ffffffffffffffffffffffffffffffffffffffff1673ffffffffffffffffffffffffffffffffffffffff1681526020019081526020015f205f8373ffffffffffffffffffffffffffffffffffffffff1673ffffffffffffffffffffffffffffffffffffffff1681526020019081526020015f2054670de0b6b3a764000060065f8673ffffffffffffffffffffffffffffffffffffffff1673ffffffffffffffffffffffffffffffffffffffff1681526020019081526020015f205f8573ffffffffffffffffffffffffffffffffffffffff1673ffffffffffffffffffffffffffffffffffffffff1681526020019081526020015f205461078485611d85565b61078e9190612fa8565b7f000000000000000000000000000000000000000000000000000000000000000073ffffffffffffffffffffffffffffffffffffffff166370a08231876040518263ffffffff1660e01b81526004016107e79190612b7a565b602060405180830381865afa158015610802573d5f5f3e3d5ffd5b505050506040513d601f19601f820116820180604052508101906108269190612f50565b6108309190612fdb565b61083a9190613049565b6108449190613079565b905092915050565b60045f8373ffffffffffffffffffffffffffffffffffffffff1673ffffffffffffffffffffffffffffffffffffffff1681526020019081526020015f206002015442116108c5576040517ffb61f6df00000000000000000000000000000000000000000000000000000000815260040160405180910390fd5b3373ffffffffffffffffffffffffffffffffffffffff1660045f8473ffffffffffffffffffffffffffffffffffffffff1673ffffffffffffffffffffffffffffffffffffffff1681526020019081526020015f205f015f9054906101000a900473ffffffffffffffffffffffffffffffffffffffff1673ffffffffffffffffffffffffffffffffffffffff1614610988576040517f4ef3867000000000000000000000000000000000000000000000000000000000815260040160405180910390fd5b5f81036109c1576040517f386d595500000000000000000000000000000000000000000000000000000000815260040160405180910390fd5b8060045f8473ffffffffffffffffffffffffffffffffffffffff1673ffffffffffffffffffffffffffffffffffffffff1681526020019081526020015f20600101819055507fad2f86b01ed93b4b3a150d448c61a4f5d8d38075d3c0c64cc0a26fd6e1f495458260045f8573ffffffffffffffffffffffffffffffffffffffff1673ffffffffffffffffffffffffffffffffffffffff1681526020019081526020015f2060010154604051610a779291906130ac565b60405180910390a15050565b610ab0335f357fffffffff00000000000000000000000000000000000000000000000000000000166125c2565b610aef576040517f08c379a0000000000000000000000000000000000000000000000000000000008152600401610ae690612f1e565b60405180910390fd5b8060045f8473ffffffffffffffffffffffffffffffffffffffff1673ffffffffffffffffffffffffffffffffffffffff1681526020019081526020015f205f015f6101000a81548173ffffffffffffffffffffffffffffffffffffffff021916908373ffffffffffffffffffffffffffffffffffffffff1602179055505050565b6004602052805f5260405f205f91509050805f015f9054906101000a900473ffffffffffffffffffffffffffffffffffffffff16908060010154908060020154908060030154908060040154908060050154905086565b60085f9054906101000a900460ff1681565b5f60045f8373ffffffffffffffffffffffffffffffffffffffff1673ffffffffffffffffffffffffffffffffffffffff1681526020019081526020015f20600201544210610c675760045f8373ffffffffffffffffffffffffffffffffffffffff1673ffffffffffffffffffffffffffffffffffffffff1681526020019081526020015f2060020154610c69565b425b9050919050565b6006602052815f5260405f20602052805f5260405f205f91509150505481565b5f7f000000000000000000000000000000000000000000000000000000000000000073ffffffffffffffffffffffffffffffffffffffff166370a08231836040518263ffffffff1660e01b8152600401610cea9190612b7a565b602060405180830381865afa158015610d05573d5f5f3e3d5ffd5b505050506040513d601f19601f82011682018060405250810190610d299190612f50565b9050919050565b5f5f9054906101000a900473ffffffffffffffffffffffffffffffffffffffff1673ffffffffffffffffffffffffffffffffffffffff163373ffffffffffffffffffffffffffffffffffffffff161480610e46575060015f9054906101000a900473ffffffffffffffffffffffffffffffffffffffff1673ffffffffffffffffffffffffffffffffffffffff1663b700961333305f357fffffffff00000000000000000000000000000000000000000000000000000000166040518463ffffffff1660e01b8152600401610e069392919061310d565b602060405180830381865afa158015610e21573d5f5f3e3d5ffd5b505050506040513d601f19601f82011682018060405250810190610e459190613156565b5b610e4e575f5ffd5b8060015f6101000a81548173ffffffffffffffffffffffffffffffffffffffff021916908373ffffffffffffffffffffffffffffffffffffffff1602179055508073ffffffffffffffffffffffffffffffffffffffff163373ffffffffffffffffffffffffffffffffffffffff167fa3396fd7f6e0a21b50e5089d2da70d5ac0a3bbbd1f617a93f134b7638998019860405160405180910390a350565b60058181548110610efa575f80fd5b905f5260205f20015f915054906101000a900473ffffffffffffffffffffffffffffffffffffffff1681565b610f53335f357fffffffff00000000000000000000000000000000000000000000000000000000166125c2565b610f92576040517f08c379a0000000000000000000000000000000000000000000000000000000008152600401610f8990612f1e565b60405180910390fd5b5f60045f8473ffffffffffffffffffffffffffffffffffffffff1673ffffffffffffffffffffffffffffffffffffffff1681526020019081526020015f20600401541461100b576040517f18ac301100000000000000000000000000000000000000000000000000000000815260040160405180910390fd5b61103633828473ffffffffffffffffffffffffffffffffffffffff166126fb9092919063ffffffff16565b7f8c1256b8896378cd5044f80c202f9772b9d77dc85c8a6eb51967210b09bfaa2882826040516110679291906130ac565b60405180910390a15050565b5f5f9054906101000a900473ffffffffffffffffffffffffffffffffffffffff1681565b7f000000000000000000000000000000000000000000000000000000000000000073ffffffffffffffffffffffffffffffffffffffff163373ffffffffffffffffffffffffffffffffffffffff161461111c576040517f4ef3867000000000000000000000000000000000000000000000000000000000815260040160405180910390fd5b60085f9054906101000a900460ff166111aa575f73ffffffffffffffffffffffffffffffffffffffff168473ffffffffffffffffffffffffffffffffffffffff161461116c5761116b84611b45565b5b5f73ffffffffffffffffffffffffffffffffffffffff168373ffffffffffffffffffffffffffffffffffffffff16146111a9576111a883611b45565b5b5b50505050565b5f5f5f90505b600580549050811015611421575f600582815481106111d8576111d7613181565b5b905f5260205f20015f9054906101000a900473ffffffffffffffffffffffffffffffffffffffff16905061120b81611d85565b60045f8373ffffffffffffffffffffffffffffffffffffffff1673ffffffffffffffffffffffffffffffffffffffff1681526020019081526020015f206005018190555061125881610bd9565b60045f8373ffffffffffffffffffffffffffffffffffffffff1673ffffffffffffffffffffffffffffffffffffffff1681526020019081526020015f20600401819055505f73ffffffffffffffffffffffffffffffffffffffff168373ffffffffffffffffffffffffffffffffffffffff1614611413576112d9838261067f565b60075f8573ffffffffffffffffffffffffffffffffffffffff1673ffffffffffffffffffffffffffffffffffffffff1681526020019081526020015f205f8373ffffffffffffffffffffffffffffffffffffffff1673ffffffffffffffffffffffffffffffffffffffff1681526020019081526020015f208190555060045f8273ffffffffffffffffffffffffffffffffffffffff1673ffffffffffffffffffffffffffffffffffffffff1681526020019081526020015f206005015460065f8573ffffffffffffffffffffffffffffffffffffffff1673ffffffffffffffffffffffffffffffffffffffff1681526020019081526020015f205f8373ffffffffffffffffffffffffffffffffffffffff1673ffffffffffffffffffffffffffffffffffffffff1681526020019081526020015f20819055505b5080806001019150506111b6565b503373ffffffffffffffffffffffffffffffffffffffff1660045f8573ffffffffffffffffffffffffffffffffffffffff1673ffffffffffffffffffffffffffffffffffffffff1681526020019081526020015f205f015f9054906101000a900473ffffffffffffffffffffffffffffffffffffffff1673ffffffffffffffffffffffffffffffffffffffff16146114e5576040517f4ef3867000000000000000000000000000000000000000000000000000000000815260040160405180910390fd5b6115123330848673ffffffffffffffffffffffffffffffffffffffff166127b2909392919063ffffffff16565b60045f8473ffffffffffffffffffffffffffffffffffffffff1673ffffffffffffffffffffffffffffffffffffffff1681526020019081526020015f206002015442106115ee5760045f8473ffffffffffffffffffffffffffffffffffffffff1673ffffffffffffffffffffffffffffffffffffffff1681526020019081526020015f2060010154826115a59190613049565b60045f8573ffffffffffffffffffffffffffffffffffffffff1673ffffffffffffffffffffffffffffffffffffffff1681526020019081526020015f206003018190555061172a565b5f4260045f8673ffffffffffffffffffffffffffffffffffffffff1673ffffffffffffffffffffffffffffffffffffffff1681526020019081526020015f206002015461163b9190612fa8565b90505f60045f8673ffffffffffffffffffffffffffffffffffffffff1673ffffffffffffffffffffffffffffffffffffffff1681526020019081526020015f20600301548261168a9190612fdb565b905060045f8673ffffffffffffffffffffffffffffffffffffffff1673ffffffffffffffffffffffffffffffffffffffff1681526020019081526020015f206001015481856116d99190613079565b6116e39190613049565b60045f8773ffffffffffffffffffffffffffffffffffffffff1673ffffffffffffffffffffffffffffffffffffffff1681526020019081526020015f206003018190555050505b4260045f8573ffffffffffffffffffffffffffffffffffffffff1673ffffffffffffffffffffffffffffffffffffffff1681526020019081526020015f206004018190555060045f8473ffffffffffffffffffffffffffffffffffffffff1673ffffffffffffffffffffffffffffffffffffffff1681526020019081526020015f2060010154426117bb9190613079565b60045f8573ffffffffffffffffffffffffffffffffffffffff1673ffffffffffffffffffffffffffffffffffffffff1681526020019081526020015f20600201819055507fde88a922e0d3b88b24e9623efeb464919c6bf9f66857a65e2bfcf2ce87a9433d8260405161182e919061290f565b60405180910390a1505050565b5f60045f8373ffffffffffffffffffffffffffffffffffffffff1673ffffffffffffffffffffffffffffffffffffffff1681526020019081526020015f206001015460045f8473ffffffffffffffffffffffffffffffffffffffff1673ffffffffffffffffffffffffffffffffffffffff1681526020019081526020015f20600301546118c89190612fdb565b9050919050565b60015f9054906101000a900473ffffffffffffffffffffffffffffffffffffffff1681565b611921335f357fffffffff00000000000000000000000000000000000000000000000000000000166125c2565b611960576040517f08c379a000000000000000000000000000000000000000000000000000000000815260040161195790612f1e565b60405180910390fd5b5f60045f8573ffffffffffffffffffffffffffffffffffffffff1673ffffffffffffffffffffffffffffffffffffffff1681526020019081526020015f2060010154146119d9576040517f43c1476600000000000000000000000000000000000000000000000000000000815260040160405180910390fd5b600583908060018154018082558091505060019003905f5260205f20015f9091909190916101000a81548173ffffffffffffffffffffffffffffffffffffffff021916908373ffffffffffffffffffffffffffffffffffffffff1602179055508160045f8573ffffffffffffffffffffffffffffffffffffffff1673ffffffffffffffffffffffffffffffffffffffff1681526020019081526020015f205f015f6101000a81548173ffffffffffffffffffffffffffffffffffffffff021916908373ffffffffffffffffffffffffffffffffffffffff1602179055508060045f8573ffffffffffffffffffffffffffffffffffffffff1673ffffffffffffffffffffffffffffffffffffffff1681526020019081526020015f2060010181905550505050565b60025f9054906101000a900473ffffffffffffffffffffffffffffffffffffffff1681565b6007602052815f5260405f20602052805f5260405f205f91509150505481565b5f5f90505b600580549050811015611d81575f60058281548110611b6c57611b6b613181565b5b905f5260205f20015f9054906101000a900473ffffffffffffffffffffffffffffffffffffffff169050611b9f81611d85565b60045f8373ffffffffffffffffffffffffffffffffffffffff1673ffffffffffffffffffffffffffffffffffffffff1681526020019081526020015f2060050181905550611bec81610bd9565b60045f8373ffffffffffffffffffffffffffffffffffffffff1673ffffffffffffffffffffffffffffffffffffffff1681526020019081526020015f2060040181905550611c3a838261067f565b60075f8573ffffffffffffffffffffffffffffffffffffffff1673ffffffffffffffffffffffffffffffffffffffff1681526020019081526020015f205f8373ffffffffffffffffffffffffffffffffffffffff1673ffffffffffffffffffffffffffffffffffffffff1681526020019081526020015f208190555060045f8273ffffffffffffffffffffffffffffffffffffffff1673ffffffffffffffffffffffffffffffffffffffff1681526020019081526020015f206005015460065f8573ffffffffffffffffffffffffffffffffffffffff1673ffffffffffffffffffffffffffffffffffffffff1681526020019081526020015f205f8373ffffffffffffffffffffffffffffffffffffffff1673ffffffffffffffffffffffffffffffffffffffff1681526020019081526020015f2081905550508080600101915050611b4a565b5050565b5f5f7f000000000000000000000000000000000000000000000000000000000000000073ffffffffffffffffffffffffffffffffffffffff166318160ddd6040518163ffffffff1660e01b8152600401602060405180830381865afa158015611df0573d5f5f3e3d5ffd5b505050506040513d601f19601f82011682018060405250810190611e149190612f50565b03611e615760045f8373ffffffffffffffffffffffffffffffffffffffff1673ffffffffffffffffffffffffffffffffffffffff1681526020019081526020015f20600501549050611ff8565b7f000000000000000000000000000000000000000000000000000000000000000073ffffffffffffffffffffffffffffffffffffffff166318160ddd6040518163ffffffff1660e01b8152600401602060405180830381865afa158015611eca573d5f5f3e3d5ffd5b505050506040513d601f19601f82011682018060405250810190611eee9190612f50565b670de0b6b3a764000060045f8573ffffffffffffffffffffffffffffffffffffffff1673ffffffffffffffffffffffffffffffffffffffff1681526020019081526020015f206003015460045f8673ffffffffffffffffffffffffffffffffffffffff1673ffffffffffffffffffffffffffffffffffffffff1681526020019081526020015f2060040154611f8286610bd9565b611f8c9190612fa8565b611f969190612fdb565b611fa09190612fdb565b611faa9190613049565b60045f8473ffffffffffffffffffffffffffffffffffffffff1673ffffffffffffffffffffffffffffffffffffffff1681526020019081526020015f2060050154611ff59190613079565b90505b919050565b61202a335f357fffffffff00000000000000000000000000000000000000000000000000000000166125c2565b612069576040517f08c379a000000000000000000000000000000000000000000000000000000000815260040161206090612f1e565b60405180910390fd5b805f5f6101000a81548173ffffffffffffffffffffffffffffffffffffffff021916908373ffffffffffffffffffffffffffffffffffffffff1602179055508073ffffffffffffffffffffffffffffffffffffffff163373ffffffffffffffffffffffffffffffffffffffff167f8be0079c531659141344cd1fd0a4f28419497f9722a3daafe3b4186f6b6457e060405160405180910390a350565b60016003541461214a576040517f08c379a0000000000000000000000000000000000000000000000000000000008152600401612141906131f8565b60405180910390fd5b6002600381905550335f5f90505b6005805490508110156123c3575f6005828154811061217a57612179613181565b5b905f5260205f20015f9054906101000a900473ffffffffffffffffffffffffffffffffffffffff1690506121ad81611d85565b60045f8373ffffffffffffffffffffffffffffffffffffffff1673ffffffffffffffffffffffffffffffffffffffff1681526020019081526020015f20600501819055506121fa81610bd9565b60045f8373ffffffffffffffffffffffffffffffffffffffff1673ffffffffffffffffffffffffffffffffffffffff1681526020019081526020015f20600401819055505f73ffffffffffffffffffffffffffffffffffffffff168373ffffffffffffffffffffffffffffffffffffffff16146123b55761227b838261067f565b60075f8573ffffffffffffffffffffffffffffffffffffffff1673ffffffffffffffffffffffffffffffffffffffff1681526020019081526020015f205f8373ffffffffffffffffffffffffffffffffffffffff1673ffffffffffffffffffffffffffffffffffffffff1681526020019081526020015f208190555060045f8273ffffffffffffffffffffffffffffffffffffffff1673ffffffffffffffffffffffffffffffffffffffff1681526020019081526020015f206005015460065f8573ffffffffffffffffffffffffffffffffffffffff1673ffffffffffffffffffffffffffffffffffffffff1681526020019081526020015f205f8373ffffffffffffffffffffffffffffffffffffffff1673ffffffffffffffffffffffffffffffffffffffff1681526020019081526020015f20819055505b508080600101915050612158565b505f5f90505b8251811015612591575f8382815181106123e6576123e5613181565b5b602002602001015190505f60075f3373ffffffffffffffffffffffffffffffffffffffff1673ffffffffffffffffffffffffffffffffffffffff1681526020019081526020015f205f8373ffffffffffffffffffffffffffffffffffffffff1673ffffffffffffffffffffffffffffffffffffffff1681526020019081526020015f205490505f811115612582575f60075f3373ffffffffffffffffffffffffffffffffffffffff1673ffffffffffffffffffffffffffffffffffffffff1681526020019081526020015f205f8473ffffffffffffffffffffffffffffffffffffffff1673ffffffffffffffffffffffffffffffffffffffff1681526020019081526020015f208190555061251c33828473ffffffffffffffffffffffffffffffffffffffff166126fb9092919063ffffffff16565b8173ffffffffffffffffffffffffffffffffffffffff163373ffffffffffffffffffffffffffffffffffffffff167f540798df468d7b23d11f156fdb954cb19ad414d150722a7b6d55ba369dea792e83604051612579919061290f565b60405180910390a35b505080806001019150506123c9565b5050600160038190555050565b7f000000000000000000000000000000000000000000000000000000000000000081565b5f5f60015f9054906101000a900473ffffffffffffffffffffffffffffffffffffffff1690505f73ffffffffffffffffffffffffffffffffffffffff168173ffffffffffffffffffffffffffffffffffffffff161415801561269c57508073ffffffffffffffffffffffffffffffffffffffff1663b70096138530866040518463ffffffff1660e01b815260040161265c9392919061310d565b602060405180830381865afa158015612677573d5f5f3e3d5ffd5b505050506040513d601f19601f8201168201806040525081019061269b9190613156565b5b806126f257505f5f9054906101000a900473ffffffffffffffffffffffffffffffffffffffff1673ffffffffffffffffffffffffffffffffffffffff168473ffffffffffffffffffffffffffffffffffffffff16145b91505092915050565b5f6040517fa9059cbb00000000000000000000000000000000000000000000000000000000815273ffffffffffffffffffffffffffffffffffffffff8416600482015282602482015260205f6044835f895af1915081601f3d1160015f51141615161561276b573d853b15171591505b50806127ac576040517f08c379a00000000000000000000000000000000000000000000000000000000081526004016127a390613260565b60405180910390fd5b50505050565b5f6040517f23b872dd00000000000000000000000000000000000000000000000000000000815273ffffffffffffffffffffffffffffffffffffffff8516600482015273ffffffffffffffffffffffffffffffffffffffff8416602482015282604482015260205f6064835f8a5af1915081601f3d1160015f51141615161561283e573d863b15171591505b508061287f576040517f08c379a0000000000000000000000000000000000000000000000000000000008152600401612876906132c8565b60405180910390fd5b5050505050565b5f604051905090565b5f5ffd5b5f5ffd5b5f8115159050919050565b6128ab81612897565b81146128b5575f5ffd5b50565b5f813590506128c6816128a2565b92915050565b5f602082840312156128e1576128e061288f565b5b5f6128ee848285016128b8565b91505092915050565b5f819050919050565b612909816128f7565b82525050565b5f6020820190506129225f830184612900565b92915050565b5f73ffffffffffffffffffffffffffffffffffffffff82169050919050565b5f61295182612928565b9050919050565b61296181612947565b811461296b575f5ffd5b50565b5f8135905061297c81612958565b92915050565b5f5f604083850312156129985761299761288f565b5b5f6129a58582860161296e565b92505060206129b68582860161296e565b9150509250929050565b6129c9816128f7565b81146129d3575f5ffd5b50565b5f813590506129e4816129c0565b92915050565b5f5f60408385031215612a00576129ff61288f565b5b5f612a0d8582860161296e565b9250506020612a1e858286016129d6565b9150509250929050565b5f60208284031215612a3d57612a3c61288f565b5b5f612a4a8482850161296e565b91505092915050565b612a5c81612947565b82525050565b5f60c082019050612a755f830189612a53565b612a826020830188612900565b612a8f6040830187612900565b612a9c6060830186612900565b612aa96080830185612900565b612ab660a0830184612900565b979650505050505050565b612aca81612897565b82525050565b5f602082019050612ae35f830184612ac1565b92915050565b5f612af382612947565b9050919050565b612b0381612ae9565b8114612b0d575f5ffd5b50565b5f81359050612b1e81612afa565b92915050565b5f60208284031215612b3957612b3861288f565b5b5f612b4684828501612b10565b91505092915050565b5f60208284031215612b6457612b6361288f565b5b5f612b71848285016129d6565b91505092915050565b5f602082019050612b8d5f830184612a53565b92915050565b5f5f5f5f60808587031215612bab57612baa61288f565b5b5f612bb88782880161296e565b9450506020612bc98782880161296e565b9350506040612bda878288016129d6565b9250506060612beb8782880161296e565b91505092959194509250565b5f819050919050565b5f612c1a612c15612c1084612928565b612bf7565b612928565b9050919050565b5f612c2b82612c00565b9050919050565b5f612c3c82612c21565b9050919050565b612c4c81612c32565b82525050565b5f602082019050612c655f830184612c43565b92915050565b5f5f5f60608486031215612c8257612c8161288f565b5b5f612c8f8682870161296e565b9350506020612ca08682870161296e565b9250506040612cb1868287016129d6565b9150509250925092565b5f612cc582612c21565b9050919050565b612cd581612cbb565b82525050565b5f602082019050612cee5f830184612ccc565b92915050565b5f5ffd5b5f601f19601f8301169050919050565b7f4e487b71000000000000000000000000000000000000000000000000000000005f52604160045260245ffd5b612d3e82612cf8565b810181811067ffffffffffffffff82111715612d5d57612d5c612d08565b5b80604052505050565b5f612d6f612886565b9050612d7b8282612d35565b919050565b5f67ffffffffffffffff821115612d9a57612d99612d08565b5b602082029050602081019050919050565b5f5ffd5b5f612dc1612dbc84612d80565b612d66565b90508083825260208201905060208402830185811115612de457612de3612dab565b5b835b81811015612e0d5780612df9888261296e565b845260208401935050602081019050612de6565b5050509392505050565b5f82601f830112612e2b57612e2a612cf4565b5b8135612e3b848260208601612daf565b91505092915050565b5f60208284031215612e5957612e5861288f565b5b5f82013567ffffffffffffffff811115612e7657612e75612893565b5b612e8284828501612e17565b91505092915050565b5f612e9582612c21565b9050919050565b612ea581612e8b565b82525050565b5f602082019050612ebe5f830184612e9c565b92915050565b5f82825260208201905092915050565b7f554e415554484f52495a454400000000000000000000000000000000000000005f82015250565b5f612f08600c83612ec4565b9150612f1382612ed4565b602082019050919050565b5f6020820190508181035f830152612f3581612efc565b9050919050565b5f81519050612f4a816129c0565b92915050565b5f60208284031215612f6557612f6461288f565b5b5f612f7284828501612f3c565b91505092915050565b7f4e487b71000000000000000000000000000000000000000000000000000000005f52601160045260245ffd5b5f612fb2826128f7565b9150612fbd836128f7565b9250828203905081811115612fd557612fd4612f7b565b5b92915050565b5f612fe5826128f7565b9150612ff0836128f7565b9250828202612ffe816128f7565b9150828204841483151761301557613014612f7b565b5b5092915050565b7f4e487b71000000000000000000000000000000000000000000000000000000005f52601260045260245ffd5b5f613053826128f7565b915061305e836128f7565b92508261306e5761306d61301c565b5b828204905092915050565b5f613083826128f7565b915061308e836128f7565b92508282019050808211156130a6576130a5612f7b565b5b92915050565b5f6040820190506130bf5f830185612a53565b6130cc6020830184612900565b9392505050565b5f7fffffffff0000000000000000000000000000000000000000000000000000000082169050919050565b613107816130d3565b82525050565b5f6060820190506131205f830186612a53565b61312d6020830185612a53565b61313a60408301846130fe565b949350505050565b5f81519050613150816128a2565b92915050565b5f6020828403121561316b5761316a61288f565b5b5f61317884828501613142565b91505092915050565b7f4e487b71000000000000000000000000000000000000000000000000000000005f52603260045260245ffd5b7f5245454e5452414e4359000000000000000000000000000000000000000000005f82015250565b5f6131e2600a83612ec4565b91506131ed826131ae565b602082019050919050565b5f6020820190508181035f83015261320f816131d6565b9050919050565b7f5452414e534645525f4641494c454400000000000000000000000000000000005f82015250565b5f61324a600f83612ec4565b915061325582613216565b602082019050919050565b5f6020820190508181035f8301526132778161323e565b9050919050565b7f5452414e534645525f46524f4d5f4641494c45440000000000000000000000005f82015250565b5f6132b2601483612ec4565b91506132bd8261327e565b602082019050919050565b5f6020820190508181035f8301526132df816132a6565b905091905056fea264697066735822122018d1306a57d6fb5ff52b7e3b41349770073d8e40ae9fb8dc3c858760eeca4b3864736f6c634300081e0033",
  "linkReferences": {},
  "deployedLinkReferences": {},
  "immutableReferences": {
    "13562": [
      {
        "length": 32,
        "start": 1519
      },
      {
        "length": 32,
        "start": 1936
      },
      {
        "length": 32,
        "start": 3219
      },
      {
        "length": 32,
        "start": 4249
      },
      {
        "length": 32,
        "start": 7561
      },
      {
        "length": 32,
        "start": 7779
      },
      {
        "length": 32,
        "start": 9632
      }
    ]
  },
  "inputSourceName": "project/contracts/core/Distributor.sol",
  "buildInfoId": "solc-0_8_30-b812b6f9c8de22d6d072c72da0837b4069544e24"
}