{
  "_format": "hh3-artifact-1",
  "contractName": "BoringVault",
  "sourceName": "contracts/core/BoringVault.sol",
  "abi": [
    {
      "inputs": [
        {
          "internalType": "address",
          "name": "_primeRBAC",
          "type": "address"
        },
        {
          "internalType": "address",
          "name": "_authority",
          "type": "address"
        },
        {
          "internalType": "string",
          "name": "_name",
          "type": "string"
        },
        {
          "internalType": "string",
          "name": "_symbol",
          "type": "string"
        },
        {
          "internalType": "address",
          "name": "_asset",
          "type": "address"
        }
      ],
      "stateMutability": "nonpayable",
      "type": "constructor"
    },
    {
      "inputs": [
        {
          "internalType": "address",
          "name": "target",
          "type": "address"
        }
      ],
      "name": "AddressEmptyCode",
      "type": "error"
    },
    {
      "inputs": [],
      "name": "BoringVault__InvalidAsset",
      "type": "error"
    },
    {
      "inputs": [],
      "name": "FailedCall",
      "type": "error"
    },
    {
      "inputs": [
        {
          "internalType": "uint256",
          "name": "balance",
          "type": "uint256"
        },
        {
          "internalType": "uint256",
          "name": "needed",
          "type": "uint256"
        }
      ],
      "name": "InsufficientBalance",
      "type": "error"
    },
    {
      "inputs": [],
      "name": "NOT_PROTOCOL_ADMIN",
      "type": "error"
    },
    {
      "inputs": [],
      "name": "ZERO_ADDRESS",
      "type": "error"
    },
    {
      "anonymous": false,
      "inputs": [
        {
          "indexed": true,
          "internalType": "address",
          "name": "owner",
          "type": "address"
        },
        {
          "indexed": true,
          "internalType": "address",
          "name": "spender",
          "type": "address"
        },
        {
          "indexed": false,
          "internalType": "uint256",
          "name": "amount",
          "type": "uint256"
        }
      ],
      "name": "Approval",
      "type": "event"
    },
    {
      "anonymous": false,
      "inputs": [
        {
          "indexed": true,
          "internalType": "address",
          "name": "user",
          "type": "address"
        },
        {
          "indexed": true,
          "internalType": "contract Authority",
          "name": "newAuthority",
          "type": "address"
        }
      ],
      "name": "AuthorityUpdated",
      "type": "event"
    },
    {
      "anonymous": false,
      "inputs": [
        {
          "indexed": true,
          "internalType": "address",
          "name": "from",
          "type": "address"
        },
        {
          "indexed": true,
          "internalType": "address",
          "name": "asset",
          "type": "address"
        },
        {
          "indexed": false,
          "internalType": "uint256",
          "name": "amount",
          "type": "uint256"
        },
        {
          "indexed": true,
          "internalType": "address",
          "name": "to",
          "type": "address"
        },
        {
          "indexed": false,
          "internalType": "uint256",
          "name": "shares",
          "type": "uint256"
        }
      ],
      "name": "Enter",
      "type": "event"
    },
    {
      "anonymous": false,
      "inputs": [
        {
          "indexed": true,
          "internalType": "address",
          "name": "to",
          "type": "address"
        },
        {
          "indexed": true,
          "internalType": "address",
          "name": "asset",
          "type": "address"
        },
        {
          "indexed": false,
          "internalType": "uint256",
          "name": "amount",
          "type": "uint256"
        },
        {
          "indexed": true,
          "internalType": "address",
          "name": "from",
          "type": "address"
        },
        {
          "indexed": false,
          "internalType": "uint256",
          "name": "shares",
          "type": "uint256"
        }
      ],
      "name": "Exit",
      "type": "event"
    },
    {
      "anonymous": false,
      "inputs": [
        {
          "indexed": true,
          "internalType": "address",
          "name": "user",
          "type": "address"
        },
        {
          "indexed": true,
          "internalType": "address",
          "name": "newOwner",
          "type": "address"
        }
      ],
      "name": "OwnershipTransferred",
      "type": "event"
    },
    {
      "anonymous": false,
      "inputs": [
        {
          "indexed": true,
          "internalType": "address",
          "name": "from",
          "type": "address"
        },
        {
          "indexed": true,
          "internalType": "address",
          "name": "to",
          "type": "address"
        },
        {
          "indexed": false,
          "internalType": "uint256",
          "name": "amount",
          "type": "uint256"
        }
      ],
      "name": "Transfer",
      "type": "event"
    },
    {
      "inputs": [],
      "name": "DOMAIN_SEPARATOR",
      "outputs": [
        {
          "internalType": "bytes32",
          "name": "",
          "type": "bytes32"
        }
      ],
      "stateMutability": "view",
      "type": "function"
    },
    {
      "inputs": [
        {
          "internalType": "address",
          "name": "",
          "type": "address"
        },
        {
          "internalType": "address",
          "name": "",
          "type": "address"
        }
      ],
      "name": "allowance",
      "outputs": [
        {
          "internalType": "uint256",
          "name": "",
          "type": "uint256"
        }
      ],
      "stateMutability": "view",
      "type": "function"
    },
    {
      "inputs": [
        {
          "internalType": "address",
          "name": "spender",
          "type": "address"
        },
        {
          "internalType": "uint256",
          "name": "amount",
          "type": "uint256"
        }
      ],
      "name": "approve",
      "outputs": [
        {
          "internalType": "bool",
          "name": "",
          "type": "bool"
        }
      ],
      "stateMutability": "nonpayable",
      "type": "function"
    },
    {
      "inputs": [],
      "name": "asset",
      "outputs": [
        {
          "internalType": "contract ERC20",
          "name": "",
          "type": "address"
        }
      ],
      "stateMutability": "view",
      "type": "function"
    },
    {
      "inputs": [],
      "name": "authority",
      "outputs": [
        {
          "internalType": "contract Authority",
          "name": "",
          "type": "address"
        }
      ],
      "stateMutability": "view",
      "type": "function"
    },
    {
      "inputs": [
        {
          "internalType": "address",
          "name": "",
          "type": "address"
        }
      ],
      "name": "balanceOf",
      "outputs": [
        {
          "internalType": "uint256",
          "name": "",
          "type": "uint256"
        }
      ],
      "stateMutability": "view",
      "type": "function"
    },
    {
      "inputs": [],
      "name": "beforeUpdateHook",
      "outputs": [
        {
          "internalType": "contract IBeforeUpdateHook",
          "name": "",
          "type": "address"
        }
      ],
      "stateMutability": "view",
      "type": "function"
    },
    {
      "inputs": [
        {
          "internalType": "address[]",
          "name": "targets",
          "type": "address[]"
        },
        {
          "internalType": "bytes[]",
          "name": "data",
          "type": "bytes[]"
        },
        {
          "internalType": "uint256[]",
          "name": "values",
          "type": "uint256[]"
        }
      ],
      "name": "bulkManage",
      "outputs": [
        {
          "internalType": "bytes[]",
          "name": "results",
          "type": "bytes[]"
        }
      ],
      "stateMutability": "nonpayable",
      "type": "function"
    },
    {
      "inputs": [],
      "name": "decimals",
      "outputs": [
        {
          "internalType": "uint8",
          "name": "",
          "type": "uint8"
        }
      ],
      "stateMutability": "view",
      "type": "function"
    },
    {
      "inputs": [
        {
          "internalType": "address",
          "name": "from",
          "type": "address"
        },
        {
          "internalType": "uint256",
          "name": "assetAmount",
          "type": "uint256"
        },
        {
          "internalType": "address",
          "name": "to",
          "type": "address"
        },
        {
          "internalType": "uint256",
          "name": "shareAmount",
          "type": "uint256"
        }
      ],
      "name": "enter",
      "outputs": [],
      "stateMutability": "nonpayable",
      "type": "function"
    },
    {
      "inputs": [
        {
          "internalType": "address",
          "name": "to",
          "type": "address"
        },
        {
          "internalType": "uint256",
          "name": "assetAmount",
          "type": "uint256"
        },
        {
          "internalType": "address",
          "name": "from",
          "type": "address"
        },
        {
          "internalType": "uint256",
          "name": "shareAmount",
          "type": "uint256"
        }
      ],
      "name": "exit",
      "outputs": [],
      "stateMutability": "nonpayable",
      "type": "function"
    },
    {
      "inputs": [
        {
          "internalType": "address",
          "name": "target",
          "type": "address"
        },
        {
          "internalType": "bytes",
          "name": "data",
          "type": "bytes"
        },
        {
          "internalType": "uint256",
          "name": "value",
          "type": "uint256"
        }
      ],
      "name": "manage",
      "outputs": [
        {
          "internalType": "bytes",
          "name": "result",
          "type": "bytes"
        }
      ],
      "stateMutability": "nonpayable",
      "type": "function"
    },
    {
      "inputs": [],
      "name": "name",
      "outputs": [
        {
          "internalType": "string",
          "name": "",
          "type": "string"
        }
      ],
      "stateMutability": "view",
      "type": "function"
    },
    {
      "inputs": [
        {
          "internalType": "address",
          "name": "",
          "type": "address"
        }
      ],
      "name": "nonces",
      "outputs": [
        {
          "internalType": "uint256",
          "name": "",
          "type": "uint256"
        }
      ],
      "stateMutability": "view",
      "type": "function"
    },
    {
      "inputs": [
        {
          "internalType": "address",
          "name": "",
          "type": "address"
        },
        {
          "internalType": "address",
          "name": "",
          "type": "address"
        },
        {
          "internalType": "uint256[]",
          "name": "",
          "type": "uint256[]"
        },
        {
          "internalType": "uint256[]",
          "name": "",
          "type": "uint256[]"
        },
        {
          "internalType": "bytes",
          "name": "",
          "type": "bytes"
        }
      ],
      "name": "onERC1155BatchReceived",
      "outputs": [
        {
          "internalType": "bytes4",
          "name": "",
          "type": "bytes4"
        }
      ],
      "stateMutability": "nonpayable",
      "type": "function"
    },
    {
      "inputs": [
        {
          "internalType": "address",
          "name": "",
          "type": "address"
        },
        {
          "internalType": "address",
          "name": "",
          "type": "address"
        },
        {
          "internalType": "uint256",
          "name": "",
          "type": "uint256"
        },
        {
          "internalType": "uint256",
          "name": "",
          "type": "uint256"
        },
        {
          "internalType": "bytes",
          "name": "",
          "type": "bytes"
        }
      ],
      "name": "onERC1155Received",
      "outputs": [
        {
          "internalType": "bytes4",
          "name": "",
          "type": "bytes4"
        }
      ],
      "stateMutability": "nonpayable",
      "type": "function"
    },
    {
      "inputs": [
        {
          "internalType": "address",
          "name": "",
          "type": "address"
        },
        {
          "internalType": "address",
          "name": "",
          "type": "address"
        },
        {
          "internalType": "uint256",
          "name": "",
          "type": "uint256"
        },
        {
          "internalType": "bytes",
          "name": "",
          "type": "bytes"
        }
      ],
      "name": "onERC721Received",
      "outputs": [
        {
          "internalType": "bytes4",
          "name": "",
          "type": "bytes4"
        }
      ],
      "stateMutability": "nonpayable",
      "type": "function"
    },
    {
      "inputs": [],
      "name": "owner",
      "outputs": [
        {
          "internalType": "address",
          "name": "",
          "type": "address"
        }
      ],
      "stateMutability": "view",
      "type": "function"
    },
    {
      "inputs": [
        {
          "internalType": "address",
          "name": "owner",
          "type": "address"
        },
        {
          "internalType": "address",
          "name": "spender",
          "type": "address"
        },
        {
          "internalType": "uint256",
          "name": "value",
          "type": "uint256"
        },
        {
          "internalType": "uint256",
          "name": "deadline",
          "type": "uint256"
        },
        {
          "internalType": "uint8",
          "name": "v",
          "type": "uint8"
        },
        {
          "internalType": "bytes32",
          "name": "r",
          "type": "bytes32"
        },
        {
          "internalType": "bytes32",
          "name": "s",
          "type": "bytes32"
        }
      ],
      "name": "permit",
      "outputs": [],
      "stateMutability": "nonpayable",
      "type": "function"
    },
    {
      "inputs": [],
      "name": "primeRBAC",
      "outputs": [
        {
          "internalType": "contract IPrimeRBAC",
          "name": "",
          "type": "address"
        }
      ],
      "stateMutability": "view",
      "type": "function"
    },
    {
      "inputs": [
        {
          "internalType": "contract Authority",
          "name": "newAuthority",
          "type": "address"
        }
      ],
      "name": "setAuthority",
      "outputs": [],
      "stateMutability": "nonpayable",
      "type": "function"
    },
    {
      "inputs": [
        {
          "internalType": "address",
          "name": "_hook",
          "type": "address"
        }
      ],
      "name": "setBeforeUpdateHook",
      "outputs": [],
      "stateMutability": "nonpayable",
      "type": "function"
    },
    {
      "inputs": [
        {
          "internalType": "bytes4",
          "name": "interfaceId",
          "type": "bytes4"
        }
      ],
      "name": "supportsInterface",
      "outputs": [
        {
          "internalType": "bool",
          "name": "",
          "type": "bool"
        }
      ],
      "stateMutability": "view",
      "type": "function"
    },
    {
      "inputs": [],
      "name": "symbol",
      "outputs": [
        {
          "internalType": "string",
          "name": "",
          "type": "string"
        }
      ],
      "stateMutability": "view",
      "type": "function"
    },
    {
      "inputs": [],
      "name": "totalSupply",
      "outputs": [
        {
          "internalType": "uint256",
          "name": "",
          "type": "uint256"
        }
      ],
      "stateMutability": "view",
      "type": "function"
    },
    {
      "inputs": [
        {
          "internalType": "address",
          "name": "to",
          "type": "address"
        },
        {
          "internalType": "uint256",
          "name": "amount",
          "type": "uint256"
        }
      ],
      "name": "transfer",
      "outputs": [
        {
          "internalType": "bool",
          "name": "",
          "type": "bool"
        }
      ],
      "stateMutability": "nonpayable",
      "type": "function"
    },
    {
      "inputs": [
        {
          "internalType": "address",
          "name": "from",
          "type": "address"
        },
        {
          "internalType": "address",
          "name": "to",
          "type": "address"
        },
        {
          "internalType": "uint256",
          "name": "amount",
          "type": "uint256"
        }
      ],
      "name": "transferFrom",
      "outputs": [
        {
          "internalType": "bool",
          "name": "",
          "type": "bool"
        }
      ],
      "stateMutability": "nonpayable",
      "type": "function"
    },
    {
      "inputs": [
        {
          "internalType": "address",
          "name": "newOwner",
          "type": "address"
        }
      ],
      "name": "transferOwnership",
      "outputs": [],
      "stateMutability": "nonpayable",
      "type": "function"
    },
    {
      "stateMutability": "payable",
      "type": "receive"
    }
  ],
  "bytecode": "0x610100604052348015610010575f5ffd5b506040516143a93803806143a98339818101604052810190610032919061053e565b8484338186868673ffffffffffffffffffffffffffffffffffffffff1663313ce5676040518163ffffffff1660e01b8152600401602060405180830381865afa158015610081573d5f5f3e3d5ffd5b505050506040513d601f19601f820116820180604052508101906100a59190610623565b825f90816100b3919061085e565b5081600190816100c3919061085e565b508060ff1660808160ff16815250504660a081815250506100e861030d60201b60201c565b60c081815250505050508160065f6101000a81548173ffffffffffffffffffffffffffffffffffffffff021916908373ffffffffffffffffffffffffffffffffffffffff1602179055508060075f6101000a81548173ffffffffffffffffffffffffffffffffffffffff021916908373ffffffffffffffffffffffffffffffffffffffff1602179055508173ffffffffffffffffffffffffffffffffffffffff163373ffffffffffffffffffffffffffffffffffffffff167f8be0079c531659141344cd1fd0a4f28419497f9722a3daafe3b4186f6b6457e060405160405180910390a38073ffffffffffffffffffffffffffffffffffffffff163373ffffffffffffffffffffffffffffffffffffffff167fa3396fd7f6e0a21b50e5089d2da70d5ac0a3bbbd1f617a93f134b7638998019860405160405180910390a350505f73ffffffffffffffffffffffffffffffffffffffff168273ffffffffffffffffffffffffffffffffffffffff160361028d576040517f538ba4f900000000000000000000000000000000000000000000000000000000815260040160405180910390fd5b8160085f6101000a81548173ffffffffffffffffffffffffffffffffffffffff021916908373ffffffffffffffffffffffffffffffffffffffff16021790555050508073ffffffffffffffffffffffffffffffffffffffff1660e08173ffffffffffffffffffffffffffffffffffffffff16815250505050505050610a66565b5f7f8b73c3c69bb8fe3d512ecc4cf759cc79239f7b179b0ffacaa9a75d522b39400f5f60405161033d91906109c9565b60405180910390207fc89efdaa54c0f20c7adf612882df0950f5a951637e0307cdcb4c672f298b8bc6463060405160200161037c959493929190610a15565b60405160208183030381529060405280519060200120905090565b5f604051905090565b5f5ffd5b5f5ffd5b5f73ffffffffffffffffffffffffffffffffffffffff82169050919050565b5f6103d1826103a8565b9050919050565b6103e1816103c7565b81146103eb575f5ffd5b50565b5f815190506103fc816103d8565b92915050565b5f5ffd5b5f5ffd5b5f601f19601f8301169050919050565b7f4e487b71000000000000000000000000000000000000000000000000000000005f52604160045260245ffd5b6104508261040a565b810181811067ffffffffffffffff8211171561046f5761046e61041a565b5b80604052505050565b5f610481610397565b905061048d8282610447565b919050565b5f67ffffffffffffffff8211156104ac576104ab61041a565b5b6104b58261040a565b9050602081019050919050565b8281835e5f83830152505050565b5f6104e26104dd84610492565b610478565b9050828152602081018484840111156104fe576104fd610406565b5b6105098482856104c2565b509392505050565b5f82601f83011261052557610524610402565b5b81516105358482602086016104d0565b91505092915050565b5f5f5f5f5f60a08688031215610557576105566103a0565b5b5f610564888289016103ee565b9550506020610575888289016103ee565b945050604086015167ffffffffffffffff811115610596576105956103a4565b5b6105a288828901610511565b935050606086015167ffffffffffffffff8111156105c3576105c26103a4565b5b6105cf88828901610511565b92505060806105e0888289016103ee565b9150509295509295909350565b5f60ff82169050919050565b610602816105ed565b811461060c575f5ffd5b50565b5f8151905061061d816105f9565b92915050565b5f60208284031215610638576106376103a0565b5b5f6106458482850161060f565b91505092915050565b5f81519050919050565b7f4e487b71000000000000000000000000000000000000000000000000000000005f52602260045260245ffd5b5f600282049050600182168061069c57607f821691505b6020821081036106af576106ae610658565b5b50919050565b5f819050815f5260205f209050919050565b5f6020601f8301049050919050565b5f82821b905092915050565b5f600883026107117fffffffffffffffffffffffffffffffffffffffffffffffffffffffffffffffff826106d6565b61071b86836106d6565b95508019841693508086168417925050509392505050565b5f819050919050565b5f819050919050565b5f61075f61075a61075584610733565b61073c565b610733565b9050919050565b5f819050919050565b61077883610745565b61078c61078482610766565b8484546106e2565b825550505050565b5f5f905090565b6107a3610794565b6107ae81848461076f565b505050565b5b818110156107d1576107c65f8261079b565b6001810190506107b4565b5050565b601f821115610816576107e7816106b5565b6107f0846106c7565b810160208510156107ff578190505b61081361080b856106c7565b8301826107b3565b50505b505050565b5f82821c905092915050565b5f6108365f198460080261081b565b1980831691505092915050565b5f61084e8383610827565b9150826002028217905092915050565b6108678261064e565b67ffffffffffffffff8111156108805761087f61041a565b5b61088a8254610685565b6108958282856107d5565b5f60209050601f8311600181146108c6575f84156108b4578287015190505b6108be8582610843565b865550610925565b601f1984166108d4866106b5565b5f5b828110156108fb578489015182556001820191506020850194506020810190506108d6565b868310156109185784890151610914601f891682610827565b8355505b6001600288020188555050505b505050505050565b5f81905092915050565b5f819050815f5260205f209050919050565b5f815461095581610685565b61095f818661092d565b9450600182165f8114610979576001811461098e576109c0565b60ff19831686528115158202860193506109c0565b61099785610937565b5f5b838110156109b857815481890152600182019150602081019050610999565b838801955050505b50505092915050565b5f6109d48284610949565b915081905092915050565b5f819050919050565b6109f1816109df565b82525050565b610a0081610733565b82525050565b610a0f816103c7565b82525050565b5f60a082019050610a285f8301886109e8565b610a3560208301876109e8565b610a4260408301866109e8565b610a4f60608301856109f7565b610a5c6080830184610a06565b9695505050505050565b60805160a05160c05160e0516138f4610ab55f395f8181610bab01528181610d8001528181610df50152818161111c015261117a01525f6109af01525f61097b01525f61095601526138f45ff3fe6080604052600436106101ba575f3560e01c80637a9e5e4b116100eb578063bf7e214f11610089578063e37d7e6811610063578063e37d7e681461065f578063f23a6e6114610689578063f2fde38b146106c5578063f6e715d0146106ed576101c1565b8063bf7e214f146105d1578063d505accf146105fb578063dd62ed3e14610623576101c1565b806392f93232116100c557806392f932321461050757806395d89b411461052f578063a9059cbb14610559578063bc197c8114610595576101c1565b80637a9e5e4b146104795780637ecebe00146104a15780638da5cb5b146104dd576101c1565b80633644e5151161015857806339f8d4921161013257806339f8d492146103c3578063617fc690146103eb5780636baf8dbc1461041557806370a082311461043d576101c1565b80633644e51514610333578063366d7fe11461035d57806338d52e0f14610399576101c1565b8063150b7a0211610194578063150b7a021461026757806318160ddd146102a357806323b872dd146102cd578063313ce56714610309576101c1565b806301ffc9a7146101c557806306fdde0314610201578063095ea7b31461022b576101c1565b366101c157005b5f5ffd5b3480156101d0575f5ffd5b506101eb60048036038101906101e6919061239d565b610729565b6040516101f891906123e2565b60405180910390f35b34801561020c575f5ffd5b506102156107a2565b604051610222919061246b565b60405180910390f35b348015610236575f5ffd5b50610251600480360381019061024c9190612518565b61082d565b60405161025e91906123e2565b60405180910390f35b348015610272575f5ffd5b5061028d60048036038101906102889190612682565b61091a565b60405161029a9190612711565b60405180910390f35b3480156102ae575f5ffd5b506102b761092d565b6040516102c49190612739565b60405180910390f35b3480156102d8575f5ffd5b506102f360048036038101906102ee9190612752565b610933565b60405161030091906123e2565b60405180910390f35b348015610314575f5ffd5b5061031d610954565b60405161032a91906127bd565b60405180910390f35b34801561033e575f5ffd5b50610347610978565b60405161035491906127ee565b60405180910390f35b348015610368575f5ffd5b50610383600480360381019061037e919061290e565b6109d4565b6040516103909190612acb565b60405180910390f35b3480156103a4575f5ffd5b506103ad610ba9565b6040516103ba9190612b46565b60405180910390f35b3480156103ce575f5ffd5b506103e960048036038101906103e49190612b5f565b610bcd565b005b3480156103f6575f5ffd5b506103ff610cdf565b60405161040c9190612baa565b60405180910390f35b348015610420575f5ffd5b5061043b60048036038101906104369190612bc3565b610d04565b005b348015610448575f5ffd5b50610463600480360381019061045e9190612b5f565b610e80565b6040516104709190612739565b60405180910390f35b348015610484575f5ffd5b5061049f600480360381019061049a9190612c62565b610e95565b005b3480156104ac575f5ffd5b506104c760048036038101906104c29190612b5f565b611051565b6040516104d49190612739565b60405180910390f35b3480156104e8575f5ffd5b506104f1611066565b6040516104fe9190612c9c565b60405180910390f35b348015610512575f5ffd5b5061052d60048036038101906105289190612bc3565b61108b565b005b34801561053a575f5ffd5b50610543611205565b604051610550919061246b565b60405180910390f35b348015610564575f5ffd5b5061057f600480360381019061057a9190612518565b611291565b60405161058c91906123e2565b60405180910390f35b3480156105a0575f5ffd5b506105bb60048036038101906105b69190612d75565b6112b0565b6040516105c89190612711565b60405180910390f35b3480156105dc575f5ffd5b506105e56112c4565b6040516105f29190612e60565b60405180910390f35b348015610606575f5ffd5b50610621600480360381019061061c9190612ecd565b6112e9565b005b34801561062e575f5ffd5b5061064960048036038101906106449190612f6a565b6115d6565b6040516106569190612739565b60405180910390f35b34801561066a575f5ffd5b506106736115f6565b6040516106809190612fc8565b60405180910390f35b348015610694575f5ffd5b506106af60048036038101906106aa9190612fe1565b61161b565b6040516106bc9190612711565b60405180910390f35b3480156106d0575f5ffd5b506106eb60048036038101906106e69190612b5f565b61162f565b005b3480156106f8575f5ffd5b50610713600480360381019061070e91906130c9565b611738565b6040516107209190613182565b60405180910390f35b5f7f4e2312e0000000000000000000000000000000000000000000000000000000007bffffffffffffffffffffffffffffffffffffffffffffffffffffffff1916827bffffffffffffffffffffffffffffffffffffffffffffffffffffffff1916148061079b575061079a8261181e565b5b9050919050565b5f80546107ae906131cf565b80601f01602080910402602001604051908101604052809291908181526020018280546107da906131cf565b80156108255780601f106107fc57610100808354040283529160200191610825565b820191905f5260205f20905b81548152906001019060200180831161080857829003601f168201915b505050505081565b5f8160045f3373ffffffffffffffffffffffffffffffffffffffff1673ffffffffffffffffffffffffffffffffffffffff1681526020019081526020015f205f8573ffffffffffffffffffffffffffffffffffffffff1673ffffffffffffffffffffffffffffffffffffffff1681526020019081526020015f20819055508273ffffffffffffffffffffffffffffffffffffffff163373ffffffffffffffffffffffffffffffffffffffff167f8c5be1e5ebec7d5bd14f71427d1e84f3dd0314c0f7b2291e5b200ac8c7c3b925846040516109089190612739565b60405180910390a36001905092915050565b5f63150b7a0260e01b9050949350505050565b60025481565b5f61094084848433611887565b61094b84848461196f565b90509392505050565b7f000000000000000000000000000000000000000000000000000000000000000081565b5f7f000000000000000000000000000000000000000000000000000000000000000046146109ad576109a8611baa565b6109cf565b7f00000000000000000000000000000000000000000000000000000000000000005b905090565b6060610a03335f357fffffffff0000000000000000000000000000000000000000000000000000000016611c34565b610a42576040517f08c379a0000000000000000000000000000000000000000000000000000000008152600401610a3990613249565b60405180910390fd5b5f8787905090508067ffffffffffffffff811115610a6357610a6261255e565b5b604051908082528060200260200182016040528015610a9657816020015b6060815260200190600190039081610a815790505b5091505f5b81811015610b9d57610b74878783818110610ab957610ab8613267565b5b9050602002810190610acb91906132a0565b8080601f0160208091040260200160405190810160405280939291908181526020018383808284375f81840152601f19601f82011690508083019250505050505050868684818110610b2057610b1f613267565b5b905060200201358b8b85818110610b3a57610b39613267565b5b9050602002016020810190610b4f9190612b5f565b73ffffffffffffffffffffffffffffffffffffffff16611d6e9092919063ffffffff16565b838281518110610b8757610b86613267565b5b6020026020010181905250806001019050610a9b565b50509695505050505050565b7f000000000000000000000000000000000000000000000000000000000000000081565b60085f9054906101000a900473ffffffffffffffffffffffffffffffffffffffff1673ffffffffffffffffffffffffffffffffffffffff1663d35911f2336040518263ffffffff1660e01b8152600401610c279190612c9c565b602060405180830381865afa158015610c42573d5f5f3e3d5ffd5b505050506040513d601f19601f82011682018060405250810190610c66919061332c565b610c9c576040517fdc85555400000000000000000000000000000000000000000000000000000000815260040160405180910390fd5b8060095f6101000a81548173ffffffffffffffffffffffffffffffffffffffff021916908373ffffffffffffffffffffffffffffffffffffffff16021790555050565b60095f9054906101000a900473ffffffffffffffffffffffffffffffffffffffff1681565b610d31335f357fffffffff0000000000000000000000000000000000000000000000000000000016611c34565b610d70576040517f08c379a0000000000000000000000000000000000000000000000000000000008152600401610d6790613249565b60405180910390fd5b5f831115610dc657610dc58430857f000000000000000000000000000000000000000000000000000000000000000073ffffffffffffffffffffffffffffffffffffffff16611e39909392919063ffffffff16565b5b610dd25f838333611887565b610ddc8282611f0d565b8173ffffffffffffffffffffffffffffffffffffffff167f000000000000000000000000000000000000000000000000000000000000000073ffffffffffffffffffffffffffffffffffffffff168573ffffffffffffffffffffffffffffffffffffffff167fea00f88768a86184a6e515238a549c171769fe7460a011d6fd0bcd48ca078ea48685604051610e72929190613357565b60405180910390a450505050565b6003602052805f5260405f205f915090505481565b60065f9054906101000a900473ffffffffffffffffffffffffffffffffffffffff1673ffffffffffffffffffffffffffffffffffffffff163373ffffffffffffffffffffffffffffffffffffffff161480610fac575060075f9054906101000a900473ffffffffffffffffffffffffffffffffffffffff1673ffffffffffffffffffffffffffffffffffffffff1663b700961333305f357fffffffff00000000000000000000000000000000000000000000000000000000166040518463ffffffff1660e01b8152600401610f6c9392919061337e565b602060405180830381865afa158015610f87573d5f5f3e3d5ffd5b505050506040513d601f19601f82011682018060405250810190610fab919061332c565b5b610fb4575f5ffd5b8060075f6101000a81548173ffffffffffffffffffffffffffffffffffffffff021916908373ffffffffffffffffffffffffffffffffffffffff1602179055508073ffffffffffffffffffffffffffffffffffffffff163373ffffffffffffffffffffffffffffffffffffffff167fa3396fd7f6e0a21b50e5089d2da70d5ac0a3bbbd1f617a93f134b7638998019860405160405180910390a350565b6005602052805f5260405f205f915090505481565b60065f9054906101000a900473ffffffffffffffffffffffffffffffffffffffff1681565b6110b8335f357fffffffff0000000000000000000000000000000000000000000000000000000016611c34565b6110f7576040517f08c379a00000000000000000000000000000000000000000000000000000000081526004016110ee90613249565b60405180910390fd5b611103825f8333611887565b61110d8282611fd8565b5f8311156111615761116084847f000000000000000000000000000000000000000000000000000000000000000073ffffffffffffffffffffffffffffffffffffffff166120a39092919063ffffffff16565b5b8173ffffffffffffffffffffffffffffffffffffffff167f000000000000000000000000000000000000000000000000000000000000000073ffffffffffffffffffffffffffffffffffffffff168573ffffffffffffffffffffffffffffffffffffffff167fe0c82280a1164680e0cf43be7db4c4c9f985423623ad7a544fb76c772bdc604386856040516111f7929190613357565b60405180910390a450505050565b60018054611212906131cf565b80601f016020809104026020016040519081016040528092919081815260200182805461123e906131cf565b80156112895780601f1061126057610100808354040283529160200191611289565b820191905f5260205f20905b81548152906001019060200180831161126c57829003601f168201915b505050505081565b5f61129e33848433611887565b6112a8838361215a565b905092915050565b5f63bc197c8160e01b905095945050505050565b60075f9054906101000a900473ffffffffffffffffffffffffffffffffffffffff1681565b4284101561132c576040517f08c379a0000000000000000000000000000000000000000000000000000000008152600401611323906133fd565b60405180910390fd5b5f6001611337610978565b7f6e71edae12b1b97f4d1f60370fef10105fa2faae0126114a169c64845d6126c98a8a8a60055f8f73ffffffffffffffffffffffffffffffffffffffff1673ffffffffffffffffffffffffffffffffffffffff1681526020019081526020015f205f815480929190600101919050558b6040516020016113bc9695949392919061341b565b604051602081830303815290604052805190602001206040516020016113e39291906134ee565b604051602081830303815290604052805190602001208585856040515f81526020016040526040516114189493929190613524565b6020604051602081039080840390855afa158015611438573d5f5f3e3d5ffd5b5050506020604051035190505f73ffffffffffffffffffffffffffffffffffffffff168173ffffffffffffffffffffffffffffffffffffffff16141580156114ab57508773ffffffffffffffffffffffffffffffffffffffff168173ffffffffffffffffffffffffffffffffffffffff16145b6114ea576040517f08c379a00000000000000000000000000000000000000000000000000000000081526004016114e1906135b1565b60405180910390fd5b8560045f8373ffffffffffffffffffffffffffffffffffffffff1673ffffffffffffffffffffffffffffffffffffffff1681526020019081526020015f205f8973ffffffffffffffffffffffffffffffffffffffff1673ffffffffffffffffffffffffffffffffffffffff1681526020019081526020015f2081905550508573ffffffffffffffffffffffffffffffffffffffff168773ffffffffffffffffffffffffffffffffffffffff167f8c5be1e5ebec7d5bd14f71427d1e84f3dd0314c0f7b2291e5b200ac8c7c3b925876040516115c59190612739565b60405180910390a350505050505050565b6004602052815f5260405f20602052805f5260405f205f91509150505481565b60085f9054906101000a900473ffffffffffffffffffffffffffffffffffffffff1681565b5f63f23a6e6160e01b905095945050505050565b61165c335f357fffffffff0000000000000000000000000000000000000000000000000000000016611c34565b61169b576040517f08c379a000000000000000000000000000000000000000000000000000000000815260040161169290613249565b60405180910390fd5b8060065f6101000a81548173ffffffffffffffffffffffffffffffffffffffff021916908373ffffffffffffffffffffffffffffffffffffffff1602179055508073ffffffffffffffffffffffffffffffffffffffff163373ffffffffffffffffffffffffffffffffffffffff167f8be0079c531659141344cd1fd0a4f28419497f9722a3daafe3b4186f6b6457e060405160405180910390a350565b6060611767335f357fffffffff0000000000000000000000000000000000000000000000000000000016611c34565b6117a6576040517f08c379a000000000000000000000000000000000000000000000000000000000815260040161179d90613249565b60405180910390fd5b61181484848080601f0160208091040260200160405190810160405280939291908181526020018383808284375f81840152601f19601f82011690508083019250505050505050838773ffffffffffffffffffffffffffffffffffffffff16611d6e9092919063ffffffff16565b9050949350505050565b5f7f01ffc9a7000000000000000000000000000000000000000000000000000000007bffffffffffffffffffffffffffffffffffffffffffffffffffffffff1916827bffffffffffffffffffffffffffffffffffffffffffffffffffffffff1916149050919050565b5f73ffffffffffffffffffffffffffffffffffffffff1660095f9054906101000a900473ffffffffffffffffffffffffffffffffffffffff1673ffffffffffffffffffffffffffffffffffffffff16146119695760095f9054906101000a900473ffffffffffffffffffffffffffffffffffffffff1673ffffffffffffffffffffffffffffffffffffffff1663a6549221858585856040518563ffffffff1660e01b815260040161193b94939291906135cf565b5f604051808303815f87803b158015611952575f5ffd5b505af1158015611964573d5f5f3e3d5ffd5b505050505b50505050565b5f5f60045f8673ffffffffffffffffffffffffffffffffffffffff1673ffffffffffffffffffffffffffffffffffffffff1681526020019081526020015f205f3373ffffffffffffffffffffffffffffffffffffffff1673ffffffffffffffffffffffffffffffffffffffff1681526020019081526020015f205490507fffffffffffffffffffffffffffffffffffffffffffffffffffffffffffffffff8114611a9c578281611a1f919061363f565b60045f8773ffffffffffffffffffffffffffffffffffffffff1673ffffffffffffffffffffffffffffffffffffffff1681526020019081526020015f205f3373ffffffffffffffffffffffffffffffffffffffff1673ffffffffffffffffffffffffffffffffffffffff1681526020019081526020015f20819055505b8260035f8773ffffffffffffffffffffffffffffffffffffffff1673ffffffffffffffffffffffffffffffffffffffff1681526020019081526020015f205f828254611ae8919061363f565b925050819055508260035f8673ffffffffffffffffffffffffffffffffffffffff1673ffffffffffffffffffffffffffffffffffffffff1681526020019081526020015f205f82825401925050819055508373ffffffffffffffffffffffffffffffffffffffff168573ffffffffffffffffffffffffffffffffffffffff167fddf252ad1be2c89b69c2b068fc378daa952ba7f163c4a11628f55a4df523b3ef85604051611b969190612739565b60405180910390a360019150509392505050565b5f7f8b73c3c69bb8fe3d512ecc4cf759cc79239f7b179b0ffacaa9a75d522b39400f5f604051611bda919061370e565b60405180910390207fc89efdaa54c0f20c7adf612882df0950f5a951637e0307cdcb4c672f298b8bc64630604051602001611c19959493929190613724565b60405160208183030381529060405280519060200120905090565b5f5f60075f9054906101000a900473ffffffffffffffffffffffffffffffffffffffff1690505f73ffffffffffffffffffffffffffffffffffffffff168173ffffffffffffffffffffffffffffffffffffffff1614158015611d0e57508073ffffffffffffffffffffffffffffffffffffffff1663b70096138530866040518463ffffffff1660e01b8152600401611cce9392919061337e565b602060405180830381865afa158015611ce9573d5f5f3e3d5ffd5b505050506040513d601f19601f82011682018060405250810190611d0d919061332c565b5b80611d65575060065f9054906101000a900473ffffffffffffffffffffffffffffffffffffffff1673ffffffffffffffffffffffffffffffffffffffff168473ffffffffffffffffffffffffffffffffffffffff16145b91505092915050565b606081471015611db75747826040517fcf479181000000000000000000000000000000000000000000000000000000008152600401611dae929190613357565b60405180910390fd5b5f5f8573ffffffffffffffffffffffffffffffffffffffff168486604051611ddf91906137a5565b5f6040518083038185875af1925050503d805f8114611e19576040519150601f19603f3d011682016040523d82523d5f602084013e611e1e565b606091505b5091509150611e2e868383612267565b925050509392505050565b5f6040517f23b872dd00000000000000000000000000000000000000000000000000000000815273ffffffffffffffffffffffffffffffffffffffff8516600482015273ffffffffffffffffffffffffffffffffffffffff8416602482015282604482015260205f6064835f8a5af1915081601f3d1160015f511416151615611ec5573d863b15171591505b5080611f06576040517f08c379a0000000000000000000000000000000000000000000000000000000008152600401611efd90613805565b60405180910390fd5b5050505050565b8060025f828254611f1e9190613823565b925050819055508060035f8473ffffffffffffffffffffffffffffffffffffffff1673ffffffffffffffffffffffffffffffffffffffff1681526020019081526020015f205f82825401925050819055508173ffffffffffffffffffffffffffffffffffffffff165f73ffffffffffffffffffffffffffffffffffffffff167fddf252ad1be2c89b69c2b068fc378daa952ba7f163c4a11628f55a4df523b3ef83604051611fcc9190612739565b60405180910390a35050565b8060035f8473ffffffffffffffffffffffffffffffffffffffff1673ffffffffffffffffffffffffffffffffffffffff1681526020019081526020015f205f828254612024919061363f565b925050819055508060025f82825403925050819055505f73ffffffffffffffffffffffffffffffffffffffff168273ffffffffffffffffffffffffffffffffffffffff167fddf252ad1be2c89b69c2b068fc378daa952ba7f163c4a11628f55a4df523b3ef836040516120979190612739565b60405180910390a35050565b5f6040517fa9059cbb00000000000000000000000000000000000000000000000000000000815273ffffffffffffffffffffffffffffffffffffffff8416600482015282602482015260205f6044835f895af1915081601f3d1160015f511416151615612113573d853b15171591505b5080612154576040517f08c379a000000000000000000000000000000000000000000000000000000000815260040161214b906138a0565b60405180910390fd5b50505050565b5f8160035f3373ffffffffffffffffffffffffffffffffffffffff1673ffffffffffffffffffffffffffffffffffffffff1681526020019081526020015f205f8282546121a7919061363f565b925050819055508160035f8573ffffffffffffffffffffffffffffffffffffffff1673ffffffffffffffffffffffffffffffffffffffff1681526020019081526020015f205f82825401925050819055508273ffffffffffffffffffffffffffffffffffffffff163373ffffffffffffffffffffffffffffffffffffffff167fddf252ad1be2c89b69c2b068fc378daa952ba7f163c4a11628f55a4df523b3ef846040516122559190612739565b60405180910390a36001905092915050565b60608261227c57612277826122f4565b6122ec565b5f82511480156122a257505f8473ffffffffffffffffffffffffffffffffffffffff163b145b156122e457836040517f9996b3150000000000000000000000000000000000000000000000000000000081526004016122db9190612c9c565b60405180910390fd5b8190506122ed565b5b9392505050565b5f8151111561230557805160208201fd5b6040517fd6bda27500000000000000000000000000000000000000000000000000000000815260040160405180910390fd5b5f604051905090565b5f5ffd5b5f5ffd5b5f7fffffffff0000000000000000000000000000000000000000000000000000000082169050919050565b61237c81612348565b8114612386575f5ffd5b50565b5f8135905061239781612373565b92915050565b5f602082840312156123b2576123b1612340565b5b5f6123bf84828501612389565b91505092915050565b5f8115159050919050565b6123dc816123c8565b82525050565b5f6020820190506123f55f8301846123d3565b92915050565b5f81519050919050565b5f82825260208201905092915050565b8281835e5f83830152505050565b5f601f19601f8301169050919050565b5f61243d826123fb565b6124478185612405565b9350612457818560208601612415565b61246081612423565b840191505092915050565b5f6020820190508181035f8301526124838184612433565b905092915050565b5f73ffffffffffffffffffffffffffffffffffffffff82169050919050565b5f6124b48261248b565b9050919050565b6124c4816124aa565b81146124ce575f5ffd5b50565b5f813590506124df816124bb565b92915050565b5f819050919050565b6124f7816124e5565b8114612501575f5ffd5b50565b5f81359050612512816124ee565b92915050565b5f5f6040838503121561252e5761252d612340565b5b5f61253b858286016124d1565b925050602061254c85828601612504565b9150509250929050565b5f5ffd5b5f5ffd5b7f4e487b71000000000000000000000000000000000000000000000000000000005f52604160045260245ffd5b61259482612423565b810181811067ffffffffffffffff821117156125b3576125b261255e565b5b80604052505050565b5f6125c5612337565b90506125d1828261258b565b919050565b5f67ffffffffffffffff8211156125f0576125ef61255e565b5b6125f982612423565b9050602081019050919050565b828183375f83830152505050565b5f612626612621846125d6565b6125bc565b9050828152602081018484840111156126425761264161255a565b5b61264d848285612606565b509392505050565b5f82601f83011261266957612668612556565b5b8135612679848260208601612614565b91505092915050565b5f5f5f5f6080858703121561269a57612699612340565b5b5f6126a7878288016124d1565b94505060206126b8878288016124d1565b93505060406126c987828801612504565b925050606085013567ffffffffffffffff8111156126ea576126e9612344565b5b6126f687828801612655565b91505092959194509250565b61270b81612348565b82525050565b5f6020820190506127245f830184612702565b92915050565b612733816124e5565b82525050565b5f60208201905061274c5f83018461272a565b92915050565b5f5f5f6060848603121561276957612768612340565b5b5f612776868287016124d1565b9350506020612787868287016124d1565b925050604061279886828701612504565b9150509250925092565b5f60ff82169050919050565b6127b7816127a2565b82525050565b5f6020820190506127d05f8301846127ae565b92915050565b5f819050919050565b6127e8816127d6565b82525050565b5f6020820190506128015f8301846127df565b92915050565b5f5ffd5b5f5ffd5b5f5f83601f84011261282457612823612556565b5b8235905067ffffffffffffffff81111561284157612840612807565b5b60208301915083602082028301111561285d5761285c61280b565b5b9250929050565b5f5f83601f84011261287957612878612556565b5b8235905067ffffffffffffffff81111561289657612895612807565b5b6020830191508360208202830111156128b2576128b161280b565b5b9250929050565b5f5f83601f8401126128ce576128cd612556565b5b8235905067ffffffffffffffff8111156128eb576128ea612807565b5b6020830191508360208202830111156129075761290661280b565b5b9250929050565b5f5f5f5f5f5f6060878903121561292857612927612340565b5b5f87013567ffffffffffffffff81111561294557612944612344565b5b61295189828a0161280f565b9650965050602087013567ffffffffffffffff81111561297457612973612344565b5b61298089828a01612864565b9450945050604087013567ffffffffffffffff8111156129a3576129a2612344565b5b6129af89828a016128b9565b92509250509295509295509295565b5f81519050919050565b5f82825260208201905092915050565b5f819050602082019050919050565b5f81519050919050565b5f82825260208201905092915050565b5f612a0b826129e7565b612a1581856129f1565b9350612a25818560208601612415565b612a2e81612423565b840191505092915050565b5f612a448383612a01565b905092915050565b5f602082019050919050565b5f612a62826129be565b612a6c81856129c8565b935083602082028501612a7e856129d8565b805f5b85811015612ab95784840389528151612a9a8582612a39565b9450612aa583612a4c565b925060208a01995050600181019050612a81565b50829750879550505050505092915050565b5f6020820190508181035f830152612ae38184612a58565b905092915050565b5f819050919050565b5f612b0e612b09612b048461248b565b612aeb565b61248b565b9050919050565b5f612b1f82612af4565b9050919050565b5f612b3082612b15565b9050919050565b612b4081612b26565b82525050565b5f602082019050612b595f830184612b37565b92915050565b5f60208284031215612b7457612b73612340565b5b5f612b81848285016124d1565b91505092915050565b5f612b9482612b15565b9050919050565b612ba481612b8a565b82525050565b5f602082019050612bbd5f830184612b9b565b92915050565b5f5f5f5f60808587031215612bdb57612bda612340565b5b5f612be8878288016124d1565b9450506020612bf987828801612504565b9350506040612c0a878288016124d1565b9250506060612c1b87828801612504565b91505092959194509250565b5f612c31826124aa565b9050919050565b612c4181612c27565b8114612c4b575f5ffd5b50565b5f81359050612c5c81612c38565b92915050565b5f60208284031215612c7757612c76612340565b5b5f612c8484828501612c4e565b91505092915050565b612c96816124aa565b82525050565b5f602082019050612caf5f830184612c8d565b92915050565b5f67ffffffffffffffff821115612ccf57612cce61255e565b5b602082029050602081019050919050565b5f612cf2612ced84612cb5565b6125bc565b90508083825260208201905060208402830185811115612d1557612d1461280b565b5b835b81811015612d3e5780612d2a8882612504565b845260208401935050602081019050612d17565b5050509392505050565b5f82601f830112612d5c57612d5b612556565b5b8135612d6c848260208601612ce0565b91505092915050565b5f5f5f5f5f60a08688031215612d8e57612d8d612340565b5b5f612d9b888289016124d1565b9550506020612dac888289016124d1565b945050604086013567ffffffffffffffff811115612dcd57612dcc612344565b5b612dd988828901612d48565b935050606086013567ffffffffffffffff811115612dfa57612df9612344565b5b612e0688828901612d48565b925050608086013567ffffffffffffffff811115612e2757612e26612344565b5b612e3388828901612655565b9150509295509295909350565b5f612e4a82612b15565b9050919050565b612e5a81612e40565b82525050565b5f602082019050612e735f830184612e51565b92915050565b612e82816127a2565b8114612e8c575f5ffd5b50565b5f81359050612e9d81612e79565b92915050565b612eac816127d6565b8114612eb6575f5ffd5b50565b5f81359050612ec781612ea3565b92915050565b5f5f5f5f5f5f5f60e0888a031215612ee857612ee7612340565b5b5f612ef58a828b016124d1565b9750506020612f068a828b016124d1565b9650506040612f178a828b01612504565b9550506060612f288a828b01612504565b9450506080612f398a828b01612e8f565b93505060a0612f4a8a828b01612eb9565b92505060c0612f5b8a828b01612eb9565b91505092959891949750929550565b5f5f60408385031215612f8057612f7f612340565b5b5f612f8d858286016124d1565b9250506020612f9e858286016124d1565b9150509250929050565b5f612fb282612b15565b9050919050565b612fc281612fa8565b82525050565b5f602082019050612fdb5f830184612fb9565b92915050565b5f5f5f5f5f60a08688031215612ffa57612ff9612340565b5b5f613007888289016124d1565b9550506020613018888289016124d1565b945050604061302988828901612504565b935050606061303a88828901612504565b925050608086013567ffffffffffffffff81111561305b5761305a612344565b5b61306788828901612655565b9150509295509295909350565b5f5f83601f84011261308957613088612556565b5b8235905067ffffffffffffffff8111156130a6576130a5612807565b5b6020830191508360018202830111156130c2576130c161280b565b5b9250929050565b5f5f5f5f606085870312156130e1576130e0612340565b5b5f6130ee878288016124d1565b945050602085013567ffffffffffffffff81111561310f5761310e612344565b5b61311b87828801613074565b9350935050604061312e87828801612504565b91505092959194509250565b5f82825260208201905092915050565b5f613154826129e7565b61315e818561313a565b935061316e818560208601612415565b61317781612423565b840191505092915050565b5f6020820190508181035f83015261319a818461314a565b905092915050565b7f4e487b71000000000000000000000000000000000000000000000000000000005f52602260045260245ffd5b5f60028204905060018216806131e657607f821691505b6020821081036131f9576131f86131a2565b5b50919050565b7f554e415554484f52495a454400000000000000000000000000000000000000005f82015250565b5f613233600c83612405565b915061323e826131ff565b602082019050919050565b5f6020820190508181035f83015261326081613227565b9050919050565b7f4e487b71000000000000000000000000000000000000000000000000000000005f52603260045260245ffd5b5f5ffd5b5f5ffd5b5f5ffd5b5f5f833560016020038436030381126132bc576132bb613294565b5b80840192508235915067ffffffffffffffff8211156132de576132dd613298565b5b6020830192506001820236038313156132fa576132f961329c565b5b509250929050565b61330b816123c8565b8114613315575f5ffd5b50565b5f8151905061332681613302565b92915050565b5f6020828403121561334157613340612340565b5b5f61334e84828501613318565b91505092915050565b5f60408201905061336a5f83018561272a565b613377602083018461272a565b9392505050565b5f6060820190506133915f830186612c8d565b61339e6020830185612c8d565b6133ab6040830184612702565b949350505050565b7f5045524d49545f444541444c494e455f455850495245440000000000000000005f82015250565b5f6133e7601783612405565b91506133f2826133b3565b602082019050919050565b5f6020820190508181035f830152613414816133db565b9050919050565b5f60c08201905061342e5f8301896127df565b61343b6020830188612c8d565b6134486040830187612c8d565b613455606083018661272a565b613462608083018561272a565b61346f60a083018461272a565b979650505050505050565b5f81905092915050565b7f19010000000000000000000000000000000000000000000000000000000000005f82015250565b5f6134b860028361347a565b91506134c382613484565b600282019050919050565b5f819050919050565b6134e86134e3826127d6565b6134ce565b82525050565b5f6134f8826134ac565b915061350482856134d7565b60208201915061351482846134d7565b6020820191508190509392505050565b5f6080820190506135375f8301876127df565b61354460208301866127ae565b61355160408301856127df565b61355e60608301846127df565b95945050505050565b7f494e56414c49445f5349474e45520000000000000000000000000000000000005f82015250565b5f61359b600e83612405565b91506135a682613567565b602082019050919050565b5f6020820190508181035f8301526135c88161358f565b9050919050565b5f6080820190506135e25f830187612c8d565b6135ef6020830186612c8d565b6135fc604083018561272a565b6136096060830184612c8d565b95945050505050565b7f4e487b71000000000000000000000000000000000000000000000000000000005f52601160045260245ffd5b5f613649826124e5565b9150613654836124e5565b925082820390508181111561366c5761366b613612565b5b92915050565b5f81905092915050565b5f819050815f5260205f209050919050565b5f815461369a816131cf565b6136a48186613672565b9450600182165f81146136be57600181146136d357613705565b60ff1983168652811515820286019350613705565b6136dc8561367c565b5f5b838110156136fd578154818901526001820191506020810190506136de565b838801955050505b50505092915050565b5f613719828461368e565b915081905092915050565b5f60a0820190506137375f8301886127df565b61374460208301876127df565b61375160408301866127df565b61375e606083018561272a565b61376b6080830184612c8d565b9695505050505050565b5f61377f826129e7565b6137898185613672565b9350613799818560208601612415565b80840191505092915050565b5f6137b08284613775565b915081905092915050565b7f5452414e534645525f46524f4d5f4641494c45440000000000000000000000005f82015250565b5f6137ef601483612405565b91506137fa826137bb565b602082019050919050565b5f6020820190508181035f83015261381c816137e3565b9050919050565b5f61382d826124e5565b9150613838836124e5565b92508282019050808211156138505761384f613612565b5b92915050565b7f5452414e534645525f4641494c454400000000000000000000000000000000005f82015250565b5f61388a600f83612405565b915061389582613856565b602082019050919050565b5f6020820190508181035f8301526138b78161387e565b905091905056fea264697066735822122039145db2b9a259f222d7f2b0b85d6e968d8604473ce86398c02e3646361d731564736f6c634300081e0033",
  "linkReferences": {},
  "deployedLinkReferences": {},
  "immutableReferences": {
    "9416": [
      {
        "length": 32,
        "start": 2390
      }
    ],
    "9430": [
      {
        "length": 32,
        "start": 2427
      }
    ],
    "9432": [
      {
        "length": 32,
        "start": 2479
      }
    ],
    "12193": [
      {
        "length": 32,
        "start": 2987
      },
      {
        "length": 32,
        "start": 3456
      },
      {
        "length": 32,
        "start": 3573
      },
      {
        "length": 32,
        "start": 4380
      },
      {
        "length": 32,
        "start": 4474
      }
    ]
  },
  "inputSourceName": "project/contracts/core/BoringVault.sol",
  "buildInfoId": "solc-0_8_30-b812b6f9c8de22d6d072c72da0837b4069544e24"
}