{
  "_format": "hh3-artifact-1",
  "contractName": "ManagerWithMerkleVerification",
  "sourceName": "contracts/core/ManagerWithMerkleVerification.sol",
  "abi": [
    {
      "inputs": [
        {
          "internalType": "address",
          "name": "_primeRBAC",
          "type": "address"
        },
        {
          "internalType": "address",
          "name": "_vault",
          "type": "address"
        }
      ],
      "stateMutability": "nonpayable",
      "type": "constructor"
    },
    {
      "inputs": [
        {
          "internalType": "address",
          "name": "target",
          "type": "address"
        }
      ],
      "name": "AddressEmptyCode",
      "type": "error"
    },
    {
      "inputs": [],
      "name": "FailedCall",
      "type": "error"
    },
    {
      "inputs": [
        {
          "internalType": "address",
          "name": "target",
          "type": "address"
        },
        {
          "internalType": "bytes",
          "name": "targetData",
          "type": "bytes"
        },
        {
          "internalType": "uint256",
          "name": "value",
          "type": "uint256"
        }
      ],
      "name": "ManagerWithMerkleVerification__FailedToVerifyManageProof",
      "type": "error"
    },
    {
      "inputs": [],
      "name": "ManagerWithMerkleVerification__InvalidDecodersAndSanitizersLength",
      "type": "error"
    },
    {
      "inputs": [],
      "name": "ManagerWithMerkleVerification__InvalidManageProofLength",
      "type": "error"
    },
    {
      "inputs": [],
      "name": "ManagerWithMerkleVerification__InvalidTargetDataLength",
      "type": "error"
    },
    {
      "inputs": [],
      "name": "ManagerWithMerkleVerification__InvalidValuesLength",
      "type": "error"
    },
    {
      "inputs": [],
      "name": "ManagerWithMerkleVerification__Paused",
      "type": "error"
    },
    {
      "inputs": [],
      "name": "ManagerWithMerkleVerification__TotalSupplyMustRemainConstant",
      "type": "error"
    },
    {
      "inputs": [],
      "name": "NOT_EMERGENCY_ADMIN",
      "type": "error"
    },
    {
      "inputs": [],
      "name": "NOT_PROTOCOL_ADMIN",
      "type": "error"
    },
    {
      "inputs": [],
      "name": "ZERO_ADDRESS",
      "type": "error"
    },
    {
      "anonymous": false,
      "inputs": [
        {
          "indexed": true,
          "internalType": "address",
          "name": "user",
          "type": "address"
        },
        {
          "indexed": true,
          "internalType": "contract Authority",
          "name": "newAuthority",
          "type": "address"
        }
      ],
      "name": "AuthorityUpdated",
      "type": "event"
    },
    {
      "anonymous": false,
      "inputs": [
        {
          "indexed": false,
          "internalType": "uint256",
          "name": "callsMade",
          "type": "uint256"
        }
      ],
      "name": "BoringVaultManaged",
      "type": "event"
    },
    {
      "anonymous": false,
      "inputs": [
        {
          "indexed": true,
          "internalType": "address",
          "name": "strategist",
          "type": "address"
        },
        {
          "indexed": false,
          "internalType": "bytes32",
          "name": "oldRoot",
          "type": "bytes32"
        },
        {
          "indexed": false,
          "internalType": "bytes32",
          "name": "newRoot",
          "type": "bytes32"
        }
      ],
      "name": "ManageRootUpdated",
      "type": "event"
    },
    {
      "anonymous": false,
      "inputs": [
        {
          "indexed": true,
          "internalType": "address",
          "name": "user",
          "type": "address"
        },
        {
          "indexed": true,
          "internalType": "address",
          "name": "newOwner",
          "type": "address"
        }
      ],
      "name": "OwnershipTransferred",
      "type": "event"
    },
    {
      "anonymous": false,
      "inputs": [],
      "name": "Paused",
      "type": "event"
    },
    {
      "anonymous": false,
      "inputs": [],
      "name": "Unpaused",
      "type": "event"
    },
    {
      "inputs": [],
      "name": "authority",
      "outputs": [
        {
          "internalType": "contract Authority",
          "name": "",
          "type": "address"
        }
      ],
      "stateMutability": "view",
      "type": "function"
    },
    {
      "inputs": [],
      "name": "isPaused",
      "outputs": [
        {
          "internalType": "bool",
          "name": "",
          "type": "bool"
        }
      ],
      "stateMutability": "view",
      "type": "function"
    },
    {
      "inputs": [
        {
          "internalType": "address",
          "name": "",
          "type": "address"
        }
      ],
      "name": "manageRoot",
      "outputs": [
        {
          "internalType": "bytes32",
          "name": "",
          "type": "bytes32"
        }
      ],
      "stateMutability": "view",
      "type": "function"
    },
    {
      "inputs": [
        {
          "internalType": "bytes32[][]",
          "name": "manageProofs",
          "type": "bytes32[][]"
        },
        {
          "internalType": "address[]",
          "name": "decodersAndSanitizers",
          "type": "address[]"
        },
        {
          "internalType": "address[]",
          "name": "targets",
          "type": "address[]"
        },
        {
          "internalType": "bytes[]",
          "name": "targetData",
          "type": "bytes[]"
        },
        {
          "internalType": "uint256[]",
          "name": "values",
          "type": "uint256[]"
        }
      ],
      "name": "manageVaultWithMerkleVerification",
      "outputs": [],
      "stateMutability": "nonpayable",
      "type": "function"
    },
    {
      "inputs": [],
      "name": "owner",
      "outputs": [
        {
          "internalType": "address",
          "name": "",
          "type": "address"
        }
      ],
      "stateMutability": "view",
      "type": "function"
    },
    {
      "inputs": [],
      "name": "pause",
      "outputs": [],
      "stateMutability": "nonpayable",
      "type": "function"
    },
    {
      "inputs": [],
      "name": "primeRBAC",
      "outputs": [
        {
          "internalType": "contract IPrimeRBAC",
          "name": "",
          "type": "address"
        }
      ],
      "stateMutability": "view",
      "type": "function"
    },
    {
      "inputs": [
        {
          "internalType": "contract Authority",
          "name": "newAuthority",
          "type": "address"
        }
      ],
      "name": "setAuthority",
      "outputs": [],
      "stateMutability": "nonpayable",
      "type": "function"
    },
    {
      "inputs": [
        {
          "internalType": "address",
          "name": "strategist",
          "type": "address"
        },
        {
          "internalType": "bytes32",
          "name": "_manageRoot",
          "type": "bytes32"
        }
      ],
      "name": "setManageRoot",
      "outputs": [],
      "stateMutability": "nonpayable",
      "type": "function"
    },
    {
      "inputs": [
        {
          "internalType": "address",
          "name": "newOwner",
          "type": "address"
        }
      ],
      "name": "transferOwnership",
      "outputs": [],
      "stateMutability": "nonpayable",
      "type": "function"
    },
    {
      "inputs": [],
      "name": "unpause",
      "outputs": [],
      "stateMutability": "nonpayable",
      "type": "function"
    },
    {
      "inputs": [],
      "name": "vault",
      "outputs": [
        {
          "internalType": "contract BoringVault",
          "name": "",
          "type": "address"
        }
      ],
      "stateMutability": "view",
      "type": "function"
    }
  ],
  "bytecode": "0x60a060405234801561000f575f5ffd5b5060405161231138038061231183398181016040528101906100319190610316565b818173ffffffffffffffffffffffffffffffffffffffff1663bf7e214f6040518163ffffffff1660e01b8152600401602060405180830381865afa15801561007b573d5f5f3e3d5ffd5b505050506040513d601f19601f8201168201806040525081019061009f919061038f565b3381815f5f6101000a81548173ffffffffffffffffffffffffffffffffffffffff021916908373ffffffffffffffffffffffffffffffffffffffff1602179055508060015f6101000a81548173ffffffffffffffffffffffffffffffffffffffff021916908373ffffffffffffffffffffffffffffffffffffffff1602179055508173ffffffffffffffffffffffffffffffffffffffff163373ffffffffffffffffffffffffffffffffffffffff167f8be0079c531659141344cd1fd0a4f28419497f9722a3daafe3b4186f6b6457e060405160405180910390a38073ffffffffffffffffffffffffffffffffffffffff163373ffffffffffffffffffffffffffffffffffffffff167fa3396fd7f6e0a21b50e5089d2da70d5ac0a3bbbd1f617a93f134b7638998019860405160405180910390a350505f73ffffffffffffffffffffffffffffffffffffffff168273ffffffffffffffffffffffffffffffffffffffff160361023b576040517f538ba4f900000000000000000000000000000000000000000000000000000000815260040160405180910390fd5b8160025f6101000a81548173ffffffffffffffffffffffffffffffffffffffff021916908373ffffffffffffffffffffffffffffffffffffffff16021790555050508073ffffffffffffffffffffffffffffffffffffffff1660808173ffffffffffffffffffffffffffffffffffffffff168152505050506103ba565b5f5ffd5b5f73ffffffffffffffffffffffffffffffffffffffff82169050919050565b5f6102e5826102bc565b9050919050565b6102f5816102db565b81146102ff575f5ffd5b50565b5f81519050610310816102ec565b92915050565b5f5f6040838503121561032c5761032b6102b8565b5b5f61033985828601610302565b925050602061034a85828601610302565b9150509250929050565b5f61035e826102db565b9050919050565b61036e81610354565b8114610378575f5ffd5b50565b5f8151905061038981610365565b92915050565b5f602082840312156103a4576103a36102b8565b5b5f6103b18482850161037b565b91505092915050565b608051611f2a6103e75f395f8181610594015281816106ea015281816107fc0152610e8c0152611f2a5ff3fe608060405234801561000f575f5ffd5b50600436106100b2575f3560e01c80638da5cb5b1161006f5780638da5cb5b1461014e578063b187bd261461016c578063bf7e214f1461018a578063e37d7e68146101a8578063f2fde38b146101c6578063fbfa77cf146101e2576100b2565b806321801a99146100b6578063244b0f6a146100d25780633f4ba83a146100ee5780635ca58a99146100f85780637a9e5e4b146101285780638456cb5914610144575b5f5ffd5b6100d060048036038101906100cb9190611375565b610200565b005b6100ec60048036038101906100e79190611513565b6103a7565b005b6100f6610905565b005b610112600480360381019061010d919061162a565b610a1b565b60405161011f9190611664565b60405180910390f35b610142600480360381019061013d91906116b8565b610a30565b005b61014c610beb565b005b610156610d02565b60405161016391906116f2565b60405180910390f35b610174610d26565b6040516101819190611725565b60405180910390f35b610192610d38565b60405161019f9190611799565b60405180910390f35b6101b0610d5d565b6040516101bd91906117d2565b60405180910390f35b6101e060048036038101906101db919061162a565b610d82565b005b6101ea610e8a565b6040516101f7919061181c565b60405180910390f35b60025f9054906101000a900473ffffffffffffffffffffffffffffffffffffffff1673ffffffffffffffffffffffffffffffffffffffff1663d35911f2336040518263ffffffff1660e01b815260040161025a91906116f2565b602060405180830381865afa158015610275573d5f5f3e3d5ffd5b505050506040513d601f19601f82011682018060405250810190610299919061185f565b6102cf576040517fdc85555400000000000000000000000000000000000000000000000000000000815260040160405180910390fd5b5f60035f8473ffffffffffffffffffffffffffffffffffffffff1673ffffffffffffffffffffffffffffffffffffffff1681526020019081526020015f205490508160035f8573ffffffffffffffffffffffffffffffffffffffff1673ffffffffffffffffffffffffffffffffffffffff1681526020019081526020015f20819055508273ffffffffffffffffffffffffffffffffffffffff167f0b958dec85f1470000479dfb22c365829411f52bcde602d24ea0abf5ac7e8860828460405161039a92919061188a565b60405180910390a2505050565b6103d4335f357fffffffff0000000000000000000000000000000000000000000000000000000016610eae565b610413576040517f08c379a000000000000000000000000000000000000000000000000000000000815260040161040a9061190b565b60405180910390fd5b60045f9054906101000a900460ff1615610459576040517fdbd8cb2800000000000000000000000000000000000000000000000000000000815260040160405180910390fd5b5f8686905090508a8a9050811461049c576040517f29c70cf000000000000000000000000000000000000000000000000000000000815260040160405180910390fd5b8484905081146104d8576040517f581ddbfd00000000000000000000000000000000000000000000000000000000815260040160405180910390fd5b828290508114610514576040517fe9fd1adf00000000000000000000000000000000000000000000000000000000815260040160405180910390fd5b888890508114610550576040517fda6c126800000000000000000000000000000000000000000000000000000000815260040160405180910390fd5b5f60035f3373ffffffffffffffffffffffffffffffffffffffff1673ffffffffffffffffffffffffffffffffffffffff1681526020019081526020015f205490505f7f000000000000000000000000000000000000000000000000000000000000000073ffffffffffffffffffffffffffffffffffffffff166318160ddd6040518163ffffffff1660e01b8152600401602060405180830381865afa1580156105fb573d5f5f3e3d5ffd5b505050506040513d601f19601f8201168201806040525081019061061f919061195c565b90505f5b838110156107f9576106e8838f8f8481811061064257610641611987565b5b905060200281019061065491906119c0565b8f8f8681811061066757610666611987565b5b905060200201602081019061067c919061162a565b8e8e8781811061068f5761068e611987565b5b90506020020160208101906106a4919061162a565b8b8b888181106106b7576106b6611987565b5b905060200201358e8e898181106106d1576106d0611987565b5b90506020028101906106e39190611a22565b610fe7565b7f000000000000000000000000000000000000000000000000000000000000000073ffffffffffffffffffffffffffffffffffffffff1663f6e715d08b8b8481811061073757610736611987565b5b905060200201602081019061074c919061162a565b8a8a8581811061075f5761075e611987565b5b90506020028101906107719190611a22565b8a8a8781811061078457610783611987565b5b905060200201356040518563ffffffff1660e01b81526004016107aa9493929190611aed565b5f604051808303815f875af11580156107c5573d5f5f3e3d5ffd5b505050506040513d5f823e3d601f19601f820116820180604052508101906107ed9190611c53565b50806001019050610623565b507f000000000000000000000000000000000000000000000000000000000000000073ffffffffffffffffffffffffffffffffffffffff166318160ddd6040518163ffffffff1660e01b8152600401602060405180830381865afa158015610863573d5f5f3e3d5ffd5b505050506040513d601f19601f82011682018060405250810190610887919061195c565b81146108bf576040517f58d3222600000000000000000000000000000000000000000000000000000000815260040160405180910390fd5b7f53d426e7d80bb2c8674d3b45577e2d464d423faad6531b21f95ac11ac18b1cb6836040516108ee9190611c9a565b60405180910390a150505050505050505050505050565b60025f9054906101000a900473ffffffffffffffffffffffffffffffffffffffff1673ffffffffffffffffffffffffffffffffffffffff16632f41ca96336040518263ffffffff1660e01b815260040161095f91906116f2565b602060405180830381865afa15801561097a573d5f5f3e3d5ffd5b505050506040513d601f19601f8201168201806040525081019061099e919061185f565b6109d4576040517f445b0c3a00000000000000000000000000000000000000000000000000000000815260040160405180910390fd5b5f60045f6101000a81548160ff0219169083151502179055507fa45f47fdea8a1efdd9029a5691c7f759c32b7c698632b563573e155625d1693360405160405180910390a1565b6003602052805f5260405f205f915090505481565b5f5f9054906101000a900473ffffffffffffffffffffffffffffffffffffffff1673ffffffffffffffffffffffffffffffffffffffff163373ffffffffffffffffffffffffffffffffffffffff161480610b46575060015f9054906101000a900473ffffffffffffffffffffffffffffffffffffffff1673ffffffffffffffffffffffffffffffffffffffff1663b700961333305f357fffffffff00000000000000000000000000000000000000000000000000000000166040518463ffffffff1660e01b8152600401610b0693929190611ced565b602060405180830381865afa158015610b21573d5f5f3e3d5ffd5b505050506040513d601f19601f82011682018060405250810190610b45919061185f565b5b610b4e575f5ffd5b8060015f6101000a81548173ffffffffffffffffffffffffffffffffffffffff021916908373ffffffffffffffffffffffffffffffffffffffff1602179055508073ffffffffffffffffffffffffffffffffffffffff163373ffffffffffffffffffffffffffffffffffffffff167fa3396fd7f6e0a21b50e5089d2da70d5ac0a3bbbd1f617a93f134b7638998019860405160405180910390a350565b60025f9054906101000a900473ffffffffffffffffffffffffffffffffffffffff1673ffffffffffffffffffffffffffffffffffffffff16632f41ca96336040518263ffffffff1660e01b8152600401610c4591906116f2565b602060405180830381865afa158015610c60573d5f5f3e3d5ffd5b505050506040513d601f19601f82011682018060405250810190610c84919061185f565b610cba576040517f445b0c3a00000000000000000000000000000000000000000000000000000000815260040160405180910390fd5b600160045f6101000a81548160ff0219169083151502179055507f9e87fac88ff661f02d44f95383c817fece4bce600a3dab7a54406878b965e75260405160405180910390a1565b5f5f9054906101000a900473ffffffffffffffffffffffffffffffffffffffff1681565b60045f9054906101000a900460ff1681565b60015f9054906101000a900473ffffffffffffffffffffffffffffffffffffffff1681565b60025f9054906101000a900473ffffffffffffffffffffffffffffffffffffffff1681565b610daf335f357fffffffff0000000000000000000000000000000000000000000000000000000016610eae565b610dee576040517f08c379a0000000000000000000000000000000000000000000000000000000008152600401610de59061190b565b60405180910390fd5b805f5f6101000a81548173ffffffffffffffffffffffffffffffffffffffff021916908373ffffffffffffffffffffffffffffffffffffffff1602179055508073ffffffffffffffffffffffffffffffffffffffff163373ffffffffffffffffffffffffffffffffffffffff167f8be0079c531659141344cd1fd0a4f28419497f9722a3daafe3b4186f6b6457e060405160405180910390a350565b7f000000000000000000000000000000000000000000000000000000000000000081565b5f5f60015f9054906101000a900473ffffffffffffffffffffffffffffffffffffffff1690505f73ffffffffffffffffffffffffffffffffffffffff168173ffffffffffffffffffffffffffffffffffffffff1614158015610f8857508073ffffffffffffffffffffffffffffffffffffffff1663b70096138530866040518463ffffffff1660e01b8152600401610f4893929190611ced565b602060405180830381865afa158015610f63573d5f5f3e3d5ffd5b505050506040513d601f19601f82011682018060405250810190610f87919061185f565b5b80610fde57505f5f9054906101000a900473ffffffffffffffffffffffffffffffffffffffff1673ffffffffffffffffffffffffffffffffffffffff168473ffffffffffffffffffffffffffffffffffffffff16145b91505092915050565b5f828290610ff59190611d38565b90505f61106484848080601f0160208091040260200160405190810160405280939291908181526020018383808284375f81840152601f19601f820116905080830192505050505050508873ffffffffffffffffffffffffffffffffffffffff166110dc90919063ffffffff16565b8060200190518101906110779190611c53565b90506110898a8a8a898b8a888861115c565b6110d057858484876040517fc0dcd1a70000000000000000000000000000000000000000000000000000000081526004016110c79493929190611aed565b60405180910390fd5b50505050505050505050565b60605f5f8473ffffffffffffffffffffffffffffffffffffffff16846040516111059190611dda565b5f60405180830381855afa9150503d805f811461113d576040519150601f19603f3d011682016040523d82523d5f602084013e611142565b606091505b50915091506111528583836111b1565b9250505092915050565b5f5f5f851190505f868883878760405160200161117d959493929190611e9a565b6040516020818303038152906040528051906020012090506111a18a8a8d8461123e565b9250505098975050505050505050565b6060826111c6576111c182611294565b611236565b5f82511480156111ec57505f8473ffffffffffffffffffffffffffffffffffffffff163b145b1561122e57836040517f9996b31500000000000000000000000000000000000000000000000000000000815260040161122591906116f2565b60405180910390fd5b819050611237565b5b9392505050565b5f8315611287578360051b8501855b600115611284578035841160051b8481528135602082185260405f20945060208201915082821061127e5750611284565b5061124d565b50505b8282149050949350505050565b5f815111156112a557805160208201fd5b6040517fd6bda27500000000000000000000000000000000000000000000000000000000815260040160405180910390fd5b5f604051905090565b5f5ffd5b5f5ffd5b5f73ffffffffffffffffffffffffffffffffffffffff82169050919050565b5f611311826112e8565b9050919050565b61132181611307565b811461132b575f5ffd5b50565b5f8135905061133c81611318565b92915050565b5f819050919050565b61135481611342565b811461135e575f5ffd5b50565b5f8135905061136f8161134b565b92915050565b5f5f6040838503121561138b5761138a6112e0565b5b5f6113988582860161132e565b92505060206113a985828601611361565b9150509250929050565b5f5ffd5b5f5ffd5b5f5ffd5b5f5f83601f8401126113d4576113d36113b3565b5b8235905067ffffffffffffffff8111156113f1576113f06113b7565b5b60208301915083602082028301111561140d5761140c6113bb565b5b9250929050565b5f5f83601f840112611429576114286113b3565b5b8235905067ffffffffffffffff811115611446576114456113b7565b5b602083019150836020820283011115611462576114616113bb565b5b9250929050565b5f5f83601f84011261147e5761147d6113b3565b5b8235905067ffffffffffffffff81111561149b5761149a6113b7565b5b6020830191508360208202830111156114b7576114b66113bb565b5b9250929050565b5f5f83601f8401126114d3576114d26113b3565b5b8235905067ffffffffffffffff8111156114f0576114ef6113b7565b5b60208301915083602082028301111561150c5761150b6113bb565b5b9250929050565b5f5f5f5f5f5f5f5f5f5f60a08b8d031215611531576115306112e0565b5b5f8b013567ffffffffffffffff81111561154e5761154d6112e4565b5b61155a8d828e016113bf565b9a509a505060208b013567ffffffffffffffff81111561157d5761157c6112e4565b5b6115898d828e01611414565b985098505060408b013567ffffffffffffffff8111156115ac576115ab6112e4565b5b6115b88d828e01611414565b965096505060608b013567ffffffffffffffff8111156115db576115da6112e4565b5b6115e78d828e01611469565b945094505060808b013567ffffffffffffffff81111561160a576116096112e4565b5b6116168d828e016114be565b92509250509295989b9194979a5092959850565b5f6020828403121561163f5761163e6112e0565b5b5f61164c8482850161132e565b91505092915050565b61165e81611342565b82525050565b5f6020820190506116775f830184611655565b92915050565b5f61168782611307565b9050919050565b6116978161167d565b81146116a1575f5ffd5b50565b5f813590506116b28161168e565b92915050565b5f602082840312156116cd576116cc6112e0565b5b5f6116da848285016116a4565b91505092915050565b6116ec81611307565b82525050565b5f6020820190506117055f8301846116e3565b92915050565b5f8115159050919050565b61171f8161170b565b82525050565b5f6020820190506117385f830184611716565b92915050565b5f819050919050565b5f61176161175c611757846112e8565b61173e565b6112e8565b9050919050565b5f61177282611747565b9050919050565b5f61178382611768565b9050919050565b61179381611779565b82525050565b5f6020820190506117ac5f83018461178a565b92915050565b5f6117bc82611768565b9050919050565b6117cc816117b2565b82525050565b5f6020820190506117e55f8301846117c3565b92915050565b5f6117f582611747565b9050919050565b5f611806826117eb565b9050919050565b611816816117fc565b82525050565b5f60208201905061182f5f83018461180d565b92915050565b61183e8161170b565b8114611848575f5ffd5b50565b5f8151905061185981611835565b92915050565b5f60208284031215611874576118736112e0565b5b5f6118818482850161184b565b91505092915050565b5f60408201905061189d5f830185611655565b6118aa6020830184611655565b9392505050565b5f82825260208201905092915050565b7f554e415554484f52495a454400000000000000000000000000000000000000005f82015250565b5f6118f5600c836118b1565b9150611900826118c1565b602082019050919050565b5f6020820190508181035f830152611922816118e9565b9050919050565b5f819050919050565b61193b81611929565b8114611945575f5ffd5b50565b5f8151905061195681611932565b92915050565b5f60208284031215611971576119706112e0565b5b5f61197e84828501611948565b91505092915050565b7f4e487b71000000000000000000000000000000000000000000000000000000005f52603260045260245ffd5b5f5ffd5b5f5ffd5b5f5ffd5b5f5f833560016020038436030381126119dc576119db6119b4565b5b80840192508235915067ffffffffffffffff8211156119fe576119fd6119b8565b5b602083019250602082023603831315611a1a57611a196119bc565b5b509250929050565b5f5f83356001602003843603038112611a3e57611a3d6119b4565b5b80840192508235915067ffffffffffffffff821115611a6057611a5f6119b8565b5b602083019250600182023603831315611a7c57611a7b6119bc565b5b509250929050565b5f82825260208201905092915050565b828183375f83830152505050565b5f601f19601f8301169050919050565b5f611abd8385611a84565b9350611aca838584611a94565b611ad383611aa2565b840190509392505050565b611ae781611929565b82525050565b5f606082019050611b005f8301876116e3565b8181036020830152611b13818587611ab2565b9050611b226040830184611ade565b95945050505050565b5f5ffd5b7f4e487b71000000000000000000000000000000000000000000000000000000005f52604160045260245ffd5b611b6582611aa2565b810181811067ffffffffffffffff82111715611b8457611b83611b2f565b5b80604052505050565b5f611b966112d7565b9050611ba28282611b5c565b919050565b5f67ffffffffffffffff821115611bc157611bc0611b2f565b5b611bca82611aa2565b9050602081019050919050565b8281835e5f83830152505050565b5f611bf7611bf284611ba7565b611b8d565b905082815260208101848484011115611c1357611c12611b2b565b5b611c1e848285611bd7565b509392505050565b5f82601f830112611c3a57611c396113b3565b5b8151611c4a848260208601611be5565b91505092915050565b5f60208284031215611c6857611c676112e0565b5b5f82015167ffffffffffffffff811115611c8557611c846112e4565b5b611c9184828501611c26565b91505092915050565b5f602082019050611cad5f830184611ade565b92915050565b5f7fffffffff0000000000000000000000000000000000000000000000000000000082169050919050565b611ce781611cb3565b82525050565b5f606082019050611d005f8301866116e3565b611d0d60208301856116e3565b611d1a6040830184611cde565b949350505050565b5f82905092915050565b5f82821b905092915050565b5f611d438383611d22565b82611d4e8135611cb3565b92506004821015611d8e57611d897fffffffff0000000000000000000000000000000000000000000000000000000083600403600802611d2c565b831692505b505092915050565b5f81519050919050565b5f81905092915050565b5f611db482611d96565b611dbe8185611da0565b9350611dce818560208601611bd7565b80840191505092915050565b5f611de58284611daa565b915081905092915050565b5f8160601b9050919050565b5f611e0682611df0565b9050919050565b5f611e1782611dfc565b9050919050565b611e2f611e2a82611307565b611e0d565b82525050565b5f8160f81b9050919050565b5f611e4b82611e35565b9050919050565b5f611e5c82611e41565b9050919050565b611e74611e6f8261170b565b611e52565b82525050565b5f819050919050565b611e94611e8f82611cb3565b611e7a565b82525050565b5f611ea58288611e1e565b601482019150611eb58287611e1e565b601482019150611ec58286611e63565b600182019150611ed58285611e83565b600482019150611ee58284611daa565b9150819050969550505050505056fea2646970667358221220f1883e18b2510b25e00f6b1890acaa9937696e93df6d91b9b3f0968338bb7eb064736f6c634300081e0033",
  "linkReferences": {},
  "deployedLinkReferences": {},
  "immutableReferences": {
    "14403": [
      {
        "length": 32,
        "start": 1428
      },
      {
        "length": 32,
        "start": 1770
      },
      {
        "length": 32,
        "start": 2044
      },
      {
        "length": 32,
        "start": 3724
      }
    ]
  },
  "inputSourceName": "project/contracts/core/ManagerWithMerkleVerification.sol",
  "buildInfoId": "solc-0_8_30-b812b6f9c8de22d6d072c72da0837b4069544e24"
}