{
  "_format": "hh3-artifact-1",
  "contractName": "MockStrategist",
  "sourceName": "contracts/helper/MockStrategist.sol",
  "abi": [
    {
      "inputs": [],
      "stateMutability": "nonpayable",
      "type": "constructor"
    },
    {
      "inputs": [
        {
          "internalType": "address",
          "name": "asset",
          "type": "address"
        },
        {
          "internalType": "uint256",
          "name": "amount",
          "type": "uint256"
        }
      ],
      "name": "deposit",
      "outputs": [],
      "stateMutability": "nonpayable",
      "type": "function"
    },
    {
      "inputs": [
        {
          "internalType": "address",
          "name": "asset",
          "type": "address"
        },
        {
          "internalType": "uint256",
          "name": "amount",
          "type": "uint256"
        },
        {
          "internalType": "address",
          "name": "to",
          "type": "address"
        }
      ],
      "name": "withdraw",
      "outputs": [],
      "stateMutability": "nonpayable",
      "type": "function"
    }
  ],
  "bytecode": "0x6080604052348015600e575f5ffd5b506104918061001c5f395ff3fe608060405234801561000f575f5ffd5b5060043610610034575f3560e01c806347e7ef241461003857806369328dec14610054575b5f5ffd5b610052600480360381019061004d91906102ed565b610070565b005b61006e6004803603810190610069919061032b565b6100a1565b005b61009d3330838573ffffffffffffffffffffffffffffffffffffffff166100d1909392919063ffffffff16565b5050565b6100cc81838573ffffffffffffffffffffffffffffffffffffffff166101a59092919063ffffffff16565b505050565b5f6040517f23b872dd00000000000000000000000000000000000000000000000000000000815273ffffffffffffffffffffffffffffffffffffffff8516600482015273ffffffffffffffffffffffffffffffffffffffff8416602482015282604482015260205f6064835f8a5af1915081601f3d1160015f51141615161561015d573d863b15171591505b508061019e576040517f08c379a0000000000000000000000000000000000000000000000000000000008152600401610195906103d5565b60405180910390fd5b5050505050565b5f6040517fa9059cbb00000000000000000000000000000000000000000000000000000000815273ffffffffffffffffffffffffffffffffffffffff8416600482015282602482015260205f6044835f895af1915081601f3d1160015f511416151615610215573d853b15171591505b5080610256576040517f08c379a000000000000000000000000000000000000000000000000000000000815260040161024d9061043d565b60405180910390fd5b50505050565b5f5ffd5b5f73ffffffffffffffffffffffffffffffffffffffff82169050919050565b5f61028982610260565b9050919050565b6102998161027f565b81146102a3575f5ffd5b50565b5f813590506102b481610290565b92915050565b5f819050919050565b6102cc816102ba565b81146102d6575f5ffd5b50565b5f813590506102e7816102c3565b92915050565b5f5f604083850312156103035761030261025c565b5b5f610310858286016102a6565b9250506020610321858286016102d9565b9150509250929050565b5f5f5f606084860312156103425761034161025c565b5b5f61034f868287016102a6565b9350506020610360868287016102d9565b9250506040610371868287016102a6565b9150509250925092565b5f82825260208201905092915050565b7f5452414e534645525f46524f4d5f4641494c45440000000000000000000000005f82015250565b5f6103bf60148361037b565b91506103ca8261038b565b602082019050919050565b5f6020820190508181035f8301526103ec816103b3565b9050919050565b7f5452414e534645525f4641494c454400000000000000000000000000000000005f82015250565b5f610427600f8361037b565b9150610432826103f3565b602082019050919050565b5f6020820190508181035f8301526104548161041b565b905091905056fea2646970667358221220fb1223d813cada64334c27aaa9ad53da96a2802e8321f6108834012fde7e386564736f6c634300081e0033",
  "linkReferences": {},
  "deployedLinkReferences": {},
  "immutableReferences": {},
  "inputSourceName": "project/contracts/helper/MockStrategist.sol",
  "buildInfoId": "solc-0_8_30-8941e48868b44b875cdd0c8881a4d144245e2228"
}