{
  "_format": "hh3-artifact-1",
  "contractName": "MockERC20",
  "sourceName": "contracts/helper/MockERC20.sol",
  "abi": [
    {
      "inputs": [
        {
          "internalType": "string",
          "name": "name_",
          "type": "string"
        },
        {
          "internalType": "string",
          "name": "symbol_",
          "type": "string"
        },
        {
          "internalType": "uint8",
          "name": "decimals_",
          "type": "uint8"
        }
      ],
      "stateMutability": "nonpayable",
      "type": "constructor"
    },
    {
      "inputs": [
        {
          "internalType": "address",
          "name": "spender",
          "type": "address"
        },
        {
          "internalType": "uint256",
          "name": "allowance",
          "type": "uint256"
        },
        {
          "internalType": "uint256",
          "name": "needed",
          "type": "uint256"
        }
      ],
      "name": "ERC20InsufficientAllowance",
      "type": "error"
    },
    {
      "inputs": [
        {
          "internalType": "address",
          "name": "sender",
          "type": "address"
        },
        {
          "internalType": "uint256",
          "name": "balance",
          "type": "uint256"
        },
        {
          "internalType": "uint256",
          "name": "needed",
          "type": "uint256"
        }
      ],
      "name": "ERC20InsufficientBalance",
      "type": "error"
    },
    {
      "inputs": [
        {
          "internalType": "address",
          "name": "approver",
          "type": "address"
        }
      ],
      "name": "ERC20InvalidApprover",
      "type": "error"
    },
    {
      "inputs": [
        {
          "internalType": "address",
          "name": "receiver",
          "type": "address"
        }
      ],
      "name": "ERC20InvalidReceiver",
      "type": "error"
    },
    {
      "inputs": [
        {
          "internalType": "address",
          "name": "sender",
          "type": "address"
        }
      ],
      "name": "ERC20InvalidSender",
      "type": "error"
    },
    {
      "inputs": [
        {
          "internalType": "address",
          "name": "spender",
          "type": "address"
        }
      ],
      "name": "ERC20InvalidSpender",
      "type": "error"
    },
    {
      "anonymous": false,
      "inputs": [
        {
          "indexed": true,
          "internalType": "address",
          "name": "owner",
          "type": "address"
        },
        {
          "indexed": true,
          "internalType": "address",
          "name": "spender",
          "type": "address"
        },
        {
          "indexed": false,
          "internalType": "uint256",
          "name": "value",
          "type": "uint256"
        }
      ],
      "name": "Approval",
      "type": "event"
    },
    {
      "anonymous": false,
      "inputs": [
        {
          "indexed": true,
          "internalType": "address",
          "name": "from",
          "type": "address"
        },
        {
          "indexed": true,
          "internalType": "address",
          "name": "to",
          "type": "address"
        },
        {
          "indexed": false,
          "internalType": "uint256",
          "name": "value",
          "type": "uint256"
        }
      ],
      "name": "Transfer",
      "type": "event"
    },
    {
      "inputs": [
        {
          "internalType": "address",
          "name": "owner",
          "type": "address"
        },
        {
          "internalType": "address",
          "name": "spender",
          "type": "address"
        }
      ],
      "name": "allowance",
      "outputs": [
        {
          "internalType": "uint256",
          "name": "",
          "type": "uint256"
        }
      ],
      "stateMutability": "view",
      "type": "function"
    },
    {
      "inputs": [
        {
          "internalType": "address",
          "name": "spender",
          "type": "address"
        },
        {
          "internalType": "uint256",
          "name": "value",
          "type": "uint256"
        }
      ],
      "name": "approve",
      "outputs": [
        {
          "internalType": "bool",
          "name": "",
          "type": "bool"
        }
      ],
      "stateMutability": "nonpayable",
      "type": "function"
    },
    {
      "inputs": [
        {
          "internalType": "address",
          "name": "account",
          "type": "address"
        }
      ],
      "name": "balanceOf",
      "outputs": [
        {
          "internalType": "uint256",
          "name": "",
          "type": "uint256"
        }
      ],
      "stateMutability": "view",
      "type": "function"
    },
    {
      "inputs": [
        {
          "internalType": "uint256",
          "name": "amount",
          "type": "uint256"
        }
      ],
      "name": "burn",
      "outputs": [],
      "stateMutability": "nonpayable",
      "type": "function"
    },
    {
      "inputs": [
        {
          "internalType": "address",
          "name": "account",
          "type": "address"
        },
        {
          "internalType": "uint256",
          "name": "amount",
          "type": "uint256"
        }
      ],
      "name": "burnFrom",
      "outputs": [],
      "stateMutability": "nonpayable",
      "type": "function"
    },
    {
      "inputs": [],
      "name": "decimals",
      "outputs": [
        {
          "internalType": "uint8",
          "name": "",
          "type": "uint8"
        }
      ],
      "stateMutability": "view",
      "type": "function"
    },
    {
      "inputs": [
        {
          "internalType": "address",
          "name": "to",
          "type": "address"
        },
        {
          "internalType": "uint256",
          "name": "amount",
          "type": "uint256"
        }
      ],
      "name": "mint",
      "outputs": [],
      "stateMutability": "nonpayable",
      "type": "function"
    },
    {
      "inputs": [],
      "name": "name",
      "outputs": [
        {
          "internalType": "string",
          "name": "",
          "type": "string"
        }
      ],
      "stateMutability": "view",
      "type": "function"
    },
    {
      "inputs": [],
      "name": "symbol",
      "outputs": [
        {
          "internalType": "string",
          "name": "",
          "type": "string"
        }
      ],
      "stateMutability": "view",
      "type": "function"
    },
    {
      "inputs": [],
      "name": "totalSupply",
      "outputs": [
        {
          "internalType": "uint256",
          "name": "",
          "type": "uint256"
        }
      ],
      "stateMutability": "view",
      "type": "function"
    },
    {
      "inputs": [
        {
          "internalType": "address",
          "name": "to",
          "type": "address"
        },
        {
          "internalType": "uint256",
          "name": "value",
          "type": "uint256"
        }
      ],
      "name": "transfer",
      "outputs": [
        {
          "internalType": "bool",
          "name": "",
          "type": "bool"
        }
      ],
      "stateMutability": "nonpayable",
      "type": "function"
    },
    {
      "inputs": [
        {
          "internalType": "address",
          "name": "from",
          "type": "address"
        },
        {
          "internalType": "address",
          "name": "to",
          "type": "address"
        },
        {
          "internalType": "uint256",
          "name": "value",
          "type": "uint256"
        }
      ],
      "name": "transferFrom",
      "outputs": [
        {
          "internalType": "bool",
          "name": "",
          "type": "bool"
        }
      ],
      "stateMutability": "nonpayable",
      "type": "function"
    }
  ],
  "bytecode": "0x60a060405234801561000f575f5ffd5b506040516115fb3803806115fb833981810160405281019061003191906101ee565b828281600390816100429190610486565b5080600490816100529190610486565b5050508060ff1660808160ff1681525050505050610555565b5f604051905090565b5f5ffd5b5f5ffd5b5f5ffd5b5f5ffd5b5f601f19601f8301169050919050565b7f4e487b71000000000000000000000000000000000000000000000000000000005f52604160045260245ffd5b6100ca82610084565b810181811067ffffffffffffffff821117156100e9576100e8610094565b5b80604052505050565b5f6100fb61006b565b905061010782826100c1565b919050565b5f67ffffffffffffffff82111561012657610125610094565b5b61012f82610084565b9050602081019050919050565b8281835e5f83830152505050565b5f61015c6101578461010c565b6100f2565b90508281526020810184848401111561017857610177610080565b5b61018384828561013c565b509392505050565b5f82601f83011261019f5761019e61007c565b5b81516101af84826020860161014a565b91505092915050565b5f60ff82169050919050565b6101cd816101b8565b81146101d7575f5ffd5b50565b5f815190506101e8816101c4565b92915050565b5f5f5f6060848603121561020557610204610074565b5b5f84015167ffffffffffffffff81111561022257610221610078565b5b61022e8682870161018b565b935050602084015167ffffffffffffffff81111561024f5761024e610078565b5b61025b8682870161018b565b925050604061026c868287016101da565b9150509250925092565b5f81519050919050565b7f4e487b71000000000000000000000000000000000000000000000000000000005f52602260045260245ffd5b5f60028204905060018216806102c457607f821691505b6020821081036102d7576102d6610280565b5b50919050565b5f819050815f5260205f209050919050565b5f6020601f8301049050919050565b5f82821b905092915050565b5f600883026103397fffffffffffffffffffffffffffffffffffffffffffffffffffffffffffffffff826102fe565b61034386836102fe565b95508019841693508086168417925050509392505050565b5f819050919050565b5f819050919050565b5f61038761038261037d8461035b565b610364565b61035b565b9050919050565b5f819050919050565b6103a08361036d565b6103b46103ac8261038e565b84845461030a565b825550505050565b5f5f905090565b6103cb6103bc565b6103d6818484610397565b505050565b5b818110156103f9576103ee5f826103c3565b6001810190506103dc565b5050565b601f82111561043e5761040f816102dd565b610418846102ef565b81016020851015610427578190505b61043b610433856102ef565b8301826103db565b50505b505050565b5f82821c905092915050565b5f61045e5f1984600802610443565b1980831691505092915050565b5f610476838361044f565b9150826002028217905092915050565b61048f82610276565b67ffffffffffffffff8111156104a8576104a7610094565b5b6104b282546102ad565b6104bd8282856103fd565b5f60209050601f8311600181146104ee575f84156104dc578287015190505b6104e6858261046b565b86555061054d565b601f1984166104fc866102dd565b5f5b82811015610523578489015182556001820191506020850194506020810190506104fe565b86831015610540578489015161053c601f89168261044f565b8355505b6001600288020188555050505b505050505050565b60805161108e61056d5f395f61035e015261108e5ff3fe608060405234801561000f575f5ffd5b50600436106100b2575f3560e01c806342966c681161006f57806342966c681461018c57806370a08231146101a857806379cc6790146101d857806395d89b41146101f4578063a9059cbb14610212578063dd62ed3e14610242576100b2565b806306fdde03146100b6578063095ea7b3146100d457806318160ddd1461010457806323b872dd14610122578063313ce5671461015257806340c10f1914610170575b5f5ffd5b6100be610272565b6040516100cb9190610c74565b60405180910390f35b6100ee60048036038101906100e99190610d25565b610302565b6040516100fb9190610d7d565b60405180910390f35b61010c610324565b6040516101199190610da5565b60405180910390f35b61013c60048036038101906101379190610dbe565b61032d565b6040516101499190610d7d565b60405180910390f35b61015a61035b565b6040516101679190610e29565b60405180910390f35b61018a60048036038101906101859190610d25565b610382565b005b6101a660048036038101906101a19190610e42565b610390565b005b6101c260048036038101906101bd9190610e6d565b61039d565b6040516101cf9190610da5565b60405180910390f35b6101f260048036038101906101ed9190610d25565b6103e2565b005b6101fc61044e565b6040516102099190610c74565b60405180910390f35b61022c60048036038101906102279190610d25565b6104de565b6040516102399190610d7d565b60405180910390f35b61025c60048036038101906102579190610e98565b610500565b6040516102699190610da5565b60405180910390f35b60606003805461028190610f03565b80601f01602080910402602001604051908101604052809291908181526020018280546102ad90610f03565b80156102f85780601f106102cf576101008083540402835291602001916102f8565b820191905f5260205f20905b8154815290600101906020018083116102db57829003601f168201915b5050505050905090565b5f5f61030c610582565b9050610319818585610589565b600191505092915050565b5f600254905090565b5f5f610337610582565b905061034485828561059b565b61034f85858561062e565b60019150509392505050565b5f7f0000000000000000000000000000000000000000000000000000000000000000905090565b61038c828261071e565b5050565b61039a338261079d565b50565b5f5f5f8373ffffffffffffffffffffffffffffffffffffffff1673ffffffffffffffffffffffffffffffffffffffff1681526020019081526020015f20549050919050565b5f6103ed8333610500565b905081811015610432576040517f08c379a000000000000000000000000000000000000000000000000000000000815260040161042990610f7d565b60405180910390fd5b61043f8333848403610589565b610449838361079d565b505050565b60606004805461045d90610f03565b80601f016020809104026020016040519081016040528092919081815260200182805461048990610f03565b80156104d45780601f106104ab576101008083540402835291602001916104d4565b820191905f5260205f20905b8154815290600101906020018083116104b757829003601f168201915b5050505050905090565b5f5f6104e8610582565b90506104f581858561062e565b600191505092915050565b5f60015f8473ffffffffffffffffffffffffffffffffffffffff1673ffffffffffffffffffffffffffffffffffffffff1681526020019081526020015f205f8373ffffffffffffffffffffffffffffffffffffffff1673ffffffffffffffffffffffffffffffffffffffff1681526020019081526020015f2054905092915050565b5f33905090565b610596838383600161081c565b505050565b5f6105a68484610500565b90507fffffffffffffffffffffffffffffffffffffffffffffffffffffffffffffffff8110156106285781811015610619578281836040517ffb8f41b200000000000000000000000000000000000000000000000000000000815260040161061093929190610faa565b60405180910390fd5b61062784848484035f61081c565b5b50505050565b5f73ffffffffffffffffffffffffffffffffffffffff168373ffffffffffffffffffffffffffffffffffffffff160361069e575f6040517f96c6fd1e0000000000000000000000000000000000000000000000000000000081526004016106959190610fdf565b60405180910390fd5b5f73ffffffffffffffffffffffffffffffffffffffff168273ffffffffffffffffffffffffffffffffffffffff160361070e575f6040517fec442f050000000000000000000000000000000000000000000000000000000081526004016107059190610fdf565b60405180910390fd5b6107198383836109eb565b505050565b5f73ffffffffffffffffffffffffffffffffffffffff168273ffffffffffffffffffffffffffffffffffffffff160361078e575f6040517fec442f050000000000000000000000000000000000000000000000000000000081526004016107859190610fdf565b60405180910390fd5b6107995f83836109eb565b5050565b5f73ffffffffffffffffffffffffffffffffffffffff168273ffffffffffffffffffffffffffffffffffffffff160361080d575f6040517f96c6fd1e0000000000000000000000000000000000000000000000000000000081526004016108049190610fdf565b60405180910390fd5b610818825f836109eb565b5050565b5f73ffffffffffffffffffffffffffffffffffffffff168473ffffffffffffffffffffffffffffffffffffffff160361088c575f6040517fe602df050000000000000000000000000000000000000000000000000000000081526004016108839190610fdf565b60405180910390fd5b5f73ffffffffffffffffffffffffffffffffffffffff168373ffffffffffffffffffffffffffffffffffffffff16036108fc575f6040517f94280d620000000000000000000000000000000000000000000000000000000081526004016108f39190610fdf565b60405180910390fd5b8160015f8673ffffffffffffffffffffffffffffffffffffffff1673ffffffffffffffffffffffffffffffffffffffff1681526020019081526020015f205f8573ffffffffffffffffffffffffffffffffffffffff1673ffffffffffffffffffffffffffffffffffffffff1681526020019081526020015f208190555080156109e5578273ffffffffffffffffffffffffffffffffffffffff168473ffffffffffffffffffffffffffffffffffffffff167f8c5be1e5ebec7d5bd14f71427d1e84f3dd0314c0f7b2291e5b200ac8c7c3b925846040516109dc9190610da5565b60405180910390a35b50505050565b5f73ffffffffffffffffffffffffffffffffffffffff168373ffffffffffffffffffffffffffffffffffffffff1603610a3b578060025f828254610a2f9190611025565b92505081905550610b09565b5f5f5f8573ffffffffffffffffffffffffffffffffffffffff1673ffffffffffffffffffffffffffffffffffffffff1681526020019081526020015f2054905081811015610ac4578381836040517fe450d38c000000000000000000000000000000000000000000000000000000008152600401610abb93929190610faa565b60405180910390fd5b8181035f5f8673ffffffffffffffffffffffffffffffffffffffff1673ffffffffffffffffffffffffffffffffffffffff1681526020019081526020015f2081905550505b5f73ffffffffffffffffffffffffffffffffffffffff168273ffffffffffffffffffffffffffffffffffffffff1603610b50578060025f8282540392505081905550610b9a565b805f5f8473ffffffffffffffffffffffffffffffffffffffff1673ffffffffffffffffffffffffffffffffffffffff1681526020019081526020015f205f82825401925050819055505b8173ffffffffffffffffffffffffffffffffffffffff168373ffffffffffffffffffffffffffffffffffffffff167fddf252ad1be2c89b69c2b068fc378daa952ba7f163c4a11628f55a4df523b3ef83604051610bf79190610da5565b60405180910390a3505050565b5f81519050919050565b5f82825260208201905092915050565b8281835e5f83830152505050565b5f601f19601f8301169050919050565b5f610c4682610c04565b610c508185610c0e565b9350610c60818560208601610c1e565b610c6981610c2c565b840191505092915050565b5f6020820190508181035f830152610c8c8184610c3c565b905092915050565b5f5ffd5b5f73ffffffffffffffffffffffffffffffffffffffff82169050919050565b5f610cc182610c98565b9050919050565b610cd181610cb7565b8114610cdb575f5ffd5b50565b5f81359050610cec81610cc8565b92915050565b5f819050919050565b610d0481610cf2565b8114610d0e575f5ffd5b50565b5f81359050610d1f81610cfb565b92915050565b5f5f60408385031215610d3b57610d3a610c94565b5b5f610d4885828601610cde565b9250506020610d5985828601610d11565b9150509250929050565b5f8115159050919050565b610d7781610d63565b82525050565b5f602082019050610d905f830184610d6e565b92915050565b610d9f81610cf2565b82525050565b5f602082019050610db85f830184610d96565b92915050565b5f5f5f60608486031215610dd557610dd4610c94565b5b5f610de286828701610cde565b9350506020610df386828701610cde565b9250506040610e0486828701610d11565b9150509250925092565b5f60ff82169050919050565b610e2381610e0e565b82525050565b5f602082019050610e3c5f830184610e1a565b92915050565b5f60208284031215610e5757610e56610c94565b5b5f610e6484828501610d11565b91505092915050565b5f60208284031215610e8257610e81610c94565b5b5f610e8f84828501610cde565b91505092915050565b5f5f60408385031215610eae57610ead610c94565b5b5f610ebb85828601610cde565b9250506020610ecc85828601610cde565b9150509250929050565b7f4e487b71000000000000000000000000000000000000000000000000000000005f52602260045260245ffd5b5f6002820490506001821680610f1a57607f821691505b602082108103610f2d57610f2c610ed6565b5b50919050565b7f45524332303a20696e73756666696369656e7420616c6c6f77616e63650000005f82015250565b5f610f67601d83610c0e565b9150610f7282610f33565b602082019050919050565b5f6020820190508181035f830152610f9481610f5b565b9050919050565b610fa481610cb7565b82525050565b5f606082019050610fbd5f830186610f9b565b610fca6020830185610d96565b610fd76040830184610d96565b949350505050565b5f602082019050610ff25f830184610f9b565b92915050565b7f4e487b71000000000000000000000000000000000000000000000000000000005f52601160045260245ffd5b5f61102f82610cf2565b915061103a83610cf2565b925082820190508082111561105257611051610ff8565b5b9291505056fea2646970667358221220835243b8fcf5fe7ce1899e56da876d102f41932d7d0a474f4767bd9fa946e01964736f6c634300081e0033",
  "linkReferences": {},
  "deployedLinkReferences": {},
  "immutableReferences": {
    "25169": [
      {
        "length": 32,
        "start": 862
      }
    ]
  },
  "inputSourceName": "project/contracts/helper/MockERC20.sol",
  "buildInfoId": "solc-0_8_30-3a829844aa418378e61e279ddb57f9006f58923d"
}