{
  "_format": "hh3-artifact-1",
  "contractName": "MockStrategist",
  "sourceName": "contracts/helper/MockStrategist.sol",
  "abi": [
    {
      "inputs": [],
      "stateMutability": "nonpayable",
      "type": "constructor"
    },
    {
      "inputs": [
        {
          "internalType": "address",
          "name": "asset",
          "type": "address"
        },
        {
          "internalType": "uint256",
          "name": "amount",
          "type": "uint256"
        }
      ],
      "name": "deposit",
      "outputs": [],
      "stateMutability": "nonpayable",
      "type": "function"
    },
    {
      "inputs": [
        {
          "internalType": "address",
          "name": "asset",
          "type": "address"
        },
        {
          "internalType": "uint256",
          "name": "amount",
          "type": "uint256"
        },
        {
          "internalType": "address",
          "name": "to",
          "type": "address"
        }
      ],
      "name": "withdraw",
      "outputs": [],
      "stateMutability": "nonpayable",
      "type": "function"
    }
  ],
  "bytecode": "0x6080604052348015600e575f5ffd5b50610b528061001c5f395ff3fe608060405234801561000f575f5ffd5b5060043610610034575f3560e01c806347e7ef241461003857806369328dec14610054575b5f5ffd5b610052600480360381019061004d919061082f565b610070565b005b61006e6004803603810190610069919061086d565b610213565b005b6100ae6040518060400160405280601e81526020017f4d6f636b537472617465676973743a206465706f7369742063616c6c656400008152506103f4565b6100ed6040518060400160405280600881526020017f202061737365743a0000000000000000000000000000000000000000000000008152508361048d565b61012c6040518060400160405280600981526020017f2020616d6f756e743a000000000000000000000000000000000000000000000081525082610529565b6101e26040518060400160405280600a81526020017f202062616c616e63653a000000000000000000000000000000000000000000008152508373ffffffffffffffffffffffffffffffffffffffff166370a08231306040518263ffffffff1660e01b815260040161019e91906108cc565b602060405180830381865afa1580156101b9573d5f5f3e3d5ffd5b505050506040513d601f19601f820116820180604052508101906101dd91906108f9565b610529565b61020f3330838573ffffffffffffffffffffffffffffffffffffffff166105c5909392919063ffffffff16565b5050565b6102516040518060400160405280601f81526020017f4d6f636b537472617465676973743a2077697468647261772063616c6c6564008152506103f4565b6102906040518060400160405280600881526020017f202061737365743a0000000000000000000000000000000000000000000000008152508461048d565b6102cf6040518060400160405280600981526020017f2020616d6f756e743a000000000000000000000000000000000000000000000081525083610529565b61030e6040518060400160405280600581526020017f2020746f3a0000000000000000000000000000000000000000000000000000008152508261048d565b6103c46040518060400160405280600a81526020017f202062616c616e63653a000000000000000000000000000000000000000000008152508473ffffffffffffffffffffffffffffffffffffffff166370a08231306040518263ffffffff1660e01b815260040161038091906108cc565b602060405180830381865afa15801561039b573d5f5f3e3d5ffd5b505050506040513d601f19601f820116820180604052508101906103bf91906108f9565b610529565b6103ef81838573ffffffffffffffffffffffffffffffffffffffff166106999092919063ffffffff16565b505050565b61048a816040516024016104089190610994565b6040516020818303038152906040527f41304fac000000000000000000000000000000000000000000000000000000007bffffffffffffffffffffffffffffffffffffffffffffffffffffffff19166020820180517bffffffffffffffffffffffffffffffffffffffffffffffffffffffff8381831617835250505050610750565b50565b61052582826040516024016104a39291906109b4565b6040516020818303038152906040527f319af333000000000000000000000000000000000000000000000000000000007bffffffffffffffffffffffffffffffffffffffffffffffffffffffff19166020820180517bffffffffffffffffffffffffffffffffffffffffffffffffffffffff8381831617835250505050610750565b5050565b6105c1828260405160240161053f9291906109f1565b6040516020818303038152906040527fb60e72cc000000000000000000000000000000000000000000000000000000007bffffffffffffffffffffffffffffffffffffffffffffffffffffffff19166020820180517bffffffffffffffffffffffffffffffffffffffffffffffffffffffff8381831617835250505050610750565b5050565b5f6040517f23b872dd00000000000000000000000000000000000000000000000000000000815273ffffffffffffffffffffffffffffffffffffffff8516600482015273ffffffffffffffffffffffffffffffffffffffff8416602482015282604482015260205f6064835f8a5af1915081601f3d1160015f511416151615610651573d863b15171591505b5080610692576040517f08c379a000000000000000000000000000000000000000000000000000000000815260040161068990610a69565b60405180910390fd5b5050505050565b5f6040517fa9059cbb00000000000000000000000000000000000000000000000000000000815273ffffffffffffffffffffffffffffffffffffffff8416600482015282602482015260205f6044835f895af1915081601f3d1160015f511416151615610709573d853b15171591505b508061074a576040517f08c379a000000000000000000000000000000000000000000000000000000000815260040161074190610ad1565b60405180910390fd5b50505050565b6107678161075f61076a610789565b63ffffffff16565b50565b5f6a636f6e736f6c652e6c6f6790505f5f835160208501845afa505050565b610794819050919050565b61079c610aef565b565b5f5ffd5b5f73ffffffffffffffffffffffffffffffffffffffff82169050919050565b5f6107cb826107a2565b9050919050565b6107db816107c1565b81146107e5575f5ffd5b50565b5f813590506107f6816107d2565b92915050565b5f819050919050565b61080e816107fc565b8114610818575f5ffd5b50565b5f8135905061082981610805565b92915050565b5f5f604083850312156108455761084461079e565b5b5f610852858286016107e8565b92505060206108638582860161081b565b9150509250929050565b5f5f5f606084860312156108845761088361079e565b5b5f610891868287016107e8565b93505060206108a28682870161081b565b92505060406108b3868287016107e8565b9150509250925092565b6108c6816107c1565b82525050565b5f6020820190506108df5f8301846108bd565b92915050565b5f815190506108f381610805565b92915050565b5f6020828403121561090e5761090d61079e565b5b5f61091b848285016108e5565b91505092915050565b5f81519050919050565b5f82825260208201905092915050565b8281835e5f83830152505050565b5f601f19601f8301169050919050565b5f61096682610924565b610970818561092e565b935061098081856020860161093e565b6109898161094c565b840191505092915050565b5f6020820190508181035f8301526109ac818461095c565b905092915050565b5f6040820190508181035f8301526109cc818561095c565b90506109db60208301846108bd565b9392505050565b6109eb816107fc565b82525050565b5f6040820190508181035f830152610a09818561095c565b9050610a1860208301846109e2565b9392505050565b7f5452414e534645525f46524f4d5f4641494c45440000000000000000000000005f82015250565b5f610a5360148361092e565b9150610a5e82610a1f565b602082019050919050565b5f6020820190508181035f830152610a8081610a47565b9050919050565b7f5452414e534645525f4641494c454400000000000000000000000000000000005f82015250565b5f610abb600f8361092e565b9150610ac682610a87565b602082019050919050565b5f6020820190508181035f830152610ae881610aaf565b9050919050565b7f4e487b71000000000000000000000000000000000000000000000000000000005f52605160045260245ffdfea2646970667358221220eff85b24e83ffe98244931a16e8ca5e76e3540fe9afa7c9a9fbb186582c6ff3d64736f6c634300081e0033",
  "linkReferences": {},
  "deployedLinkReferences": {},
  "immutableReferences": {},
  "inputSourceName": "project/contracts/helper/MockStrategist.sol",
  "buildInfoId": "solc-0_8_30-3a829844aa418378e61e279ddb57f9006f58923d"
}