{
  "_format": "hh3-artifact-1",
  "contractName": "PrimeRegistry",
  "sourceName": "contracts/core/PrimeRegistry.sol",
  "abi": [
    {
      "inputs": [
        {
          "internalType": "address",
          "name": "_primeRBAC",
          "type": "address"
        }
      ],
      "stateMutability": "nonpayable",
      "type": "constructor"
    },
    {
      "inputs": [],
      "name": "NOT_PROTOCOL_ADMIN",
      "type": "error"
    },
    {
      "inputs": [],
      "name": "PrimeRegistry__AccountantNotRegistered",
      "type": "error"
    },
    {
      "inputs": [],
      "name": "PrimeRegistry__InvalidAuthority",
      "type": "error"
    },
    {
      "inputs": [],
      "name": "PrimeRegistry__TellerNotRegistered",
      "type": "error"
    },
    {
      "inputs": [],
      "name": "PrimeRegistry__WithdrawerNotRegistered",
      "type": "error"
    },
    {
      "inputs": [],
      "name": "PrimeRegistry__ZeroAddress",
      "type": "error"
    },
    {
      "inputs": [],
      "name": "ZERO_ADDRESS",
      "type": "error"
    },
    {
      "anonymous": false,
      "inputs": [
        {
          "indexed": true,
          "internalType": "address",
          "name": "accountant",
          "type": "address"
        },
        {
          "indexed": true,
          "internalType": "address",
          "name": "vault",
          "type": "address"
        }
      ],
      "name": "AccountantRegistered",
      "type": "event"
    },
    {
      "anonymous": false,
      "inputs": [
        {
          "indexed": true,
          "internalType": "address",
          "name": "user",
          "type": "address"
        },
        {
          "indexed": true,
          "internalType": "contract Authority",
          "name": "newAuthority",
          "type": "address"
        }
      ],
      "name": "AuthorityUpdated",
      "type": "event"
    },
    {
      "anonymous": false,
      "inputs": [
        {
          "indexed": true,
          "internalType": "address",
          "name": "manager",
          "type": "address"
        },
        {
          "indexed": true,
          "internalType": "address",
          "name": "vault",
          "type": "address"
        }
      ],
      "name": "ManagerRegistered",
      "type": "event"
    },
    {
      "anonymous": false,
      "inputs": [
        {
          "indexed": true,
          "internalType": "address",
          "name": "user",
          "type": "address"
        },
        {
          "indexed": true,
          "internalType": "address",
          "name": "newOwner",
          "type": "address"
        }
      ],
      "name": "OwnershipTransferred",
      "type": "event"
    },
    {
      "anonymous": false,
      "inputs": [
        {
          "indexed": true,
          "internalType": "address",
          "name": "teller",
          "type": "address"
        },
        {
          "indexed": true,
          "internalType": "address",
          "name": "vault",
          "type": "address"
        }
      ],
      "name": "TellerRegistered",
      "type": "event"
    },
    {
      "anonymous": false,
      "inputs": [
        {
          "indexed": true,
          "internalType": "address",
          "name": "vault",
          "type": "address"
        },
        {
          "indexed": true,
          "internalType": "address",
          "name": "asset",
          "type": "address"
        },
        {
          "indexed": true,
          "internalType": "address",
          "name": "rolesAuthority",
          "type": "address"
        }
      ],
      "name": "VaultCreated",
      "type": "event"
    },
    {
      "anonymous": false,
      "inputs": [
        {
          "indexed": true,
          "internalType": "address",
          "name": "withdrawer",
          "type": "address"
        },
        {
          "indexed": true,
          "internalType": "address",
          "name": "vault",
          "type": "address"
        }
      ],
      "name": "WithdrawerRegistered",
      "type": "event"
    },
    {
      "inputs": [],
      "name": "ADMIN_ROLE",
      "outputs": [
        {
          "internalType": "uint8",
          "name": "",
          "type": "uint8"
        }
      ],
      "stateMutability": "view",
      "type": "function"
    },
    {
      "inputs": [],
      "name": "BORING_VAULT_ROLE",
      "outputs": [
        {
          "internalType": "uint8",
          "name": "",
          "type": "uint8"
        }
      ],
      "stateMutability": "view",
      "type": "function"
    },
    {
      "inputs": [],
      "name": "BURNER_ROLE",
      "outputs": [
        {
          "internalType": "uint8",
          "name": "",
          "type": "uint8"
        }
      ],
      "stateMutability": "view",
      "type": "function"
    },
    {
      "inputs": [],
      "name": "CAN_SOLVE_ROLE",
      "outputs": [
        {
          "internalType": "uint8",
          "name": "",
          "type": "uint8"
        }
      ],
      "stateMutability": "view",
      "type": "function"
    },
    {
      "inputs": [],
      "name": "MANAGER_ROLE",
      "outputs": [
        {
          "internalType": "uint8",
          "name": "",
          "type": "uint8"
        }
      ],
      "stateMutability": "view",
      "type": "function"
    },
    {
      "inputs": [],
      "name": "MINTER_ROLE",
      "outputs": [
        {
          "internalType": "uint8",
          "name": "",
          "type": "uint8"
        }
      ],
      "stateMutability": "view",
      "type": "function"
    },
    {
      "inputs": [],
      "name": "QUEUE_ROLE",
      "outputs": [
        {
          "internalType": "uint8",
          "name": "",
          "type": "uint8"
        }
      ],
      "stateMutability": "view",
      "type": "function"
    },
    {
      "inputs": [],
      "name": "SOLVER_ROLE",
      "outputs": [
        {
          "internalType": "uint8",
          "name": "",
          "type": "uint8"
        }
      ],
      "stateMutability": "view",
      "type": "function"
    },
    {
      "inputs": [],
      "name": "STRATEGIST_ROLE",
      "outputs": [
        {
          "internalType": "uint8",
          "name": "",
          "type": "uint8"
        }
      ],
      "stateMutability": "view",
      "type": "function"
    },
    {
      "inputs": [],
      "name": "authority",
      "outputs": [
        {
          "internalType": "contract Authority",
          "name": "",
          "type": "address"
        }
      ],
      "stateMutability": "view",
      "type": "function"
    },
    {
      "inputs": [],
      "name": "getVaults",
      "outputs": [
        {
          "components": [
            {
              "internalType": "address",
              "name": "vault",
              "type": "address"
            },
            {
              "internalType": "address",
              "name": "accountant",
              "type": "address"
            },
            {
              "internalType": "address",
              "name": "teller",
              "type": "address"
            },
            {
              "internalType": "address",
              "name": "manager",
              "type": "address"
            },
            {
              "internalType": "address",
              "name": "withdrawer",
              "type": "address"
            }
          ],
          "internalType": "struct PrimeRegistry.VaultComponents[]",
          "name": "components",
          "type": "tuple[]"
        }
      ],
      "stateMutability": "view",
      "type": "function"
    },
    {
      "inputs": [
        {
          "internalType": "address",
          "name": "strategist",
          "type": "address"
        },
        {
          "internalType": "contract BoringVault",
          "name": "vault",
          "type": "address"
        }
      ],
      "name": "grantStrategistRole",
      "outputs": [],
      "stateMutability": "nonpayable",
      "type": "function"
    },
    {
      "inputs": [],
      "name": "owner",
      "outputs": [
        {
          "internalType": "address",
          "name": "",
          "type": "address"
        }
      ],
      "stateMutability": "view",
      "type": "function"
    },
    {
      "inputs": [],
      "name": "primeRBAC",
      "outputs": [
        {
          "internalType": "contract IPrimeRBAC",
          "name": "",
          "type": "address"
        }
      ],
      "stateMutability": "view",
      "type": "function"
    },
    {
      "inputs": [
        {
          "internalType": "contract AccountantWithYieldStreaming",
          "name": "accountant",
          "type": "address"
        }
      ],
      "name": "registerAccountant",
      "outputs": [],
      "stateMutability": "nonpayable",
      "type": "function"
    },
    {
      "inputs": [
        {
          "internalType": "contract ManagerWithMerkleVerification",
          "name": "manager",
          "type": "address"
        }
      ],
      "name": "registerManager",
      "outputs": [],
      "stateMutability": "nonpayable",
      "type": "function"
    },
    {
      "inputs": [
        {
          "internalType": "contract TellerWithYieldStreaming",
          "name": "teller",
          "type": "address"
        }
      ],
      "name": "registerTeller",
      "outputs": [],
      "stateMutability": "nonpayable",
      "type": "function"
    },
    {
      "inputs": [
        {
          "internalType": "contract BoringVault",
          "name": "vault",
          "type": "address"
        }
      ],
      "name": "registerVault",
      "outputs": [],
      "stateMutability": "nonpayable",
      "type": "function"
    },
    {
      "inputs": [
        {
          "internalType": "contract DelayedWithdraw",
          "name": "withdrawer",
          "type": "address"
        }
      ],
      "name": "registerWithdrawer",
      "outputs": [],
      "stateMutability": "nonpayable",
      "type": "function"
    },
    {
      "inputs": [
        {
          "internalType": "contract Authority",
          "name": "newAuthority",
          "type": "address"
        }
      ],
      "name": "setAuthority",
      "outputs": [],
      "stateMutability": "nonpayable",
      "type": "function"
    },
    {
      "inputs": [
        {
          "internalType": "address",
          "name": "newOwner",
          "type": "address"
        }
      ],
      "name": "transferOwnership",
      "outputs": [],
      "stateMutability": "nonpayable",
      "type": "function"
    },
    {
      "inputs": [
        {
          "internalType": "uint256",
          "name": "",
          "type": "uint256"
        }
      ],
      "name": "vaultList",
      "outputs": [
        {
          "internalType": "address",
          "name": "",
          "type": "address"
        }
      ],
      "stateMutability": "view",
      "type": "function"
    },
    {
      "inputs": [
        {
          "internalType": "address",
          "name": "",
          "type": "address"
        }
      ],
      "name": "vaults",
      "outputs": [
        {
          "internalType": "address",
          "name": "vault",
          "type": "address"
        },
        {
          "internalType": "address",
          "name": "accountant",
          "type": "address"
        },
        {
          "internalType": "address",
          "name": "teller",
          "type": "address"
        },
        {
          "internalType": "address",
          "name": "manager",
          "type": "address"
        },
        {
          "internalType": "address",
          "name": "withdrawer",
          "type": "address"
        }
      ],
      "stateMutability": "view",
      "type": "function"
    }
  ],
  "bytecode": "0x608060405234801561000f575f5ffd5b5060405161369938038061369983398181016040528101906100319190610275565b805f3381815f5f6101000a81548173ffffffffffffffffffffffffffffffffffffffff021916908373ffffffffffffffffffffffffffffffffffffffff1602179055508060015f6101000a81548173ffffffffffffffffffffffffffffffffffffffff021916908373ffffffffffffffffffffffffffffffffffffffff1602179055508173ffffffffffffffffffffffffffffffffffffffff163373ffffffffffffffffffffffffffffffffffffffff167f8be0079c531659141344cd1fd0a4f28419497f9722a3daafe3b4186f6b6457e060405160405180910390a38073ffffffffffffffffffffffffffffffffffffffff163373ffffffffffffffffffffffffffffffffffffffff167fa3396fd7f6e0a21b50e5089d2da70d5ac0a3bbbd1f617a93f134b7638998019860405160405180910390a350505f73ffffffffffffffffffffffffffffffffffffffff168273ffffffffffffffffffffffffffffffffffffffff16036101cf576040517f538ba4f900000000000000000000000000000000000000000000000000000000815260040160405180910390fd5b8160025f6101000a81548173ffffffffffffffffffffffffffffffffffffffff021916908373ffffffffffffffffffffffffffffffffffffffff1602179055505050506102a0565b5f5ffd5b5f73ffffffffffffffffffffffffffffffffffffffff82169050919050565b5f6102448261021b565b9050919050565b6102548161023a565b811461025e575f5ffd5b50565b5f8151905061026f8161024b565b92915050565b5f6020828403121561028a57610289610217565b5b5f61029784828501610261565b91505092915050565b6133ec806102ad5f395ff3fe608060405234801561000f575f5ffd5b506004361061014b575f3560e01c80637a9e5e4b116100c1578063bf7e214f1161007a578063bf7e214f14610369578063d539139314610387578063e37d7e68146103a5578063ebd0bc50146103c3578063ec87621c146103df578063f2fde38b146103fd5761014b565b80637a9e5e4b146102a35780638da5cb5b146102bf578063a218351b146102dd578063a3539f5e146102f9578063a378a32414610317578063a622ee7c146103355761014b565b80635abe4c58116101135780635abe4c58146101f55780635c48a3421461021157806367ccd1cb1461022f5780636dfcc4a51461024b578063702339d91461026757806375b238fc146102855761014b565b8063282c51f31461014f5780632b2da97e1461016d5780632d8efbc51461018957806340b0b4de146101b957806344d00f82146101d7575b5f5ffd5b610157610419565b6040516101649190612a5f565b60405180910390f35b61018760048036038101906101829190612ae7565b61041e565b005b6101a3600480360381019061019e9190612b45565b610810565b6040516101b09190612b7f565b60405180910390f35b6101c161084b565b6040516101ce9190612a5f565b60405180910390f35b6101df610850565b6040516101ec9190612cb5565b60405180910390f35b61020f600480360381019061020a9190612d10565b610b19565b005b6102196112f1565b6040516102269190612a5f565b60405180910390f35b61024960048036038101906102449190612d87565b6112f6565b005b61026560048036038101906102609190612ded565b611838565b005b61026f611d64565b60405161027c9190612a5f565b60405180910390f35b61028d611d69565b60405161029a9190612a5f565b60405180910390f35b6102bd60048036038101906102b89190612e53565b611d6e565b005b6102c7611f29565b6040516102d49190612b7f565b60405180910390f35b6102f760048036038101906102f29190612eb9565b611f4d565b005b61030161248b565b60405161030e9190612a5f565b60405180910390f35b61031f612490565b60405161032c9190612a5f565b60405180910390f35b61034f600480360381019061034a9190612f0e565b612495565b604051610360959493929190612f39565b60405180910390f35b610371612562565b60405161037e9190612fe5565b60405180910390f35b61038f612587565b60405161039c9190612a5f565b60405180910390f35b6103ad61258c565b6040516103ba919061301e565b60405180910390f35b6103dd60048036038101906103d89190613037565b6125b1565b005b6103e7612766565b6040516103f49190612a5f565b60405180910390f35b61041760048036038101906104129190612f0e565b61276b565b005b600881565b60025f9054906101000a900473ffffffffffffffffffffffffffffffffffffffff1673ffffffffffffffffffffffffffffffffffffffff1663d35911f2336040518263ffffffff1660e01b81526004016104789190612b7f565b602060405180830381865afa158015610493573d5f5f3e3d5ffd5b505050506040513d601f19601f820116820180604052508101906104b791906130aa565b6104ed576040517fdc85555400000000000000000000000000000000000000000000000000000000815260040160405180910390fd5b5f8173ffffffffffffffffffffffffffffffffffffffff1663bf7e214f6040518163ffffffff1660e01b8152600401602060405180830381865afa158015610537573d5f5f3e3d5ffd5b505050506040513d601f19601f8201168201806040525081019061055b91906130e9565b90505f8190508073ffffffffffffffffffffffffffffffffffffffff16637d40583d6007857f2aaeb1876b7ea1ab1a5581ca4bd0045761ef7abae3f6677a8e8d8ffd6119a34a60016040518563ffffffff1660e01b81526004016105c2949392919061315d565b5f604051808303815f87803b1580156105d9575f5ffd5b505af11580156105eb573d5f5f3e3d5ffd5b505050508073ffffffffffffffffffffffffffffffffffffffff166367aff48484600260016040518463ffffffff1660e01b815260040161062e939291906131a0565b5f604051808303815f87803b158015610645575f5ffd5b505af1158015610657573d5f5f3e3d5ffd5b505050508260035f8573ffffffffffffffffffffffffffffffffffffffff1663fbfa77cf6040518163ffffffff1660e01b8152600401602060405180830381865afa1580156106a8573d5f5f3e3d5ffd5b505050506040513d601f19601f820116820180604052508101906106cc91906131e9565b73ffffffffffffffffffffffffffffffffffffffff1673ffffffffffffffffffffffffffffffffffffffff1681526020019081526020015f206003015f6101000a81548173ffffffffffffffffffffffffffffffffffffffff021916908373ffffffffffffffffffffffffffffffffffffffff1602179055508273ffffffffffffffffffffffffffffffffffffffff1663fbfa77cf6040518163ffffffff1660e01b8152600401602060405180830381865afa15801561078e573d5f5f3e3d5ffd5b505050506040513d601f19601f820116820180604052508101906107b291906131e9565b73ffffffffffffffffffffffffffffffffffffffff168373ffffffffffffffffffffffffffffffffffffffff167f8fc18cc172f74c81235145b7927190d2bd0e351fc45bfb17bb572593273cef2160405160405180910390a3505050565b6004818154811061081f575f80fd5b905f5260205f20015f915054906101000a900473ffffffffffffffffffffffffffffffffffffffff1681565b600a81565b60605f60048054905090508067ffffffffffffffff81111561087557610874613214565b5b6040519080825280602002602001820160405280156108ae57816020015b61089b6129ac565b8152602001906001900390816108935790505b5091505f5f90505b81811015610b145760035f600483815481106108d5576108d4613241565b5b905f5260205f20015f9054906101000a900473ffffffffffffffffffffffffffffffffffffffff1673ffffffffffffffffffffffffffffffffffffffff1673ffffffffffffffffffffffffffffffffffffffff1681526020019081526020015f206040518060a00160405290815f82015f9054906101000a900473ffffffffffffffffffffffffffffffffffffffff1673ffffffffffffffffffffffffffffffffffffffff1673ffffffffffffffffffffffffffffffffffffffff168152602001600182015f9054906101000a900473ffffffffffffffffffffffffffffffffffffffff1673ffffffffffffffffffffffffffffffffffffffff1673ffffffffffffffffffffffffffffffffffffffff168152602001600282015f9054906101000a900473ffffffffffffffffffffffffffffffffffffffff1673ffffffffffffffffffffffffffffffffffffffff1673ffffffffffffffffffffffffffffffffffffffff168152602001600382015f9054906101000a900473ffffffffffffffffffffffffffffffffffffffff1673ffffffffffffffffffffffffffffffffffffffff1673ffffffffffffffffffffffffffffffffffffffff168152602001600482015f9054906101000a900473ffffffffffffffffffffffffffffffffffffffff1673ffffffffffffffffffffffffffffffffffffffff1673ffffffffffffffffffffffffffffffffffffffff1681525050838281518110610afc57610afb613241565b5b602002602001018190525080806001019150506108b6565b505090565b60025f9054906101000a900473ffffffffffffffffffffffffffffffffffffffff1673ffffffffffffffffffffffffffffffffffffffff1663d35911f2336040518263ffffffff1660e01b8152600401610b739190612b7f565b602060405180830381865afa158015610b8e573d5f5f3e3d5ffd5b505050506040513d601f19601f82011682018060405250810190610bb291906130aa565b610be8576040517fdc85555400000000000000000000000000000000000000000000000000000000815260040160405180910390fd5b5f8173ffffffffffffffffffffffffffffffffffffffff1663bf7e214f6040518163ffffffff1660e01b8152600401602060405180830381865afa158015610c32573d5f5f3e3d5ffd5b505050506040513d601f19601f82011682018060405250810190610c5691906130e9565b90505f8190508073ffffffffffffffffffffffffffffffffffffffff1663c6b0263e84638dbdbe6d60e01b60016040518463ffffffff1660e01b8152600401610ca19392919061326e565b5f604051808303815f87803b158015610cb8575f5ffd5b505af1158015610cca573d5f5f3e3d5ffd5b505050508073ffffffffffffffffffffffffffffffffffffffff16637d40583d60038563a316f21b60e01b60016040518563ffffffff1660e01b8152600401610d16949392919061315d565b5f604051808303815f87803b158015610d2d575f5ffd5b505af1158015610d3f573d5f5f3e3d5ffd5b505050508073ffffffffffffffffffffffffffffffffffffffff16637d40583d600885630ad58d2f60e01b60016040518563ffffffff1660e01b8152600401610d8b949392919061315d565b5f604051808303815f87803b158015610da2575f5ffd5b505af1158015610db4573d5f5f3e3d5ffd5b505050508073ffffffffffffffffffffffffffffffffffffffff16637d40583d60088563657ae3f160e01b60016040518563ffffffff1660e01b8152600401610e00949392919061315d565b5f604051808303815f87803b158015610e17575f5ffd5b505af1158015610e29573d5f5f3e3d5ffd5b505050508073ffffffffffffffffffffffffffffffffffffffff16637d40583d60028563088c644d60e01b60016040518563ffffffff1660e01b8152600401610e75949392919061315d565b5f604051808303815f87803b158015610e8c575f5ffd5b505af1158015610e9e573d5f5f3e3d5ffd5b505050508073ffffffffffffffffffffffffffffffffffffffff16637d40583d600285634c3bde4260e01b60016040518563ffffffff1660e01b8152600401610eea949392919061315d565b5f604051808303815f87803b158015610f01575f5ffd5b505af1158015610f13573d5f5f3e3d5ffd5b505050508073ffffffffffffffffffffffffffffffffffffffff16637d40583d600285639300003a60e01b60016040518563ffffffff1660e01b8152600401610f5f949392919061315d565b5f604051808303815f87803b158015610f76575f5ffd5b505af1158015610f88573d5f5f3e3d5ffd5b505050508073ffffffffffffffffffffffffffffffffffffffff166367aff48484600360016040518463ffffffff1660e01b8152600401610fcb939291906131a0565b5f604051808303815f87803b158015610fe2575f5ffd5b505af1158015610ff4573d5f5f3e3d5ffd5b505050508073ffffffffffffffffffffffffffffffffffffffff166367aff48484600860016040518463ffffffff1660e01b8152600401611037939291906131a0565b5f604051808303815f87803b15801561104e575f5ffd5b505af1158015611060573d5f5f3e3d5ffd5b505050508073ffffffffffffffffffffffffffffffffffffffff166367aff48484600260016040518463ffffffff1660e01b81526004016110a3939291906131a0565b5f604051808303815f87803b1580156110ba575f5ffd5b505af11580156110cc573d5f5f3e3d5ffd5b505050508073ffffffffffffffffffffffffffffffffffffffff166367aff48484600760016040518463ffffffff1660e01b815260040161110f939291906131a0565b5f604051808303815f87803b158015611126575f5ffd5b505af1158015611138573d5f5f3e3d5ffd5b505050508260035f8573ffffffffffffffffffffffffffffffffffffffff1663fbfa77cf6040518163ffffffff1660e01b8152600401602060405180830381865afa158015611189573d5f5f3e3d5ffd5b505050506040513d601f19601f820116820180604052508101906111ad91906131e9565b73ffffffffffffffffffffffffffffffffffffffff1673ffffffffffffffffffffffffffffffffffffffff1681526020019081526020015f206002015f6101000a81548173ffffffffffffffffffffffffffffffffffffffff021916908373ffffffffffffffffffffffffffffffffffffffff1602179055508273ffffffffffffffffffffffffffffffffffffffff1663fbfa77cf6040518163ffffffff1660e01b8152600401602060405180830381865afa15801561126f573d5f5f3e3d5ffd5b505050506040513d601f19601f8201168201806040525081019061129391906131e9565b73ffffffffffffffffffffffffffffffffffffffff168373ffffffffffffffffffffffffffffffffffffffff167f6c6908583514a9aaafa43490a34a4401dd0fd913e2b7b6725d81d57f3abe841860405160405180910390a3505050565b600981565b60025f9054906101000a900473ffffffffffffffffffffffffffffffffffffffff1673ffffffffffffffffffffffffffffffffffffffff1663d35911f2336040518263ffffffff1660e01b81526004016113509190612b7f565b602060405180830381865afa15801561136b573d5f5f3e3d5ffd5b505050506040513d601f19601f8201168201806040525081019061138f91906130aa565b6113c5576040517fdc85555400000000000000000000000000000000000000000000000000000000815260040160405180910390fd5b5f8173ffffffffffffffffffffffffffffffffffffffff1663bf7e214f6040518163ffffffff1660e01b8152600401602060405180830381865afa15801561140f573d5f5f3e3d5ffd5b505050506040513d601f19601f8201168201806040525081019061143391906130e9565b90505f8190508073ffffffffffffffffffffffffffffffffffffffff16637d40583d60028563f6e715d060e01b60016040518563ffffffff1660e01b8152600401611481949392919061315d565b5f604051808303815f87803b158015611498575f5ffd5b505af11580156114aa573d5f5f3e3d5ffd5b505050508073ffffffffffffffffffffffffffffffffffffffff16637d40583d60028563366d7fe160e01b60016040518563ffffffff1660e01b81526004016114f6949392919061315d565b5f604051808303815f87803b15801561150d575f5ffd5b505af115801561151f573d5f5f3e3d5ffd5b505050508073ffffffffffffffffffffffffffffffffffffffff16637d40583d600385636baf8dbc60e01b60016040518563ffffffff1660e01b815260040161156b949392919061315d565b5f604051808303815f87803b158015611582575f5ffd5b505af1158015611594573d5f5f3e3d5ffd5b505050508073ffffffffffffffffffffffffffffffffffffffff16637d40583d6008856392f9323260e01b60016040518563ffffffff1660e01b81526004016115e0949392919061315d565b5f604051808303815f87803b1580156115f7575f5ffd5b505af1158015611609573d5f5f3e3d5ffd5b505050508073ffffffffffffffffffffffffffffffffffffffff166367aff48484600460016040518463ffffffff1660e01b815260040161164c939291906131a0565b5f604051808303815f87803b158015611663575f5ffd5b505af1158015611675573d5f5f3e3d5ffd5b50505050600483908060018154018082558091505060019003905f5260205f20015f9091909190916101000a81548173ffffffffffffffffffffffffffffffffffffffff021916908373ffffffffffffffffffffffffffffffffffffffff1602179055508260035f8573ffffffffffffffffffffffffffffffffffffffff1673ffffffffffffffffffffffffffffffffffffffff1681526020019081526020015f205f015f6101000a81548173ffffffffffffffffffffffffffffffffffffffff021916908373ffffffffffffffffffffffffffffffffffffffff1602179055508073ffffffffffffffffffffffffffffffffffffffff168373ffffffffffffffffffffffffffffffffffffffff166338d52e0f6040518163ffffffff1660e01b8152600401602060405180830381865afa1580156117b6573d5f5f3e3d5ffd5b505050506040513d601f19601f820116820180604052508101906117da91906132de565b73ffffffffffffffffffffffffffffffffffffffff168473ffffffffffffffffffffffffffffffffffffffff167f897c133dfbfe1f6239e98b4ffd7e4f6c86a62350a131a7a37790419f58af02f960405160405180910390a4505050565b60025f9054906101000a900473ffffffffffffffffffffffffffffffffffffffff1673ffffffffffffffffffffffffffffffffffffffff1663d35911f2336040518263ffffffff1660e01b81526004016118929190612b7f565b602060405180830381865afa1580156118ad573d5f5f3e3d5ffd5b505050506040513d601f19601f820116820180604052508101906118d191906130aa565b611907576040517fdc85555400000000000000000000000000000000000000000000000000000000815260040160405180910390fd5b5f8173ffffffffffffffffffffffffffffffffffffffff1663bf7e214f6040518163ffffffff1660e01b8152600401602060405180830381865afa158015611951573d5f5f3e3d5ffd5b505050506040513d601f19601f8201168201806040525081019061197591906130e9565b90505f8190508073ffffffffffffffffffffffffffffffffffffffff1663c6b0263e846384b7682460e01b60016040518463ffffffff1660e01b81526004016119c09392919061326e565b5f604051808303815f87803b1580156119d7575f5ffd5b505af11580156119e9573d5f5f3e3d5ffd5b505050508073ffffffffffffffffffffffffffffffffffffffff1663c6b0263e8463545312c060e01b60016040518463ffffffff1660e01b8152600401611a329392919061326e565b5f604051808303815f87803b158015611a49575f5ffd5b505af1158015611a5b573d5f5f3e3d5ffd5b505050508073ffffffffffffffffffffffffffffffffffffffff1663c6b0263e8463bf3b826b60e01b60016040518463ffffffff1660e01b8152600401611aa49392919061326e565b5f604051808303815f87803b158015611abb575f5ffd5b505af1158015611acd573d5f5f3e3d5ffd5b505050508073ffffffffffffffffffffffffffffffffffffffff1663c6b0263e8463ae172f0860e01b60016040518463ffffffff1660e01b8152600401611b169392919061326e565b5f604051808303815f87803b158015611b2d575f5ffd5b505af1158015611b3f573d5f5f3e3d5ffd5b505050508073ffffffffffffffffffffffffffffffffffffffff166367aff48484600860016040518463ffffffff1660e01b8152600401611b82939291906131a0565b5f604051808303815f87803b158015611b99575f5ffd5b505af1158015611bab573d5f5f3e3d5ffd5b505050508260035f8573ffffffffffffffffffffffffffffffffffffffff1663f3b977846040518163ffffffff1660e01b8152600401602060405180830381865afa158015611bfc573d5f5f3e3d5ffd5b505050506040513d601f19601f82011682018060405250810190611c2091906131e9565b73ffffffffffffffffffffffffffffffffffffffff1673ffffffffffffffffffffffffffffffffffffffff1681526020019081526020015f206004015f6101000a81548173ffffffffffffffffffffffffffffffffffffffff021916908373ffffffffffffffffffffffffffffffffffffffff1602179055508273ffffffffffffffffffffffffffffffffffffffff1663f3b977846040518163ffffffff1660e01b8152600401602060405180830381865afa158015611ce2573d5f5f3e3d5ffd5b505050506040513d601f19601f82011682018060405250810190611d0691906131e9565b73ffffffffffffffffffffffffffffffffffffffff168373ffffffffffffffffffffffffffffffffffffffff167f6fcc7908450856abe50f242afba0e65041d8f5a43e673d4ce02a7f5557b6c8dc60405160405180910390a3505050565b600481565b600181565b5f5f9054906101000a900473ffffffffffffffffffffffffffffffffffffffff1673ffffffffffffffffffffffffffffffffffffffff163373ffffffffffffffffffffffffffffffffffffffff161480611e84575060015f9054906101000a900473ffffffffffffffffffffffffffffffffffffffff1673ffffffffffffffffffffffffffffffffffffffff1663b700961333305f357fffffffff00000000000000000000000000000000000000000000000000000000166040518463ffffffff1660e01b8152600401611e4493929190613309565b602060405180830381865afa158015611e5f573d5f5f3e3d5ffd5b505050506040513d601f19601f82011682018060405250810190611e8391906130aa565b5b611e8c575f5ffd5b8060015f6101000a81548173ffffffffffffffffffffffffffffffffffffffff021916908373ffffffffffffffffffffffffffffffffffffffff1602179055508073ffffffffffffffffffffffffffffffffffffffff163373ffffffffffffffffffffffffffffffffffffffff167fa3396fd7f6e0a21b50e5089d2da70d5ac0a3bbbd1f617a93f134b7638998019860405160405180910390a350565b5f5f9054906101000a900473ffffffffffffffffffffffffffffffffffffffff1681565b60025f9054906101000a900473ffffffffffffffffffffffffffffffffffffffff1673ffffffffffffffffffffffffffffffffffffffff1663d35911f2336040518263ffffffff1660e01b8152600401611fa79190612b7f565b602060405180830381865afa158015611fc2573d5f5f3e3d5ffd5b505050506040513d601f19601f82011682018060405250810190611fe691906130aa565b61201c576040517fdc85555400000000000000000000000000000000000000000000000000000000815260040160405180910390fd5b5f8173ffffffffffffffffffffffffffffffffffffffff1663bf7e214f6040518163ffffffff1660e01b8152600401602060405180830381865afa158015612066573d5f5f3e3d5ffd5b505050506040513d601f19601f8201168201806040525081019061208a91906130e9565b90505f8190508073ffffffffffffffffffffffffffffffffffffffff16637d40583d600385634512deb760e01b60016040518563ffffffff1660e01b81526004016120d8949392919061315d565b5f604051808303815f87803b1580156120ef575f5ffd5b505af1158015612101573d5f5f3e3d5ffd5b505050508073ffffffffffffffffffffffffffffffffffffffff16637d40583d6007857f02ce728f3dfd50ef0e286830f4c6cf42b2a74d1f418687d2c51776ef089f72d560016040518563ffffffff1660e01b8152600401612166949392919061315d565b5f604051808303815f87803b15801561217d575f5ffd5b505af115801561218f573d5f5f3e3d5ffd5b505050508073ffffffffffffffffffffffffffffffffffffffff166367aff48484600360016040518463ffffffff1660e01b81526004016121d2939291906131a0565b5f604051808303815f87803b1580156121e9575f5ffd5b505af11580156121fb573d5f5f3e3d5ffd5b505050508073ffffffffffffffffffffffffffffffffffffffff166367aff484846001806040518463ffffffff1660e01b815260040161223d939291906131a0565b5f604051808303815f87803b158015612254575f5ffd5b505af1158015612266573d5f5f3e3d5ffd5b505050508073ffffffffffffffffffffffffffffffffffffffff166367aff48484600760016040518463ffffffff1660e01b81526004016122a9939291906131a0565b5f604051808303815f87803b1580156122c0575f5ffd5b505af11580156122d2573d5f5f3e3d5ffd5b505050508260035f8573ffffffffffffffffffffffffffffffffffffffff1663fbfa77cf6040518163ffffffff1660e01b8152600401602060405180830381865afa158015612323573d5f5f3e3d5ffd5b505050506040513d601f19601f8201168201806040525081019061234791906131e9565b73ffffffffffffffffffffffffffffffffffffffff1673ffffffffffffffffffffffffffffffffffffffff1681526020019081526020015f206001015f6101000a81548173ffffffffffffffffffffffffffffffffffffffff021916908373ffffffffffffffffffffffffffffffffffffffff1602179055508273ffffffffffffffffffffffffffffffffffffffff1663fbfa77cf6040518163ffffffff1660e01b8152600401602060405180830381865afa158015612409573d5f5f3e3d5ffd5b505050506040513d601f19601f8201168201806040525081019061242d91906131e9565b73ffffffffffffffffffffffffffffffffffffffff168373ffffffffffffffffffffffffffffffffffffffff167ff742282aa167afa02e36e50de1698a48985eef879c9041e1afbb8a98a5c795c060405160405180910390a3505050565b600b81565b600781565b6003602052805f5260405f205f91509050805f015f9054906101000a900473ffffffffffffffffffffffffffffffffffffffff1690806001015f9054906101000a900473ffffffffffffffffffffffffffffffffffffffff1690806002015f9054906101000a900473ffffffffffffffffffffffffffffffffffffffff1690806003015f9054906101000a900473ffffffffffffffffffffffffffffffffffffffff1690806004015f9054906101000a900473ffffffffffffffffffffffffffffffffffffffff16905085565b60015f9054906101000a900473ffffffffffffffffffffffffffffffffffffffff1681565b600381565b60025f9054906101000a900473ffffffffffffffffffffffffffffffffffffffff1681565b60025f9054906101000a900473ffffffffffffffffffffffffffffffffffffffff1673ffffffffffffffffffffffffffffffffffffffff1663d35911f2336040518263ffffffff1660e01b815260040161260b9190612b7f565b602060405180830381865afa158015612626573d5f5f3e3d5ffd5b505050506040513d601f19601f8201168201806040525081019061264a91906130aa565b612680576040517fdc85555400000000000000000000000000000000000000000000000000000000815260040160405180910390fd5b5f8173ffffffffffffffffffffffffffffffffffffffff1663bf7e214f6040518163ffffffff1660e01b8152600401602060405180830381865afa1580156126ca573d5f5f3e3d5ffd5b505050506040513d601f19601f820116820180604052508101906126ee91906130e9565b90505f8190508073ffffffffffffffffffffffffffffffffffffffff166367aff48485600760016040518463ffffffff1660e01b8152600401612733939291906131a0565b5f604051808303815f87803b15801561274a575f5ffd5b505af115801561275c573d5f5f3e3d5ffd5b5050505050505050565b600281565b612798335f357fffffffff0000000000000000000000000000000000000000000000000000000016612873565b6127d7576040517f08c379a00000000000000000000000000000000000000000000000000000000081526004016127ce90613398565b60405180910390fd5b805f5f6101000a81548173ffffffffffffffffffffffffffffffffffffffff021916908373ffffffffffffffffffffffffffffffffffffffff1602179055508073ffffffffffffffffffffffffffffffffffffffff163373ffffffffffffffffffffffffffffffffffffffff167f8be0079c531659141344cd1fd0a4f28419497f9722a3daafe3b4186f6b6457e060405160405180910390a350565b5f5f60015f9054906101000a900473ffffffffffffffffffffffffffffffffffffffff1690505f73ffffffffffffffffffffffffffffffffffffffff168173ffffffffffffffffffffffffffffffffffffffff161415801561294d57508073ffffffffffffffffffffffffffffffffffffffff1663b70096138530866040518463ffffffff1660e01b815260040161290d93929190613309565b602060405180830381865afa158015612928573d5f5f3e3d5ffd5b505050506040513d601f19601f8201168201806040525081019061294c91906130aa565b5b806129a357505f5f9054906101000a900473ffffffffffffffffffffffffffffffffffffffff1673ffffffffffffffffffffffffffffffffffffffff168473ffffffffffffffffffffffffffffffffffffffff16145b91505092915050565b6040518060a001604052805f73ffffffffffffffffffffffffffffffffffffffff1681526020015f73ffffffffffffffffffffffffffffffffffffffff1681526020015f73ffffffffffffffffffffffffffffffffffffffff1681526020015f73ffffffffffffffffffffffffffffffffffffffff1681526020015f73ffffffffffffffffffffffffffffffffffffffff1681525090565b5f60ff82169050919050565b612a5981612a44565b82525050565b5f602082019050612a725f830184612a50565b92915050565b5f5ffd5b5f73ffffffffffffffffffffffffffffffffffffffff82169050919050565b5f612aa582612a7c565b9050919050565b5f612ab682612a9b565b9050919050565b612ac681612aac565b8114612ad0575f5ffd5b50565b5f81359050612ae181612abd565b92915050565b5f60208284031215612afc57612afb612a78565b5b5f612b0984828501612ad3565b91505092915050565b5f819050919050565b612b2481612b12565b8114612b2e575f5ffd5b50565b5f81359050612b3f81612b1b565b92915050565b5f60208284031215612b5a57612b59612a78565b5b5f612b6784828501612b31565b91505092915050565b612b7981612a9b565b82525050565b5f602082019050612b925f830184612b70565b92915050565b5f81519050919050565b5f82825260208201905092915050565b5f819050602082019050919050565b612bca81612a9b565b82525050565b60a082015f820151612be45f850182612bc1565b506020820151612bf76020850182612bc1565b506040820151612c0a6040850182612bc1565b506060820151612c1d6060850182612bc1565b506080820151612c306080850182612bc1565b50505050565b5f612c418383612bd0565b60a08301905092915050565b5f602082019050919050565b5f612c6382612b98565b612c6d8185612ba2565b9350612c7883612bb2565b805f5b83811015612ca8578151612c8f8882612c36565b9750612c9a83612c4d565b925050600181019050612c7b565b5085935050505092915050565b5f6020820190508181035f830152612ccd8184612c59565b905092915050565b5f612cdf82612a9b565b9050919050565b612cef81612cd5565b8114612cf9575f5ffd5b50565b5f81359050612d0a81612ce6565b92915050565b5f60208284031215612d2557612d24612a78565b5b5f612d3284828501612cfc565b91505092915050565b5f612d4582612a7c565b9050919050565b5f612d5682612d3b565b9050919050565b612d6681612d4c565b8114612d70575f5ffd5b50565b5f81359050612d8181612d5d565b92915050565b5f60208284031215612d9c57612d9b612a78565b5b5f612da984828501612d73565b91505092915050565b5f612dbc82612a9b565b9050919050565b612dcc81612db2565b8114612dd6575f5ffd5b50565b5f81359050612de781612dc3565b92915050565b5f60208284031215612e0257612e01612a78565b5b5f612e0f84828501612dd9565b91505092915050565b5f612e2282612a9b565b9050919050565b612e3281612e18565b8114612e3c575f5ffd5b50565b5f81359050612e4d81612e29565b92915050565b5f60208284031215612e6857612e67612a78565b5b5f612e7584828501612e3f565b91505092915050565b5f612e8882612a9b565b9050919050565b612e9881612e7e565b8114612ea2575f5ffd5b50565b5f81359050612eb381612e8f565b92915050565b5f60208284031215612ece57612ecd612a78565b5b5f612edb84828501612ea5565b91505092915050565b612eed81612a9b565b8114612ef7575f5ffd5b50565b5f81359050612f0881612ee4565b92915050565b5f60208284031215612f2357612f22612a78565b5b5f612f3084828501612efa565b91505092915050565b5f60a082019050612f4c5f830188612b70565b612f596020830187612b70565b612f666040830186612b70565b612f736060830185612b70565b612f806080830184612b70565b9695505050505050565b5f819050919050565b5f612fad612fa8612fa384612a7c565b612f8a565b612a7c565b9050919050565b5f612fbe82612f93565b9050919050565b5f612fcf82612fb4565b9050919050565b612fdf81612fc5565b82525050565b5f602082019050612ff85f830184612fd6565b92915050565b5f61300882612fb4565b9050919050565b61301881612ffe565b82525050565b5f6020820190506130315f83018461300f565b92915050565b5f5f6040838503121561304d5761304c612a78565b5b5f61305a85828601612efa565b925050602061306b85828601612d73565b9150509250929050565b5f8115159050919050565b61308981613075565b8114613093575f5ffd5b50565b5f815190506130a481613080565b92915050565b5f602082840312156130bf576130be612a78565b5b5f6130cc84828501613096565b91505092915050565b5f815190506130e381612e29565b92915050565b5f602082840312156130fe576130fd612a78565b5b5f61310b848285016130d5565b91505092915050565b5f7fffffffff0000000000000000000000000000000000000000000000000000000082169050919050565b61314881613114565b82525050565b61315781613075565b82525050565b5f6080820190506131705f830187612a50565b61317d6020830186612b70565b61318a604083018561313f565b613197606083018461314e565b95945050505050565b5f6060820190506131b35f830186612b70565b6131c06020830185612a50565b6131cd604083018461314e565b949350505050565b5f815190506131e381612d5d565b92915050565b5f602082840312156131fe576131fd612a78565b5b5f61320b848285016131d5565b91505092915050565b7f4e487b71000000000000000000000000000000000000000000000000000000005f52604160045260245ffd5b7f4e487b71000000000000000000000000000000000000000000000000000000005f52603260045260245ffd5b5f6060820190506132815f830186612b70565b61328e602083018561313f565b61329b604083018461314e565b949350505050565b5f6132ad82612a9b565b9050919050565b6132bd816132a3565b81146132c7575f5ffd5b50565b5f815190506132d8816132b4565b92915050565b5f602082840312156132f3576132f2612a78565b5b5f613300848285016132ca565b91505092915050565b5f60608201905061331c5f830186612b70565b6133296020830185612b70565b613336604083018461313f565b949350505050565b5f82825260208201905092915050565b7f554e415554484f52495a454400000000000000000000000000000000000000005f82015250565b5f613382600c8361333e565b915061338d8261334e565b602082019050919050565b5f6020820190508181035f8301526133af81613376565b905091905056fea2646970667358221220ae761c206b721679974fece112a26c8d8838491f157df39b31a23f71f41516bb64736f6c634300081e0033",
  "linkReferences": {},
  "deployedLinkReferences": {},
  "immutableReferences": {},
  "inputSourceName": "project/contracts/core/PrimeRegistry.sol",
  "buildInfoId": "solc-0_8_30-b812b6f9c8de22d6d072c72da0837b4069544e24"
}