{
  "_format": "hh3-artifact-1",
  "contractName": "TellerWithYieldStreaming",
  "sourceName": "contracts/core/TellerWithYieldStreaming.sol",
  "abi": [
    {
      "inputs": [
        {
          "internalType": "address",
          "name": "_primeRBAC",
          "type": "address"
        },
        {
          "internalType": "address",
          "name": "_vault",
          "type": "address"
        },
        {
          "internalType": "address",
          "name": "_accountant",
          "type": "address"
        }
      ],
      "stateMutability": "nonpayable",
      "type": "constructor"
    },
    {
      "inputs": [],
      "name": "NOT_PROTOCOL_ADMIN",
      "type": "error"
    },
    {
      "inputs": [
        {
          "internalType": "contract IBufferHelper",
          "name": "bufferHelper",
          "type": "address"
        }
      ],
      "name": "TellerWithBuffer__BufferHelperNotAllowed",
      "type": "error"
    },
    {
      "inputs": [],
      "name": "TellerWithMultiAssetSupport__DepositExceedsCap",
      "type": "error"
    },
    {
      "inputs": [],
      "name": "TellerWithMultiAssetSupport__DepositsNotAllowed",
      "type": "error"
    },
    {
      "inputs": [],
      "name": "TellerWithMultiAssetSupport__DualDeposit",
      "type": "error"
    },
    {
      "inputs": [],
      "name": "TellerWithMultiAssetSupport__MinimumAssetsNotMet",
      "type": "error"
    },
    {
      "inputs": [],
      "name": "TellerWithMultiAssetSupport__MinimumMintNotMet",
      "type": "error"
    },
    {
      "inputs": [],
      "name": "TellerWithMultiAssetSupport__Paused",
      "type": "error"
    },
    {
      "inputs": [],
      "name": "TellerWithMultiAssetSupport__PermitFailedAndAllowanceTooLow",
      "type": "error"
    },
    {
      "inputs": [],
      "name": "TellerWithMultiAssetSupport__ShareLockPeriodTooLong",
      "type": "error"
    },
    {
      "inputs": [],
      "name": "TellerWithMultiAssetSupport__SharesAreLocked",
      "type": "error"
    },
    {
      "inputs": [
        {
          "internalType": "address",
          "name": "from",
          "type": "address"
        },
        {
          "internalType": "address",
          "name": "to",
          "type": "address"
        },
        {
          "internalType": "address",
          "name": "operator",
          "type": "address"
        }
      ],
      "name": "TellerWithMultiAssetSupport__TransferDenied",
      "type": "error"
    },
    {
      "inputs": [],
      "name": "TellerWithMultiAssetSupport__WithdrawsNotAllowed",
      "type": "error"
    },
    {
      "inputs": [],
      "name": "TellerWithMultiAssetSupport__ZeroAssets",
      "type": "error"
    },
    {
      "inputs": [],
      "name": "TellerWithMultiAssetSupport__ZeroShares",
      "type": "error"
    },
    {
      "inputs": [],
      "name": "ZERO_ADDRESS",
      "type": "error"
    },
    {
      "anonymous": false,
      "inputs": [
        {
          "indexed": true,
          "internalType": "address",
          "name": "user",
          "type": "address"
        }
      ],
      "name": "AllowFrom",
      "type": "event"
    },
    {
      "anonymous": false,
      "inputs": [
        {
          "indexed": true,
          "internalType": "address",
          "name": "user",
          "type": "address"
        }
      ],
      "name": "AllowOperator",
      "type": "event"
    },
    {
      "anonymous": false,
      "inputs": [
        {
          "indexed": true,
          "internalType": "address",
          "name": "operator",
          "type": "address"
        }
      ],
      "name": "AllowPermissionedOperator",
      "type": "event"
    },
    {
      "anonymous": false,
      "inputs": [
        {
          "indexed": true,
          "internalType": "address",
          "name": "user",
          "type": "address"
        }
      ],
      "name": "AllowTo",
      "type": "event"
    },
    {
      "anonymous": false,
      "inputs": [
        {
          "indexed": true,
          "internalType": "address",
          "name": "user",
          "type": "address"
        },
        {
          "indexed": true,
          "internalType": "contract Authority",
          "name": "newAuthority",
          "type": "address"
        }
      ],
      "name": "AuthorityUpdated",
      "type": "event"
    },
    {
      "anonymous": false,
      "inputs": [
        {
          "indexed": true,
          "internalType": "contract IBufferHelper",
          "name": "bufferHelper",
          "type": "address"
        }
      ],
      "name": "BufferHelperAllowed",
      "type": "event"
    },
    {
      "anonymous": false,
      "inputs": [
        {
          "indexed": true,
          "internalType": "contract IBufferHelper",
          "name": "bufferHelper",
          "type": "address"
        }
      ],
      "name": "BufferHelperDisallowed",
      "type": "event"
    },
    {
      "anonymous": false,
      "inputs": [
        {
          "indexed": true,
          "internalType": "address",
          "name": "asset",
          "type": "address"
        },
        {
          "indexed": false,
          "internalType": "uint256",
          "name": "depositAmount",
          "type": "uint256"
        }
      ],
      "name": "BulkDeposit",
      "type": "event"
    },
    {
      "anonymous": false,
      "inputs": [
        {
          "indexed": true,
          "internalType": "address",
          "name": "asset",
          "type": "address"
        },
        {
          "indexed": false,
          "internalType": "uint256",
          "name": "shareAmount",
          "type": "uint256"
        }
      ],
      "name": "BulkWithdraw",
      "type": "event"
    },
    {
      "anonymous": false,
      "inputs": [
        {
          "indexed": true,
          "internalType": "address",
          "name": "user",
          "type": "address"
        }
      ],
      "name": "DenyFrom",
      "type": "event"
    },
    {
      "anonymous": false,
      "inputs": [
        {
          "indexed": true,
          "internalType": "address",
          "name": "user",
          "type": "address"
        }
      ],
      "name": "DenyOperator",
      "type": "event"
    },
    {
      "anonymous": false,
      "inputs": [
        {
          "indexed": true,
          "internalType": "address",
          "name": "operator",
          "type": "address"
        }
      ],
      "name": "DenyPermissionedOperator",
      "type": "event"
    },
    {
      "anonymous": false,
      "inputs": [
        {
          "indexed": true,
          "internalType": "address",
          "name": "user",
          "type": "address"
        }
      ],
      "name": "DenyTo",
      "type": "event"
    },
    {
      "anonymous": false,
      "inputs": [
        {
          "indexed": false,
          "internalType": "uint256",
          "name": "nonce",
          "type": "uint256"
        },
        {
          "indexed": true,
          "internalType": "address",
          "name": "receiver",
          "type": "address"
        },
        {
          "indexed": false,
          "internalType": "uint256",
          "name": "depositAmount",
          "type": "uint256"
        },
        {
          "indexed": false,
          "internalType": "uint256",
          "name": "shareAmount",
          "type": "uint256"
        },
        {
          "indexed": false,
          "internalType": "uint256",
          "name": "depositTimestamp",
          "type": "uint256"
        },
        {
          "indexed": false,
          "internalType": "uint256",
          "name": "shareLockPeriodAtTimeOfDeposit",
          "type": "uint256"
        },
        {
          "indexed": true,
          "internalType": "address",
          "name": "referralAddress",
          "type": "address"
        }
      ],
      "name": "Deposit",
      "type": "event"
    },
    {
      "anonymous": false,
      "inputs": [
        {
          "indexed": true,
          "internalType": "contract IBufferHelper",
          "name": "newDepositBufferHelper",
          "type": "address"
        }
      ],
      "name": "DepositBufferHelperSet",
      "type": "event"
    },
    {
      "anonymous": false,
      "inputs": [
        {
          "indexed": false,
          "internalType": "uint112",
          "name": "cap",
          "type": "uint112"
        }
      ],
      "name": "DepositCapSet",
      "type": "event"
    },
    {
      "anonymous": false,
      "inputs": [
        {
          "indexed": false,
          "internalType": "bool",
          "name": "allowed",
          "type": "bool"
        }
      ],
      "name": "DepositsAllowed",
      "type": "event"
    },
    {
      "anonymous": false,
      "inputs": [
        {
          "indexed": true,
          "internalType": "address",
          "name": "user",
          "type": "address"
        },
        {
          "indexed": true,
          "internalType": "address",
          "name": "newOwner",
          "type": "address"
        }
      ],
      "name": "OwnershipTransferred",
      "type": "event"
    },
    {
      "anonymous": false,
      "inputs": [],
      "name": "Paused",
      "type": "event"
    },
    {
      "anonymous": false,
      "inputs": [
        {
          "indexed": false,
          "internalType": "bool",
          "name": "permissionedTransfers",
          "type": "bool"
        }
      ],
      "name": "PermissionedTransfersSet",
      "type": "event"
    },
    {
      "anonymous": false,
      "inputs": [],
      "name": "Unpaused",
      "type": "event"
    },
    {
      "anonymous": false,
      "inputs": [
        {
          "indexed": true,
          "internalType": "address",
          "name": "asset",
          "type": "address"
        },
        {
          "indexed": false,
          "internalType": "uint256",
          "name": "shareAmount",
          "type": "uint256"
        }
      ],
      "name": "Withdraw",
      "type": "event"
    },
    {
      "anonymous": false,
      "inputs": [
        {
          "indexed": true,
          "internalType": "contract IBufferHelper",
          "name": "newWithdrawBufferHelper",
          "type": "address"
        }
      ],
      "name": "WithdrawBufferHelperSet",
      "type": "event"
    },
    {
      "anonymous": false,
      "inputs": [
        {
          "indexed": false,
          "internalType": "bool",
          "name": "allowed",
          "type": "bool"
        }
      ],
      "name": "WithdrawsAllowed",
      "type": "event"
    },
    {
      "inputs": [],
      "name": "accountant",
      "outputs": [
        {
          "internalType": "contract AccountantWithRateProviders",
          "name": "",
          "type": "address"
        }
      ],
      "stateMutability": "view",
      "type": "function"
    },
    {
      "inputs": [
        {
          "internalType": "address",
          "name": "user",
          "type": "address"
        }
      ],
      "name": "allowAll",
      "outputs": [],
      "stateMutability": "nonpayable",
      "type": "function"
    },
    {
      "inputs": [
        {
          "internalType": "contract IBufferHelper",
          "name": "_bufferHelper",
          "type": "address"
        }
      ],
      "name": "allowBufferHelper",
      "outputs": [],
      "stateMutability": "nonpayable",
      "type": "function"
    },
    {
      "inputs": [
        {
          "internalType": "address",
          "name": "user",
          "type": "address"
        }
      ],
      "name": "allowFrom",
      "outputs": [],
      "stateMutability": "nonpayable",
      "type": "function"
    },
    {
      "inputs": [
        {
          "internalType": "address",
          "name": "user",
          "type": "address"
        }
      ],
      "name": "allowOperator",
      "outputs": [],
      "stateMutability": "nonpayable",
      "type": "function"
    },
    {
      "inputs": [
        {
          "internalType": "address",
          "name": "operator",
          "type": "address"
        }
      ],
      "name": "allowPermissionedOperator",
      "outputs": [],
      "stateMutability": "nonpayable",
      "type": "function"
    },
    {
      "inputs": [
        {
          "internalType": "address",
          "name": "user",
          "type": "address"
        }
      ],
      "name": "allowTo",
      "outputs": [],
      "stateMutability": "nonpayable",
      "type": "function"
    },
    {
      "inputs": [
        {
          "internalType": "contract IBufferHelper",
          "name": "",
          "type": "address"
        }
      ],
      "name": "allowedBufferHelpers",
      "outputs": [
        {
          "internalType": "bool",
          "name": "",
          "type": "bool"
        }
      ],
      "stateMutability": "view",
      "type": "function"
    },
    {
      "inputs": [],
      "name": "asset",
      "outputs": [
        {
          "internalType": "contract ERC20",
          "name": "",
          "type": "address"
        }
      ],
      "stateMutability": "view",
      "type": "function"
    },
    {
      "inputs": [],
      "name": "authority",
      "outputs": [
        {
          "internalType": "contract Authority",
          "name": "",
          "type": "address"
        }
      ],
      "stateMutability": "view",
      "type": "function"
    },
    {
      "inputs": [
        {
          "internalType": "address",
          "name": "",
          "type": "address"
        }
      ],
      "name": "beforeTransferData",
      "outputs": [
        {
          "internalType": "bool",
          "name": "denyFrom",
          "type": "bool"
        },
        {
          "internalType": "bool",
          "name": "denyTo",
          "type": "bool"
        },
        {
          "internalType": "bool",
          "name": "denyOperator",
          "type": "bool"
        },
        {
          "internalType": "bool",
          "name": "permissionedOperator",
          "type": "bool"
        },
        {
          "internalType": "uint256",
          "name": "shareUnlockTime",
          "type": "uint256"
        }
      ],
      "stateMutability": "view",
      "type": "function"
    },
    {
      "inputs": [
        {
          "internalType": "address",
          "name": "from",
          "type": "address"
        },
        {
          "internalType": "address",
          "name": "to",
          "type": "address"
        },
        {
          "internalType": "uint256",
          "name": "",
          "type": "uint256"
        },
        {
          "internalType": "address",
          "name": "operator",
          "type": "address"
        }
      ],
      "name": "beforeUpdate",
      "outputs": [],
      "stateMutability": "nonpayable",
      "type": "function"
    },
    {
      "inputs": [],
      "name": "bufferHelpers",
      "outputs": [
        {
          "internalType": "contract IBufferHelper",
          "name": "depositBufferHelper",
          "type": "address"
        },
        {
          "internalType": "contract IBufferHelper",
          "name": "withdrawBufferHelper",
          "type": "address"
        }
      ],
      "stateMutability": "view",
      "type": "function"
    },
    {
      "inputs": [
        {
          "internalType": "uint256",
          "name": "depositAmount",
          "type": "uint256"
        },
        {
          "internalType": "uint256",
          "name": "minimumMint",
          "type": "uint256"
        },
        {
          "internalType": "address",
          "name": "to",
          "type": "address"
        }
      ],
      "name": "bulkDeposit",
      "outputs": [
        {
          "internalType": "uint256",
          "name": "shares",
          "type": "uint256"
        }
      ],
      "stateMutability": "nonpayable",
      "type": "function"
    },
    {
      "inputs": [
        {
          "internalType": "uint256",
          "name": "shareAmount",
          "type": "uint256"
        },
        {
          "internalType": "uint256",
          "name": "minimumAssets",
          "type": "uint256"
        },
        {
          "internalType": "address",
          "name": "to",
          "type": "address"
        }
      ],
      "name": "bulkWithdraw",
      "outputs": [
        {
          "internalType": "uint256",
          "name": "assetsOut",
          "type": "uint256"
        }
      ],
      "stateMutability": "nonpayable",
      "type": "function"
    },
    {
      "inputs": [
        {
          "internalType": "address",
          "name": "user",
          "type": "address"
        }
      ],
      "name": "denyAll",
      "outputs": [],
      "stateMutability": "nonpayable",
      "type": "function"
    },
    {
      "inputs": [
        {
          "internalType": "address",
          "name": "user",
          "type": "address"
        }
      ],
      "name": "denyFrom",
      "outputs": [],
      "stateMutability": "nonpayable",
      "type": "function"
    },
    {
      "inputs": [
        {
          "internalType": "address",
          "name": "user",
          "type": "address"
        }
      ],
      "name": "denyOperator",
      "outputs": [],
      "stateMutability": "nonpayable",
      "type": "function"
    },
    {
      "inputs": [
        {
          "internalType": "address",
          "name": "operator",
          "type": "address"
        }
      ],
      "name": "denyPermissionedOperator",
      "outputs": [],
      "stateMutability": "nonpayable",
      "type": "function"
    },
    {
      "inputs": [
        {
          "internalType": "address",
          "name": "user",
          "type": "address"
        }
      ],
      "name": "denyTo",
      "outputs": [],
      "stateMutability": "nonpayable",
      "type": "function"
    },
    {
      "inputs": [
        {
          "internalType": "uint256",
          "name": "depositAmount",
          "type": "uint256"
        },
        {
          "internalType": "uint256",
          "name": "minimumMint",
          "type": "uint256"
        },
        {
          "internalType": "address",
          "name": "referralAddress",
          "type": "address"
        }
      ],
      "name": "deposit",
      "outputs": [
        {
          "internalType": "uint256",
          "name": "shares",
          "type": "uint256"
        }
      ],
      "stateMutability": "nonpayable",
      "type": "function"
    },
    {
      "inputs": [
        {
          "internalType": "uint256",
          "name": "depositAmount",
          "type": "uint256"
        },
        {
          "internalType": "uint256",
          "name": "minimumMint",
          "type": "uint256"
        },
        {
          "internalType": "uint256",
          "name": "deadline",
          "type": "uint256"
        },
        {
          "internalType": "uint8",
          "name": "v",
          "type": "uint8"
        },
        {
          "internalType": "bytes32",
          "name": "r",
          "type": "bytes32"
        },
        {
          "internalType": "bytes32",
          "name": "s",
          "type": "bytes32"
        },
        {
          "internalType": "address",
          "name": "referralAddress",
          "type": "address"
        }
      ],
      "name": "depositWithPermit",
      "outputs": [
        {
          "internalType": "uint256",
          "name": "shares",
          "type": "uint256"
        }
      ],
      "stateMutability": "nonpayable",
      "type": "function"
    },
    {
      "inputs": [
        {
          "internalType": "contract IBufferHelper",
          "name": "_bufferHelper",
          "type": "address"
        }
      ],
      "name": "disallowBufferHelper",
      "outputs": [],
      "stateMutability": "nonpayable",
      "type": "function"
    },
    {
      "inputs": [],
      "name": "distributor",
      "outputs": [
        {
          "internalType": "contract Distributor",
          "name": "",
          "type": "address"
        }
      ],
      "stateMutability": "view",
      "type": "function"
    },
    {
      "inputs": [],
      "name": "owner",
      "outputs": [
        {
          "internalType": "address",
          "name": "",
          "type": "address"
        }
      ],
      "stateMutability": "view",
      "type": "function"
    },
    {
      "inputs": [],
      "name": "pause",
      "outputs": [],
      "stateMutability": "nonpayable",
      "type": "function"
    },
    {
      "inputs": [],
      "name": "primeRBAC",
      "outputs": [
        {
          "internalType": "contract IPrimeRBAC",
          "name": "",
          "type": "address"
        }
      ],
      "stateMutability": "view",
      "type": "function"
    },
    {
      "inputs": [
        {
          "internalType": "bool",
          "name": "_allowDeposits",
          "type": "bool"
        }
      ],
      "name": "setAllowDeposits",
      "outputs": [],
      "stateMutability": "nonpayable",
      "type": "function"
    },
    {
      "inputs": [
        {
          "internalType": "bool",
          "name": "_allowWithdraws",
          "type": "bool"
        }
      ],
      "name": "setAllowWithdraws",
      "outputs": [],
      "stateMutability": "nonpayable",
      "type": "function"
    },
    {
      "inputs": [
        {
          "internalType": "contract Authority",
          "name": "newAuthority",
          "type": "address"
        }
      ],
      "name": "setAuthority",
      "outputs": [],
      "stateMutability": "nonpayable",
      "type": "function"
    },
    {
      "inputs": [
        {
          "internalType": "contract IBufferHelper",
          "name": "_depositBufferHelper",
          "type": "address"
        }
      ],
      "name": "setDepositBufferHelper",
      "outputs": [],
      "stateMutability": "nonpayable",
      "type": "function"
    },
    {
      "inputs": [
        {
          "internalType": "uint112",
          "name": "cap",
          "type": "uint112"
        }
      ],
      "name": "setDepositCap",
      "outputs": [],
      "stateMutability": "nonpayable",
      "type": "function"
    },
    {
      "inputs": [
        {
          "internalType": "address",
          "name": "_distributor",
          "type": "address"
        }
      ],
      "name": "setDistributor",
      "outputs": [],
      "stateMutability": "nonpayable",
      "type": "function"
    },
    {
      "inputs": [
        {
          "internalType": "bool",
          "name": "_permissionedTransfers",
          "type": "bool"
        }
      ],
      "name": "setPermissionedTransfers",
      "outputs": [],
      "stateMutability": "nonpayable",
      "type": "function"
    },
    {
      "inputs": [
        {
          "internalType": "uint64",
          "name": "_shareLockPeriod",
          "type": "uint64"
        }
      ],
      "name": "setShareLockPeriod",
      "outputs": [],
      "stateMutability": "nonpayable",
      "type": "function"
    },
    {
      "inputs": [
        {
          "internalType": "contract IBufferHelper",
          "name": "_withdrawBufferHelper",
          "type": "address"
        }
      ],
      "name": "setWithdrawBufferHelper",
      "outputs": [],
      "stateMutability": "nonpayable",
      "type": "function"
    },
    {
      "inputs": [],
      "name": "tellerState",
      "outputs": [
        {
          "internalType": "bool",
          "name": "isPaused",
          "type": "bool"
        },
        {
          "internalType": "bool",
          "name": "allowDeposits",
          "type": "bool"
        },
        {
          "internalType": "bool",
          "name": "allowWithdraws",
          "type": "bool"
        },
        {
          "internalType": "bool",
          "name": "permissionedTransfers",
          "type": "bool"
        },
        {
          "internalType": "uint64",
          "name": "shareLockPeriod",
          "type": "uint64"
        },
        {
          "internalType": "uint112",
          "name": "depositCap",
          "type": "uint112"
        }
      ],
      "stateMutability": "view",
      "type": "function"
    },
    {
      "inputs": [
        {
          "internalType": "address",
          "name": "newOwner",
          "type": "address"
        }
      ],
      "name": "transferOwnership",
      "outputs": [],
      "stateMutability": "nonpayable",
      "type": "function"
    },
    {
      "inputs": [],
      "name": "unpause",
      "outputs": [],
      "stateMutability": "nonpayable",
      "type": "function"
    },
    {
      "inputs": [],
      "name": "vault",
      "outputs": [
        {
          "internalType": "contract BoringVault",
          "name": "",
          "type": "address"
        }
      ],
      "stateMutability": "view",
      "type": "function"
    },
    {
      "inputs": [],
      "name": "version",
      "outputs": [
        {
          "internalType": "string",
          "name": "",
          "type": "string"
        }
      ],
      "stateMutability": "pure",
      "type": "function"
    },
    {
      "inputs": [
        {
          "internalType": "uint256",
          "name": "shareAmount",
          "type": "uint256"
        },
        {
          "internalType": "uint256",
          "name": "minimumAssets",
          "type": "uint256"
        },
        {
          "internalType": "address",
          "name": "to",
          "type": "address"
        }
      ],
      "name": "withdraw",
      "outputs": [
        {
          "internalType": "uint256",
          "name": "assetsOut",
          "type": "uint256"
        }
      ],
      "stateMutability": "nonpayable",
      "type": "function"
    }
  ],
  "bytecode": "0x6101006040526001600355348015610015575f5ffd5b50604051616381380380616381833981810160405281019061003791906105b9565b828282828282828273ffffffffffffffffffffffffffffffffffffffff1663bf7e214f6040518163ffffffff1660e01b8152600401602060405180830381865afa158015610087573d5f5f3e3d5ffd5b505050506040513d601f19601f820116820180604052508101906100ab9190610644565b3381815f5f6101000a81548173ffffffffffffffffffffffffffffffffffffffff021916908373ffffffffffffffffffffffffffffffffffffffff1602179055508060015f6101000a81548173ffffffffffffffffffffffffffffffffffffffff021916908373ffffffffffffffffffffffffffffffffffffffff1602179055508173ffffffffffffffffffffffffffffffffffffffff163373ffffffffffffffffffffffffffffffffffffffff167f8be0079c531659141344cd1fd0a4f28419497f9722a3daafe3b4186f6b6457e060405160405180910390a38073ffffffffffffffffffffffffffffffffffffffff163373ffffffffffffffffffffffffffffffffffffffff167fa3396fd7f6e0a21b50e5089d2da70d5ac0a3bbbd1f617a93f134b7638998019860405160405180910390a350505f73ffffffffffffffffffffffffffffffffffffffff168273ffffffffffffffffffffffffffffffffffffffff1603610247576040517f538ba4f900000000000000000000000000000000000000000000000000000000815260040160405180910390fd5b8160025f6101000a81548173ffffffffffffffffffffffffffffffffffffffff021916908373ffffffffffffffffffffffffffffffffffffffff16021790555050508173ffffffffffffffffffffffffffffffffffffffff1660a08173ffffffffffffffffffffffffffffffffffffffff168152505060a05173ffffffffffffffffffffffffffffffffffffffff1663313ce5676040518163ffffffff1660e01b8152600401602060405180830381865afa158015610308573d5f5f3e3d5ffd5b505050506040513d601f19601f8201168201806040525081019061032c91906106a5565b600a6103389190610835565b60e081815250508073ffffffffffffffffffffffffffffffffffffffff1660c08173ffffffffffffffffffffffffffffffffffffffff168152505060a05173ffffffffffffffffffffffffffffffffffffffff166338d52e0f6040518163ffffffff1660e01b8152600401602060405180830381865afa1580156103be573d5f5f3e3d5ffd5b505050506040513d601f19601f820116820180604052508101906103e291906108ba565b73ffffffffffffffffffffffffffffffffffffffff1660808173ffffffffffffffffffffffffffffffffffffffff16815250506040518060c001604052805f151581526020016001151581526020016001151581526020015f151581526020015f67ffffffffffffffff1681526020016dffffffffffffffffffffffffffff801681525060045f820151815f015f6101000a81548160ff0219169083151502179055506020820151815f0160016101000a81548160ff0219169083151502179055506040820151815f0160026101000a81548160ff0219169083151502179055506060820151815f0160036101000a81548160ff0219169083151502179055506080820151815f0160046101000a81548167ffffffffffffffff021916908367ffffffffffffffff16021790555060a0820151815f01600c6101000a8154816dffffffffffffffffffffffffffff02191690836dffffffffffffffffffffffffffff1602179055509050505050505050505050506108e5565b5f5ffd5b5f73ffffffffffffffffffffffffffffffffffffffff82169050919050565b5f6105888261055f565b9050919050565b6105988161057e565b81146105a2575f5ffd5b50565b5f815190506105b38161058f565b92915050565b5f5f5f606084860312156105d0576105cf61055b565b5b5f6105dd868287016105a5565b93505060206105ee868287016105a5565b92505060406105ff868287016105a5565b9150509250925092565b5f6106138261057e565b9050919050565b61062381610609565b811461062d575f5ffd5b50565b5f8151905061063e8161061a565b92915050565b5f602082840312156106595761065861055b565b5b5f61066684828501610630565b91505092915050565b5f60ff82169050919050565b6106848161066f565b811461068e575f5ffd5b50565b5f8151905061069f8161067b565b92915050565b5f602082840312156106ba576106b961055b565b5b5f6106c784828501610691565b91505092915050565b7f4e487b71000000000000000000000000000000000000000000000000000000005f52601160045260245ffd5b5f8160011c9050919050565b5f5f8291508390505b60018511156107525780860481111561072e5761072d6106d0565b5b600185161561073d5780820291505b808102905061074b856106fd565b9450610712565b94509492505050565b5f8261076a5760019050610825565b81610777575f9050610825565b816001811461078d5760028114610797576107c6565b6001915050610825565b60ff8411156107a9576107a86106d0565b5b8360020a9150848211156107c0576107bf6106d0565b5b50610825565b5060208310610133831016604e8410600b84101617156107fb5782820a9050838111156107f6576107f56106d0565b5b610825565b6108088484846001610709565b9250905081840481111561081f5761081e6106d0565b5b81810290505b9392505050565b5f819050919050565b5f61083f8261082c565b915061084a8361066f565b92506108777fffffffffffffffffffffffffffffffffffffffffffffffffffffffffffffffff848461075b565b905092915050565b5f6108898261057e565b9050919050565b6108998161087f565b81146108a3575f5ffd5b50565b5f815190506108b481610890565b92915050565b5f602082840312156108cf576108ce61055b565b5b5f6108dc848285016108a6565b91505092915050565b60805160a05160c05160e0516159e461099d5f395f81816136be0152613f0d01525f81816116f60152818161353b015281816136310152613f2e01525f81816133dd01528181613734015281816138f001528181613b0501528181613bb701528181613ddb015281816140790152818161414a015261444601525f8181610ac7015281816112f401528181611ae201528181611c2f01528181613ac801528181613b7a01528181613d5401526143bf01526159e45ff3fe608060405234801561000f575f5ffd5b506004361061025c575f3560e01c806368cbc755116101445780639ac4f42d116100c1578063bf7e214f11610085578063bf7e214f146106ce578063bfe10928146106ec578063c29d2f101461070a578063e37d7e6814610726578063f2fde38b14610744578063fbfa77cf146107605761025c565b80639ac4f42d1461062e578063a316f21b1461064a578063a65492211461067a578063a924bf6114610696578063bf671384146106b25761025c565b80638456cb59116101085780638456cb591461059e5780638a6733f9146105a85780638da5cb5b146105c45780638dbdbe6d146105e25780639300003a146106125761025c565b806368cbc7551461050b57806373ad629c1461052e57806375619ab51461054a5780637a9e5e4b146105665780637bd876b6146105825761025c565b80633b575407116101dd5780635710b03f116101a15780635710b03f1461040f5780635c4654301461042b5780635f45bac81461045f578063657ae3f11461047b57806367e1efc3146104ab57806368119bc5146104db5761025c565b80633b575407146103915780633f4ba83a146103ad5780634c3bde42146103b75780634fb3ccc5146103d357806354fd4d50146103f15761025c565b80631b62636c116102245780631b62636c146103035780631ba9a4581461031f5780631f23afc81461033b5780632c524c421461035757806338d52e0f146103735761025c565b8063088c644d146102605780630ad58d2f1461027c5780630d8ada4e146102ac57806312056e2d146102cb57806318aed921146102e7575b5f5ffd5b61027a60048036038101906102759190614568565b61077e565b005b610296600480360381019061029191906145f0565b61099c565b6040516102a3919061464f565b60405180910390f35b6102b4610b42565b6040516102c29291906146c3565b60405180910390f35b6102e560048036038101906102e09190614727565b610b91565b005b61030160048036038101906102fc9190614752565b610c72565b005b61031d60048036038101906103189190614752565b610eb1565b005b61033960048036038101906103349190614752565b610fbb565b005b610355600480360381019061035091906147b2565b6110c4565b005b610371600480360381019061036c9190614752565b6111e9565b005b61037b6112f2565b60405161038891906147fd565b60405180910390f35b6103ab60048036038101906103a69190614752565b611316565b005b6103b5611420565b005b6103d160048036038101906103cc9190614568565b6114d5565b005b6103db6116f4565b6040516103e89190614836565b60405180910390f35b6103f9611718565b60405161040691906148bf565b60405180910390f35b61042960048036038101906104249190614568565b611746565b005b61044560048036038101906104409190614752565b61184c565b6040516104569594939291906148ee565b60405180910390f35b61047960048036038101906104749190614752565b6118ae565b005b610495600480360381019061049091906145f0565b6119b7565b6040516104a2919061464f565b60405180910390f35b6104c560048036038101906104c091906145f0565b611b5d565b6040516104d2919061464f565b60405180910390f35b6104f560048036038101906104f09190614568565b611caa565b604051610502919061493f565b60405180910390f35b610513611cc7565b6040516105259695949392919061498f565b60405180910390f35b610548600480360381019061054391906147b2565b611d4c565b005b610564600480360381019061055f9190614752565b611e71565b005b610580600480360381019061057b9190614a29565b611f83565b005b61059c60048036038101906105979190614a7e565b61213e565b005b6105a661221b565b005b6105c260048036038101906105bd91906147b2565b6122d1565b005b6105cc612393565b6040516105d99190614ab8565b60405180910390f35b6105fc60048036038101906105f791906145f0565b6123b7565b604051610609919061464f565b60405180910390f35b61062c60048036038101906106279190614568565b6124c5565b005b61064860048036038101906106439190614752565b61262f565b005b610664600480360381019061065f9190614b3a565b612739565b604051610671919061464f565b60405180910390f35b610694600480360381019061068f9190614bd7565b612858565b005b6106b060048036038101906106ab9190614752565b612e17565b005b6106cc60048036038101906106c79190614752565b612f1f565b005b6106d6613028565b6040516106e39190614c5b565b60405180910390f35b6106f461304d565b6040516107019190614c94565b60405180910390f35b610724600480360381019061071f9190614752565b613072565b005b61072e6132ae565b60405161073b9190614ccd565b60405180910390f35b61075e60048036038101906107599190614752565b6132d3565b005b6107686133db565b6040516107759190614d17565b60405180910390f35b60025f9054906101000a900473ffffffffffffffffffffffffffffffffffffffff1673ffffffffffffffffffffffffffffffffffffffff1663d35911f2336040518263ffffffff1660e01b81526004016107d89190614ab8565b602060405180830381865afa1580156107f3573d5f5f3e3d5ffd5b505050506040513d601f19601f820116820180604052508101906108179190614d44565b61084d576040517fdc85555400000000000000000000000000000000000000000000000000000000815260040160405180910390fd5b60095f8273ffffffffffffffffffffffffffffffffffffffff1673ffffffffffffffffffffffffffffffffffffffff1681526020019081526020015f205f9054906101000a900460ff16806108cd57505f73ffffffffffffffffffffffffffffffffffffffff168173ffffffffffffffffffffffffffffffffffffffff16145b1561095c578060075f015f6101000a81548173ffffffffffffffffffffffffffffffffffffffff021916908373ffffffffffffffffffffffffffffffffffffffff1602179055508073ffffffffffffffffffffffffffffffffffffffff167f421ac73f226261ee4c66488795b53b363d3335b860babcefd318c1f8f10c022360405160405180910390a2610999565b806040517fdb1785f50000000000000000000000000000000000000000000000000000000081526004016109909190614d6f565b60405180910390fd5b50565b5f6109ca335f357fffffffff00000000000000000000000000000000000000000000000000000000166133ff565b610a09576040517f08c379a0000000000000000000000000000000000000000000000000000000008152600401610a0090614dd2565b60405180910390fd5b600160035414610a4e576040517f08c379a0000000000000000000000000000000000000000000000000000000008152600401610a4590614e3a565b60405180910390fd5b6002600381905550610a5e613538565b73ffffffffffffffffffffffffffffffffffffffff166302ce728f6040518163ffffffff1660e01b81526004015f604051808303815f87803b158015610aa2575f5ffd5b505af1158015610ab4573d5f5f3e3d5ffd5b50505050610ac384848461355f565b90507f000000000000000000000000000000000000000000000000000000000000000073ffffffffffffffffffffffffffffffffffffffff167f884edad9ce6fa2440d8a54cc123490eb96d2768479d49ff9c7366125a942436485604051610b2b919061464f565b60405180910390a260016003819055509392505050565b6007805f015f9054906101000a900473ffffffffffffffffffffffffffffffffffffffff1690806001015f9054906101000a900473ffffffffffffffffffffffffffffffffffffffff16905082565b610bbe335f357fffffffff00000000000000000000000000000000000000000000000000000000166133ff565b610bfd576040517f08c379a0000000000000000000000000000000000000000000000000000000008152600401610bf490614dd2565b60405180910390fd5b6203f4808167ffffffffffffffff161115610c44576040517f7eb0040400000000000000000000000000000000000000000000000000000000815260040160405180910390fd5b8060045f0160046101000a81548167ffffffffffffffff021916908367ffffffffffffffff16021790555050565b610c9f335f357fffffffff00000000000000000000000000000000000000000000000000000000166133ff565b610cde576040517f08c379a0000000000000000000000000000000000000000000000000000000008152600401610cd590614dd2565b60405180910390fd5b600160055f8373ffffffffffffffffffffffffffffffffffffffff1673ffffffffffffffffffffffffffffffffffffffff1681526020019081526020015f205f015f6101000a81548160ff021916908315150217905550600160055f8373ffffffffffffffffffffffffffffffffffffffff1673ffffffffffffffffffffffffffffffffffffffff1681526020019081526020015f205f0160016101000a81548160ff021916908315150217905550600160055f8373ffffffffffffffffffffffffffffffffffffffff1673ffffffffffffffffffffffffffffffffffffffff1681526020019081526020015f205f0160026101000a81548160ff0219169083151502179055508073ffffffffffffffffffffffffffffffffffffffff167fd658022b1a3aaf6ad3b3c615253712807f21a8f7bc3e4996e10618175d4afb2b60405160405180910390a28073ffffffffffffffffffffffffffffffffffffffff167f79fc685a7dbabb75a67df5e69a90602cef1f19bc465b060eab1ac56685e04a1360405160405180910390a28073ffffffffffffffffffffffffffffffffffffffff167f3afb02134e37f7205acf470adc2fc4ebb70614b1599a602d069790915380e2aa60405160405180910390a250565b610ede335f357fffffffff00000000000000000000000000000000000000000000000000000000166133ff565b610f1d576040517f08c379a0000000000000000000000000000000000000000000000000000000008152600401610f1490614dd2565b60405180910390fd5b600160055f8373ffffffffffffffffffffffffffffffffffffffff1673ffffffffffffffffffffffffffffffffffffffff1681526020019081526020015f205f0160026101000a81548160ff0219169083151502179055508073ffffffffffffffffffffffffffffffffffffffff167f3afb02134e37f7205acf470adc2fc4ebb70614b1599a602d069790915380e2aa60405160405180910390a250565b610fe8335f357fffffffff00000000000000000000000000000000000000000000000000000000166133ff565b611027576040517f08c379a000000000000000000000000000000000000000000000000000000000815260040161101e90614dd2565b60405180910390fd5b5f60055f8373ffffffffffffffffffffffffffffffffffffffff1673ffffffffffffffffffffffffffffffffffffffff1681526020019081526020015f205f0160026101000a81548160ff0219169083151502179055508073ffffffffffffffffffffffffffffffffffffffff167f77cb944c14da76928795279d1519ce9150085a06e0a53c61d5a86fc4e0fd57c660405160405180910390a250565b60025f9054906101000a900473ffffffffffffffffffffffffffffffffffffffff1673ffffffffffffffffffffffffffffffffffffffff1663d35911f2336040518263ffffffff1660e01b815260040161111e9190614ab8565b602060405180830381865afa158015611139573d5f5f3e3d5ffd5b505050506040513d601f19601f8201168201806040525081019061115d9190614d44565b611193576040517fdc85555400000000000000000000000000000000000000000000000000000000815260040160405180910390fd5b8060045f0160016101000a81548160ff0219169083151502179055507f64135eada30d50353f01495f95ccc6e95ab8a53af94da04b62c3b060092283e5816040516111de919061493f565b60405180910390a150565b611216335f357fffffffff00000000000000000000000000000000000000000000000000000000166133ff565b611255576040517f08c379a000000000000000000000000000000000000000000000000000000000815260040161124c90614dd2565b60405180910390fd5b600160055f8373ffffffffffffffffffffffffffffffffffffffff1673ffffffffffffffffffffffffffffffffffffffff1681526020019081526020015f205f015f6101000a81548160ff0219169083151502179055508073ffffffffffffffffffffffffffffffffffffffff167fd658022b1a3aaf6ad3b3c615253712807f21a8f7bc3e4996e10618175d4afb2b60405160405180910390a250565b7f000000000000000000000000000000000000000000000000000000000000000081565b611343335f357fffffffff00000000000000000000000000000000000000000000000000000000166133ff565b611382576040517f08c379a000000000000000000000000000000000000000000000000000000000815260040161137990614dd2565b60405180910390fd5b600160055f8373ffffffffffffffffffffffffffffffffffffffff1673ffffffffffffffffffffffffffffffffffffffff1681526020019081526020015f205f0160016101000a81548160ff0219169083151502179055508073ffffffffffffffffffffffffffffffffffffffff167f79fc685a7dbabb75a67df5e69a90602cef1f19bc465b060eab1ac56685e04a1360405160405180910390a250565b61144d335f357fffffffff00000000000000000000000000000000000000000000000000000000166133ff565b61148c576040517f08c379a000000000000000000000000000000000000000000000000000000000815260040161148390614dd2565b60405180910390fd5b5f60045f015f6101000a81548160ff0219169083151502179055507fa45f47fdea8a1efdd9029a5691c7f759c32b7c698632b563573e155625d1693360405160405180910390a1565b60025f9054906101000a900473ffffffffffffffffffffffffffffffffffffffff1673ffffffffffffffffffffffffffffffffffffffff1663d35911f2336040518263ffffffff1660e01b815260040161152f9190614ab8565b602060405180830381865afa15801561154a573d5f5f3e3d5ffd5b505050506040513d601f19601f8201168201806040525081019061156e9190614d44565b6115a4576040517fdc85555400000000000000000000000000000000000000000000000000000000815260040160405180910390fd5b60095f8273ffffffffffffffffffffffffffffffffffffffff1673ffffffffffffffffffffffffffffffffffffffff1681526020019081526020015f205f9054906101000a900460ff168061162457505f73ffffffffffffffffffffffffffffffffffffffff168173ffffffffffffffffffffffffffffffffffffffff16145b156116b4578060076001015f6101000a81548173ffffffffffffffffffffffffffffffffffffffff021916908373ffffffffffffffffffffffffffffffffffffffff1602179055508073ffffffffffffffffffffffffffffffffffffffff167ffb7258ef087c9bc5a9a50c1beea112ed1a53c8dd98f107673aba61937bdcdfcd60405160405180910390a26116f1565b806040517fdb1785f50000000000000000000000000000000000000000000000000000000081526004016116e89190614d6f565b60405180910390fd5b50565b7f000000000000000000000000000000000000000000000000000000000000000081565b60606117226137c6565b6040516020016117329190614edc565b604051602081830303815290604052905090565b611773335f357fffffffff00000000000000000000000000000000000000000000000000000000166133ff565b6117b2576040517f08c379a00000000000000000000000000000000000000000000000000000000081526004016117a990614dd2565b60405180910390fd5b5f60095f8373ffffffffffffffffffffffffffffffffffffffff1673ffffffffffffffffffffffffffffffffffffffff1681526020019081526020015f205f6101000a81548160ff0219169083151502179055508073ffffffffffffffffffffffffffffffffffffffff167fa451ec34a599afd13d737b271bcd194cd2c3b891df79bc124da826c7f1e1439560405160405180910390a250565b6005602052805f5260405f205f91509050805f015f9054906101000a900460ff1690805f0160019054906101000a900460ff1690805f0160029054906101000a900460ff1690805f0160039054906101000a900460ff16908060010154905085565b6118db335f357fffffffff00000000000000000000000000000000000000000000000000000000166133ff565b61191a576040517f08c379a000000000000000000000000000000000000000000000000000000000815260040161191190614dd2565b60405180910390fd5b5f60055f8373ffffffffffffffffffffffffffffffffffffffff1673ffffffffffffffffffffffffffffffffffffffff1681526020019081526020015f205f0160016101000a81548160ff0219169083151502179055508073ffffffffffffffffffffffffffffffffffffffff167f039bcf51833310242b8b7c6aa0fbabf1bf2b5e5270807ee020f1920ef200666b60405160405180910390a250565b5f6119e5335f357fffffffff00000000000000000000000000000000000000000000000000000000166133ff565b611a24576040517f08c379a0000000000000000000000000000000000000000000000000000000008152600401611a1b90614dd2565b60405180910390fd5b600160035414611a69576040517f08c379a0000000000000000000000000000000000000000000000000000000008152600401611a6090614e3a565b60405180910390fd5b6002600381905550611a79613538565b73ffffffffffffffffffffffffffffffffffffffff166302ce728f6040518163ffffffff1660e01b81526004015f604051808303815f87803b158015611abd575f5ffd5b505af1158015611acf573d5f5f3e3d5ffd5b50505050611ade84848461355f565b90507f000000000000000000000000000000000000000000000000000000000000000073ffffffffffffffffffffffffffffffffffffffff167fdcc60b41ff1c604459e6aa4a7299817416b19fc586a392f111646e26597c4af985604051611b46919061464f565b60405180910390a260016003819055509392505050565b5f611b8b335f357fffffffff00000000000000000000000000000000000000000000000000000000166133ff565b611bca576040517f08c379a0000000000000000000000000000000000000000000000000000000008152600401611bc190614dd2565b60405180910390fd5b600160035414611c0f576040517f08c379a0000000000000000000000000000000000000000000000000000000008152600401611c0690614e3a565b60405180910390fd5b6002600381905550611c1f6137f4565b611c2b8484338561388a565b90507f000000000000000000000000000000000000000000000000000000000000000073ffffffffffffffffffffffffffffffffffffffff167f6f9b974223f85a1ae805c33b8b519039e2435481d949db1110de151a94d587af85604051611c93919061464f565b60405180910390a260016003819055509392505050565b6009602052805f5260405f205f915054906101000a900460ff1681565b6004805f015f9054906101000a900460ff1690805f0160019054906101000a900460ff1690805f0160029054906101000a900460ff1690805f0160039054906101000a900460ff1690805f0160049054906101000a900467ffffffffffffffff1690805f01600c9054906101000a90046dffffffffffffffffffffffffffff16905086565b60025f9054906101000a900473ffffffffffffffffffffffffffffffffffffffff1673ffffffffffffffffffffffffffffffffffffffff1663d35911f2336040518263ffffffff1660e01b8152600401611da69190614ab8565b602060405180830381865afa158015611dc1573d5f5f3e3d5ffd5b505050506040513d601f19601f82011682018060405250810190611de59190614d44565b611e1b576040517fdc85555400000000000000000000000000000000000000000000000000000000815260040160405180910390fd5b8060045f0160026101000a81548160ff0219169083151502179055507fd620fa2aed717c0d930cd04a59339f11dc1074a41073255d6072540a0a1a2b5381604051611e66919061493f565b60405180910390a150565b60025f9054906101000a900473ffffffffffffffffffffffffffffffffffffffff1673ffffffffffffffffffffffffffffffffffffffff1663d35911f2336040518263ffffffff1660e01b8152600401611ecb9190614ab8565b602060405180830381865afa158015611ee6573d5f5f3e3d5ffd5b505050506040513d601f19601f82011682018060405250810190611f0a9190614d44565b611f40576040517fdc85555400000000000000000000000000000000000000000000000000000000815260040160405180910390fd5b8060065f6101000a81548173ffffffffffffffffffffffffffffffffffffffff021916908373ffffffffffffffffffffffffffffffffffffffff16021790555050565b5f5f9054906101000a900473ffffffffffffffffffffffffffffffffffffffff1673ffffffffffffffffffffffffffffffffffffffff163373ffffffffffffffffffffffffffffffffffffffff161480612099575060015f9054906101000a900473ffffffffffffffffffffffffffffffffffffffff1673ffffffffffffffffffffffffffffffffffffffff1663b700961333305f357fffffffff00000000000000000000000000000000000000000000000000000000166040518463ffffffff1660e01b815260040161205993929190614f37565b602060405180830381865afa158015612074573d5f5f3e3d5ffd5b505050506040513d601f19601f820116820180604052508101906120989190614d44565b5b6120a1575f5ffd5b8060015f6101000a81548173ffffffffffffffffffffffffffffffffffffffff021916908373ffffffffffffffffffffffffffffffffffffffff1602179055508073ffffffffffffffffffffffffffffffffffffffff163373ffffffffffffffffffffffffffffffffffffffff167fa3396fd7f6e0a21b50e5089d2da70d5ac0a3bbbd1f617a93f134b7638998019860405160405180910390a350565b61216b335f357fffffffff00000000000000000000000000000000000000000000000000000000166133ff565b6121aa576040517f08c379a00000000000000000000000000000000000000000000000000000000081526004016121a190614dd2565b60405180910390fd5b8060045f01600c6101000a8154816dffffffffffffffffffffffffffff02191690836dffffffffffffffffffffffffffff1602179055507f752cd3d8df6864142257fa3a2e02aedf2dc09f1875c2a25b4f117d45c7334d5d816040516122109190614f6c565b60405180910390a150565b612248335f357fffffffff00000000000000000000000000000000000000000000000000000000166133ff565b612287576040517f08c379a000000000000000000000000000000000000000000000000000000000815260040161227e90614dd2565b60405180910390fd5b600160045f015f6101000a81548160ff0219169083151502179055507f9e87fac88ff661f02d44f95383c817fece4bce600a3dab7a54406878b965e75260405160405180910390a1565b6122fe335f357fffffffff00000000000000000000000000000000000000000000000000000000166133ff565b61233d576040517f08c379a000000000000000000000000000000000000000000000000000000000815260040161233490614dd2565b60405180910390fd5b8060045f0160036101000a81548160ff0219169083151502179055507fa3fe47e2502292ca20854524008d366d3cad5da2426cfb2484099f06f328e4a081604051612388919061493f565b60405180910390a150565b5f5f9054906101000a900473ffffffffffffffffffffffffffffffffffffffff1681565b5f6123e5335f357fffffffff00000000000000000000000000000000000000000000000000000000166133ff565b612424576040517f08c379a000000000000000000000000000000000000000000000000000000000815260040161241b90614dd2565b60405180910390fd5b600160035414612469576040517f08c379a000000000000000000000000000000000000000000000000000000000815260040161246090614e3a565b60405180910390fd5b60026003819055506124796137f4565b6124858484333361388a565b90506124b633858360045f0160049054906101000a900467ffffffffffffffff1667ffffffffffffffff16866139f9565b60016003819055509392505050565b60025f9054906101000a900473ffffffffffffffffffffffffffffffffffffffff1673ffffffffffffffffffffffffffffffffffffffff1663d35911f2336040518263ffffffff1660e01b815260040161251f9190614ab8565b602060405180830381865afa15801561253a573d5f5f3e3d5ffd5b505050506040513d601f19601f8201168201806040525081019061255e9190614d44565b612594576040517fdc85555400000000000000000000000000000000000000000000000000000000815260040160405180910390fd5b600160095f8373ffffffffffffffffffffffffffffffffffffffff1673ffffffffffffffffffffffffffffffffffffffff1681526020019081526020015f205f6101000a81548160ff0219169083151502179055508073ffffffffffffffffffffffffffffffffffffffff167fbbd1060adb905a8ecf06a33a19b4c634caaec5ef6268043300f69a75ea332e3160405160405180910390a250565b61265c335f357fffffffff00000000000000000000000000000000000000000000000000000000166133ff565b61269b576040517f08c379a000000000000000000000000000000000000000000000000000000000815260040161269290614dd2565b60405180910390fd5b600160055f8373ffffffffffffffffffffffffffffffffffffffff1673ffffffffffffffffffffffffffffffffffffffff1681526020019081526020015f205f0160036101000a81548160ff0219169083151502179055508073ffffffffffffffffffffffffffffffffffffffff167f5e92c085dffcb69d025c31c9ed03d1869e4737ba81e8649c623398caa1b72f1560405160405180910390a250565b5f612767335f357fffffffff00000000000000000000000000000000000000000000000000000000166133ff565b6127a6576040517f08c379a000000000000000000000000000000000000000000000000000000000815260040161279d90614dd2565b60405180910390fd5b6001600354146127eb576040517f08c379a00000000000000000000000000000000000000000000000000000000081526004016127e290614e3a565b60405180910390fd5b60026003819055506127fb6137f4565b6128088887878787613ac6565b6128148888333361388a565b905061284533898360045f0160049054906101000a900467ffffffffffffffff1667ffffffffffffffff16866139f9565b6001600381905550979650505050505050565b5f73ffffffffffffffffffffffffffffffffffffffff1660065f9054906101000a900473ffffffffffffffffffffffffffffffffffffffff1673ffffffffffffffffffffffffffffffffffffffff1614612a23575f73ffffffffffffffffffffffffffffffffffffffff168473ffffffffffffffffffffffffffffffffffffffff16146129675760065f9054906101000a900473ffffffffffffffffffffffffffffffffffffffff1673ffffffffffffffffffffffffffffffffffffffff1663f0ea5915856040518263ffffffff1660e01b81526004016129399190614ab8565b5f604051808303815f87803b158015612950575f5ffd5b505af1158015612962573d5f5f3e3d5ffd5b505050505b5f73ffffffffffffffffffffffffffffffffffffffff168373ffffffffffffffffffffffffffffffffffffffff1614612a225760065f9054906101000a900473ffffffffffffffffffffffffffffffffffffffff1673ffffffffffffffffffffffffffffffffffffffff1663f0ea5915846040518263ffffffff1660e01b81526004016129f49190614ab8565b5f604051808303815f87803b158015612a0b575f5ffd5b505af1158015612a1d573d5f5f3e3d5ffd5b505050505b5b5f73ffffffffffffffffffffffffffffffffffffffff168473ffffffffffffffffffffffffffffffffffffffff1614612b635760055f8573ffffffffffffffffffffffffffffffffffffffff1673ffffffffffffffffffffffffffffffffffffffff1681526020019081526020015f205f015f9054906101000a900460ff1615612ae8578383826040517f2821264f000000000000000000000000000000000000000000000000000000008152600401612adf93929190614f85565b60405180910390fd5b4260055f8673ffffffffffffffffffffffffffffffffffffffff1673ffffffffffffffffffffffffffffffffffffffff1681526020019081526020015f20600101541115612b62576040517ff64059db00000000000000000000000000000000000000000000000000000000815260040160405180910390fd5b5b5f73ffffffffffffffffffffffffffffffffffffffff168373ffffffffffffffffffffffffffffffffffffffff1614612c2a5760055f8473ffffffffffffffffffffffffffffffffffffffff1673ffffffffffffffffffffffffffffffffffffffff1681526020019081526020015f205f0160019054906101000a900460ff1615612c29578383826040517f2821264f000000000000000000000000000000000000000000000000000000008152600401612c2093929190614f85565b60405180910390fd5b5b5f73ffffffffffffffffffffffffffffffffffffffff168173ffffffffffffffffffffffffffffffffffffffff1614158015612caf575060055f8273ffffffffffffffffffffffffffffffffffffffff1673ffffffffffffffffffffffffffffffffffffffff1681526020019081526020015f205f0160029054906101000a900460ff165b15612cf5578383826040517f2821264f000000000000000000000000000000000000000000000000000000008152600401612cec93929190614f85565b60405180910390fd5b5f73ffffffffffffffffffffffffffffffffffffffff168473ffffffffffffffffffffffffffffffffffffffff1614158015612d5d57505f73ffffffffffffffffffffffffffffffffffffffff168373ffffffffffffffffffffffffffffffffffffffff1614155b15612e115760045f0160039054906101000a900460ff168015612dca575060055f8273ffffffffffffffffffffffffffffffffffffffff1673ffffffffffffffffffffffffffffffffffffffff1681526020019081526020015f205f0160039054906101000a900460ff16155b15612e10578383826040517f2821264f000000000000000000000000000000000000000000000000000000008152600401612e0793929190614f85565b60405180910390fd5b5b50505050565b612e44335f357fffffffff00000000000000000000000000000000000000000000000000000000166133ff565b612e83576040517f08c379a0000000000000000000000000000000000000000000000000000000008152600401612e7a90614dd2565b60405180910390fd5b5f60055f8373ffffffffffffffffffffffffffffffffffffffff1673ffffffffffffffffffffffffffffffffffffffff1681526020019081526020015f205f015f6101000a81548160ff0219169083151502179055508073ffffffffffffffffffffffffffffffffffffffff167fae893dda71e2eee548f8291f458cceae4bd22b56a79906928591e4420444c0e960405160405180910390a250565b612f4c335f357fffffffff00000000000000000000000000000000000000000000000000000000166133ff565b612f8b576040517f08c379a0000000000000000000000000000000000000000000000000000000008152600401612f8290614dd2565b60405180910390fd5b5f60055f8373ffffffffffffffffffffffffffffffffffffffff1673ffffffffffffffffffffffffffffffffffffffff1681526020019081526020015f205f0160036101000a81548160ff0219169083151502179055508073ffffffffffffffffffffffffffffffffffffffff167f1c2a701d65e1c6e2860263c884eae0b10db82e3ddd60640d53c7d53c6c998e7960405160405180910390a250565b60015f9054906101000a900473ffffffffffffffffffffffffffffffffffffffff1681565b60065f9054906101000a900473ffffffffffffffffffffffffffffffffffffffff1681565b61309f335f357fffffffff00000000000000000000000000000000000000000000000000000000166133ff565b6130de576040517f08c379a00000000000000000000000000000000000000000000000000000000081526004016130d590614dd2565b60405180910390fd5b5f60055f8373ffffffffffffffffffffffffffffffffffffffff1673ffffffffffffffffffffffffffffffffffffffff1681526020019081526020015f205f015f6101000a81548160ff0219169083151502179055505f60055f8373ffffffffffffffffffffffffffffffffffffffff1673ffffffffffffffffffffffffffffffffffffffff1681526020019081526020015f205f0160016101000a81548160ff0219169083151502179055505f60055f8373ffffffffffffffffffffffffffffffffffffffff1673ffffffffffffffffffffffffffffffffffffffff1681526020019081526020015f205f0160026101000a81548160ff0219169083151502179055508073ffffffffffffffffffffffffffffffffffffffff167fae893dda71e2eee548f8291f458cceae4bd22b56a79906928591e4420444c0e960405160405180910390a28073ffffffffffffffffffffffffffffffffffffffff167f039bcf51833310242b8b7c6aa0fbabf1bf2b5e5270807ee020f1920ef200666b60405160405180910390a28073ffffffffffffffffffffffffffffffffffffffff167f77cb944c14da76928795279d1519ce9150085a06e0a53c61d5a86fc4e0fd57c660405160405180910390a250565b60025f9054906101000a900473ffffffffffffffffffffffffffffffffffffffff1681565b613300335f357fffffffff00000000000000000000000000000000000000000000000000000000166133ff565b61333f576040517f08c379a000000000000000000000000000000000000000000000000000000000815260040161333690614dd2565b60405180910390fd5b805f5f6101000a81548173ffffffffffffffffffffffffffffffffffffffff021916908373ffffffffffffffffffffffffffffffffffffffff1602179055508073ffffffffffffffffffffffffffffffffffffffff163373ffffffffffffffffffffffffffffffffffffffff167f8be0079c531659141344cd1fd0a4f28419497f9722a3daafe3b4186f6b6457e060405160405180910390a350565b7f000000000000000000000000000000000000000000000000000000000000000081565b5f5f60015f9054906101000a900473ffffffffffffffffffffffffffffffffffffffff1690505f73ffffffffffffffffffffffffffffffffffffffff168173ffffffffffffffffffffffffffffffffffffffff16141580156134d957508073ffffffffffffffffffffffffffffffffffffffff1663b70096138530866040518463ffffffff1660e01b815260040161349993929190614f37565b602060405180830381865afa1580156134b4573d5f5f3e3d5ffd5b505050506040513d601f19601f820116820180604052508101906134d89190614d44565b5b8061352f57505f5f9054906101000a900473ffffffffffffffffffffffffffffffffffffffff1673ffffffffffffffffffffffffffffffffffffffff168473ffffffffffffffffffffffffffffffffffffffff16145b91505092915050565b5f7f0000000000000000000000000000000000000000000000000000000000000000905090565b5f5f60049050805f015f9054906101000a900460ff16156135ac576040517fe0f9e71d00000000000000000000000000000000000000000000000000000000815260040160405180910390fd5b805f0160029054906101000a900460ff166135f3576040517f6c94c77500000000000000000000000000000000000000000000000000000000815260040160405180910390fd5b5f850361362c576040517f3a8c54c400000000000000000000000000000000000000000000000000000000815260040160405180910390fd5b6136ed7f000000000000000000000000000000000000000000000000000000000000000073ffffffffffffffffffffffffffffffffffffffff1663679aefce6040518163ffffffff1660e01b8152600401602060405180830381865afa158015613698573d5f5f3e3d5ffd5b505050506040513d601f19601f820116820180604052508101906136bc9190614fce565b7f000000000000000000000000000000000000000000000000000000000000000087613c779092919063ffffffff16565b915083821015613729576040517f9883d84000000000000000000000000000000000000000000000000000000000815260040160405180910390fd5b61373282613cb8565b7f000000000000000000000000000000000000000000000000000000000000000073ffffffffffffffffffffffffffffffffffffffff166392f93232848433896040518563ffffffff1660e01b81526004016137919493929190614ff9565b5f604051808303815f87803b1580156137a8575f5ffd5b505af11580156137ba573d5f5f3e3d5ffd5b50505050509392505050565b60606137d0613e81565b6040516020016137e09190615086565b604051602081830303815290604052905090565b5f60049050805f015f9054906101000a900460ff1615613840576040517fe0f9e71d00000000000000000000000000000000000000000000000000000000815260040160405180910390fd5b805f0160019054906101000a900460ff16613887576040517f50789bf200000000000000000000000000000000000000000000000000000000815260040160405180910390fd5b50565b5f613893613538565b73ffffffffffffffffffffffffffffffffffffffff166302ce728f6040518163ffffffff1660e01b81526004015f604051808303815f87803b1580156138d7575f5ffd5b505af11580156138e9573d5f5f3e3d5ffd5b505050505f7f000000000000000000000000000000000000000000000000000000000000000073ffffffffffffffffffffffffffffffffffffffff166318160ddd6040518163ffffffff1660e01b8152600401602060405180830381865afa158015613957573d5f5f3e3d5ffd5b505050506040513d601f19601f8201168201806040525081019061397b9190614fce565b036139e357613988613538565b73ffffffffffffffffffffffffffffffffffffffff16634512deb76040518163ffffffff1660e01b81526004015f604051808303815f87803b1580156139cc575f5ffd5b505af11580156139de573d5f5f3e3d5ffd5b505050505b6139ef85858585613ebe565b9050949350505050565b5f821115613a52578142613a0d91906150d4565b60055f8773ffffffffffffffffffffffffffffffffffffffff1673ffffffffffffffffffffffffffffffffffffffff1681526020019081526020015f20600101819055505b8073ffffffffffffffffffffffffffffffffffffffff168573ffffffffffffffffffffffffffffffffffffffff167f7c23ab1215220abbead89383019ffa4b02ab190955ed3327cd7b81db5e3de7615f87874288604051613ab7959493929190615140565b60405180910390a35050505050565b7f000000000000000000000000000000000000000000000000000000000000000073ffffffffffffffffffffffffffffffffffffffff1663d505accf337f000000000000000000000000000000000000000000000000000000000000000088888888886040518863ffffffff1660e01b8152600401613b4b97969594939291906151af565b5f604051808303815f87803b158015613b62575f5ffd5b505af1925050508015613b73575060015b613c6f57847f000000000000000000000000000000000000000000000000000000000000000073ffffffffffffffffffffffffffffffffffffffff1663dd62ed3e337f00000000000000000000000000000000000000000000000000000000000000006040518363ffffffff1660e01b8152600401613bf392919061521c565b602060405180830381865afa158015613c0e573d5f5f3e3d5ffd5b505050506040513d601f19601f82011682018060405250810190613c329190614fce565b1015613c6a576040517f1b8851f000000000000000000000000000000000000000000000000000000000815260040160405180910390fd5b613c70565b5b5050505050565b5f827fffffffffffffffffffffffffffffffffffffffffffffffffffffffffffffffff0484118302158202613caa575f5ffd5b818385020490509392505050565b5f73ffffffffffffffffffffffffffffffffffffffff1660076001015f9054906101000a900473ffffffffffffffffffffffffffffffffffffffff1673ffffffffffffffffffffffffffffffffffffffff1614613e7e575f5f5f60076001015f9054906101000a900473ffffffffffffffffffffffffffffffffffffffff1673ffffffffffffffffffffffffffffffffffffffff1663b27c77bb7f0000000000000000000000000000000000000000000000000000000000000000866040518363ffffffff1660e01b8152600401613d91929190615243565b5f60405180830381865afa158015613dab573d5f5f3e3d5ffd5b505050506040513d5f823e3d601f19601f82011682018060405250810190613dd391906155fe565b9250925092507f000000000000000000000000000000000000000000000000000000000000000073ffffffffffffffffffffffffffffffffffffffff1663366d7fe18484846040518463ffffffff1660e01b8152600401613e369392919061591d565b5f604051808303815f875af1158015613e51573d5f5f3e3d5ffd5b505050506040513d5f823e3d601f19601f82011682018060405250810190613e799190615967565b505050505b50565b60606040518060400160405280600981526020017f426173652056302e310000000000000000000000000000000000000000000000815250905090565b5f613eca8383336141e6565b5f600490505f8603613f08576040517f4b37cd2a00000000000000000000000000000000000000000000000000000000815260040160405180910390fd5b613fc97f00000000000000000000000000000000000000000000000000000000000000007f000000000000000000000000000000000000000000000000000000000000000073ffffffffffffffffffffffffffffffffffffffff1663679aefce6040518163ffffffff1660e01b8152600401602060405180830381865afa158015613f95573d5f5f3e3d5ffd5b505050506040513d601f19601f82011682018060405250810190613fb99190614fce565b88613c779092919063ffffffff16565b915084821015614005576040517f4bd956a800000000000000000000000000000000000000000000000000000000815260040160405180910390fd5b6dffffffffffffffffffffffffffff8016815f01600c9054906101000a90046dffffffffffffffffffffffffffff166dffffffffffffffffffffffffffff161461414857805f01600c9054906101000a90046dffffffffffffffffffffffffffff166dffffffffffffffffffffffffffff167f000000000000000000000000000000000000000000000000000000000000000073ffffffffffffffffffffffffffffffffffffffff166318160ddd6040518163ffffffff1660e01b8152600401602060405180830381865afa1580156140e0573d5f5f3e3d5ffd5b505050506040513d601f19601f820116820180604052508101906141049190614fce565b8361410f91906150d4565b1115614147576040517fed32f3bb00000000000000000000000000000000000000000000000000000000815260040160405180910390fd5b5b7f000000000000000000000000000000000000000000000000000000000000000073ffffffffffffffffffffffffffffffffffffffff16636baf8dbc858886866040518563ffffffff1660e01b81526004016141a79493929190614ff9565b5f604051808303815f87803b1580156141be575f5ffd5b505af11580156141d0573d5f5f3e3d5ffd5b505050506141dd86614325565b50949350505050565b60055f8473ffffffffffffffffffffffffffffffffffffffff1673ffffffffffffffffffffffffffffffffffffffff1681526020019081526020015f205f015f9054906101000a900460ff1680614286575060055f8373ffffffffffffffffffffffffffffffffffffffff1673ffffffffffffffffffffffffffffffffffffffff1681526020019081526020015f205f0160019054906101000a900460ff165b806142da575060055f8273ffffffffffffffffffffffffffffffffffffffff1673ffffffffffffffffffffffffffffffffffffffff1681526020019081526020015f205f0160029054906101000a900460ff165b15614320578282826040517f2821264f00000000000000000000000000000000000000000000000000000000815260040161431793929190614f85565b60405180910390fd5b505050565b5f73ffffffffffffffffffffffffffffffffffffffff1660075f015f9054906101000a900473ffffffffffffffffffffffffffffffffffffffff1673ffffffffffffffffffffffffffffffffffffffff16146144e9575f5f5f60075f015f9054906101000a900473ffffffffffffffffffffffffffffffffffffffff1673ffffffffffffffffffffffffffffffffffffffff1663975d168c7f0000000000000000000000000000000000000000000000000000000000000000866040518363ffffffff1660e01b81526004016143fc929190615243565b5f60405180830381865afa158015614416573d5f5f3e3d5ffd5b505050506040513d5f823e3d601f19601f8201168201806040525081019061443e91906155fe565b9250925092507f000000000000000000000000000000000000000000000000000000000000000073ffffffffffffffffffffffffffffffffffffffff1663366d7fe18484846040518463ffffffff1660e01b81526004016144a19392919061591d565b5f604051808303815f875af11580156144bc573d5f5f3e3d5ffd5b505050506040513d5f823e3d601f19601f820116820180604052508101906144e49190615967565b505050505b50565b5f604051905090565b5f5ffd5b5f5ffd5b5f73ffffffffffffffffffffffffffffffffffffffff82169050919050565b5f614526826144fd565b9050919050565b5f6145378261451c565b9050919050565b6145478161452d565b8114614551575f5ffd5b50565b5f813590506145628161453e565b92915050565b5f6020828403121561457d5761457c6144f5565b5b5f61458a84828501614554565b91505092915050565b5f819050919050565b6145a581614593565b81146145af575f5ffd5b50565b5f813590506145c08161459c565b92915050565b6145cf8161451c565b81146145d9575f5ffd5b50565b5f813590506145ea816145c6565b92915050565b5f5f5f60608486031215614607576146066144f5565b5b5f614614868287016145b2565b9350506020614625868287016145b2565b9250506040614636868287016145dc565b9150509250925092565b61464981614593565b82525050565b5f6020820190506146625f830184614640565b92915050565b5f819050919050565b5f61468b614686614681846144fd565b614668565b6144fd565b9050919050565b5f61469c82614671565b9050919050565b5f6146ad82614692565b9050919050565b6146bd816146a3565b82525050565b5f6040820190506146d65f8301856146b4565b6146e360208301846146b4565b9392505050565b5f67ffffffffffffffff82169050919050565b614706816146ea565b8114614710575f5ffd5b50565b5f81359050614721816146fd565b92915050565b5f6020828403121561473c5761473b6144f5565b5b5f61474984828501614713565b91505092915050565b5f60208284031215614767576147666144f5565b5b5f614774848285016145dc565b91505092915050565b5f8115159050919050565b6147918161477d565b811461479b575f5ffd5b50565b5f813590506147ac81614788565b92915050565b5f602082840312156147c7576147c66144f5565b5b5f6147d48482850161479e565b91505092915050565b5f6147e782614692565b9050919050565b6147f7816147dd565b82525050565b5f6020820190506148105f8301846147ee565b92915050565b5f61482082614692565b9050919050565b61483081614816565b82525050565b5f6020820190506148495f830184614827565b92915050565b5f81519050919050565b5f82825260208201905092915050565b8281835e5f83830152505050565b5f601f19601f8301169050919050565b5f6148918261484f565b61489b8185614859565b93506148ab818560208601614869565b6148b481614877565b840191505092915050565b5f6020820190508181035f8301526148d78184614887565b905092915050565b6148e88161477d565b82525050565b5f60a0820190506149015f8301886148df565b61490e60208301876148df565b61491b60408301866148df565b61492860608301856148df565b6149356080830184614640565b9695505050505050565b5f6020820190506149525f8301846148df565b92915050565b614961816146ea565b82525050565b5f6dffffffffffffffffffffffffffff82169050919050565b61498981614967565b82525050565b5f60c0820190506149a25f8301896148df565b6149af60208301886148df565b6149bc60408301876148df565b6149c960608301866148df565b6149d66080830185614958565b6149e360a0830184614980565b979650505050505050565b5f6149f88261451c565b9050919050565b614a08816149ee565b8114614a12575f5ffd5b50565b5f81359050614a23816149ff565b92915050565b5f60208284031215614a3e57614a3d6144f5565b5b5f614a4b84828501614a15565b91505092915050565b614a5d81614967565b8114614a67575f5ffd5b50565b5f81359050614a7881614a54565b92915050565b5f60208284031215614a9357614a926144f5565b5b5f614aa084828501614a6a565b91505092915050565b614ab28161451c565b82525050565b5f602082019050614acb5f830184614aa9565b92915050565b5f60ff82169050919050565b614ae681614ad1565b8114614af0575f5ffd5b50565b5f81359050614b0181614add565b92915050565b5f819050919050565b614b1981614b07565b8114614b23575f5ffd5b50565b5f81359050614b3481614b10565b92915050565b5f5f5f5f5f5f5f60e0888a031215614b5557614b546144f5565b5b5f614b628a828b016145b2565b9750506020614b738a828b016145b2565b9650506040614b848a828b016145b2565b9550506060614b958a828b01614af3565b9450506080614ba68a828b01614b26565b93505060a0614bb78a828b01614b26565b92505060c0614bc88a828b016145dc565b91505092959891949750929550565b5f5f5f5f60808587031215614bef57614bee6144f5565b5b5f614bfc878288016145dc565b9450506020614c0d878288016145dc565b9350506040614c1e878288016145b2565b9250506060614c2f878288016145dc565b91505092959194509250565b5f614c4582614692565b9050919050565b614c5581614c3b565b82525050565b5f602082019050614c6e5f830184614c4c565b92915050565b5f614c7e82614692565b9050919050565b614c8e81614c74565b82525050565b5f602082019050614ca75f830184614c85565b92915050565b5f614cb782614692565b9050919050565b614cc781614cad565b82525050565b5f602082019050614ce05f830184614cbe565b92915050565b5f614cf082614671565b9050919050565b5f614d0182614ce6565b9050919050565b614d1181614cf7565b82525050565b5f602082019050614d2a5f830184614d08565b92915050565b5f81519050614d3e81614788565b92915050565b5f60208284031215614d5957614d586144f5565b5b5f614d6684828501614d30565b91505092915050565b5f602082019050614d825f8301846146b4565b92915050565b7f554e415554484f52495a454400000000000000000000000000000000000000005f82015250565b5f614dbc600c83614859565b9150614dc782614d88565b602082019050919050565b5f6020820190508181035f830152614de981614db0565b9050919050565b7f5245454e5452414e4359000000000000000000000000000000000000000000005f82015250565b5f614e24600a83614859565b9150614e2f82614df0565b602082019050919050565b5f6020820190508181035f830152614e5181614e18565b9050919050565b5f81905092915050565b7f5969656c642053747265616d696e672056302e312c20000000000000000000005f82015250565b5f614e96601683614e58565b9150614ea182614e62565b601682019050919050565b5f614eb68261484f565b614ec08185614e58565b9350614ed0818560208601614869565b80840191505092915050565b5f614ee682614e8a565b9150614ef28284614eac565b915081905092915050565b5f7fffffffff0000000000000000000000000000000000000000000000000000000082169050919050565b614f3181614efd565b82525050565b5f606082019050614f4a5f830186614aa9565b614f576020830185614aa9565b614f646040830184614f28565b949350505050565b5f602082019050614f7f5f830184614980565b92915050565b5f606082019050614f985f830186614aa9565b614fa56020830185614aa9565b614fb26040830184614aa9565b949350505050565b5f81519050614fc88161459c565b92915050565b5f60208284031215614fe357614fe26144f5565b5b5f614ff084828501614fba565b91505092915050565b5f60808201905061500c5f830187614aa9565b6150196020830186614640565b6150266040830185614aa9565b6150336060830184614640565b95945050505050565b7f4275666665722056302e312c20000000000000000000000000000000000000005f82015250565b5f615070600d83614e58565b915061507b8261503c565b600d82019050919050565b5f61509082615064565b915061509c8284614eac565b915081905092915050565b7f4e487b71000000000000000000000000000000000000000000000000000000005f52601160045260245ffd5b5f6150de82614593565b91506150e983614593565b9250828201905080821115615101576151006150a7565b5b92915050565b5f819050919050565b5f61512a61512561512084615107565b614668565b614593565b9050919050565b61513a81615110565b82525050565b5f60a0820190506151535f830188615131565b6151606020830187614640565b61516d6040830186614640565b61517a6060830185614640565b6151876080830184614640565b9695505050505050565b61519a81614ad1565b82525050565b6151a981614b07565b82525050565b5f60e0820190506151c25f83018a614aa9565b6151cf6020830189614aa9565b6151dc6040830188614640565b6151e96060830187614640565b6151f66080830186615191565b61520360a08301856151a0565b61521060c08301846151a0565b98975050505050505050565b5f60408201905061522f5f830185614aa9565b61523c6020830184614aa9565b9392505050565b5f6040820190506152565f830185614aa9565b6152636020830184614640565b9392505050565b5f5ffd5b7f4e487b71000000000000000000000000000000000000000000000000000000005f52604160045260245ffd5b6152a482614877565b810181811067ffffffffffffffff821117156152c3576152c261526e565b5b80604052505050565b5f6152d56144ec565b90506152e1828261529b565b919050565b5f67ffffffffffffffff821115615300576152ff61526e565b5b602082029050602081019050919050565b5f5ffd5b5f81519050615323816145c6565b92915050565b5f61533b615336846152e6565b6152cc565b9050808382526020820190506020840283018581111561535e5761535d615311565b5b835b8181101561538757806153738882615315565b845260208401935050602081019050615360565b5050509392505050565b5f82601f8301126153a5576153a461526a565b5b81516153b5848260208601615329565b91505092915050565b5f67ffffffffffffffff8211156153d8576153d761526e565b5b602082029050602081019050919050565b5f5ffd5b5f67ffffffffffffffff8211156154075761540661526e565b5b61541082614877565b9050602081019050919050565b5f61542f61542a846153ed565b6152cc565b90508281526020810184848401111561544b5761544a6153e9565b5b615456848285614869565b509392505050565b5f82601f8301126154725761547161526a565b5b815161548284826020860161541d565b91505092915050565b5f61549d615498846153be565b6152cc565b905080838252602082019050602084028301858111156154c0576154bf615311565b5b835b8181101561550757805167ffffffffffffffff8111156154e5576154e461526a565b5b8086016154f2898261545e565b855260208501945050506020810190506154c2565b5050509392505050565b5f82601f8301126155255761552461526a565b5b815161553584826020860161548b565b91505092915050565b5f67ffffffffffffffff8211156155585761555761526e565b5b602082029050602081019050919050565b5f61557b6155768461553e565b6152cc565b9050808382526020820190506020840283018581111561559e5761559d615311565b5b835b818110156155c757806155b38882614fba565b8452602084019350506020810190506155a0565b5050509392505050565b5f82601f8301126155e5576155e461526a565b5b81516155f5848260208601615569565b91505092915050565b5f5f5f60608486031215615615576156146144f5565b5b5f84015167ffffffffffffffff811115615632576156316144f9565b5b61563e86828701615391565b935050602084015167ffffffffffffffff81111561565f5761565e6144f9565b5b61566b86828701615511565b925050604084015167ffffffffffffffff81111561568c5761568b6144f9565b5b615698868287016155d1565b9150509250925092565b5f81519050919050565b5f82825260208201905092915050565b5f819050602082019050919050565b6156d48161451c565b82525050565b5f6156e583836156cb565b60208301905092915050565b5f602082019050919050565b5f615707826156a2565b61571181856156ac565b935061571c836156bc565b805f5b8381101561574c57815161573388826156da565b975061573e836156f1565b92505060018101905061571f565b5085935050505092915050565b5f81519050919050565b5f82825260208201905092915050565b5f819050602082019050919050565b5f81519050919050565b5f82825260208201905092915050565b5f6157a682615782565b6157b0818561578c565b93506157c0818560208601614869565b6157c981614877565b840191505092915050565b5f6157df838361579c565b905092915050565b5f602082019050919050565b5f6157fd82615759565b6158078185615763565b93508360208202850161581985615773565b805f5b85811015615854578484038952815161583585826157d4565b9450615840836157e7565b925060208a0199505060018101905061581c565b50829750879550505050505092915050565b5f81519050919050565b5f82825260208201905092915050565b5f819050602082019050919050565b61589881614593565b82525050565b5f6158a9838361588f565b60208301905092915050565b5f602082019050919050565b5f6158cb82615866565b6158d58185615870565b93506158e083615880565b805f5b838110156159105781516158f7888261589e565b9750615902836158b5565b9250506001810190506158e3565b5085935050505092915050565b5f6060820190508181035f83015261593581866156fd565b9050818103602083015261594981856157f3565b9050818103604083015261595d81846158c1565b9050949350505050565b5f6020828403121561597c5761597b6144f5565b5b5f82015167ffffffffffffffff811115615999576159986144f9565b5b6159a584828501615511565b9150509291505056fea26469706673582212203c30bbb24156e0a4fc9f794164eb4db0aa2f27fcc4b8e563fef5decf872b156864736f6c634300081e0033",
  "linkReferences": {},
  "deployedLinkReferences": {},
  "immutableReferences": {
    "16373": [
      {
        "length": 32,
        "start": 2759
      },
      {
        "length": 32,
        "start": 4852
      },
      {
        "length": 32,
        "start": 6882
      },
      {
        "length": 32,
        "start": 7215
      },
      {
        "length": 32,
        "start": 15048
      },
      {
        "length": 32,
        "start": 15226
      },
      {
        "length": 32,
        "start": 15700
      },
      {
        "length": 32,
        "start": 17343
      }
    ],
    "16505": [
      {
        "length": 32,
        "start": 13277
      },
      {
        "length": 32,
        "start": 14132
      },
      {
        "length": 32,
        "start": 14576
      },
      {
        "length": 32,
        "start": 15109
      },
      {
        "length": 32,
        "start": 15287
      },
      {
        "length": 32,
        "start": 15835
      },
      {
        "length": 32,
        "start": 16505
      },
      {
        "length": 32,
        "start": 16714
      },
      {
        "length": 32,
        "start": 17478
      }
    ],
    "16509": [
      {
        "length": 32,
        "start": 5878
      },
      {
        "length": 32,
        "start": 13627
      },
      {
        "length": 32,
        "start": 13873
      },
      {
        "length": 32,
        "start": 16174
      }
    ],
    "16516": [
      {
        "length": 32,
        "start": 14014
      },
      {
        "length": 32,
        "start": 16141
      }
    ]
  },
  "inputSourceName": "project/contracts/core/TellerWithYieldStreaming.sol",
  "buildInfoId": "solc-0_8_30-b812b6f9c8de22d6d072c72da0837b4069544e24"
}