{
  "_format": "hh3-artifact-1",
  "contractName": "PrimeBufferHelper",
  "sourceName": "contracts/core/PrimeBufferHelper.sol",
  "abi": [
    {
      "inputs": [
        {
          "internalType": "address",
          "name": "_primeStrategist",
          "type": "address"
        },
        {
          "internalType": "address",
          "name": "_vault",
          "type": "address"
        }
      ],
      "stateMutability": "nonpayable",
      "type": "constructor"
    },
    {
      "inputs": [
        {
          "internalType": "address",
          "name": "asset",
          "type": "address"
        },
        {
          "internalType": "uint256",
          "name": "amount",
          "type": "uint256"
        }
      ],
      "name": "getDepositManageCall",
      "outputs": [
        {
          "internalType": "address[]",
          "name": "targets",
          "type": "address[]"
        },
        {
          "internalType": "bytes[]",
          "name": "data",
          "type": "bytes[]"
        },
        {
          "internalType": "uint256[]",
          "name": "values",
          "type": "uint256[]"
        }
      ],
      "stateMutability": "view",
      "type": "function"
    },
    {
      "inputs": [
        {
          "internalType": "address",
          "name": "asset",
          "type": "address"
        },
        {
          "internalType": "uint256",
          "name": "amount",
          "type": "uint256"
        }
      ],
      "name": "getWithdrawManageCall",
      "outputs": [
        {
          "internalType": "address[]",
          "name": "targets",
          "type": "address[]"
        },
        {
          "internalType": "bytes[]",
          "name": "data",
          "type": "bytes[]"
        },
        {
          "internalType": "uint256[]",
          "name": "values",
          "type": "uint256[]"
        }
      ],
      "stateMutability": "view",
      "type": "function"
    },
    {
      "inputs": [],
      "name": "primeStrategist",
      "outputs": [
        {
          "internalType": "address",
          "name": "",
          "type": "address"
        }
      ],
      "stateMutability": "view",
      "type": "function"
    },
    {
      "inputs": [],
      "name": "vault",
      "outputs": [
        {
          "internalType": "address",
          "name": "",
          "type": "address"
        }
      ],
      "stateMutability": "view",
      "type": "function"
    }
  ],
  "bytecode": "0x60c060405234801561000f575f5ffd5b5060405161174a38038061174a833981810160405281019061003191906100fe565b8173ffffffffffffffffffffffffffffffffffffffff1660808173ffffffffffffffffffffffffffffffffffffffff16815250508073ffffffffffffffffffffffffffffffffffffffff1660a08173ffffffffffffffffffffffffffffffffffffffff1681525050505061013c565b5f5ffd5b5f73ffffffffffffffffffffffffffffffffffffffff82169050919050565b5f6100cd826100a4565b9050919050565b6100dd816100c3565b81146100e7575f5ffd5b50565b5f815190506100f8816100d4565b92915050565b5f5f60408385031215610114576101136100a0565b5b5f610121858286016100ea565b9250506020610132858286016100ea565b9150509250929050565b60805160a0516115a06101aa5f395f818161011201528181610b7f01528181610e070152610f6e01525f8181610133015281816102050152818161048401528181610544015281816107fb015281816108bb0152818161098901528181610d3b0152610f4a01526115a05ff3fe608060405234801561000f575f5ffd5b506004361061004a575f3560e01c8063975d168c1461004e578063b27c77bb14610080578063d6a16d49146100b2578063fbfa77cf146100d0575b5f5ffd5b61006860048036038101906100639190611021565b6100ee565b604051610077939291906112f8565b60405180910390f35b61009a60048036038101906100959190611021565b610b5b565b6040516100a9939291906112f8565b60405180910390f35b6100ba610f48565b6040516100c79190611351565b60405180910390f35b6100d8610f6c565b6040516100e59190611351565b60405180910390f35b60608060605f8573ffffffffffffffffffffffffffffffffffffffff1663dd62ed3e7f00000000000000000000000000000000000000000000000000000000000000007f00000000000000000000000000000000000000000000000000000000000000006040518363ffffffff1660e01b815260040161016f92919061136a565b602060405180830381865afa15801561018a573d5f5f3e3d5ffd5b505050506040513d601f19601f820116820180604052508101906101ae91906113a5565b90508481106103e157600167ffffffffffffffff8111156101d2576101d16113d0565b5b6040519080825280602002602001820160405280156102005781602001602082028036833780820191505090505b5093507f0000000000000000000000000000000000000000000000000000000000000000845f81518110610237576102366113fd565b5b602002602001019073ffffffffffffffffffffffffffffffffffffffff16908173ffffffffffffffffffffffffffffffffffffffff1681525050600167ffffffffffffffff81111561028c5761028b6113d0565b5b6040519080825280602002602001820160405280156102bf57816020015b60608152602001906001900390816102aa5790505b50925085856040516024016102d5929190611439565b6040516020818303038152906040527f47e7ef24000000000000000000000000000000000000000000000000000000007bffffffffffffffffffffffffffffffffffffffffffffffffffffffff19166020820180517bffffffffffffffffffffffffffffffffffffffffffffffffffffffff8381831617835250505050835f81518110610365576103646113fd565b5b6020026020010181905250600167ffffffffffffffff81111561038b5761038a6113d0565b5b6040519080825280602002602001820160405280156103b95781602001602082028036833780820191505090505b5091505f825f815181106103d0576103cf6113fd565b5b602002602001018181525050610b53565b5f810361071057600267ffffffffffffffff811115610403576104026113d0565b5b6040519080825280602002602001820160405280156104315781602001602082028036833780820191505090505b50935085845f81518110610448576104476113fd565b5b602002602001019073ffffffffffffffffffffffffffffffffffffffff16908173ffffffffffffffffffffffffffffffffffffffff16815250507f0000000000000000000000000000000000000000000000000000000000000000846001815181106104b7576104b66113fd565b5b602002602001019073ffffffffffffffffffffffffffffffffffffffff16908173ffffffffffffffffffffffffffffffffffffffff1681525050600267ffffffffffffffff81111561050c5761050b6113d0565b5b60405190808252806020026020018201604052801561053f57816020015b606081526020019060019003908161052a5790505b5092507f000000000000000000000000000000000000000000000000000000000000000085604051602401610575929190611439565b6040516020818303038152906040527f095ea7b3000000000000000000000000000000000000000000000000000000007bffffffffffffffffffffffffffffffffffffffffffffffffffffffff19166020820180517bffffffffffffffffffffffffffffffffffffffffffffffffffffffff8381831617835250505050835f81518110610605576106046113fd565b5b60200260200101819052508585604051602401610623929190611439565b6040516020818303038152906040527f47e7ef24000000000000000000000000000000000000000000000000000000007bffffffffffffffffffffffffffffffffffffffffffffffffffffffff19166020820180517bffffffffffffffffffffffffffffffffffffffffffffffffffffffff8381831617835250505050836001815181106106b4576106b36113fd565b5b6020026020010181905250600267ffffffffffffffff8111156106da576106d96113d0565b5b6040519080825280602002602001820160405280156107085781602001602082028036833780820191505090505b509150610b52565b600367ffffffffffffffff81111561072b5761072a6113d0565b5b6040519080825280602002602001820160405280156107595781602001602082028036833780820191505090505b50935085845f815181106107705761076f6113fd565b5b602002602001019073ffffffffffffffffffffffffffffffffffffffff16908173ffffffffffffffffffffffffffffffffffffffff168152505085846001815181106107bf576107be6113fd565b5b602002602001019073ffffffffffffffffffffffffffffffffffffffff16908173ffffffffffffffffffffffffffffffffffffffff16815250507f00000000000000000000000000000000000000000000000000000000000000008460028151811061082e5761082d6113fd565b5b602002602001019073ffffffffffffffffffffffffffffffffffffffff16908173ffffffffffffffffffffffffffffffffffffffff1681525050600367ffffffffffffffff811115610883576108826113d0565b5b6040519080825280602002602001820160405280156108b657816020015b60608152602001906001900390816108a15790505b5092507f00000000000000000000000000000000000000000000000000000000000000005f6040516024016108ec9291906114ae565b6040516020818303038152906040527f095ea7b3000000000000000000000000000000000000000000000000000000007bffffffffffffffffffffffffffffffffffffffffffffffffffffffff19166020820180517bffffffffffffffffffffffffffffffffffffffffffffffffffffffff8381831617835250505050835f8151811061097c5761097b6113fd565b5b60200260200101819052507f0000000000000000000000000000000000000000000000000000000000000000856040516024016109ba929190611439565b6040516020818303038152906040527f095ea7b3000000000000000000000000000000000000000000000000000000007bffffffffffffffffffffffffffffffffffffffffffffffffffffffff19166020820180517bffffffffffffffffffffffffffffffffffffffffffffffffffffffff838183161783525050505083600181518110610a4b57610a4a6113fd565b5b60200260200101819052508585604051602401610a69929190611439565b6040516020818303038152906040527f47e7ef24000000000000000000000000000000000000000000000000000000007bffffffffffffffffffffffffffffffffffffffffffffffffffffffff19166020820180517bffffffffffffffffffffffffffffffffffffffffffffffffffffffff838183161783525050505083600281518110610afa57610af96113fd565b5b6020026020010181905250600367ffffffffffffffff811115610b2057610b1f6113d0565b5b604051908082528060200260200182016040528015610b4e5781602001602082028036833780820191505090505b5091505b5b509250925092565b60608060605f8573ffffffffffffffffffffffffffffffffffffffff166370a082317f00000000000000000000000000000000000000000000000000000000000000006040518263ffffffff1660e01b8152600401610bba9190611351565b602060405180830381865afa158015610bd5573d5f5f3e3d5ffd5b505050506040513d601f19601f82011682018060405250810190610bf991906113a5565b9050848110610ced575f67ffffffffffffffff811115610c1c57610c1b6113d0565b5b604051908082528060200260200182016040528015610c4a5781602001602082028036833780820191505090505b5093505f67ffffffffffffffff811115610c6757610c666113d0565b5b604051908082528060200260200182016040528015610c9a57816020015b6060815260200190600190039081610c855790505b5092505f67ffffffffffffffff811115610cb757610cb66113d0565b5b604051908082528060200260200182016040528015610ce55781602001602082028036833780820191505090505b509150610f40565b600167ffffffffffffffff811115610d0857610d076113d0565b5b604051908082528060200260200182016040528015610d365781602001602082028036833780820191505090505b5093507f0000000000000000000000000000000000000000000000000000000000000000845f81518110610d6d57610d6c6113fd565b5b602002602001019073ffffffffffffffffffffffffffffffffffffffff16908173ffffffffffffffffffffffffffffffffffffffff1681525050600167ffffffffffffffff811115610dc257610dc16113d0565b5b604051908082528060200260200182016040528015610df557816020015b6060815260200190600190039081610de05790505b509250858186610e059190611502565b7f0000000000000000000000000000000000000000000000000000000000000000604051602401610e3893929190611535565b6040516020818303038152906040527f69328dec000000000000000000000000000000000000000000000000000000007bffffffffffffffffffffffffffffffffffffffffffffffffffffffff19166020820180517bffffffffffffffffffffffffffffffffffffffffffffffffffffffff8381831617835250505050835f81518110610ec857610ec76113fd565b5b6020026020010181905250600167ffffffffffffffff811115610eee57610eed6113d0565b5b604051908082528060200260200182016040528015610f1c5781602001602082028036833780820191505090505b5091505f825f81518110610f3357610f326113fd565b5b6020026020010181815250505b509250925092565b7f000000000000000000000000000000000000000000000000000000000000000081565b7f000000000000000000000000000000000000000000000000000000000000000081565b5f5ffd5b5f73ffffffffffffffffffffffffffffffffffffffff82169050919050565b5f610fbd82610f94565b9050919050565b610fcd81610fb3565b8114610fd7575f5ffd5b50565b5f81359050610fe881610fc4565b92915050565b5f819050919050565b61100081610fee565b811461100a575f5ffd5b50565b5f8135905061101b81610ff7565b92915050565b5f5f6040838503121561103757611036610f90565b5b5f61104485828601610fda565b92505060206110558582860161100d565b9150509250929050565b5f81519050919050565b5f82825260208201905092915050565b5f819050602082019050919050565b61109181610fb3565b82525050565b5f6110a28383611088565b60208301905092915050565b5f602082019050919050565b5f6110c48261105f565b6110ce8185611069565b93506110d983611079565b805f5b838110156111095781516110f08882611097565b97506110fb836110ae565b9250506001810190506110dc565b5085935050505092915050565b5f81519050919050565b5f82825260208201905092915050565b5f819050602082019050919050565b5f81519050919050565b5f82825260208201905092915050565b8281835e5f83830152505050565b5f601f19601f8301169050919050565b5f6111818261113f565b61118b8185611149565b935061119b818560208601611159565b6111a481611167565b840191505092915050565b5f6111ba8383611177565b905092915050565b5f602082019050919050565b5f6111d882611116565b6111e28185611120565b9350836020820285016111f485611130565b805f5b8581101561122f578484038952815161121085826111af565b945061121b836111c2565b925060208a019950506001810190506111f7565b50829750879550505050505092915050565b5f81519050919050565b5f82825260208201905092915050565b5f819050602082019050919050565b61127381610fee565b82525050565b5f611284838361126a565b60208301905092915050565b5f602082019050919050565b5f6112a682611241565b6112b0818561124b565b93506112bb8361125b565b805f5b838110156112eb5781516112d28882611279565b97506112dd83611290565b9250506001810190506112be565b5085935050505092915050565b5f6060820190508181035f83015261131081866110ba565b9050818103602083015261132481856111ce565b90508181036040830152611338818461129c565b9050949350505050565b61134b81610fb3565b82525050565b5f6020820190506113645f830184611342565b92915050565b5f60408201905061137d5f830185611342565b61138a6020830184611342565b9392505050565b5f8151905061139f81610ff7565b92915050565b5f602082840312156113ba576113b9610f90565b5b5f6113c784828501611391565b91505092915050565b7f4e487b71000000000000000000000000000000000000000000000000000000005f52604160045260245ffd5b7f4e487b71000000000000000000000000000000000000000000000000000000005f52603260045260245ffd5b61143381610fee565b82525050565b5f60408201905061144c5f830185611342565b611459602083018461142a565b9392505050565b5f819050919050565b5f60ff82169050919050565b5f819050919050565b5f61149861149361148e84611460565b611475565b611469565b9050919050565b6114a88161147e565b82525050565b5f6040820190506114c15f830185611342565b6114ce602083018461149f565b9392505050565b7f4e487b71000000000000000000000000000000000000000000000000000000005f52601160045260245ffd5b5f61150c82610fee565b915061151783610fee565b925082820390508181111561152f5761152e6114d5565b5b92915050565b5f6060820190506115485f830186611342565b611555602083018561142a565b6115626040830184611342565b94935050505056fea26469706673582212208898c754e8017690b93e30d13ba8927f86e89fd02ede6fa45e40d845ca53570164736f6c634300081e0033",
  "linkReferences": {},
  "deployedLinkReferences": {},
  "immutableReferences": {
    "14789": [
      {
        "length": 32,
        "start": 307
      },
      {
        "length": 32,
        "start": 517
      },
      {
        "length": 32,
        "start": 1156
      },
      {
        "length": 32,
        "start": 1348
      },
      {
        "length": 32,
        "start": 2043
      },
      {
        "length": 32,
        "start": 2235
      },
      {
        "length": 32,
        "start": 2441
      },
      {
        "length": 32,
        "start": 3387
      },
      {
        "length": 32,
        "start": 3914
      }
    ],
    "14792": [
      {
        "length": 32,
        "start": 274
      },
      {
        "length": 32,
        "start": 2943
      },
      {
        "length": 32,
        "start": 3591
      },
      {
        "length": 32,
        "start": 3950
      }
    ]
  },
  "inputSourceName": "project/contracts/core/PrimeBufferHelper.sol",
  "buildInfoId": "solc-0_8_30-b812b6f9c8de22d6d072c72da0837b4069544e24"
}