{
  "_format": "hh3-artifact-1",
  "contractName": "PrimeRBAC",
  "sourceName": "contracts/auth/PrimeRBAC.sol",
  "abi": [
    {
      "inputs": [],
      "stateMutability": "nonpayable",
      "type": "constructor"
    },
    {
      "inputs": [],
      "name": "AccessControlBadConfirmation",
      "type": "error"
    },
    {
      "inputs": [
        {
          "internalType": "address",
          "name": "account",
          "type": "address"
        },
        {
          "internalType": "bytes32",
          "name": "neededRole",
          "type": "bytes32"
        }
      ],
      "name": "AccessControlUnauthorizedAccount",
      "type": "error"
    },
    {
      "anonymous": false,
      "inputs": [
        {
          "indexed": true,
          "internalType": "bytes32",
          "name": "role",
          "type": "bytes32"
        },
        {
          "indexed": true,
          "internalType": "bytes32",
          "name": "previousAdminRole",
          "type": "bytes32"
        },
        {
          "indexed": true,
          "internalType": "bytes32",
          "name": "newAdminRole",
          "type": "bytes32"
        }
      ],
      "name": "RoleAdminChanged",
      "type": "event"
    },
    {
      "anonymous": false,
      "inputs": [
        {
          "indexed": true,
          "internalType": "bytes32",
          "name": "role",
          "type": "bytes32"
        },
        {
          "indexed": true,
          "internalType": "address",
          "name": "account",
          "type": "address"
        },
        {
          "indexed": true,
          "internalType": "address",
          "name": "sender",
          "type": "address"
        }
      ],
      "name": "RoleGranted",
      "type": "event"
    },
    {
      "anonymous": false,
      "inputs": [
        {
          "indexed": true,
          "internalType": "bytes32",
          "name": "role",
          "type": "bytes32"
        },
        {
          "indexed": true,
          "internalType": "address",
          "name": "account",
          "type": "address"
        },
        {
          "indexed": true,
          "internalType": "address",
          "name": "sender",
          "type": "address"
        }
      ],
      "name": "RoleRevoked",
      "type": "event"
    },
    {
      "inputs": [],
      "name": "DEFAULT_ADMIN_ROLE",
      "outputs": [
        {
          "internalType": "bytes32",
          "name": "",
          "type": "bytes32"
        }
      ],
      "stateMutability": "view",
      "type": "function"
    },
    {
      "inputs": [],
      "name": "EMERGENCY_ADMIN_ROLE",
      "outputs": [
        {
          "internalType": "bytes32",
          "name": "",
          "type": "bytes32"
        }
      ],
      "stateMutability": "view",
      "type": "function"
    },
    {
      "inputs": [],
      "name": "PROTOCOL_ADMIN_ROLE",
      "outputs": [
        {
          "internalType": "bytes32",
          "name": "",
          "type": "bytes32"
        }
      ],
      "stateMutability": "view",
      "type": "function"
    },
    {
      "inputs": [
        {
          "internalType": "bytes32",
          "name": "role",
          "type": "bytes32"
        }
      ],
      "name": "getRoleAdmin",
      "outputs": [
        {
          "internalType": "bytes32",
          "name": "",
          "type": "bytes32"
        }
      ],
      "stateMutability": "view",
      "type": "function"
    },
    {
      "inputs": [
        {
          "internalType": "bytes32",
          "name": "role",
          "type": "bytes32"
        },
        {
          "internalType": "uint256",
          "name": "index",
          "type": "uint256"
        }
      ],
      "name": "getRoleMember",
      "outputs": [
        {
          "internalType": "address",
          "name": "",
          "type": "address"
        }
      ],
      "stateMutability": "view",
      "type": "function"
    },
    {
      "inputs": [
        {
          "internalType": "bytes32",
          "name": "role",
          "type": "bytes32"
        }
      ],
      "name": "getRoleMemberCount",
      "outputs": [
        {
          "internalType": "uint256",
          "name": "",
          "type": "uint256"
        }
      ],
      "stateMutability": "view",
      "type": "function"
    },
    {
      "inputs": [
        {
          "internalType": "bytes32",
          "name": "role",
          "type": "bytes32"
        }
      ],
      "name": "getRoleMembers",
      "outputs": [
        {
          "internalType": "address[]",
          "name": "",
          "type": "address[]"
        }
      ],
      "stateMutability": "view",
      "type": "function"
    },
    {
      "inputs": [
        {
          "internalType": "address",
          "name": "emergencyAdmin_",
          "type": "address"
        }
      ],
      "name": "grantEmergencyAdminRole",
      "outputs": [],
      "stateMutability": "nonpayable",
      "type": "function"
    },
    {
      "inputs": [
        {
          "internalType": "address",
          "name": "admin_",
          "type": "address"
        }
      ],
      "name": "grantProtocolAdminRole",
      "outputs": [],
      "stateMutability": "nonpayable",
      "type": "function"
    },
    {
      "inputs": [
        {
          "internalType": "bytes32",
          "name": "role",
          "type": "bytes32"
        },
        {
          "internalType": "address",
          "name": "account",
          "type": "address"
        }
      ],
      "name": "grantRole",
      "outputs": [],
      "stateMutability": "nonpayable",
      "type": "function"
    },
    {
      "inputs": [
        {
          "internalType": "address",
          "name": "emergencyAdmin_",
          "type": "address"
        }
      ],
      "name": "hasEmergencyAdminRole",
      "outputs": [
        {
          "internalType": "bool",
          "name": "",
          "type": "bool"
        }
      ],
      "stateMutability": "view",
      "type": "function"
    },
    {
      "inputs": [
        {
          "internalType": "address",
          "name": "admin_",
          "type": "address"
        }
      ],
      "name": "hasProtocolAdminRole",
      "outputs": [
        {
          "internalType": "bool",
          "name": "",
          "type": "bool"
        }
      ],
      "stateMutability": "view",
      "type": "function"
    },
    {
      "inputs": [
        {
          "internalType": "bytes32",
          "name": "role",
          "type": "bytes32"
        },
        {
          "internalType": "address",
          "name": "account",
          "type": "address"
        }
      ],
      "name": "hasRole",
      "outputs": [
        {
          "internalType": "bool",
          "name": "",
          "type": "bool"
        }
      ],
      "stateMutability": "view",
      "type": "function"
    },
    {
      "inputs": [
        {
          "internalType": "bytes32",
          "name": "role",
          "type": "bytes32"
        },
        {
          "internalType": "address",
          "name": "callerConfirmation",
          "type": "address"
        }
      ],
      "name": "renounceRole",
      "outputs": [],
      "stateMutability": "nonpayable",
      "type": "function"
    },
    {
      "inputs": [
        {
          "internalType": "bytes32",
          "name": "role",
          "type": "bytes32"
        },
        {
          "internalType": "address",
          "name": "account",
          "type": "address"
        }
      ],
      "name": "revokeRole",
      "outputs": [],
      "stateMutability": "nonpayable",
      "type": "function"
    },
    {
      "inputs": [
        {
          "internalType": "bytes4",
          "name": "interfaceId",
          "type": "bytes4"
        }
      ],
      "name": "supportsInterface",
      "outputs": [
        {
          "internalType": "bool",
          "name": "",
          "type": "bool"
        }
      ],
      "stateMutability": "view",
      "type": "function"
    }
  ],
  "bytecode": "0x608060405234801561000f575f5ffd5b506100407fd0c934f24ef5a377dc3832429ce607cbe940a3ca3c6cd7e532bd35b4b212d196336100c660201b60201c565b506100717fd0c934f24ef5a377dc3832429ce607cbe940a3ca3c6cd7e532bd35b4b212d1968061010f60201b60201c565b6100c17f5358bcfd81d1ef3da152b1755e1c3c6739686fa7e83dbcad0071568cc4b73a637fd0c934f24ef5a377dc3832429ce607cbe940a3ca3c6cd7e532bd35b4b212d19661010f60201b60201c565b6103a8565b5f5f6100d8848461016d60201b60201c565b90508015610105576101038360015f8781526020019081526020015f2061026260201b90919060201c565b505b8091505092915050565b5f61011f8361029560201b60201c565b9050815f5f8581526020019081526020015f20600101819055508181847fbd79b86ffe0ab8e8776151514217cd7cacd52c909f66475c3af44e129f0b00ff60405160405180910390a4505050565b5f61017e83836102b160201b60201c565b6102585760015f5f8581526020019081526020015f205f015f8473ffffffffffffffffffffffffffffffffffffffff1673ffffffffffffffffffffffffffffffffffffffff1681526020019081526020015f205f6101000a81548160ff0219169083151502179055506101f561031460201b60201c565b73ffffffffffffffffffffffffffffffffffffffff168273ffffffffffffffffffffffffffffffffffffffff16847f2f8788117e7eff1d82e926ec794901d17c78024a50270940304540a733656f0d60405160405180910390a46001905061025c565b5f90505b92915050565b5f61028d835f018373ffffffffffffffffffffffffffffffffffffffff165f1b61031b60201b60201c565b905092915050565b5f5f5f8381526020019081526020015f20600101549050919050565b5f5f5f8481526020019081526020015f205f015f8373ffffffffffffffffffffffffffffffffffffffff1673ffffffffffffffffffffffffffffffffffffffff1681526020019081526020015f205f9054906101000a900460ff16905092915050565b5f33905090565b5f61032c838361038860201b60201c565b61037e57825f0182908060018154018082558091505060019003905f5260205f20015f9091909190915055825f0180549050836001015f8481526020019081526020015f208190555060019050610382565b5f90505b92915050565b5f5f836001015f8481526020019081526020015f20541415905092915050565b6111a4806103b55f395ff3fe608060405234801561000f575f5ffd5b50600436106100fe575f3560e01c806391d1485411610095578063b31fb3bc11610064578063b31fb3bc146102d0578063ca15c873146102ec578063d35911f21461031c578063d547741f1461034c576100fe565b806391d1485414610234578063a217fddf14610264578063a3246ad314610282578063aee2bc86146102b2576100fe565b806336568abe116100d157806336568abe146101ae5780636e76fc8f146101ca5780637427bc66146101e85780639010d07c14610204576100fe565b806301ffc9a714610102578063248a9ca3146101325780632f2ff15d146101625780632f41ca961461017e575b5f5ffd5b61011c60048036038101906101179190610d4e565b610368565b6040516101299190610d93565b60405180910390f35b61014c60048036038101906101479190610ddf565b6103e1565b6040516101599190610e19565b60405180910390f35b61017c60048036038101906101779190610e8c565b6103fd565b005b61019860048036038101906101939190610eca565b61041f565b6040516101a59190610d93565b60405180910390f35b6101c860048036038101906101c39190610e8c565b610451565b005b6101d26104cc565b6040516101df9190610e19565b60405180910390f35b61020260048036038101906101fd9190610eca565b6104f0565b005b61021e60048036038101906102199190610f28565b61051d565b60405161022b9190610f75565b60405180910390f35b61024e60048036038101906102499190610e8c565b610549565b60405161025b9190610d93565b60405180910390f35b61026c6105ac565b6040516102799190610e19565b60405180910390f35b61029c60048036038101906102979190610ddf565b6105b2565b6040516102a99190611045565b60405180910390f35b6102ba6105d4565b6040516102c79190610e19565b60405180910390f35b6102ea60048036038101906102e59190610eca565b6105f8565b005b61030660048036038101906103019190610ddf565b610625565b6040516103139190611074565b60405180910390f35b61033660048036038101906103319190610eca565b610646565b6040516103439190610d93565b60405180910390f35b61036660048036038101906103619190610e8c565b610678565b005b5f7f5a05180f000000000000000000000000000000000000000000000000000000007bffffffffffffffffffffffffffffffffffffffffffffffffffffffff1916827bffffffffffffffffffffffffffffffffffffffffffffffffffffffff191614806103da57506103d98261069a565b5b9050919050565b5f5f5f8381526020019081526020015f20600101549050919050565b610406826103e1565b61040f81610713565b6104198383610727565b50505050565b5f61044a7f5358bcfd81d1ef3da152b1755e1c3c6739686fa7e83dbcad0071568cc4b73a6383610549565b9050919050565b61045961076a565b73ffffffffffffffffffffffffffffffffffffffff168173ffffffffffffffffffffffffffffffffffffffff16146104bd576040517f6697b23200000000000000000000000000000000000000000000000000000000815260040160405180910390fd5b6104c78282610771565b505050565b7f5358bcfd81d1ef3da152b1755e1c3c6739686fa7e83dbcad0071568cc4b73a6381565b61051a7fd0c934f24ef5a377dc3832429ce607cbe940a3ca3c6cd7e532bd35b4b212d196826103fd565b50565b5f6105418260015f8681526020019081526020015f206107b490919063ffffffff16565b905092915050565b5f5f5f8481526020019081526020015f205f015f8373ffffffffffffffffffffffffffffffffffffffff1673ffffffffffffffffffffffffffffffffffffffff1681526020019081526020015f205f9054906101000a900460ff16905092915050565b5f5f1b81565b60606105cd60015f8481526020019081526020015f206107cb565b9050919050565b7fd0c934f24ef5a377dc3832429ce607cbe940a3ca3c6cd7e532bd35b4b212d19681565b6106227f5358bcfd81d1ef3da152b1755e1c3c6739686fa7e83dbcad0071568cc4b73a63826103fd565b50565b5f61063f60015f8481526020019081526020015f206107ea565b9050919050565b5f6106717fd0c934f24ef5a377dc3832429ce607cbe940a3ca3c6cd7e532bd35b4b212d19683610549565b9050919050565b610681826103e1565b61068a81610713565b6106948383610771565b50505050565b5f7f7965db0b000000000000000000000000000000000000000000000000000000007bffffffffffffffffffffffffffffffffffffffffffffffffffffffff1916827bffffffffffffffffffffffffffffffffffffffffffffffffffffffff1916148061070c575061070b826107fd565b5b9050919050565b6107248161071f61076a565b610866565b50565b5f5f61073384846108b7565b905080156107605761075e8360015f8781526020019081526020015f206109a090919063ffffffff16565b505b8091505092915050565b5f33905090565b5f5f61077d84846109cd565b905080156107aa576107a88360015f8781526020019081526020015f20610ab690919063ffffffff16565b505b8091505092915050565b5f6107c1835f0183610ae3565b5f1c905092915050565b60605f6107d9835f01610b0a565b905060608190508092505050919050565b5f6107f6825f01610b63565b9050919050565b5f7f01ffc9a7000000000000000000000000000000000000000000000000000000007bffffffffffffffffffffffffffffffffffffffffffffffffffffffff1916827bffffffffffffffffffffffffffffffffffffffffffffffffffffffff1916149050919050565b6108708282610549565b6108b35780826040517fe2517d3f0000000000000000000000000000000000000000000000000000000081526004016108aa92919061108d565b60405180910390fd5b5050565b5f6108c28383610549565b6109965760015f5f8581526020019081526020015f205f015f8473ffffffffffffffffffffffffffffffffffffffff1673ffffffffffffffffffffffffffffffffffffffff1681526020019081526020015f205f6101000a81548160ff02191690831515021790555061093361076a565b73ffffffffffffffffffffffffffffffffffffffff168273ffffffffffffffffffffffffffffffffffffffff16847f2f8788117e7eff1d82e926ec794901d17c78024a50270940304540a733656f0d60405160405180910390a46001905061099a565b5f90505b92915050565b5f6109c5835f018373ffffffffffffffffffffffffffffffffffffffff165f1b610b72565b905092915050565b5f6109d88383610549565b15610aac575f5f5f8581526020019081526020015f205f015f8473ffffffffffffffffffffffffffffffffffffffff1673ffffffffffffffffffffffffffffffffffffffff1681526020019081526020015f205f6101000a81548160ff021916908315150217905550610a4961076a565b73ffffffffffffffffffffffffffffffffffffffff168273ffffffffffffffffffffffffffffffffffffffff16847ff6391f5c32d9c69d2a47ea670b442974b53935d1edc7fd64eb21e047a839171b60405160405180910390a460019050610ab0565b5f90505b92915050565b5f610adb835f018373ffffffffffffffffffffffffffffffffffffffff165f1b610bd9565b905092915050565b5f825f018281548110610af957610af86110b4565b5b905f5260205f200154905092915050565b6060815f01805480602002602001604051908101604052809291908181526020018280548015610b5757602002820191905f5260205f20905b815481526020019060010190808311610b43575b50505050509050919050565b5f815f01805490509050919050565b5f610b7d8383610cd5565b610bcf57825f0182908060018154018082558091505060019003905f5260205f20015f9091909190915055825f0180549050836001015f8481526020019081526020015f208190555060019050610bd3565b5f90505b92915050565b5f5f836001015f8481526020019081526020015f205490505f8114610cca575f600182610c06919061110e565b90505f6001865f0180549050610c1c919061110e565b9050808214610c82575f865f018281548110610c3b57610c3a6110b4565b5b905f5260205f200154905080875f018481548110610c5c57610c5b6110b4565b5b905f5260205f20018190555083876001015f8381526020019081526020015f2081905550505b855f01805480610c9557610c94611141565b5b600190038181905f5260205f20015f90559055856001015f8681526020019081526020015f205f905560019350505050610ccf565b5f9150505b92915050565b5f5f836001015f8481526020019081526020015f20541415905092915050565b5f5ffd5b5f7fffffffff0000000000000000000000000000000000000000000000000000000082169050919050565b610d2d81610cf9565b8114610d37575f5ffd5b50565b5f81359050610d4881610d24565b92915050565b5f60208284031215610d6357610d62610cf5565b5b5f610d7084828501610d3a565b91505092915050565b5f8115159050919050565b610d8d81610d79565b82525050565b5f602082019050610da65f830184610d84565b92915050565b5f819050919050565b610dbe81610dac565b8114610dc8575f5ffd5b50565b5f81359050610dd981610db5565b92915050565b5f60208284031215610df457610df3610cf5565b5b5f610e0184828501610dcb565b91505092915050565b610e1381610dac565b82525050565b5f602082019050610e2c5f830184610e0a565b92915050565b5f73ffffffffffffffffffffffffffffffffffffffff82169050919050565b5f610e5b82610e32565b9050919050565b610e6b81610e51565b8114610e75575f5ffd5b50565b5f81359050610e8681610e62565b92915050565b5f5f60408385031215610ea257610ea1610cf5565b5b5f610eaf85828601610dcb565b9250506020610ec085828601610e78565b9150509250929050565b5f60208284031215610edf57610ede610cf5565b5b5f610eec84828501610e78565b91505092915050565b5f819050919050565b610f0781610ef5565b8114610f11575f5ffd5b50565b5f81359050610f2281610efe565b92915050565b5f5f60408385031215610f3e57610f3d610cf5565b5b5f610f4b85828601610dcb565b9250506020610f5c85828601610f14565b9150509250929050565b610f6f81610e51565b82525050565b5f602082019050610f885f830184610f66565b92915050565b5f81519050919050565b5f82825260208201905092915050565b5f819050602082019050919050565b610fc081610e51565b82525050565b5f610fd18383610fb7565b60208301905092915050565b5f602082019050919050565b5f610ff382610f8e565b610ffd8185610f98565b935061100883610fa8565b805f5b8381101561103857815161101f8882610fc6565b975061102a83610fdd565b92505060018101905061100b565b5085935050505092915050565b5f6020820190508181035f83015261105d8184610fe9565b905092915050565b61106e81610ef5565b82525050565b5f6020820190506110875f830184611065565b92915050565b5f6040820190506110a05f830185610f66565b6110ad6020830184610e0a565b9392505050565b7f4e487b71000000000000000000000000000000000000000000000000000000005f52603260045260245ffd5b7f4e487b71000000000000000000000000000000000000000000000000000000005f52601160045260245ffd5b5f61111882610ef5565b915061112383610ef5565b925082820390508181111561113b5761113a6110e1565b5b92915050565b7f4e487b71000000000000000000000000000000000000000000000000000000005f52603160045260245ffdfea264697066735822122056efee7ae01af0ccb087dbad5b60680a6985993208d6ab4083115a353650165d64736f6c634300081e0033",
  "linkReferences": {},
  "deployedLinkReferences": {},
  "immutableReferences": {},
  "inputSourceName": "project/contracts/auth/PrimeRBAC.sol",
  "buildInfoId": "solc-0_8_30-b812b6f9c8de22d6d072c72da0837b4069544e24"
}