{
  "_format": "hh3-artifact-1",
  "contractName": "DelayedWithdraw",
  "sourceName": "contracts/core/DelayedWithdraw.sol",
  "abi": [
    {
      "inputs": [
        {
          "internalType": "address",
          "name": "_primeRBAC",
          "type": "address"
        },
        {
          "internalType": "address",
          "name": "_vault",
          "type": "address"
        },
        {
          "internalType": "address",
          "name": "_accountant",
          "type": "address"
        },
        {
          "internalType": "address",
          "name": "_teller",
          "type": "address"
        },
        {
          "internalType": "address",
          "name": "_payoutAddress",
          "type": "address"
        }
      ],
      "stateMutability": "nonpayable",
      "type": "constructor"
    },
    {
      "inputs": [],
      "name": "DelayedWithdraw__AlreadySetup",
      "type": "error"
    },
    {
      "inputs": [],
      "name": "DelayedWithdraw__BadAddress",
      "type": "error"
    },
    {
      "inputs": [],
      "name": "DelayedWithdraw__CallerNotBoringVault",
      "type": "error"
    },
    {
      "inputs": [],
      "name": "DelayedWithdraw__CannotWithdrawBoringToken",
      "type": "error"
    },
    {
      "inputs": [],
      "name": "DelayedWithdraw__NoSharesToWithdraw",
      "type": "error"
    },
    {
      "inputs": [],
      "name": "DelayedWithdraw__Paused",
      "type": "error"
    },
    {
      "inputs": [],
      "name": "DelayedWithdraw__ThirdPartyCompletionNotAllowed",
      "type": "error"
    },
    {
      "inputs": [],
      "name": "DelayedWithdraw__WithdrawFeeTooHigh",
      "type": "error"
    },
    {
      "inputs": [],
      "name": "DelayedWithdraw__WithdrawNotMatured",
      "type": "error"
    },
    {
      "inputs": [],
      "name": "DelayedWithdraw__WithdrawsNotAllowed",
      "type": "error"
    },
    {
      "inputs": [],
      "name": "NOT_PROTOCOL_ADMIN",
      "type": "error"
    },
    {
      "inputs": [],
      "name": "ZERO_ADDRESS",
      "type": "error"
    },
    {
      "anonymous": false,
      "inputs": [
        {
          "indexed": true,
          "internalType": "address",
          "name": "user",
          "type": "address"
        },
        {
          "indexed": true,
          "internalType": "contract Authority",
          "name": "newAuthority",
          "type": "address"
        }
      ],
      "name": "AuthorityUpdated",
      "type": "event"
    },
    {
      "anonymous": false,
      "inputs": [
        {
          "indexed": false,
          "internalType": "address",
          "name": "newFeeAddress",
          "type": "address"
        }
      ],
      "name": "FeeAddressSet",
      "type": "event"
    },
    {
      "anonymous": false,
      "inputs": [
        {
          "indexed": true,
          "internalType": "address",
          "name": "user",
          "type": "address"
        },
        {
          "indexed": true,
          "internalType": "address",
          "name": "newOwner",
          "type": "address"
        }
      ],
      "name": "OwnershipTransferred",
      "type": "event"
    },
    {
      "anonymous": false,
      "inputs": [],
      "name": "Paused",
      "type": "event"
    },
    {
      "anonymous": false,
      "inputs": [
        {
          "indexed": false,
          "internalType": "bool",
          "name": "_pullFundsFromVault",
          "type": "bool"
        }
      ],
      "name": "PullFundsFromVaultUpdated",
      "type": "event"
    },
    {
      "anonymous": false,
      "inputs": [
        {
          "indexed": true,
          "internalType": "address",
          "name": "asset",
          "type": "address"
        },
        {
          "indexed": false,
          "internalType": "uint64",
          "name": "withdrawDelay",
          "type": "uint64"
        },
        {
          "indexed": false,
          "internalType": "uint16",
          "name": "withdrawFee",
          "type": "uint16"
        }
      ],
      "name": "SetupWithdrawalsInAsset",
      "type": "event"
    },
    {
      "anonymous": false,
      "inputs": [
        {
          "indexed": true,
          "internalType": "address",
          "name": "account",
          "type": "address"
        },
        {
          "indexed": true,
          "internalType": "contract ERC20",
          "name": "asset",
          "type": "address"
        },
        {
          "indexed": false,
          "internalType": "bool",
          "name": "allowed",
          "type": "bool"
        }
      ],
      "name": "ThirdPartyCompletionChanged",
      "type": "event"
    },
    {
      "anonymous": false,
      "inputs": [],
      "name": "Unpaused",
      "type": "event"
    },
    {
      "anonymous": false,
      "inputs": [
        {
          "indexed": true,
          "internalType": "address",
          "name": "account",
          "type": "address"
        },
        {
          "indexed": true,
          "internalType": "contract ERC20",
          "name": "asset",
          "type": "address"
        },
        {
          "indexed": false,
          "internalType": "uint96",
          "name": "shares",
          "type": "uint96"
        }
      ],
      "name": "WithdrawCancelled",
      "type": "event"
    },
    {
      "anonymous": false,
      "inputs": [
        {
          "indexed": true,
          "internalType": "address",
          "name": "account",
          "type": "address"
        },
        {
          "indexed": true,
          "internalType": "contract ERC20",
          "name": "asset",
          "type": "address"
        },
        {
          "indexed": false,
          "internalType": "uint256",
          "name": "shares",
          "type": "uint256"
        },
        {
          "indexed": false,
          "internalType": "uint256",
          "name": "assets",
          "type": "uint256"
        }
      ],
      "name": "WithdrawCompleted",
      "type": "event"
    },
    {
      "anonymous": false,
      "inputs": [
        {
          "indexed": true,
          "internalType": "address",
          "name": "asset",
          "type": "address"
        },
        {
          "indexed": false,
          "internalType": "uint32",
          "name": "newWithdrawDelay",
          "type": "uint32"
        }
      ],
      "name": "WithdrawDelayUpdated",
      "type": "event"
    },
    {
      "anonymous": false,
      "inputs": [
        {
          "indexed": true,
          "internalType": "address",
          "name": "asset",
          "type": "address"
        },
        {
          "indexed": false,
          "internalType": "uint16",
          "name": "newWithdrawFee",
          "type": "uint16"
        }
      ],
      "name": "WithdrawFeeUpdated",
      "type": "event"
    },
    {
      "anonymous": false,
      "inputs": [
        {
          "indexed": true,
          "internalType": "address",
          "name": "account",
          "type": "address"
        },
        {
          "indexed": true,
          "internalType": "contract ERC20",
          "name": "asset",
          "type": "address"
        },
        {
          "indexed": false,
          "internalType": "uint96",
          "name": "shares",
          "type": "uint96"
        },
        {
          "indexed": false,
          "internalType": "uint40",
          "name": "maturity",
          "type": "uint40"
        }
      ],
      "name": "WithdrawRequested",
      "type": "event"
    },
    {
      "anonymous": false,
      "inputs": [
        {
          "indexed": true,
          "internalType": "address",
          "name": "asset",
          "type": "address"
        }
      ],
      "name": "WithdrawalsStopped",
      "type": "event"
    },
    {
      "inputs": [],
      "name": "asset",
      "outputs": [
        {
          "internalType": "contract ERC20",
          "name": "",
          "type": "address"
        }
      ],
      "stateMutability": "view",
      "type": "function"
    },
    {
      "inputs": [],
      "name": "authority",
      "outputs": [
        {
          "internalType": "contract Authority",
          "name": "",
          "type": "address"
        }
      ],
      "stateMutability": "view",
      "type": "function"
    },
    {
      "inputs": [],
      "name": "boringVault",
      "outputs": [
        {
          "internalType": "contract BoringVault",
          "name": "",
          "type": "address"
        }
      ],
      "stateMutability": "view",
      "type": "function"
    },
    {
      "inputs": [
        {
          "internalType": "address",
          "name": "user",
          "type": "address"
        }
      ],
      "name": "cancelUserWithdraw",
      "outputs": [],
      "stateMutability": "nonpayable",
      "type": "function"
    },
    {
      "inputs": [],
      "name": "cancelWithdraw",
      "outputs": [],
      "stateMutability": "nonpayable",
      "type": "function"
    },
    {
      "inputs": [
        {
          "internalType": "uint32",
          "name": "withdrawDelay",
          "type": "uint32"
        }
      ],
      "name": "changeWithdrawDelay",
      "outputs": [],
      "stateMutability": "nonpayable",
      "type": "function"
    },
    {
      "inputs": [
        {
          "internalType": "uint16",
          "name": "withdrawFee",
          "type": "uint16"
        }
      ],
      "name": "changeWithdrawFee",
      "outputs": [],
      "stateMutability": "nonpayable",
      "type": "function"
    },
    {
      "inputs": [
        {
          "internalType": "address",
          "name": "user",
          "type": "address"
        }
      ],
      "name": "completeUserWithdraw",
      "outputs": [
        {
          "internalType": "uint256",
          "name": "assetsOut",
          "type": "uint256"
        }
      ],
      "stateMutability": "nonpayable",
      "type": "function"
    },
    {
      "inputs": [
        {
          "internalType": "address",
          "name": "account",
          "type": "address"
        }
      ],
      "name": "completeWithdraw",
      "outputs": [
        {
          "internalType": "uint256",
          "name": "assetsOut",
          "type": "uint256"
        }
      ],
      "stateMutability": "nonpayable",
      "type": "function"
    },
    {
      "inputs": [],
      "name": "feeAddress",
      "outputs": [
        {
          "internalType": "address",
          "name": "",
          "type": "address"
        }
      ],
      "stateMutability": "view",
      "type": "function"
    },
    {
      "inputs": [],
      "name": "isPaused",
      "outputs": [
        {
          "internalType": "bool",
          "name": "",
          "type": "bool"
        }
      ],
      "stateMutability": "view",
      "type": "function"
    },
    {
      "inputs": [],
      "name": "owner",
      "outputs": [
        {
          "internalType": "address",
          "name": "",
          "type": "address"
        }
      ],
      "stateMutability": "view",
      "type": "function"
    },
    {
      "inputs": [],
      "name": "pause",
      "outputs": [],
      "stateMutability": "nonpayable",
      "type": "function"
    },
    {
      "inputs": [],
      "name": "primeRBAC",
      "outputs": [
        {
          "internalType": "contract IPrimeRBAC",
          "name": "",
          "type": "address"
        }
      ],
      "stateMutability": "view",
      "type": "function"
    },
    {
      "inputs": [],
      "name": "pullFundsFromVault",
      "outputs": [
        {
          "internalType": "bool",
          "name": "",
          "type": "bool"
        }
      ],
      "stateMutability": "view",
      "type": "function"
    },
    {
      "inputs": [
        {
          "internalType": "uint96",
          "name": "shares",
          "type": "uint96"
        },
        {
          "internalType": "bool",
          "name": "allowThirdPartyToComplete",
          "type": "bool"
        }
      ],
      "name": "requestWithdraw",
      "outputs": [],
      "stateMutability": "nonpayable",
      "type": "function"
    },
    {
      "inputs": [
        {
          "internalType": "bool",
          "name": "allow",
          "type": "bool"
        }
      ],
      "name": "setAllowThirdPartyToComplete",
      "outputs": [],
      "stateMutability": "nonpayable",
      "type": "function"
    },
    {
      "inputs": [
        {
          "internalType": "contract Authority",
          "name": "newAuthority",
          "type": "address"
        }
      ],
      "name": "setAuthority",
      "outputs": [],
      "stateMutability": "nonpayable",
      "type": "function"
    },
    {
      "inputs": [
        {
          "internalType": "address",
          "name": "_feeAddress",
          "type": "address"
        }
      ],
      "name": "setFeeAddress",
      "outputs": [],
      "stateMutability": "nonpayable",
      "type": "function"
    },
    {
      "inputs": [
        {
          "internalType": "bool",
          "name": "_pullFundsFromVault",
          "type": "bool"
        }
      ],
      "name": "setPullFundsFromVault",
      "outputs": [],
      "stateMutability": "nonpayable",
      "type": "function"
    },
    {
      "inputs": [
        {
          "internalType": "uint32",
          "name": "withdrawDelay",
          "type": "uint32"
        },
        {
          "internalType": "uint16",
          "name": "withdrawFee",
          "type": "uint16"
        }
      ],
      "name": "setupWithdraw",
      "outputs": [],
      "stateMutability": "nonpayable",
      "type": "function"
    },
    {
      "inputs": [],
      "name": "stopWithdrawals",
      "outputs": [],
      "stateMutability": "nonpayable",
      "type": "function"
    },
    {
      "inputs": [
        {
          "internalType": "address",
          "name": "newOwner",
          "type": "address"
        }
      ],
      "name": "transferOwnership",
      "outputs": [],
      "stateMutability": "nonpayable",
      "type": "function"
    },
    {
      "inputs": [],
      "name": "unpause",
      "outputs": [],
      "stateMutability": "nonpayable",
      "type": "function"
    },
    {
      "inputs": [],
      "name": "viewOutstandingDebt",
      "outputs": [
        {
          "internalType": "uint256",
          "name": "debt",
          "type": "uint256"
        }
      ],
      "stateMutability": "view",
      "type": "function"
    },
    {
      "inputs": [],
      "name": "withdrawAsset",
      "outputs": [
        {
          "internalType": "bool",
          "name": "allowWithdraws",
          "type": "bool"
        },
        {
          "internalType": "uint32",
          "name": "withdrawDelay",
          "type": "uint32"
        },
        {
          "internalType": "uint128",
          "name": "outstandingShares",
          "type": "uint128"
        },
        {
          "internalType": "uint16",
          "name": "withdrawFee",
          "type": "uint16"
        }
      ],
      "stateMutability": "view",
      "type": "function"
    },
    {
      "inputs": [
        {
          "internalType": "contract ERC20",
          "name": "token",
          "type": "address"
        },
        {
          "internalType": "uint256",
          "name": "amount",
          "type": "uint256"
        }
      ],
      "name": "withdrawNonBoringToken",
      "outputs": [],
      "stateMutability": "nonpayable",
      "type": "function"
    },
    {
      "inputs": [
        {
          "internalType": "address",
          "name": "",
          "type": "address"
        }
      ],
      "name": "withdrawRequests",
      "outputs": [
        {
          "internalType": "bool",
          "name": "allowThirdPartyToComplete",
          "type": "bool"
        },
        {
          "internalType": "uint40",
          "name": "maturity",
          "type": "uint40"
        },
        {
          "internalType": "uint96",
          "name": "shares",
          "type": "uint96"
        },
        {
          "internalType": "uint96",
          "name": "exchangeRateAtTimeOfRequest",
          "type": "uint96"
        }
      ],
      "stateMutability": "view",
      "type": "function"
    }
  ],
  "bytecode": "0x6101206040526001600355348015610015575f5ffd5b50604051613e2d380380613e2d83398181016040528101906100379190610551565b848473ffffffffffffffffffffffffffffffffffffffff1663bf7e214f6040518163ffffffff1660e01b8152600401602060405180830381865afa158015610081573d5f5f3e3d5ffd5b505050506040513d601f19601f820116820180604052508101906100a59190610603565b3381815f5f6101000a81548173ffffffffffffffffffffffffffffffffffffffff021916908373ffffffffffffffffffffffffffffffffffffffff1602179055508060015f6101000a81548173ffffffffffffffffffffffffffffffffffffffff021916908373ffffffffffffffffffffffffffffffffffffffff1602179055508173ffffffffffffffffffffffffffffffffffffffff163373ffffffffffffffffffffffffffffffffffffffff167f8be0079c531659141344cd1fd0a4f28419497f9722a3daafe3b4186f6b6457e060405160405180910390a38073ffffffffffffffffffffffffffffffffffffffff163373ffffffffffffffffffffffffffffffffffffffff167fa3396fd7f6e0a21b50e5089d2da70d5ac0a3bbbd1f617a93f134b7638998019860405160405180910390a350505f73ffffffffffffffffffffffffffffffffffffffff168273ffffffffffffffffffffffffffffffffffffffff1603610241576040517f538ba4f900000000000000000000000000000000000000000000000000000000815260040160405180910390fd5b8160025f6101000a81548173ffffffffffffffffffffffffffffffffffffffff021916908373ffffffffffffffffffffffffffffffffffffffff16021790555050508273ffffffffffffffffffffffffffffffffffffffff1660808173ffffffffffffffffffffffffffffffffffffffff16815250508173ffffffffffffffffffffffffffffffffffffffff1660a08173ffffffffffffffffffffffffffffffffffffffff16815250508373ffffffffffffffffffffffffffffffffffffffff1660c08173ffffffffffffffffffffffffffffffffffffffff168152505060c05173ffffffffffffffffffffffffffffffffffffffff166338d52e0f6040518163ffffffff1660e01b8152600401602060405180830381865afa15801561036a573d5f5f3e3d5ffd5b505050506040513d601f19601f8201168201806040525081019061038e9190610669565b73ffffffffffffffffffffffffffffffffffffffff1660e08173ffffffffffffffffffffffffffffffffffffffff168152505060c05173ffffffffffffffffffffffffffffffffffffffff1663313ce5676040518163ffffffff1660e01b8152600401602060405180830381865afa15801561040c573d5f5f3e3d5ffd5b505050506040513d601f19601f8201168201806040525081019061043091906106ca565b600a61043c919061085a565b61010081815250505f73ffffffffffffffffffffffffffffffffffffffff168173ffffffffffffffffffffffffffffffffffffffff16036104a9576040517ff3a6738800000000000000000000000000000000000000000000000000000000815260040160405180910390fd5b8060045f6101000a81548173ffffffffffffffffffffffffffffffffffffffff021916908373ffffffffffffffffffffffffffffffffffffffff16021790555050505050506108a4565b5f5ffd5b5f73ffffffffffffffffffffffffffffffffffffffff82169050919050565b5f610520826104f7565b9050919050565b61053081610516565b811461053a575f5ffd5b50565b5f8151905061054b81610527565b92915050565b5f5f5f5f5f60a0868803121561056a576105696104f3565b5b5f6105778882890161053d565b95505060206105888882890161053d565b94505060406105998882890161053d565b93505060606105aa8882890161053d565b92505060806105bb8882890161053d565b9150509295509295909350565b5f6105d282610516565b9050919050565b6105e2816105c8565b81146105ec575f5ffd5b50565b5f815190506105fd816105d9565b92915050565b5f60208284031215610618576106176104f3565b5b5f610625848285016105ef565b91505092915050565b5f61063882610516565b9050919050565b6106488161062e565b8114610652575f5ffd5b50565b5f815190506106638161063f565b92915050565b5f6020828403121561067e5761067d6104f3565b5b5f61068b84828501610655565b91505092915050565b5f60ff82169050919050565b6106a981610694565b81146106b3575f5ffd5b50565b5f815190506106c4816106a0565b92915050565b5f602082840312156106df576106de6104f3565b5b5f6106ec848285016106b6565b91505092915050565b7f4e487b71000000000000000000000000000000000000000000000000000000005f52601160045260245ffd5b5f8160011c9050919050565b5f5f8291508390505b600185111561077757808604811115610753576107526106f5565b5b60018516156107625780820291505b808102905061077085610722565b9450610737565b94509492505050565b5f8261078f576001905061084a565b8161079c575f905061084a565b81600181146107b257600281146107bc576107eb565b600191505061084a565b60ff8411156107ce576107cd6106f5565b5b8360020a9150848211156107e5576107e46106f5565b5b5061084a565b5060208310610133831016604e8410600b84101617156108205782820a90508381111561081b5761081a6106f5565b5b61084a565b61082d848484600161072e565b92509050818404811115610844576108436106f5565b5b81810290505b9392505050565b5f819050919050565b5f61086482610851565b915061086f83610694565b925061089c7fffffffffffffffffffffffffffffffffffffffffffffffffffffffffffffffff8484610780565b905092915050565b60805160a05160c05160e051610100516134dc6109515f395f81816118e601526127c801525f81816107590152818161089301528181610b9601528181611052015281816111bd015281816112fc015281816119df015281816123a101526128cb01525f81816104e60152818161056b0152818161069501528181610ddb01528181611fe90152818161235b015261275301525f61282d01525f8181610f7a015261182101526134dc5ff3fe608060405234801561000f575f5ffd5b50600436106101c2575f3560e01c80638705fcd4116100f7578063bde18d5111610095578063d259a76d1161006f578063d259a76d1461046b578063e37d7e681461048c578063f2fde38b146104aa578063f3b97784146104c6576101c2565b8063bde18d51146103ed578063bf3b826b1461041d578063bf7e214f1461044d576101c2565b8063adbc46fc116100d1578063adbc46fc14610379578063ae172f0814610397578063b013c6c5146103b3578063b187bd26146103cf576101c2565b80638705fcd414610321578063890896281461033d5780638da5cb5b1461035b576101c2565b806352df49ec1161016457806374dfd7b51161013e57806374dfd7b5146102e75780637a9e5e4b146102f15780638456cb591461030d57806384b7682414610317576101c2565b806352df49ec1461027c578063545312c0146102af578063627ab8d4146102cb576101c2565b80633928bebd116101a05780633928bebd1461021c5780633f4ba83a14610238578063412753581461024257806346773a9914610260576101c2565b806309f0e0c2146101c6578063251a24ed146101e257806338d52e0f146101fe575b5f5ffd5b6101e060048036038101906101db91906129f9565b6104e4565b005b6101fc60048036038101906101f79190612a61565b6106df565b005b610206610757565b6040516102139190612ae7565b60405180910390f35b61023660048036038101906102319190612b37565b61077b565b005b610240610902565b005b61024a6109b6565b6040516102579190612b71565b60405180910390f35b61027a60048036038101906102759190612bc3565b6109db565b005b61029660048036038101906102919190612a61565b610c08565b6040516102a69493929190612c60565b60405180910390f35b6102c960048036038101906102c49190612cf7565b610c7e565b005b6102e560048036038101906102e09190612d35565b6110e5565b005b6102ef61122c565b005b61030b60048036038101906103069190612d9b565b61135f565b005b61031561151a565b005b61031f6115cf565b005b61033b60048036038101906103369190612a61565b61169b565b005b6103456117e6565b6040516103529190612dc6565b60405180910390f35b6103636117f9565b6040516103709190612b71565b60405180910390f35b61038161181d565b60405161038e9190612dee565b60405180910390f35b6103b160048036038101906103ac9190612e07565b61191b565b005b6103cd60048036038101906103c89190612e07565b611a65565b005b6103d7611b88565b6040516103e49190612dc6565b60405180910390f35b61040760048036038101906104029190612a61565b611b9b565b6040516104149190612dee565b60405180910390f35b61043760048036038101906104329190612a61565b611c5a565b6040516104449190612dee565b60405180910390f35b610455611e35565b6040516104629190612e52565b60405180910390f35b610473611e5a565b6040516104839493929190612eb3565b60405180910390f35b610494611eba565b6040516104a19190612f16565b60405180910390f35b6104c460048036038101906104bf9190612a61565b611edf565b005b6104ce611fe7565b6040516104db9190612f60565b60405180910390f35b7f000000000000000000000000000000000000000000000000000000000000000073ffffffffffffffffffffffffffffffffffffffff163373ffffffffffffffffffffffffffffffffffffffff1614610569576040517f0a9803f000000000000000000000000000000000000000000000000000000000815260040160405180910390fd5b7f000000000000000000000000000000000000000000000000000000000000000073ffffffffffffffffffffffffffffffffffffffff168273ffffffffffffffffffffffffffffffffffffffff16036105ee576040517fa6781bfd00000000000000000000000000000000000000000000000000000000815260040160405180910390fd5b7fffffffffffffffffffffffffffffffffffffffffffffffffffffffffffffffff8103610690578173ffffffffffffffffffffffffffffffffffffffff166370a08231306040518263ffffffff1660e01b815260040161064e9190612b71565b602060405180830381865afa158015610669573d5f5f3e3d5ffd5b505050506040513d601f19601f8201168201806040525081019061068d9190612f8d565b90505b6106db7f0000000000000000000000000000000000000000000000000000000000000000828473ffffffffffffffffffffffffffffffffffffffff1661200b9092919063ffffffff16565b5050565b61070c335f357fffffffff00000000000000000000000000000000000000000000000000000000166120c2565b61074b576040517f08c379a000000000000000000000000000000000000000000000000000000000815260040161074290613012565b60405180910390fd5b610754816121fb565b50565b7f000000000000000000000000000000000000000000000000000000000000000081565b6107a8335f357fffffffff00000000000000000000000000000000000000000000000000000000166120c2565b6107e7576040517f08c379a00000000000000000000000000000000000000000000000000000000081526004016107de90613012565b60405180910390fd5b60055f015f9054906101000a900460ff1661082e576040517f22e959d200000000000000000000000000000000000000000000000000000000815260040160405180910390fd5b6107d061ffff168161ffff161115610872576040517f65c9772600000000000000000000000000000000000000000000000000000000815260040160405180910390fd5b8060055f0160156101000a81548161ffff021916908361ffff1602179055507f000000000000000000000000000000000000000000000000000000000000000073ffffffffffffffffffffffffffffffffffffffff167f8ccb18452db698466024883cfd6df6fee864c24ed64251ecf8ec814f372a2f2f826040516108f79190613030565b60405180910390a250565b61092f335f357fffffffff00000000000000000000000000000000000000000000000000000000166120c2565b61096e576040517f08c379a000000000000000000000000000000000000000000000000000000000815260040161096590613012565b60405180910390fd5b5f600460146101000a81548160ff0219169083151502179055507fa45f47fdea8a1efdd9029a5691c7f759c32b7c698632b563573e155625d1693360405160405180910390a1565b60045f9054906101000a900473ffffffffffffffffffffffffffffffffffffffff1681565b60025f9054906101000a900473ffffffffffffffffffffffffffffffffffffffff1673ffffffffffffffffffffffffffffffffffffffff1663d35911f2336040518263ffffffff1660e01b8152600401610a359190612b71565b602060405180830381865afa158015610a50573d5f5f3e3d5ffd5b505050506040513d601f19601f82011682018060405250810190610a74919061305d565b610aaa576040517fdc85555400000000000000000000000000000000000000000000000000000000815260040160405180910390fd5b6107d061ffff168161ffff161115610aee576040517f65c9772600000000000000000000000000000000000000000000000000000000815260040160405180910390fd5b60055f015f9054906101000a900460ff1615610b36576040517f5c5ea4ba00000000000000000000000000000000000000000000000000000000815260040160405180910390fd5b600160055f015f6101000a81548160ff0219169083151502179055508160055f0160016101000a81548163ffffffff021916908363ffffffff1602179055508060055f0160156101000a81548161ffff021916908361ffff1602179055507f000000000000000000000000000000000000000000000000000000000000000073ffffffffffffffffffffffffffffffffffffffff167f0cea879951527447b42baf1288a10716427f4b9754822556bffd7279cd02409c8383604051610bfc9291906130cb565b60405180910390a25050565b6006602052805f5260405f205f91509050805f015f9054906101000a900460ff1690805f0160019054906101000a900464ffffffffff1690805f0160069054906101000a90046bffffffffffffffffffffffff1690805f0160129054906101000a90046bffffffffffffffffffffffff16905084565b610cab335f357fffffffff00000000000000000000000000000000000000000000000000000000166120c2565b610cea576040517f08c379a0000000000000000000000000000000000000000000000000000000008152600401610ce190613012565b60405180910390fd5b600160035414610d2f576040517f08c379a0000000000000000000000000000000000000000000000000000000008152600401610d269061313c565b60405180910390fd5b6002600381905550600460149054906101000a900460ff1615610d7e576040517fbaf7375c00000000000000000000000000000000000000000000000000000000815260040160405180910390fd5b60055f015f9054906101000a900460ff16610dc5576040517f22e959d200000000000000000000000000000000000000000000000000000000815260040160405180910390fd5b610e203330846bffffffffffffffffffffffff167f000000000000000000000000000000000000000000000000000000000000000073ffffffffffffffffffffffffffffffffffffffff16612429909392919063ffffffff16565b816bffffffffffffffffffffffff1660055f0160058282829054906101000a90046fffffffffffffffffffffffffffffffff16610e5d9190613187565b92506101000a8154816fffffffffffffffffffffffffffffffff02191690836fffffffffffffffffffffffffffffffff1602179055505f60065f3373ffffffffffffffffffffffffffffffffffffffff1673ffffffffffffffffffffffffffffffffffffffff1681526020019081526020015f20905082815f0160068282829054906101000a90046bffffffffffffffffffffffff16610efd91906131ca565b92506101000a8154816bffffffffffffffffffffffff02191690836bffffffffffffffffffffffff1602179055505f60055f0160019054906101000a900463ffffffff1663ffffffff1642610f529190613209565b905080825f0160016101000a81548164ffffffffff021916908364ffffffffff1602179055507f000000000000000000000000000000000000000000000000000000000000000073ffffffffffffffffffffffffffffffffffffffff1663282a87006040518163ffffffff1660e01b8152600401602060405180830381865afa158015610fe1573d5f5f3e3d5ffd5b505050506040513d601f19601f820116820180604052508101906110059190612f8d565b825f0160126101000a8154816bffffffffffffffffffffffff02191690836bffffffffffffffffffffffff16021790555082825f015f6101000a81548160ff0219169083151502179055507f000000000000000000000000000000000000000000000000000000000000000073ffffffffffffffffffffffffffffffffffffffff163373ffffffffffffffffffffffffffffffffffffffff167f7c7bb9f0b469c21da4666496577565b8e0f6a5da9834e8d15b12603b260ca6c686846040516110cf92919061323c565b60405180910390a3505060016003819055505050565b611112335f357fffffffff00000000000000000000000000000000000000000000000000000000166120c2565b611151576040517f08c379a000000000000000000000000000000000000000000000000000000000815260040161114890613012565b60405180910390fd5b60055f015f9054906101000a900460ff16611198576040517f22e959d200000000000000000000000000000000000000000000000000000000815260040160405180910390fd5b8060055f0160016101000a81548163ffffffff021916908363ffffffff1602179055507f000000000000000000000000000000000000000000000000000000000000000073ffffffffffffffffffffffffffffffffffffffff167ff460eccc96794cc59e91dc95757a6579291d9b251377740e28b39b482290052a826040516112219190613263565b60405180910390a250565b611259335f357fffffffff00000000000000000000000000000000000000000000000000000000166120c2565b611298576040517f08c379a000000000000000000000000000000000000000000000000000000000815260040161128f90613012565b60405180910390fd5b60055f015f9054906101000a900460ff166112df576040517f22e959d200000000000000000000000000000000000000000000000000000000815260040160405180910390fd5b5f60055f015f6101000a81548160ff0219169083151502179055507f000000000000000000000000000000000000000000000000000000000000000073ffffffffffffffffffffffffffffffffffffffff167fb03b41043f453253837c2a473842b2d0f3025250ef63df22a7ba259b7b47495f60405160405180910390a2565b5f5f9054906101000a900473ffffffffffffffffffffffffffffffffffffffff1673ffffffffffffffffffffffffffffffffffffffff163373ffffffffffffffffffffffffffffffffffffffff161480611475575060015f9054906101000a900473ffffffffffffffffffffffffffffffffffffffff1673ffffffffffffffffffffffffffffffffffffffff1663b700961333305f357fffffffff00000000000000000000000000000000000000000000000000000000166040518463ffffffff1660e01b8152600401611435939291906132b6565b602060405180830381865afa158015611450573d5f5f3e3d5ffd5b505050506040513d601f19601f82011682018060405250810190611474919061305d565b5b61147d575f5ffd5b8060015f6101000a81548173ffffffffffffffffffffffffffffffffffffffff021916908373ffffffffffffffffffffffffffffffffffffffff1602179055508073ffffffffffffffffffffffffffffffffffffffff163373ffffffffffffffffffffffffffffffffffffffff167fa3396fd7f6e0a21b50e5089d2da70d5ac0a3bbbd1f617a93f134b7638998019860405160405180910390a350565b611547335f357fffffffff00000000000000000000000000000000000000000000000000000000166120c2565b611586576040517f08c379a000000000000000000000000000000000000000000000000000000000815260040161157d90613012565b60405180910390fd5b6001600460146101000a81548160ff0219169083151502179055507f9e87fac88ff661f02d44f95383c817fece4bce600a3dab7a54406878b965e75260405160405180910390a1565b6115fc335f357fffffffff00000000000000000000000000000000000000000000000000000000166120c2565b61163b576040517f08c379a000000000000000000000000000000000000000000000000000000000815260040161163290613012565b60405180910390fd5b600160035414611680576040517f08c379a00000000000000000000000000000000000000000000000000000000081526004016116779061313c565b60405180910390fd5b6002600381905550611691336121fb565b6001600381905550565b6116c8335f357fffffffff00000000000000000000000000000000000000000000000000000000166120c2565b611707576040517f08c379a00000000000000000000000000000000000000000000000000000000081526004016116fe90613012565b60405180910390fd5b5f73ffffffffffffffffffffffffffffffffffffffff168173ffffffffffffffffffffffffffffffffffffffff160361176c576040517ff3a6738800000000000000000000000000000000000000000000000000000000815260040160405180910390fd5b8060045f6101000a81548173ffffffffffffffffffffffffffffffffffffffff021916908373ffffffffffffffffffffffffffffffffffffffff1602179055507f679f4cc040076580bf118e3f2307b72842331922e8054b8cc292bb37f05e5b03816040516117db9190612b71565b60405180910390a150565b600460159054906101000a900460ff1681565b5f5f9054906101000a900473ffffffffffffffffffffffffffffffffffffffff1681565b5f5f7f000000000000000000000000000000000000000000000000000000000000000073ffffffffffffffffffffffffffffffffffffffff1663282a87006040518163ffffffff1660e01b8152600401602060405180830381865afa158015611888573d5f5f3e3d5ffd5b505050506040513d601f19601f820116820180604052508101906118ac9190612f8d565b905061191560055f0160059054906101000a90046fffffffffffffffffffffffffffffffff166fffffffffffffffffffffffffffffffff167f0000000000000000000000000000000000000000000000000000000000000000836124fd9092919063ffffffff16565b91505090565b611948335f357fffffffff00000000000000000000000000000000000000000000000000000000166120c2565b611987576040517f08c379a000000000000000000000000000000000000000000000000000000000815260040161197e90613012565b60405180910390fd5b8060065f3373ffffffffffffffffffffffffffffffffffffffff1673ffffffffffffffffffffffffffffffffffffffff1681526020019081526020015f205f015f6101000a81548160ff0219169083151502179055507f000000000000000000000000000000000000000000000000000000000000000073ffffffffffffffffffffffffffffffffffffffff163373ffffffffffffffffffffffffffffffffffffffff167f21620b27ba9eeb9c0fe4b328d9038784b90664af3e7f54617d2d3b14cd97c34e83604051611a5a9190612dc6565b60405180910390a350565b60025f9054906101000a900473ffffffffffffffffffffffffffffffffffffffff1673ffffffffffffffffffffffffffffffffffffffff1663d35911f2336040518263ffffffff1660e01b8152600401611abf9190612b71565b602060405180830381865afa158015611ada573d5f5f3e3d5ffd5b505050506040513d601f19601f82011682018060405250810190611afe919061305d565b611b34576040517fdc85555400000000000000000000000000000000000000000000000000000000815260040160405180910390fd5b80600460156101000a81548160ff0219169083151502179055507f9bd1a4bfe91dd4368b87973b0759c3649648cf04d60c8de148d719c9d229332681604051611b7d9190612dc6565b60405180910390a150565b600460149054906101000a900460ff1681565b5f611bc9335f357fffffffff00000000000000000000000000000000000000000000000000000000166120c2565b611c08576040517f08c379a0000000000000000000000000000000000000000000000000000000008152600401611bff90613012565b60405180910390fd5b5f60065f8473ffffffffffffffffffffffffffffffffffffffff1673ffffffffffffffffffffffffffffffffffffffff1681526020019081526020015f209050611c52838261253e565b915050919050565b5f611c88335f357fffffffff00000000000000000000000000000000000000000000000000000000166120c2565b611cc7576040517f08c379a0000000000000000000000000000000000000000000000000000000008152600401611cbe90613012565b60405180910390fd5b600160035414611d0c576040517f08c379a0000000000000000000000000000000000000000000000000000000008152600401611d039061313c565b60405180910390fd5b6002600381905550600460149054906101000a900460ff1615611d5b576040517fbaf7375c00000000000000000000000000000000000000000000000000000000815260040160405180910390fd5b5f60065f8473ffffffffffffffffffffffffffffffffffffffff1673ffffffffffffffffffffffffffffffffffffffff1681526020019081526020015f2090508273ffffffffffffffffffffffffffffffffffffffff163373ffffffffffffffffffffffffffffffffffffffff1614158015611de45750805f015f9054906101000a900460ff16155b15611e1b576040517f541250f700000000000000000000000000000000000000000000000000000000815260040160405180910390fd5b611e25838261253e565b9150506001600381905550919050565b60015f9054906101000a900473ffffffffffffffffffffffffffffffffffffffff1681565b6005805f015f9054906101000a900460ff1690805f0160019054906101000a900463ffffffff1690805f0160059054906101000a90046fffffffffffffffffffffffffffffffff1690805f0160159054906101000a900461ffff16905084565b60025f9054906101000a900473ffffffffffffffffffffffffffffffffffffffff1681565b611f0c335f357fffffffff00000000000000000000000000000000000000000000000000000000166120c2565b611f4b576040517f08c379a0000000000000000000000000000000000000000000000000000000008152600401611f4290613012565b60405180910390fd5b805f5f6101000a81548173ffffffffffffffffffffffffffffffffffffffff021916908373ffffffffffffffffffffffffffffffffffffffff1602179055508073ffffffffffffffffffffffffffffffffffffffff163373ffffffffffffffffffffffffffffffffffffffff167f8be0079c531659141344cd1fd0a4f28419497f9722a3daafe3b4186f6b6457e060405160405180910390a350565b7f000000000000000000000000000000000000000000000000000000000000000081565b5f6040517fa9059cbb00000000000000000000000000000000000000000000000000000000815273ffffffffffffffffffffffffffffffffffffffff8416600482015282602482015260205f6044835f895af1915081601f3d1160015f51141615161561207b573d853b15171591505b50806120bc576040517f08c379a00000000000000000000000000000000000000000000000000000000081526004016120b390613335565b60405180910390fd5b50505050565b5f5f60015f9054906101000a900473ffffffffffffffffffffffffffffffffffffffff1690505f73ffffffffffffffffffffffffffffffffffffffff168173ffffffffffffffffffffffffffffffffffffffff161415801561219c57508073ffffffffffffffffffffffffffffffffffffffff1663b70096138530866040518463ffffffff1660e01b815260040161215c939291906132b6565b602060405180830381865afa158015612177573d5f5f3e3d5ffd5b505050506040513d601f19601f8201168201806040525081019061219b919061305d565b5b806121f257505f5f9054906101000a900473ffffffffffffffffffffffffffffffffffffffff1673ffffffffffffffffffffffffffffffffffffffff168473ffffffffffffffffffffffffffffffffffffffff16145b91505092915050565b5f60065f8373ffffffffffffffffffffffffffffffffffffffff1673ffffffffffffffffffffffffffffffffffffffff1681526020019081526020015f2090505f815f0160069054906101000a90046bffffffffffffffffffffffff1690505f816bffffffffffffffffffffffff16036122a1576040517fe4ccf1f400000000000000000000000000000000000000000000000000000000815260040160405180910390fd5b806bffffffffffffffffffffffff1660055f0160058282829054906101000a90046fffffffffffffffffffffffffffffffff166122de9190613353565b92506101000a8154816fffffffffffffffffffffffffffffffff02191690836fffffffffffffffffffffffffffffffff1602179055505f825f0160066101000a8154816bffffffffffffffffffffffff02191690836bffffffffffffffffffffffff16021790555061239f83826bffffffffffffffffffffffff167f000000000000000000000000000000000000000000000000000000000000000073ffffffffffffffffffffffffffffffffffffffff1661200b9092919063ffffffff16565b7f000000000000000000000000000000000000000000000000000000000000000073ffffffffffffffffffffffffffffffffffffffff168373ffffffffffffffffffffffffffffffffffffffff167fcb0f3204f6895f1e698cfa5f0cceed9d5e62b57fe0d8648a47fc3685a78e7e978360405161241c9190613396565b60405180910390a3505050565b5f6040517f23b872dd00000000000000000000000000000000000000000000000000000000815273ffffffffffffffffffffffffffffffffffffffff8516600482015273ffffffffffffffffffffffffffffffffffffffff8416602482015282604482015260205f6064835f8a5af1915081601f3d1160015f5114161516156124b5573d863b15171591505b50806124f6576040517f08c379a00000000000000000000000000000000000000000000000000000000081526004016124ed906133f9565b60405180910390fd5b5050505050565b5f827fffffffffffffffffffffffffffffffffffffffffffffffffffffffffffffffff0484118302158202612530575f5ffd5b818385020490509392505050565b5f60055f015f9054906101000a900460ff16612586576040517f22e959d200000000000000000000000000000000000000000000000000000000815260040160405180910390fd5b815f0160019054906101000a900464ffffffffff1664ffffffffff164210156125db576040517f53a8b71400000000000000000000000000000000000000000000000000000000815260040160405180910390fd5b5f825f0160069054906101000a90046bffffffffffffffffffffffff166bffffffffffffffffffffffff160361263d576040517fe4ccf1f400000000000000000000000000000000000000000000000000000000815260040160405180910390fd5b5f825f0160069054906101000a90046bffffffffffffffffffffffff166bffffffffffffffffffffffff1690508060055f0160058282829054906101000a90046fffffffffffffffffffffffffffffffff166126999190613353565b92506101000a8154816fffffffffffffffffffffffffffffffff02191690836fffffffffffffffffffffffffffffffff1602179055505f60055f0160159054906101000a900461ffff1661ffff161115612799575f61271b60055f0160159054906101000a900461ffff1661ffff16612710846124fd9092919063ffffffff16565b905080826127299190613417565b915061279760045f9054906101000a900473ffffffffffffffffffffffffffffffffffffffff16827f000000000000000000000000000000000000000000000000000000000000000073ffffffffffffffffffffffffffffffffffffffff1661200b9092919063ffffffff16565b505b6127f7835f0160129054906101000a90046bffffffffffffffffffffffff166bffffffffffffffffffffffff167f0000000000000000000000000000000000000000000000000000000000000000836124fd9092919063ffffffff16565b91505f835f0160066101000a8154816bffffffffffffffffffffffff02191690836bffffffffffffffffffffffff1602179055507f000000000000000000000000000000000000000000000000000000000000000073ffffffffffffffffffffffffffffffffffffffff1663657ae3f18284876040518463ffffffff1660e01b81526004016128889392919061344a565b6020604051808303815f875af11580156128a4573d5f5f3e3d5ffd5b505050506040513d601f19601f820116820180604052508101906128c89190612f8d565b507f000000000000000000000000000000000000000000000000000000000000000073ffffffffffffffffffffffffffffffffffffffff168473ffffffffffffffffffffffffffffffffffffffff167fbf9c520fb583da9b8f434d2dfa27f8695602f498c937081299893335144e99a2838560405161294892919061347f565b60405180910390a35092915050565b5f5ffd5b5f73ffffffffffffffffffffffffffffffffffffffff82169050919050565b5f6129848261295b565b9050919050565b5f6129958261297a565b9050919050565b6129a58161298b565b81146129af575f5ffd5b50565b5f813590506129c08161299c565b92915050565b5f819050919050565b6129d8816129c6565b81146129e2575f5ffd5b50565b5f813590506129f3816129cf565b92915050565b5f5f60408385031215612a0f57612a0e612957565b5b5f612a1c858286016129b2565b9250506020612a2d858286016129e5565b9150509250929050565b612a408161297a565b8114612a4a575f5ffd5b50565b5f81359050612a5b81612a37565b92915050565b5f60208284031215612a7657612a75612957565b5b5f612a8384828501612a4d565b91505092915050565b5f819050919050565b5f612aaf612aaa612aa58461295b565b612a8c565b61295b565b9050919050565b5f612ac082612a95565b9050919050565b5f612ad182612ab6565b9050919050565b612ae181612ac7565b82525050565b5f602082019050612afa5f830184612ad8565b92915050565b5f61ffff82169050919050565b612b1681612b00565b8114612b20575f5ffd5b50565b5f81359050612b3181612b0d565b92915050565b5f60208284031215612b4c57612b4b612957565b5b5f612b5984828501612b23565b91505092915050565b612b6b8161297a565b82525050565b5f602082019050612b845f830184612b62565b92915050565b5f63ffffffff82169050919050565b612ba281612b8a565b8114612bac575f5ffd5b50565b5f81359050612bbd81612b99565b92915050565b5f5f60408385031215612bd957612bd8612957565b5b5f612be685828601612baf565b9250506020612bf785828601612b23565b9150509250929050565b5f8115159050919050565b612c1581612c01565b82525050565b5f64ffffffffff82169050919050565b612c3481612c1b565b82525050565b5f6bffffffffffffffffffffffff82169050919050565b612c5a81612c3a565b82525050565b5f608082019050612c735f830187612c0c565b612c806020830186612c2b565b612c8d6040830185612c51565b612c9a6060830184612c51565b95945050505050565b612cac81612c3a565b8114612cb6575f5ffd5b50565b5f81359050612cc781612ca3565b92915050565b612cd681612c01565b8114612ce0575f5ffd5b50565b5f81359050612cf181612ccd565b92915050565b5f5f60408385031215612d0d57612d0c612957565b5b5f612d1a85828601612cb9565b9250506020612d2b85828601612ce3565b9150509250929050565b5f60208284031215612d4a57612d49612957565b5b5f612d5784828501612baf565b91505092915050565b5f612d6a8261297a565b9050919050565b612d7a81612d60565b8114612d84575f5ffd5b50565b5f81359050612d9581612d71565b92915050565b5f60208284031215612db057612daf612957565b5b5f612dbd84828501612d87565b91505092915050565b5f602082019050612dd95f830184612c0c565b92915050565b612de8816129c6565b82525050565b5f602082019050612e015f830184612ddf565b92915050565b5f60208284031215612e1c57612e1b612957565b5b5f612e2984828501612ce3565b91505092915050565b5f612e3c82612ab6565b9050919050565b612e4c81612e32565b82525050565b5f602082019050612e655f830184612e43565b92915050565b612e7481612b8a565b82525050565b5f6fffffffffffffffffffffffffffffffff82169050919050565b612e9e81612e7a565b82525050565b612ead81612b00565b82525050565b5f608082019050612ec65f830187612c0c565b612ed36020830186612e6b565b612ee06040830185612e95565b612eed6060830184612ea4565b95945050505050565b5f612f0082612ab6565b9050919050565b612f1081612ef6565b82525050565b5f602082019050612f295f830184612f07565b92915050565b5f612f3982612a95565b9050919050565b5f612f4a82612f2f565b9050919050565b612f5a81612f40565b82525050565b5f602082019050612f735f830184612f51565b92915050565b5f81519050612f87816129cf565b92915050565b5f60208284031215612fa257612fa1612957565b5b5f612faf84828501612f79565b91505092915050565b5f82825260208201905092915050565b7f554e415554484f52495a454400000000000000000000000000000000000000005f82015250565b5f612ffc600c83612fb8565b915061300782612fc8565b602082019050919050565b5f6020820190508181035f83015261302981612ff0565b9050919050565b5f6020820190506130435f830184612ea4565b92915050565b5f8151905061305781612ccd565b92915050565b5f6020828403121561307257613071612957565b5b5f61307f84828501613049565b91505092915050565b5f67ffffffffffffffff82169050919050565b5f6130b56130b06130ab84612b8a565b612a8c565b613088565b9050919050565b6130c58161309b565b82525050565b5f6040820190506130de5f8301856130bc565b6130eb6020830184612ea4565b9392505050565b7f5245454e5452414e4359000000000000000000000000000000000000000000005f82015250565b5f613126600a83612fb8565b9150613131826130f2565b602082019050919050565b5f6020820190508181035f8301526131538161311a565b9050919050565b7f4e487b71000000000000000000000000000000000000000000000000000000005f52601160045260245ffd5b5f61319182612e7a565b915061319c83612e7a565b925082820190506fffffffffffffffffffffffffffffffff8111156131c4576131c361315a565b5b92915050565b5f6131d482612c3a565b91506131df83612c3a565b925082820190506bffffffffffffffffffffffff8111156132035761320261315a565b5b92915050565b5f613213826129c6565b915061321e836129c6565b92508282019050808211156132365761323561315a565b5b92915050565b5f60408201905061324f5f830185612c51565b61325c6020830184612c2b565b9392505050565b5f6020820190506132765f830184612e6b565b92915050565b5f7fffffffff0000000000000000000000000000000000000000000000000000000082169050919050565b6132b08161327c565b82525050565b5f6060820190506132c95f830186612b62565b6132d66020830185612b62565b6132e360408301846132a7565b949350505050565b7f5452414e534645525f4641494c454400000000000000000000000000000000005f82015250565b5f61331f600f83612fb8565b915061332a826132eb565b602082019050919050565b5f6020820190508181035f83015261334c81613313565b9050919050565b5f61335d82612e7a565b915061336883612e7a565b925082820390506fffffffffffffffffffffffffffffffff8111156133905761338f61315a565b5b92915050565b5f6020820190506133a95f830184612c51565b92915050565b7f5452414e534645525f46524f4d5f4641494c45440000000000000000000000005f82015250565b5f6133e3601483612fb8565b91506133ee826133af565b602082019050919050565b5f6020820190508181035f830152613410816133d7565b9050919050565b5f613421826129c6565b915061342c836129c6565b92508282039050818111156134445761344361315a565b5b92915050565b5f60608201905061345d5f830186612ddf565b61346a6020830185612ddf565b6134776040830184612b62565b949350505050565b5f6040820190506134925f830185612ddf565b61349f6020830184612ddf565b939250505056fea26469706673582212203a6d146066b7006f6649e1b76a5875ae28d421a28c229507c887aa28f57bbd9564736f6c634300081e0033",
  "linkReferences": {},
  "deployedLinkReferences": {},
  "immutableReferences": {
    "12735": [
      {
        "length": 32,
        "start": 3962
      },
      {
        "length": 32,
        "start": 6177
      }
    ],
    "12739": [
      {
        "length": 32,
        "start": 10285
      }
    ],
    "12743": [
      {
        "length": 32,
        "start": 1254
      },
      {
        "length": 32,
        "start": 1387
      },
      {
        "length": 32,
        "start": 1685
      },
      {
        "length": 32,
        "start": 3547
      },
      {
        "length": 32,
        "start": 8169
      },
      {
        "length": 32,
        "start": 9051
      },
      {
        "length": 32,
        "start": 10067
      }
    ],
    "12747": [
      {
        "length": 32,
        "start": 1881
      },
      {
        "length": 32,
        "start": 2195
      },
      {
        "length": 32,
        "start": 2966
      },
      {
        "length": 32,
        "start": 4178
      },
      {
        "length": 32,
        "start": 4541
      },
      {
        "length": 32,
        "start": 4860
      },
      {
        "length": 32,
        "start": 6623
      },
      {
        "length": 32,
        "start": 9121
      },
      {
        "length": 32,
        "start": 10443
      }
    ],
    "12750": [
      {
        "length": 32,
        "start": 6374
      },
      {
        "length": 32,
        "start": 10184
      }
    ]
  },
  "inputSourceName": "project/contracts/core/DelayedWithdraw.sol",
  "buildInfoId": "solc-0_8_30-b812b6f9c8de22d6d072c72da0837b4069544e24"
}