{
  "_format": "hh3-artifact-1",
  "contractName": "TellerWithBuffer",
  "sourceName": "contracts/core/TellerWithBuffer.sol",
  "abi": [
    {
      "inputs": [
        {
          "internalType": "address",
          "name": "_primeRBAC",
          "type": "address"
        },
        {
          "internalType": "address",
          "name": "_vault",
          "type": "address"
        },
        {
          "internalType": "address",
          "name": "_accountant",
          "type": "address"
        }
      ],
      "stateMutability": "nonpayable",
      "type": "constructor"
    },
    {
      "inputs": [],
      "name": "NOT_OWNER",
      "type": "error"
    },
    {
      "inputs": [],
      "name": "NOT_PROTOCOL_ADMIN",
      "type": "error"
    },
    {
      "inputs": [
        {
          "internalType": "contract IBufferHelper",
          "name": "bufferHelper",
          "type": "address"
        }
      ],
      "name": "TellerWithBuffer__BufferHelperNotAllowed",
      "type": "error"
    },
    {
      "inputs": [],
      "name": "Teller__DepositCapReached",
      "type": "error"
    },
    {
      "inputs": [
        {
          "internalType": "uint256",
          "name": "attemptedDeposit",
          "type": "uint256"
        },
        {
          "internalType": "uint256",
          "name": "depositCap",
          "type": "uint256"
        }
      ],
      "name": "Teller__DepositExceedsCap",
      "type": "error"
    },
    {
      "inputs": [],
      "name": "Teller__DepositsNotAllowed",
      "type": "error"
    },
    {
      "inputs": [],
      "name": "Teller__DualDeposit",
      "type": "error"
    },
    {
      "inputs": [],
      "name": "Teller__MinimumAssetsNotMet",
      "type": "error"
    },
    {
      "inputs": [],
      "name": "Teller__MinimumMintNotMet",
      "type": "error"
    },
    {
      "inputs": [],
      "name": "Teller__MinimumSharesNotMet",
      "type": "error"
    },
    {
      "inputs": [],
      "name": "Teller__NotApprovedToTransfer",
      "type": "error"
    },
    {
      "inputs": [],
      "name": "Teller__Paused",
      "type": "error"
    },
    {
      "inputs": [],
      "name": "Teller__PermitFailedAndAllowanceTooLow",
      "type": "error"
    },
    {
      "inputs": [],
      "name": "Teller__ShareLockPeriodTooLong",
      "type": "error"
    },
    {
      "inputs": [],
      "name": "Teller__SharesAreLocked",
      "type": "error"
    },
    {
      "inputs": [
        {
          "internalType": "address",
          "name": "account",
          "type": "address"
        }
      ],
      "name": "Teller__SharesAreUnLocked",
      "type": "error"
    },
    {
      "inputs": [
        {
          "internalType": "address",
          "name": "from",
          "type": "address"
        },
        {
          "internalType": "address",
          "name": "to",
          "type": "address"
        },
        {
          "internalType": "address",
          "name": "operator",
          "type": "address"
        }
      ],
      "name": "Teller__TransferDenied",
      "type": "error"
    },
    {
      "inputs": [],
      "name": "Teller__WithdrawsNotAllowed",
      "type": "error"
    },
    {
      "inputs": [],
      "name": "Teller__ZeroAssets",
      "type": "error"
    },
    {
      "inputs": [],
      "name": "Teller__ZeroShares",
      "type": "error"
    },
    {
      "inputs": [],
      "name": "ZERO_ADDRESS",
      "type": "error"
    },
    {
      "anonymous": false,
      "inputs": [
        {
          "indexed": true,
          "internalType": "address",
          "name": "user",
          "type": "address"
        }
      ],
      "name": "AllowFrom",
      "type": "event"
    },
    {
      "anonymous": false,
      "inputs": [
        {
          "indexed": true,
          "internalType": "address",
          "name": "user",
          "type": "address"
        }
      ],
      "name": "AllowOperator",
      "type": "event"
    },
    {
      "anonymous": false,
      "inputs": [
        {
          "indexed": true,
          "internalType": "address",
          "name": "operator",
          "type": "address"
        }
      ],
      "name": "AllowPermissionedOperator",
      "type": "event"
    },
    {
      "anonymous": false,
      "inputs": [
        {
          "indexed": true,
          "internalType": "address",
          "name": "user",
          "type": "address"
        }
      ],
      "name": "AllowTo",
      "type": "event"
    },
    {
      "anonymous": false,
      "inputs": [
        {
          "indexed": true,
          "internalType": "address",
          "name": "user",
          "type": "address"
        },
        {
          "indexed": true,
          "internalType": "contract Authority",
          "name": "newAuthority",
          "type": "address"
        }
      ],
      "name": "AuthorityUpdated",
      "type": "event"
    },
    {
      "anonymous": false,
      "inputs": [
        {
          "indexed": true,
          "internalType": "contract IBufferHelper",
          "name": "bufferHelper",
          "type": "address"
        }
      ],
      "name": "BufferHelperAllowed",
      "type": "event"
    },
    {
      "anonymous": false,
      "inputs": [
        {
          "indexed": true,
          "internalType": "contract IBufferHelper",
          "name": "bufferHelper",
          "type": "address"
        }
      ],
      "name": "BufferHelperDisallowed",
      "type": "event"
    },
    {
      "anonymous": false,
      "inputs": [
        {
          "indexed": true,
          "internalType": "address",
          "name": "asset",
          "type": "address"
        },
        {
          "indexed": false,
          "internalType": "uint256",
          "name": "depositAmount",
          "type": "uint256"
        }
      ],
      "name": "BulkDeposit",
      "type": "event"
    },
    {
      "anonymous": false,
      "inputs": [
        {
          "indexed": true,
          "internalType": "address",
          "name": "asset",
          "type": "address"
        },
        {
          "indexed": false,
          "internalType": "uint256",
          "name": "shareAmount",
          "type": "uint256"
        }
      ],
      "name": "BulkWithdraw",
      "type": "event"
    },
    {
      "anonymous": false,
      "inputs": [
        {
          "indexed": true,
          "internalType": "address",
          "name": "account",
          "type": "address"
        },
        {
          "indexed": false,
          "internalType": "uint256",
          "name": "amount",
          "type": "uint256"
        },
        {
          "indexed": false,
          "internalType": "uint256",
          "name": "shares",
          "type": "uint256"
        }
      ],
      "name": "CompoundReward",
      "type": "event"
    },
    {
      "anonymous": false,
      "inputs": [
        {
          "indexed": true,
          "internalType": "address",
          "name": "user",
          "type": "address"
        }
      ],
      "name": "DenyFrom",
      "type": "event"
    },
    {
      "anonymous": false,
      "inputs": [
        {
          "indexed": true,
          "internalType": "address",
          "name": "user",
          "type": "address"
        }
      ],
      "name": "DenyOperator",
      "type": "event"
    },
    {
      "anonymous": false,
      "inputs": [
        {
          "indexed": true,
          "internalType": "address",
          "name": "operator",
          "type": "address"
        }
      ],
      "name": "DenyPermissionedOperator",
      "type": "event"
    },
    {
      "anonymous": false,
      "inputs": [
        {
          "indexed": true,
          "internalType": "address",
          "name": "user",
          "type": "address"
        }
      ],
      "name": "DenyTo",
      "type": "event"
    },
    {
      "anonymous": false,
      "inputs": [
        {
          "indexed": false,
          "internalType": "uint256",
          "name": "nonce",
          "type": "uint256"
        },
        {
          "indexed": true,
          "internalType": "address",
          "name": "receiver",
          "type": "address"
        },
        {
          "indexed": false,
          "internalType": "uint256",
          "name": "depositAmount",
          "type": "uint256"
        },
        {
          "indexed": false,
          "internalType": "uint256",
          "name": "shareAmount",
          "type": "uint256"
        },
        {
          "indexed": false,
          "internalType": "uint256",
          "name": "depositTimestamp",
          "type": "uint256"
        },
        {
          "indexed": false,
          "internalType": "uint256",
          "name": "shareLockPeriodAtTimeOfDeposit",
          "type": "uint256"
        }
      ],
      "name": "Deposit",
      "type": "event"
    },
    {
      "anonymous": false,
      "inputs": [
        {
          "indexed": true,
          "internalType": "contract IBufferHelper",
          "name": "newDepositBufferHelper",
          "type": "address"
        }
      ],
      "name": "DepositBufferHelperSet",
      "type": "event"
    },
    {
      "anonymous": false,
      "inputs": [
        {
          "indexed": false,
          "internalType": "uint112",
          "name": "cap",
          "type": "uint112"
        }
      ],
      "name": "DepositCapSet",
      "type": "event"
    },
    {
      "anonymous": false,
      "inputs": [
        {
          "indexed": false,
          "internalType": "bool",
          "name": "allowed",
          "type": "bool"
        }
      ],
      "name": "DepositsAllowed",
      "type": "event"
    },
    {
      "anonymous": false,
      "inputs": [
        {
          "indexed": true,
          "internalType": "address",
          "name": "user",
          "type": "address"
        },
        {
          "indexed": true,
          "internalType": "address",
          "name": "newOwner",
          "type": "address"
        }
      ],
      "name": "OwnershipTransferred",
      "type": "event"
    },
    {
      "anonymous": false,
      "inputs": [],
      "name": "Paused",
      "type": "event"
    },
    {
      "anonymous": false,
      "inputs": [
        {
          "indexed": false,
          "internalType": "bool",
          "name": "permissionedTransfers",
          "type": "bool"
        }
      ],
      "name": "PermissionedTransfersSet",
      "type": "event"
    },
    {
      "anonymous": false,
      "inputs": [],
      "name": "Unpaused",
      "type": "event"
    },
    {
      "anonymous": false,
      "inputs": [
        {
          "indexed": true,
          "internalType": "address",
          "name": "asset",
          "type": "address"
        },
        {
          "indexed": false,
          "internalType": "uint256",
          "name": "shareAmount",
          "type": "uint256"
        }
      ],
      "name": "Withdraw",
      "type": "event"
    },
    {
      "anonymous": false,
      "inputs": [
        {
          "indexed": true,
          "internalType": "contract IBufferHelper",
          "name": "newWithdrawBufferHelper",
          "type": "address"
        }
      ],
      "name": "WithdrawBufferHelperSet",
      "type": "event"
    },
    {
      "anonymous": false,
      "inputs": [
        {
          "indexed": false,
          "internalType": "bool",
          "name": "allowed",
          "type": "bool"
        }
      ],
      "name": "WithdrawsAllowed",
      "type": "event"
    },
    {
      "inputs": [],
      "name": "accountant",
      "outputs": [
        {
          "internalType": "contract AccountantProviders",
          "name": "",
          "type": "address"
        }
      ],
      "stateMutability": "view",
      "type": "function"
    },
    {
      "inputs": [
        {
          "internalType": "contract IBufferHelper",
          "name": "_bufferHelper",
          "type": "address"
        }
      ],
      "name": "allowBufferHelper",
      "outputs": [],
      "stateMutability": "nonpayable",
      "type": "function"
    },
    {
      "inputs": [
        {
          "internalType": "contract IBufferHelper",
          "name": "",
          "type": "address"
        }
      ],
      "name": "allowedBufferHelpers",
      "outputs": [
        {
          "internalType": "bool",
          "name": "",
          "type": "bool"
        }
      ],
      "stateMutability": "view",
      "type": "function"
    },
    {
      "inputs": [],
      "name": "asset",
      "outputs": [
        {
          "internalType": "contract ERC20",
          "name": "",
          "type": "address"
        }
      ],
      "stateMutability": "view",
      "type": "function"
    },
    {
      "inputs": [],
      "name": "authority",
      "outputs": [
        {
          "internalType": "contract Authority",
          "name": "",
          "type": "address"
        }
      ],
      "stateMutability": "view",
      "type": "function"
    },
    {
      "inputs": [
        {
          "internalType": "address",
          "name": "",
          "type": "address"
        }
      ],
      "name": "beforeTransferData",
      "outputs": [
        {
          "internalType": "uint256",
          "name": "shareUnlockTime",
          "type": "uint256"
        }
      ],
      "stateMutability": "view",
      "type": "function"
    },
    {
      "inputs": [
        {
          "internalType": "address",
          "name": "from",
          "type": "address"
        },
        {
          "internalType": "address",
          "name": "to",
          "type": "address"
        },
        {
          "internalType": "uint256",
          "name": "",
          "type": "uint256"
        },
        {
          "internalType": "address",
          "name": "",
          "type": "address"
        }
      ],
      "name": "beforeUpdate",
      "outputs": [],
      "stateMutability": "nonpayable",
      "type": "function"
    },
    {
      "inputs": [],
      "name": "bufferHelpers",
      "outputs": [
        {
          "internalType": "contract IBufferHelper",
          "name": "depositBufferHelper",
          "type": "address"
        },
        {
          "internalType": "contract IBufferHelper",
          "name": "withdrawBufferHelper",
          "type": "address"
        }
      ],
      "stateMutability": "view",
      "type": "function"
    },
    {
      "inputs": [
        {
          "internalType": "uint256",
          "name": "depositAmount",
          "type": "uint256"
        },
        {
          "internalType": "uint256",
          "name": "minimumMint",
          "type": "uint256"
        },
        {
          "internalType": "address",
          "name": "to",
          "type": "address"
        }
      ],
      "name": "bulkDeposit",
      "outputs": [
        {
          "internalType": "uint256",
          "name": "shares",
          "type": "uint256"
        }
      ],
      "stateMutability": "nonpayable",
      "type": "function"
    },
    {
      "inputs": [
        {
          "internalType": "uint256",
          "name": "shareAmount",
          "type": "uint256"
        },
        {
          "internalType": "uint256",
          "name": "minimumAssets",
          "type": "uint256"
        },
        {
          "internalType": "address",
          "name": "to",
          "type": "address"
        }
      ],
      "name": "bulkWithdraw",
      "outputs": [
        {
          "internalType": "uint256",
          "name": "assetsOut",
          "type": "uint256"
        }
      ],
      "stateMutability": "nonpayable",
      "type": "function"
    },
    {
      "inputs": [
        {
          "internalType": "uint256",
          "name": "depositAmount",
          "type": "uint256"
        },
        {
          "internalType": "uint256",
          "name": "minimumMint",
          "type": "uint256"
        },
        {
          "internalType": "address",
          "name": "to",
          "type": "address"
        }
      ],
      "name": "deposit",
      "outputs": [
        {
          "internalType": "uint256",
          "name": "shares",
          "type": "uint256"
        }
      ],
      "stateMutability": "nonpayable",
      "type": "function"
    },
    {
      "inputs": [
        {
          "internalType": "contract IBufferHelper",
          "name": "_bufferHelper",
          "type": "address"
        }
      ],
      "name": "disallowBufferHelper",
      "outputs": [],
      "stateMutability": "nonpayable",
      "type": "function"
    },
    {
      "inputs": [],
      "name": "distributor",
      "outputs": [
        {
          "internalType": "contract Distributor",
          "name": "",
          "type": "address"
        }
      ],
      "stateMutability": "view",
      "type": "function"
    },
    {
      "inputs": [],
      "name": "getTellerState",
      "outputs": [
        {
          "components": [
            {
              "internalType": "bool",
              "name": "allowDeposits",
              "type": "bool"
            },
            {
              "internalType": "bool",
              "name": "allowWithdraws",
              "type": "bool"
            },
            {
              "internalType": "uint64",
              "name": "shareLockPeriod",
              "type": "uint64"
            },
            {
              "internalType": "uint112",
              "name": "depositCap",
              "type": "uint112"
            }
          ],
          "internalType": "struct Teller.TellerState",
          "name": "",
          "type": "tuple"
        }
      ],
      "stateMutability": "view",
      "type": "function"
    },
    {
      "inputs": [],
      "name": "isPaused",
      "outputs": [
        {
          "internalType": "bool",
          "name": "",
          "type": "bool"
        }
      ],
      "stateMutability": "view",
      "type": "function"
    },
    {
      "inputs": [],
      "name": "owner",
      "outputs": [
        {
          "internalType": "address",
          "name": "",
          "type": "address"
        }
      ],
      "stateMutability": "view",
      "type": "function"
    },
    {
      "inputs": [],
      "name": "pause",
      "outputs": [],
      "stateMutability": "nonpayable",
      "type": "function"
    },
    {
      "inputs": [],
      "name": "primeRBAC",
      "outputs": [
        {
          "internalType": "contract IPrimeRBAC",
          "name": "",
          "type": "address"
        }
      ],
      "stateMutability": "view",
      "type": "function"
    },
    {
      "inputs": [
        {
          "internalType": "bool",
          "name": "_allowDeposits",
          "type": "bool"
        }
      ],
      "name": "setAllowDeposits",
      "outputs": [],
      "stateMutability": "nonpayable",
      "type": "function"
    },
    {
      "inputs": [
        {
          "internalType": "bool",
          "name": "_allowWithdraws",
          "type": "bool"
        }
      ],
      "name": "setAllowWithdraws",
      "outputs": [],
      "stateMutability": "nonpayable",
      "type": "function"
    },
    {
      "inputs": [
        {
          "internalType": "contract Authority",
          "name": "newAuthority",
          "type": "address"
        }
      ],
      "name": "setAuthority",
      "outputs": [],
      "stateMutability": "nonpayable",
      "type": "function"
    },
    {
      "inputs": [
        {
          "internalType": "contract IBufferHelper",
          "name": "_depositBufferHelper",
          "type": "address"
        }
      ],
      "name": "setDepositBufferHelper",
      "outputs": [],
      "stateMutability": "nonpayable",
      "type": "function"
    },
    {
      "inputs": [
        {
          "internalType": "uint112",
          "name": "cap",
          "type": "uint112"
        }
      ],
      "name": "setDepositCap",
      "outputs": [],
      "stateMutability": "nonpayable",
      "type": "function"
    },
    {
      "inputs": [
        {
          "internalType": "address",
          "name": "_distributor",
          "type": "address"
        }
      ],
      "name": "setDistributor",
      "outputs": [],
      "stateMutability": "nonpayable",
      "type": "function"
    },
    {
      "inputs": [
        {
          "internalType": "uint64",
          "name": "_shareLockPeriod",
          "type": "uint64"
        }
      ],
      "name": "setShareLockPeriod",
      "outputs": [],
      "stateMutability": "nonpayable",
      "type": "function"
    },
    {
      "inputs": [
        {
          "internalType": "contract IBufferHelper",
          "name": "_withdrawBufferHelper",
          "type": "address"
        }
      ],
      "name": "setWithdrawBufferHelper",
      "outputs": [],
      "stateMutability": "nonpayable",
      "type": "function"
    },
    {
      "inputs": [],
      "name": "tellerState",
      "outputs": [
        {
          "internalType": "bool",
          "name": "allowDeposits",
          "type": "bool"
        },
        {
          "internalType": "bool",
          "name": "allowWithdraws",
          "type": "bool"
        },
        {
          "internalType": "uint64",
          "name": "shareLockPeriod",
          "type": "uint64"
        },
        {
          "internalType": "uint112",
          "name": "depositCap",
          "type": "uint112"
        }
      ],
      "stateMutability": "view",
      "type": "function"
    },
    {
      "inputs": [
        {
          "internalType": "address",
          "name": "newOwner",
          "type": "address"
        }
      ],
      "name": "transferOwnership",
      "outputs": [],
      "stateMutability": "nonpayable",
      "type": "function"
    },
    {
      "inputs": [],
      "name": "unpause",
      "outputs": [],
      "stateMutability": "nonpayable",
      "type": "function"
    },
    {
      "inputs": [],
      "name": "vault",
      "outputs": [
        {
          "internalType": "contract BoringVault",
          "name": "",
          "type": "address"
        }
      ],
      "stateMutability": "view",
      "type": "function"
    },
    {
      "inputs": [],
      "name": "version",
      "outputs": [
        {
          "internalType": "string",
          "name": "",
          "type": "string"
        }
      ],
      "stateMutability": "pure",
      "type": "function"
    },
    {
      "inputs": [
        {
          "internalType": "uint256",
          "name": "shareAmount",
          "type": "uint256"
        },
        {
          "internalType": "uint256",
          "name": "minimumAssets",
          "type": "uint256"
        },
        {
          "internalType": "address",
          "name": "to",
          "type": "address"
        }
      ],
      "name": "withdraw",
      "outputs": [
        {
          "internalType": "uint256",
          "name": "assetsOut",
          "type": "uint256"
        }
      ],
      "stateMutability": "nonpayable",
      "type": "function"
    }
  ],
  "bytecode": "0x6101006040526001600355348015610015575f5ffd5b506040516153003803806153008339818101604052810190610037919061059c565b828282828273ffffffffffffffffffffffffffffffffffffffff1663bf7e214f6040518163ffffffff1660e01b8152600401602060405180830381865afa158015610084573d5f5f3e3d5ffd5b505050506040513d601f19601f820116820180604052508101906100a89190610627565b3381815f5f6101000a81548173ffffffffffffffffffffffffffffffffffffffff021916908373ffffffffffffffffffffffffffffffffffffffff1602179055508060015f6101000a81548173ffffffffffffffffffffffffffffffffffffffff021916908373ffffffffffffffffffffffffffffffffffffffff1602179055508173ffffffffffffffffffffffffffffffffffffffff163373ffffffffffffffffffffffffffffffffffffffff167f8be0079c531659141344cd1fd0a4f28419497f9722a3daafe3b4186f6b6457e060405160405180910390a38073ffffffffffffffffffffffffffffffffffffffff163373ffffffffffffffffffffffffffffffffffffffff167fa3396fd7f6e0a21b50e5089d2da70d5ac0a3bbbd1f617a93f134b7638998019860405160405180910390a350505f73ffffffffffffffffffffffffffffffffffffffff168273ffffffffffffffffffffffffffffffffffffffff16148061024457505f73ffffffffffffffffffffffffffffffffffffffff168173ffffffffffffffffffffffffffffffffffffffff16145b1561027b576040517f538ba4f900000000000000000000000000000000000000000000000000000000815260040160405180910390fd5b8160025f6101000a81548173ffffffffffffffffffffffffffffffffffffffff021916908373ffffffffffffffffffffffffffffffffffffffff16021790555050508173ffffffffffffffffffffffffffffffffffffffff1660a08173ffffffffffffffffffffffffffffffffffffffff168152505060a05173ffffffffffffffffffffffffffffffffffffffff1663313ce5676040518163ffffffff1660e01b8152600401602060405180830381865afa15801561033c573d5f5f3e3d5ffd5b505050506040513d601f19601f820116820180604052508101906103609190610688565b600a61036c9190610818565b60e081815250508073ffffffffffffffffffffffffffffffffffffffff1660c08173ffffffffffffffffffffffffffffffffffffffff168152505060a05173ffffffffffffffffffffffffffffffffffffffff166338d52e0f6040518163ffffffff1660e01b8152600401602060405180830381865afa1580156103f2573d5f5f3e3d5ffd5b505050506040513d601f19601f82011682018060405250810190610416919061089d565b73ffffffffffffffffffffffffffffffffffffffff1660808173ffffffffffffffffffffffffffffffffffffffff168152505060405180608001604052806001151581526020016001151581526020015f67ffffffffffffffff1681526020016dffffffffffffffffffffffffffff801681525060045f820151815f015f6101000a81548160ff0219169083151502179055506020820151815f0160016101000a81548160ff0219169083151502179055506040820151815f0160026101000a81548167ffffffffffffffff021916908367ffffffffffffffff1602179055506060820151815f01600a6101000a8154816dffffffffffffffffffffffffffff02191690836dffffffffffffffffffffffffffff1602179055509050505050505050506108c8565b5f5ffd5b5f73ffffffffffffffffffffffffffffffffffffffff82169050919050565b5f61056b82610542565b9050919050565b61057b81610561565b8114610585575f5ffd5b50565b5f8151905061059681610572565b92915050565b5f5f5f606084860312156105b3576105b261053e565b5b5f6105c086828701610588565b93505060206105d186828701610588565b92505060406105e286828701610588565b9150509250925092565b5f6105f682610561565b9050919050565b610606816105ec565b8114610610575f5ffd5b50565b5f81519050610621816105fd565b92915050565b5f6020828403121561063c5761063b61053e565b5b5f61064984828501610613565b91505092915050565b5f60ff82169050919050565b61066781610652565b8114610671575f5ffd5b50565b5f815190506106828161065e565b92915050565b5f6020828403121561069d5761069c61053e565b5b5f6106aa84828501610674565b91505092915050565b7f4e487b71000000000000000000000000000000000000000000000000000000005f52601160045260245ffd5b5f8160011c9050919050565b5f5f8291508390505b600185111561073557808604811115610711576107106106b3565b5b60018516156107205780820291505b808102905061072e856106e0565b94506106f5565b94509492505050565b5f8261074d5760019050610808565b8161075a575f9050610808565b8160018114610770576002811461077a576107a9565b6001915050610808565b60ff84111561078c5761078b6106b3565b5b8360020a9150848211156107a3576107a26106b3565b5b50610808565b5060208310610133831016604e8410600b84101617156107de5782820a9050838111156107d9576107d86106b3565b5b610808565b6107eb84848460016106ec565b92509050818404811115610802576108016106b3565b5b81810290505b9392505050565b5f819050919050565b5f6108228261080f565b915061082d83610652565b925061085a7fffffffffffffffffffffffffffffffffffffffffffffffffffffffffffffffff848461073e565b905092915050565b5f61086c82610561565b9050919050565b61087c81610862565b8114610886575f5ffd5b50565b5f8151905061089781610873565b92915050565b5f602082840312156108b2576108b161053e565b5b5f6108bf84828501610889565b91505092915050565b60805160a05160c05160e0516149a361095d5f395f8181612c310152612eb101525f81816112ed01528181612aae01528181612ba40152612ed201525f818161295001528181612ca701528181612ff00152818161311d015281816133d1015261359801525f81816109cf01528181610e4b0152818161168f015281816117dc0152818161334a015261351101526149a35ff3fe608060405234801561000f575f5ffd5b50600436106101ee575f3560e01c806373ad629c1161010d578063a6549221116100a0578063e37d7e681161006f578063e37d7e681461056c578063e99109651461058a578063f2fde38b146105a8578063fbfa77cf146105c4576101ee565b8063a6549221146104f6578063b187bd2614610512578063bf7e214f14610530578063bfe109281461054e576101ee565b80638456cb59116100dc5780638456cb59146104825780638da5cb5b1461048c5780638dbdbe6d146104aa5780639300003a146104da576101ee565b806373ad629c1461041257806375619ab51461042e5780637a9e5e4b1461044a5780637bd876b614610466576101ee565b80634fb3ccc511610185578063657ae3f111610154578063657ae3f11461036157806367e1efc31461039157806368119bc5146103c157806368cbc755146103f1576101ee565b80634fb3ccc5146102d957806354fd4d50146102f75780635710b03f146103155780635c46543014610331576101ee565b80631f23afc8116101c15780631f23afc81461027957806338d52e0f146102955780633f4ba83a146102b35780634c3bde42146102bd576101ee565b8063088c644d146101f25780630ad58d2f1461020e5780630d8ada4e1461023e57806312056e2d1461025d575b5f5ffd5b61020c600480360381019061020791906136fc565b6105e2565b005b61022860048036038101906102239190613784565b6108a4565b60405161023591906137e3565b60405180910390f35b610246610a4a565b604051610254929190613857565b60405180910390f35b610277600480360381019061027291906138bb565b610a99565b005b610293600480360381019061028e919061391b565b610c81565b005b61029d610e49565b6040516102aa9190613966565b60405180910390f35b6102bb610e6d565b005b6102d760048036038101906102d291906136fc565b611028565b005b6102e16112eb565b6040516102ee919061399f565b60405180910390f35b6102ff61130f565b60405161030c9190613a28565b60405180910390f35b61032f600480360381019061032a91906136fc565b61133d565b005b61034b60048036038101906103469190613a48565b61154a565b60405161035891906137e3565b60405180910390f35b61037b60048036038101906103769190613784565b611564565b60405161038891906137e3565b60405180910390f35b6103ab60048036038101906103a69190613784565b61170a565b6040516103b891906137e3565b60405180910390f35b6103db60048036038101906103d691906136fc565b611857565b6040516103e89190613a82565b60405180910390f35b6103f9611874565b6040516104099493929190613ad2565b60405180910390f35b61042c6004803603810190610427919061391b565b6118d5565b005b61044860048036038101906104439190613a48565b611a9e565b005b610464600480360381019061045f9190613b50565b611c54565b005b610480600480360381019061047b9190613ba5565b611e0f565b005b61048a611ff3565b005b6104946121af565b6040516104a19190613bdf565b60405180910390f35b6104c460048036038101906104bf9190613784565b6121d3565b6040516104d191906137e3565b60405180910390f35b6104f460048036038101906104ef91906136fc565b612317565b005b610510600480360381019061050b9190613bf8565b612481565b005b61051a612703565b6040516105279190613a82565b60405180910390f35b610538612716565b6040516105459190613c7c565b60405180910390f35b61055661273b565b6040516105639190613cb5565b60405180910390f35b610574612760565b6040516105819190613cee565b60405180910390f35b610592612785565b60405161059f9190613d87565b60405180910390f35b6105c260048036038101906105bd9190613a48565b612846565b005b6105cc61294e565b6040516105d99190613dd1565b60405180910390f35b60025f9054906101000a900473ffffffffffffffffffffffffffffffffffffffff1673ffffffffffffffffffffffffffffffffffffffff1663d35911f2336040518263ffffffff1660e01b815260040161063c9190613bdf565b602060405180830381865afa158015610657573d5f5f3e3d5ffd5b505050506040513d601f19601f8201168201806040525081019061067b9190613dfe565b15801561071e575060025f9054906101000a900473ffffffffffffffffffffffffffffffffffffffff1673ffffffffffffffffffffffffffffffffffffffff1663c138c139336040518263ffffffff1660e01b81526004016106dd9190613bdf565b602060405180830381865afa1580156106f8573d5f5f3e3d5ffd5b505050506040513d601f19601f8201168201806040525081019061071c9190613dfe565b155b15610755576040517fdc85555400000000000000000000000000000000000000000000000000000000815260040160405180910390fd5b60095f8273ffffffffffffffffffffffffffffffffffffffff1673ffffffffffffffffffffffffffffffffffffffff1681526020019081526020015f205f9054906101000a900460ff16806107d557505f73ffffffffffffffffffffffffffffffffffffffff168173ffffffffffffffffffffffffffffffffffffffff16145b15610864578060075f015f6101000a81548173ffffffffffffffffffffffffffffffffffffffff021916908373ffffffffffffffffffffffffffffffffffffffff1602179055508073ffffffffffffffffffffffffffffffffffffffff167f421ac73f226261ee4c66488795b53b363d3335b860babcefd318c1f8f10c022360405160405180910390a26108a1565b806040517fdb1785f50000000000000000000000000000000000000000000000000000000081526004016108989190613e29565b60405180910390fd5b50565b5f6108d2335f357fffffffff0000000000000000000000000000000000000000000000000000000016612972565b610911576040517f08c379a000000000000000000000000000000000000000000000000000000000815260040161090890613e8c565b60405180910390fd5b600160035414610956576040517f08c379a000000000000000000000000000000000000000000000000000000000815260040161094d90613ef4565b60405180910390fd5b6002600381905550610966612aab565b73ffffffffffffffffffffffffffffffffffffffff166302ce728f6040518163ffffffff1660e01b81526004015f604051808303815f87803b1580156109aa575f5ffd5b505af11580156109bc573d5f5f3e3d5ffd5b505050506109cb848484612ad2565b90507f000000000000000000000000000000000000000000000000000000000000000073ffffffffffffffffffffffffffffffffffffffff167f884edad9ce6fa2440d8a54cc123490eb96d2768479d49ff9c7366125a942436485604051610a3391906137e3565b60405180910390a260016003819055509392505050565b6007805f015f9054906101000a900473ffffffffffffffffffffffffffffffffffffffff1690806001015f9054906101000a900473ffffffffffffffffffffffffffffffffffffffff16905082565b60025f9054906101000a900473ffffffffffffffffffffffffffffffffffffffff1673ffffffffffffffffffffffffffffffffffffffff1663d35911f2336040518263ffffffff1660e01b8152600401610af39190613bdf565b602060405180830381865afa158015610b0e573d5f5f3e3d5ffd5b505050506040513d601f19601f82011682018060405250810190610b329190613dfe565b158015610bd5575060025f9054906101000a900473ffffffffffffffffffffffffffffffffffffffff1673ffffffffffffffffffffffffffffffffffffffff1663c138c139336040518263ffffffff1660e01b8152600401610b949190613bdf565b602060405180830381865afa158015610baf573d5f5f3e3d5ffd5b505050506040513d601f19601f82011682018060405250810190610bd39190613dfe565b155b15610c0c576040517fdc85555400000000000000000000000000000000000000000000000000000000815260040160405180910390fd5b62093a808167ffffffffffffffff161115610c53576040517fb243837200000000000000000000000000000000000000000000000000000000815260040160405180910390fd5b8060045f0160026101000a81548167ffffffffffffffff021916908367ffffffffffffffff16021790555050565b60025f9054906101000a900473ffffffffffffffffffffffffffffffffffffffff1673ffffffffffffffffffffffffffffffffffffffff1663d35911f2336040518263ffffffff1660e01b8152600401610cdb9190613bdf565b602060405180830381865afa158015610cf6573d5f5f3e3d5ffd5b505050506040513d601f19601f82011682018060405250810190610d1a9190613dfe565b158015610dbd575060025f9054906101000a900473ffffffffffffffffffffffffffffffffffffffff1673ffffffffffffffffffffffffffffffffffffffff1663c138c139336040518263ffffffff1660e01b8152600401610d7c9190613bdf565b602060405180830381865afa158015610d97573d5f5f3e3d5ffd5b505050506040513d601f19601f82011682018060405250810190610dbb9190613dfe565b155b15610df4576040517fdc85555400000000000000000000000000000000000000000000000000000000815260040160405180910390fd5b8060045f015f6101000a81548160ff0219169083151502179055507f64135eada30d50353f01495f95ccc6e95ab8a53af94da04b62c3b060092283e581604051610e3e9190613a82565b60405180910390a150565b7f000000000000000000000000000000000000000000000000000000000000000081565b60025f9054906101000a900473ffffffffffffffffffffffffffffffffffffffff1673ffffffffffffffffffffffffffffffffffffffff1663d35911f2336040518263ffffffff1660e01b8152600401610ec79190613bdf565b602060405180830381865afa158015610ee2573d5f5f3e3d5ffd5b505050506040513d601f19601f82011682018060405250810190610f069190613dfe565b158015610fa9575060025f9054906101000a900473ffffffffffffffffffffffffffffffffffffffff1673ffffffffffffffffffffffffffffffffffffffff1663c138c139336040518263ffffffff1660e01b8152600401610f689190613bdf565b602060405180830381865afa158015610f83573d5f5f3e3d5ffd5b505050506040513d601f19601f82011682018060405250810190610fa79190613dfe565b155b15610fe0576040517fdc85555400000000000000000000000000000000000000000000000000000000815260040160405180910390fd5b5f600260146101000a81548160ff0219169083151502179055507fa45f47fdea8a1efdd9029a5691c7f759c32b7c698632b563573e155625d1693360405160405180910390a1565b60025f9054906101000a900473ffffffffffffffffffffffffffffffffffffffff1673ffffffffffffffffffffffffffffffffffffffff1663d35911f2336040518263ffffffff1660e01b81526004016110829190613bdf565b602060405180830381865afa15801561109d573d5f5f3e3d5ffd5b505050506040513d601f19601f820116820180604052508101906110c19190613dfe565b158015611164575060025f9054906101000a900473ffffffffffffffffffffffffffffffffffffffff1673ffffffffffffffffffffffffffffffffffffffff1663c138c139336040518263ffffffff1660e01b81526004016111239190613bdf565b602060405180830381865afa15801561113e573d5f5f3e3d5ffd5b505050506040513d601f19601f820116820180604052508101906111629190613dfe565b155b1561119b576040517fdc85555400000000000000000000000000000000000000000000000000000000815260040160405180910390fd5b60095f8273ffffffffffffffffffffffffffffffffffffffff1673ffffffffffffffffffffffffffffffffffffffff1681526020019081526020015f205f9054906101000a900460ff168061121b57505f73ffffffffffffffffffffffffffffffffffffffff168173ffffffffffffffffffffffffffffffffffffffff16145b156112ab578060076001015f6101000a81548173ffffffffffffffffffffffffffffffffffffffff021916908373ffffffffffffffffffffffffffffffffffffffff1602179055508073ffffffffffffffffffffffffffffffffffffffff167ffb7258ef087c9bc5a9a50c1beea112ed1a53c8dd98f107673aba61937bdcdfcd60405160405180910390a26112e8565b806040517fdb1785f50000000000000000000000000000000000000000000000000000000081526004016112df9190613e29565b60405180910390fd5b50565b7f000000000000000000000000000000000000000000000000000000000000000081565b6060611319612d39565b6040516020016113299190613f96565b604051602081830303815290604052905090565b60025f9054906101000a900473ffffffffffffffffffffffffffffffffffffffff1673ffffffffffffffffffffffffffffffffffffffff1663d35911f2336040518263ffffffff1660e01b81526004016113979190613bdf565b602060405180830381865afa1580156113b2573d5f5f3e3d5ffd5b505050506040513d601f19601f820116820180604052508101906113d69190613dfe565b158015611479575060025f9054906101000a900473ffffffffffffffffffffffffffffffffffffffff1673ffffffffffffffffffffffffffffffffffffffff1663c138c139336040518263ffffffff1660e01b81526004016114389190613bdf565b602060405180830381865afa158015611453573d5f5f3e3d5ffd5b505050506040513d601f19601f820116820180604052508101906114779190613dfe565b155b156114b0576040517fdc85555400000000000000000000000000000000000000000000000000000000815260040160405180910390fd5b5f60095f8373ffffffffffffffffffffffffffffffffffffffff1673ffffffffffffffffffffffffffffffffffffffff1681526020019081526020015f205f6101000a81548160ff0219169083151502179055508073ffffffffffffffffffffffffffffffffffffffff167fa451ec34a599afd13d737b271bcd194cd2c3b891df79bc124da826c7f1e1439560405160405180910390a250565b6005602052805f5260405f205f91509050805f0154905081565b5f611592335f357fffffffff0000000000000000000000000000000000000000000000000000000016612972565b6115d1576040517f08c379a00000000000000000000000000000000000000000000000000000000081526004016115c890613e8c565b60405180910390fd5b600160035414611616576040517f08c379a000000000000000000000000000000000000000000000000000000000815260040161160d90613ef4565b60405180910390fd5b6002600381905550611626612aab565b73ffffffffffffffffffffffffffffffffffffffff166302ce728f6040518163ffffffff1660e01b81526004015f604051808303815f87803b15801561166a575f5ffd5b505af115801561167c573d5f5f3e3d5ffd5b5050505061168b848484612ad2565b90507f000000000000000000000000000000000000000000000000000000000000000073ffffffffffffffffffffffffffffffffffffffff167fdcc60b41ff1c604459e6aa4a7299817416b19fc586a392f111646e26597c4af9856040516116f391906137e3565b60405180910390a260016003819055509392505050565b5f611738335f357fffffffff0000000000000000000000000000000000000000000000000000000016612972565b611777576040517f08c379a000000000000000000000000000000000000000000000000000000000815260040161176e90613e8c565b60405180910390fd5b6001600354146117bc576040517f08c379a00000000000000000000000000000000000000000000000000000000081526004016117b390613ef4565b60405180910390fd5b60026003819055506117cc612d76565b6117d884843385612e0b565b90507f000000000000000000000000000000000000000000000000000000000000000073ffffffffffffffffffffffffffffffffffffffff167f6f9b974223f85a1ae805c33b8b519039e2435481d949db1110de151a94d587af8560405161184091906137e3565b60405180910390a260016003819055509392505050565b6009602052805f5260405f205f915054906101000a900460ff1681565b6004805f015f9054906101000a900460ff1690805f0160019054906101000a900460ff1690805f0160029054906101000a900467ffffffffffffffff1690805f01600a9054906101000a90046dffffffffffffffffffffffffffff16905084565b60025f9054906101000a900473ffffffffffffffffffffffffffffffffffffffff1673ffffffffffffffffffffffffffffffffffffffff1663d35911f2336040518263ffffffff1660e01b815260040161192f9190613bdf565b602060405180830381865afa15801561194a573d5f5f3e3d5ffd5b505050506040513d601f19601f8201168201806040525081019061196e9190613dfe565b158015611a11575060025f9054906101000a900473ffffffffffffffffffffffffffffffffffffffff1673ffffffffffffffffffffffffffffffffffffffff1663c138c139336040518263ffffffff1660e01b81526004016119d09190613bdf565b602060405180830381865afa1580156119eb573d5f5f3e3d5ffd5b505050506040513d601f19601f82011682018060405250810190611a0f9190613dfe565b155b15611a48576040517fdc85555400000000000000000000000000000000000000000000000000000000815260040160405180910390fd5b8060045f0160016101000a81548160ff0219169083151502179055507fd620fa2aed717c0d930cd04a59339f11dc1074a41073255d6072540a0a1a2b5381604051611a939190613a82565b60405180910390a150565b60025f9054906101000a900473ffffffffffffffffffffffffffffffffffffffff1673ffffffffffffffffffffffffffffffffffffffff1663d35911f2336040518263ffffffff1660e01b8152600401611af89190613bdf565b602060405180830381865afa158015611b13573d5f5f3e3d5ffd5b505050506040513d601f19601f82011682018060405250810190611b379190613dfe565b158015611bda575060025f9054906101000a900473ffffffffffffffffffffffffffffffffffffffff1673ffffffffffffffffffffffffffffffffffffffff1663c138c139336040518263ffffffff1660e01b8152600401611b999190613bdf565b602060405180830381865afa158015611bb4573d5f5f3e3d5ffd5b505050506040513d601f19601f82011682018060405250810190611bd89190613dfe565b155b15611c11576040517fdc85555400000000000000000000000000000000000000000000000000000000815260040160405180910390fd5b8060065f6101000a81548173ffffffffffffffffffffffffffffffffffffffff021916908373ffffffffffffffffffffffffffffffffffffffff16021790555050565b5f5f9054906101000a900473ffffffffffffffffffffffffffffffffffffffff1673ffffffffffffffffffffffffffffffffffffffff163373ffffffffffffffffffffffffffffffffffffffff161480611d6a575060015f9054906101000a900473ffffffffffffffffffffffffffffffffffffffff1673ffffffffffffffffffffffffffffffffffffffff1663b700961333305f357fffffffff00000000000000000000000000000000000000000000000000000000166040518463ffffffff1660e01b8152600401611d2a93929190613ff1565b602060405180830381865afa158015611d45573d5f5f3e3d5ffd5b505050506040513d601f19601f82011682018060405250810190611d699190613dfe565b5b611d72575f5ffd5b8060015f6101000a81548173ffffffffffffffffffffffffffffffffffffffff021916908373ffffffffffffffffffffffffffffffffffffffff1602179055508073ffffffffffffffffffffffffffffffffffffffff163373ffffffffffffffffffffffffffffffffffffffff167fa3396fd7f6e0a21b50e5089d2da70d5ac0a3bbbd1f617a93f134b7638998019860405160405180910390a350565b60025f9054906101000a900473ffffffffffffffffffffffffffffffffffffffff1673ffffffffffffffffffffffffffffffffffffffff1663d35911f2336040518263ffffffff1660e01b8152600401611e699190613bdf565b602060405180830381865afa158015611e84573d5f5f3e3d5ffd5b505050506040513d601f19601f82011682018060405250810190611ea89190613dfe565b158015611f4b575060025f9054906101000a900473ffffffffffffffffffffffffffffffffffffffff1673ffffffffffffffffffffffffffffffffffffffff1663c138c139336040518263ffffffff1660e01b8152600401611f0a9190613bdf565b602060405180830381865afa158015611f25573d5f5f3e3d5ffd5b505050506040513d601f19601f82011682018060405250810190611f499190613dfe565b155b15611f82576040517fdc85555400000000000000000000000000000000000000000000000000000000815260040160405180910390fd5b8060045f01600a6101000a8154816dffffffffffffffffffffffffffff02191690836dffffffffffffffffffffffffffff1602179055507f752cd3d8df6864142257fa3a2e02aedf2dc09f1875c2a25b4f117d45c7334d5d81604051611fe89190614026565b60405180910390a150565b60025f9054906101000a900473ffffffffffffffffffffffffffffffffffffffff1673ffffffffffffffffffffffffffffffffffffffff1663d35911f2336040518263ffffffff1660e01b815260040161204d9190613bdf565b602060405180830381865afa158015612068573d5f5f3e3d5ffd5b505050506040513d601f19601f8201168201806040525081019061208c9190613dfe565b15801561212f575060025f9054906101000a900473ffffffffffffffffffffffffffffffffffffffff1673ffffffffffffffffffffffffffffffffffffffff1663c138c139336040518263ffffffff1660e01b81526004016120ee9190613bdf565b602060405180830381865afa158015612109573d5f5f3e3d5ffd5b505050506040513d601f19601f8201168201806040525081019061212d9190613dfe565b155b15612166576040517fdc85555400000000000000000000000000000000000000000000000000000000815260040160405180910390fd5b6001600260146101000a81548160ff0219169083151502179055507f9e87fac88ff661f02d44f95383c817fece4bce600a3dab7a54406878b965e75260405160405180910390a1565b5f5f9054906101000a900473ffffffffffffffffffffffffffffffffffffffff1681565b5f612201335f357fffffffff0000000000000000000000000000000000000000000000000000000016612972565b612240576040517f08c379a000000000000000000000000000000000000000000000000000000000815260040161223790613e8c565b60405180910390fd5b600160035414612285576040517f08c379a000000000000000000000000000000000000000000000000000000000815260040161227c90613ef4565b60405180910390fd5b60026003819055505f73ffffffffffffffffffffffffffffffffffffffff168273ffffffffffffffffffffffffffffffffffffffff16036122c4573391505b6122cc612d76565b6122d884843385612e0b565b905061230882858360045f0160029054906101000a900467ffffffffffffffff1667ffffffffffffffff166131b9565b60016003819055509392505050565b60025f9054906101000a900473ffffffffffffffffffffffffffffffffffffffff1673ffffffffffffffffffffffffffffffffffffffff1663c138c139336040518263ffffffff1660e01b81526004016123719190613bdf565b602060405180830381865afa15801561238c573d5f5f3e3d5ffd5b505050506040513d601f19601f820116820180604052508101906123b09190613dfe565b6123e6576040517f71d78b1200000000000000000000000000000000000000000000000000000000815260040160405180910390fd5b600160095f8373ffffffffffffffffffffffffffffffffffffffff1673ffffffffffffffffffffffffffffffffffffffff1681526020019081526020015f205f6101000a81548160ff0219169083151502179055508073ffffffffffffffffffffffffffffffffffffffff167fbbd1060adb905a8ecf06a33a19b4c634caaec5ef6268043300f69a75ea332e3160405160405180910390a250565b5f73ffffffffffffffffffffffffffffffffffffffff1660065f9054906101000a900473ffffffffffffffffffffffffffffffffffffffff1673ffffffffffffffffffffffffffffffffffffffff161461264c575f73ffffffffffffffffffffffffffffffffffffffff168473ffffffffffffffffffffffffffffffffffffffff16146125905760065f9054906101000a900473ffffffffffffffffffffffffffffffffffffffff1673ffffffffffffffffffffffffffffffffffffffff1663f0ea5915856040518263ffffffff1660e01b81526004016125629190613bdf565b5f604051808303815f87803b158015612579575f5ffd5b505af115801561258b573d5f5f3e3d5ffd5b505050505b5f73ffffffffffffffffffffffffffffffffffffffff168373ffffffffffffffffffffffffffffffffffffffff161461264b5760065f9054906101000a900473ffffffffffffffffffffffffffffffffffffffff1673ffffffffffffffffffffffffffffffffffffffff1663f0ea5915846040518263ffffffff1660e01b815260040161261d9190613bdf565b5f604051808303815f87803b158015612634575f5ffd5b505af1158015612646573d5f5f3e3d5ffd5b505050505b5b5f73ffffffffffffffffffffffffffffffffffffffff168473ffffffffffffffffffffffffffffffffffffffff16141580156126c657504260055f8673ffffffffffffffffffffffffffffffffffffffff1673ffffffffffffffffffffffffffffffffffffffff1681526020019081526020015f205f0154115b156126fd576040517f9e4dc5da00000000000000000000000000000000000000000000000000000000815260040160405180910390fd5b50505050565b600260149054906101000a900460ff1681565b60015f9054906101000a900473ffffffffffffffffffffffffffffffffffffffff1681565b60065f9054906101000a900473ffffffffffffffffffffffffffffffffffffffff1681565b60025f9054906101000a900473ffffffffffffffffffffffffffffffffffffffff1681565b61278d61363e565b60046040518060800160405290815f82015f9054906101000a900460ff161515151581526020015f820160019054906101000a900460ff161515151581526020015f820160029054906101000a900467ffffffffffffffff1667ffffffffffffffff1667ffffffffffffffff1681526020015f8201600a9054906101000a90046dffffffffffffffffffffffffffff166dffffffffffffffffffffffffffff166dffffffffffffffffffffffffffff1681525050905090565b612873335f357fffffffff0000000000000000000000000000000000000000000000000000000016612972565b6128b2576040517f08c379a00000000000000000000000000000000000000000000000000000000081526004016128a990613e8c565b60405180910390fd5b805f5f6101000a81548173ffffffffffffffffffffffffffffffffffffffff021916908373ffffffffffffffffffffffffffffffffffffffff1602179055508073ffffffffffffffffffffffffffffffffffffffff163373ffffffffffffffffffffffffffffffffffffffff167f8be0079c531659141344cd1fd0a4f28419497f9722a3daafe3b4186f6b6457e060405160405180910390a350565b7f000000000000000000000000000000000000000000000000000000000000000081565b5f5f60015f9054906101000a900473ffffffffffffffffffffffffffffffffffffffff1690505f73ffffffffffffffffffffffffffffffffffffffff168173ffffffffffffffffffffffffffffffffffffffff1614158015612a4c57508073ffffffffffffffffffffffffffffffffffffffff1663b70096138530866040518463ffffffff1660e01b8152600401612a0c93929190613ff1565b602060405180830381865afa158015612a27573d5f5f3e3d5ffd5b505050506040513d601f19601f82011682018060405250810190612a4b9190613dfe565b5b80612aa257505f5f9054906101000a900473ffffffffffffffffffffffffffffffffffffffff1673ffffffffffffffffffffffffffffffffffffffff168473ffffffffffffffffffffffffffffffffffffffff16145b91505092915050565b5f7f0000000000000000000000000000000000000000000000000000000000000000905090565b5f5f60049050600260149054906101000a900460ff1615612b1f576040517fe0f850f400000000000000000000000000000000000000000000000000000000815260040160405180910390fd5b805f0160019054906101000a900460ff16612b66576040517f5c786cb100000000000000000000000000000000000000000000000000000000815260040160405180910390fd5b5f8503612b9f576040517f8cb116db00000000000000000000000000000000000000000000000000000000815260040160405180910390fd5b612c607f000000000000000000000000000000000000000000000000000000000000000073ffffffffffffffffffffffffffffffffffffffff1663679aefce6040518163ffffffff1660e01b8152600401602060405180830381865afa158015612c0b573d5f5f3e3d5ffd5b505050506040513d601f19601f82011682018060405250810190612c2f9190614053565b7f00000000000000000000000000000000000000000000000000000000000000008761326d9092919063ffffffff16565b915083821015612c9c576040517f13d905c000000000000000000000000000000000000000000000000000000000815260040160405180910390fd5b612ca5826132ae565b7f000000000000000000000000000000000000000000000000000000000000000073ffffffffffffffffffffffffffffffffffffffff166392f93232848433896040518563ffffffff1660e01b8152600401612d04949392919061407e565b5f604051808303815f87803b158015612d1b575f5ffd5b505af1158015612d2d573d5f5f3e3d5ffd5b50505050509392505050565b60606040518060400160405280600981526020017f426173652056302e310000000000000000000000000000000000000000000000815250905090565b5f60049050600260149054906101000a900460ff1615612dc2576040517fe0f850f400000000000000000000000000000000000000000000000000000000815260040160405180910390fd5b805f015f9054906101000a900460ff16612e08576040517f9d43097e00000000000000000000000000000000000000000000000000000000815260040160405180910390fd5b50565b5f612e14612aab565b73ffffffffffffffffffffffffffffffffffffffff166302ce728f6040518163ffffffff1660e01b81526004015f604051808303815f87803b158015612e58575f5ffd5b505af1158015612e6a573d5f5f3e3d5ffd5b505050505f600490505f8603612eac576040517f2a27fe7000000000000000000000000000000000000000000000000000000000815260040160405180910390fd5b612f6d7f00000000000000000000000000000000000000000000000000000000000000007f000000000000000000000000000000000000000000000000000000000000000073ffffffffffffffffffffffffffffffffffffffff1663679aefce6040518163ffffffff1660e01b8152600401602060405180830381865afa158015612f39573d5f5f3e3d5ffd5b505050506040513d601f19601f82011682018060405250810190612f5d9190614053565b8861326d9092919063ffffffff16565b915084821015612fa9576040517f89ae4c3b00000000000000000000000000000000000000000000000000000000815260040160405180910390fd5b6dffffffffffffffffffffffffffff8016815f01600a9054906101000a90046dffffffffffffffffffffffffffff166dffffffffffffffffffffffffffff161461311b575f7f000000000000000000000000000000000000000000000000000000000000000073ffffffffffffffffffffffffffffffffffffffff166318160ddd6040518163ffffffff1660e01b8152600401602060405180830381865afa158015613057573d5f5f3e3d5ffd5b505050506040513d601f19601f8201168201806040525081019061307b9190614053565b8361308691906140ee565b9050815f01600a9054906101000a90046dffffffffffffffffffffffffffff166dffffffffffffffffffffffffffff168111156131195780825f01600a9054906101000a90046dffffffffffffffffffffffffffff166040517f43e28bca000000000000000000000000000000000000000000000000000000008152600401613110929190614151565b60405180910390fd5b505b7f000000000000000000000000000000000000000000000000000000000000000073ffffffffffffffffffffffffffffffffffffffff16636baf8dbc858886866040518563ffffffff1660e01b815260040161317a949392919061407e565b5f604051808303815f87803b158015613191575f5ffd5b505af11580156131a3573d5f5f3e3d5ffd5b505050506131b086613477565b50949350505050565b5f8111156132115780426131cd91906140ee565b60055f8673ffffffffffffffffffffffffffffffffffffffff1673ffffffffffffffffffffffffffffffffffffffff1681526020019081526020015f205f01819055505b8373ffffffffffffffffffffffffffffffffffffffff167f02b63b8e1c579c43105e71e3dd6fa6a50f2999d91c9fdc13b623463ef6a3086b5f8585428660405161325f9594939291906141b1565b60405180910390a250505050565b5f827fffffffffffffffffffffffffffffffffffffffffffffffffffffffffffffffff04841183021582026132a0575f5ffd5b818385020490509392505050565b5f73ffffffffffffffffffffffffffffffffffffffff1660076001015f9054906101000a900473ffffffffffffffffffffffffffffffffffffffff1673ffffffffffffffffffffffffffffffffffffffff1614613474575f5f5f60076001015f9054906101000a900473ffffffffffffffffffffffffffffffffffffffff1673ffffffffffffffffffffffffffffffffffffffff1663b27c77bb7f0000000000000000000000000000000000000000000000000000000000000000866040518363ffffffff1660e01b8152600401613387929190614202565b5f60405180830381865afa1580156133a1573d5f5f3e3d5ffd5b505050506040513d5f823e3d601f19601f820116820180604052508101906133c991906145bd565b9250925092507f000000000000000000000000000000000000000000000000000000000000000073ffffffffffffffffffffffffffffffffffffffff1663366d7fe18484846040518463ffffffff1660e01b815260040161342c939291906148dc565b5f604051808303815f875af1158015613447573d5f5f3e3d5ffd5b505050506040513d5f823e3d601f19601f8201168201806040525081019061346f9190614926565b505050505b50565b5f73ffffffffffffffffffffffffffffffffffffffff1660075f015f9054906101000a900473ffffffffffffffffffffffffffffffffffffffff1673ffffffffffffffffffffffffffffffffffffffff161461363b575f5f5f60075f015f9054906101000a900473ffffffffffffffffffffffffffffffffffffffff1673ffffffffffffffffffffffffffffffffffffffff1663975d168c7f0000000000000000000000000000000000000000000000000000000000000000866040518363ffffffff1660e01b815260040161354e929190614202565b5f60405180830381865afa158015613568573d5f5f3e3d5ffd5b505050506040513d5f823e3d601f19601f8201168201806040525081019061359091906145bd565b9250925092507f000000000000000000000000000000000000000000000000000000000000000073ffffffffffffffffffffffffffffffffffffffff1663366d7fe18484846040518463ffffffff1660e01b81526004016135f3939291906148dc565b5f604051808303815f875af115801561360e573d5f5f3e3d5ffd5b505050506040513d5f823e3d601f19601f820116820180604052508101906136369190614926565b505050505b50565b60405180608001604052805f151581526020015f151581526020015f67ffffffffffffffff1681526020015f6dffffffffffffffffffffffffffff1681525090565b5f604051905090565b5f5ffd5b5f5ffd5b5f73ffffffffffffffffffffffffffffffffffffffff82169050919050565b5f6136ba82613691565b9050919050565b5f6136cb826136b0565b9050919050565b6136db816136c1565b81146136e5575f5ffd5b50565b5f813590506136f6816136d2565b92915050565b5f6020828403121561371157613710613689565b5b5f61371e848285016136e8565b91505092915050565b5f819050919050565b61373981613727565b8114613743575f5ffd5b50565b5f8135905061375481613730565b92915050565b613763816136b0565b811461376d575f5ffd5b50565b5f8135905061377e8161375a565b92915050565b5f5f5f6060848603121561379b5761379a613689565b5b5f6137a886828701613746565b93505060206137b986828701613746565b92505060406137ca86828701613770565b9150509250925092565b6137dd81613727565b82525050565b5f6020820190506137f65f8301846137d4565b92915050565b5f819050919050565b5f61381f61381a61381584613691565b6137fc565b613691565b9050919050565b5f61383082613805565b9050919050565b5f61384182613826565b9050919050565b61385181613837565b82525050565b5f60408201905061386a5f830185613848565b6138776020830184613848565b9392505050565b5f67ffffffffffffffff82169050919050565b61389a8161387e565b81146138a4575f5ffd5b50565b5f813590506138b581613891565b92915050565b5f602082840312156138d0576138cf613689565b5b5f6138dd848285016138a7565b91505092915050565b5f8115159050919050565b6138fa816138e6565b8114613904575f5ffd5b50565b5f81359050613915816138f1565b92915050565b5f602082840312156139305761392f613689565b5b5f61393d84828501613907565b91505092915050565b5f61395082613826565b9050919050565b61396081613946565b82525050565b5f6020820190506139795f830184613957565b92915050565b5f61398982613826565b9050919050565b6139998161397f565b82525050565b5f6020820190506139b25f830184613990565b92915050565b5f81519050919050565b5f82825260208201905092915050565b8281835e5f83830152505050565b5f601f19601f8301169050919050565b5f6139fa826139b8565b613a0481856139c2565b9350613a148185602086016139d2565b613a1d816139e0565b840191505092915050565b5f6020820190508181035f830152613a4081846139f0565b905092915050565b5f60208284031215613a5d57613a5c613689565b5b5f613a6a84828501613770565b91505092915050565b613a7c816138e6565b82525050565b5f602082019050613a955f830184613a73565b92915050565b613aa48161387e565b82525050565b5f6dffffffffffffffffffffffffffff82169050919050565b613acc81613aaa565b82525050565b5f608082019050613ae55f830187613a73565b613af26020830186613a73565b613aff6040830185613a9b565b613b0c6060830184613ac3565b95945050505050565b5f613b1f826136b0565b9050919050565b613b2f81613b15565b8114613b39575f5ffd5b50565b5f81359050613b4a81613b26565b92915050565b5f60208284031215613b6557613b64613689565b5b5f613b7284828501613b3c565b91505092915050565b613b8481613aaa565b8114613b8e575f5ffd5b50565b5f81359050613b9f81613b7b565b92915050565b5f60208284031215613bba57613bb9613689565b5b5f613bc784828501613b91565b91505092915050565b613bd9816136b0565b82525050565b5f602082019050613bf25f830184613bd0565b92915050565b5f5f5f5f60808587031215613c1057613c0f613689565b5b5f613c1d87828801613770565b9450506020613c2e87828801613770565b9350506040613c3f87828801613746565b9250506060613c5087828801613770565b91505092959194509250565b5f613c6682613826565b9050919050565b613c7681613c5c565b82525050565b5f602082019050613c8f5f830184613c6d565b92915050565b5f613c9f82613826565b9050919050565b613caf81613c95565b82525050565b5f602082019050613cc85f830184613ca6565b92915050565b5f613cd882613826565b9050919050565b613ce881613cce565b82525050565b5f602082019050613d015f830184613cdf565b92915050565b613d10816138e6565b82525050565b613d1f8161387e565b82525050565b613d2e81613aaa565b82525050565b608082015f820151613d485f850182613d07565b506020820151613d5b6020850182613d07565b506040820151613d6e6040850182613d16565b506060820151613d816060850182613d25565b50505050565b5f608082019050613d9a5f830184613d34565b92915050565b5f613daa82613805565b9050919050565b5f613dbb82613da0565b9050919050565b613dcb81613db1565b82525050565b5f602082019050613de45f830184613dc2565b92915050565b5f81519050613df8816138f1565b92915050565b5f60208284031215613e1357613e12613689565b5b5f613e2084828501613dea565b91505092915050565b5f602082019050613e3c5f830184613848565b92915050565b7f554e415554484f52495a454400000000000000000000000000000000000000005f82015250565b5f613e76600c836139c2565b9150613e8182613e42565b602082019050919050565b5f6020820190508181035f830152613ea381613e6a565b9050919050565b7f5245454e5452414e4359000000000000000000000000000000000000000000005f82015250565b5f613ede600a836139c2565b9150613ee982613eaa565b602082019050919050565b5f6020820190508181035f830152613f0b81613ed2565b9050919050565b5f81905092915050565b7f4275666665722056302e312c20000000000000000000000000000000000000005f82015250565b5f613f50600d83613f12565b9150613f5b82613f1c565b600d82019050919050565b5f613f70826139b8565b613f7a8185613f12565b9350613f8a8185602086016139d2565b80840191505092915050565b5f613fa082613f44565b9150613fac8284613f66565b915081905092915050565b5f7fffffffff0000000000000000000000000000000000000000000000000000000082169050919050565b613feb81613fb7565b82525050565b5f6060820190506140045f830186613bd0565b6140116020830185613bd0565b61401e6040830184613fe2565b949350505050565b5f6020820190506140395f830184613ac3565b92915050565b5f8151905061404d81613730565b92915050565b5f6020828403121561406857614067613689565b5b5f6140758482850161403f565b91505092915050565b5f6080820190506140915f830187613bd0565b61409e60208301866137d4565b6140ab6040830185613bd0565b6140b860608301846137d4565b95945050505050565b7f4e487b71000000000000000000000000000000000000000000000000000000005f52601160045260245ffd5b5f6140f882613727565b915061410383613727565b925082820190508082111561411b5761411a6140c1565b5b92915050565b5f61413b61413661413184613aaa565b6137fc565b613727565b9050919050565b61414b81614121565b82525050565b5f6040820190506141645f8301856137d4565b6141716020830184614142565b9392505050565b5f819050919050565b5f61419b61419661419184614178565b6137fc565b613727565b9050919050565b6141ab81614181565b82525050565b5f60a0820190506141c45f8301886141a2565b6141d160208301876137d4565b6141de60408301866137d4565b6141eb60608301856137d4565b6141f860808301846137d4565b9695505050505050565b5f6040820190506142155f830185613bd0565b61422260208301846137d4565b9392505050565b5f5ffd5b7f4e487b71000000000000000000000000000000000000000000000000000000005f52604160045260245ffd5b614263826139e0565b810181811067ffffffffffffffff821117156142825761428161422d565b5b80604052505050565b5f614294613680565b90506142a0828261425a565b919050565b5f67ffffffffffffffff8211156142bf576142be61422d565b5b602082029050602081019050919050565b5f5ffd5b5f815190506142e28161375a565b92915050565b5f6142fa6142f5846142a5565b61428b565b9050808382526020820190506020840283018581111561431d5761431c6142d0565b5b835b81811015614346578061433288826142d4565b84526020840193505060208101905061431f565b5050509392505050565b5f82601f83011261436457614363614229565b5b81516143748482602086016142e8565b91505092915050565b5f67ffffffffffffffff8211156143975761439661422d565b5b602082029050602081019050919050565b5f5ffd5b5f67ffffffffffffffff8211156143c6576143c561422d565b5b6143cf826139e0565b9050602081019050919050565b5f6143ee6143e9846143ac565b61428b565b90508281526020810184848401111561440a576144096143a8565b5b6144158482856139d2565b509392505050565b5f82601f83011261443157614430614229565b5b81516144418482602086016143dc565b91505092915050565b5f61445c6144578461437d565b61428b565b9050808382526020820190506020840283018581111561447f5761447e6142d0565b5b835b818110156144c657805167ffffffffffffffff8111156144a4576144a3614229565b5b8086016144b1898261441d565b85526020850194505050602081019050614481565b5050509392505050565b5f82601f8301126144e4576144e3614229565b5b81516144f484826020860161444a565b91505092915050565b5f67ffffffffffffffff8211156145175761451661422d565b5b602082029050602081019050919050565b5f61453a614535846144fd565b61428b565b9050808382526020820190506020840283018581111561455d5761455c6142d0565b5b835b818110156145865780614572888261403f565b84526020840193505060208101905061455f565b5050509392505050565b5f82601f8301126145a4576145a3614229565b5b81516145b4848260208601614528565b91505092915050565b5f5f5f606084860312156145d4576145d3613689565b5b5f84015167ffffffffffffffff8111156145f1576145f061368d565b5b6145fd86828701614350565b935050602084015167ffffffffffffffff81111561461e5761461d61368d565b5b61462a868287016144d0565b925050604084015167ffffffffffffffff81111561464b5761464a61368d565b5b61465786828701614590565b9150509250925092565b5f81519050919050565b5f82825260208201905092915050565b5f819050602082019050919050565b614693816136b0565b82525050565b5f6146a4838361468a565b60208301905092915050565b5f602082019050919050565b5f6146c682614661565b6146d0818561466b565b93506146db8361467b565b805f5b8381101561470b5781516146f28882614699565b97506146fd836146b0565b9250506001810190506146de565b5085935050505092915050565b5f81519050919050565b5f82825260208201905092915050565b5f819050602082019050919050565b5f81519050919050565b5f82825260208201905092915050565b5f61476582614741565b61476f818561474b565b935061477f8185602086016139d2565b614788816139e0565b840191505092915050565b5f61479e838361475b565b905092915050565b5f602082019050919050565b5f6147bc82614718565b6147c68185614722565b9350836020820285016147d885614732565b805f5b8581101561481357848403895281516147f48582614793565b94506147ff836147a6565b925060208a019950506001810190506147db565b50829750879550505050505092915050565b5f81519050919050565b5f82825260208201905092915050565b5f819050602082019050919050565b61485781613727565b82525050565b5f614868838361484e565b60208301905092915050565b5f602082019050919050565b5f61488a82614825565b614894818561482f565b935061489f8361483f565b805f5b838110156148cf5781516148b6888261485d565b97506148c183614874565b9250506001810190506148a2565b5085935050505092915050565b5f6060820190508181035f8301526148f481866146bc565b9050818103602083015261490881856147b2565b9050818103604083015261491c8184614880565b9050949350505050565b5f6020828403121561493b5761493a613689565b5b5f82015167ffffffffffffffff8111156149585761495761368d565b5b614964848285016144d0565b9150509291505056fea2646970667358221220ece0c6e2e7bd09e4b0cbe10609bef55dd0eda3ea163e72762993c912d24c25a864736f6c634300081e0033",
  "linkReferences": {},
  "deployedLinkReferences": {},
  "immutableReferences": {
    "13022": [
      {
        "length": 32,
        "start": 2511
      },
      {
        "length": 32,
        "start": 3659
      },
      {
        "length": 32,
        "start": 5775
      },
      {
        "length": 32,
        "start": 6108
      },
      {
        "length": 32,
        "start": 13130
      },
      {
        "length": 32,
        "start": 13585
      }
    ],
    "13026": [
      {
        "length": 32,
        "start": 10576
      },
      {
        "length": 32,
        "start": 11431
      },
      {
        "length": 32,
        "start": 12272
      },
      {
        "length": 32,
        "start": 12573
      },
      {
        "length": 32,
        "start": 13265
      },
      {
        "length": 32,
        "start": 13720
      }
    ],
    "13030": [
      {
        "length": 32,
        "start": 4845
      },
      {
        "length": 32,
        "start": 10926
      },
      {
        "length": 32,
        "start": 11172
      },
      {
        "length": 32,
        "start": 11986
      }
    ],
    "13037": [
      {
        "length": 32,
        "start": 11313
      },
      {
        "length": 32,
        "start": 11953
      }
    ]
  },
  "inputSourceName": "project/contracts/core/TellerWithBuffer.sol",
  "buildInfoId": "solc-0_8_30-c343951cd4ea2dd0f437bcf4da6c38bb2f2936dc"
}