{
  "_format": "hh3-artifact-1",
  "contractName": "PrimeRBAC",
  "sourceName": "contracts/auth/PrimeRBAC.sol",
  "abi": [
    {
      "inputs": [],
      "stateMutability": "nonpayable",
      "type": "constructor"
    },
    {
      "inputs": [],
      "name": "AccessControlBadConfirmation",
      "type": "error"
    },
    {
      "inputs": [
        {
          "internalType": "address",
          "name": "account",
          "type": "address"
        },
        {
          "internalType": "bytes32",
          "name": "neededRole",
          "type": "bytes32"
        }
      ],
      "name": "AccessControlUnauthorizedAccount",
      "type": "error"
    },
    {
      "anonymous": false,
      "inputs": [
        {
          "indexed": true,
          "internalType": "bytes32",
          "name": "role",
          "type": "bytes32"
        },
        {
          "indexed": true,
          "internalType": "bytes32",
          "name": "previousAdminRole",
          "type": "bytes32"
        },
        {
          "indexed": true,
          "internalType": "bytes32",
          "name": "newAdminRole",
          "type": "bytes32"
        }
      ],
      "name": "RoleAdminChanged",
      "type": "event"
    },
    {
      "anonymous": false,
      "inputs": [
        {
          "indexed": true,
          "internalType": "bytes32",
          "name": "role",
          "type": "bytes32"
        },
        {
          "indexed": true,
          "internalType": "address",
          "name": "account",
          "type": "address"
        },
        {
          "indexed": true,
          "internalType": "address",
          "name": "sender",
          "type": "address"
        }
      ],
      "name": "RoleGranted",
      "type": "event"
    },
    {
      "anonymous": false,
      "inputs": [
        {
          "indexed": true,
          "internalType": "bytes32",
          "name": "role",
          "type": "bytes32"
        },
        {
          "indexed": true,
          "internalType": "address",
          "name": "account",
          "type": "address"
        },
        {
          "indexed": true,
          "internalType": "address",
          "name": "sender",
          "type": "address"
        }
      ],
      "name": "RoleRevoked",
      "type": "event"
    },
    {
      "inputs": [],
      "name": "DEFAULT_ADMIN_ROLE",
      "outputs": [
        {
          "internalType": "bytes32",
          "name": "",
          "type": "bytes32"
        }
      ],
      "stateMutability": "view",
      "type": "function"
    },
    {
      "inputs": [],
      "name": "OPERATOR_ROLE",
      "outputs": [
        {
          "internalType": "bytes32",
          "name": "",
          "type": "bytes32"
        }
      ],
      "stateMutability": "view",
      "type": "function"
    },
    {
      "inputs": [],
      "name": "OWNER_ROLE",
      "outputs": [
        {
          "internalType": "bytes32",
          "name": "",
          "type": "bytes32"
        }
      ],
      "stateMutability": "view",
      "type": "function"
    },
    {
      "inputs": [],
      "name": "PROTOCOL_ADMIN_ROLE",
      "outputs": [
        {
          "internalType": "bytes32",
          "name": "",
          "type": "bytes32"
        }
      ],
      "stateMutability": "view",
      "type": "function"
    },
    {
      "inputs": [
        {
          "internalType": "bytes32",
          "name": "role",
          "type": "bytes32"
        }
      ],
      "name": "getRoleAdmin",
      "outputs": [
        {
          "internalType": "bytes32",
          "name": "",
          "type": "bytes32"
        }
      ],
      "stateMutability": "view",
      "type": "function"
    },
    {
      "inputs": [
        {
          "internalType": "bytes32",
          "name": "role",
          "type": "bytes32"
        },
        {
          "internalType": "uint256",
          "name": "index",
          "type": "uint256"
        }
      ],
      "name": "getRoleMember",
      "outputs": [
        {
          "internalType": "address",
          "name": "",
          "type": "address"
        }
      ],
      "stateMutability": "view",
      "type": "function"
    },
    {
      "inputs": [
        {
          "internalType": "bytes32",
          "name": "role",
          "type": "bytes32"
        }
      ],
      "name": "getRoleMemberCount",
      "outputs": [
        {
          "internalType": "uint256",
          "name": "",
          "type": "uint256"
        }
      ],
      "stateMutability": "view",
      "type": "function"
    },
    {
      "inputs": [
        {
          "internalType": "bytes32",
          "name": "role",
          "type": "bytes32"
        }
      ],
      "name": "getRoleMembers",
      "outputs": [
        {
          "internalType": "address[]",
          "name": "",
          "type": "address[]"
        }
      ],
      "stateMutability": "view",
      "type": "function"
    },
    {
      "inputs": [
        {
          "internalType": "address",
          "name": "operator_",
          "type": "address"
        }
      ],
      "name": "grantOperatorRole",
      "outputs": [],
      "stateMutability": "nonpayable",
      "type": "function"
    },
    {
      "inputs": [
        {
          "internalType": "address",
          "name": "owner_",
          "type": "address"
        }
      ],
      "name": "grantOwnerRole",
      "outputs": [],
      "stateMutability": "nonpayable",
      "type": "function"
    },
    {
      "inputs": [
        {
          "internalType": "address",
          "name": "admin_",
          "type": "address"
        }
      ],
      "name": "grantProtocolAdminRole",
      "outputs": [],
      "stateMutability": "nonpayable",
      "type": "function"
    },
    {
      "inputs": [
        {
          "internalType": "bytes32",
          "name": "role",
          "type": "bytes32"
        },
        {
          "internalType": "address",
          "name": "account",
          "type": "address"
        }
      ],
      "name": "grantRole",
      "outputs": [],
      "stateMutability": "nonpayable",
      "type": "function"
    },
    {
      "inputs": [
        {
          "internalType": "address",
          "name": "operator_",
          "type": "address"
        }
      ],
      "name": "hasOperatorRole",
      "outputs": [
        {
          "internalType": "bool",
          "name": "",
          "type": "bool"
        }
      ],
      "stateMutability": "view",
      "type": "function"
    },
    {
      "inputs": [
        {
          "internalType": "address",
          "name": "owner_",
          "type": "address"
        }
      ],
      "name": "hasOwnerRole",
      "outputs": [
        {
          "internalType": "bool",
          "name": "",
          "type": "bool"
        }
      ],
      "stateMutability": "view",
      "type": "function"
    },
    {
      "inputs": [
        {
          "internalType": "address",
          "name": "admin_",
          "type": "address"
        }
      ],
      "name": "hasProtocolAdminRole",
      "outputs": [
        {
          "internalType": "bool",
          "name": "",
          "type": "bool"
        }
      ],
      "stateMutability": "view",
      "type": "function"
    },
    {
      "inputs": [
        {
          "internalType": "bytes32",
          "name": "role",
          "type": "bytes32"
        },
        {
          "internalType": "address",
          "name": "account",
          "type": "address"
        }
      ],
      "name": "hasRole",
      "outputs": [
        {
          "internalType": "bool",
          "name": "",
          "type": "bool"
        }
      ],
      "stateMutability": "view",
      "type": "function"
    },
    {
      "inputs": [
        {
          "internalType": "bytes32",
          "name": "role",
          "type": "bytes32"
        },
        {
          "internalType": "address",
          "name": "callerConfirmation",
          "type": "address"
        }
      ],
      "name": "renounceRole",
      "outputs": [],
      "stateMutability": "nonpayable",
      "type": "function"
    },
    {
      "inputs": [
        {
          "internalType": "bytes32",
          "name": "role",
          "type": "bytes32"
        },
        {
          "internalType": "address",
          "name": "account",
          "type": "address"
        }
      ],
      "name": "revokeRole",
      "outputs": [],
      "stateMutability": "nonpayable",
      "type": "function"
    },
    {
      "inputs": [
        {
          "internalType": "bytes4",
          "name": "interfaceId",
          "type": "bytes4"
        }
      ],
      "name": "supportsInterface",
      "outputs": [
        {
          "internalType": "bool",
          "name": "",
          "type": "bool"
        }
      ],
      "stateMutability": "view",
      "type": "function"
    }
  ],
  "bytecode": "0x608060405234801561000f575f5ffd5b506100407fb19546dff01e856fb3f010c267a7b1c60363cf8a4664e21cc89c26224620214e3361017860201b60201c565b506100717fd0c934f24ef5a377dc3832429ce607cbe940a3ca3c6cd7e532bd35b4b212d1963361017860201b60201c565b506100a27f97667070c54ef182b0f5858b034beac1b6f3089aa2d3188bb1e8929f4fa9b9293361017860201b60201c565b506100d37fb19546dff01e856fb3f010c267a7b1c60363cf8a4664e21cc89c26224620214e806101c160201b60201c565b6101237fd0c934f24ef5a377dc3832429ce607cbe940a3ca3c6cd7e532bd35b4b212d1967fb19546dff01e856fb3f010c267a7b1c60363cf8a4664e21cc89c26224620214e6101c160201b60201c565b6101737f97667070c54ef182b0f5858b034beac1b6f3089aa2d3188bb1e8929f4fa9b9297fb19546dff01e856fb3f010c267a7b1c60363cf8a4664e21cc89c26224620214e6101c160201b60201c565b61045a565b5f5f61018a848461021f60201b60201c565b905080156101b7576101b58360015f8781526020019081526020015f2061031460201b90919060201c565b505b8091505092915050565b5f6101d18361034760201b60201c565b9050815f5f8581526020019081526020015f20600101819055508181847fbd79b86ffe0ab8e8776151514217cd7cacd52c909f66475c3af44e129f0b00ff60405160405180910390a4505050565b5f610230838361036360201b60201c565b61030a5760015f5f8581526020019081526020015f205f015f8473ffffffffffffffffffffffffffffffffffffffff1673ffffffffffffffffffffffffffffffffffffffff1681526020019081526020015f205f6101000a81548160ff0219169083151502179055506102a76103c660201b60201c565b73ffffffffffffffffffffffffffffffffffffffff168273ffffffffffffffffffffffffffffffffffffffff16847f2f8788117e7eff1d82e926ec794901d17c78024a50270940304540a733656f0d60405160405180910390a46001905061030e565b5f90505b92915050565b5f61033f835f018373ffffffffffffffffffffffffffffffffffffffff165f1b6103cd60201b60201c565b905092915050565b5f5f5f8381526020019081526020015f20600101549050919050565b5f5f5f8481526020019081526020015f205f015f8373ffffffffffffffffffffffffffffffffffffffff1673ffffffffffffffffffffffffffffffffffffffff1681526020019081526020015f205f9054906101000a900460ff16905092915050565b5f33905090565b5f6103de838361043a60201b60201c565b61043057825f0182908060018154018082558091505060019003905f5260205f20015f9091909190915055825f0180549050836001015f8481526020019081526020015f208190555060019050610434565b5f90505b92915050565b5f5f836001015f8481526020019081526020015f20541415905092915050565b6112b2806104675f395ff3fe608060405234801561000f575f5ffd5b506004361061011f575f3560e01c8063a217fddf116100ab578063d35911f21161006f578063d35911f21461033b578063d547741f1461036b578063e58378bb14610387578063f5b541a6146103a5578063fc4e3e0a146103c35761011f565b8063a217fddf1461026f578063a3246ad31461028d578063aee2bc86146102bd578063c138c139146102db578063ca15c8731461030b5761011f565b806336568abe116100f257806336568abe146101bb578063397a8bab146101d75780637427bc66146101f35780639010d07c1461020f57806391d148541461023f5761011f565b806301ffc9a714610123578063248a9ca31461015357806327ac0c58146101835780632f2ff15d1461019f575b5f5ffd5b61013d60048036038101906101389190610e5c565b6103f3565b60405161014a9190610ea1565b60405180910390f35b61016d60048036038101906101689190610eed565b61046c565b60405161017a9190610f27565b60405180910390f35b61019d60048036038101906101989190610f9a565b610488565b005b6101b960048036038101906101b49190610fc5565b6104b5565b005b6101d560048036038101906101d09190610fc5565b6104d7565b005b6101f160048036038101906101ec9190610f9a565b610552565b005b61020d60048036038101906102089190610f9a565b61057f565b005b61022960048036038101906102249190611036565b6105ac565b6040516102369190611083565b60405180910390f35b61025960048036038101906102549190610fc5565b6105d8565b6040516102669190610ea1565b60405180910390f35b61027761063b565b6040516102849190610f27565b60405180910390f35b6102a760048036038101906102a29190610eed565b610641565b6040516102b49190611153565b60405180910390f35b6102c5610663565b6040516102d29190610f27565b60405180910390f35b6102f560048036038101906102f09190610f9a565b610687565b6040516103029190610ea1565b60405180910390f35b61032560048036038101906103209190610eed565b6106b9565b6040516103329190611182565b60405180910390f35b61035560048036038101906103509190610f9a565b6106da565b6040516103629190610ea1565b60405180910390f35b61038560048036038101906103809190610fc5565b61070c565b005b61038f61072e565b60405161039c9190610f27565b60405180910390f35b6103ad610752565b6040516103ba9190610f27565b60405180910390f35b6103dd60048036038101906103d89190610f9a565b610776565b6040516103ea9190610ea1565b60405180910390f35b5f7f5a05180f000000000000000000000000000000000000000000000000000000007bffffffffffffffffffffffffffffffffffffffffffffffffffffffff1916827bffffffffffffffffffffffffffffffffffffffffffffffffffffffff191614806104655750610464826107a8565b5b9050919050565b5f5f5f8381526020019081526020015f20600101549050919050565b6104b27f97667070c54ef182b0f5858b034beac1b6f3089aa2d3188bb1e8929f4fa9b929826104b5565b50565b6104be8261046c565b6104c781610821565b6104d18383610835565b50505050565b6104df610878565b73ffffffffffffffffffffffffffffffffffffffff168173ffffffffffffffffffffffffffffffffffffffff1614610543576040517f6697b23200000000000000000000000000000000000000000000000000000000815260040160405180910390fd5b61054d828261087f565b505050565b61057c7fb19546dff01e856fb3f010c267a7b1c60363cf8a4664e21cc89c26224620214e826104b5565b50565b6105a97fd0c934f24ef5a377dc3832429ce607cbe940a3ca3c6cd7e532bd35b4b212d196826104b5565b50565b5f6105d08260015f8681526020019081526020015f206108c290919063ffffffff16565b905092915050565b5f5f5f8481526020019081526020015f205f015f8373ffffffffffffffffffffffffffffffffffffffff1673ffffffffffffffffffffffffffffffffffffffff1681526020019081526020015f205f9054906101000a900460ff16905092915050565b5f5f1b81565b606061065c60015f8481526020019081526020015f206108d9565b9050919050565b7fd0c934f24ef5a377dc3832429ce607cbe940a3ca3c6cd7e532bd35b4b212d19681565b5f6106b27fb19546dff01e856fb3f010c267a7b1c60363cf8a4664e21cc89c26224620214e836105d8565b9050919050565b5f6106d360015f8481526020019081526020015f206108f8565b9050919050565b5f6107057fd0c934f24ef5a377dc3832429ce607cbe940a3ca3c6cd7e532bd35b4b212d196836105d8565b9050919050565b6107158261046c565b61071e81610821565b610728838361087f565b50505050565b7fb19546dff01e856fb3f010c267a7b1c60363cf8a4664e21cc89c26224620214e81565b7f97667070c54ef182b0f5858b034beac1b6f3089aa2d3188bb1e8929f4fa9b92981565b5f6107a17f97667070c54ef182b0f5858b034beac1b6f3089aa2d3188bb1e8929f4fa9b929836105d8565b9050919050565b5f7f7965db0b000000000000000000000000000000000000000000000000000000007bffffffffffffffffffffffffffffffffffffffffffffffffffffffff1916827bffffffffffffffffffffffffffffffffffffffffffffffffffffffff1916148061081a57506108198261090b565b5b9050919050565b6108328161082d610878565b610974565b50565b5f5f61084184846109c5565b9050801561086e5761086c8360015f8781526020019081526020015f20610aae90919063ffffffff16565b505b8091505092915050565b5f33905090565b5f5f61088b8484610adb565b905080156108b8576108b68360015f8781526020019081526020015f20610bc490919063ffffffff16565b505b8091505092915050565b5f6108cf835f0183610bf1565b5f1c905092915050565b60605f6108e7835f01610c18565b905060608190508092505050919050565b5f610904825f01610c71565b9050919050565b5f7f01ffc9a7000000000000000000000000000000000000000000000000000000007bffffffffffffffffffffffffffffffffffffffffffffffffffffffff1916827bffffffffffffffffffffffffffffffffffffffffffffffffffffffff1916149050919050565b61097e82826105d8565b6109c15780826040517fe2517d3f0000000000000000000000000000000000000000000000000000000081526004016109b892919061119b565b60405180910390fd5b5050565b5f6109d083836105d8565b610aa45760015f5f8581526020019081526020015f205f015f8473ffffffffffffffffffffffffffffffffffffffff1673ffffffffffffffffffffffffffffffffffffffff1681526020019081526020015f205f6101000a81548160ff021916908315150217905550610a41610878565b73ffffffffffffffffffffffffffffffffffffffff168273ffffffffffffffffffffffffffffffffffffffff16847f2f8788117e7eff1d82e926ec794901d17c78024a50270940304540a733656f0d60405160405180910390a460019050610aa8565b5f90505b92915050565b5f610ad3835f018373ffffffffffffffffffffffffffffffffffffffff165f1b610c80565b905092915050565b5f610ae683836105d8565b15610bba575f5f5f8581526020019081526020015f205f015f8473ffffffffffffffffffffffffffffffffffffffff1673ffffffffffffffffffffffffffffffffffffffff1681526020019081526020015f205f6101000a81548160ff021916908315150217905550610b57610878565b73ffffffffffffffffffffffffffffffffffffffff168273ffffffffffffffffffffffffffffffffffffffff16847ff6391f5c32d9c69d2a47ea670b442974b53935d1edc7fd64eb21e047a839171b60405160405180910390a460019050610bbe565b5f90505b92915050565b5f610be9835f018373ffffffffffffffffffffffffffffffffffffffff165f1b610ce7565b905092915050565b5f825f018281548110610c0757610c066111c2565b5b905f5260205f200154905092915050565b6060815f01805480602002602001604051908101604052809291908181526020018280548015610c6557602002820191905f5260205f20905b815481526020019060010190808311610c51575b50505050509050919050565b5f815f01805490509050919050565b5f610c8b8383610de3565b610cdd57825f0182908060018154018082558091505060019003905f5260205f20015f9091909190915055825f0180549050836001015f8481526020019081526020015f208190555060019050610ce1565b5f90505b92915050565b5f5f836001015f8481526020019081526020015f205490505f8114610dd8575f600182610d14919061121c565b90505f6001865f0180549050610d2a919061121c565b9050808214610d90575f865f018281548110610d4957610d486111c2565b5b905f5260205f200154905080875f018481548110610d6a57610d696111c2565b5b905f5260205f20018190555083876001015f8381526020019081526020015f2081905550505b855f01805480610da357610da261124f565b5b600190038181905f5260205f20015f90559055856001015f8681526020019081526020015f205f905560019350505050610ddd565b5f9150505b92915050565b5f5f836001015f8481526020019081526020015f20541415905092915050565b5f5ffd5b5f7fffffffff0000000000000000000000000000000000000000000000000000000082169050919050565b610e3b81610e07565b8114610e45575f5ffd5b50565b5f81359050610e5681610e32565b92915050565b5f60208284031215610e7157610e70610e03565b5b5f610e7e84828501610e48565b91505092915050565b5f8115159050919050565b610e9b81610e87565b82525050565b5f602082019050610eb45f830184610e92565b92915050565b5f819050919050565b610ecc81610eba565b8114610ed6575f5ffd5b50565b5f81359050610ee781610ec3565b92915050565b5f60208284031215610f0257610f01610e03565b5b5f610f0f84828501610ed9565b91505092915050565b610f2181610eba565b82525050565b5f602082019050610f3a5f830184610f18565b92915050565b5f73ffffffffffffffffffffffffffffffffffffffff82169050919050565b5f610f6982610f40565b9050919050565b610f7981610f5f565b8114610f83575f5ffd5b50565b5f81359050610f9481610f70565b92915050565b5f60208284031215610faf57610fae610e03565b5b5f610fbc84828501610f86565b91505092915050565b5f5f60408385031215610fdb57610fda610e03565b5b5f610fe885828601610ed9565b9250506020610ff985828601610f86565b9150509250929050565b5f819050919050565b61101581611003565b811461101f575f5ffd5b50565b5f813590506110308161100c565b92915050565b5f5f6040838503121561104c5761104b610e03565b5b5f61105985828601610ed9565b925050602061106a85828601611022565b9150509250929050565b61107d81610f5f565b82525050565b5f6020820190506110965f830184611074565b92915050565b5f81519050919050565b5f82825260208201905092915050565b5f819050602082019050919050565b6110ce81610f5f565b82525050565b5f6110df83836110c5565b60208301905092915050565b5f602082019050919050565b5f6111018261109c565b61110b81856110a6565b9350611116836110b6565b805f5b8381101561114657815161112d88826110d4565b9750611138836110eb565b925050600181019050611119565b5085935050505092915050565b5f6020820190508181035f83015261116b81846110f7565b905092915050565b61117c81611003565b82525050565b5f6020820190506111955f830184611173565b92915050565b5f6040820190506111ae5f830185611074565b6111bb6020830184610f18565b9392505050565b7f4e487b71000000000000000000000000000000000000000000000000000000005f52603260045260245ffd5b7f4e487b71000000000000000000000000000000000000000000000000000000005f52601160045260245ffd5b5f61122682611003565b915061123183611003565b9250828203905081811115611249576112486111ef565b5b92915050565b7f4e487b71000000000000000000000000000000000000000000000000000000005f52603160045260245ffdfea2646970667358221220dd5ae7bff1a13257b9a12a410c408a0fe025ae6cc014e9767e85bd3735e60b8764736f6c634300081e0033",
  "linkReferences": {},
  "deployedLinkReferences": {},
  "immutableReferences": {},
  "inputSourceName": "project/contracts/auth/PrimeRBAC.sol",
  "buildInfoId": "solc-0_8_30-c343951cd4ea2dd0f437bcf4da6c38bb2f2936dc"
}