{
  "_format": "hh3-artifact-1",
  "contractName": "Distributor",
  "sourceName": "contracts/core/Distributor.sol",
  "abi": [
    {
      "inputs": [
        {
          "internalType": "address",
          "name": "_primeRBAC",
          "type": "address"
        },
        {
          "internalType": "address",
          "name": "_teller",
          "type": "address"
        }
      ],
      "stateMutability": "nonpayable",
      "type": "constructor"
    },
    {
      "inputs": [],
      "name": "Distributor__AlreadyAdded",
      "type": "error"
    },
    {
      "inputs": [],
      "name": "Distributor__CannotWithdrawRewardToken",
      "type": "error"
    },
    {
      "inputs": [],
      "name": "Distributor__CompoundFeeExceedsMaximum",
      "type": "error"
    },
    {
      "inputs": [],
      "name": "Distributor__NotAuthorized",
      "type": "error"
    },
    {
      "inputs": [],
      "name": "Distributor__Paused",
      "type": "error"
    },
    {
      "inputs": [],
      "name": "Distributor__RewardPeriodActive",
      "type": "error"
    },
    {
      "inputs": [],
      "name": "Distributor__ThirdPartyCompoundNotAllowed",
      "type": "error"
    },
    {
      "inputs": [],
      "name": "Distributor__ZeroDuration",
      "type": "error"
    },
    {
      "inputs": [],
      "name": "NOT_OPERATOR",
      "type": "error"
    },
    {
      "inputs": [],
      "name": "NOT_PROTOCOL_ADMIN",
      "type": "error"
    },
    {
      "inputs": [],
      "name": "ZERO_ADDRESS",
      "type": "error"
    },
    {
      "anonymous": false,
      "inputs": [
        {
          "indexed": true,
          "internalType": "address",
          "name": "user",
          "type": "address"
        },
        {
          "indexed": true,
          "internalType": "contract Authority",
          "name": "newAuthority",
          "type": "address"
        }
      ],
      "name": "AuthorityUpdated",
      "type": "event"
    },
    {
      "anonymous": false,
      "inputs": [
        {
          "indexed": false,
          "internalType": "uint256",
          "name": "newFee",
          "type": "uint256"
        }
      ],
      "name": "CompoundFeeUpdated",
      "type": "event"
    },
    {
      "anonymous": false,
      "inputs": [
        {
          "indexed": true,
          "internalType": "address",
          "name": "account",
          "type": "address"
        },
        {
          "indexed": true,
          "internalType": "address",
          "name": "rewardToken",
          "type": "address"
        },
        {
          "indexed": false,
          "internalType": "uint256",
          "name": "rewardAmount",
          "type": "uint256"
        },
        {
          "indexed": false,
          "internalType": "uint256",
          "name": "shares",
          "type": "uint256"
        },
        {
          "indexed": false,
          "internalType": "uint256",
          "name": "fee",
          "type": "uint256"
        }
      ],
      "name": "CompoundReward",
      "type": "event"
    },
    {
      "anonymous": false,
      "inputs": [
        {
          "indexed": true,
          "internalType": "address",
          "name": "user",
          "type": "address"
        },
        {
          "indexed": true,
          "internalType": "address",
          "name": "newOwner",
          "type": "address"
        }
      ],
      "name": "OwnershipTransferred",
      "type": "event"
    },
    {
      "anonymous": false,
      "inputs": [],
      "name": "Paused",
      "type": "event"
    },
    {
      "anonymous": false,
      "inputs": [
        {
          "indexed": false,
          "internalType": "address",
          "name": "token",
          "type": "address"
        },
        {
          "indexed": false,
          "internalType": "uint256",
          "name": "amount",
          "type": "uint256"
        }
      ],
      "name": "Recovered",
      "type": "event"
    },
    {
      "anonymous": false,
      "inputs": [
        {
          "indexed": false,
          "internalType": "uint256",
          "name": "reward",
          "type": "uint256"
        }
      ],
      "name": "RewardAdded",
      "type": "event"
    },
    {
      "anonymous": false,
      "inputs": [
        {
          "indexed": true,
          "internalType": "address",
          "name": "user",
          "type": "address"
        },
        {
          "indexed": true,
          "internalType": "address",
          "name": "rewardsToken",
          "type": "address"
        },
        {
          "indexed": false,
          "internalType": "uint256",
          "name": "reward",
          "type": "uint256"
        },
        {
          "indexed": false,
          "internalType": "address",
          "name": "to",
          "type": "address"
        }
      ],
      "name": "RewardPaid",
      "type": "event"
    },
    {
      "anonymous": false,
      "inputs": [
        {
          "indexed": false,
          "internalType": "address",
          "name": "token",
          "type": "address"
        },
        {
          "indexed": false,
          "internalType": "uint256",
          "name": "newDuration",
          "type": "uint256"
        }
      ],
      "name": "RewardsDurationUpdated",
      "type": "event"
    },
    {
      "anonymous": false,
      "inputs": [
        {
          "indexed": true,
          "internalType": "address",
          "name": "user",
          "type": "address"
        },
        {
          "indexed": false,
          "internalType": "bool",
          "name": "allowed",
          "type": "bool"
        }
      ],
      "name": "ThirdPartyCompoundAllowed",
      "type": "event"
    },
    {
      "anonymous": false,
      "inputs": [
        {
          "indexed": true,
          "internalType": "address",
          "name": "oldTreasury",
          "type": "address"
        },
        {
          "indexed": true,
          "internalType": "address",
          "name": "newTreasury",
          "type": "address"
        }
      ],
      "name": "TreasuryUpdated",
      "type": "event"
    },
    {
      "anonymous": false,
      "inputs": [],
      "name": "Unpaused",
      "type": "event"
    },
    {
      "inputs": [],
      "name": "MAX_COMPOUND_FEE",
      "outputs": [
        {
          "internalType": "uint256",
          "name": "",
          "type": "uint256"
        }
      ],
      "stateMutability": "view",
      "type": "function"
    },
    {
      "inputs": [
        {
          "internalType": "address",
          "name": "_rewardsToken",
          "type": "address"
        },
        {
          "internalType": "uint256",
          "name": "_rewardsDuration",
          "type": "uint256"
        }
      ],
      "name": "addReward",
      "outputs": [],
      "stateMutability": "nonpayable",
      "type": "function"
    },
    {
      "inputs": [
        {
          "internalType": "address",
          "name": "",
          "type": "address"
        }
      ],
      "name": "allowThirdPartyCompound",
      "outputs": [
        {
          "internalType": "bool",
          "name": "",
          "type": "bool"
        }
      ],
      "stateMutability": "view",
      "type": "function"
    },
    {
      "inputs": [],
      "name": "authority",
      "outputs": [
        {
          "internalType": "contract Authority",
          "name": "",
          "type": "address"
        }
      ],
      "stateMutability": "view",
      "type": "function"
    },
    {
      "inputs": [
        {
          "internalType": "address",
          "name": "account",
          "type": "address"
        }
      ],
      "name": "balanceOf",
      "outputs": [
        {
          "internalType": "uint256",
          "name": "",
          "type": "uint256"
        }
      ],
      "stateMutability": "view",
      "type": "function"
    },
    {
      "inputs": [
        {
          "internalType": "address",
          "name": "from",
          "type": "address"
        },
        {
          "internalType": "address",
          "name": "to",
          "type": "address"
        },
        {
          "internalType": "uint256",
          "name": "",
          "type": "uint256"
        },
        {
          "internalType": "address",
          "name": "",
          "type": "address"
        }
      ],
      "name": "beforeUpdate",
      "outputs": [],
      "stateMutability": "nonpayable",
      "type": "function"
    },
    {
      "inputs": [
        {
          "internalType": "address[]",
          "name": "_rewardTokens",
          "type": "address[]"
        }
      ],
      "name": "claimRewards",
      "outputs": [
        {
          "internalType": "uint256[]",
          "name": "rewardsOut",
          "type": "uint256[]"
        }
      ],
      "stateMutability": "nonpayable",
      "type": "function"
    },
    {
      "inputs": [],
      "name": "compoundFee",
      "outputs": [
        {
          "internalType": "uint256",
          "name": "",
          "type": "uint256"
        }
      ],
      "stateMutability": "view",
      "type": "function"
    },
    {
      "inputs": [
        {
          "internalType": "address",
          "name": "_account",
          "type": "address"
        }
      ],
      "name": "compoundReward",
      "outputs": [],
      "stateMutability": "nonpayable",
      "type": "function"
    },
    {
      "inputs": [
        {
          "internalType": "address",
          "name": "account",
          "type": "address"
        },
        {
          "internalType": "address",
          "name": "_rewardsToken",
          "type": "address"
        }
      ],
      "name": "earned",
      "outputs": [
        {
          "internalType": "uint256",
          "name": "",
          "type": "uint256"
        }
      ],
      "stateMutability": "view",
      "type": "function"
    },
    {
      "inputs": [
        {
          "internalType": "address",
          "name": "_rewardsToken",
          "type": "address"
        }
      ],
      "name": "getRewardDebt",
      "outputs": [
        {
          "internalType": "uint256",
          "name": "debt",
          "type": "uint256"
        }
      ],
      "stateMutability": "view",
      "type": "function"
    },
    {
      "inputs": [
        {
          "internalType": "address",
          "name": "_rewardsToken",
          "type": "address"
        }
      ],
      "name": "getRewardForDuration",
      "outputs": [
        {
          "internalType": "uint256",
          "name": "",
          "type": "uint256"
        }
      ],
      "stateMutability": "view",
      "type": "function"
    },
    {
      "inputs": [],
      "name": "getRewards",
      "outputs": [
        {
          "components": [
            {
              "internalType": "address",
              "name": "rewardsToken",
              "type": "address"
            },
            {
              "internalType": "uint256",
              "name": "rewardsDuration",
              "type": "uint256"
            },
            {
              "internalType": "uint256",
              "name": "periodFinish",
              "type": "uint256"
            },
            {
              "internalType": "uint256",
              "name": "rewardRate",
              "type": "uint256"
            },
            {
              "internalType": "uint256",
              "name": "lastUpdateTime",
              "type": "uint256"
            },
            {
              "internalType": "uint256",
              "name": "rewardPerTokenStored",
              "type": "uint256"
            }
          ],
          "internalType": "struct Distributor.RewardData[]",
          "name": "",
          "type": "tuple[]"
        }
      ],
      "stateMutability": "view",
      "type": "function"
    },
    {
      "inputs": [],
      "name": "isPaused",
      "outputs": [
        {
          "internalType": "bool",
          "name": "",
          "type": "bool"
        }
      ],
      "stateMutability": "view",
      "type": "function"
    },
    {
      "inputs": [
        {
          "internalType": "address",
          "name": "_rewardsToken",
          "type": "address"
        }
      ],
      "name": "lastTimeRewardApplicable",
      "outputs": [
        {
          "internalType": "uint256",
          "name": "",
          "type": "uint256"
        }
      ],
      "stateMutability": "view",
      "type": "function"
    },
    {
      "inputs": [
        {
          "internalType": "address",
          "name": "_rewardsToken",
          "type": "address"
        },
        {
          "internalType": "uint256",
          "name": "reward",
          "type": "uint256"
        }
      ],
      "name": "notifyRewardAmount",
      "outputs": [],
      "stateMutability": "nonpayable",
      "type": "function"
    },
    {
      "inputs": [],
      "name": "owner",
      "outputs": [
        {
          "internalType": "address",
          "name": "",
          "type": "address"
        }
      ],
      "stateMutability": "view",
      "type": "function"
    },
    {
      "inputs": [],
      "name": "pause",
      "outputs": [],
      "stateMutability": "nonpayable",
      "type": "function"
    },
    {
      "inputs": [],
      "name": "primeRBAC",
      "outputs": [
        {
          "internalType": "contract IPrimeRBAC",
          "name": "",
          "type": "address"
        }
      ],
      "stateMutability": "view",
      "type": "function"
    },
    {
      "inputs": [
        {
          "internalType": "address",
          "name": "tokenAddress",
          "type": "address"
        },
        {
          "internalType": "uint256",
          "name": "tokenAmount",
          "type": "uint256"
        }
      ],
      "name": "recoverERC20",
      "outputs": [],
      "stateMutability": "nonpayable",
      "type": "function"
    },
    {
      "inputs": [
        {
          "internalType": "address",
          "name": "",
          "type": "address"
        }
      ],
      "name": "rewardData",
      "outputs": [
        {
          "internalType": "address",
          "name": "rewardsToken",
          "type": "address"
        },
        {
          "internalType": "uint256",
          "name": "rewardsDuration",
          "type": "uint256"
        },
        {
          "internalType": "uint256",
          "name": "periodFinish",
          "type": "uint256"
        },
        {
          "internalType": "uint256",
          "name": "rewardRate",
          "type": "uint256"
        },
        {
          "internalType": "uint256",
          "name": "lastUpdateTime",
          "type": "uint256"
        },
        {
          "internalType": "uint256",
          "name": "rewardPerTokenStored",
          "type": "uint256"
        }
      ],
      "stateMutability": "view",
      "type": "function"
    },
    {
      "inputs": [
        {
          "internalType": "address",
          "name": "_rewardsToken",
          "type": "address"
        }
      ],
      "name": "rewardPerToken",
      "outputs": [
        {
          "internalType": "uint256",
          "name": "",
          "type": "uint256"
        }
      ],
      "stateMutability": "view",
      "type": "function"
    },
    {
      "inputs": [
        {
          "internalType": "uint256",
          "name": "",
          "type": "uint256"
        }
      ],
      "name": "rewardTokens",
      "outputs": [
        {
          "internalType": "address",
          "name": "",
          "type": "address"
        }
      ],
      "stateMutability": "view",
      "type": "function"
    },
    {
      "inputs": [
        {
          "internalType": "address",
          "name": "",
          "type": "address"
        },
        {
          "internalType": "address",
          "name": "",
          "type": "address"
        }
      ],
      "name": "rewards",
      "outputs": [
        {
          "internalType": "uint256",
          "name": "",
          "type": "uint256"
        }
      ],
      "stateMutability": "view",
      "type": "function"
    },
    {
      "inputs": [
        {
          "internalType": "bool",
          "name": "_allowed",
          "type": "bool"
        }
      ],
      "name": "setAllowThirdPartyCompound",
      "outputs": [],
      "stateMutability": "nonpayable",
      "type": "function"
    },
    {
      "inputs": [
        {
          "internalType": "contract Authority",
          "name": "newAuthority",
          "type": "address"
        }
      ],
      "name": "setAuthority",
      "outputs": [],
      "stateMutability": "nonpayable",
      "type": "function"
    },
    {
      "inputs": [
        {
          "internalType": "uint256",
          "name": "_compoundFee",
          "type": "uint256"
        }
      ],
      "name": "setCompoundFee",
      "outputs": [],
      "stateMutability": "nonpayable",
      "type": "function"
    },
    {
      "inputs": [
        {
          "internalType": "address",
          "name": "_rewardsToken",
          "type": "address"
        },
        {
          "internalType": "uint256",
          "name": "_rewardsDuration",
          "type": "uint256"
        }
      ],
      "name": "setRewardsDuration",
      "outputs": [],
      "stateMutability": "nonpayable",
      "type": "function"
    },
    {
      "inputs": [
        {
          "internalType": "address",
          "name": "_treasury",
          "type": "address"
        }
      ],
      "name": "setTreasury",
      "outputs": [],
      "stateMutability": "nonpayable",
      "type": "function"
    },
    {
      "inputs": [],
      "name": "teller",
      "outputs": [
        {
          "internalType": "contract Teller",
          "name": "",
          "type": "address"
        }
      ],
      "stateMutability": "view",
      "type": "function"
    },
    {
      "inputs": [],
      "name": "totalSupply",
      "outputs": [
        {
          "internalType": "uint256",
          "name": "",
          "type": "uint256"
        }
      ],
      "stateMutability": "view",
      "type": "function"
    },
    {
      "inputs": [
        {
          "internalType": "address",
          "name": "newOwner",
          "type": "address"
        }
      ],
      "name": "transferOwnership",
      "outputs": [],
      "stateMutability": "nonpayable",
      "type": "function"
    },
    {
      "inputs": [],
      "name": "treasury",
      "outputs": [
        {
          "internalType": "address",
          "name": "",
          "type": "address"
        }
      ],
      "stateMutability": "view",
      "type": "function"
    },
    {
      "inputs": [],
      "name": "unpause",
      "outputs": [],
      "stateMutability": "nonpayable",
      "type": "function"
    },
    {
      "inputs": [
        {
          "internalType": "address",
          "name": "account",
          "type": "address"
        }
      ],
      "name": "updateRewardForAccount",
      "outputs": [],
      "stateMutability": "nonpayable",
      "type": "function"
    },
    {
      "inputs": [
        {
          "internalType": "address",
          "name": "",
          "type": "address"
        },
        {
          "internalType": "address",
          "name": "",
          "type": "address"
        }
      ],
      "name": "userRewardPerTokenPaid",
      "outputs": [
        {
          "internalType": "uint256",
          "name": "",
          "type": "uint256"
        }
      ],
      "stateMutability": "view",
      "type": "function"
    },
    {
      "inputs": [],
      "name": "vault",
      "outputs": [
        {
          "internalType": "contract ERC20",
          "name": "",
          "type": "address"
        }
      ],
      "stateMutability": "view",
      "type": "function"
    }
  ],
  "bytecode": "0x60c06040526001600355348015610014575f5ffd5b5060405161596f38038061596f83398181016040528101906100369190610460565b818173ffffffffffffffffffffffffffffffffffffffff1663fbfa77cf6040518163ffffffff1660e01b8152600401602060405180830381865afa158015610080573d5f5f3e3d5ffd5b505050506040513d601f19601f820116820180604052508101906100a491906104ea565b73ffffffffffffffffffffffffffffffffffffffff1663bf7e214f6040518163ffffffff1660e01b8152600401602060405180830381865afa1580156100ec573d5f5f3e3d5ffd5b505050506040513d601f19601f820116820180604052508101906101109190610550565b3381815f5f6101000a81548173ffffffffffffffffffffffffffffffffffffffff021916908373ffffffffffffffffffffffffffffffffffffffff1602179055508060015f6101000a81548173ffffffffffffffffffffffffffffffffffffffff021916908373ffffffffffffffffffffffffffffffffffffffff1602179055508173ffffffffffffffffffffffffffffffffffffffff163373ffffffffffffffffffffffffffffffffffffffff167f8be0079c531659141344cd1fd0a4f28419497f9722a3daafe3b4186f6b6457e060405160405180910390a38073ffffffffffffffffffffffffffffffffffffffff163373ffffffffffffffffffffffffffffffffffffffff167fa3396fd7f6e0a21b50e5089d2da70d5ac0a3bbbd1f617a93f134b7638998019860405160405180910390a350505f73ffffffffffffffffffffffffffffffffffffffff168273ffffffffffffffffffffffffffffffffffffffff1614806102ac57505f73ffffffffffffffffffffffffffffffffffffffff168173ffffffffffffffffffffffffffffffffffffffff16145b156102e3576040517f538ba4f900000000000000000000000000000000000000000000000000000000815260040160405180910390fd5b8160025f6101000a81548173ffffffffffffffffffffffffffffffffffffffff021916908373ffffffffffffffffffffffffffffffffffffffff16021790555050508073ffffffffffffffffffffffffffffffffffffffff1660a08173ffffffffffffffffffffffffffffffffffffffff168152505060a05173ffffffffffffffffffffffffffffffffffffffff1663fbfa77cf6040518163ffffffff1660e01b8152600401602060405180830381865afa1580156103a4573d5f5f3e3d5ffd5b505050506040513d601f19601f820116820180604052508101906103c891906104ea565b73ffffffffffffffffffffffffffffffffffffffff1660808173ffffffffffffffffffffffffffffffffffffffff1681525050505061057b565b5f5ffd5b5f73ffffffffffffffffffffffffffffffffffffffff82169050919050565b5f61042f82610406565b9050919050565b61043f81610425565b8114610449575f5ffd5b50565b5f8151905061045a81610436565b92915050565b5f5f6040838503121561047657610475610402565b5b5f6104838582860161044c565b92505060206104948582860161044c565b9150509250929050565b5f6104a882610406565b9050919050565b5f6104b98261049e565b9050919050565b6104c9816104af565b81146104d3575f5ffd5b50565b5f815190506104e4816104c0565b92915050565b5f602082840312156104ff576104fe610402565b5b5f61050c848285016104d6565b91505092915050565b5f61051f82610425565b9050919050565b61052f81610515565b8114610539575f5ffd5b50565b5f8151905061054a81610526565b92915050565b5f6020828403121561056557610564610402565b5b5f6105728482850161053c565b91505092915050565b60805160a0516153946105db5f395f8181610e290152611e9f01525f8181610a4401528181610de0015281816110ef015281816113050152818161165601528181611fa0015281816138410152818161391b0152613d2501526153945ff3fe608060405234801561000f575f5ffd5b5060043610610225575f3560e01c80638456cb591161012e578063bcd11014116100b6578063f0f442601161007a578063f0f4426014610666578063f122977714610682578063f2fde38b146106b2578063f9f031df146106ce578063fbfa77cf146106fe57610225565b8063bcd11014146105ae578063bf7e214f146105de578063e37d7e68146105fc578063e70b9e271461061a578063f0ea59151461064a57610225565b80639feb8f50116100fd5780639feb8f501461050c578063a654922114610528578063a78ffca514610544578063b187bd2614610574578063b66503cf1461059257610225565b80638456cb59146104aa5780638980f11f146104b45780638ad029f1146104d05780638da5cb5b146104ee57610225565b80633f4ba83a116101b1578063638634ee11610180578063638634ee146103ce5780637035ab98146103fe57806370a082311461042e5780637a9e5e4b1461045e5780637bb7bed11461047a57610225565b80633f4ba83a1461035357806348e5d9f81461035d57806357edab4e1461039257806361d027b3146103b057610225565b80631d47c6d9116101f85780631d47c6d91461029f578063208be4f3146102cf578063211dc32d146102eb5780632378bea61461031b57806327ec50661461033757610225565b806302b3b7ea146102295780630572b0cc146102455780630a6c3bb21461026357806318160ddd14610281575b5f5ffd5b610243600480360381019061023e9190614629565b61071c565b005b61024d610f3a565b60405161025a919061479c565b60405180910390f35b61026b6110e6565b60405161027891906147cb565b60405180910390f35b6102896110ec565b60405161029691906147cb565b60405180910390f35b6102b960048036038101906102b49190614629565b61117f565b6040516102c691906147cb565b60405180910390f35b6102e960048036038101906102e49190614819565b611434565b005b61030560048036038101906103009190614844565b611545565b60405161031291906147cb565b60405180910390f35b610335600480360381019061033091906148ac565b611712565b005b610351600480360381019061034c91906148ea565b611a9b565b005b61035b611c8b565b005b61037760048036038101906103729190614629565b611e46565b60405161038996959493929190614924565b60405180910390f35b61039a611e9d565b6040516103a791906149de565b60405180910390f35b6103b8611ec1565b6040516103c591906149f7565b60405180910390f35b6103e860048036038101906103e39190614629565b611ee6565b6040516103f591906147cb565b60405180910390f35b61041860048036038101906104139190614844565b611f7d565b60405161042591906147cb565b60405180910390f35b61044860048036038101906104439190614629565b611f9d565b60405161045591906147cb565b60405180910390f35b61047860048036038101906104739190614a4b565b61203d565b005b610494600480360381019061048f91906148ea565b6121f8565b6040516104a191906149f7565b60405180910390f35b6104b2612233565b005b6104ce60048036038101906104c991906148ac565b6123ef565b005b6104d8612643565b6040516104e591906147cb565b60405180910390f35b6104f6612649565b60405161050391906149f7565b60405180910390f35b610526600480360381019061052191906148ac565b61266d565b005b610542600480360381019061053d9190614a76565b6129b6565b005b61055e60048036038101906105599190614629565b612ae9565b60405161056b9190614ae9565b60405180910390f35b61057c612b06565b6040516105899190614ae9565b60405180910390f35b6105ac60048036038101906105a791906148ac565b612b19565b005b6105c860048036038101906105c39190614629565b6132c9565b6040516105d591906147cb565b60405180910390f35b6105e661335d565b6040516105f39190614b22565b60405180910390f35b610604613382565b6040516106119190614b5b565b60405180910390f35b610634600480360381019061062f9190614844565b6133a7565b60405161064191906147cb565b60405180910390f35b610664600480360381019061065f9190614629565b6133c7565b005b610680600480360381019061067b9190614629565b613607565b005b61069c60048036038101906106979190614629565b61383d565b6040516106a991906147cb565b60405180910390f35b6106cc60048036038101906106c79190614629565b613ab5565b005b6106e860048036038101906106e39190614cc4565b613bbd565b6040516106f59190614db3565b60405180910390f35b610706613d23565b6040516107139190614df3565b60405180910390f35b805f5f90505b60058054905081101561098d575f6005828154811061074457610743614e0c565b5b905f5260205f20015f9054906101000a900473ffffffffffffffffffffffffffffffffffffffff1690506107778161383d565b60045f8373ffffffffffffffffffffffffffffffffffffffff1673ffffffffffffffffffffffffffffffffffffffff1681526020019081526020015f20600501819055506107c481611ee6565b60045f8373ffffffffffffffffffffffffffffffffffffffff1673ffffffffffffffffffffffffffffffffffffffff1681526020019081526020015f20600401819055505f73ffffffffffffffffffffffffffffffffffffffff168373ffffffffffffffffffffffffffffffffffffffff161461097f576108458382611545565b60075f8573ffffffffffffffffffffffffffffffffffffffff1673ffffffffffffffffffffffffffffffffffffffff1681526020019081526020015f205f8373ffffffffffffffffffffffffffffffffffffffff1673ffffffffffffffffffffffffffffffffffffffff1681526020019081526020015f208190555060045f8273ffffffffffffffffffffffffffffffffffffffff1673ffffffffffffffffffffffffffffffffffffffff1681526020019081526020015f206005015460065f8573ffffffffffffffffffffffffffffffffffffffff1673ffffffffffffffffffffffffffffffffffffffff1681526020019081526020015f205f8373ffffffffffffffffffffffffffffffffffffffff1673ffffffffffffffffffffffffffffffffffffffff1681526020019081526020015f20819055505b508080600101915050610722565b506109bb335f357fffffffff0000000000000000000000000000000000000000000000000000000016613d47565b6109fa576040517f08c379a00000000000000000000000000000000000000000000000000000000081526004016109f190614e93565b60405180910390fd5b600260149054906101000a900460ff1615610a41576040517fe3763d9700000000000000000000000000000000000000000000000000000000815260040160405180910390fd5b5f7f000000000000000000000000000000000000000000000000000000000000000073ffffffffffffffffffffffffffffffffffffffff166338d52e0f6040518163ffffffff1660e01b8152600401602060405180830381865afa158015610aab573d5f5f3e3d5ffd5b505050506040513d601f19601f82011682018060405250810190610acf9190614eec565b90508273ffffffffffffffffffffffffffffffffffffffff163373ffffffffffffffffffffffffffffffffffffffff1614610b855760095f8473ffffffffffffffffffffffffffffffffffffffff1673ffffffffffffffffffffffffffffffffffffffff1681526020019081526020015f205f9054906101000a900460ff16610b84576040517fe0507a2e00000000000000000000000000000000000000000000000000000000815260040160405180910390fd5b5b5f60075f8573ffffffffffffffffffffffffffffffffffffffff1673ffffffffffffffffffffffffffffffffffffffff1681526020019081526020015f205f8373ffffffffffffffffffffffffffffffffffffffff1673ffffffffffffffffffffffffffffffffffffffff1681526020019081526020015f205490505f811115610f34575f60075f8673ffffffffffffffffffffffffffffffffffffffff1673ffffffffffffffffffffffffffffffffffffffff1681526020019081526020015f205f8473ffffffffffffffffffffffffffffffffffffffff1673ffffffffffffffffffffffffffffffffffffffff1681526020019081526020015f20819055505f5f90505f8290505f73ffffffffffffffffffffffffffffffffffffffff16600a5f9054906101000a900473ffffffffffffffffffffffffffffffffffffffff1673ffffffffffffffffffffffffffffffffffffffff1614610d3157610d30600a5f9054906101000a900473ffffffffffffffffffffffffffffffffffffffff1630858773ffffffffffffffffffffffffffffffffffffffff16613e80909392919063ffffffff16565b5b8573ffffffffffffffffffffffffffffffffffffffff163373ffffffffffffffffffffffffffffffffffffffff1614158015610d6e57505f600854115b15610dd35761271060085484610d849190614f44565b610d8e9190614fb2565b91508183610d9c9190614fe2565b90505f821115610dd257610dd133838673ffffffffffffffffffffffffffffffffffffffff16613f549092919063ffffffff16565b5b5b5f811115610f3157610e267f0000000000000000000000000000000000000000000000000000000000000000828673ffffffffffffffffffffffffffffffffffffffff1661400b9092919063ffffffff16565b5f7f000000000000000000000000000000000000000000000000000000000000000073ffffffffffffffffffffffffffffffffffffffff16638dbdbe6d835f8a6040518463ffffffff1660e01b8152600401610e849392919061504e565b6020604051808303815f875af1158015610ea0573d5f5f3e3d5ffd5b505050506040513d601f19601f82011682018060405250810190610ec49190615097565b90508473ffffffffffffffffffffffffffffffffffffffff168773ffffffffffffffffffffffffffffffffffffffff167f082a49debd7523359a7e587893fa757c15a9ebb7c8928a1df53c8b40b381738c848487604051610f27939291906150c2565b60405180910390a3505b50505b50505050565b60605f60058054905067ffffffffffffffff811115610f5c57610f5b614b88565b5b604051908082528060200260200182016040528015610f9557816020015b610f82614578565b815260200190600190039081610f7a5790505b5090505f5f90505b6005805490508110156110de5760045f60058381548110610fc157610fc0614e0c565b5b905f5260205f20015f9054906101000a900473ffffffffffffffffffffffffffffffffffffffff1673ffffffffffffffffffffffffffffffffffffffff1673ffffffffffffffffffffffffffffffffffffffff1681526020019081526020015f206040518060c00160405290815f82015f9054906101000a900473ffffffffffffffffffffffffffffffffffffffff1673ffffffffffffffffffffffffffffffffffffffff1673ffffffffffffffffffffffffffffffffffffffff168152602001600182015481526020016002820154815260200160038201548152602001600482015481526020016005820154815250508282815181106110c6576110c5614e0c565b5b60200260200101819052508080600101915050610f9d565b508091505090565b60085481565b5f7f000000000000000000000000000000000000000000000000000000000000000073ffffffffffffffffffffffffffffffffffffffff166318160ddd6040518163ffffffff1660e01b8152600401602060405180830381865afa158015611156573d5f5f3e3d5ffd5b505050506040513d601f19601f8201168201806040525081019061117a9190615097565b905090565b5f5f4290505f60045f8573ffffffffffffffffffffffffffffffffffffffff1673ffffffffffffffffffffffffffffffffffffffff1681526020019081526020015f206002015482106112125760045f8573ffffffffffffffffffffffffffffffffffffffff1673ffffffffffffffffffffffffffffffffffffffff1681526020019081526020015f2060020154611214565b815b90505f60045f8673ffffffffffffffffffffffffffffffffffffffff1673ffffffffffffffffffffffffffffffffffffffff1681526020019081526020015f20600401548211611264575f6112b1565b60045f8673ffffffffffffffffffffffffffffffffffffffff1673ffffffffffffffffffffffffffffffffffffffff1681526020019081526020015f2060040154826112b09190614fe2565b5b90505f60045f8773ffffffffffffffffffffffffffffffffffffffff1673ffffffffffffffffffffffffffffffffffffffff1681526020019081526020015f2060030154826113009190614f44565b90505f7f000000000000000000000000000000000000000000000000000000000000000073ffffffffffffffffffffffffffffffffffffffff166318160ddd6040518163ffffffff1660e01b8152600401602060405180830381865afa15801561136c573d5f5f3e3d5ffd5b505050506040513d601f19601f820116820180604052508101906113909190615097565b90505f81111561142a575f81670de0b6b3a7640000846113b09190614f44565b6113ba9190614fb2565b60045f8a73ffffffffffffffffffffffffffffffffffffffff1673ffffffffffffffffffffffffffffffffffffffff1681526020019081526020015f206005015461140591906150f7565b9050670de0b6b3a7640000828261141c9190614f44565b6114269190614fb2565b9650505b5050505050919050565b611461335f357fffffffff0000000000000000000000000000000000000000000000000000000016613d47565b6114a0576040517f08c379a000000000000000000000000000000000000000000000000000000000815260040161149790614e93565b60405180910390fd5b8060095f3373ffffffffffffffffffffffffffffffffffffffff1673ffffffffffffffffffffffffffffffffffffffff1681526020019081526020015f205f6101000a81548160ff0219169083151502179055503373ffffffffffffffffffffffffffffffffffffffff167fbdfee831ca1ffc3205aae8250f2a8aac2e2fa68c9da227c46d927f295bd2aabb8260405161153a9190614ae9565b60405180910390a250565b5f60075f8473ffffffffffffffffffffffffffffffffffffffff1673ffffffffffffffffffffffffffffffffffffffff1681526020019081526020015f205f8373ffffffffffffffffffffffffffffffffffffffff1673ffffffffffffffffffffffffffffffffffffffff1681526020019081526020015f2054670de0b6b3a764000060065f8673ffffffffffffffffffffffffffffffffffffffff1673ffffffffffffffffffffffffffffffffffffffff1681526020019081526020015f205f8573ffffffffffffffffffffffffffffffffffffffff1673ffffffffffffffffffffffffffffffffffffffff1681526020019081526020015f205461164a8561383d565b6116549190614fe2565b7f000000000000000000000000000000000000000000000000000000000000000073ffffffffffffffffffffffffffffffffffffffff166370a08231876040518263ffffffff1660e01b81526004016116ad91906149f7565b602060405180830381865afa1580156116c8573d5f5f3e3d5ffd5b505050506040513d601f19601f820116820180604052508101906116ec9190615097565b6116f69190614f44565b6117009190614fb2565b61170a91906150f7565b905092915050565b60025f9054906101000a900473ffffffffffffffffffffffffffffffffffffffff1673ffffffffffffffffffffffffffffffffffffffff1663fc4e3e0a336040518263ffffffff1660e01b815260040161176c91906149f7565b602060405180830381865afa158015611787573d5f5f3e3d5ffd5b505050506040513d601f19601f820116820180604052508101906117ab919061513e565b15801561184e575060025f9054906101000a900473ffffffffffffffffffffffffffffffffffffffff1673ffffffffffffffffffffffffffffffffffffffff1663d35911f2336040518263ffffffff1660e01b815260040161180d91906149f7565b602060405180830381865afa158015611828573d5f5f3e3d5ffd5b505050506040513d601f19601f8201168201806040525081019061184c919061513e565b155b80156118f0575060025f9054906101000a900473ffffffffffffffffffffffffffffffffffffffff1673ffffffffffffffffffffffffffffffffffffffff1663c138c139336040518263ffffffff1660e01b81526004016118af91906149f7565b602060405180830381865afa1580156118ca573d5f5f3e3d5ffd5b505050506040513d601f19601f820116820180604052508101906118ee919061513e565b155b15611927576040517f19ca4b5e00000000000000000000000000000000000000000000000000000000815260040160405180910390fd5b60045f8373ffffffffffffffffffffffffffffffffffffffff1673ffffffffffffffffffffffffffffffffffffffff1681526020019081526020015f206002015442116119a0576040517ffb61f6df00000000000000000000000000000000000000000000000000000000815260040160405180910390fd5b5f81036119d9576040517f386d595500000000000000000000000000000000000000000000000000000000815260040160405180910390fd5b8060045f8473ffffffffffffffffffffffffffffffffffffffff1673ffffffffffffffffffffffffffffffffffffffff1681526020019081526020015f20600101819055507fad2f86b01ed93b4b3a150d448c61a4f5d8d38075d3c0c64cc0a26fd6e1f495458260045f8573ffffffffffffffffffffffffffffffffffffffff1673ffffffffffffffffffffffffffffffffffffffff1681526020019081526020015f2060010154604051611a8f929190615169565b60405180910390a15050565b60025f9054906101000a900473ffffffffffffffffffffffffffffffffffffffff1673ffffffffffffffffffffffffffffffffffffffff1663d35911f2336040518263ffffffff1660e01b8152600401611af591906149f7565b602060405180830381865afa158015611b10573d5f5f3e3d5ffd5b505050506040513d601f19601f82011682018060405250810190611b34919061513e565b158015611bd7575060025f9054906101000a900473ffffffffffffffffffffffffffffffffffffffff1673ffffffffffffffffffffffffffffffffffffffff1663c138c139336040518263ffffffff1660e01b8152600401611b9691906149f7565b602060405180830381865afa158015611bb1573d5f5f3e3d5ffd5b505050506040513d601f19601f82011682018060405250810190611bd5919061513e565b155b15611c0e576040517fdc85555400000000000000000000000000000000000000000000000000000000815260040160405180910390fd5b6107d0811115611c4a576040517f6aa7144700000000000000000000000000000000000000000000000000000000815260040160405180910390fd5b806008819055507fa6d9a48d7e4e52ec0546321cd0b69b8bb699a75701b9bca931fadba0fece2d7e81604051611c8091906147cb565b60405180910390a150565b60025f9054906101000a900473ffffffffffffffffffffffffffffffffffffffff1673ffffffffffffffffffffffffffffffffffffffff1663d35911f2336040518263ffffffff1660e01b8152600401611ce591906149f7565b602060405180830381865afa158015611d00573d5f5f3e3d5ffd5b505050506040513d601f19601f82011682018060405250810190611d24919061513e565b158015611dc7575060025f9054906101000a900473ffffffffffffffffffffffffffffffffffffffff1673ffffffffffffffffffffffffffffffffffffffff1663c138c139336040518263ffffffff1660e01b8152600401611d8691906149f7565b602060405180830381865afa158015611da1573d5f5f3e3d5ffd5b505050506040513d601f19601f82011682018060405250810190611dc5919061513e565b155b15611dfe576040517fdc85555400000000000000000000000000000000000000000000000000000000815260040160405180910390fd5b5f600260146101000a81548160ff0219169083151502179055507fa45f47fdea8a1efdd9029a5691c7f759c32b7c698632b563573e155625d1693360405160405180910390a1565b6004602052805f5260405f205f91509050805f015f9054906101000a900473ffffffffffffffffffffffffffffffffffffffff16908060010154908060020154908060030154908060040154908060050154905086565b7f000000000000000000000000000000000000000000000000000000000000000081565b600a5f9054906101000a900473ffffffffffffffffffffffffffffffffffffffff1681565b5f60045f8373ffffffffffffffffffffffffffffffffffffffff1673ffffffffffffffffffffffffffffffffffffffff1681526020019081526020015f20600201544210611f745760045f8373ffffffffffffffffffffffffffffffffffffffff1673ffffffffffffffffffffffffffffffffffffffff1681526020019081526020015f2060020154611f76565b425b9050919050565b6006602052815f5260405f20602052805f5260405f205f91509150505481565b5f7f000000000000000000000000000000000000000000000000000000000000000073ffffffffffffffffffffffffffffffffffffffff166370a08231836040518263ffffffff1660e01b8152600401611ff791906149f7565b602060405180830381865afa158015612012573d5f5f3e3d5ffd5b505050506040513d601f19601f820116820180604052508101906120369190615097565b9050919050565b5f5f9054906101000a900473ffffffffffffffffffffffffffffffffffffffff1673ffffffffffffffffffffffffffffffffffffffff163373ffffffffffffffffffffffffffffffffffffffff161480612153575060015f9054906101000a900473ffffffffffffffffffffffffffffffffffffffff1673ffffffffffffffffffffffffffffffffffffffff1663b700961333305f357fffffffff00000000000000000000000000000000000000000000000000000000166040518463ffffffff1660e01b8152600401612113939291906151ca565b602060405180830381865afa15801561212e573d5f5f3e3d5ffd5b505050506040513d601f19601f82011682018060405250810190612152919061513e565b5b61215b575f5ffd5b8060015f6101000a81548173ffffffffffffffffffffffffffffffffffffffff021916908373ffffffffffffffffffffffffffffffffffffffff1602179055508073ffffffffffffffffffffffffffffffffffffffff163373ffffffffffffffffffffffffffffffffffffffff167fa3396fd7f6e0a21b50e5089d2da70d5ac0a3bbbd1f617a93f134b7638998019860405160405180910390a350565b60058181548110612207575f80fd5b905f5260205f20015f915054906101000a900473ffffffffffffffffffffffffffffffffffffffff1681565b60025f9054906101000a900473ffffffffffffffffffffffffffffffffffffffff1673ffffffffffffffffffffffffffffffffffffffff1663d35911f2336040518263ffffffff1660e01b815260040161228d91906149f7565b602060405180830381865afa1580156122a8573d5f5f3e3d5ffd5b505050506040513d601f19601f820116820180604052508101906122cc919061513e565b15801561236f575060025f9054906101000a900473ffffffffffffffffffffffffffffffffffffffff1673ffffffffffffffffffffffffffffffffffffffff1663c138c139336040518263ffffffff1660e01b815260040161232e91906149f7565b602060405180830381865afa158015612349573d5f5f3e3d5ffd5b505050506040513d601f19601f8201168201806040525081019061236d919061513e565b155b156123a6576040517fdc85555400000000000000000000000000000000000000000000000000000000815260040160405180910390fd5b6001600260146101000a81548160ff0219169083151502179055507f9e87fac88ff661f02d44f95383c817fece4bce600a3dab7a54406878b965e75260405160405180910390a1565b60025f9054906101000a900473ffffffffffffffffffffffffffffffffffffffff1673ffffffffffffffffffffffffffffffffffffffff1663d35911f2336040518263ffffffff1660e01b815260040161244991906149f7565b602060405180830381865afa158015612464573d5f5f3e3d5ffd5b505050506040513d601f19601f82011682018060405250810190612488919061513e565b15801561252b575060025f9054906101000a900473ffffffffffffffffffffffffffffffffffffffff1673ffffffffffffffffffffffffffffffffffffffff1663c138c139336040518263ffffffff1660e01b81526004016124ea91906149f7565b602060405180830381865afa158015612505573d5f5f3e3d5ffd5b505050506040513d601f19601f82011682018060405250810190612529919061513e565b155b15612562576040517fdc85555400000000000000000000000000000000000000000000000000000000815260040160405180910390fd5b5f60045f8473ffffffffffffffffffffffffffffffffffffffff1673ffffffffffffffffffffffffffffffffffffffff1681526020019081526020015f2060040154146125db576040517f18ac301100000000000000000000000000000000000000000000000000000000815260040160405180910390fd5b61260633828473ffffffffffffffffffffffffffffffffffffffff16613f549092919063ffffffff16565b7f8c1256b8896378cd5044f80c202f9772b9d77dc85c8a6eb51967210b09bfaa288282604051612637929190615169565b60405180910390a15050565b6107d081565b5f5f9054906101000a900473ffffffffffffffffffffffffffffffffffffffff1681565b60025f9054906101000a900473ffffffffffffffffffffffffffffffffffffffff1673ffffffffffffffffffffffffffffffffffffffff1663d35911f2336040518263ffffffff1660e01b81526004016126c791906149f7565b602060405180830381865afa1580156126e2573d5f5f3e3d5ffd5b505050506040513d601f19601f82011682018060405250810190612706919061513e565b1580156127a9575060025f9054906101000a900473ffffffffffffffffffffffffffffffffffffffff1673ffffffffffffffffffffffffffffffffffffffff1663c138c139336040518263ffffffff1660e01b815260040161276891906149f7565b602060405180830381865afa158015612783573d5f5f3e3d5ffd5b505050506040513d601f19601f820116820180604052508101906127a7919061513e565b155b156127e0576040517fdc85555400000000000000000000000000000000000000000000000000000000815260040160405180910390fd5b5f60045f8473ffffffffffffffffffffffffffffffffffffffff1673ffffffffffffffffffffffffffffffffffffffff1681526020019081526020015f206001015414612859576040517f43c1476600000000000000000000000000000000000000000000000000000000815260040160405180910390fd5b600582908060018154018082558091505060019003905f5260205f20015f9091909190916101000a81548173ffffffffffffffffffffffffffffffffffffffff021916908373ffffffffffffffffffffffffffffffffffffffff1602179055506040518060c001604052808373ffffffffffffffffffffffffffffffffffffffff1681526020018281526020015f81526020015f81526020015f81526020015f81525060045f8473ffffffffffffffffffffffffffffffffffffffff1673ffffffffffffffffffffffffffffffffffffffff1681526020019081526020015f205f820151815f015f6101000a81548173ffffffffffffffffffffffffffffffffffffffff021916908373ffffffffffffffffffffffffffffffffffffffff1602179055506020820151816001015560408201518160020155606082015181600301556080820151816004015560a082015181600501559050505050565b6129e3335f357fffffffff0000000000000000000000000000000000000000000000000000000016613d47565b612a22576040517f08c379a0000000000000000000000000000000000000000000000000000000008152600401612a1990614e93565b60405180910390fd5b600260149054906101000a900460ff1615612a69576040517fe3763d9700000000000000000000000000000000000000000000000000000000815260040160405180910390fd5b5f73ffffffffffffffffffffffffffffffffffffffff168473ffffffffffffffffffffffffffffffffffffffff1614612aa657612aa5846133c7565b5b5f73ffffffffffffffffffffffffffffffffffffffff168373ffffffffffffffffffffffffffffffffffffffff1614612ae357612ae2836133c7565b5b50505050565b6009602052805f5260405f205f915054906101000a900460ff1681565b600260149054906101000a900460ff1681565b60025f9054906101000a900473ffffffffffffffffffffffffffffffffffffffff1673ffffffffffffffffffffffffffffffffffffffff1663fc4e3e0a336040518263ffffffff1660e01b8152600401612b7391906149f7565b602060405180830381865afa158015612b8e573d5f5f3e3d5ffd5b505050506040513d601f19601f82011682018060405250810190612bb2919061513e565b158015612c55575060025f9054906101000a900473ffffffffffffffffffffffffffffffffffffffff1673ffffffffffffffffffffffffffffffffffffffff1663d35911f2336040518263ffffffff1660e01b8152600401612c1491906149f7565b602060405180830381865afa158015612c2f573d5f5f3e3d5ffd5b505050506040513d601f19601f82011682018060405250810190612c53919061513e565b155b8015612cf7575060025f9054906101000a900473ffffffffffffffffffffffffffffffffffffffff1673ffffffffffffffffffffffffffffffffffffffff1663c138c139336040518263ffffffff1660e01b8152600401612cb691906149f7565b602060405180830381865afa158015612cd1573d5f5f3e3d5ffd5b505050506040513d601f19601f82011682018060405250810190612cf5919061513e565b155b15612d2e576040517f19ca4b5e00000000000000000000000000000000000000000000000000000000815260040160405180910390fd5b5f5f5f90505b600580549050811015612f9f575f60058281548110612d5657612d55614e0c565b5b905f5260205f20015f9054906101000a900473ffffffffffffffffffffffffffffffffffffffff169050612d898161383d565b60045f8373ffffffffffffffffffffffffffffffffffffffff1673ffffffffffffffffffffffffffffffffffffffff1681526020019081526020015f2060050181905550612dd681611ee6565b60045f8373ffffffffffffffffffffffffffffffffffffffff1673ffffffffffffffffffffffffffffffffffffffff1681526020019081526020015f20600401819055505f73ffffffffffffffffffffffffffffffffffffffff168373ffffffffffffffffffffffffffffffffffffffff1614612f9157612e578382611545565b60075f8573ffffffffffffffffffffffffffffffffffffffff1673ffffffffffffffffffffffffffffffffffffffff1681526020019081526020015f205f8373ffffffffffffffffffffffffffffffffffffffff1673ffffffffffffffffffffffffffffffffffffffff1681526020019081526020015f208190555060045f8273ffffffffffffffffffffffffffffffffffffffff1673ffffffffffffffffffffffffffffffffffffffff1681526020019081526020015f206005015460065f8573ffffffffffffffffffffffffffffffffffffffff1673ffffffffffffffffffffffffffffffffffffffff1681526020019081526020015f205f8373ffffffffffffffffffffffffffffffffffffffff1673ffffffffffffffffffffffffffffffffffffffff1681526020019081526020015f20819055505b508080600101915050612d34565b5060045f8473ffffffffffffffffffffffffffffffffffffffff1673ffffffffffffffffffffffffffffffffffffffff1681526020019081526020015f2060020154421061307c5760045f8473ffffffffffffffffffffffffffffffffffffffff1673ffffffffffffffffffffffffffffffffffffffff1681526020019081526020015f2060010154826130339190614fb2565b60045f8573ffffffffffffffffffffffffffffffffffffffff1673ffffffffffffffffffffffffffffffffffffffff1681526020019081526020015f20600301819055506131b8565b5f4260045f8673ffffffffffffffffffffffffffffffffffffffff1673ffffffffffffffffffffffffffffffffffffffff1681526020019081526020015f20600201546130c99190614fe2565b90505f60045f8673ffffffffffffffffffffffffffffffffffffffff1673ffffffffffffffffffffffffffffffffffffffff1681526020019081526020015f2060030154826131189190614f44565b905060045f8673ffffffffffffffffffffffffffffffffffffffff1673ffffffffffffffffffffffffffffffffffffffff1681526020019081526020015f2060010154818561316791906150f7565b6131719190614fb2565b60045f8773ffffffffffffffffffffffffffffffffffffffff1673ffffffffffffffffffffffffffffffffffffffff1681526020019081526020015f206003018190555050505b4260045f8573ffffffffffffffffffffffffffffffffffffffff1673ffffffffffffffffffffffffffffffffffffffff1681526020019081526020015f206004018190555060045f8473ffffffffffffffffffffffffffffffffffffffff1673ffffffffffffffffffffffffffffffffffffffff1681526020019081526020015f20600101544261324991906150f7565b60045f8573ffffffffffffffffffffffffffffffffffffffff1673ffffffffffffffffffffffffffffffffffffffff1681526020019081526020015f20600201819055507fde88a922e0d3b88b24e9623efeb464919c6bf9f66857a65e2bfcf2ce87a9433d826040516132bc91906147cb565b60405180910390a1505050565b5f60045f8373ffffffffffffffffffffffffffffffffffffffff1673ffffffffffffffffffffffffffffffffffffffff1681526020019081526020015f206001015460045f8473ffffffffffffffffffffffffffffffffffffffff1673ffffffffffffffffffffffffffffffffffffffff1681526020019081526020015f20600301546133569190614f44565b9050919050565b60015f9054906101000a900473ffffffffffffffffffffffffffffffffffffffff1681565b60025f9054906101000a900473ffffffffffffffffffffffffffffffffffffffff1681565b6007602052815f5260405f20602052805f5260405f205f91509150505481565b5f5f90505b600580549050811015613603575f600582815481106133ee576133ed614e0c565b5b905f5260205f20015f9054906101000a900473ffffffffffffffffffffffffffffffffffffffff1690506134218161383d565b60045f8373ffffffffffffffffffffffffffffffffffffffff1673ffffffffffffffffffffffffffffffffffffffff1681526020019081526020015f206005018190555061346e81611ee6565b60045f8373ffffffffffffffffffffffffffffffffffffffff1673ffffffffffffffffffffffffffffffffffffffff1681526020019081526020015f20600401819055506134bc8382611545565b60075f8573ffffffffffffffffffffffffffffffffffffffff1673ffffffffffffffffffffffffffffffffffffffff1681526020019081526020015f205f8373ffffffffffffffffffffffffffffffffffffffff1673ffffffffffffffffffffffffffffffffffffffff1681526020019081526020015f208190555060045f8273ffffffffffffffffffffffffffffffffffffffff1673ffffffffffffffffffffffffffffffffffffffff1681526020019081526020015f206005015460065f8573ffffffffffffffffffffffffffffffffffffffff1673ffffffffffffffffffffffffffffffffffffffff1681526020019081526020015f205f8373ffffffffffffffffffffffffffffffffffffffff1673ffffffffffffffffffffffffffffffffffffffff1681526020019081526020015f20819055505080806001019150506133cc565b5050565b60025f9054906101000a900473ffffffffffffffffffffffffffffffffffffffff1673ffffffffffffffffffffffffffffffffffffffff1663d35911f2336040518263ffffffff1660e01b815260040161366191906149f7565b602060405180830381865afa15801561367c573d5f5f3e3d5ffd5b505050506040513d601f19601f820116820180604052508101906136a0919061513e565b158015613743575060025f9054906101000a900473ffffffffffffffffffffffffffffffffffffffff1673ffffffffffffffffffffffffffffffffffffffff1663c138c139336040518263ffffffff1660e01b815260040161370291906149f7565b602060405180830381865afa15801561371d573d5f5f3e3d5ffd5b505050506040513d601f19601f82011682018060405250810190613741919061513e565b155b1561377a576040517fdc85555400000000000000000000000000000000000000000000000000000000815260040160405180910390fd5b5f600a5f9054906101000a900473ffffffffffffffffffffffffffffffffffffffff16905081600a5f6101000a81548173ffffffffffffffffffffffffffffffffffffffff021916908373ffffffffffffffffffffffffffffffffffffffff1602179055508173ffffffffffffffffffffffffffffffffffffffff168173ffffffffffffffffffffffffffffffffffffffff167f4ab5be82436d353e61ca18726e984e561f5c1cc7c6d38b29d2553c790434705a60405160405180910390a35050565b5f5f7f000000000000000000000000000000000000000000000000000000000000000073ffffffffffffffffffffffffffffffffffffffff166318160ddd6040518163ffffffff1660e01b8152600401602060405180830381865afa1580156138a8573d5f5f3e3d5ffd5b505050506040513d601f19601f820116820180604052508101906138cc9190615097565b036139195760045f8373ffffffffffffffffffffffffffffffffffffffff1673ffffffffffffffffffffffffffffffffffffffff1681526020019081526020015f20600501549050613ab0565b7f000000000000000000000000000000000000000000000000000000000000000073ffffffffffffffffffffffffffffffffffffffff166318160ddd6040518163ffffffff1660e01b8152600401602060405180830381865afa158015613982573d5f5f3e3d5ffd5b505050506040513d601f19601f820116820180604052508101906139a69190615097565b670de0b6b3a764000060045f8573ffffffffffffffffffffffffffffffffffffffff1673ffffffffffffffffffffffffffffffffffffffff1681526020019081526020015f206003015460045f8673ffffffffffffffffffffffffffffffffffffffff1673ffffffffffffffffffffffffffffffffffffffff1681526020019081526020015f2060040154613a3a86611ee6565b613a449190614fe2565b613a4e9190614f44565b613a589190614f44565b613a629190614fb2565b60045f8473ffffffffffffffffffffffffffffffffffffffff1673ffffffffffffffffffffffffffffffffffffffff1681526020019081526020015f2060050154613aad91906150f7565b90505b919050565b613ae2335f357fffffffff0000000000000000000000000000000000000000000000000000000016613d47565b613b21576040517f08c379a0000000000000000000000000000000000000000000000000000000008152600401613b1890614e93565b60405180910390fd5b805f5f6101000a81548173ffffffffffffffffffffffffffffffffffffffff021916908373ffffffffffffffffffffffffffffffffffffffff1602179055508073ffffffffffffffffffffffffffffffffffffffff163373ffffffffffffffffffffffffffffffffffffffff167f8be0079c531659141344cd1fd0a4f28419497f9722a3daafe3b4186f6b6457e060405160405180910390a350565b6060613bec335f357fffffffff0000000000000000000000000000000000000000000000000000000016613d47565b613c2b576040517f08c379a0000000000000000000000000000000000000000000000000000000008152600401613c2290614e93565b60405180910390fd5b600260149054906101000a900460ff1615613c72576040517fe3763d9700000000000000000000000000000000000000000000000000000000815260040160405180910390fd5b815167ffffffffffffffff811115613c8d57613c8c614b88565b5b604051908082528060200260200182016040528015613cbb5781602001602082028036833780820191505090505b5090505f5f90505b8251811015613d1d57613cf133848381518110613ce357613ce2614e0c565b5b6020026020010151336140c2565b828281518110613d0457613d03614e0c565b5b6020026020010181815250508080600101915050613cc3565b50919050565b7f000000000000000000000000000000000000000000000000000000000000000081565b5f5f60015f9054906101000a900473ffffffffffffffffffffffffffffffffffffffff1690505f73ffffffffffffffffffffffffffffffffffffffff168173ffffffffffffffffffffffffffffffffffffffff1614158015613e2157508073ffffffffffffffffffffffffffffffffffffffff1663b70096138530866040518463ffffffff1660e01b8152600401613de1939291906151ca565b602060405180830381865afa158015613dfc573d5f5f3e3d5ffd5b505050506040513d601f19601f82011682018060405250810190613e20919061513e565b5b80613e7757505f5f9054906101000a900473ffffffffffffffffffffffffffffffffffffffff1673ffffffffffffffffffffffffffffffffffffffff168473ffffffffffffffffffffffffffffffffffffffff16145b91505092915050565b5f6040517f23b872dd00000000000000000000000000000000000000000000000000000000815273ffffffffffffffffffffffffffffffffffffffff8516600482015273ffffffffffffffffffffffffffffffffffffffff8416602482015282604482015260205f6064835f8a5af1915081601f3d1160015f511416151615613f0c573d863b15171591505b5080613f4d576040517f08c379a0000000000000000000000000000000000000000000000000000000008152600401613f4490615249565b60405180910390fd5b5050505050565b5f6040517fa9059cbb00000000000000000000000000000000000000000000000000000000815273ffffffffffffffffffffffffffffffffffffffff8416600482015282602482015260205f6044835f895af1915081601f3d1160015f511416151615613fc4573d853b15171591505b5080614005576040517f08c379a0000000000000000000000000000000000000000000000000000000008152600401613ffc906152b1565b60405180910390fd5b50505050565b5f6040517f095ea7b300000000000000000000000000000000000000000000000000000000815273ffffffffffffffffffffffffffffffffffffffff8416600482015282602482015260205f6044835f895af1915081601f3d1160015f51141615161561407b573d853b15171591505b50806140bc576040517f08c379a00000000000000000000000000000000000000000000000000000000081526004016140b390615319565b60405180910390fd5b50505050565b5f835f5f90505b600580549050811015614334575f600582815481106140eb576140ea614e0c565b5b905f5260205f20015f9054906101000a900473ffffffffffffffffffffffffffffffffffffffff16905061411e8161383d565b60045f8373ffffffffffffffffffffffffffffffffffffffff1673ffffffffffffffffffffffffffffffffffffffff1681526020019081526020015f206005018190555061416b81611ee6565b60045f8373ffffffffffffffffffffffffffffffffffffffff1673ffffffffffffffffffffffffffffffffffffffff1681526020019081526020015f20600401819055505f73ffffffffffffffffffffffffffffffffffffffff168373ffffffffffffffffffffffffffffffffffffffff1614614326576141ec8382611545565b60075f8573ffffffffffffffffffffffffffffffffffffffff1673ffffffffffffffffffffffffffffffffffffffff1681526020019081526020015f205f8373ffffffffffffffffffffffffffffffffffffffff1673ffffffffffffffffffffffffffffffffffffffff1681526020019081526020015f208190555060045f8273ffffffffffffffffffffffffffffffffffffffff1673ffffffffffffffffffffffffffffffffffffffff1681526020019081526020015f206005015460065f8573ffffffffffffffffffffffffffffffffffffffff1673ffffffffffffffffffffffffffffffffffffffff1681526020019081526020015f205f8373ffffffffffffffffffffffffffffffffffffffff1673ffffffffffffffffffffffffffffffffffffffff1681526020019081526020015f20819055505b5080806001019150506140c9565b5060075f8673ffffffffffffffffffffffffffffffffffffffff1673ffffffffffffffffffffffffffffffffffffffff1681526020019081526020015f205f8573ffffffffffffffffffffffffffffffffffffffff1673ffffffffffffffffffffffffffffffffffffffff1681526020019081526020015f205491505f821115614570575f60075f8773ffffffffffffffffffffffffffffffffffffffff1673ffffffffffffffffffffffffffffffffffffffff1681526020019081526020015f205f8673ffffffffffffffffffffffffffffffffffffffff1673ffffffffffffffffffffffffffffffffffffffff1681526020019081526020015f20819055505f73ffffffffffffffffffffffffffffffffffffffff16600a5f9054906101000a900473ffffffffffffffffffffffffffffffffffffffff1673ffffffffffffffffffffffffffffffffffffffff16146144dc576144d7600a5f9054906101000a900473ffffffffffffffffffffffffffffffffffffffff1684848773ffffffffffffffffffffffffffffffffffffffff16613e80909392919063ffffffff16565b614508565b61450783838673ffffffffffffffffffffffffffffffffffffffff16613f549092919063ffffffff16565b5b8373ffffffffffffffffffffffffffffffffffffffff168573ffffffffffffffffffffffffffffffffffffffff167f7fe1dfb5fd2a01640e1b559e082ce63e369d4d61e01dc0caec9521e55a8d1e4f8486604051614567929190615337565b60405180910390a35b509392505050565b6040518060c001604052805f73ffffffffffffffffffffffffffffffffffffffff1681526020015f81526020015f81526020015f81526020015f81526020015f81525090565b5f604051905090565b5f5ffd5b5f5ffd5b5f73ffffffffffffffffffffffffffffffffffffffff82169050919050565b5f6145f8826145cf565b9050919050565b614608816145ee565b8114614612575f5ffd5b50565b5f81359050614623816145ff565b92915050565b5f6020828403121561463e5761463d6145c7565b5b5f61464b84828501614615565b91505092915050565b5f81519050919050565b5f82825260208201905092915050565b5f819050602082019050919050565b614686816145ee565b82525050565b5f819050919050565b61469e8161468c565b82525050565b60c082015f8201516146b85f85018261467d565b5060208201516146cb6020850182614695565b5060408201516146de6040850182614695565b5060608201516146f16060850182614695565b5060808201516147046080850182614695565b5060a082015161471760a0850182614695565b50505050565b5f61472883836146a4565b60c08301905092915050565b5f602082019050919050565b5f61474a82614654565b614754818561465e565b935061475f8361466e565b805f5b8381101561478f578151614776888261471d565b975061478183614734565b925050600181019050614762565b5085935050505092915050565b5f6020820190508181035f8301526147b48184614740565b905092915050565b6147c58161468c565b82525050565b5f6020820190506147de5f8301846147bc565b92915050565b5f8115159050919050565b6147f8816147e4565b8114614802575f5ffd5b50565b5f81359050614813816147ef565b92915050565b5f6020828403121561482e5761482d6145c7565b5b5f61483b84828501614805565b91505092915050565b5f5f6040838503121561485a576148596145c7565b5b5f61486785828601614615565b925050602061487885828601614615565b9150509250929050565b61488b8161468c565b8114614895575f5ffd5b50565b5f813590506148a681614882565b92915050565b5f5f604083850312156148c2576148c16145c7565b5b5f6148cf85828601614615565b92505060206148e085828601614898565b9150509250929050565b5f602082840312156148ff576148fe6145c7565b5b5f61490c84828501614898565b91505092915050565b61491e816145ee565b82525050565b5f60c0820190506149375f830189614915565b61494460208301886147bc565b61495160408301876147bc565b61495e60608301866147bc565b61496b60808301856147bc565b61497860a08301846147bc565b979650505050505050565b5f819050919050565b5f6149a66149a161499c846145cf565b614983565b6145cf565b9050919050565b5f6149b78261498c565b9050919050565b5f6149c8826149ad565b9050919050565b6149d8816149be565b82525050565b5f6020820190506149f15f8301846149cf565b92915050565b5f602082019050614a0a5f830184614915565b92915050565b5f614a1a826145ee565b9050919050565b614a2a81614a10565b8114614a34575f5ffd5b50565b5f81359050614a4581614a21565b92915050565b5f60208284031215614a6057614a5f6145c7565b5b5f614a6d84828501614a37565b91505092915050565b5f5f5f5f60808587031215614a8e57614a8d6145c7565b5b5f614a9b87828801614615565b9450506020614aac87828801614615565b9350506040614abd87828801614898565b9250506060614ace87828801614615565b91505092959194509250565b614ae3816147e4565b82525050565b5f602082019050614afc5f830184614ada565b92915050565b5f614b0c826149ad565b9050919050565b614b1c81614b02565b82525050565b5f602082019050614b355f830184614b13565b92915050565b5f614b45826149ad565b9050919050565b614b5581614b3b565b82525050565b5f602082019050614b6e5f830184614b4c565b92915050565b5f5ffd5b5f601f19601f8301169050919050565b7f4e487b71000000000000000000000000000000000000000000000000000000005f52604160045260245ffd5b614bbe82614b78565b810181811067ffffffffffffffff82111715614bdd57614bdc614b88565b5b80604052505050565b5f614bef6145be565b9050614bfb8282614bb5565b919050565b5f67ffffffffffffffff821115614c1a57614c19614b88565b5b602082029050602081019050919050565b5f5ffd5b5f614c41614c3c84614c00565b614be6565b90508083825260208201905060208402830185811115614c6457614c63614c2b565b5b835b81811015614c8d5780614c798882614615565b845260208401935050602081019050614c66565b5050509392505050565b5f82601f830112614cab57614caa614b74565b5b8135614cbb848260208601614c2f565b91505092915050565b5f60208284031215614cd957614cd86145c7565b5b5f82013567ffffffffffffffff811115614cf657614cf56145cb565b5b614d0284828501614c97565b91505092915050565b5f81519050919050565b5f82825260208201905092915050565b5f819050602082019050919050565b5f614d3f8383614695565b60208301905092915050565b5f602082019050919050565b5f614d6182614d0b565b614d6b8185614d15565b9350614d7683614d25565b805f5b83811015614da6578151614d8d8882614d34565b9750614d9883614d4b565b925050600181019050614d79565b5085935050505092915050565b5f6020820190508181035f830152614dcb8184614d57565b905092915050565b5f614ddd826149ad565b9050919050565b614ded81614dd3565b82525050565b5f602082019050614e065f830184614de4565b92915050565b7f4e487b71000000000000000000000000000000000000000000000000000000005f52603260045260245ffd5b5f82825260208201905092915050565b7f554e415554484f52495a454400000000000000000000000000000000000000005f82015250565b5f614e7d600c83614e39565b9150614e8882614e49565b602082019050919050565b5f6020820190508181035f830152614eaa81614e71565b9050919050565b5f614ebb826145ee565b9050919050565b614ecb81614eb1565b8114614ed5575f5ffd5b50565b5f81519050614ee681614ec2565b92915050565b5f60208284031215614f0157614f006145c7565b5b5f614f0e84828501614ed8565b91505092915050565b7f4e487b71000000000000000000000000000000000000000000000000000000005f52601160045260245ffd5b5f614f4e8261468c565b9150614f598361468c565b9250828202614f678161468c565b91508282048414831517614f7e57614f7d614f17565b5b5092915050565b7f4e487b71000000000000000000000000000000000000000000000000000000005f52601260045260245ffd5b5f614fbc8261468c565b9150614fc78361468c565b925082614fd757614fd6614f85565b5b828204905092915050565b5f614fec8261468c565b9150614ff78361468c565b925082820390508181111561500f5761500e614f17565b5b92915050565b5f819050919050565b5f61503861503361502e84615015565b614983565b61468c565b9050919050565b6150488161501e565b82525050565b5f6060820190506150615f8301866147bc565b61506e602083018561503f565b61507b6040830184614915565b949350505050565b5f8151905061509181614882565b92915050565b5f602082840312156150ac576150ab6145c7565b5b5f6150b984828501615083565b91505092915050565b5f6060820190506150d55f8301866147bc565b6150e260208301856147bc565b6150ef60408301846147bc565b949350505050565b5f6151018261468c565b915061510c8361468c565b925082820190508082111561512457615123614f17565b5b92915050565b5f81519050615138816147ef565b92915050565b5f60208284031215615153576151526145c7565b5b5f6151608482850161512a565b91505092915050565b5f60408201905061517c5f830185614915565b61518960208301846147bc565b9392505050565b5f7fffffffff0000000000000000000000000000000000000000000000000000000082169050919050565b6151c481615190565b82525050565b5f6060820190506151dd5f830186614915565b6151ea6020830185614915565b6151f760408301846151bb565b949350505050565b7f5452414e534645525f46524f4d5f4641494c45440000000000000000000000005f82015250565b5f615233601483614e39565b915061523e826151ff565b602082019050919050565b5f6020820190508181035f83015261526081615227565b9050919050565b7f5452414e534645525f4641494c454400000000000000000000000000000000005f82015250565b5f61529b600f83614e39565b91506152a682615267565b602082019050919050565b5f6020820190508181035f8301526152c88161528f565b9050919050565b7f415050524f56455f4641494c45440000000000000000000000000000000000005f82015250565b5f615303600e83614e39565b915061530e826152cf565b602082019050919050565b5f6020820190508181035f830152615330816152f7565b9050919050565b5f60408201905061534a5f8301856147bc565b6153576020830184614915565b939250505056fea2646970667358221220c1e27564d8c67bc63c8cad3c1b0eed3c4da45c9c1bcea17c9fe1e2dd51c7be4264736f6c634300081e0033",
  "linkReferences": {},
  "deployedLinkReferences": {},
  "immutableReferences": {
    "10401": [
      {
        "length": 32,
        "start": 2628
      },
      {
        "length": 32,
        "start": 3552
      },
      {
        "length": 32,
        "start": 4335
      },
      {
        "length": 32,
        "start": 4869
      },
      {
        "length": 32,
        "start": 5718
      },
      {
        "length": 32,
        "start": 8096
      },
      {
        "length": 32,
        "start": 14401
      },
      {
        "length": 32,
        "start": 14619
      },
      {
        "length": 32,
        "start": 15653
      }
    ],
    "10404": [
      {
        "length": 32,
        "start": 3625
      },
      {
        "length": 32,
        "start": 7839
      }
    ]
  },
  "inputSourceName": "project/contracts/core/Distributor.sol",
  "buildInfoId": "solc-0_8_30-1928dd092702c4b13d9ee7116b7a704288626338"
}