{
  "_format": "hh3-artifact-1",
  "contractName": "Distributor",
  "sourceName": "contracts/core/Distributor.sol",
  "abi": [
    {
      "inputs": [
        {
          "internalType": "address",
          "name": "_primeRBAC",
          "type": "address"
        },
        {
          "internalType": "address",
          "name": "_teller",
          "type": "address"
        }
      ],
      "stateMutability": "nonpayable",
      "type": "constructor"
    },
    {
      "inputs": [],
      "name": "Distributor__AlreadyAdded",
      "type": "error"
    },
    {
      "inputs": [],
      "name": "Distributor__CannotWithdrawRewardToken",
      "type": "error"
    },
    {
      "inputs": [],
      "name": "Distributor__CompoundFeeExceedsMaximum",
      "type": "error"
    },
    {
      "inputs": [],
      "name": "Distributor__NotAuthorized",
      "type": "error"
    },
    {
      "inputs": [],
      "name": "Distributor__Paused",
      "type": "error"
    },
    {
      "inputs": [],
      "name": "Distributor__RewardPeriodActive",
      "type": "error"
    },
    {
      "inputs": [],
      "name": "Distributor__ThirdPartyCompoundNotAllowed",
      "type": "error"
    },
    {
      "inputs": [],
      "name": "Distributor__ZeroDuration",
      "type": "error"
    },
    {
      "inputs": [],
      "name": "NOT_OPERATOR",
      "type": "error"
    },
    {
      "inputs": [],
      "name": "NOT_PROTOCOL_ADMIN",
      "type": "error"
    },
    {
      "inputs": [],
      "name": "ZERO_ADDRESS",
      "type": "error"
    },
    {
      "anonymous": false,
      "inputs": [
        {
          "indexed": true,
          "internalType": "address",
          "name": "user",
          "type": "address"
        },
        {
          "indexed": true,
          "internalType": "contract Authority",
          "name": "newAuthority",
          "type": "address"
        }
      ],
      "name": "AuthorityUpdated",
      "type": "event"
    },
    {
      "anonymous": false,
      "inputs": [
        {
          "indexed": false,
          "internalType": "uint256",
          "name": "newFee",
          "type": "uint256"
        }
      ],
      "name": "CompoundFeeUpdated",
      "type": "event"
    },
    {
      "anonymous": false,
      "inputs": [
        {
          "indexed": true,
          "internalType": "address",
          "name": "account",
          "type": "address"
        },
        {
          "indexed": true,
          "internalType": "address",
          "name": "rewardToken",
          "type": "address"
        },
        {
          "indexed": false,
          "internalType": "uint256",
          "name": "rewardAmount",
          "type": "uint256"
        },
        {
          "indexed": false,
          "internalType": "uint256",
          "name": "shares",
          "type": "uint256"
        },
        {
          "indexed": false,
          "internalType": "uint256",
          "name": "fee",
          "type": "uint256"
        }
      ],
      "name": "CompoundReward",
      "type": "event"
    },
    {
      "anonymous": false,
      "inputs": [
        {
          "indexed": true,
          "internalType": "address",
          "name": "user",
          "type": "address"
        },
        {
          "indexed": true,
          "internalType": "address",
          "name": "newOwner",
          "type": "address"
        }
      ],
      "name": "OwnershipTransferred",
      "type": "event"
    },
    {
      "anonymous": false,
      "inputs": [],
      "name": "Paused",
      "type": "event"
    },
    {
      "anonymous": false,
      "inputs": [
        {
          "indexed": false,
          "internalType": "address",
          "name": "token",
          "type": "address"
        },
        {
          "indexed": false,
          "internalType": "uint256",
          "name": "amount",
          "type": "uint256"
        }
      ],
      "name": "Recovered",
      "type": "event"
    },
    {
      "anonymous": false,
      "inputs": [
        {
          "indexed": false,
          "internalType": "uint256",
          "name": "reward",
          "type": "uint256"
        }
      ],
      "name": "RewardAdded",
      "type": "event"
    },
    {
      "anonymous": false,
      "inputs": [
        {
          "indexed": true,
          "internalType": "address",
          "name": "user",
          "type": "address"
        },
        {
          "indexed": true,
          "internalType": "address",
          "name": "rewardsToken",
          "type": "address"
        },
        {
          "indexed": false,
          "internalType": "uint256",
          "name": "reward",
          "type": "uint256"
        },
        {
          "indexed": false,
          "internalType": "address",
          "name": "to",
          "type": "address"
        }
      ],
      "name": "RewardPaid",
      "type": "event"
    },
    {
      "anonymous": false,
      "inputs": [
        {
          "indexed": false,
          "internalType": "address",
          "name": "token",
          "type": "address"
        },
        {
          "indexed": false,
          "internalType": "uint256",
          "name": "newDuration",
          "type": "uint256"
        }
      ],
      "name": "RewardsDurationUpdated",
      "type": "event"
    },
    {
      "anonymous": false,
      "inputs": [
        {
          "indexed": true,
          "internalType": "address",
          "name": "user",
          "type": "address"
        },
        {
          "indexed": false,
          "internalType": "bool",
          "name": "allowed",
          "type": "bool"
        }
      ],
      "name": "ThirdPartyCompoundAllowed",
      "type": "event"
    },
    {
      "anonymous": false,
      "inputs": [],
      "name": "Unpaused",
      "type": "event"
    },
    {
      "inputs": [],
      "name": "MAX_COMPOUND_FEE",
      "outputs": [
        {
          "internalType": "uint256",
          "name": "",
          "type": "uint256"
        }
      ],
      "stateMutability": "view",
      "type": "function"
    },
    {
      "inputs": [
        {
          "internalType": "address",
          "name": "_rewardsToken",
          "type": "address"
        },
        {
          "internalType": "uint256",
          "name": "_rewardsDuration",
          "type": "uint256"
        }
      ],
      "name": "addReward",
      "outputs": [],
      "stateMutability": "nonpayable",
      "type": "function"
    },
    {
      "inputs": [
        {
          "internalType": "address",
          "name": "",
          "type": "address"
        }
      ],
      "name": "allowThirdPartyCompound",
      "outputs": [
        {
          "internalType": "bool",
          "name": "",
          "type": "bool"
        }
      ],
      "stateMutability": "view",
      "type": "function"
    },
    {
      "inputs": [],
      "name": "authority",
      "outputs": [
        {
          "internalType": "contract Authority",
          "name": "",
          "type": "address"
        }
      ],
      "stateMutability": "view",
      "type": "function"
    },
    {
      "inputs": [
        {
          "internalType": "address",
          "name": "account",
          "type": "address"
        }
      ],
      "name": "balanceOf",
      "outputs": [
        {
          "internalType": "uint256",
          "name": "",
          "type": "uint256"
        }
      ],
      "stateMutability": "view",
      "type": "function"
    },
    {
      "inputs": [
        {
          "internalType": "address",
          "name": "from",
          "type": "address"
        },
        {
          "internalType": "address",
          "name": "to",
          "type": "address"
        },
        {
          "internalType": "uint256",
          "name": "",
          "type": "uint256"
        },
        {
          "internalType": "address",
          "name": "",
          "type": "address"
        }
      ],
      "name": "beforeUpdate",
      "outputs": [],
      "stateMutability": "nonpayable",
      "type": "function"
    },
    {
      "inputs": [
        {
          "internalType": "address[]",
          "name": "_rewardTokens",
          "type": "address[]"
        }
      ],
      "name": "claimRewards",
      "outputs": [
        {
          "internalType": "uint256[]",
          "name": "rewardsOut",
          "type": "uint256[]"
        }
      ],
      "stateMutability": "nonpayable",
      "type": "function"
    },
    {
      "inputs": [],
      "name": "compoundFee",
      "outputs": [
        {
          "internalType": "uint256",
          "name": "",
          "type": "uint256"
        }
      ],
      "stateMutability": "view",
      "type": "function"
    },
    {
      "inputs": [
        {
          "internalType": "address",
          "name": "_account",
          "type": "address"
        }
      ],
      "name": "compoundReward",
      "outputs": [],
      "stateMutability": "nonpayable",
      "type": "function"
    },
    {
      "inputs": [
        {
          "internalType": "address",
          "name": "account",
          "type": "address"
        },
        {
          "internalType": "address",
          "name": "_rewardsToken",
          "type": "address"
        }
      ],
      "name": "earned",
      "outputs": [
        {
          "internalType": "uint256",
          "name": "",
          "type": "uint256"
        }
      ],
      "stateMutability": "view",
      "type": "function"
    },
    {
      "inputs": [
        {
          "internalType": "address",
          "name": "_rewardsToken",
          "type": "address"
        }
      ],
      "name": "getRewardDebt",
      "outputs": [
        {
          "internalType": "uint256",
          "name": "debt",
          "type": "uint256"
        }
      ],
      "stateMutability": "view",
      "type": "function"
    },
    {
      "inputs": [
        {
          "internalType": "address",
          "name": "_rewardsToken",
          "type": "address"
        }
      ],
      "name": "getRewardForDuration",
      "outputs": [
        {
          "internalType": "uint256",
          "name": "",
          "type": "uint256"
        }
      ],
      "stateMutability": "view",
      "type": "function"
    },
    {
      "inputs": [],
      "name": "getRewards",
      "outputs": [
        {
          "components": [
            {
              "internalType": "address",
              "name": "rewardsToken",
              "type": "address"
            },
            {
              "internalType": "uint256",
              "name": "rewardsDuration",
              "type": "uint256"
            },
            {
              "internalType": "uint256",
              "name": "periodFinish",
              "type": "uint256"
            },
            {
              "internalType": "uint256",
              "name": "rewardRate",
              "type": "uint256"
            },
            {
              "internalType": "uint256",
              "name": "lastUpdateTime",
              "type": "uint256"
            },
            {
              "internalType": "uint256",
              "name": "rewardPerTokenStored",
              "type": "uint256"
            }
          ],
          "internalType": "struct Distributor.RewardData[]",
          "name": "",
          "type": "tuple[]"
        }
      ],
      "stateMutability": "view",
      "type": "function"
    },
    {
      "inputs": [],
      "name": "isPaused",
      "outputs": [
        {
          "internalType": "bool",
          "name": "",
          "type": "bool"
        }
      ],
      "stateMutability": "view",
      "type": "function"
    },
    {
      "inputs": [
        {
          "internalType": "address",
          "name": "_rewardsToken",
          "type": "address"
        }
      ],
      "name": "lastTimeRewardApplicable",
      "outputs": [
        {
          "internalType": "uint256",
          "name": "",
          "type": "uint256"
        }
      ],
      "stateMutability": "view",
      "type": "function"
    },
    {
      "inputs": [
        {
          "internalType": "address",
          "name": "_rewardsToken",
          "type": "address"
        },
        {
          "internalType": "uint256",
          "name": "reward",
          "type": "uint256"
        }
      ],
      "name": "notifyRewardAmount",
      "outputs": [],
      "stateMutability": "nonpayable",
      "type": "function"
    },
    {
      "inputs": [],
      "name": "owner",
      "outputs": [
        {
          "internalType": "address",
          "name": "",
          "type": "address"
        }
      ],
      "stateMutability": "view",
      "type": "function"
    },
    {
      "inputs": [],
      "name": "pause",
      "outputs": [],
      "stateMutability": "nonpayable",
      "type": "function"
    },
    {
      "inputs": [],
      "name": "primeRBAC",
      "outputs": [
        {
          "internalType": "contract IPrimeRBAC",
          "name": "",
          "type": "address"
        }
      ],
      "stateMutability": "view",
      "type": "function"
    },
    {
      "inputs": [
        {
          "internalType": "address",
          "name": "tokenAddress",
          "type": "address"
        },
        {
          "internalType": "uint256",
          "name": "tokenAmount",
          "type": "uint256"
        }
      ],
      "name": "recoverERC20",
      "outputs": [],
      "stateMutability": "nonpayable",
      "type": "function"
    },
    {
      "inputs": [
        {
          "internalType": "address",
          "name": "",
          "type": "address"
        }
      ],
      "name": "rewardData",
      "outputs": [
        {
          "internalType": "address",
          "name": "rewardsToken",
          "type": "address"
        },
        {
          "internalType": "uint256",
          "name": "rewardsDuration",
          "type": "uint256"
        },
        {
          "internalType": "uint256",
          "name": "periodFinish",
          "type": "uint256"
        },
        {
          "internalType": "uint256",
          "name": "rewardRate",
          "type": "uint256"
        },
        {
          "internalType": "uint256",
          "name": "lastUpdateTime",
          "type": "uint256"
        },
        {
          "internalType": "uint256",
          "name": "rewardPerTokenStored",
          "type": "uint256"
        }
      ],
      "stateMutability": "view",
      "type": "function"
    },
    {
      "inputs": [
        {
          "internalType": "address",
          "name": "_rewardsToken",
          "type": "address"
        }
      ],
      "name": "rewardPerToken",
      "outputs": [
        {
          "internalType": "uint256",
          "name": "",
          "type": "uint256"
        }
      ],
      "stateMutability": "view",
      "type": "function"
    },
    {
      "inputs": [
        {
          "internalType": "uint256",
          "name": "",
          "type": "uint256"
        }
      ],
      "name": "rewardTokens",
      "outputs": [
        {
          "internalType": "address",
          "name": "",
          "type": "address"
        }
      ],
      "stateMutability": "view",
      "type": "function"
    },
    {
      "inputs": [
        {
          "internalType": "address",
          "name": "",
          "type": "address"
        },
        {
          "internalType": "address",
          "name": "",
          "type": "address"
        }
      ],
      "name": "rewards",
      "outputs": [
        {
          "internalType": "uint256",
          "name": "",
          "type": "uint256"
        }
      ],
      "stateMutability": "view",
      "type": "function"
    },
    {
      "inputs": [
        {
          "internalType": "bool",
          "name": "_allowed",
          "type": "bool"
        }
      ],
      "name": "setAllowThirdPartyCompound",
      "outputs": [],
      "stateMutability": "nonpayable",
      "type": "function"
    },
    {
      "inputs": [
        {
          "internalType": "contract Authority",
          "name": "newAuthority",
          "type": "address"
        }
      ],
      "name": "setAuthority",
      "outputs": [],
      "stateMutability": "nonpayable",
      "type": "function"
    },
    {
      "inputs": [
        {
          "internalType": "uint256",
          "name": "_compoundFee",
          "type": "uint256"
        }
      ],
      "name": "setCompoundFee",
      "outputs": [],
      "stateMutability": "nonpayable",
      "type": "function"
    },
    {
      "inputs": [
        {
          "internalType": "address",
          "name": "_rewardsToken",
          "type": "address"
        },
        {
          "internalType": "uint256",
          "name": "_rewardsDuration",
          "type": "uint256"
        }
      ],
      "name": "setRewardsDuration",
      "outputs": [],
      "stateMutability": "nonpayable",
      "type": "function"
    },
    {
      "inputs": [],
      "name": "teller",
      "outputs": [
        {
          "internalType": "contract Teller",
          "name": "",
          "type": "address"
        }
      ],
      "stateMutability": "view",
      "type": "function"
    },
    {
      "inputs": [],
      "name": "totalSupply",
      "outputs": [
        {
          "internalType": "uint256",
          "name": "",
          "type": "uint256"
        }
      ],
      "stateMutability": "view",
      "type": "function"
    },
    {
      "inputs": [
        {
          "internalType": "address",
          "name": "newOwner",
          "type": "address"
        }
      ],
      "name": "transferOwnership",
      "outputs": [],
      "stateMutability": "nonpayable",
      "type": "function"
    },
    {
      "inputs": [],
      "name": "unpause",
      "outputs": [],
      "stateMutability": "nonpayable",
      "type": "function"
    },
    {
      "inputs": [
        {
          "internalType": "address",
          "name": "account",
          "type": "address"
        }
      ],
      "name": "updateRewardForAccount",
      "outputs": [],
      "stateMutability": "nonpayable",
      "type": "function"
    },
    {
      "inputs": [
        {
          "internalType": "address",
          "name": "",
          "type": "address"
        },
        {
          "internalType": "address",
          "name": "",
          "type": "address"
        }
      ],
      "name": "userRewardPerTokenPaid",
      "outputs": [
        {
          "internalType": "uint256",
          "name": "",
          "type": "uint256"
        }
      ],
      "stateMutability": "view",
      "type": "function"
    },
    {
      "inputs": [],
      "name": "vault",
      "outputs": [
        {
          "internalType": "contract ERC20",
          "name": "",
          "type": "address"
        }
      ],
      "stateMutability": "view",
      "type": "function"
    }
  ],
  "bytecode": "0x60c06040526001600355348015610014575f5ffd5b5060405161543d38038061543d83398181016040528101906100369190610460565b818173ffffffffffffffffffffffffffffffffffffffff1663fbfa77cf6040518163ffffffff1660e01b8152600401602060405180830381865afa158015610080573d5f5f3e3d5ffd5b505050506040513d601f19601f820116820180604052508101906100a491906104ea565b73ffffffffffffffffffffffffffffffffffffffff1663bf7e214f6040518163ffffffff1660e01b8152600401602060405180830381865afa1580156100ec573d5f5f3e3d5ffd5b505050506040513d601f19601f820116820180604052508101906101109190610550565b3381815f5f6101000a81548173ffffffffffffffffffffffffffffffffffffffff021916908373ffffffffffffffffffffffffffffffffffffffff1602179055508060015f6101000a81548173ffffffffffffffffffffffffffffffffffffffff021916908373ffffffffffffffffffffffffffffffffffffffff1602179055508173ffffffffffffffffffffffffffffffffffffffff163373ffffffffffffffffffffffffffffffffffffffff167f8be0079c531659141344cd1fd0a4f28419497f9722a3daafe3b4186f6b6457e060405160405180910390a38073ffffffffffffffffffffffffffffffffffffffff163373ffffffffffffffffffffffffffffffffffffffff167fa3396fd7f6e0a21b50e5089d2da70d5ac0a3bbbd1f617a93f134b7638998019860405160405180910390a350505f73ffffffffffffffffffffffffffffffffffffffff168273ffffffffffffffffffffffffffffffffffffffff1614806102ac57505f73ffffffffffffffffffffffffffffffffffffffff168173ffffffffffffffffffffffffffffffffffffffff16145b156102e3576040517f538ba4f900000000000000000000000000000000000000000000000000000000815260040160405180910390fd5b8160025f6101000a81548173ffffffffffffffffffffffffffffffffffffffff021916908373ffffffffffffffffffffffffffffffffffffffff16021790555050508073ffffffffffffffffffffffffffffffffffffffff1660a08173ffffffffffffffffffffffffffffffffffffffff168152505060a05173ffffffffffffffffffffffffffffffffffffffff1663fbfa77cf6040518163ffffffff1660e01b8152600401602060405180830381865afa1580156103a4573d5f5f3e3d5ffd5b505050506040513d601f19601f820116820180604052508101906103c891906104ea565b73ffffffffffffffffffffffffffffffffffffffff1660808173ffffffffffffffffffffffffffffffffffffffff1681525050505061057b565b5f5ffd5b5f73ffffffffffffffffffffffffffffffffffffffff82169050919050565b5f61042f82610406565b9050919050565b61043f81610425565b8114610449575f5ffd5b50565b5f8151905061045a81610436565b92915050565b5f5f6040838503121561047657610475610402565b5b5f6104838582860161044c565b92505060206104948582860161044c565b9150509250929050565b5f6104a882610406565b9050919050565b5f6104b98261049e565b9050919050565b6104c9816104af565b81146104d3575f5ffd5b50565b5f815190506104e4816104c0565b92915050565b5f602082840312156104ff576104fe610402565b5b5f61050c848285016104d6565b91505092915050565b5f61051f82610425565b9050919050565b61052f81610515565b8114610539575f5ffd5b50565b5f8151905061054a81610526565b92915050565b5f6020828403121561056557610564610402565b5b5f6105728482850161053c565b91505092915050565b60805160a051614e626105db5f395f8181610d360152611dac01525f81816109f401528181610ced01528181610ffc015281816112120152818161156301528181611e88015281816134f3015281816135cd01526139d70152614e625ff3fe608060405234801561000f575f5ffd5b506004361061020f575f3560e01c80638456cb5911610123578063bcd11014116100ab578063f0ea59151161007a578063f0ea591514610616578063f122977714610632578063f2fde38b14610662578063f9f031df1461067e578063fbfa77cf146106ae5761020f565b8063bcd110141461057a578063bf7e214f146105aa578063e37d7e68146105c8578063e70b9e27146105e65761020f565b80639feb8f50116100f25780639feb8f50146104d8578063a6549221146104f4578063a78ffca514610510578063b187bd2614610540578063b66503cf1461055e5761020f565b80638456cb59146104765780638980f11f146104805780638ad029f11461049c5780638da5cb5b146104ba5761020f565b806327ec5066116101a6578063638634ee11610175578063638634ee1461039a5780637035ab98146103ca57806370a08231146103fa5780637a9e5e4b1461042a5780637bb7bed1146104465761020f565b806327ec5066146103215780633f4ba83a1461033d57806348e5d9f81461034757806357edab4e1461037c5761020f565b80631d47c6d9116101e25780631d47c6d914610289578063208be4f3146102b9578063211dc32d146102d55780632378bea6146103055761020f565b806302b3b7ea146102135780630572b0cc1461022f5780630a6c3bb21461024d57806318160ddd1461026b575b5f5ffd5b61022d6004803603810190610228919061415f565b6106cc565b005b610237610e47565b60405161024491906142d2565b60405180910390f35b610255610ff3565b6040516102629190614301565b60405180910390f35b610273610ff9565b6040516102809190614301565b60405180910390f35b6102a3600480360381019061029e919061415f565b61108c565b6040516102b09190614301565b60405180910390f35b6102d360048036038101906102ce919061434f565b611341565b005b6102ef60048036038101906102ea919061437a565b611452565b6040516102fc9190614301565b60405180910390f35b61031f600480360381019061031a91906143e2565b61161f565b005b61033b60048036038101906103369190614420565b6119a8565b005b610345611b98565b005b610361600480360381019061035c919061415f565b611d53565b6040516103739695949392919061445a565b60405180910390f35b610384611daa565b6040516103919190614514565b60405180910390f35b6103b460048036038101906103af919061415f565b611dce565b6040516103c19190614301565b60405180910390f35b6103e460048036038101906103df919061437a565b611e65565b6040516103f19190614301565b60405180910390f35b610414600480360381019061040f919061415f565b611e85565b6040516104219190614301565b60405180910390f35b610444600480360381019061043f9190614568565b611f25565b005b610460600480360381019061045b9190614420565b6120e0565b60405161046d9190614593565b60405180910390f35b61047e61211b565b005b61049a600480360381019061049591906143e2565b6122d7565b005b6104a461252b565b6040516104b19190614301565b60405180910390f35b6104c2612531565b6040516104cf9190614593565b60405180910390f35b6104f260048036038101906104ed91906143e2565b612555565b005b61050e600480360381019061050991906145ac565b61289e565b005b61052a6004803603810190610525919061415f565b6129d1565b604051610537919061461f565b60405180910390f35b6105486129ee565b604051610555919061461f565b60405180910390f35b610578600480360381019061057391906143e2565b612a01565b005b610594600480360381019061058f919061415f565b6131b1565b6040516105a19190614301565b60405180910390f35b6105b2613245565b6040516105bf9190614658565b60405180910390f35b6105d061326a565b6040516105dd9190614691565b60405180910390f35b61060060048036038101906105fb919061437a565b61328f565b60405161060d9190614301565b60405180910390f35b610630600480360381019061062b919061415f565b6132af565b005b61064c6004803603810190610647919061415f565b6134ef565b6040516106599190614301565b60405180910390f35b61067c6004803603810190610677919061415f565b613767565b005b610698600480360381019061069391906147fa565b61386f565b6040516106a591906148e9565b60405180910390f35b6106b66139d5565b6040516106c39190614929565b60405180910390f35b805f5f90505b60058054905081101561093d575f600582815481106106f4576106f3614942565b5b905f5260205f20015f9054906101000a900473ffffffffffffffffffffffffffffffffffffffff169050610727816134ef565b60045f8373ffffffffffffffffffffffffffffffffffffffff1673ffffffffffffffffffffffffffffffffffffffff1681526020019081526020015f206005018190555061077481611dce565b60045f8373ffffffffffffffffffffffffffffffffffffffff1673ffffffffffffffffffffffffffffffffffffffff1681526020019081526020015f20600401819055505f73ffffffffffffffffffffffffffffffffffffffff168373ffffffffffffffffffffffffffffffffffffffff161461092f576107f58382611452565b60075f8573ffffffffffffffffffffffffffffffffffffffff1673ffffffffffffffffffffffffffffffffffffffff1681526020019081526020015f205f8373ffffffffffffffffffffffffffffffffffffffff1673ffffffffffffffffffffffffffffffffffffffff1681526020019081526020015f208190555060045f8273ffffffffffffffffffffffffffffffffffffffff1673ffffffffffffffffffffffffffffffffffffffff1681526020019081526020015f206005015460065f8573ffffffffffffffffffffffffffffffffffffffff1673ffffffffffffffffffffffffffffffffffffffff1681526020019081526020015f205f8373ffffffffffffffffffffffffffffffffffffffff1673ffffffffffffffffffffffffffffffffffffffff1681526020019081526020015f20819055505b5080806001019150506106d2565b5061096b335f357fffffffff00000000000000000000000000000000000000000000000000000000166139f9565b6109aa576040517f08c379a00000000000000000000000000000000000000000000000000000000081526004016109a1906149c9565b60405180910390fd5b600260149054906101000a900460ff16156109f1576040517fe3763d9700000000000000000000000000000000000000000000000000000000815260040160405180910390fd5b5f7f000000000000000000000000000000000000000000000000000000000000000073ffffffffffffffffffffffffffffffffffffffff166338d52e0f6040518163ffffffff1660e01b8152600401602060405180830381865afa158015610a5b573d5f5f3e3d5ffd5b505050506040513d601f19601f82011682018060405250810190610a7f9190614a22565b90508273ffffffffffffffffffffffffffffffffffffffff163373ffffffffffffffffffffffffffffffffffffffff1614610b355760095f8473ffffffffffffffffffffffffffffffffffffffff1673ffffffffffffffffffffffffffffffffffffffff1681526020019081526020015f205f9054906101000a900460ff16610b34576040517fe0507a2e00000000000000000000000000000000000000000000000000000000815260040160405180910390fd5b5b5f60075f8573ffffffffffffffffffffffffffffffffffffffff1673ffffffffffffffffffffffffffffffffffffffff1681526020019081526020015f205f8373ffffffffffffffffffffffffffffffffffffffff1673ffffffffffffffffffffffffffffffffffffffff1681526020019081526020015f205490505f811115610e41575f60075f8673ffffffffffffffffffffffffffffffffffffffff1673ffffffffffffffffffffffffffffffffffffffff1681526020019081526020015f205f8473ffffffffffffffffffffffffffffffffffffffff1673ffffffffffffffffffffffffffffffffffffffff1681526020019081526020015f20819055505f5f90505f8290508573ffffffffffffffffffffffffffffffffffffffff163373ffffffffffffffffffffffffffffffffffffffff1614158015610c7b57505f600854115b15610ce05761271060085484610c919190614a7a565b610c9b9190614ae8565b91508183610ca99190614b18565b90505f821115610cdf57610cde33838673ffffffffffffffffffffffffffffffffffffffff16613b329092919063ffffffff16565b5b5b5f811115610e3e57610d337f0000000000000000000000000000000000000000000000000000000000000000828673ffffffffffffffffffffffffffffffffffffffff16613be99092919063ffffffff16565b5f7f000000000000000000000000000000000000000000000000000000000000000073ffffffffffffffffffffffffffffffffffffffff16638dbdbe6d835f8a6040518463ffffffff1660e01b8152600401610d9193929190614b84565b6020604051808303815f875af1158015610dad573d5f5f3e3d5ffd5b505050506040513d601f19601f82011682018060405250810190610dd19190614bcd565b90508473ffffffffffffffffffffffffffffffffffffffff168773ffffffffffffffffffffffffffffffffffffffff167f082a49debd7523359a7e587893fa757c15a9ebb7c8928a1df53c8b40b381738c848487604051610e3493929190614bf8565b60405180910390a3505b50505b50505050565b60605f60058054905067ffffffffffffffff811115610e6957610e686146be565b5b604051908082528060200260200182016040528015610ea257816020015b610e8f6140ae565b815260200190600190039081610e875790505b5090505f5f90505b600580549050811015610feb5760045f60058381548110610ece57610ecd614942565b5b905f5260205f20015f9054906101000a900473ffffffffffffffffffffffffffffffffffffffff1673ffffffffffffffffffffffffffffffffffffffff1673ffffffffffffffffffffffffffffffffffffffff1681526020019081526020015f206040518060c00160405290815f82015f9054906101000a900473ffffffffffffffffffffffffffffffffffffffff1673ffffffffffffffffffffffffffffffffffffffff1673ffffffffffffffffffffffffffffffffffffffff16815260200160018201548152602001600282015481526020016003820154815260200160048201548152602001600582015481525050828281518110610fd357610fd2614942565b5b60200260200101819052508080600101915050610eaa565b508091505090565b60085481565b5f7f000000000000000000000000000000000000000000000000000000000000000073ffffffffffffffffffffffffffffffffffffffff166318160ddd6040518163ffffffff1660e01b8152600401602060405180830381865afa158015611063573d5f5f3e3d5ffd5b505050506040513d601f19601f820116820180604052508101906110879190614bcd565b905090565b5f5f4290505f60045f8573ffffffffffffffffffffffffffffffffffffffff1673ffffffffffffffffffffffffffffffffffffffff1681526020019081526020015f2060020154821061111f5760045f8573ffffffffffffffffffffffffffffffffffffffff1673ffffffffffffffffffffffffffffffffffffffff1681526020019081526020015f2060020154611121565b815b90505f60045f8673ffffffffffffffffffffffffffffffffffffffff1673ffffffffffffffffffffffffffffffffffffffff1681526020019081526020015f20600401548211611171575f6111be565b60045f8673ffffffffffffffffffffffffffffffffffffffff1673ffffffffffffffffffffffffffffffffffffffff1681526020019081526020015f2060040154826111bd9190614b18565b5b90505f60045f8773ffffffffffffffffffffffffffffffffffffffff1673ffffffffffffffffffffffffffffffffffffffff1681526020019081526020015f20600301548261120d9190614a7a565b90505f7f000000000000000000000000000000000000000000000000000000000000000073ffffffffffffffffffffffffffffffffffffffff166318160ddd6040518163ffffffff1660e01b8152600401602060405180830381865afa158015611279573d5f5f3e3d5ffd5b505050506040513d601f19601f8201168201806040525081019061129d9190614bcd565b90505f811115611337575f81670de0b6b3a7640000846112bd9190614a7a565b6112c79190614ae8565b60045f8a73ffffffffffffffffffffffffffffffffffffffff1673ffffffffffffffffffffffffffffffffffffffff1681526020019081526020015f20600501546113129190614c2d565b9050670de0b6b3a764000082826113299190614a7a565b6113339190614ae8565b9650505b5050505050919050565b61136e335f357fffffffff00000000000000000000000000000000000000000000000000000000166139f9565b6113ad576040517f08c379a00000000000000000000000000000000000000000000000000000000081526004016113a4906149c9565b60405180910390fd5b8060095f3373ffffffffffffffffffffffffffffffffffffffff1673ffffffffffffffffffffffffffffffffffffffff1681526020019081526020015f205f6101000a81548160ff0219169083151502179055503373ffffffffffffffffffffffffffffffffffffffff167fbdfee831ca1ffc3205aae8250f2a8aac2e2fa68c9da227c46d927f295bd2aabb82604051611447919061461f565b60405180910390a250565b5f60075f8473ffffffffffffffffffffffffffffffffffffffff1673ffffffffffffffffffffffffffffffffffffffff1681526020019081526020015f205f8373ffffffffffffffffffffffffffffffffffffffff1673ffffffffffffffffffffffffffffffffffffffff1681526020019081526020015f2054670de0b6b3a764000060065f8673ffffffffffffffffffffffffffffffffffffffff1673ffffffffffffffffffffffffffffffffffffffff1681526020019081526020015f205f8573ffffffffffffffffffffffffffffffffffffffff1673ffffffffffffffffffffffffffffffffffffffff1681526020019081526020015f2054611557856134ef565b6115619190614b18565b7f000000000000000000000000000000000000000000000000000000000000000073ffffffffffffffffffffffffffffffffffffffff166370a08231876040518263ffffffff1660e01b81526004016115ba9190614593565b602060405180830381865afa1580156115d5573d5f5f3e3d5ffd5b505050506040513d601f19601f820116820180604052508101906115f99190614bcd565b6116039190614a7a565b61160d9190614ae8565b6116179190614c2d565b905092915050565b60025f9054906101000a900473ffffffffffffffffffffffffffffffffffffffff1673ffffffffffffffffffffffffffffffffffffffff1663fc4e3e0a336040518263ffffffff1660e01b81526004016116799190614593565b602060405180830381865afa158015611694573d5f5f3e3d5ffd5b505050506040513d601f19601f820116820180604052508101906116b89190614c74565b15801561175b575060025f9054906101000a900473ffffffffffffffffffffffffffffffffffffffff1673ffffffffffffffffffffffffffffffffffffffff1663d35911f2336040518263ffffffff1660e01b815260040161171a9190614593565b602060405180830381865afa158015611735573d5f5f3e3d5ffd5b505050506040513d601f19601f820116820180604052508101906117599190614c74565b155b80156117fd575060025f9054906101000a900473ffffffffffffffffffffffffffffffffffffffff1673ffffffffffffffffffffffffffffffffffffffff1663c138c139336040518263ffffffff1660e01b81526004016117bc9190614593565b602060405180830381865afa1580156117d7573d5f5f3e3d5ffd5b505050506040513d601f19601f820116820180604052508101906117fb9190614c74565b155b15611834576040517f19ca4b5e00000000000000000000000000000000000000000000000000000000815260040160405180910390fd5b60045f8373ffffffffffffffffffffffffffffffffffffffff1673ffffffffffffffffffffffffffffffffffffffff1681526020019081526020015f206002015442116118ad576040517ffb61f6df00000000000000000000000000000000000000000000000000000000815260040160405180910390fd5b5f81036118e6576040517f386d595500000000000000000000000000000000000000000000000000000000815260040160405180910390fd5b8060045f8473ffffffffffffffffffffffffffffffffffffffff1673ffffffffffffffffffffffffffffffffffffffff1681526020019081526020015f20600101819055507fad2f86b01ed93b4b3a150d448c61a4f5d8d38075d3c0c64cc0a26fd6e1f495458260045f8573ffffffffffffffffffffffffffffffffffffffff1673ffffffffffffffffffffffffffffffffffffffff1681526020019081526020015f206001015460405161199c929190614c9f565b60405180910390a15050565b60025f9054906101000a900473ffffffffffffffffffffffffffffffffffffffff1673ffffffffffffffffffffffffffffffffffffffff1663d35911f2336040518263ffffffff1660e01b8152600401611a029190614593565b602060405180830381865afa158015611a1d573d5f5f3e3d5ffd5b505050506040513d601f19601f82011682018060405250810190611a419190614c74565b158015611ae4575060025f9054906101000a900473ffffffffffffffffffffffffffffffffffffffff1673ffffffffffffffffffffffffffffffffffffffff1663c138c139336040518263ffffffff1660e01b8152600401611aa39190614593565b602060405180830381865afa158015611abe573d5f5f3e3d5ffd5b505050506040513d601f19601f82011682018060405250810190611ae29190614c74565b155b15611b1b576040517fdc85555400000000000000000000000000000000000000000000000000000000815260040160405180910390fd5b6107d0811115611b57576040517f6aa7144700000000000000000000000000000000000000000000000000000000815260040160405180910390fd5b806008819055507fa6d9a48d7e4e52ec0546321cd0b69b8bb699a75701b9bca931fadba0fece2d7e81604051611b8d9190614301565b60405180910390a150565b60025f9054906101000a900473ffffffffffffffffffffffffffffffffffffffff1673ffffffffffffffffffffffffffffffffffffffff1663d35911f2336040518263ffffffff1660e01b8152600401611bf29190614593565b602060405180830381865afa158015611c0d573d5f5f3e3d5ffd5b505050506040513d601f19601f82011682018060405250810190611c319190614c74565b158015611cd4575060025f9054906101000a900473ffffffffffffffffffffffffffffffffffffffff1673ffffffffffffffffffffffffffffffffffffffff1663c138c139336040518263ffffffff1660e01b8152600401611c939190614593565b602060405180830381865afa158015611cae573d5f5f3e3d5ffd5b505050506040513d601f19601f82011682018060405250810190611cd29190614c74565b155b15611d0b576040517fdc85555400000000000000000000000000000000000000000000000000000000815260040160405180910390fd5b5f600260146101000a81548160ff0219169083151502179055507fa45f47fdea8a1efdd9029a5691c7f759c32b7c698632b563573e155625d1693360405160405180910390a1565b6004602052805f5260405f205f91509050805f015f9054906101000a900473ffffffffffffffffffffffffffffffffffffffff16908060010154908060020154908060030154908060040154908060050154905086565b7f000000000000000000000000000000000000000000000000000000000000000081565b5f60045f8373ffffffffffffffffffffffffffffffffffffffff1673ffffffffffffffffffffffffffffffffffffffff1681526020019081526020015f20600201544210611e5c5760045f8373ffffffffffffffffffffffffffffffffffffffff1673ffffffffffffffffffffffffffffffffffffffff1681526020019081526020015f2060020154611e5e565b425b9050919050565b6006602052815f5260405f20602052805f5260405f205f91509150505481565b5f7f000000000000000000000000000000000000000000000000000000000000000073ffffffffffffffffffffffffffffffffffffffff166370a08231836040518263ffffffff1660e01b8152600401611edf9190614593565b602060405180830381865afa158015611efa573d5f5f3e3d5ffd5b505050506040513d601f19601f82011682018060405250810190611f1e9190614bcd565b9050919050565b5f5f9054906101000a900473ffffffffffffffffffffffffffffffffffffffff1673ffffffffffffffffffffffffffffffffffffffff163373ffffffffffffffffffffffffffffffffffffffff16148061203b575060015f9054906101000a900473ffffffffffffffffffffffffffffffffffffffff1673ffffffffffffffffffffffffffffffffffffffff1663b700961333305f357fffffffff00000000000000000000000000000000000000000000000000000000166040518463ffffffff1660e01b8152600401611ffb93929190614d00565b602060405180830381865afa158015612016573d5f5f3e3d5ffd5b505050506040513d601f19601f8201168201806040525081019061203a9190614c74565b5b612043575f5ffd5b8060015f6101000a81548173ffffffffffffffffffffffffffffffffffffffff021916908373ffffffffffffffffffffffffffffffffffffffff1602179055508073ffffffffffffffffffffffffffffffffffffffff163373ffffffffffffffffffffffffffffffffffffffff167fa3396fd7f6e0a21b50e5089d2da70d5ac0a3bbbd1f617a93f134b7638998019860405160405180910390a350565b600581815481106120ef575f80fd5b905f5260205f20015f915054906101000a900473ffffffffffffffffffffffffffffffffffffffff1681565b60025f9054906101000a900473ffffffffffffffffffffffffffffffffffffffff1673ffffffffffffffffffffffffffffffffffffffff1663d35911f2336040518263ffffffff1660e01b81526004016121759190614593565b602060405180830381865afa158015612190573d5f5f3e3d5ffd5b505050506040513d601f19601f820116820180604052508101906121b49190614c74565b158015612257575060025f9054906101000a900473ffffffffffffffffffffffffffffffffffffffff1673ffffffffffffffffffffffffffffffffffffffff1663c138c139336040518263ffffffff1660e01b81526004016122169190614593565b602060405180830381865afa158015612231573d5f5f3e3d5ffd5b505050506040513d601f19601f820116820180604052508101906122559190614c74565b155b1561228e576040517fdc85555400000000000000000000000000000000000000000000000000000000815260040160405180910390fd5b6001600260146101000a81548160ff0219169083151502179055507f9e87fac88ff661f02d44f95383c817fece4bce600a3dab7a54406878b965e75260405160405180910390a1565b60025f9054906101000a900473ffffffffffffffffffffffffffffffffffffffff1673ffffffffffffffffffffffffffffffffffffffff1663d35911f2336040518263ffffffff1660e01b81526004016123319190614593565b602060405180830381865afa15801561234c573d5f5f3e3d5ffd5b505050506040513d601f19601f820116820180604052508101906123709190614c74565b158015612413575060025f9054906101000a900473ffffffffffffffffffffffffffffffffffffffff1673ffffffffffffffffffffffffffffffffffffffff1663c138c139336040518263ffffffff1660e01b81526004016123d29190614593565b602060405180830381865afa1580156123ed573d5f5f3e3d5ffd5b505050506040513d601f19601f820116820180604052508101906124119190614c74565b155b1561244a576040517fdc85555400000000000000000000000000000000000000000000000000000000815260040160405180910390fd5b5f60045f8473ffffffffffffffffffffffffffffffffffffffff1673ffffffffffffffffffffffffffffffffffffffff1681526020019081526020015f2060040154146124c3576040517f18ac301100000000000000000000000000000000000000000000000000000000815260040160405180910390fd5b6124ee33828473ffffffffffffffffffffffffffffffffffffffff16613b329092919063ffffffff16565b7f8c1256b8896378cd5044f80c202f9772b9d77dc85c8a6eb51967210b09bfaa28828260405161251f929190614c9f565b60405180910390a15050565b6107d081565b5f5f9054906101000a900473ffffffffffffffffffffffffffffffffffffffff1681565b60025f9054906101000a900473ffffffffffffffffffffffffffffffffffffffff1673ffffffffffffffffffffffffffffffffffffffff1663d35911f2336040518263ffffffff1660e01b81526004016125af9190614593565b602060405180830381865afa1580156125ca573d5f5f3e3d5ffd5b505050506040513d601f19601f820116820180604052508101906125ee9190614c74565b158015612691575060025f9054906101000a900473ffffffffffffffffffffffffffffffffffffffff1673ffffffffffffffffffffffffffffffffffffffff1663c138c139336040518263ffffffff1660e01b81526004016126509190614593565b602060405180830381865afa15801561266b573d5f5f3e3d5ffd5b505050506040513d601f19601f8201168201806040525081019061268f9190614c74565b155b156126c8576040517fdc85555400000000000000000000000000000000000000000000000000000000815260040160405180910390fd5b5f60045f8473ffffffffffffffffffffffffffffffffffffffff1673ffffffffffffffffffffffffffffffffffffffff1681526020019081526020015f206001015414612741576040517f43c1476600000000000000000000000000000000000000000000000000000000815260040160405180910390fd5b600582908060018154018082558091505060019003905f5260205f20015f9091909190916101000a81548173ffffffffffffffffffffffffffffffffffffffff021916908373ffffffffffffffffffffffffffffffffffffffff1602179055506040518060c001604052808373ffffffffffffffffffffffffffffffffffffffff1681526020018281526020015f81526020015f81526020015f81526020015f81525060045f8473ffffffffffffffffffffffffffffffffffffffff1673ffffffffffffffffffffffffffffffffffffffff1681526020019081526020015f205f820151815f015f6101000a81548173ffffffffffffffffffffffffffffffffffffffff021916908373ffffffffffffffffffffffffffffffffffffffff1602179055506020820151816001015560408201518160020155606082015181600301556080820151816004015560a082015181600501559050505050565b6128cb335f357fffffffff00000000000000000000000000000000000000000000000000000000166139f9565b61290a576040517f08c379a0000000000000000000000000000000000000000000000000000000008152600401612901906149c9565b60405180910390fd5b600260149054906101000a900460ff1615612951576040517fe3763d9700000000000000000000000000000000000000000000000000000000815260040160405180910390fd5b5f73ffffffffffffffffffffffffffffffffffffffff168473ffffffffffffffffffffffffffffffffffffffff161461298e5761298d846132af565b5b5f73ffffffffffffffffffffffffffffffffffffffff168373ffffffffffffffffffffffffffffffffffffffff16146129cb576129ca836132af565b5b50505050565b6009602052805f5260405f205f915054906101000a900460ff1681565b600260149054906101000a900460ff1681565b60025f9054906101000a900473ffffffffffffffffffffffffffffffffffffffff1673ffffffffffffffffffffffffffffffffffffffff1663fc4e3e0a336040518263ffffffff1660e01b8152600401612a5b9190614593565b602060405180830381865afa158015612a76573d5f5f3e3d5ffd5b505050506040513d601f19601f82011682018060405250810190612a9a9190614c74565b158015612b3d575060025f9054906101000a900473ffffffffffffffffffffffffffffffffffffffff1673ffffffffffffffffffffffffffffffffffffffff1663d35911f2336040518263ffffffff1660e01b8152600401612afc9190614593565b602060405180830381865afa158015612b17573d5f5f3e3d5ffd5b505050506040513d601f19601f82011682018060405250810190612b3b9190614c74565b155b8015612bdf575060025f9054906101000a900473ffffffffffffffffffffffffffffffffffffffff1673ffffffffffffffffffffffffffffffffffffffff1663c138c139336040518263ffffffff1660e01b8152600401612b9e9190614593565b602060405180830381865afa158015612bb9573d5f5f3e3d5ffd5b505050506040513d601f19601f82011682018060405250810190612bdd9190614c74565b155b15612c16576040517f19ca4b5e00000000000000000000000000000000000000000000000000000000815260040160405180910390fd5b5f5f5f90505b600580549050811015612e87575f60058281548110612c3e57612c3d614942565b5b905f5260205f20015f9054906101000a900473ffffffffffffffffffffffffffffffffffffffff169050612c71816134ef565b60045f8373ffffffffffffffffffffffffffffffffffffffff1673ffffffffffffffffffffffffffffffffffffffff1681526020019081526020015f2060050181905550612cbe81611dce565b60045f8373ffffffffffffffffffffffffffffffffffffffff1673ffffffffffffffffffffffffffffffffffffffff1681526020019081526020015f20600401819055505f73ffffffffffffffffffffffffffffffffffffffff168373ffffffffffffffffffffffffffffffffffffffff1614612e7957612d3f8382611452565b60075f8573ffffffffffffffffffffffffffffffffffffffff1673ffffffffffffffffffffffffffffffffffffffff1681526020019081526020015f205f8373ffffffffffffffffffffffffffffffffffffffff1673ffffffffffffffffffffffffffffffffffffffff1681526020019081526020015f208190555060045f8273ffffffffffffffffffffffffffffffffffffffff1673ffffffffffffffffffffffffffffffffffffffff1681526020019081526020015f206005015460065f8573ffffffffffffffffffffffffffffffffffffffff1673ffffffffffffffffffffffffffffffffffffffff1681526020019081526020015f205f8373ffffffffffffffffffffffffffffffffffffffff1673ffffffffffffffffffffffffffffffffffffffff1681526020019081526020015f20819055505b508080600101915050612c1c565b5060045f8473ffffffffffffffffffffffffffffffffffffffff1673ffffffffffffffffffffffffffffffffffffffff1681526020019081526020015f20600201544210612f645760045f8473ffffffffffffffffffffffffffffffffffffffff1673ffffffffffffffffffffffffffffffffffffffff1681526020019081526020015f206001015482612f1b9190614ae8565b60045f8573ffffffffffffffffffffffffffffffffffffffff1673ffffffffffffffffffffffffffffffffffffffff1681526020019081526020015f20600301819055506130a0565b5f4260045f8673ffffffffffffffffffffffffffffffffffffffff1673ffffffffffffffffffffffffffffffffffffffff1681526020019081526020015f2060020154612fb19190614b18565b90505f60045f8673ffffffffffffffffffffffffffffffffffffffff1673ffffffffffffffffffffffffffffffffffffffff1681526020019081526020015f2060030154826130009190614a7a565b905060045f8673ffffffffffffffffffffffffffffffffffffffff1673ffffffffffffffffffffffffffffffffffffffff1681526020019081526020015f2060010154818561304f9190614c2d565b6130599190614ae8565b60045f8773ffffffffffffffffffffffffffffffffffffffff1673ffffffffffffffffffffffffffffffffffffffff1681526020019081526020015f206003018190555050505b4260045f8573ffffffffffffffffffffffffffffffffffffffff1673ffffffffffffffffffffffffffffffffffffffff1681526020019081526020015f206004018190555060045f8473ffffffffffffffffffffffffffffffffffffffff1673ffffffffffffffffffffffffffffffffffffffff1681526020019081526020015f2060010154426131319190614c2d565b60045f8573ffffffffffffffffffffffffffffffffffffffff1673ffffffffffffffffffffffffffffffffffffffff1681526020019081526020015f20600201819055507fde88a922e0d3b88b24e9623efeb464919c6bf9f66857a65e2bfcf2ce87a9433d826040516131a49190614301565b60405180910390a1505050565b5f60045f8373ffffffffffffffffffffffffffffffffffffffff1673ffffffffffffffffffffffffffffffffffffffff1681526020019081526020015f206001015460045f8473ffffffffffffffffffffffffffffffffffffffff1673ffffffffffffffffffffffffffffffffffffffff1681526020019081526020015f206003015461323e9190614a7a565b9050919050565b60015f9054906101000a900473ffffffffffffffffffffffffffffffffffffffff1681565b60025f9054906101000a900473ffffffffffffffffffffffffffffffffffffffff1681565b6007602052815f5260405f20602052805f5260405f205f91509150505481565b5f5f90505b6005805490508110156134eb575f600582815481106132d6576132d5614942565b5b905f5260205f20015f9054906101000a900473ffffffffffffffffffffffffffffffffffffffff169050613309816134ef565b60045f8373ffffffffffffffffffffffffffffffffffffffff1673ffffffffffffffffffffffffffffffffffffffff1681526020019081526020015f206005018190555061335681611dce565b60045f8373ffffffffffffffffffffffffffffffffffffffff1673ffffffffffffffffffffffffffffffffffffffff1681526020019081526020015f20600401819055506133a48382611452565b60075f8573ffffffffffffffffffffffffffffffffffffffff1673ffffffffffffffffffffffffffffffffffffffff1681526020019081526020015f205f8373ffffffffffffffffffffffffffffffffffffffff1673ffffffffffffffffffffffffffffffffffffffff1681526020019081526020015f208190555060045f8273ffffffffffffffffffffffffffffffffffffffff1673ffffffffffffffffffffffffffffffffffffffff1681526020019081526020015f206005015460065f8573ffffffffffffffffffffffffffffffffffffffff1673ffffffffffffffffffffffffffffffffffffffff1681526020019081526020015f205f8373ffffffffffffffffffffffffffffffffffffffff1673ffffffffffffffffffffffffffffffffffffffff1681526020019081526020015f20819055505080806001019150506132b4565b5050565b5f5f7f000000000000000000000000000000000000000000000000000000000000000073ffffffffffffffffffffffffffffffffffffffff166318160ddd6040518163ffffffff1660e01b8152600401602060405180830381865afa15801561355a573d5f5f3e3d5ffd5b505050506040513d601f19601f8201168201806040525081019061357e9190614bcd565b036135cb5760045f8373ffffffffffffffffffffffffffffffffffffffff1673ffffffffffffffffffffffffffffffffffffffff1681526020019081526020015f20600501549050613762565b7f000000000000000000000000000000000000000000000000000000000000000073ffffffffffffffffffffffffffffffffffffffff166318160ddd6040518163ffffffff1660e01b8152600401602060405180830381865afa158015613634573d5f5f3e3d5ffd5b505050506040513d601f19601f820116820180604052508101906136589190614bcd565b670de0b6b3a764000060045f8573ffffffffffffffffffffffffffffffffffffffff1673ffffffffffffffffffffffffffffffffffffffff1681526020019081526020015f206003015460045f8673ffffffffffffffffffffffffffffffffffffffff1673ffffffffffffffffffffffffffffffffffffffff1681526020019081526020015f20600401546136ec86611dce565b6136f69190614b18565b6137009190614a7a565b61370a9190614a7a565b6137149190614ae8565b60045f8473ffffffffffffffffffffffffffffffffffffffff1673ffffffffffffffffffffffffffffffffffffffff1681526020019081526020015f206005015461375f9190614c2d565b90505b919050565b613794335f357fffffffff00000000000000000000000000000000000000000000000000000000166139f9565b6137d3576040517f08c379a00000000000000000000000000000000000000000000000000000000081526004016137ca906149c9565b60405180910390fd5b805f5f6101000a81548173ffffffffffffffffffffffffffffffffffffffff021916908373ffffffffffffffffffffffffffffffffffffffff1602179055508073ffffffffffffffffffffffffffffffffffffffff163373ffffffffffffffffffffffffffffffffffffffff167f8be0079c531659141344cd1fd0a4f28419497f9722a3daafe3b4186f6b6457e060405160405180910390a350565b606061389e335f357fffffffff00000000000000000000000000000000000000000000000000000000166139f9565b6138dd576040517f08c379a00000000000000000000000000000000000000000000000000000000081526004016138d4906149c9565b60405180910390fd5b600260149054906101000a900460ff1615613924576040517fe3763d9700000000000000000000000000000000000000000000000000000000815260040160405180910390fd5b815167ffffffffffffffff81111561393f5761393e6146be565b5b60405190808252806020026020018201604052801561396d5781602001602082028036833780820191505090505b5090505f5f90505b82518110156139cf576139a33384838151811061399557613994614942565b5b602002602001015133613ca0565b8282815181106139b6576139b5614942565b5b6020026020010181815250508080600101915050613975565b50919050565b7f000000000000000000000000000000000000000000000000000000000000000081565b5f5f60015f9054906101000a900473ffffffffffffffffffffffffffffffffffffffff1690505f73ffffffffffffffffffffffffffffffffffffffff168173ffffffffffffffffffffffffffffffffffffffff1614158015613ad357508073ffffffffffffffffffffffffffffffffffffffff1663b70096138530866040518463ffffffff1660e01b8152600401613a9393929190614d00565b602060405180830381865afa158015613aae573d5f5f3e3d5ffd5b505050506040513d601f19601f82011682018060405250810190613ad29190614c74565b5b80613b2957505f5f9054906101000a900473ffffffffffffffffffffffffffffffffffffffff1673ffffffffffffffffffffffffffffffffffffffff168473ffffffffffffffffffffffffffffffffffffffff16145b91505092915050565b5f6040517fa9059cbb00000000000000000000000000000000000000000000000000000000815273ffffffffffffffffffffffffffffffffffffffff8416600482015282602482015260205f6044835f895af1915081601f3d1160015f511416151615613ba2573d853b15171591505b5080613be3576040517f08c379a0000000000000000000000000000000000000000000000000000000008152600401613bda90614d7f565b60405180910390fd5b50505050565b5f6040517f095ea7b300000000000000000000000000000000000000000000000000000000815273ffffffffffffffffffffffffffffffffffffffff8416600482015282602482015260205f6044835f895af1915081601f3d1160015f511416151615613c59573d853b15171591505b5080613c9a576040517f08c379a0000000000000000000000000000000000000000000000000000000008152600401613c9190614de7565b60405180910390fd5b50505050565b5f835f5f90505b600580549050811015613f12575f60058281548110613cc957613cc8614942565b5b905f5260205f20015f9054906101000a900473ffffffffffffffffffffffffffffffffffffffff169050613cfc816134ef565b60045f8373ffffffffffffffffffffffffffffffffffffffff1673ffffffffffffffffffffffffffffffffffffffff1681526020019081526020015f2060050181905550613d4981611dce565b60045f8373ffffffffffffffffffffffffffffffffffffffff1673ffffffffffffffffffffffffffffffffffffffff1681526020019081526020015f20600401819055505f73ffffffffffffffffffffffffffffffffffffffff168373ffffffffffffffffffffffffffffffffffffffff1614613f0457613dca8382611452565b60075f8573ffffffffffffffffffffffffffffffffffffffff1673ffffffffffffffffffffffffffffffffffffffff1681526020019081526020015f205f8373ffffffffffffffffffffffffffffffffffffffff1673ffffffffffffffffffffffffffffffffffffffff1681526020019081526020015f208190555060045f8273ffffffffffffffffffffffffffffffffffffffff1673ffffffffffffffffffffffffffffffffffffffff1681526020019081526020015f206005015460065f8573ffffffffffffffffffffffffffffffffffffffff1673ffffffffffffffffffffffffffffffffffffffff1681526020019081526020015f205f8373ffffffffffffffffffffffffffffffffffffffff1673ffffffffffffffffffffffffffffffffffffffff1681526020019081526020015f20819055505b508080600101915050613ca7565b5060075f8673ffffffffffffffffffffffffffffffffffffffff1673ffffffffffffffffffffffffffffffffffffffff1681526020019081526020015f205f8573ffffffffffffffffffffffffffffffffffffffff1673ffffffffffffffffffffffffffffffffffffffff1681526020019081526020015f205491505f8211156140a6575f60075f8773ffffffffffffffffffffffffffffffffffffffff1673ffffffffffffffffffffffffffffffffffffffff1681526020019081526020015f205f8673ffffffffffffffffffffffffffffffffffffffff1673ffffffffffffffffffffffffffffffffffffffff1681526020019081526020015f208190555061403e83838673ffffffffffffffffffffffffffffffffffffffff16613b329092919063ffffffff16565b8373ffffffffffffffffffffffffffffffffffffffff168573ffffffffffffffffffffffffffffffffffffffff167f7fe1dfb5fd2a01640e1b559e082ce63e369d4d61e01dc0caec9521e55a8d1e4f848660405161409d929190614e05565b60405180910390a35b509392505050565b6040518060c001604052805f73ffffffffffffffffffffffffffffffffffffffff1681526020015f81526020015f81526020015f81526020015f81526020015f81525090565b5f604051905090565b5f5ffd5b5f5ffd5b5f73ffffffffffffffffffffffffffffffffffffffff82169050919050565b5f61412e82614105565b9050919050565b61413e81614124565b8114614148575f5ffd5b50565b5f8135905061415981614135565b92915050565b5f60208284031215614174576141736140fd565b5b5f6141818482850161414b565b91505092915050565b5f81519050919050565b5f82825260208201905092915050565b5f819050602082019050919050565b6141bc81614124565b82525050565b5f819050919050565b6141d4816141c2565b82525050565b60c082015f8201516141ee5f8501826141b3565b50602082015161420160208501826141cb565b50604082015161421460408501826141cb565b50606082015161422760608501826141cb565b50608082015161423a60808501826141cb565b5060a082015161424d60a08501826141cb565b50505050565b5f61425e83836141da565b60c08301905092915050565b5f602082019050919050565b5f6142808261418a565b61428a8185614194565b9350614295836141a4565b805f5b838110156142c55781516142ac8882614253565b97506142b78361426a565b925050600181019050614298565b5085935050505092915050565b5f6020820190508181035f8301526142ea8184614276565b905092915050565b6142fb816141c2565b82525050565b5f6020820190506143145f8301846142f2565b92915050565b5f8115159050919050565b61432e8161431a565b8114614338575f5ffd5b50565b5f8135905061434981614325565b92915050565b5f60208284031215614364576143636140fd565b5b5f6143718482850161433b565b91505092915050565b5f5f604083850312156143905761438f6140fd565b5b5f61439d8582860161414b565b92505060206143ae8582860161414b565b9150509250929050565b6143c1816141c2565b81146143cb575f5ffd5b50565b5f813590506143dc816143b8565b92915050565b5f5f604083850312156143f8576143f76140fd565b5b5f6144058582860161414b565b9250506020614416858286016143ce565b9150509250929050565b5f60208284031215614435576144346140fd565b5b5f614442848285016143ce565b91505092915050565b61445481614124565b82525050565b5f60c08201905061446d5f83018961444b565b61447a60208301886142f2565b61448760408301876142f2565b61449460608301866142f2565b6144a160808301856142f2565b6144ae60a08301846142f2565b979650505050505050565b5f819050919050565b5f6144dc6144d76144d284614105565b6144b9565b614105565b9050919050565b5f6144ed826144c2565b9050919050565b5f6144fe826144e3565b9050919050565b61450e816144f4565b82525050565b5f6020820190506145275f830184614505565b92915050565b5f61453782614124565b9050919050565b6145478161452d565b8114614551575f5ffd5b50565b5f813590506145628161453e565b92915050565b5f6020828403121561457d5761457c6140fd565b5b5f61458a84828501614554565b91505092915050565b5f6020820190506145a65f83018461444b565b92915050565b5f5f5f5f608085870312156145c4576145c36140fd565b5b5f6145d18782880161414b565b94505060206145e28782880161414b565b93505060406145f3878288016143ce565b92505060606146048782880161414b565b91505092959194509250565b6146198161431a565b82525050565b5f6020820190506146325f830184614610565b92915050565b5f614642826144e3565b9050919050565b61465281614638565b82525050565b5f60208201905061466b5f830184614649565b92915050565b5f61467b826144e3565b9050919050565b61468b81614671565b82525050565b5f6020820190506146a45f830184614682565b92915050565b5f5ffd5b5f601f19601f8301169050919050565b7f4e487b71000000000000000000000000000000000000000000000000000000005f52604160045260245ffd5b6146f4826146ae565b810181811067ffffffffffffffff82111715614713576147126146be565b5b80604052505050565b5f6147256140f4565b905061473182826146eb565b919050565b5f67ffffffffffffffff8211156147505761474f6146be565b5b602082029050602081019050919050565b5f5ffd5b5f61477761477284614736565b61471c565b9050808382526020820190506020840283018581111561479a57614799614761565b5b835b818110156147c357806147af888261414b565b84526020840193505060208101905061479c565b5050509392505050565b5f82601f8301126147e1576147e06146aa565b5b81356147f1848260208601614765565b91505092915050565b5f6020828403121561480f5761480e6140fd565b5b5f82013567ffffffffffffffff81111561482c5761482b614101565b5b614838848285016147cd565b91505092915050565b5f81519050919050565b5f82825260208201905092915050565b5f819050602082019050919050565b5f61487583836141cb565b60208301905092915050565b5f602082019050919050565b5f61489782614841565b6148a1818561484b565b93506148ac8361485b565b805f5b838110156148dc5781516148c3888261486a565b97506148ce83614881565b9250506001810190506148af565b5085935050505092915050565b5f6020820190508181035f830152614901818461488d565b905092915050565b5f614913826144e3565b9050919050565b61492381614909565b82525050565b5f60208201905061493c5f83018461491a565b92915050565b7f4e487b71000000000000000000000000000000000000000000000000000000005f52603260045260245ffd5b5f82825260208201905092915050565b7f554e415554484f52495a454400000000000000000000000000000000000000005f82015250565b5f6149b3600c8361496f565b91506149be8261497f565b602082019050919050565b5f6020820190508181035f8301526149e0816149a7565b9050919050565b5f6149f182614124565b9050919050565b614a01816149e7565b8114614a0b575f5ffd5b50565b5f81519050614a1c816149f8565b92915050565b5f60208284031215614a3757614a366140fd565b5b5f614a4484828501614a0e565b91505092915050565b7f4e487b71000000000000000000000000000000000000000000000000000000005f52601160045260245ffd5b5f614a84826141c2565b9150614a8f836141c2565b9250828202614a9d816141c2565b91508282048414831517614ab457614ab3614a4d565b5b5092915050565b7f4e487b71000000000000000000000000000000000000000000000000000000005f52601260045260245ffd5b5f614af2826141c2565b9150614afd836141c2565b925082614b0d57614b0c614abb565b5b828204905092915050565b5f614b22826141c2565b9150614b2d836141c2565b9250828203905081811115614b4557614b44614a4d565b5b92915050565b5f819050919050565b5f614b6e614b69614b6484614b4b565b6144b9565b6141c2565b9050919050565b614b7e81614b54565b82525050565b5f606082019050614b975f8301866142f2565b614ba46020830185614b75565b614bb1604083018461444b565b949350505050565b5f81519050614bc7816143b8565b92915050565b5f60208284031215614be257614be16140fd565b5b5f614bef84828501614bb9565b91505092915050565b5f606082019050614c0b5f8301866142f2565b614c1860208301856142f2565b614c2560408301846142f2565b949350505050565b5f614c37826141c2565b9150614c42836141c2565b9250828201905080821115614c5a57614c59614a4d565b5b92915050565b5f81519050614c6e81614325565b92915050565b5f60208284031215614c8957614c886140fd565b5b5f614c9684828501614c60565b91505092915050565b5f604082019050614cb25f83018561444b565b614cbf60208301846142f2565b9392505050565b5f7fffffffff0000000000000000000000000000000000000000000000000000000082169050919050565b614cfa81614cc6565b82525050565b5f606082019050614d135f83018661444b565b614d20602083018561444b565b614d2d6040830184614cf1565b949350505050565b7f5452414e534645525f4641494c454400000000000000000000000000000000005f82015250565b5f614d69600f8361496f565b9150614d7482614d35565b602082019050919050565b5f6020820190508181035f830152614d9681614d5d565b9050919050565b7f415050524f56455f4641494c45440000000000000000000000000000000000005f82015250565b5f614dd1600e8361496f565b9150614ddc82614d9d565b602082019050919050565b5f6020820190508181035f830152614dfe81614dc5565b9050919050565b5f604082019050614e185f8301856142f2565b614e25602083018461444b565b939250505056fea2646970667358221220e7ed0b635f35744b6d03aa639da237d961269027687616e287237656c3af937264736f6c634300081e0033",
  "linkReferences": {},
  "deployedLinkReferences": {},
  "immutableReferences": {
    "11479": [
      {
        "length": 32,
        "start": 2548
      },
      {
        "length": 32,
        "start": 3309
      },
      {
        "length": 32,
        "start": 4092
      },
      {
        "length": 32,
        "start": 4626
      },
      {
        "length": 32,
        "start": 5475
      },
      {
        "length": 32,
        "start": 7816
      },
      {
        "length": 32,
        "start": 13555
      },
      {
        "length": 32,
        "start": 13773
      },
      {
        "length": 32,
        "start": 14807
      }
    ],
    "11482": [
      {
        "length": 32,
        "start": 3382
      },
      {
        "length": 32,
        "start": 7596
      }
    ]
  },
  "inputSourceName": "project/contracts/core/Distributor.sol",
  "buildInfoId": "solc-0_8_30-c343951cd4ea2dd0f437bcf4da6c38bb2f2936dc"
}