{
  "_format": "hh3-artifact-1",
  "contractName": "ManagerWithMerkleVerification",
  "sourceName": "contracts/core/ManagerWithMerkleVerification.sol",
  "abi": [
    {
      "inputs": [
        {
          "internalType": "address",
          "name": "_primeRBAC",
          "type": "address"
        },
        {
          "internalType": "address",
          "name": "_vault",
          "type": "address"
        }
      ],
      "stateMutability": "nonpayable",
      "type": "constructor"
    },
    {
      "inputs": [
        {
          "internalType": "address",
          "name": "target",
          "type": "address"
        }
      ],
      "name": "AddressEmptyCode",
      "type": "error"
    },
    {
      "inputs": [],
      "name": "FailedCall",
      "type": "error"
    },
    {
      "inputs": [
        {
          "internalType": "address",
          "name": "target",
          "type": "address"
        },
        {
          "internalType": "bytes",
          "name": "targetData",
          "type": "bytes"
        },
        {
          "internalType": "uint256",
          "name": "value",
          "type": "uint256"
        }
      ],
      "name": "ManagerWithMerkleVerification__FailedToVerifyManageProof",
      "type": "error"
    },
    {
      "inputs": [],
      "name": "ManagerWithMerkleVerification__FlashLoanNotInProgress",
      "type": "error"
    },
    {
      "inputs": [],
      "name": "ManagerWithMerkleVerification__InvalidDecoderAndSanitizer",
      "type": "error"
    },
    {
      "inputs": [],
      "name": "ManagerWithMerkleVerification__InvalidDecodersAndSanitizersLength",
      "type": "error"
    },
    {
      "inputs": [],
      "name": "ManagerWithMerkleVerification__InvalidManageProofLength",
      "type": "error"
    },
    {
      "inputs": [],
      "name": "ManagerWithMerkleVerification__InvalidTarget",
      "type": "error"
    },
    {
      "inputs": [],
      "name": "ManagerWithMerkleVerification__InvalidTargetDataLength",
      "type": "error"
    },
    {
      "inputs": [],
      "name": "ManagerWithMerkleVerification__InvalidValuesLength",
      "type": "error"
    },
    {
      "inputs": [],
      "name": "ManagerWithMerkleVerification__OnlyCallableByBoringVault",
      "type": "error"
    },
    {
      "inputs": [],
      "name": "ManagerWithMerkleVerification__Paused",
      "type": "error"
    },
    {
      "inputs": [],
      "name": "ManagerWithMerkleVerification__TotalSupplyMustRemainConstant",
      "type": "error"
    },
    {
      "inputs": [],
      "name": "ManagerWithMerkleVerification__TotalSupplyMustRemainConstantDuringPlatform",
      "type": "error"
    },
    {
      "inputs": [],
      "name": "NOT_PROTOCOL_ADMIN",
      "type": "error"
    },
    {
      "inputs": [],
      "name": "ZERO_ADDRESS",
      "type": "error"
    },
    {
      "anonymous": false,
      "inputs": [
        {
          "indexed": true,
          "internalType": "address",
          "name": "user",
          "type": "address"
        },
        {
          "indexed": true,
          "internalType": "contract Authority",
          "name": "newAuthority",
          "type": "address"
        }
      ],
      "name": "AuthorityUpdated",
      "type": "event"
    },
    {
      "anonymous": false,
      "inputs": [
        {
          "indexed": false,
          "internalType": "uint256",
          "name": "callsMade",
          "type": "uint256"
        }
      ],
      "name": "BoringVaultManaged",
      "type": "event"
    },
    {
      "anonymous": false,
      "inputs": [
        {
          "indexed": true,
          "internalType": "address",
          "name": "strategist",
          "type": "address"
        },
        {
          "indexed": false,
          "internalType": "bytes32",
          "name": "oldRoot",
          "type": "bytes32"
        },
        {
          "indexed": false,
          "internalType": "bytes32",
          "name": "newRoot",
          "type": "bytes32"
        }
      ],
      "name": "ManageRootUpdated",
      "type": "event"
    },
    {
      "anonymous": false,
      "inputs": [
        {
          "indexed": true,
          "internalType": "address",
          "name": "user",
          "type": "address"
        },
        {
          "indexed": true,
          "internalType": "address",
          "name": "newOwner",
          "type": "address"
        }
      ],
      "name": "OwnershipTransferred",
      "type": "event"
    },
    {
      "anonymous": false,
      "inputs": [],
      "name": "Paused",
      "type": "event"
    },
    {
      "anonymous": false,
      "inputs": [],
      "name": "Unpaused",
      "type": "event"
    },
    {
      "inputs": [],
      "name": "authority",
      "outputs": [
        {
          "internalType": "contract Authority",
          "name": "",
          "type": "address"
        }
      ],
      "stateMutability": "view",
      "type": "function"
    },
    {
      "inputs": [],
      "name": "isPaused",
      "outputs": [
        {
          "internalType": "bool",
          "name": "",
          "type": "bool"
        }
      ],
      "stateMutability": "view",
      "type": "function"
    },
    {
      "inputs": [
        {
          "internalType": "address",
          "name": "",
          "type": "address"
        }
      ],
      "name": "manageRoot",
      "outputs": [
        {
          "internalType": "bytes32",
          "name": "",
          "type": "bytes32"
        }
      ],
      "stateMutability": "view",
      "type": "function"
    },
    {
      "inputs": [
        {
          "internalType": "bytes32[][]",
          "name": "manageProofs",
          "type": "bytes32[][]"
        },
        {
          "internalType": "address[]",
          "name": "decodersAndSanitizers",
          "type": "address[]"
        },
        {
          "internalType": "address[]",
          "name": "targets",
          "type": "address[]"
        },
        {
          "internalType": "bytes[]",
          "name": "targetData",
          "type": "bytes[]"
        },
        {
          "internalType": "uint256[]",
          "name": "values",
          "type": "uint256[]"
        }
      ],
      "name": "manageVaultWithMerkleVerification",
      "outputs": [],
      "stateMutability": "nonpayable",
      "type": "function"
    },
    {
      "inputs": [],
      "name": "owner",
      "outputs": [
        {
          "internalType": "address",
          "name": "",
          "type": "address"
        }
      ],
      "stateMutability": "view",
      "type": "function"
    },
    {
      "inputs": [],
      "name": "pause",
      "outputs": [],
      "stateMutability": "nonpayable",
      "type": "function"
    },
    {
      "inputs": [],
      "name": "primeRBAC",
      "outputs": [
        {
          "internalType": "contract IPrimeRBAC",
          "name": "",
          "type": "address"
        }
      ],
      "stateMutability": "view",
      "type": "function"
    },
    {
      "inputs": [
        {
          "internalType": "contract Authority",
          "name": "newAuthority",
          "type": "address"
        }
      ],
      "name": "setAuthority",
      "outputs": [],
      "stateMutability": "nonpayable",
      "type": "function"
    },
    {
      "inputs": [
        {
          "internalType": "address",
          "name": "strategist",
          "type": "address"
        },
        {
          "internalType": "bytes32",
          "name": "_manageRoot",
          "type": "bytes32"
        }
      ],
      "name": "setManageRoot",
      "outputs": [],
      "stateMutability": "nonpayable",
      "type": "function"
    },
    {
      "inputs": [
        {
          "internalType": "address",
          "name": "newOwner",
          "type": "address"
        }
      ],
      "name": "transferOwnership",
      "outputs": [],
      "stateMutability": "nonpayable",
      "type": "function"
    },
    {
      "inputs": [],
      "name": "unpause",
      "outputs": [],
      "stateMutability": "nonpayable",
      "type": "function"
    },
    {
      "inputs": [],
      "name": "vault",
      "outputs": [
        {
          "internalType": "contract BoringVault",
          "name": "",
          "type": "address"
        }
      ],
      "stateMutability": "view",
      "type": "function"
    }
  ],
  "bytecode": "0x60a060405234801561000f575f5ffd5b506040516123473803806123478339818101604052810190610031919061034d565b818173ffffffffffffffffffffffffffffffffffffffff1663bf7e214f6040518163ffffffff1660e01b8152600401602060405180830381865afa15801561007b573d5f5f3e3d5ffd5b505050506040513d601f19601f8201168201806040525081019061009f91906103c6565b3381815f5f6101000a81548173ffffffffffffffffffffffffffffffffffffffff021916908373ffffffffffffffffffffffffffffffffffffffff1602179055508060015f6101000a81548173ffffffffffffffffffffffffffffffffffffffff021916908373ffffffffffffffffffffffffffffffffffffffff1602179055508173ffffffffffffffffffffffffffffffffffffffff163373ffffffffffffffffffffffffffffffffffffffff167f8be0079c531659141344cd1fd0a4f28419497f9722a3daafe3b4186f6b6457e060405160405180910390a38073ffffffffffffffffffffffffffffffffffffffff163373ffffffffffffffffffffffffffffffffffffffff167fa3396fd7f6e0a21b50e5089d2da70d5ac0a3bbbd1f617a93f134b7638998019860405160405180910390a350505f73ffffffffffffffffffffffffffffffffffffffff168273ffffffffffffffffffffffffffffffffffffffff16148061023b57505f73ffffffffffffffffffffffffffffffffffffffff168173ffffffffffffffffffffffffffffffffffffffff16145b15610272576040517f538ba4f900000000000000000000000000000000000000000000000000000000815260040160405180910390fd5b8160025f6101000a81548173ffffffffffffffffffffffffffffffffffffffff021916908373ffffffffffffffffffffffffffffffffffffffff16021790555050508073ffffffffffffffffffffffffffffffffffffffff1660808173ffffffffffffffffffffffffffffffffffffffff168152505050506103f1565b5f5ffd5b5f73ffffffffffffffffffffffffffffffffffffffff82169050919050565b5f61031c826102f3565b9050919050565b61032c81610312565b8114610336575f5ffd5b50565b5f8151905061034781610323565b92915050565b5f5f60408385031215610363576103626102ef565b5b5f61037085828601610339565b925050602061038185828601610339565b9150509250929050565b5f61039582610312565b9050919050565b6103a58161038b565b81146103af575f5ffd5b50565b5f815190506103c08161039c565b92915050565b5f602082840312156103db576103da6102ef565b5b5f6103e8848285016103b2565b91505092915050565b608051611f2961041e5f395f8181610595015281816106eb015281816107fd0152610e900152611f295ff3fe608060405234801561000f575f5ffd5b50600436106100b2575f3560e01c80638da5cb5b1161006f5780638da5cb5b1461014e578063b187bd261461016c578063bf7e214f1461018a578063e37d7e68146101a8578063f2fde38b146101c6578063fbfa77cf146101e2576100b2565b806321801a99146100b6578063244b0f6a146100d25780633f4ba83a146100ee5780635ca58a99146100f85780637a9e5e4b146101285780638456cb5914610144575b5f5ffd5b6100d060048036038101906100cb9190611374565b610200565b005b6100ec60048036038101906100e79190611512565b6103a7565b005b6100f6610906565b005b610112600480360381019061010d9190611629565b610a1d565b60405161011f9190611663565b60405180910390f35b610142600480360381019061013d91906116b7565b610a32565b005b61014c610bed565b005b610156610d05565b60405161016391906116f1565b60405180910390f35b610174610d29565b6040516101819190611724565b60405180910390f35b610192610d3c565b60405161019f9190611798565b60405180910390f35b6101b0610d61565b6040516101bd91906117d1565b60405180910390f35b6101e060048036038101906101db9190611629565b610d86565b005b6101ea610e8e565b6040516101f7919061181b565b60405180910390f35b60025f9054906101000a900473ffffffffffffffffffffffffffffffffffffffff1673ffffffffffffffffffffffffffffffffffffffff1663d35911f2336040518263ffffffff1660e01b815260040161025a91906116f1565b602060405180830381865afa158015610275573d5f5f3e3d5ffd5b505050506040513d601f19601f82011682018060405250810190610299919061185e565b6102cf576040517fdc85555400000000000000000000000000000000000000000000000000000000815260040160405180910390fd5b5f60035f8473ffffffffffffffffffffffffffffffffffffffff1673ffffffffffffffffffffffffffffffffffffffff1681526020019081526020015f205490508160035f8573ffffffffffffffffffffffffffffffffffffffff1673ffffffffffffffffffffffffffffffffffffffff1681526020019081526020015f20819055508273ffffffffffffffffffffffffffffffffffffffff167f0b958dec85f1470000479dfb22c365829411f52bcde602d24ea0abf5ac7e8860828460405161039a929190611889565b60405180910390a2505050565b6103d4335f357fffffffff0000000000000000000000000000000000000000000000000000000016610eb2565b610413576040517f08c379a000000000000000000000000000000000000000000000000000000000815260040161040a9061190a565b60405180910390fd5b600260149054906101000a900460ff161561045a576040517fdbd8cb2800000000000000000000000000000000000000000000000000000000815260040160405180910390fd5b5f8686905090508a8a9050811461049d576040517f29c70cf000000000000000000000000000000000000000000000000000000000815260040160405180910390fd5b8484905081146104d9576040517f581ddbfd00000000000000000000000000000000000000000000000000000000815260040160405180910390fd5b828290508114610515576040517fe9fd1adf00000000000000000000000000000000000000000000000000000000815260040160405180910390fd5b888890508114610551576040517fda6c126800000000000000000000000000000000000000000000000000000000815260040160405180910390fd5b5f60035f3373ffffffffffffffffffffffffffffffffffffffff1673ffffffffffffffffffffffffffffffffffffffff1681526020019081526020015f205490505f7f000000000000000000000000000000000000000000000000000000000000000073ffffffffffffffffffffffffffffffffffffffff166318160ddd6040518163ffffffff1660e01b8152600401602060405180830381865afa1580156105fc573d5f5f3e3d5ffd5b505050506040513d601f19601f82011682018060405250810190610620919061195b565b90505f5b838110156107fa576106e9838f8f8481811061064357610642611986565b5b905060200281019061065591906119bf565b8f8f8681811061066857610667611986565b5b905060200201602081019061067d9190611629565b8e8e878181106106905761068f611986565b5b90506020020160208101906106a59190611629565b8b8b888181106106b8576106b7611986565b5b905060200201358e8e898181106106d2576106d1611986565b5b90506020028101906106e49190611a21565b610feb565b7f000000000000000000000000000000000000000000000000000000000000000073ffffffffffffffffffffffffffffffffffffffff1663f6e715d08b8b8481811061073857610737611986565b5b905060200201602081019061074d9190611629565b8a8a858181106107605761075f611986565b5b90506020028101906107729190611a21565b8a8a8781811061078557610784611986565b5b905060200201356040518563ffffffff1660e01b81526004016107ab9493929190611aec565b5f604051808303815f875af11580156107c6573d5f5f3e3d5ffd5b505050506040513d5f823e3d601f19601f820116820180604052508101906107ee9190611c52565b50806001019050610624565b507f000000000000000000000000000000000000000000000000000000000000000073ffffffffffffffffffffffffffffffffffffffff166318160ddd6040518163ffffffff1660e01b8152600401602060405180830381865afa158015610864573d5f5f3e3d5ffd5b505050506040513d601f19601f82011682018060405250810190610888919061195b565b81146108c0576040517f0ecee17500000000000000000000000000000000000000000000000000000000815260040160405180910390fd5b7f53d426e7d80bb2c8674d3b45577e2d464d423faad6531b21f95ac11ac18b1cb6836040516108ef9190611c99565b60405180910390a150505050505050505050505050565b60025f9054906101000a900473ffffffffffffffffffffffffffffffffffffffff1673ffffffffffffffffffffffffffffffffffffffff1663d35911f2336040518263ffffffff1660e01b815260040161096091906116f1565b602060405180830381865afa15801561097b573d5f5f3e3d5ffd5b505050506040513d601f19601f8201168201806040525081019061099f919061185e565b6109d5576040517fdc85555400000000000000000000000000000000000000000000000000000000815260040160405180910390fd5b5f600260146101000a81548160ff0219169083151502179055507fa45f47fdea8a1efdd9029a5691c7f759c32b7c698632b563573e155625d1693360405160405180910390a1565b6003602052805f5260405f205f915090505481565b5f5f9054906101000a900473ffffffffffffffffffffffffffffffffffffffff1673ffffffffffffffffffffffffffffffffffffffff163373ffffffffffffffffffffffffffffffffffffffff161480610b48575060015f9054906101000a900473ffffffffffffffffffffffffffffffffffffffff1673ffffffffffffffffffffffffffffffffffffffff1663b700961333305f357fffffffff00000000000000000000000000000000000000000000000000000000166040518463ffffffff1660e01b8152600401610b0893929190611cec565b602060405180830381865afa158015610b23573d5f5f3e3d5ffd5b505050506040513d601f19601f82011682018060405250810190610b47919061185e565b5b610b50575f5ffd5b8060015f6101000a81548173ffffffffffffffffffffffffffffffffffffffff021916908373ffffffffffffffffffffffffffffffffffffffff1602179055508073ffffffffffffffffffffffffffffffffffffffff163373ffffffffffffffffffffffffffffffffffffffff167fa3396fd7f6e0a21b50e5089d2da70d5ac0a3bbbd1f617a93f134b7638998019860405160405180910390a350565b60025f9054906101000a900473ffffffffffffffffffffffffffffffffffffffff1673ffffffffffffffffffffffffffffffffffffffff1663d35911f2336040518263ffffffff1660e01b8152600401610c4791906116f1565b602060405180830381865afa158015610c62573d5f5f3e3d5ffd5b505050506040513d601f19601f82011682018060405250810190610c86919061185e565b610cbc576040517fdc85555400000000000000000000000000000000000000000000000000000000815260040160405180910390fd5b6001600260146101000a81548160ff0219169083151502179055507f9e87fac88ff661f02d44f95383c817fece4bce600a3dab7a54406878b965e75260405160405180910390a1565b5f5f9054906101000a900473ffffffffffffffffffffffffffffffffffffffff1681565b600260149054906101000a900460ff1681565b60015f9054906101000a900473ffffffffffffffffffffffffffffffffffffffff1681565b60025f9054906101000a900473ffffffffffffffffffffffffffffffffffffffff1681565b610db3335f357fffffffff0000000000000000000000000000000000000000000000000000000016610eb2565b610df2576040517f08c379a0000000000000000000000000000000000000000000000000000000008152600401610de99061190a565b60405180910390fd5b805f5f6101000a81548173ffffffffffffffffffffffffffffffffffffffff021916908373ffffffffffffffffffffffffffffffffffffffff1602179055508073ffffffffffffffffffffffffffffffffffffffff163373ffffffffffffffffffffffffffffffffffffffff167f8be0079c531659141344cd1fd0a4f28419497f9722a3daafe3b4186f6b6457e060405160405180910390a350565b7f000000000000000000000000000000000000000000000000000000000000000081565b5f5f60015f9054906101000a900473ffffffffffffffffffffffffffffffffffffffff1690505f73ffffffffffffffffffffffffffffffffffffffff168173ffffffffffffffffffffffffffffffffffffffff1614158015610f8c57508073ffffffffffffffffffffffffffffffffffffffff1663b70096138530866040518463ffffffff1660e01b8152600401610f4c93929190611cec565b602060405180830381865afa158015610f67573d5f5f3e3d5ffd5b505050506040513d601f19601f82011682018060405250810190610f8b919061185e565b5b80610fe257505f5f9054906101000a900473ffffffffffffffffffffffffffffffffffffffff1673ffffffffffffffffffffffffffffffffffffffff168473ffffffffffffffffffffffffffffffffffffffff16145b91505092915050565b5f61105883838080601f0160208091040260200160405190810160405280939291908181526020018383808284375f81840152601f19601f820116905080830192505050505050508773ffffffffffffffffffffffffffffffffffffffff166110db90919063ffffffff16565b80602001905181019061106b9190611c52565b9050611089898989888a898989906110839190611d37565b8861115b565b6110d057848383866040517fc0dcd1a70000000000000000000000000000000000000000000000000000000081526004016110c79493929190611aec565b60405180910390fd5b505050505050505050565b60605f5f8473ffffffffffffffffffffffffffffffffffffffff16846040516111049190611dd9565b5f60405180830381855afa9150503d805f811461113c576040519150601f19603f3d011682016040523d82523d5f602084013e611141565b606091505b50915091506111518583836111b0565b9250505092915050565b5f5f5f851190505f868883878760405160200161117c959493929190611e99565b6040516020818303038152906040528051906020012090506111a08a8a8d8461123d565b9250505098975050505050505050565b6060826111c5576111c082611293565b611235565b5f82511480156111eb57505f8473ffffffffffffffffffffffffffffffffffffffff163b145b1561122d57836040517f9996b31500000000000000000000000000000000000000000000000000000000815260040161122491906116f1565b60405180910390fd5b819050611236565b5b9392505050565b5f8315611286578360051b8501855b600115611283578035841160051b8481528135602082185260405f20945060208201915082821061127d5750611283565b5061124c565b50505b8282149050949350505050565b5f815111156112a457805160208201fd5b6040517fd6bda27500000000000000000000000000000000000000000000000000000000815260040160405180910390fd5b5f604051905090565b5f5ffd5b5f5ffd5b5f73ffffffffffffffffffffffffffffffffffffffff82169050919050565b5f611310826112e7565b9050919050565b61132081611306565b811461132a575f5ffd5b50565b5f8135905061133b81611317565b92915050565b5f819050919050565b61135381611341565b811461135d575f5ffd5b50565b5f8135905061136e8161134a565b92915050565b5f5f6040838503121561138a576113896112df565b5b5f6113978582860161132d565b92505060206113a885828601611360565b9150509250929050565b5f5ffd5b5f5ffd5b5f5ffd5b5f5f83601f8401126113d3576113d26113b2565b5b8235905067ffffffffffffffff8111156113f0576113ef6113b6565b5b60208301915083602082028301111561140c5761140b6113ba565b5b9250929050565b5f5f83601f840112611428576114276113b2565b5b8235905067ffffffffffffffff811115611445576114446113b6565b5b602083019150836020820283011115611461576114606113ba565b5b9250929050565b5f5f83601f84011261147d5761147c6113b2565b5b8235905067ffffffffffffffff81111561149a576114996113b6565b5b6020830191508360208202830111156114b6576114b56113ba565b5b9250929050565b5f5f83601f8401126114d2576114d16113b2565b5b8235905067ffffffffffffffff8111156114ef576114ee6113b6565b5b60208301915083602082028301111561150b5761150a6113ba565b5b9250929050565b5f5f5f5f5f5f5f5f5f5f60a08b8d0312156115305761152f6112df565b5b5f8b013567ffffffffffffffff81111561154d5761154c6112e3565b5b6115598d828e016113be565b9a509a505060208b013567ffffffffffffffff81111561157c5761157b6112e3565b5b6115888d828e01611413565b985098505060408b013567ffffffffffffffff8111156115ab576115aa6112e3565b5b6115b78d828e01611413565b965096505060608b013567ffffffffffffffff8111156115da576115d96112e3565b5b6115e68d828e01611468565b945094505060808b013567ffffffffffffffff811115611609576116086112e3565b5b6116158d828e016114bd565b92509250509295989b9194979a5092959850565b5f6020828403121561163e5761163d6112df565b5b5f61164b8482850161132d565b91505092915050565b61165d81611341565b82525050565b5f6020820190506116765f830184611654565b92915050565b5f61168682611306565b9050919050565b6116968161167c565b81146116a0575f5ffd5b50565b5f813590506116b18161168d565b92915050565b5f602082840312156116cc576116cb6112df565b5b5f6116d9848285016116a3565b91505092915050565b6116eb81611306565b82525050565b5f6020820190506117045f8301846116e2565b92915050565b5f8115159050919050565b61171e8161170a565b82525050565b5f6020820190506117375f830184611715565b92915050565b5f819050919050565b5f61176061175b611756846112e7565b61173d565b6112e7565b9050919050565b5f61177182611746565b9050919050565b5f61178282611767565b9050919050565b61179281611778565b82525050565b5f6020820190506117ab5f830184611789565b92915050565b5f6117bb82611767565b9050919050565b6117cb816117b1565b82525050565b5f6020820190506117e45f8301846117c2565b92915050565b5f6117f482611746565b9050919050565b5f611805826117ea565b9050919050565b611815816117fb565b82525050565b5f60208201905061182e5f83018461180c565b92915050565b61183d8161170a565b8114611847575f5ffd5b50565b5f8151905061185881611834565b92915050565b5f60208284031215611873576118726112df565b5b5f6118808482850161184a565b91505092915050565b5f60408201905061189c5f830185611654565b6118a96020830184611654565b9392505050565b5f82825260208201905092915050565b7f554e415554484f52495a454400000000000000000000000000000000000000005f82015250565b5f6118f4600c836118b0565b91506118ff826118c0565b602082019050919050565b5f6020820190508181035f830152611921816118e8565b9050919050565b5f819050919050565b61193a81611928565b8114611944575f5ffd5b50565b5f8151905061195581611931565b92915050565b5f602082840312156119705761196f6112df565b5b5f61197d84828501611947565b91505092915050565b7f4e487b71000000000000000000000000000000000000000000000000000000005f52603260045260245ffd5b5f5ffd5b5f5ffd5b5f5ffd5b5f5f833560016020038436030381126119db576119da6119b3565b5b80840192508235915067ffffffffffffffff8211156119fd576119fc6119b7565b5b602083019250602082023603831315611a1957611a186119bb565b5b509250929050565b5f5f83356001602003843603038112611a3d57611a3c6119b3565b5b80840192508235915067ffffffffffffffff821115611a5f57611a5e6119b7565b5b602083019250600182023603831315611a7b57611a7a6119bb565b5b509250929050565b5f82825260208201905092915050565b828183375f83830152505050565b5f601f19601f8301169050919050565b5f611abc8385611a83565b9350611ac9838584611a93565b611ad283611aa1565b840190509392505050565b611ae681611928565b82525050565b5f606082019050611aff5f8301876116e2565b8181036020830152611b12818587611ab1565b9050611b216040830184611add565b95945050505050565b5f5ffd5b7f4e487b71000000000000000000000000000000000000000000000000000000005f52604160045260245ffd5b611b6482611aa1565b810181811067ffffffffffffffff82111715611b8357611b82611b2e565b5b80604052505050565b5f611b956112d6565b9050611ba18282611b5b565b919050565b5f67ffffffffffffffff821115611bc057611bbf611b2e565b5b611bc982611aa1565b9050602081019050919050565b8281835e5f83830152505050565b5f611bf6611bf184611ba6565b611b8c565b905082815260208101848484011115611c1257611c11611b2a565b5b611c1d848285611bd6565b509392505050565b5f82601f830112611c3957611c386113b2565b5b8151611c49848260208601611be4565b91505092915050565b5f60208284031215611c6757611c666112df565b5b5f82015167ffffffffffffffff811115611c8457611c836112e3565b5b611c9084828501611c25565b91505092915050565b5f602082019050611cac5f830184611add565b92915050565b5f7fffffffff0000000000000000000000000000000000000000000000000000000082169050919050565b611ce681611cb2565b82525050565b5f606082019050611cff5f8301866116e2565b611d0c60208301856116e2565b611d196040830184611cdd565b949350505050565b5f82905092915050565b5f82821b905092915050565b5f611d428383611d21565b82611d4d8135611cb2565b92506004821015611d8d57611d887fffffffff0000000000000000000000000000000000000000000000000000000083600403600802611d2b565b831692505b505092915050565b5f81519050919050565b5f81905092915050565b5f611db382611d95565b611dbd8185611d9f565b9350611dcd818560208601611bd6565b80840191505092915050565b5f611de48284611da9565b915081905092915050565b5f8160601b9050919050565b5f611e0582611def565b9050919050565b5f611e1682611dfb565b9050919050565b611e2e611e2982611306565b611e0c565b82525050565b5f8160f81b9050919050565b5f611e4a82611e34565b9050919050565b5f611e5b82611e40565b9050919050565b611e73611e6e8261170a565b611e51565b82525050565b5f819050919050565b611e93611e8e82611cb2565b611e79565b82525050565b5f611ea48288611e1d565b601482019150611eb48287611e1d565b601482019150611ec48286611e62565b600182019150611ed48285611e82565b600482019150611ee48284611da9565b9150819050969550505050505056fea264697066735822122013b07c3a8217539a9c924cc6c501a9ea06ea371b83b238cee509b8cfd08fb00c64736f6c634300081e0033",
  "linkReferences": {},
  "deployedLinkReferences": {},
  "immutableReferences": {
    "11459": [
      {
        "length": 32,
        "start": 1429
      },
      {
        "length": 32,
        "start": 1771
      },
      {
        "length": 32,
        "start": 2045
      },
      {
        "length": 32,
        "start": 3728
      }
    ]
  },
  "inputSourceName": "project/contracts/core/ManagerWithMerkleVerification.sol",
  "buildInfoId": "solc-0_8_30-e7ac28edc80ee071fd8bf3e691f238b4916e4080"
}