{
  "_format": "hh3-artifact-1",
  "contractName": "AccountantProviders",
  "sourceName": "contracts/core/AccountantProviders.sol",
  "abi": [
    {
      "inputs": [
        {
          "internalType": "address",
          "name": "_primeRBAC",
          "type": "address"
        },
        {
          "internalType": "address",
          "name": "_vault",
          "type": "address"
        },
        {
          "internalType": "address",
          "name": "_payoutAddress",
          "type": "address"
        },
        {
          "internalType": "uint16",
          "name": "platformFee",
          "type": "uint16"
        }
      ],
      "stateMutability": "nonpayable",
      "type": "constructor"
    },
    {
      "inputs": [],
      "name": "AccountantProviders__OnlyCallableByBoringVault",
      "type": "error"
    },
    {
      "inputs": [],
      "name": "AccountantProviders__Paused",
      "type": "error"
    },
    {
      "inputs": [],
      "name": "AccountantProviders__PlatformFeeTooLarge",
      "type": "error"
    },
    {
      "inputs": [],
      "name": "AccountantProviders__ZeroFeesOwed",
      "type": "error"
    },
    {
      "inputs": [],
      "name": "NOT_PROTOCOL_ADMIN",
      "type": "error"
    },
    {
      "inputs": [],
      "name": "ZERO_ADDRESS",
      "type": "error"
    },
    {
      "anonymous": false,
      "inputs": [
        {
          "indexed": true,
          "internalType": "address",
          "name": "user",
          "type": "address"
        },
        {
          "indexed": true,
          "internalType": "contract Authority",
          "name": "newAuthority",
          "type": "address"
        }
      ],
      "name": "AuthorityUpdated",
      "type": "event"
    },
    {
      "anonymous": false,
      "inputs": [
        {
          "indexed": false,
          "internalType": "uint96",
          "name": "oldRate",
          "type": "uint96"
        },
        {
          "indexed": false,
          "internalType": "uint96",
          "name": "newRate",
          "type": "uint96"
        },
        {
          "indexed": false,
          "internalType": "uint64",
          "name": "currentTime",
          "type": "uint64"
        }
      ],
      "name": "ExchangeRateUpdated",
      "type": "event"
    },
    {
      "anonymous": false,
      "inputs": [
        {
          "indexed": true,
          "internalType": "address",
          "name": "feeAsset",
          "type": "address"
        },
        {
          "indexed": false,
          "internalType": "uint256",
          "name": "amount",
          "type": "uint256"
        }
      ],
      "name": "FeesClaimed",
      "type": "event"
    },
    {
      "anonymous": false,
      "inputs": [
        {
          "indexed": true,
          "internalType": "address",
          "name": "user",
          "type": "address"
        },
        {
          "indexed": true,
          "internalType": "address",
          "name": "newOwner",
          "type": "address"
        }
      ],
      "name": "OwnershipTransferred",
      "type": "event"
    },
    {
      "anonymous": false,
      "inputs": [],
      "name": "Paused",
      "type": "event"
    },
    {
      "anonymous": false,
      "inputs": [
        {
          "indexed": false,
          "internalType": "address",
          "name": "oldPayout",
          "type": "address"
        },
        {
          "indexed": false,
          "internalType": "address",
          "name": "newPayout",
          "type": "address"
        }
      ],
      "name": "PayoutAddressUpdated",
      "type": "event"
    },
    {
      "anonymous": false,
      "inputs": [
        {
          "indexed": false,
          "internalType": "uint16",
          "name": "oldFee",
          "type": "uint16"
        },
        {
          "indexed": false,
          "internalType": "uint16",
          "name": "newFee",
          "type": "uint16"
        }
      ],
      "name": "PlatformFeeUpdated",
      "type": "event"
    },
    {
      "anonymous": false,
      "inputs": [],
      "name": "Unpaused",
      "type": "event"
    },
    {
      "inputs": [],
      "name": "accountantState",
      "outputs": [
        {
          "internalType": "address",
          "name": "payoutAddress",
          "type": "address"
        },
        {
          "internalType": "uint96",
          "name": "exchangeRate",
          "type": "uint96"
        },
        {
          "internalType": "uint128",
          "name": "feesOwedInBase",
          "type": "uint128"
        },
        {
          "internalType": "uint128",
          "name": "totalSharesLastUpdate",
          "type": "uint128"
        },
        {
          "internalType": "uint64",
          "name": "lastUpdateTimestamp",
          "type": "uint64"
        },
        {
          "internalType": "uint16",
          "name": "platformFee",
          "type": "uint16"
        }
      ],
      "stateMutability": "view",
      "type": "function"
    },
    {
      "inputs": [],
      "name": "authority",
      "outputs": [
        {
          "internalType": "contract Authority",
          "name": "",
          "type": "address"
        }
      ],
      "stateMutability": "view",
      "type": "function"
    },
    {
      "inputs": [],
      "name": "base",
      "outputs": [
        {
          "internalType": "contract ERC20",
          "name": "",
          "type": "address"
        }
      ],
      "stateMutability": "view",
      "type": "function"
    },
    {
      "inputs": [],
      "name": "claimFees",
      "outputs": [],
      "stateMutability": "nonpayable",
      "type": "function"
    },
    {
      "inputs": [],
      "name": "getAccountantState",
      "outputs": [
        {
          "components": [
            {
              "internalType": "address",
              "name": "payoutAddress",
              "type": "address"
            },
            {
              "internalType": "uint96",
              "name": "exchangeRate",
              "type": "uint96"
            },
            {
              "internalType": "uint128",
              "name": "feesOwedInBase",
              "type": "uint128"
            },
            {
              "internalType": "uint128",
              "name": "totalSharesLastUpdate",
              "type": "uint128"
            },
            {
              "internalType": "uint64",
              "name": "lastUpdateTimestamp",
              "type": "uint64"
            },
            {
              "internalType": "uint16",
              "name": "platformFee",
              "type": "uint16"
            }
          ],
          "internalType": "struct AccountantProviders.AccountantState",
          "name": "",
          "type": "tuple"
        }
      ],
      "stateMutability": "view",
      "type": "function"
    },
    {
      "inputs": [],
      "name": "getRate",
      "outputs": [
        {
          "internalType": "uint256",
          "name": "rate",
          "type": "uint256"
        }
      ],
      "stateMutability": "view",
      "type": "function"
    },
    {
      "inputs": [],
      "name": "getRateSafe",
      "outputs": [
        {
          "internalType": "uint256",
          "name": "rate",
          "type": "uint256"
        }
      ],
      "stateMutability": "view",
      "type": "function"
    },
    {
      "inputs": [],
      "name": "isPaused",
      "outputs": [
        {
          "internalType": "bool",
          "name": "",
          "type": "bool"
        }
      ],
      "stateMutability": "view",
      "type": "function"
    },
    {
      "inputs": [],
      "name": "owner",
      "outputs": [
        {
          "internalType": "address",
          "name": "",
          "type": "address"
        }
      ],
      "stateMutability": "view",
      "type": "function"
    },
    {
      "inputs": [],
      "name": "pause",
      "outputs": [],
      "stateMutability": "nonpayable",
      "type": "function"
    },
    {
      "inputs": [],
      "name": "primeRBAC",
      "outputs": [
        {
          "internalType": "contract IPrimeRBAC",
          "name": "",
          "type": "address"
        }
      ],
      "stateMutability": "view",
      "type": "function"
    },
    {
      "inputs": [
        {
          "internalType": "contract Authority",
          "name": "newAuthority",
          "type": "address"
        }
      ],
      "name": "setAuthority",
      "outputs": [],
      "stateMutability": "nonpayable",
      "type": "function"
    },
    {
      "inputs": [
        {
          "internalType": "address",
          "name": "newOwner",
          "type": "address"
        }
      ],
      "name": "transferOwnership",
      "outputs": [],
      "stateMutability": "nonpayable",
      "type": "function"
    },
    {
      "inputs": [],
      "name": "unpause",
      "outputs": [],
      "stateMutability": "nonpayable",
      "type": "function"
    },
    {
      "inputs": [],
      "name": "updateExchangeRate",
      "outputs": [],
      "stateMutability": "nonpayable",
      "type": "function"
    },
    {
      "inputs": [
        {
          "internalType": "address",
          "name": "payoutAddress",
          "type": "address"
        }
      ],
      "name": "updatePayoutAddress",
      "outputs": [],
      "stateMutability": "nonpayable",
      "type": "function"
    },
    {
      "inputs": [
        {
          "internalType": "uint16",
          "name": "platformFee",
          "type": "uint16"
        }
      ],
      "name": "updatePlatformFee",
      "outputs": [],
      "stateMutability": "nonpayable",
      "type": "function"
    },
    {
      "inputs": [],
      "name": "vault",
      "outputs": [
        {
          "internalType": "contract BoringVault",
          "name": "",
          "type": "address"
        }
      ],
      "stateMutability": "view",
      "type": "function"
    }
  ],
  "bytecode": "0x60e060405234801561000f575f5ffd5b50604051612f58380380612f5883398181016040528101906100319190610762565b838373ffffffffffffffffffffffffffffffffffffffff1663bf7e214f6040518163ffffffff1660e01b8152600401602060405180830381865afa15801561007b573d5f5f3e3d5ffd5b505050506040513d601f19601f8201168201806040525081019061009f9190610801565b3381815f5f6101000a81548173ffffffffffffffffffffffffffffffffffffffff021916908373ffffffffffffffffffffffffffffffffffffffff1602179055508060015f6101000a81548173ffffffffffffffffffffffffffffffffffffffff021916908373ffffffffffffffffffffffffffffffffffffffff1602179055508173ffffffffffffffffffffffffffffffffffffffff163373ffffffffffffffffffffffffffffffffffffffff167f8be0079c531659141344cd1fd0a4f28419497f9722a3daafe3b4186f6b6457e060405160405180910390a38073ffffffffffffffffffffffffffffffffffffffff163373ffffffffffffffffffffffffffffffffffffffff167fa3396fd7f6e0a21b50e5089d2da70d5ac0a3bbbd1f617a93f134b7638998019860405160405180910390a350505f73ffffffffffffffffffffffffffffffffffffffff168273ffffffffffffffffffffffffffffffffffffffff16148061023b57505f73ffffffffffffffffffffffffffffffffffffffff168173ffffffffffffffffffffffffffffffffffffffff16145b15610272576040517f538ba4f900000000000000000000000000000000000000000000000000000000815260040160405180910390fd5b8160025f6101000a81548173ffffffffffffffffffffffffffffffffffffffff021916908373ffffffffffffffffffffffffffffffffffffffff16021790555050508273ffffffffffffffffffffffffffffffffffffffff1660a08173ffffffffffffffffffffffffffffffffffffffff168152505060a05173ffffffffffffffffffffffffffffffffffffffff166338d52e0f6040518163ffffffff1660e01b8152600401602060405180830381865afa158015610333573d5f5f3e3d5ffd5b505050506040513d601f19601f820116820180604052508101906103579190610867565b73ffffffffffffffffffffffffffffffffffffffff1660808173ffffffffffffffffffffffffffffffffffffffff168152505060a05173ffffffffffffffffffffffffffffffffffffffff1663313ce5676040518163ffffffff1660e01b8152600401602060405180830381865afa1580156103d5573d5f5f3e3d5ffd5b505050506040513d601f19601f820116820180604052508101906103f991906108c8565b600a6104059190610a58565b60c081815250506040518060c001604052808373ffffffffffffffffffffffffffffffffffffffff16815260200160805173ffffffffffffffffffffffffffffffffffffffff1663313ce5676040518163ffffffff1660e01b8152600401602060405180830381865afa15801561047e573d5f5f3e3d5ffd5b505050506040513d601f19601f820116820180604052508101906104a291906108c8565b600a6104ae9190610a58565b6bffffffffffffffffffffffff1681526020015f6fffffffffffffffffffffffffffffffff16815260200160a05173ffffffffffffffffffffffffffffffffffffffff166318160ddd6040518163ffffffff1660e01b8152600401602060405180830381865afa158015610524573d5f5f3e3d5ffd5b505050506040513d601f19601f820116820180604052508101906105489190610acc565b6fffffffffffffffffffffffffffffffff1681526020014267ffffffffffffffff1681526020018261ffff1681525060035f820151815f015f6101000a81548173ffffffffffffffffffffffffffffffffffffffff021916908373ffffffffffffffffffffffffffffffffffffffff1602179055506020820151815f0160146101000a8154816bffffffffffffffffffffffff02191690836bffffffffffffffffffffffff1602179055506040820151816001015f6101000a8154816fffffffffffffffffffffffffffffffff02191690836fffffffffffffffffffffffffffffffff16021790555060608201518160010160106101000a8154816fffffffffffffffffffffffffffffffff02191690836fffffffffffffffffffffffffffffffff1602179055506080820151816002015f6101000a81548167ffffffffffffffff021916908367ffffffffffffffff16021790555060a08201518160020160086101000a81548161ffff021916908361ffff16021790555090505050505050610af7565b5f5ffd5b5f73ffffffffffffffffffffffffffffffffffffffff82169050919050565b5f6106fa826106d1565b9050919050565b61070a816106f0565b8114610714575f5ffd5b50565b5f8151905061072581610701565b92915050565b5f61ffff82169050919050565b6107418161072b565b811461074b575f5ffd5b50565b5f8151905061075c81610738565b92915050565b5f5f5f5f6080858703121561077a576107796106cd565b5b5f61078787828801610717565b945050602061079887828801610717565b93505060406107a987828801610717565b92505060606107ba8782880161074e565b91505092959194509250565b5f6107d0826106f0565b9050919050565b6107e0816107c6565b81146107ea575f5ffd5b50565b5f815190506107fb816107d7565b92915050565b5f60208284031215610816576108156106cd565b5b5f610823848285016107ed565b91505092915050565b5f610836826106f0565b9050919050565b6108468161082c565b8114610850575f5ffd5b50565b5f815190506108618161083d565b92915050565b5f6020828403121561087c5761087b6106cd565b5b5f61088984828501610853565b91505092915050565b5f60ff82169050919050565b6108a781610892565b81146108b1575f5ffd5b50565b5f815190506108c28161089e565b92915050565b5f602082840312156108dd576108dc6106cd565b5b5f6108ea848285016108b4565b91505092915050565b7f4e487b71000000000000000000000000000000000000000000000000000000005f52601160045260245ffd5b5f8160011c9050919050565b5f5f8291508390505b600185111561097557808604811115610951576109506108f3565b5b60018516156109605780820291505b808102905061096e85610920565b9450610935565b94509492505050565b5f8261098d5760019050610a48565b8161099a575f9050610a48565b81600181146109b057600281146109ba576109e9565b6001915050610a48565b60ff8411156109cc576109cb6108f3565b5b8360020a9150848211156109e3576109e26108f3565b5b50610a48565b5060208310610133831016604e8410600b8410161715610a1e5782820a905083811115610a1957610a186108f3565b5b610a48565b610a2b848484600161092c565b92509050818404811115610a4257610a416108f3565b5b81810290505b9392505050565b5f819050919050565b5f610a6282610a4f565b9150610a6d83610892565b9250610a9a7fffffffffffffffffffffffffffffffffffffffffffffffffffffffffffffffff848461097e565b905092915050565b610aab81610a4f565b8114610ab5575f5ffd5b50565b5f81519050610ac681610aa2565b92915050565b5f60208284031215610ae157610ae06106cd565b5b5f610aee84828501610ab8565b91505092915050565b60805160a05160c05161240d610b4b5f395f8181610535015281816105ea015261199f01525f81816103bf015281816113d001526117e301525f8181610b68015281816115fd0152611644015261240d5ff3fe608060405234801561000f575f5ffd5b5060043610610114575f3560e01c80638456cb59116100a0578063bf7e214f1161006f578063bf7e214f14610261578063d294f0931461027f578063e37d7e6814610289578063f2fde38b146102a7578063fbfa77cf146102c357610114565b80638456cb59146101ff5780638da5cb5b14610209578063afb0695214610227578063b187bd261461024357610114565b8063433255de116100e7578063433255de146101685780635001f3b51461018b57806356200819146101a9578063679aefce146101c55780637a9e5e4b146101e357610114565b806302ce728f14610118578063282a8700146101225780633f4ba83a1461014057806342a20b761461014a575b5f5ffd5b6101206102e1565b005b61012a610710565b6040516101379190611bcb565b60405180910390f35b610148610765565b005b610152610920565b60405161015f9190611d2a565b60405180910390f35b610170610aaf565b60405161018296959493929190611d8e565b60405180910390f35b610193610b66565b6040516101a09190611e48565b60405180910390f35b6101c360048036038101906101be9190611e8f565b610b8a565b005b6101cd610da3565b6040516101da9190611bcb565b60405180910390f35b6101fd60048036038101906101f89190611ef5565b610dd4565b005b610207610f8f565b005b61021161114b565b60405161021e9190611f20565b60405180910390f35b610241600480360381019061023c9190611f63565b61116f565b005b61024b611396565b6040516102589190611fa8565b60405180910390f35b6102696113a9565b6040516102769190611fe1565b60405180910390f35b6102876113ce565b005b6102916116b4565b60405161029e919061201a565b60405180910390f35b6102c160048036038101906102bc9190611e8f565b6116d9565b005b6102cb6117e1565b6040516102d89190612064565b60405180910390f35b61030e335f357fffffffff0000000000000000000000000000000000000000000000000000000016611805565b61034d576040517f08c379a0000000000000000000000000000000000000000000000000000000008152600401610344906120d7565b60405180910390fd5b5f60039050600260149054906101000a900460ff1615610399576040517f7a0a59a500000000000000000000000000000000000000000000000000000000815260040160405180910390fd5b5f4290505f825f0160149054906101000a90046bffffffffffffffffffffffff1690505f7f000000000000000000000000000000000000000000000000000000000000000073ffffffffffffffffffffffffffffffffffffffff166318160ddd6040518163ffffffff1660e01b8152600401602060405180830381865afa158015610426573d5f5f3e3d5ffd5b505050506040513d601f19601f8201168201806040525081019061044a919061211f565b90505f6104b28560010160109054906101000a90046fffffffffffffffffffffffffffffffff16866002015f9054906101000a900467ffffffffffffffff168760020160089054906101000a900461ffff16866bffffffffffffffffffffffff16868961193e565b905080856001015f8282829054906101000a90046fffffffffffffffffffffffffffffffff166104e29190612177565b92506101000a8154816fffffffffffffffffffffffffffffffff02191690836fffffffffffffffffffffffffffffffff1602179055505f82111561064e575f610564846bffffffffffffffffffffffff167f000000000000000000000000000000000000000000000000000000000000000085611a189092919063ffffffff16565b90505f866001015f9054906101000a90046fffffffffffffffffffffffffffffffff166fffffffffffffffffffffffffffffffff1682116105a5575f6105e3565b866001015f9054906101000a90046fffffffffffffffffffffffffffffffff166fffffffffffffffffffffffffffffffff16826105e291906121ba565b5b905061061a7f00000000000000000000000000000000000000000000000000000000000000008583611a189092919063ffffffff16565b875f0160146101000a8154816bffffffffffffffffffffffff02191690836bffffffffffffffffffffffff16021790555050505b83856002015f6101000a81548167ffffffffffffffff021916908367ffffffffffffffff160217905550818560010160106101000a8154816fffffffffffffffffffffffffffffffff02191690836fffffffffffffffffffffffffffffffff1602179055507fa95bc6aba40bbc4d95fc35f118c4cd8b53fc5d5b89ed264002af03503a7a943983865f0160149054906101000a90046bffffffffffffffffffffffff1686604051610701939291906121ed565b60405180910390a15050505050565b5f600260149054906101000a900460ff1615610758576040517f7a0a59a500000000000000000000000000000000000000000000000000000000815260040160405180910390fd5b610760610da3565b905090565b60025f9054906101000a900473ffffffffffffffffffffffffffffffffffffffff1673ffffffffffffffffffffffffffffffffffffffff1663d35911f2336040518263ffffffff1660e01b81526004016107bf9190611f20565b602060405180830381865afa1580156107da573d5f5f3e3d5ffd5b505050506040513d601f19601f820116820180604052508101906107fe919061224c565b1580156108a1575060025f9054906101000a900473ffffffffffffffffffffffffffffffffffffffff1673ffffffffffffffffffffffffffffffffffffffff1663c138c139336040518263ffffffff1660e01b81526004016108609190611f20565b602060405180830381865afa15801561087b573d5f5f3e3d5ffd5b505050506040513d601f19601f8201168201806040525081019061089f919061224c565b155b156108d8576040517fdc85555400000000000000000000000000000000000000000000000000000000815260040160405180910390fd5b5f600260146101000a81548160ff0219169083151502179055507fa45f47fdea8a1efdd9029a5691c7f759c32b7c698632b563573e155625d1693360405160405180910390a1565b610928611b2d565b60036040518060c00160405290815f82015f9054906101000a900473ffffffffffffffffffffffffffffffffffffffff1673ffffffffffffffffffffffffffffffffffffffff1673ffffffffffffffffffffffffffffffffffffffff1681526020015f820160149054906101000a90046bffffffffffffffffffffffff166bffffffffffffffffffffffff166bffffffffffffffffffffffff168152602001600182015f9054906101000a90046fffffffffffffffffffffffffffffffff166fffffffffffffffffffffffffffffffff166fffffffffffffffffffffffffffffffff1681526020016001820160109054906101000a90046fffffffffffffffffffffffffffffffff166fffffffffffffffffffffffffffffffff166fffffffffffffffffffffffffffffffff168152602001600282015f9054906101000a900467ffffffffffffffff1667ffffffffffffffff1667ffffffffffffffff1681526020016002820160089054906101000a900461ffff1661ffff1661ffff1681525050905090565b6003805f015f9054906101000a900473ffffffffffffffffffffffffffffffffffffffff1690805f0160149054906101000a90046bffffffffffffffffffffffff1690806001015f9054906101000a90046fffffffffffffffffffffffffffffffff16908060010160109054906101000a90046fffffffffffffffffffffffffffffffff1690806002015f9054906101000a900467ffffffffffffffff16908060020160089054906101000a900461ffff16905086565b7f000000000000000000000000000000000000000000000000000000000000000081565b60025f9054906101000a900473ffffffffffffffffffffffffffffffffffffffff1673ffffffffffffffffffffffffffffffffffffffff1663d35911f2336040518263ffffffff1660e01b8152600401610be49190611f20565b602060405180830381865afa158015610bff573d5f5f3e3d5ffd5b505050506040513d601f19601f82011682018060405250810190610c23919061224c565b158015610cc6575060025f9054906101000a900473ffffffffffffffffffffffffffffffffffffffff1673ffffffffffffffffffffffffffffffffffffffff1663c138c139336040518263ffffffff1660e01b8152600401610c859190611f20565b602060405180830381865afa158015610ca0573d5f5f3e3d5ffd5b505050506040513d601f19601f82011682018060405250810190610cc4919061224c565b155b15610cfd576040517fdc85555400000000000000000000000000000000000000000000000000000000815260040160405180910390fd5b5f60035f015f9054906101000a900473ffffffffffffffffffffffffffffffffffffffff1690508160035f015f6101000a81548173ffffffffffffffffffffffffffffffffffffffff021916908373ffffffffffffffffffffffffffffffffffffffff1602179055507fba2be5e898fed1646bc0814dee1cc9a2aee98f51fced7d5fc4699c47d99077538183604051610d97929190612277565b60405180910390a15050565b5f60035f0160149054906101000a90046bffffffffffffffffffffffff166bffffffffffffffffffffffff16905090565b5f5f9054906101000a900473ffffffffffffffffffffffffffffffffffffffff1673ffffffffffffffffffffffffffffffffffffffff163373ffffffffffffffffffffffffffffffffffffffff161480610eea575060015f9054906101000a900473ffffffffffffffffffffffffffffffffffffffff1673ffffffffffffffffffffffffffffffffffffffff1663b700961333305f357fffffffff00000000000000000000000000000000000000000000000000000000166040518463ffffffff1660e01b8152600401610eaa939291906122d8565b602060405180830381865afa158015610ec5573d5f5f3e3d5ffd5b505050506040513d601f19601f82011682018060405250810190610ee9919061224c565b5b610ef2575f5ffd5b8060015f6101000a81548173ffffffffffffffffffffffffffffffffffffffff021916908373ffffffffffffffffffffffffffffffffffffffff1602179055508073ffffffffffffffffffffffffffffffffffffffff163373ffffffffffffffffffffffffffffffffffffffff167fa3396fd7f6e0a21b50e5089d2da70d5ac0a3bbbd1f617a93f134b7638998019860405160405180910390a350565b60025f9054906101000a900473ffffffffffffffffffffffffffffffffffffffff1673ffffffffffffffffffffffffffffffffffffffff1663d35911f2336040518263ffffffff1660e01b8152600401610fe99190611f20565b602060405180830381865afa158015611004573d5f5f3e3d5ffd5b505050506040513d601f19601f82011682018060405250810190611028919061224c565b1580156110cb575060025f9054906101000a900473ffffffffffffffffffffffffffffffffffffffff1673ffffffffffffffffffffffffffffffffffffffff1663c138c139336040518263ffffffff1660e01b815260040161108a9190611f20565b602060405180830381865afa1580156110a5573d5f5f3e3d5ffd5b505050506040513d601f19601f820116820180604052508101906110c9919061224c565b155b15611102576040517fdc85555400000000000000000000000000000000000000000000000000000000815260040160405180910390fd5b6001600260146101000a81548160ff0219169083151502179055507f9e87fac88ff661f02d44f95383c817fece4bce600a3dab7a54406878b965e75260405160405180910390a1565b5f5f9054906101000a900473ffffffffffffffffffffffffffffffffffffffff1681565b60025f9054906101000a900473ffffffffffffffffffffffffffffffffffffffff1673ffffffffffffffffffffffffffffffffffffffff1663d35911f2336040518263ffffffff1660e01b81526004016111c99190611f20565b602060405180830381865afa1580156111e4573d5f5f3e3d5ffd5b505050506040513d601f19601f82011682018060405250810190611208919061224c565b1580156112ab575060025f9054906101000a900473ffffffffffffffffffffffffffffffffffffffff1673ffffffffffffffffffffffffffffffffffffffff1663c138c139336040518263ffffffff1660e01b815260040161126a9190611f20565b602060405180830381865afa158015611285573d5f5f3e3d5ffd5b505050506040513d601f19601f820116820180604052508101906112a9919061224c565b155b156112e2576040517fdc85555400000000000000000000000000000000000000000000000000000000815260040160405180910390fd5b6107d08161ffff161115611322576040517f21af90b700000000000000000000000000000000000000000000000000000000815260040160405180910390fd5b5f600360020160089054906101000a900461ffff16905081600360020160086101000a81548161ffff021916908361ffff1602179055507f84e4fe32bf74c4011a7e1fde79c63acdffaf92a0112cde153e7b0abee665bc6b818360405161138a92919061230d565b60405180910390a15050565b600260149054906101000a900460ff1681565b60015f9054906101000a900473ffffffffffffffffffffffffffffffffffffffff1681565b7f000000000000000000000000000000000000000000000000000000000000000073ffffffffffffffffffffffffffffffffffffffff163373ffffffffffffffffffffffffffffffffffffffff1614611453576040517fdfdf4cff00000000000000000000000000000000000000000000000000000000815260040160405180910390fd5b5f60039050600260149054906101000a900460ff161561149f576040517f7a0a59a500000000000000000000000000000000000000000000000000000000815260040160405180910390fd5b3073ffffffffffffffffffffffffffffffffffffffff166302ce728f6040518163ffffffff1660e01b81526004015f604051808303815f87803b1580156114e4575f5ffd5b505af11580156114f6573d5f5f3e3d5ffd5b505050505f816001015f9054906101000a90046fffffffffffffffffffffffffffffffff166fffffffffffffffffffffffffffffffff1603611564576040517fb356a8c700000000000000000000000000000000000000000000000000000000815260040160405180910390fd5b5f816001015f9054906101000a90046fffffffffffffffffffffffffffffffff166fffffffffffffffffffffffffffffffff1690505f826001015f6101000a8154816fffffffffffffffffffffffffffffffff02191690836fffffffffffffffffffffffffffffffff16021790555061164233835f015f9054906101000a900473ffffffffffffffffffffffffffffffffffffffff16837f000000000000000000000000000000000000000000000000000000000000000073ffffffffffffffffffffffffffffffffffffffff16611a59909392919063ffffffff16565b7f000000000000000000000000000000000000000000000000000000000000000073ffffffffffffffffffffffffffffffffffffffff167f9493e5bbe4e8e0ac67284469a2d677403d0378a85a59e341d3abc433d0d9a209826040516116a89190611bcb565b60405180910390a25050565b60025f9054906101000a900473ffffffffffffffffffffffffffffffffffffffff1681565b611706335f357fffffffff0000000000000000000000000000000000000000000000000000000016611805565b611745576040517f08c379a000000000000000000000000000000000000000000000000000000000815260040161173c906120d7565b60405180910390fd5b805f5f6101000a81548173ffffffffffffffffffffffffffffffffffffffff021916908373ffffffffffffffffffffffffffffffffffffffff1602179055508073ffffffffffffffffffffffffffffffffffffffff163373ffffffffffffffffffffffffffffffffffffffff167f8be0079c531659141344cd1fd0a4f28419497f9722a3daafe3b4186f6b6457e060405160405180910390a350565b7f000000000000000000000000000000000000000000000000000000000000000081565b5f5f60015f9054906101000a900473ffffffffffffffffffffffffffffffffffffffff1690505f73ffffffffffffffffffffffffffffffffffffffff168173ffffffffffffffffffffffffffffffffffffffff16141580156118df57508073ffffffffffffffffffffffffffffffffffffffff1663b70096138530866040518463ffffffff1660e01b815260040161189f939291906122d8565b602060405180830381865afa1580156118ba573d5f5f3e3d5ffd5b505050506040513d601f19601f820116820180604052508101906118de919061224c565b5b8061193557505f5f9054906101000a900473ffffffffffffffffffffffffffffffffffffffff1673ffffffffffffffffffffffffffffffffffffffff168473ffffffffffffffffffffffffffffffffffffffff16145b91505092915050565b5f5f83905080886fffffffffffffffffffffffffffffffff16111561197357876fffffffffffffffffffffffffffffffff1690505b5f8661ffff161115611a0d575f878461198c9190612334565b67ffffffffffffffff1690505f6119ce877f000000000000000000000000000000000000000000000000000000000000000085611a189092919063ffffffff16565b90505f6119ec8961ffff1661271084611a189092919063ffffffff16565b9050611a07836301e1338083611a189092919063ffffffff16565b94505050505b509695505050505050565b5f827fffffffffffffffffffffffffffffffffffffffffffffffffffffffffffffffff0484118302158202611a4b575f5ffd5b818385020490509392505050565b5f6040517f23b872dd00000000000000000000000000000000000000000000000000000000815273ffffffffffffffffffffffffffffffffffffffff8516600482015273ffffffffffffffffffffffffffffffffffffffff8416602482015282604482015260205f6064835f8a5af1915081601f3d1160015f511416151615611ae5573d863b15171591505b5080611b26576040517f08c379a0000000000000000000000000000000000000000000000000000000008152600401611b1d906123b9565b60405180910390fd5b5050505050565b6040518060c001604052805f73ffffffffffffffffffffffffffffffffffffffff1681526020015f6bffffffffffffffffffffffff1681526020015f6fffffffffffffffffffffffffffffffff1681526020015f6fffffffffffffffffffffffffffffffff1681526020015f67ffffffffffffffff1681526020015f61ffff1681525090565b5f819050919050565b611bc581611bb3565b82525050565b5f602082019050611bde5f830184611bbc565b92915050565b5f73ffffffffffffffffffffffffffffffffffffffff82169050919050565b5f611c0d82611be4565b9050919050565b611c1d81611c03565b82525050565b5f6bffffffffffffffffffffffff82169050919050565b611c4381611c23565b82525050565b5f6fffffffffffffffffffffffffffffffff82169050919050565b611c6d81611c49565b82525050565b5f67ffffffffffffffff82169050919050565b611c8f81611c73565b82525050565b5f61ffff82169050919050565b611cab81611c95565b82525050565b60c082015f820151611cc55f850182611c14565b506020820151611cd86020850182611c3a565b506040820151611ceb6040850182611c64565b506060820151611cfe6060850182611c64565b506080820151611d116080850182611c86565b5060a0820151611d2460a0850182611ca2565b50505050565b5f60c082019050611d3d5f830184611cb1565b92915050565b611d4c81611c03565b82525050565b611d5b81611c23565b82525050565b611d6a81611c49565b82525050565b611d7981611c73565b82525050565b611d8881611c95565b82525050565b5f60c082019050611da15f830189611d43565b611dae6020830188611d52565b611dbb6040830187611d61565b611dc86060830186611d61565b611dd56080830185611d70565b611de260a0830184611d7f565b979650505050505050565b5f819050919050565b5f611e10611e0b611e0684611be4565b611ded565b611be4565b9050919050565b5f611e2182611df6565b9050919050565b5f611e3282611e17565b9050919050565b611e4281611e28565b82525050565b5f602082019050611e5b5f830184611e39565b92915050565b5f5ffd5b611e6e81611c03565b8114611e78575f5ffd5b50565b5f81359050611e8981611e65565b92915050565b5f60208284031215611ea457611ea3611e61565b5b5f611eb184828501611e7b565b91505092915050565b5f611ec482611c03565b9050919050565b611ed481611eba565b8114611ede575f5ffd5b50565b5f81359050611eef81611ecb565b92915050565b5f60208284031215611f0a57611f09611e61565b5b5f611f1784828501611ee1565b91505092915050565b5f602082019050611f335f830184611d43565b92915050565b611f4281611c95565b8114611f4c575f5ffd5b50565b5f81359050611f5d81611f39565b92915050565b5f60208284031215611f7857611f77611e61565b5b5f611f8584828501611f4f565b91505092915050565b5f8115159050919050565b611fa281611f8e565b82525050565b5f602082019050611fbb5f830184611f99565b92915050565b5f611fcb82611e17565b9050919050565b611fdb81611fc1565b82525050565b5f602082019050611ff45f830184611fd2565b92915050565b5f61200482611e17565b9050919050565b61201481611ffa565b82525050565b5f60208201905061202d5f83018461200b565b92915050565b5f61203d82611df6565b9050919050565b5f61204e82612033565b9050919050565b61205e81612044565b82525050565b5f6020820190506120775f830184612055565b92915050565b5f82825260208201905092915050565b7f554e415554484f52495a454400000000000000000000000000000000000000005f82015250565b5f6120c1600c8361207d565b91506120cc8261208d565b602082019050919050565b5f6020820190508181035f8301526120ee816120b5565b9050919050565b6120fe81611bb3565b8114612108575f5ffd5b50565b5f81519050612119816120f5565b92915050565b5f6020828403121561213457612133611e61565b5b5f6121418482850161210b565b91505092915050565b7f4e487b71000000000000000000000000000000000000000000000000000000005f52601160045260245ffd5b5f61218182611c49565b915061218c83611c49565b925082820190506fffffffffffffffffffffffffffffffff8111156121b4576121b361214a565b5b92915050565b5f6121c482611bb3565b91506121cf83611bb3565b92508282039050818111156121e7576121e661214a565b5b92915050565b5f6060820190506122005f830186611d52565b61220d6020830185611d52565b61221a6040830184611d70565b949350505050565b61222b81611f8e565b8114612235575f5ffd5b50565b5f8151905061224681612222565b92915050565b5f6020828403121561226157612260611e61565b5b5f61226e84828501612238565b91505092915050565b5f60408201905061228a5f830185611d43565b6122976020830184611d43565b9392505050565b5f7fffffffff0000000000000000000000000000000000000000000000000000000082169050919050565b6122d28161229e565b82525050565b5f6060820190506122eb5f830186611d43565b6122f86020830185611d43565b61230560408301846122c9565b949350505050565b5f6040820190506123205f830185611d7f565b61232d6020830184611d7f565b9392505050565b5f61233e82611c73565b915061234983611c73565b9250828203905067ffffffffffffffff8111156123695761236861214a565b5b92915050565b7f5452414e534645525f46524f4d5f4641494c45440000000000000000000000005f82015250565b5f6123a360148361207d565b91506123ae8261236f565b602082019050919050565b5f6020820190508181035f8301526123d081612397565b905091905056fea2646970667358221220d9e850d3b07d13a395752379052a8c5beffa79c032df048aa0babbac3f69fe5964736f6c634300081e0033",
  "linkReferences": {},
  "deployedLinkReferences": {},
  "immutableReferences": {
    "8570": [
      {
        "length": 32,
        "start": 2920
      },
      {
        "length": 32,
        "start": 5629
      },
      {
        "length": 32,
        "start": 5700
      }
    ],
    "8574": [
      {
        "length": 32,
        "start": 959
      },
      {
        "length": 32,
        "start": 5072
      },
      {
        "length": 32,
        "start": 6115
      }
    ],
    "8577": [
      {
        "length": 32,
        "start": 1333
      },
      {
        "length": 32,
        "start": 1514
      },
      {
        "length": 32,
        "start": 6559
      }
    ]
  },
  "inputSourceName": "project/contracts/core/AccountantProviders.sol",
  "buildInfoId": "solc-0_8_30-1928dd092702c4b13d9ee7116b7a704288626338"
}