{
  "_format": "hh3-artifact-1",
  "contractName": "TellerWithBuffer",
  "sourceName": "contracts/core/TellerWithBuffer.sol",
  "abi": [
    {
      "inputs": [
        {
          "internalType": "address",
          "name": "_primeRBAC",
          "type": "address"
        },
        {
          "internalType": "address",
          "name": "_vault",
          "type": "address"
        },
        {
          "internalType": "address",
          "name": "_accountant",
          "type": "address"
        }
      ],
      "stateMutability": "nonpayable",
      "type": "constructor"
    },
    {
      "inputs": [],
      "name": "NOT_PROTOCOL_ADMIN",
      "type": "error"
    },
    {
      "inputs": [
        {
          "internalType": "contract IBufferHelper",
          "name": "bufferHelper",
          "type": "address"
        }
      ],
      "name": "TellerWithBuffer__BufferHelperNotAllowed",
      "type": "error"
    },
    {
      "inputs": [],
      "name": "Teller__DepositCapReached",
      "type": "error"
    },
    {
      "inputs": [
        {
          "internalType": "uint256",
          "name": "attemptedDeposit",
          "type": "uint256"
        },
        {
          "internalType": "uint256",
          "name": "depositCap",
          "type": "uint256"
        }
      ],
      "name": "Teller__DepositExceedsCap",
      "type": "error"
    },
    {
      "inputs": [],
      "name": "Teller__DepositsNotAllowed",
      "type": "error"
    },
    {
      "inputs": [],
      "name": "Teller__DualDeposit",
      "type": "error"
    },
    {
      "inputs": [],
      "name": "Teller__MinimumAssetsNotMet",
      "type": "error"
    },
    {
      "inputs": [],
      "name": "Teller__MinimumMintNotMet",
      "type": "error"
    },
    {
      "inputs": [],
      "name": "Teller__MinimumSharesNotMet",
      "type": "error"
    },
    {
      "inputs": [],
      "name": "Teller__NotApprovedToTransfer",
      "type": "error"
    },
    {
      "inputs": [],
      "name": "Teller__Paused",
      "type": "error"
    },
    {
      "inputs": [],
      "name": "Teller__PermitFailedAndAllowanceTooLow",
      "type": "error"
    },
    {
      "inputs": [],
      "name": "Teller__ShareLockPeriodTooLong",
      "type": "error"
    },
    {
      "inputs": [],
      "name": "Teller__SharesAreLocked",
      "type": "error"
    },
    {
      "inputs": [
        {
          "internalType": "address",
          "name": "account",
          "type": "address"
        }
      ],
      "name": "Teller__SharesAreUnLocked",
      "type": "error"
    },
    {
      "inputs": [
        {
          "internalType": "address",
          "name": "from",
          "type": "address"
        },
        {
          "internalType": "address",
          "name": "to",
          "type": "address"
        },
        {
          "internalType": "address",
          "name": "operator",
          "type": "address"
        }
      ],
      "name": "Teller__TransferDenied",
      "type": "error"
    },
    {
      "inputs": [],
      "name": "Teller__WithdrawsNotAllowed",
      "type": "error"
    },
    {
      "inputs": [],
      "name": "Teller__ZeroAssets",
      "type": "error"
    },
    {
      "inputs": [],
      "name": "Teller__ZeroShares",
      "type": "error"
    },
    {
      "inputs": [],
      "name": "ZERO_ADDRESS",
      "type": "error"
    },
    {
      "anonymous": false,
      "inputs": [
        {
          "indexed": true,
          "internalType": "address",
          "name": "user",
          "type": "address"
        }
      ],
      "name": "AllowFrom",
      "type": "event"
    },
    {
      "anonymous": false,
      "inputs": [
        {
          "indexed": true,
          "internalType": "address",
          "name": "user",
          "type": "address"
        }
      ],
      "name": "AllowOperator",
      "type": "event"
    },
    {
      "anonymous": false,
      "inputs": [
        {
          "indexed": true,
          "internalType": "address",
          "name": "operator",
          "type": "address"
        }
      ],
      "name": "AllowPermissionedOperator",
      "type": "event"
    },
    {
      "anonymous": false,
      "inputs": [
        {
          "indexed": true,
          "internalType": "address",
          "name": "user",
          "type": "address"
        }
      ],
      "name": "AllowTo",
      "type": "event"
    },
    {
      "anonymous": false,
      "inputs": [
        {
          "indexed": true,
          "internalType": "address",
          "name": "user",
          "type": "address"
        },
        {
          "indexed": true,
          "internalType": "contract Authority",
          "name": "newAuthority",
          "type": "address"
        }
      ],
      "name": "AuthorityUpdated",
      "type": "event"
    },
    {
      "anonymous": false,
      "inputs": [
        {
          "indexed": true,
          "internalType": "contract IBufferHelper",
          "name": "bufferHelper",
          "type": "address"
        }
      ],
      "name": "BufferHelperAllowed",
      "type": "event"
    },
    {
      "anonymous": false,
      "inputs": [
        {
          "indexed": true,
          "internalType": "contract IBufferHelper",
          "name": "bufferHelper",
          "type": "address"
        }
      ],
      "name": "BufferHelperDisallowed",
      "type": "event"
    },
    {
      "anonymous": false,
      "inputs": [
        {
          "indexed": true,
          "internalType": "address",
          "name": "asset",
          "type": "address"
        },
        {
          "indexed": false,
          "internalType": "uint256",
          "name": "depositAmount",
          "type": "uint256"
        }
      ],
      "name": "BulkDeposit",
      "type": "event"
    },
    {
      "anonymous": false,
      "inputs": [
        {
          "indexed": true,
          "internalType": "address",
          "name": "asset",
          "type": "address"
        },
        {
          "indexed": false,
          "internalType": "uint256",
          "name": "shareAmount",
          "type": "uint256"
        }
      ],
      "name": "BulkWithdraw",
      "type": "event"
    },
    {
      "anonymous": false,
      "inputs": [
        {
          "indexed": true,
          "internalType": "address",
          "name": "account",
          "type": "address"
        },
        {
          "indexed": false,
          "internalType": "uint256",
          "name": "amount",
          "type": "uint256"
        },
        {
          "indexed": false,
          "internalType": "uint256",
          "name": "shares",
          "type": "uint256"
        }
      ],
      "name": "CompoundReward",
      "type": "event"
    },
    {
      "anonymous": false,
      "inputs": [
        {
          "indexed": true,
          "internalType": "address",
          "name": "user",
          "type": "address"
        }
      ],
      "name": "DenyFrom",
      "type": "event"
    },
    {
      "anonymous": false,
      "inputs": [
        {
          "indexed": true,
          "internalType": "address",
          "name": "user",
          "type": "address"
        }
      ],
      "name": "DenyOperator",
      "type": "event"
    },
    {
      "anonymous": false,
      "inputs": [
        {
          "indexed": true,
          "internalType": "address",
          "name": "operator",
          "type": "address"
        }
      ],
      "name": "DenyPermissionedOperator",
      "type": "event"
    },
    {
      "anonymous": false,
      "inputs": [
        {
          "indexed": true,
          "internalType": "address",
          "name": "user",
          "type": "address"
        }
      ],
      "name": "DenyTo",
      "type": "event"
    },
    {
      "anonymous": false,
      "inputs": [
        {
          "indexed": false,
          "internalType": "uint256",
          "name": "nonce",
          "type": "uint256"
        },
        {
          "indexed": true,
          "internalType": "address",
          "name": "receiver",
          "type": "address"
        },
        {
          "indexed": false,
          "internalType": "uint256",
          "name": "depositAmount",
          "type": "uint256"
        },
        {
          "indexed": false,
          "internalType": "uint256",
          "name": "shareAmount",
          "type": "uint256"
        },
        {
          "indexed": false,
          "internalType": "uint256",
          "name": "depositTimestamp",
          "type": "uint256"
        },
        {
          "indexed": false,
          "internalType": "uint256",
          "name": "shareLockPeriodAtTimeOfDeposit",
          "type": "uint256"
        }
      ],
      "name": "Deposit",
      "type": "event"
    },
    {
      "anonymous": false,
      "inputs": [
        {
          "indexed": true,
          "internalType": "contract IBufferHelper",
          "name": "newDepositBufferHelper",
          "type": "address"
        }
      ],
      "name": "DepositBufferHelperSet",
      "type": "event"
    },
    {
      "anonymous": false,
      "inputs": [
        {
          "indexed": false,
          "internalType": "uint112",
          "name": "cap",
          "type": "uint112"
        }
      ],
      "name": "DepositCapSet",
      "type": "event"
    },
    {
      "anonymous": false,
      "inputs": [
        {
          "indexed": false,
          "internalType": "bool",
          "name": "allowed",
          "type": "bool"
        }
      ],
      "name": "DepositsAllowed",
      "type": "event"
    },
    {
      "anonymous": false,
      "inputs": [
        {
          "indexed": true,
          "internalType": "address",
          "name": "user",
          "type": "address"
        },
        {
          "indexed": true,
          "internalType": "address",
          "name": "newOwner",
          "type": "address"
        }
      ],
      "name": "OwnershipTransferred",
      "type": "event"
    },
    {
      "anonymous": false,
      "inputs": [],
      "name": "Paused",
      "type": "event"
    },
    {
      "anonymous": false,
      "inputs": [
        {
          "indexed": false,
          "internalType": "bool",
          "name": "permissionedTransfers",
          "type": "bool"
        }
      ],
      "name": "PermissionedTransfersSet",
      "type": "event"
    },
    {
      "anonymous": false,
      "inputs": [],
      "name": "Unpaused",
      "type": "event"
    },
    {
      "anonymous": false,
      "inputs": [
        {
          "indexed": true,
          "internalType": "address",
          "name": "asset",
          "type": "address"
        },
        {
          "indexed": false,
          "internalType": "uint256",
          "name": "shareAmount",
          "type": "uint256"
        }
      ],
      "name": "Withdraw",
      "type": "event"
    },
    {
      "anonymous": false,
      "inputs": [
        {
          "indexed": true,
          "internalType": "contract IBufferHelper",
          "name": "newWithdrawBufferHelper",
          "type": "address"
        }
      ],
      "name": "WithdrawBufferHelperSet",
      "type": "event"
    },
    {
      "anonymous": false,
      "inputs": [
        {
          "indexed": false,
          "internalType": "bool",
          "name": "allowed",
          "type": "bool"
        }
      ],
      "name": "WithdrawsAllowed",
      "type": "event"
    },
    {
      "inputs": [],
      "name": "accountant",
      "outputs": [
        {
          "internalType": "contract AccountantProviders",
          "name": "",
          "type": "address"
        }
      ],
      "stateMutability": "view",
      "type": "function"
    },
    {
      "inputs": [
        {
          "internalType": "contract IBufferHelper",
          "name": "_bufferHelper",
          "type": "address"
        }
      ],
      "name": "allowBufferHelper",
      "outputs": [],
      "stateMutability": "nonpayable",
      "type": "function"
    },
    {
      "inputs": [
        {
          "internalType": "contract IBufferHelper",
          "name": "",
          "type": "address"
        }
      ],
      "name": "allowedBufferHelpers",
      "outputs": [
        {
          "internalType": "bool",
          "name": "",
          "type": "bool"
        }
      ],
      "stateMutability": "view",
      "type": "function"
    },
    {
      "inputs": [],
      "name": "asset",
      "outputs": [
        {
          "internalType": "contract ERC20",
          "name": "",
          "type": "address"
        }
      ],
      "stateMutability": "view",
      "type": "function"
    },
    {
      "inputs": [],
      "name": "authority",
      "outputs": [
        {
          "internalType": "contract Authority",
          "name": "",
          "type": "address"
        }
      ],
      "stateMutability": "view",
      "type": "function"
    },
    {
      "inputs": [
        {
          "internalType": "address",
          "name": "",
          "type": "address"
        }
      ],
      "name": "beforeTransferData",
      "outputs": [
        {
          "internalType": "uint256",
          "name": "shareUnlockTime",
          "type": "uint256"
        }
      ],
      "stateMutability": "view",
      "type": "function"
    },
    {
      "inputs": [
        {
          "internalType": "address",
          "name": "from",
          "type": "address"
        },
        {
          "internalType": "address",
          "name": "to",
          "type": "address"
        },
        {
          "internalType": "uint256",
          "name": "",
          "type": "uint256"
        },
        {
          "internalType": "address",
          "name": "",
          "type": "address"
        }
      ],
      "name": "beforeUpdate",
      "outputs": [],
      "stateMutability": "nonpayable",
      "type": "function"
    },
    {
      "inputs": [],
      "name": "bufferHelpers",
      "outputs": [
        {
          "internalType": "contract IBufferHelper",
          "name": "depositBufferHelper",
          "type": "address"
        },
        {
          "internalType": "contract IBufferHelper",
          "name": "withdrawBufferHelper",
          "type": "address"
        }
      ],
      "stateMutability": "view",
      "type": "function"
    },
    {
      "inputs": [
        {
          "internalType": "uint256",
          "name": "depositAmount",
          "type": "uint256"
        },
        {
          "internalType": "uint256",
          "name": "minimumMint",
          "type": "uint256"
        },
        {
          "internalType": "address",
          "name": "to",
          "type": "address"
        }
      ],
      "name": "bulkDeposit",
      "outputs": [
        {
          "internalType": "uint256",
          "name": "shares",
          "type": "uint256"
        }
      ],
      "stateMutability": "nonpayable",
      "type": "function"
    },
    {
      "inputs": [
        {
          "internalType": "uint256",
          "name": "shareAmount",
          "type": "uint256"
        },
        {
          "internalType": "uint256",
          "name": "minimumAssets",
          "type": "uint256"
        },
        {
          "internalType": "address",
          "name": "to",
          "type": "address"
        }
      ],
      "name": "bulkWithdraw",
      "outputs": [
        {
          "internalType": "uint256",
          "name": "assetsOut",
          "type": "uint256"
        }
      ],
      "stateMutability": "nonpayable",
      "type": "function"
    },
    {
      "inputs": [
        {
          "internalType": "uint256",
          "name": "depositAmount",
          "type": "uint256"
        },
        {
          "internalType": "uint256",
          "name": "minimumMint",
          "type": "uint256"
        },
        {
          "internalType": "address",
          "name": "to",
          "type": "address"
        }
      ],
      "name": "deposit",
      "outputs": [
        {
          "internalType": "uint256",
          "name": "shares",
          "type": "uint256"
        }
      ],
      "stateMutability": "nonpayable",
      "type": "function"
    },
    {
      "inputs": [
        {
          "internalType": "contract IBufferHelper",
          "name": "_bufferHelper",
          "type": "address"
        }
      ],
      "name": "disallowBufferHelper",
      "outputs": [],
      "stateMutability": "nonpayable",
      "type": "function"
    },
    {
      "inputs": [],
      "name": "distributor",
      "outputs": [
        {
          "internalType": "contract Distributor",
          "name": "",
          "type": "address"
        }
      ],
      "stateMutability": "view",
      "type": "function"
    },
    {
      "inputs": [],
      "name": "getTellerState",
      "outputs": [
        {
          "components": [
            {
              "internalType": "bool",
              "name": "allowDeposits",
              "type": "bool"
            },
            {
              "internalType": "bool",
              "name": "allowWithdraws",
              "type": "bool"
            },
            {
              "internalType": "uint64",
              "name": "shareLockPeriod",
              "type": "uint64"
            },
            {
              "internalType": "uint112",
              "name": "depositCap",
              "type": "uint112"
            }
          ],
          "internalType": "struct Teller.TellerState",
          "name": "",
          "type": "tuple"
        }
      ],
      "stateMutability": "view",
      "type": "function"
    },
    {
      "inputs": [],
      "name": "isPaused",
      "outputs": [
        {
          "internalType": "bool",
          "name": "",
          "type": "bool"
        }
      ],
      "stateMutability": "view",
      "type": "function"
    },
    {
      "inputs": [],
      "name": "owner",
      "outputs": [
        {
          "internalType": "address",
          "name": "",
          "type": "address"
        }
      ],
      "stateMutability": "view",
      "type": "function"
    },
    {
      "inputs": [],
      "name": "pause",
      "outputs": [],
      "stateMutability": "nonpayable",
      "type": "function"
    },
    {
      "inputs": [],
      "name": "primeRBAC",
      "outputs": [
        {
          "internalType": "contract IPrimeRBAC",
          "name": "",
          "type": "address"
        }
      ],
      "stateMutability": "view",
      "type": "function"
    },
    {
      "inputs": [
        {
          "internalType": "bool",
          "name": "_allowDeposits",
          "type": "bool"
        }
      ],
      "name": "setAllowDeposits",
      "outputs": [],
      "stateMutability": "nonpayable",
      "type": "function"
    },
    {
      "inputs": [
        {
          "internalType": "bool",
          "name": "_allowWithdraws",
          "type": "bool"
        }
      ],
      "name": "setAllowWithdraws",
      "outputs": [],
      "stateMutability": "nonpayable",
      "type": "function"
    },
    {
      "inputs": [
        {
          "internalType": "contract Authority",
          "name": "newAuthority",
          "type": "address"
        }
      ],
      "name": "setAuthority",
      "outputs": [],
      "stateMutability": "nonpayable",
      "type": "function"
    },
    {
      "inputs": [
        {
          "internalType": "contract IBufferHelper",
          "name": "_depositBufferHelper",
          "type": "address"
        }
      ],
      "name": "setDepositBufferHelper",
      "outputs": [],
      "stateMutability": "nonpayable",
      "type": "function"
    },
    {
      "inputs": [
        {
          "internalType": "uint112",
          "name": "cap",
          "type": "uint112"
        }
      ],
      "name": "setDepositCap",
      "outputs": [],
      "stateMutability": "nonpayable",
      "type": "function"
    },
    {
      "inputs": [
        {
          "internalType": "address",
          "name": "_distributor",
          "type": "address"
        }
      ],
      "name": "setDistributor",
      "outputs": [],
      "stateMutability": "nonpayable",
      "type": "function"
    },
    {
      "inputs": [
        {
          "internalType": "uint64",
          "name": "_shareLockPeriod",
          "type": "uint64"
        }
      ],
      "name": "setShareLockPeriod",
      "outputs": [],
      "stateMutability": "nonpayable",
      "type": "function"
    },
    {
      "inputs": [
        {
          "internalType": "contract IBufferHelper",
          "name": "_withdrawBufferHelper",
          "type": "address"
        }
      ],
      "name": "setWithdrawBufferHelper",
      "outputs": [],
      "stateMutability": "nonpayable",
      "type": "function"
    },
    {
      "inputs": [],
      "name": "tellerState",
      "outputs": [
        {
          "internalType": "bool",
          "name": "allowDeposits",
          "type": "bool"
        },
        {
          "internalType": "bool",
          "name": "allowWithdraws",
          "type": "bool"
        },
        {
          "internalType": "uint64",
          "name": "shareLockPeriod",
          "type": "uint64"
        },
        {
          "internalType": "uint112",
          "name": "depositCap",
          "type": "uint112"
        }
      ],
      "stateMutability": "view",
      "type": "function"
    },
    {
      "inputs": [
        {
          "internalType": "address",
          "name": "newOwner",
          "type": "address"
        }
      ],
      "name": "transferOwnership",
      "outputs": [],
      "stateMutability": "nonpayable",
      "type": "function"
    },
    {
      "inputs": [],
      "name": "unpause",
      "outputs": [],
      "stateMutability": "nonpayable",
      "type": "function"
    },
    {
      "inputs": [],
      "name": "vault",
      "outputs": [
        {
          "internalType": "contract BoringVault",
          "name": "",
          "type": "address"
        }
      ],
      "stateMutability": "view",
      "type": "function"
    },
    {
      "inputs": [],
      "name": "version",
      "outputs": [
        {
          "internalType": "string",
          "name": "",
          "type": "string"
        }
      ],
      "stateMutability": "pure",
      "type": "function"
    },
    {
      "inputs": [
        {
          "internalType": "uint256",
          "name": "shareAmount",
          "type": "uint256"
        },
        {
          "internalType": "uint256",
          "name": "minimumAssets",
          "type": "uint256"
        },
        {
          "internalType": "address",
          "name": "to",
          "type": "address"
        }
      ],
      "name": "withdraw",
      "outputs": [
        {
          "internalType": "uint256",
          "name": "assetsOut",
          "type": "uint256"
        }
      ],
      "stateMutability": "nonpayable",
      "type": "function"
    }
  ],
  "bytecode": "0x6101006040526001600355348015610015575f5ffd5b50604051614c35380380614c358339818101604052810190610037919061059c565b828282828273ffffffffffffffffffffffffffffffffffffffff1663bf7e214f6040518163ffffffff1660e01b8152600401602060405180830381865afa158015610084573d5f5f3e3d5ffd5b505050506040513d601f19601f820116820180604052508101906100a89190610627565b3381815f5f6101000a81548173ffffffffffffffffffffffffffffffffffffffff021916908373ffffffffffffffffffffffffffffffffffffffff1602179055508060015f6101000a81548173ffffffffffffffffffffffffffffffffffffffff021916908373ffffffffffffffffffffffffffffffffffffffff1602179055508173ffffffffffffffffffffffffffffffffffffffff163373ffffffffffffffffffffffffffffffffffffffff167f8be0079c531659141344cd1fd0a4f28419497f9722a3daafe3b4186f6b6457e060405160405180910390a38073ffffffffffffffffffffffffffffffffffffffff163373ffffffffffffffffffffffffffffffffffffffff167fa3396fd7f6e0a21b50e5089d2da70d5ac0a3bbbd1f617a93f134b7638998019860405160405180910390a350505f73ffffffffffffffffffffffffffffffffffffffff168273ffffffffffffffffffffffffffffffffffffffff16148061024457505f73ffffffffffffffffffffffffffffffffffffffff168173ffffffffffffffffffffffffffffffffffffffff16145b1561027b576040517f538ba4f900000000000000000000000000000000000000000000000000000000815260040160405180910390fd5b8160025f6101000a81548173ffffffffffffffffffffffffffffffffffffffff021916908373ffffffffffffffffffffffffffffffffffffffff16021790555050508173ffffffffffffffffffffffffffffffffffffffff1660a08173ffffffffffffffffffffffffffffffffffffffff168152505060a05173ffffffffffffffffffffffffffffffffffffffff1663313ce5676040518163ffffffff1660e01b8152600401602060405180830381865afa15801561033c573d5f5f3e3d5ffd5b505050506040513d601f19601f820116820180604052508101906103609190610688565b600a61036c9190610818565b60e081815250508073ffffffffffffffffffffffffffffffffffffffff1660c08173ffffffffffffffffffffffffffffffffffffffff168152505060a05173ffffffffffffffffffffffffffffffffffffffff166338d52e0f6040518163ffffffff1660e01b8152600401602060405180830381865afa1580156103f2573d5f5f3e3d5ffd5b505050506040513d601f19601f82011682018060405250810190610416919061089d565b73ffffffffffffffffffffffffffffffffffffffff1660808173ffffffffffffffffffffffffffffffffffffffff168152505060405180608001604052806001151581526020016001151581526020015f67ffffffffffffffff1681526020016dffffffffffffffffffffffffffff801681525060045f820151815f015f6101000a81548160ff0219169083151502179055506020820151815f0160016101000a81548160ff0219169083151502179055506040820151815f0160026101000a81548167ffffffffffffffff021916908367ffffffffffffffff1602179055506060820151815f01600a6101000a8154816dffffffffffffffffffffffffffff02191690836dffffffffffffffffffffffffffff1602179055509050505050505050506108c8565b5f5ffd5b5f73ffffffffffffffffffffffffffffffffffffffff82169050919050565b5f61056b82610542565b9050919050565b61057b81610561565b8114610585575f5ffd5b50565b5f8151905061059681610572565b92915050565b5f5f5f606084860312156105b3576105b261053e565b5b5f6105c086828701610588565b93505060206105d186828701610588565b92505060406105e286828701610588565b9150509250925092565b5f6105f682610561565b9050919050565b610606816105ec565b8114610610575f5ffd5b50565b5f81519050610621816105fd565b92915050565b5f6020828403121561063c5761063b61053e565b5b5f61064984828501610613565b91505092915050565b5f60ff82169050919050565b61066781610652565b8114610671575f5ffd5b50565b5f815190506106828161065e565b92915050565b5f6020828403121561069d5761069c61053e565b5b5f6106aa84828501610674565b91505092915050565b7f4e487b71000000000000000000000000000000000000000000000000000000005f52601160045260245ffd5b5f8160011c9050919050565b5f5f8291508390505b600185111561073557808604811115610711576107106106b3565b5b60018516156107205780820291505b808102905061072e856106e0565b94506106f5565b94509492505050565b5f8261074d5760019050610808565b8161075a575f9050610808565b8160018114610770576002811461077a576107a9565b6001915050610808565b60ff84111561078c5761078b6106b3565b5b8360020a9150848211156107a3576107a26106b3565b5b50610808565b5060208310610133831016604e8410600b84101617156107de5782820a9050838111156107d9576107d86106b3565b5b610808565b6107eb84848460016106ec565b92509050818404811115610802576108016106b3565b5b81810290505b9392505050565b5f819050919050565b5f6108228261080f565b915061082d83610652565b925061085a7fffffffffffffffffffffffffffffffffffffffffffffffffffffffffffffffff848461073e565b905092915050565b5f61086c82610561565b9050919050565b61087c81610862565b8114610886575f5ffd5b50565b5f8151905061089781610873565b92915050565b5f602082840312156108b2576108b161053e565b5b5f6108bf84828501610889565b91505092915050565b60805160a05160c05160e0516142d861095d5f395f818161256601526127e601525f8181610fb9015281816123e3015281816124d9015261280701525f8181612285015281816125dc0152818161292501528181612a5201528181612d060152612ecd01525f818161092b01528181610c5f01528181611254015281816113a101528181612c7f0152612e4601526142d85ff3fe608060405234801561000f575f5ffd5b50600436106101ee575f3560e01c806373ad629c1161010d578063a6549221116100a0578063e37d7e681161006f578063e37d7e681461056c578063e99109651461058a578063f2fde38b146105a8578063fbfa77cf146105c4576101ee565b8063a6549221146104f6578063b187bd2614610512578063bf7e214f14610530578063bfe109281461054e576101ee565b80638456cb59116100dc5780638456cb59146104825780638da5cb5b1461048c5780638dbdbe6d146104aa5780639300003a146104da576101ee565b806373ad629c1461041257806375619ab51461042e5780637a9e5e4b1461044a5780637bd876b614610466576101ee565b80634fb3ccc511610185578063657ae3f111610154578063657ae3f11461036157806367e1efc31461039157806368119bc5146103c157806368cbc755146103f1576101ee565b80634fb3ccc5146102d957806354fd4d50146102f75780635710b03f146103155780635c46543014610331576101ee565b80631f23afc8116101c15780631f23afc81461027957806338d52e0f146102955780633f4ba83a146102b35780634c3bde42146102bd576101ee565b8063088c644d146101f25780630ad58d2f1461020e5780630d8ada4e1461023e57806312056e2d1461025d575b5f5ffd5b61020c60048036038101906102079190613031565b6105e2565b005b610228600480360381019061022391906130b9565b610800565b6040516102359190613118565b60405180910390f35b6102466109a6565b60405161025492919061318c565b60405180910390f35b610277600480360381019061027291906131f0565b6109f5565b005b610293600480360381019061028e9190613250565b610b39565b005b61029d610c5d565b6040516102aa919061329b565b60405180910390f35b6102bb610c81565b005b6102d760048036038101906102d29190613031565b610d98565b005b6102e1610fb7565b6040516102ee91906132d4565b60405180910390f35b6102ff610fdb565b60405161030c919061335d565b60405180910390f35b61032f600480360381019061032a9190613031565b611009565b005b61034b6004803603810190610346919061337d565b61110f565b6040516103589190613118565b60405180910390f35b61037b600480360381019061037691906130b9565b611129565b6040516103889190613118565b60405180910390f35b6103ab60048036038101906103a691906130b9565b6112cf565b6040516103b89190613118565b60405180910390f35b6103db60048036038101906103d69190613031565b61141c565b6040516103e891906133b7565b60405180910390f35b6103f9611439565b6040516104099493929190613407565b60405180910390f35b61042c60048036038101906104279190613250565b61149a565b005b6104486004803603810190610443919061337d565b6115bf565b005b610464600480360381019061045f9190613485565b6116d1565b005b610480600480360381019061047b91906134da565b61188c565b005b61048a6119cc565b005b610494611ae4565b6040516104a19190613514565b60405180910390f35b6104c460048036038101906104bf91906130b9565b611b08565b6040516104d19190613118565b60405180910390f35b6104f460048036038101906104ef9190613031565b611c4c565b005b610510600480360381019061050b919061352d565b611db6565b005b61051a612038565b60405161052791906133b7565b60405180910390f35b61053861204b565b60405161054591906135b1565b60405180910390f35b610556612070565b60405161056391906135ea565b60405180910390f35b610574612095565b6040516105819190613623565b60405180910390f35b6105926120ba565b60405161059f91906136bc565b60405180910390f35b6105c260048036038101906105bd919061337d565b61217b565b005b6105cc612283565b6040516105d99190613706565b60405180910390f35b60025f9054906101000a900473ffffffffffffffffffffffffffffffffffffffff1673ffffffffffffffffffffffffffffffffffffffff1663d35911f2336040518263ffffffff1660e01b815260040161063c9190613514565b602060405180830381865afa158015610657573d5f5f3e3d5ffd5b505050506040513d601f19601f8201168201806040525081019061067b9190613733565b6106b1576040517fdc85555400000000000000000000000000000000000000000000000000000000815260040160405180910390fd5b60095f8273ffffffffffffffffffffffffffffffffffffffff1673ffffffffffffffffffffffffffffffffffffffff1681526020019081526020015f205f9054906101000a900460ff168061073157505f73ffffffffffffffffffffffffffffffffffffffff168173ffffffffffffffffffffffffffffffffffffffff16145b156107c0578060075f015f6101000a81548173ffffffffffffffffffffffffffffffffffffffff021916908373ffffffffffffffffffffffffffffffffffffffff1602179055508073ffffffffffffffffffffffffffffffffffffffff167f421ac73f226261ee4c66488795b53b363d3335b860babcefd318c1f8f10c022360405160405180910390a26107fd565b806040517fdb1785f50000000000000000000000000000000000000000000000000000000081526004016107f4919061375e565b60405180910390fd5b50565b5f61082e335f357fffffffff00000000000000000000000000000000000000000000000000000000166122a7565b61086d576040517f08c379a0000000000000000000000000000000000000000000000000000000008152600401610864906137c1565b60405180910390fd5b6001600354146108b2576040517f08c379a00000000000000000000000000000000000000000000000000000000081526004016108a990613829565b60405180910390fd5b60026003819055506108c26123e0565b73ffffffffffffffffffffffffffffffffffffffff166302ce728f6040518163ffffffff1660e01b81526004015f604051808303815f87803b158015610906575f5ffd5b505af1158015610918573d5f5f3e3d5ffd5b50505050610927848484612407565b90507f000000000000000000000000000000000000000000000000000000000000000073ffffffffffffffffffffffffffffffffffffffff167f884edad9ce6fa2440d8a54cc123490eb96d2768479d49ff9c7366125a94243648560405161098f9190613118565b60405180910390a260016003819055509392505050565b6007805f015f9054906101000a900473ffffffffffffffffffffffffffffffffffffffff1690806001015f9054906101000a900473ffffffffffffffffffffffffffffffffffffffff16905082565b60025f9054906101000a900473ffffffffffffffffffffffffffffffffffffffff1673ffffffffffffffffffffffffffffffffffffffff1663d35911f2336040518263ffffffff1660e01b8152600401610a4f9190613514565b602060405180830381865afa158015610a6a573d5f5f3e3d5ffd5b505050506040513d601f19601f82011682018060405250810190610a8e9190613733565b610ac4576040517fdc85555400000000000000000000000000000000000000000000000000000000815260040160405180910390fd5b6203f4808167ffffffffffffffff161115610b0b576040517fb243837200000000000000000000000000000000000000000000000000000000815260040160405180910390fd5b8060045f0160026101000a81548167ffffffffffffffff021916908367ffffffffffffffff16021790555050565b60025f9054906101000a900473ffffffffffffffffffffffffffffffffffffffff1673ffffffffffffffffffffffffffffffffffffffff1663d35911f2336040518263ffffffff1660e01b8152600401610b939190613514565b602060405180830381865afa158015610bae573d5f5f3e3d5ffd5b505050506040513d601f19601f82011682018060405250810190610bd29190613733565b610c08576040517fdc85555400000000000000000000000000000000000000000000000000000000815260040160405180910390fd5b8060045f015f6101000a81548160ff0219169083151502179055507f64135eada30d50353f01495f95ccc6e95ab8a53af94da04b62c3b060092283e581604051610c5291906133b7565b60405180910390a150565b7f000000000000000000000000000000000000000000000000000000000000000081565b60025f9054906101000a900473ffffffffffffffffffffffffffffffffffffffff1673ffffffffffffffffffffffffffffffffffffffff1663d35911f2336040518263ffffffff1660e01b8152600401610cdb9190613514565b602060405180830381865afa158015610cf6573d5f5f3e3d5ffd5b505050506040513d601f19601f82011682018060405250810190610d1a9190613733565b610d50576040517fdc85555400000000000000000000000000000000000000000000000000000000815260040160405180910390fd5b5f600260146101000a81548160ff0219169083151502179055507fa45f47fdea8a1efdd9029a5691c7f759c32b7c698632b563573e155625d1693360405160405180910390a1565b60025f9054906101000a900473ffffffffffffffffffffffffffffffffffffffff1673ffffffffffffffffffffffffffffffffffffffff1663d35911f2336040518263ffffffff1660e01b8152600401610df29190613514565b602060405180830381865afa158015610e0d573d5f5f3e3d5ffd5b505050506040513d601f19601f82011682018060405250810190610e319190613733565b610e67576040517fdc85555400000000000000000000000000000000000000000000000000000000815260040160405180910390fd5b60095f8273ffffffffffffffffffffffffffffffffffffffff1673ffffffffffffffffffffffffffffffffffffffff1681526020019081526020015f205f9054906101000a900460ff1680610ee757505f73ffffffffffffffffffffffffffffffffffffffff168173ffffffffffffffffffffffffffffffffffffffff16145b15610f77578060076001015f6101000a81548173ffffffffffffffffffffffffffffffffffffffff021916908373ffffffffffffffffffffffffffffffffffffffff1602179055508073ffffffffffffffffffffffffffffffffffffffff167ffb7258ef087c9bc5a9a50c1beea112ed1a53c8dd98f107673aba61937bdcdfcd60405160405180910390a2610fb4565b806040517fdb1785f5000000000000000000000000000000000000000000000000000000008152600401610fab919061375e565b60405180910390fd5b50565b7f000000000000000000000000000000000000000000000000000000000000000081565b6060610fe561266e565b604051602001610ff591906138cb565b604051602081830303815290604052905090565b611036335f357fffffffff00000000000000000000000000000000000000000000000000000000166122a7565b611075576040517f08c379a000000000000000000000000000000000000000000000000000000000815260040161106c906137c1565b60405180910390fd5b5f60095f8373ffffffffffffffffffffffffffffffffffffffff1673ffffffffffffffffffffffffffffffffffffffff1681526020019081526020015f205f6101000a81548160ff0219169083151502179055508073ffffffffffffffffffffffffffffffffffffffff167fa451ec34a599afd13d737b271bcd194cd2c3b891df79bc124da826c7f1e1439560405160405180910390a250565b6005602052805f5260405f205f91509050805f0154905081565b5f611157335f357fffffffff00000000000000000000000000000000000000000000000000000000166122a7565b611196576040517f08c379a000000000000000000000000000000000000000000000000000000000815260040161118d906137c1565b60405180910390fd5b6001600354146111db576040517f08c379a00000000000000000000000000000000000000000000000000000000081526004016111d290613829565b60405180910390fd5b60026003819055506111eb6123e0565b73ffffffffffffffffffffffffffffffffffffffff166302ce728f6040518163ffffffff1660e01b81526004015f604051808303815f87803b15801561122f575f5ffd5b505af1158015611241573d5f5f3e3d5ffd5b50505050611250848484612407565b90507f000000000000000000000000000000000000000000000000000000000000000073ffffffffffffffffffffffffffffffffffffffff167fdcc60b41ff1c604459e6aa4a7299817416b19fc586a392f111646e26597c4af9856040516112b89190613118565b60405180910390a260016003819055509392505050565b5f6112fd335f357fffffffff00000000000000000000000000000000000000000000000000000000166122a7565b61133c576040517f08c379a0000000000000000000000000000000000000000000000000000000008152600401611333906137c1565b60405180910390fd5b600160035414611381576040517f08c379a000000000000000000000000000000000000000000000000000000000815260040161137890613829565b60405180910390fd5b60026003819055506113916126ab565b61139d84843385612740565b90507f000000000000000000000000000000000000000000000000000000000000000073ffffffffffffffffffffffffffffffffffffffff167f6f9b974223f85a1ae805c33b8b519039e2435481d949db1110de151a94d587af856040516114059190613118565b60405180910390a260016003819055509392505050565b6009602052805f5260405f205f915054906101000a900460ff1681565b6004805f015f9054906101000a900460ff1690805f0160019054906101000a900460ff1690805f0160029054906101000a900467ffffffffffffffff1690805f01600a9054906101000a90046dffffffffffffffffffffffffffff16905084565b60025f9054906101000a900473ffffffffffffffffffffffffffffffffffffffff1673ffffffffffffffffffffffffffffffffffffffff1663d35911f2336040518263ffffffff1660e01b81526004016114f49190613514565b602060405180830381865afa15801561150f573d5f5f3e3d5ffd5b505050506040513d601f19601f820116820180604052508101906115339190613733565b611569576040517fdc85555400000000000000000000000000000000000000000000000000000000815260040160405180910390fd5b8060045f0160016101000a81548160ff0219169083151502179055507fd620fa2aed717c0d930cd04a59339f11dc1074a41073255d6072540a0a1a2b53816040516115b491906133b7565b60405180910390a150565b60025f9054906101000a900473ffffffffffffffffffffffffffffffffffffffff1673ffffffffffffffffffffffffffffffffffffffff1663d35911f2336040518263ffffffff1660e01b81526004016116199190613514565b602060405180830381865afa158015611634573d5f5f3e3d5ffd5b505050506040513d601f19601f820116820180604052508101906116589190613733565b61168e576040517fdc85555400000000000000000000000000000000000000000000000000000000815260040160405180910390fd5b8060065f6101000a81548173ffffffffffffffffffffffffffffffffffffffff021916908373ffffffffffffffffffffffffffffffffffffffff16021790555050565b5f5f9054906101000a900473ffffffffffffffffffffffffffffffffffffffff1673ffffffffffffffffffffffffffffffffffffffff163373ffffffffffffffffffffffffffffffffffffffff1614806117e7575060015f9054906101000a900473ffffffffffffffffffffffffffffffffffffffff1673ffffffffffffffffffffffffffffffffffffffff1663b700961333305f357fffffffff00000000000000000000000000000000000000000000000000000000166040518463ffffffff1660e01b81526004016117a793929190613926565b602060405180830381865afa1580156117c2573d5f5f3e3d5ffd5b505050506040513d601f19601f820116820180604052508101906117e69190613733565b5b6117ef575f5ffd5b8060015f6101000a81548173ffffffffffffffffffffffffffffffffffffffff021916908373ffffffffffffffffffffffffffffffffffffffff1602179055508073ffffffffffffffffffffffffffffffffffffffff163373ffffffffffffffffffffffffffffffffffffffff167fa3396fd7f6e0a21b50e5089d2da70d5ac0a3bbbd1f617a93f134b7638998019860405160405180910390a350565b60025f9054906101000a900473ffffffffffffffffffffffffffffffffffffffff1673ffffffffffffffffffffffffffffffffffffffff1663d35911f2336040518263ffffffff1660e01b81526004016118e69190613514565b602060405180830381865afa158015611901573d5f5f3e3d5ffd5b505050506040513d601f19601f820116820180604052508101906119259190613733565b61195b576040517fdc85555400000000000000000000000000000000000000000000000000000000815260040160405180910390fd5b8060045f01600a6101000a8154816dffffffffffffffffffffffffffff02191690836dffffffffffffffffffffffffffff1602179055507f752cd3d8df6864142257fa3a2e02aedf2dc09f1875c2a25b4f117d45c7334d5d816040516119c1919061395b565b60405180910390a150565b60025f9054906101000a900473ffffffffffffffffffffffffffffffffffffffff1673ffffffffffffffffffffffffffffffffffffffff1663d35911f2336040518263ffffffff1660e01b8152600401611a269190613514565b602060405180830381865afa158015611a41573d5f5f3e3d5ffd5b505050506040513d601f19601f82011682018060405250810190611a659190613733565b611a9b576040517fdc85555400000000000000000000000000000000000000000000000000000000815260040160405180910390fd5b6001600260146101000a81548160ff0219169083151502179055507f9e87fac88ff661f02d44f95383c817fece4bce600a3dab7a54406878b965e75260405160405180910390a1565b5f5f9054906101000a900473ffffffffffffffffffffffffffffffffffffffff1681565b5f611b36335f357fffffffff00000000000000000000000000000000000000000000000000000000166122a7565b611b75576040517f08c379a0000000000000000000000000000000000000000000000000000000008152600401611b6c906137c1565b60405180910390fd5b600160035414611bba576040517f08c379a0000000000000000000000000000000000000000000000000000000008152600401611bb190613829565b60405180910390fd5b60026003819055505f73ffffffffffffffffffffffffffffffffffffffff168273ffffffffffffffffffffffffffffffffffffffff1603611bf9573391505b611c016126ab565b611c0d84843385612740565b9050611c3d82858360045f0160029054906101000a900467ffffffffffffffff1667ffffffffffffffff16612aee565b60016003819055509392505050565b60025f9054906101000a900473ffffffffffffffffffffffffffffffffffffffff1673ffffffffffffffffffffffffffffffffffffffff1663d35911f2336040518263ffffffff1660e01b8152600401611ca69190613514565b602060405180830381865afa158015611cc1573d5f5f3e3d5ffd5b505050506040513d601f19601f82011682018060405250810190611ce59190613733565b611d1b576040517fdc85555400000000000000000000000000000000000000000000000000000000815260040160405180910390fd5b600160095f8373ffffffffffffffffffffffffffffffffffffffff1673ffffffffffffffffffffffffffffffffffffffff1681526020019081526020015f205f6101000a81548160ff0219169083151502179055508073ffffffffffffffffffffffffffffffffffffffff167fbbd1060adb905a8ecf06a33a19b4c634caaec5ef6268043300f69a75ea332e3160405160405180910390a250565b5f73ffffffffffffffffffffffffffffffffffffffff1660065f9054906101000a900473ffffffffffffffffffffffffffffffffffffffff1673ffffffffffffffffffffffffffffffffffffffff1614611f81575f73ffffffffffffffffffffffffffffffffffffffff168473ffffffffffffffffffffffffffffffffffffffff1614611ec55760065f9054906101000a900473ffffffffffffffffffffffffffffffffffffffff1673ffffffffffffffffffffffffffffffffffffffff1663f0ea5915856040518263ffffffff1660e01b8152600401611e979190613514565b5f604051808303815f87803b158015611eae575f5ffd5b505af1158015611ec0573d5f5f3e3d5ffd5b505050505b5f73ffffffffffffffffffffffffffffffffffffffff168373ffffffffffffffffffffffffffffffffffffffff1614611f805760065f9054906101000a900473ffffffffffffffffffffffffffffffffffffffff1673ffffffffffffffffffffffffffffffffffffffff1663f0ea5915846040518263ffffffff1660e01b8152600401611f529190613514565b5f604051808303815f87803b158015611f69575f5ffd5b505af1158015611f7b573d5f5f3e3d5ffd5b505050505b5b5f73ffffffffffffffffffffffffffffffffffffffff168473ffffffffffffffffffffffffffffffffffffffff1614158015611ffb57504260055f8673ffffffffffffffffffffffffffffffffffffffff1673ffffffffffffffffffffffffffffffffffffffff1681526020019081526020015f205f0154115b15612032576040517f9e4dc5da00000000000000000000000000000000000000000000000000000000815260040160405180910390fd5b50505050565b600260149054906101000a900460ff1681565b60015f9054906101000a900473ffffffffffffffffffffffffffffffffffffffff1681565b60065f9054906101000a900473ffffffffffffffffffffffffffffffffffffffff1681565b60025f9054906101000a900473ffffffffffffffffffffffffffffffffffffffff1681565b6120c2612f73565b60046040518060800160405290815f82015f9054906101000a900460ff161515151581526020015f820160019054906101000a900460ff161515151581526020015f820160029054906101000a900467ffffffffffffffff1667ffffffffffffffff1667ffffffffffffffff1681526020015f8201600a9054906101000a90046dffffffffffffffffffffffffffff166dffffffffffffffffffffffffffff166dffffffffffffffffffffffffffff1681525050905090565b6121a8335f357fffffffff00000000000000000000000000000000000000000000000000000000166122a7565b6121e7576040517f08c379a00000000000000000000000000000000000000000000000000000000081526004016121de906137c1565b60405180910390fd5b805f5f6101000a81548173ffffffffffffffffffffffffffffffffffffffff021916908373ffffffffffffffffffffffffffffffffffffffff1602179055508073ffffffffffffffffffffffffffffffffffffffff163373ffffffffffffffffffffffffffffffffffffffff167f8be0079c531659141344cd1fd0a4f28419497f9722a3daafe3b4186f6b6457e060405160405180910390a350565b7f000000000000000000000000000000000000000000000000000000000000000081565b5f5f60015f9054906101000a900473ffffffffffffffffffffffffffffffffffffffff1690505f73ffffffffffffffffffffffffffffffffffffffff168173ffffffffffffffffffffffffffffffffffffffff161415801561238157508073ffffffffffffffffffffffffffffffffffffffff1663b70096138530866040518463ffffffff1660e01b815260040161234193929190613926565b602060405180830381865afa15801561235c573d5f5f3e3d5ffd5b505050506040513d601f19601f820116820180604052508101906123809190613733565b5b806123d757505f5f9054906101000a900473ffffffffffffffffffffffffffffffffffffffff1673ffffffffffffffffffffffffffffffffffffffff168473ffffffffffffffffffffffffffffffffffffffff16145b91505092915050565b5f7f0000000000000000000000000000000000000000000000000000000000000000905090565b5f5f60049050600260149054906101000a900460ff1615612454576040517fe0f850f400000000000000000000000000000000000000000000000000000000815260040160405180910390fd5b805f0160019054906101000a900460ff1661249b576040517f5c786cb100000000000000000000000000000000000000000000000000000000815260040160405180910390fd5b5f85036124d4576040517f8cb116db00000000000000000000000000000000000000000000000000000000815260040160405180910390fd5b6125957f000000000000000000000000000000000000000000000000000000000000000073ffffffffffffffffffffffffffffffffffffffff1663679aefce6040518163ffffffff1660e01b8152600401602060405180830381865afa158015612540573d5f5f3e3d5ffd5b505050506040513d601f19601f820116820180604052508101906125649190613988565b7f000000000000000000000000000000000000000000000000000000000000000087612ba29092919063ffffffff16565b9150838210156125d1576040517f13d905c000000000000000000000000000000000000000000000000000000000815260040160405180910390fd5b6125da82612be3565b7f000000000000000000000000000000000000000000000000000000000000000073ffffffffffffffffffffffffffffffffffffffff166392f93232848433896040518563ffffffff1660e01b815260040161263994939291906139b3565b5f604051808303815f87803b158015612650575f5ffd5b505af1158015612662573d5f5f3e3d5ffd5b50505050509392505050565b60606040518060400160405280600981526020017f426173652056302e310000000000000000000000000000000000000000000000815250905090565b5f60049050600260149054906101000a900460ff16156126f7576040517fe0f850f400000000000000000000000000000000000000000000000000000000815260040160405180910390fd5b805f015f9054906101000a900460ff1661273d576040517f9d43097e00000000000000000000000000000000000000000000000000000000815260040160405180910390fd5b50565b5f6127496123e0565b73ffffffffffffffffffffffffffffffffffffffff166302ce728f6040518163ffffffff1660e01b81526004015f604051808303815f87803b15801561278d575f5ffd5b505af115801561279f573d5f5f3e3d5ffd5b505050505f600490505f86036127e1576040517f2a27fe7000000000000000000000000000000000000000000000000000000000815260040160405180910390fd5b6128a27f00000000000000000000000000000000000000000000000000000000000000007f000000000000000000000000000000000000000000000000000000000000000073ffffffffffffffffffffffffffffffffffffffff1663679aefce6040518163ffffffff1660e01b8152600401602060405180830381865afa15801561286e573d5f5f3e3d5ffd5b505050506040513d601f19601f820116820180604052508101906128929190613988565b88612ba29092919063ffffffff16565b9150848210156128de576040517f89ae4c3b00000000000000000000000000000000000000000000000000000000815260040160405180910390fd5b6dffffffffffffffffffffffffffff8016815f01600a9054906101000a90046dffffffffffffffffffffffffffff166dffffffffffffffffffffffffffff1614612a50575f7f000000000000000000000000000000000000000000000000000000000000000073ffffffffffffffffffffffffffffffffffffffff166318160ddd6040518163ffffffff1660e01b8152600401602060405180830381865afa15801561298c573d5f5f3e3d5ffd5b505050506040513d601f19601f820116820180604052508101906129b09190613988565b836129bb9190613a23565b9050815f01600a9054906101000a90046dffffffffffffffffffffffffffff166dffffffffffffffffffffffffffff16811115612a4e5780825f01600a9054906101000a90046dffffffffffffffffffffffffffff166040517f43e28bca000000000000000000000000000000000000000000000000000000008152600401612a45929190613a86565b60405180910390fd5b505b7f000000000000000000000000000000000000000000000000000000000000000073ffffffffffffffffffffffffffffffffffffffff16636baf8dbc858886866040518563ffffffff1660e01b8152600401612aaf94939291906139b3565b5f604051808303815f87803b158015612ac6575f5ffd5b505af1158015612ad8573d5f5f3e3d5ffd5b50505050612ae586612dac565b50949350505050565b5f811115612b46578042612b029190613a23565b60055f8673ffffffffffffffffffffffffffffffffffffffff1673ffffffffffffffffffffffffffffffffffffffff1681526020019081526020015f205f01819055505b8373ffffffffffffffffffffffffffffffffffffffff167f02b63b8e1c579c43105e71e3dd6fa6a50f2999d91c9fdc13b623463ef6a3086b5f85854286604051612b94959493929190613ae6565b60405180910390a250505050565b5f827fffffffffffffffffffffffffffffffffffffffffffffffffffffffffffffffff0484118302158202612bd5575f5ffd5b818385020490509392505050565b5f73ffffffffffffffffffffffffffffffffffffffff1660076001015f9054906101000a900473ffffffffffffffffffffffffffffffffffffffff1673ffffffffffffffffffffffffffffffffffffffff1614612da9575f5f5f60076001015f9054906101000a900473ffffffffffffffffffffffffffffffffffffffff1673ffffffffffffffffffffffffffffffffffffffff1663b27c77bb7f0000000000000000000000000000000000000000000000000000000000000000866040518363ffffffff1660e01b8152600401612cbc929190613b37565b5f60405180830381865afa158015612cd6573d5f5f3e3d5ffd5b505050506040513d5f823e3d601f19601f82011682018060405250810190612cfe9190613ef2565b9250925092507f000000000000000000000000000000000000000000000000000000000000000073ffffffffffffffffffffffffffffffffffffffff1663366d7fe18484846040518463ffffffff1660e01b8152600401612d6193929190614211565b5f604051808303815f875af1158015612d7c573d5f5f3e3d5ffd5b505050506040513d5f823e3d601f19601f82011682018060405250810190612da4919061425b565b505050505b50565b5f73ffffffffffffffffffffffffffffffffffffffff1660075f015f9054906101000a900473ffffffffffffffffffffffffffffffffffffffff1673ffffffffffffffffffffffffffffffffffffffff1614612f70575f5f5f60075f015f9054906101000a900473ffffffffffffffffffffffffffffffffffffffff1673ffffffffffffffffffffffffffffffffffffffff1663975d168c7f0000000000000000000000000000000000000000000000000000000000000000866040518363ffffffff1660e01b8152600401612e83929190613b37565b5f60405180830381865afa158015612e9d573d5f5f3e3d5ffd5b505050506040513d5f823e3d601f19601f82011682018060405250810190612ec59190613ef2565b9250925092507f000000000000000000000000000000000000000000000000000000000000000073ffffffffffffffffffffffffffffffffffffffff1663366d7fe18484846040518463ffffffff1660e01b8152600401612f2893929190614211565b5f604051808303815f875af1158015612f43573d5f5f3e3d5ffd5b505050506040513d5f823e3d601f19601f82011682018060405250810190612f6b919061425b565b505050505b50565b60405180608001604052805f151581526020015f151581526020015f67ffffffffffffffff1681526020015f6dffffffffffffffffffffffffffff1681525090565b5f604051905090565b5f5ffd5b5f5ffd5b5f73ffffffffffffffffffffffffffffffffffffffff82169050919050565b5f612fef82612fc6565b9050919050565b5f61300082612fe5565b9050919050565b61301081612ff6565b811461301a575f5ffd5b50565b5f8135905061302b81613007565b92915050565b5f6020828403121561304657613045612fbe565b5b5f6130538482850161301d565b91505092915050565b5f819050919050565b61306e8161305c565b8114613078575f5ffd5b50565b5f8135905061308981613065565b92915050565b61309881612fe5565b81146130a2575f5ffd5b50565b5f813590506130b38161308f565b92915050565b5f5f5f606084860312156130d0576130cf612fbe565b5b5f6130dd8682870161307b565b93505060206130ee8682870161307b565b92505060406130ff868287016130a5565b9150509250925092565b6131128161305c565b82525050565b5f60208201905061312b5f830184613109565b92915050565b5f819050919050565b5f61315461314f61314a84612fc6565b613131565b612fc6565b9050919050565b5f6131658261313a565b9050919050565b5f6131768261315b565b9050919050565b6131868161316c565b82525050565b5f60408201905061319f5f83018561317d565b6131ac602083018461317d565b9392505050565b5f67ffffffffffffffff82169050919050565b6131cf816131b3565b81146131d9575f5ffd5b50565b5f813590506131ea816131c6565b92915050565b5f6020828403121561320557613204612fbe565b5b5f613212848285016131dc565b91505092915050565b5f8115159050919050565b61322f8161321b565b8114613239575f5ffd5b50565b5f8135905061324a81613226565b92915050565b5f6020828403121561326557613264612fbe565b5b5f6132728482850161323c565b91505092915050565b5f6132858261315b565b9050919050565b6132958161327b565b82525050565b5f6020820190506132ae5f83018461328c565b92915050565b5f6132be8261315b565b9050919050565b6132ce816132b4565b82525050565b5f6020820190506132e75f8301846132c5565b92915050565b5f81519050919050565b5f82825260208201905092915050565b8281835e5f83830152505050565b5f601f19601f8301169050919050565b5f61332f826132ed565b61333981856132f7565b9350613349818560208601613307565b61335281613315565b840191505092915050565b5f6020820190508181035f8301526133758184613325565b905092915050565b5f6020828403121561339257613391612fbe565b5b5f61339f848285016130a5565b91505092915050565b6133b18161321b565b82525050565b5f6020820190506133ca5f8301846133a8565b92915050565b6133d9816131b3565b82525050565b5f6dffffffffffffffffffffffffffff82169050919050565b613401816133df565b82525050565b5f60808201905061341a5f8301876133a8565b61342760208301866133a8565b61343460408301856133d0565b61344160608301846133f8565b95945050505050565b5f61345482612fe5565b9050919050565b6134648161344a565b811461346e575f5ffd5b50565b5f8135905061347f8161345b565b92915050565b5f6020828403121561349a57613499612fbe565b5b5f6134a784828501613471565b91505092915050565b6134b9816133df565b81146134c3575f5ffd5b50565b5f813590506134d4816134b0565b92915050565b5f602082840312156134ef576134ee612fbe565b5b5f6134fc848285016134c6565b91505092915050565b61350e81612fe5565b82525050565b5f6020820190506135275f830184613505565b92915050565b5f5f5f5f6080858703121561354557613544612fbe565b5b5f613552878288016130a5565b9450506020613563878288016130a5565b93505060406135748782880161307b565b9250506060613585878288016130a5565b91505092959194509250565b5f61359b8261315b565b9050919050565b6135ab81613591565b82525050565b5f6020820190506135c45f8301846135a2565b92915050565b5f6135d48261315b565b9050919050565b6135e4816135ca565b82525050565b5f6020820190506135fd5f8301846135db565b92915050565b5f61360d8261315b565b9050919050565b61361d81613603565b82525050565b5f6020820190506136365f830184613614565b92915050565b6136458161321b565b82525050565b613654816131b3565b82525050565b613663816133df565b82525050565b608082015f82015161367d5f85018261363c565b506020820151613690602085018261363c565b5060408201516136a3604085018261364b565b5060608201516136b6606085018261365a565b50505050565b5f6080820190506136cf5f830184613669565b92915050565b5f6136df8261313a565b9050919050565b5f6136f0826136d5565b9050919050565b613700816136e6565b82525050565b5f6020820190506137195f8301846136f7565b92915050565b5f8151905061372d81613226565b92915050565b5f6020828403121561374857613747612fbe565b5b5f6137558482850161371f565b91505092915050565b5f6020820190506137715f83018461317d565b92915050565b7f554e415554484f52495a454400000000000000000000000000000000000000005f82015250565b5f6137ab600c836132f7565b91506137b682613777565b602082019050919050565b5f6020820190508181035f8301526137d88161379f565b9050919050565b7f5245454e5452414e4359000000000000000000000000000000000000000000005f82015250565b5f613813600a836132f7565b915061381e826137df565b602082019050919050565b5f6020820190508181035f83015261384081613807565b9050919050565b5f81905092915050565b7f4275666665722056302e312c20000000000000000000000000000000000000005f82015250565b5f613885600d83613847565b915061389082613851565b600d82019050919050565b5f6138a5826132ed565b6138af8185613847565b93506138bf818560208601613307565b80840191505092915050565b5f6138d582613879565b91506138e1828461389b565b915081905092915050565b5f7fffffffff0000000000000000000000000000000000000000000000000000000082169050919050565b613920816138ec565b82525050565b5f6060820190506139395f830186613505565b6139466020830185613505565b6139536040830184613917565b949350505050565b5f60208201905061396e5f8301846133f8565b92915050565b5f8151905061398281613065565b92915050565b5f6020828403121561399d5761399c612fbe565b5b5f6139aa84828501613974565b91505092915050565b5f6080820190506139c65f830187613505565b6139d36020830186613109565b6139e06040830185613505565b6139ed6060830184613109565b95945050505050565b7f4e487b71000000000000000000000000000000000000000000000000000000005f52601160045260245ffd5b5f613a2d8261305c565b9150613a388361305c565b9250828201905080821115613a5057613a4f6139f6565b5b92915050565b5f613a70613a6b613a66846133df565b613131565b61305c565b9050919050565b613a8081613a56565b82525050565b5f604082019050613a995f830185613109565b613aa66020830184613a77565b9392505050565b5f819050919050565b5f613ad0613acb613ac684613aad565b613131565b61305c565b9050919050565b613ae081613ab6565b82525050565b5f60a082019050613af95f830188613ad7565b613b066020830187613109565b613b136040830186613109565b613b206060830185613109565b613b2d6080830184613109565b9695505050505050565b5f604082019050613b4a5f830185613505565b613b576020830184613109565b9392505050565b5f5ffd5b7f4e487b71000000000000000000000000000000000000000000000000000000005f52604160045260245ffd5b613b9882613315565b810181811067ffffffffffffffff82111715613bb757613bb6613b62565b5b80604052505050565b5f613bc9612fb5565b9050613bd58282613b8f565b919050565b5f67ffffffffffffffff821115613bf457613bf3613b62565b5b602082029050602081019050919050565b5f5ffd5b5f81519050613c178161308f565b92915050565b5f613c2f613c2a84613bda565b613bc0565b90508083825260208201905060208402830185811115613c5257613c51613c05565b5b835b81811015613c7b5780613c678882613c09565b845260208401935050602081019050613c54565b5050509392505050565b5f82601f830112613c9957613c98613b5e565b5b8151613ca9848260208601613c1d565b91505092915050565b5f67ffffffffffffffff821115613ccc57613ccb613b62565b5b602082029050602081019050919050565b5f5ffd5b5f67ffffffffffffffff821115613cfb57613cfa613b62565b5b613d0482613315565b9050602081019050919050565b5f613d23613d1e84613ce1565b613bc0565b905082815260208101848484011115613d3f57613d3e613cdd565b5b613d4a848285613307565b509392505050565b5f82601f830112613d6657613d65613b5e565b5b8151613d76848260208601613d11565b91505092915050565b5f613d91613d8c84613cb2565b613bc0565b90508083825260208201905060208402830185811115613db457613db3613c05565b5b835b81811015613dfb57805167ffffffffffffffff811115613dd957613dd8613b5e565b5b808601613de68982613d52565b85526020850194505050602081019050613db6565b5050509392505050565b5f82601f830112613e1957613e18613b5e565b5b8151613e29848260208601613d7f565b91505092915050565b5f67ffffffffffffffff821115613e4c57613e4b613b62565b5b602082029050602081019050919050565b5f613e6f613e6a84613e32565b613bc0565b90508083825260208201905060208402830185811115613e9257613e91613c05565b5b835b81811015613ebb5780613ea78882613974565b845260208401935050602081019050613e94565b5050509392505050565b5f82601f830112613ed957613ed8613b5e565b5b8151613ee9848260208601613e5d565b91505092915050565b5f5f5f60608486031215613f0957613f08612fbe565b5b5f84015167ffffffffffffffff811115613f2657613f25612fc2565b5b613f3286828701613c85565b935050602084015167ffffffffffffffff811115613f5357613f52612fc2565b5b613f5f86828701613e05565b925050604084015167ffffffffffffffff811115613f8057613f7f612fc2565b5b613f8c86828701613ec5565b9150509250925092565b5f81519050919050565b5f82825260208201905092915050565b5f819050602082019050919050565b613fc881612fe5565b82525050565b5f613fd98383613fbf565b60208301905092915050565b5f602082019050919050565b5f613ffb82613f96565b6140058185613fa0565b935061401083613fb0565b805f5b838110156140405781516140278882613fce565b975061403283613fe5565b925050600181019050614013565b5085935050505092915050565b5f81519050919050565b5f82825260208201905092915050565b5f819050602082019050919050565b5f81519050919050565b5f82825260208201905092915050565b5f61409a82614076565b6140a48185614080565b93506140b4818560208601613307565b6140bd81613315565b840191505092915050565b5f6140d38383614090565b905092915050565b5f602082019050919050565b5f6140f18261404d565b6140fb8185614057565b93508360208202850161410d85614067565b805f5b85811015614148578484038952815161412985826140c8565b9450614134836140db565b925060208a01995050600181019050614110565b50829750879550505050505092915050565b5f81519050919050565b5f82825260208201905092915050565b5f819050602082019050919050565b61418c8161305c565b82525050565b5f61419d8383614183565b60208301905092915050565b5f602082019050919050565b5f6141bf8261415a565b6141c98185614164565b93506141d483614174565b805f5b838110156142045781516141eb8882614192565b97506141f6836141a9565b9250506001810190506141d7565b5085935050505092915050565b5f6060820190508181035f8301526142298186613ff1565b9050818103602083015261423d81856140e7565b9050818103604083015261425181846141b5565b9050949350505050565b5f602082840312156142705761426f612fbe565b5b5f82015167ffffffffffffffff81111561428d5761428c612fc2565b5b61429984828501613e05565b9150509291505056fea26469706673582212207e817229bb35afcb9218f92c7d5e6dc7921d4db2670aa81348df92da1bf11c4e64736f6c634300081e0033",
  "linkReferences": {},
  "deployedLinkReferences": {},
  "immutableReferences": {
    "11820": [
      {
        "length": 32,
        "start": 2347
      },
      {
        "length": 32,
        "start": 3167
      },
      {
        "length": 32,
        "start": 4692
      },
      {
        "length": 32,
        "start": 5025
      },
      {
        "length": 32,
        "start": 11391
      },
      {
        "length": 32,
        "start": 11846
      }
    ],
    "11834": [
      {
        "length": 32,
        "start": 8837
      },
      {
        "length": 32,
        "start": 9692
      },
      {
        "length": 32,
        "start": 10533
      },
      {
        "length": 32,
        "start": 10834
      },
      {
        "length": 32,
        "start": 11526
      },
      {
        "length": 32,
        "start": 11981
      }
    ],
    "11838": [
      {
        "length": 32,
        "start": 4025
      },
      {
        "length": 32,
        "start": 9187
      },
      {
        "length": 32,
        "start": 9433
      },
      {
        "length": 32,
        "start": 10247
      }
    ],
    "11845": [
      {
        "length": 32,
        "start": 9574
      },
      {
        "length": 32,
        "start": 10214
      }
    ]
  },
  "inputSourceName": "project/contracts/core/TellerWithBuffer.sol",
  "buildInfoId": "solc-0_8_30-e7ac28edc80ee071fd8bf3e691f238b4916e4080"
}