{
  "_format": "hh3-artifact-1",
  "contractName": "PrimeBufferHelper",
  "sourceName": "contracts/helper/PrimeBufferHelper.sol",
  "abi": [
    {
      "inputs": [
        {
          "internalType": "address",
          "name": "_primeStrategist",
          "type": "address"
        },
        {
          "internalType": "address",
          "name": "_vault",
          "type": "address"
        }
      ],
      "stateMutability": "nonpayable",
      "type": "constructor"
    },
    {
      "inputs": [
        {
          "internalType": "address",
          "name": "asset",
          "type": "address"
        },
        {
          "internalType": "uint256",
          "name": "amount",
          "type": "uint256"
        }
      ],
      "name": "getDepositManageCall",
      "outputs": [
        {
          "internalType": "address[]",
          "name": "targets",
          "type": "address[]"
        },
        {
          "internalType": "bytes[]",
          "name": "data",
          "type": "bytes[]"
        },
        {
          "internalType": "uint256[]",
          "name": "values",
          "type": "uint256[]"
        }
      ],
      "stateMutability": "view",
      "type": "function"
    },
    {
      "inputs": [
        {
          "internalType": "address",
          "name": "asset",
          "type": "address"
        },
        {
          "internalType": "uint256",
          "name": "amount",
          "type": "uint256"
        }
      ],
      "name": "getWithdrawManageCall",
      "outputs": [
        {
          "internalType": "address[]",
          "name": "targets",
          "type": "address[]"
        },
        {
          "internalType": "bytes[]",
          "name": "data",
          "type": "bytes[]"
        },
        {
          "internalType": "uint256[]",
          "name": "values",
          "type": "uint256[]"
        }
      ],
      "stateMutability": "view",
      "type": "function"
    },
    {
      "inputs": [],
      "name": "primeStrategist",
      "outputs": [
        {
          "internalType": "address",
          "name": "",
          "type": "address"
        }
      ],
      "stateMutability": "view",
      "type": "function"
    },
    {
      "inputs": [],
      "name": "vault",
      "outputs": [
        {
          "internalType": "address",
          "name": "",
          "type": "address"
        }
      ],
      "stateMutability": "view",
      "type": "function"
    }
  ],
  "bytecode": "0x60c060405234801561000f575f5ffd5b506040516116ec3803806116ec833981810160405281019061003191906100fe565b8173ffffffffffffffffffffffffffffffffffffffff1660808173ffffffffffffffffffffffffffffffffffffffff16815250508073ffffffffffffffffffffffffffffffffffffffff1660a08173ffffffffffffffffffffffffffffffffffffffff1681525050505061013c565b5f5ffd5b5f73ffffffffffffffffffffffffffffffffffffffff82169050919050565b5f6100cd826100a4565b9050919050565b6100dd816100c3565b81146100e7575f5ffd5b50565b5f815190506100f8816100d4565b92915050565b5f5f60408385031215610114576101136100a0565b5b5f610121858286016100ea565b9250506020610132858286016100ea565b9150509250929050565b60805160a0516115496101a35f395f818161011201528181610b7f0152610f4c01525f8181610133015281816102050152818161048401528181610544015281816107fb015281816108bb0152818161098901528181610d3b0152610f2801526115495ff3fe608060405234801561000f575f5ffd5b506004361061004a575f3560e01c8063975d168c1461004e578063b27c77bb14610080578063d6a16d49146100b2578063fbfa77cf146100d0575b5f5ffd5b61006860048036038101906100639190610fff565b6100ee565b604051610077939291906112d6565b60405180910390f35b61009a60048036038101906100959190610fff565b610b5b565b6040516100a9939291906112d6565b60405180910390f35b6100ba610f26565b6040516100c7919061132f565b60405180910390f35b6100d8610f4a565b6040516100e5919061132f565b60405180910390f35b60608060605f8573ffffffffffffffffffffffffffffffffffffffff1663dd62ed3e7f00000000000000000000000000000000000000000000000000000000000000007f00000000000000000000000000000000000000000000000000000000000000006040518363ffffffff1660e01b815260040161016f929190611348565b602060405180830381865afa15801561018a573d5f5f3e3d5ffd5b505050506040513d601f19601f820116820180604052508101906101ae9190611383565b90508481106103e157600167ffffffffffffffff8111156101d2576101d16113ae565b5b6040519080825280602002602001820160405280156102005781602001602082028036833780820191505090505b5093507f0000000000000000000000000000000000000000000000000000000000000000845f81518110610237576102366113db565b5b602002602001019073ffffffffffffffffffffffffffffffffffffffff16908173ffffffffffffffffffffffffffffffffffffffff1681525050600167ffffffffffffffff81111561028c5761028b6113ae565b5b6040519080825280602002602001820160405280156102bf57816020015b60608152602001906001900390816102aa5790505b50925085856040516024016102d5929190611417565b6040516020818303038152906040527f47e7ef24000000000000000000000000000000000000000000000000000000007bffffffffffffffffffffffffffffffffffffffffffffffffffffffff19166020820180517bffffffffffffffffffffffffffffffffffffffffffffffffffffffff8381831617835250505050835f81518110610365576103646113db565b5b6020026020010181905250600167ffffffffffffffff81111561038b5761038a6113ae565b5b6040519080825280602002602001820160405280156103b95781602001602082028036833780820191505090505b5091505f825f815181106103d0576103cf6113db565b5b602002602001018181525050610b53565b5f810361071057600267ffffffffffffffff811115610403576104026113ae565b5b6040519080825280602002602001820160405280156104315781602001602082028036833780820191505090505b50935085845f81518110610448576104476113db565b5b602002602001019073ffffffffffffffffffffffffffffffffffffffff16908173ffffffffffffffffffffffffffffffffffffffff16815250507f0000000000000000000000000000000000000000000000000000000000000000846001815181106104b7576104b66113db565b5b602002602001019073ffffffffffffffffffffffffffffffffffffffff16908173ffffffffffffffffffffffffffffffffffffffff1681525050600267ffffffffffffffff81111561050c5761050b6113ae565b5b60405190808252806020026020018201604052801561053f57816020015b606081526020019060019003908161052a5790505b5092507f000000000000000000000000000000000000000000000000000000000000000085604051602401610575929190611417565b6040516020818303038152906040527f095ea7b3000000000000000000000000000000000000000000000000000000007bffffffffffffffffffffffffffffffffffffffffffffffffffffffff19166020820180517bffffffffffffffffffffffffffffffffffffffffffffffffffffffff8381831617835250505050835f81518110610605576106046113db565b5b60200260200101819052508585604051602401610623929190611417565b6040516020818303038152906040527f47e7ef24000000000000000000000000000000000000000000000000000000007bffffffffffffffffffffffffffffffffffffffffffffffffffffffff19166020820180517bffffffffffffffffffffffffffffffffffffffffffffffffffffffff8381831617835250505050836001815181106106b4576106b36113db565b5b6020026020010181905250600267ffffffffffffffff8111156106da576106d96113ae565b5b6040519080825280602002602001820160405280156107085781602001602082028036833780820191505090505b509150610b52565b600367ffffffffffffffff81111561072b5761072a6113ae565b5b6040519080825280602002602001820160405280156107595781602001602082028036833780820191505090505b50935085845f815181106107705761076f6113db565b5b602002602001019073ffffffffffffffffffffffffffffffffffffffff16908173ffffffffffffffffffffffffffffffffffffffff168152505085846001815181106107bf576107be6113db565b5b602002602001019073ffffffffffffffffffffffffffffffffffffffff16908173ffffffffffffffffffffffffffffffffffffffff16815250507f00000000000000000000000000000000000000000000000000000000000000008460028151811061082e5761082d6113db565b5b602002602001019073ffffffffffffffffffffffffffffffffffffffff16908173ffffffffffffffffffffffffffffffffffffffff1681525050600367ffffffffffffffff811115610883576108826113ae565b5b6040519080825280602002602001820160405280156108b657816020015b60608152602001906001900390816108a15790505b5092507f00000000000000000000000000000000000000000000000000000000000000005f6040516024016108ec92919061148c565b6040516020818303038152906040527f095ea7b3000000000000000000000000000000000000000000000000000000007bffffffffffffffffffffffffffffffffffffffffffffffffffffffff19166020820180517bffffffffffffffffffffffffffffffffffffffffffffffffffffffff8381831617835250505050835f8151811061097c5761097b6113db565b5b60200260200101819052507f0000000000000000000000000000000000000000000000000000000000000000856040516024016109ba929190611417565b6040516020818303038152906040527f095ea7b3000000000000000000000000000000000000000000000000000000007bffffffffffffffffffffffffffffffffffffffffffffffffffffffff19166020820180517bffffffffffffffffffffffffffffffffffffffffffffffffffffffff838183161783525050505083600181518110610a4b57610a4a6113db565b5b60200260200101819052508585604051602401610a69929190611417565b6040516020818303038152906040527f47e7ef24000000000000000000000000000000000000000000000000000000007bffffffffffffffffffffffffffffffffffffffffffffffffffffffff19166020820180517bffffffffffffffffffffffffffffffffffffffffffffffffffffffff838183161783525050505083600281518110610afa57610af96113db565b5b6020026020010181905250600367ffffffffffffffff811115610b2057610b1f6113ae565b5b604051908082528060200260200182016040528015610b4e5781602001602082028036833780820191505090505b5091505b5b509250925092565b60608060605f8573ffffffffffffffffffffffffffffffffffffffff166370a082317f00000000000000000000000000000000000000000000000000000000000000006040518263ffffffff1660e01b8152600401610bba919061132f565b602060405180830381865afa158015610bd5573d5f5f3e3d5ffd5b505050506040513d601f19601f82011682018060405250810190610bf99190611383565b9050848110610ced575f67ffffffffffffffff811115610c1c57610c1b6113ae565b5b604051908082528060200260200182016040528015610c4a5781602001602082028036833780820191505090505b5093505f67ffffffffffffffff811115610c6757610c666113ae565b5b604051908082528060200260200182016040528015610c9a57816020015b6060815260200190600190039081610c855790505b5092505f67ffffffffffffffff811115610cb757610cb66113ae565b5b604051908082528060200260200182016040528015610ce55781602001602082028036833780820191505090505b509150610f1e565b600167ffffffffffffffff811115610d0857610d076113ae565b5b604051908082528060200260200182016040528015610d365781602001602082028036833780820191505090505b5093507f0000000000000000000000000000000000000000000000000000000000000000845f81518110610d6d57610d6c6113db565b5b602002602001019073ffffffffffffffffffffffffffffffffffffffff16908173ffffffffffffffffffffffffffffffffffffffff1681525050600167ffffffffffffffff811115610dc257610dc16113ae565b5b604051908082528060200260200182016040528015610df557816020015b6060815260200190600190039081610de05790505b509250858186610e0591906114e0565b604051602401610e16929190611417565b6040516020818303038152906040527ff3fef3a3000000000000000000000000000000000000000000000000000000007bffffffffffffffffffffffffffffffffffffffffffffffffffffffff19166020820180517bffffffffffffffffffffffffffffffffffffffffffffffffffffffff8381831617835250505050835f81518110610ea657610ea56113db565b5b6020026020010181905250600167ffffffffffffffff811115610ecc57610ecb6113ae565b5b604051908082528060200260200182016040528015610efa5781602001602082028036833780820191505090505b5091505f825f81518110610f1157610f106113db565b5b6020026020010181815250505b509250925092565b7f000000000000000000000000000000000000000000000000000000000000000081565b7f000000000000000000000000000000000000000000000000000000000000000081565b5f5ffd5b5f73ffffffffffffffffffffffffffffffffffffffff82169050919050565b5f610f9b82610f72565b9050919050565b610fab81610f91565b8114610fb5575f5ffd5b50565b5f81359050610fc681610fa2565b92915050565b5f819050919050565b610fde81610fcc565b8114610fe8575f5ffd5b50565b5f81359050610ff981610fd5565b92915050565b5f5f6040838503121561101557611014610f6e565b5b5f61102285828601610fb8565b925050602061103385828601610feb565b9150509250929050565b5f81519050919050565b5f82825260208201905092915050565b5f819050602082019050919050565b61106f81610f91565b82525050565b5f6110808383611066565b60208301905092915050565b5f602082019050919050565b5f6110a28261103d565b6110ac8185611047565b93506110b783611057565b805f5b838110156110e75781516110ce8882611075565b97506110d98361108c565b9250506001810190506110ba565b5085935050505092915050565b5f81519050919050565b5f82825260208201905092915050565b5f819050602082019050919050565b5f81519050919050565b5f82825260208201905092915050565b8281835e5f83830152505050565b5f601f19601f8301169050919050565b5f61115f8261111d565b6111698185611127565b9350611179818560208601611137565b61118281611145565b840191505092915050565b5f6111988383611155565b905092915050565b5f602082019050919050565b5f6111b6826110f4565b6111c081856110fe565b9350836020820285016111d28561110e565b805f5b8581101561120d57848403895281516111ee858261118d565b94506111f9836111a0565b925060208a019950506001810190506111d5565b50829750879550505050505092915050565b5f81519050919050565b5f82825260208201905092915050565b5f819050602082019050919050565b61125181610fcc565b82525050565b5f6112628383611248565b60208301905092915050565b5f602082019050919050565b5f6112848261121f565b61128e8185611229565b935061129983611239565b805f5b838110156112c95781516112b08882611257565b97506112bb8361126e565b92505060018101905061129c565b5085935050505092915050565b5f6060820190508181035f8301526112ee8186611098565b9050818103602083015261130281856111ac565b90508181036040830152611316818461127a565b9050949350505050565b61132981610f91565b82525050565b5f6020820190506113425f830184611320565b92915050565b5f60408201905061135b5f830185611320565b6113686020830184611320565b9392505050565b5f8151905061137d81610fd5565b92915050565b5f6020828403121561139857611397610f6e565b5b5f6113a58482850161136f565b91505092915050565b7f4e487b71000000000000000000000000000000000000000000000000000000005f52604160045260245ffd5b7f4e487b71000000000000000000000000000000000000000000000000000000005f52603260045260245ffd5b61141181610fcc565b82525050565b5f60408201905061142a5f830185611320565b6114376020830184611408565b9392505050565b5f819050919050565b5f60ff82169050919050565b5f819050919050565b5f61147661147161146c8461143e565b611453565b611447565b9050919050565b6114868161145c565b82525050565b5f60408201905061149f5f830185611320565b6114ac602083018461147d565b9392505050565b7f4e487b71000000000000000000000000000000000000000000000000000000005f52601160045260245ffd5b5f6114ea82610fcc565b91506114f583610fcc565b925082820390508181111561150d5761150c6114b3565b5b9291505056fea2646970667358221220f5c8ed34df30c2ba288a26c91f2d8513d7bcc20e2a462693b399bb74bee8de1e64736f6c634300081e0033",
  "linkReferences": {},
  "deployedLinkReferences": {},
  "immutableReferences": {
    "22538": [
      {
        "length": 32,
        "start": 307
      },
      {
        "length": 32,
        "start": 517
      },
      {
        "length": 32,
        "start": 1156
      },
      {
        "length": 32,
        "start": 1348
      },
      {
        "length": 32,
        "start": 2043
      },
      {
        "length": 32,
        "start": 2235
      },
      {
        "length": 32,
        "start": 2441
      },
      {
        "length": 32,
        "start": 3387
      },
      {
        "length": 32,
        "start": 3880
      }
    ],
    "22541": [
      {
        "length": 32,
        "start": 274
      },
      {
        "length": 32,
        "start": 2943
      },
      {
        "length": 32,
        "start": 3916
      }
    ]
  },
  "inputSourceName": "project/contracts/helper/PrimeBufferHelper.sol",
  "buildInfoId": "solc-0_8_30-beb2decf7d274dc7b8fec36cfd5faa8fba2ea8b9"
}