{
  "_format": "hh3-artifact-1",
  "contractName": "TellerWithBuffer",
  "sourceName": "contracts/core/TellerWithBuffer.sol",
  "abi": [
    {
      "inputs": [
        {
          "internalType": "address",
          "name": "_primeRBAC",
          "type": "address"
        },
        {
          "internalType": "address",
          "name": "_vault",
          "type": "address"
        },
        {
          "internalType": "address",
          "name": "_accountant",
          "type": "address"
        }
      ],
      "stateMutability": "nonpayable",
      "type": "constructor"
    },
    {
      "inputs": [],
      "name": "NOT_OWNER",
      "type": "error"
    },
    {
      "inputs": [],
      "name": "NOT_PROTOCOL_ADMIN",
      "type": "error"
    },
    {
      "inputs": [
        {
          "internalType": "contract IBufferHelper",
          "name": "bufferHelper",
          "type": "address"
        }
      ],
      "name": "TellerWithBuffer__BufferHelperNotAllowed",
      "type": "error"
    },
    {
      "inputs": [],
      "name": "Teller__DepositCapReached",
      "type": "error"
    },
    {
      "inputs": [
        {
          "internalType": "uint256",
          "name": "attemptedDeposit",
          "type": "uint256"
        },
        {
          "internalType": "uint256",
          "name": "depositCap",
          "type": "uint256"
        }
      ],
      "name": "Teller__DepositExceedsCap",
      "type": "error"
    },
    {
      "inputs": [],
      "name": "Teller__DepositsNotAllowed",
      "type": "error"
    },
    {
      "inputs": [],
      "name": "Teller__DualDeposit",
      "type": "error"
    },
    {
      "inputs": [],
      "name": "Teller__MinimumAssetsNotMet",
      "type": "error"
    },
    {
      "inputs": [],
      "name": "Teller__MinimumMintNotMet",
      "type": "error"
    },
    {
      "inputs": [],
      "name": "Teller__MinimumSharesNotMet",
      "type": "error"
    },
    {
      "inputs": [],
      "name": "Teller__NotApprovedToTransfer",
      "type": "error"
    },
    {
      "inputs": [],
      "name": "Teller__Paused",
      "type": "error"
    },
    {
      "inputs": [],
      "name": "Teller__PermitFailedAndAllowanceTooLow",
      "type": "error"
    },
    {
      "inputs": [],
      "name": "Teller__ShareLockPeriodTooLong",
      "type": "error"
    },
    {
      "inputs": [],
      "name": "Teller__SharesAreLocked",
      "type": "error"
    },
    {
      "inputs": [
        {
          "internalType": "address",
          "name": "account",
          "type": "address"
        }
      ],
      "name": "Teller__SharesAreUnLocked",
      "type": "error"
    },
    {
      "inputs": [
        {
          "internalType": "address",
          "name": "from",
          "type": "address"
        },
        {
          "internalType": "address",
          "name": "to",
          "type": "address"
        },
        {
          "internalType": "address",
          "name": "operator",
          "type": "address"
        }
      ],
      "name": "Teller__TransferDenied",
      "type": "error"
    },
    {
      "inputs": [],
      "name": "Teller__WithdrawsNotAllowed",
      "type": "error"
    },
    {
      "inputs": [],
      "name": "Teller__ZeroAssets",
      "type": "error"
    },
    {
      "inputs": [],
      "name": "Teller__ZeroShares",
      "type": "error"
    },
    {
      "inputs": [],
      "name": "ZERO_ADDRESS",
      "type": "error"
    },
    {
      "anonymous": false,
      "inputs": [
        {
          "indexed": true,
          "internalType": "address",
          "name": "user",
          "type": "address"
        }
      ],
      "name": "AllowFrom",
      "type": "event"
    },
    {
      "anonymous": false,
      "inputs": [
        {
          "indexed": true,
          "internalType": "address",
          "name": "user",
          "type": "address"
        }
      ],
      "name": "AllowOperator",
      "type": "event"
    },
    {
      "anonymous": false,
      "inputs": [
        {
          "indexed": true,
          "internalType": "address",
          "name": "operator",
          "type": "address"
        }
      ],
      "name": "AllowPermissionedOperator",
      "type": "event"
    },
    {
      "anonymous": false,
      "inputs": [
        {
          "indexed": true,
          "internalType": "address",
          "name": "user",
          "type": "address"
        }
      ],
      "name": "AllowTo",
      "type": "event"
    },
    {
      "anonymous": false,
      "inputs": [
        {
          "indexed": true,
          "internalType": "address",
          "name": "user",
          "type": "address"
        },
        {
          "indexed": true,
          "internalType": "contract Authority",
          "name": "newAuthority",
          "type": "address"
        }
      ],
      "name": "AuthorityUpdated",
      "type": "event"
    },
    {
      "anonymous": false,
      "inputs": [
        {
          "indexed": true,
          "internalType": "contract IBufferHelper",
          "name": "bufferHelper",
          "type": "address"
        }
      ],
      "name": "BufferHelperAllowed",
      "type": "event"
    },
    {
      "anonymous": false,
      "inputs": [
        {
          "indexed": true,
          "internalType": "contract IBufferHelper",
          "name": "bufferHelper",
          "type": "address"
        }
      ],
      "name": "BufferHelperDisallowed",
      "type": "event"
    },
    {
      "anonymous": false,
      "inputs": [
        {
          "indexed": true,
          "internalType": "address",
          "name": "asset",
          "type": "address"
        },
        {
          "indexed": false,
          "internalType": "uint256",
          "name": "depositAmount",
          "type": "uint256"
        }
      ],
      "name": "BulkDeposit",
      "type": "event"
    },
    {
      "anonymous": false,
      "inputs": [
        {
          "indexed": true,
          "internalType": "address",
          "name": "account",
          "type": "address"
        },
        {
          "indexed": false,
          "internalType": "uint256",
          "name": "amount",
          "type": "uint256"
        },
        {
          "indexed": false,
          "internalType": "uint256",
          "name": "shares",
          "type": "uint256"
        }
      ],
      "name": "CompoundReward",
      "type": "event"
    },
    {
      "anonymous": false,
      "inputs": [
        {
          "indexed": true,
          "internalType": "address",
          "name": "user",
          "type": "address"
        }
      ],
      "name": "DenyFrom",
      "type": "event"
    },
    {
      "anonymous": false,
      "inputs": [
        {
          "indexed": true,
          "internalType": "address",
          "name": "user",
          "type": "address"
        }
      ],
      "name": "DenyOperator",
      "type": "event"
    },
    {
      "anonymous": false,
      "inputs": [
        {
          "indexed": true,
          "internalType": "address",
          "name": "operator",
          "type": "address"
        }
      ],
      "name": "DenyPermissionedOperator",
      "type": "event"
    },
    {
      "anonymous": false,
      "inputs": [
        {
          "indexed": true,
          "internalType": "address",
          "name": "user",
          "type": "address"
        }
      ],
      "name": "DenyTo",
      "type": "event"
    },
    {
      "anonymous": false,
      "inputs": [
        {
          "indexed": false,
          "internalType": "uint256",
          "name": "nonce",
          "type": "uint256"
        },
        {
          "indexed": true,
          "internalType": "address",
          "name": "receiver",
          "type": "address"
        },
        {
          "indexed": false,
          "internalType": "uint256",
          "name": "depositAmount",
          "type": "uint256"
        },
        {
          "indexed": false,
          "internalType": "uint256",
          "name": "shareAmount",
          "type": "uint256"
        },
        {
          "indexed": false,
          "internalType": "uint256",
          "name": "depositTimestamp",
          "type": "uint256"
        },
        {
          "indexed": false,
          "internalType": "uint256",
          "name": "shareLockPeriodAtTimeOfDeposit",
          "type": "uint256"
        }
      ],
      "name": "Deposit",
      "type": "event"
    },
    {
      "anonymous": false,
      "inputs": [
        {
          "indexed": true,
          "internalType": "contract IBufferHelper",
          "name": "newDepositBufferHelper",
          "type": "address"
        }
      ],
      "name": "DepositBufferHelperSet",
      "type": "event"
    },
    {
      "anonymous": false,
      "inputs": [
        {
          "indexed": false,
          "internalType": "uint112",
          "name": "cap",
          "type": "uint112"
        }
      ],
      "name": "DepositCapSet",
      "type": "event"
    },
    {
      "anonymous": false,
      "inputs": [
        {
          "indexed": false,
          "internalType": "bool",
          "name": "allowed",
          "type": "bool"
        }
      ],
      "name": "DepositsAllowed",
      "type": "event"
    },
    {
      "anonymous": false,
      "inputs": [
        {
          "indexed": true,
          "internalType": "address",
          "name": "user",
          "type": "address"
        },
        {
          "indexed": true,
          "internalType": "address",
          "name": "newOwner",
          "type": "address"
        }
      ],
      "name": "OwnershipTransferred",
      "type": "event"
    },
    {
      "anonymous": false,
      "inputs": [],
      "name": "Paused",
      "type": "event"
    },
    {
      "anonymous": false,
      "inputs": [
        {
          "indexed": false,
          "internalType": "bool",
          "name": "permissionedTransfers",
          "type": "bool"
        }
      ],
      "name": "PermissionedTransfersSet",
      "type": "event"
    },
    {
      "anonymous": false,
      "inputs": [],
      "name": "Unpaused",
      "type": "event"
    },
    {
      "anonymous": false,
      "inputs": [
        {
          "indexed": true,
          "internalType": "address",
          "name": "asset",
          "type": "address"
        },
        {
          "indexed": false,
          "internalType": "uint256",
          "name": "shareAmount",
          "type": "uint256"
        }
      ],
      "name": "Withdraw",
      "type": "event"
    },
    {
      "anonymous": false,
      "inputs": [
        {
          "indexed": true,
          "internalType": "contract IBufferHelper",
          "name": "newWithdrawBufferHelper",
          "type": "address"
        }
      ],
      "name": "WithdrawBufferHelperSet",
      "type": "event"
    },
    {
      "anonymous": false,
      "inputs": [
        {
          "indexed": false,
          "internalType": "bool",
          "name": "allowed",
          "type": "bool"
        }
      ],
      "name": "WithdrawsAllowed",
      "type": "event"
    },
    {
      "inputs": [],
      "name": "accountant",
      "outputs": [
        {
          "internalType": "contract AccountantProviders",
          "name": "",
          "type": "address"
        }
      ],
      "stateMutability": "view",
      "type": "function"
    },
    {
      "inputs": [
        {
          "internalType": "contract IBufferHelper",
          "name": "_bufferHelper",
          "type": "address"
        }
      ],
      "name": "allowBufferHelper",
      "outputs": [],
      "stateMutability": "nonpayable",
      "type": "function"
    },
    {
      "inputs": [
        {
          "internalType": "contract IBufferHelper",
          "name": "",
          "type": "address"
        }
      ],
      "name": "allowedBufferHelpers",
      "outputs": [
        {
          "internalType": "bool",
          "name": "",
          "type": "bool"
        }
      ],
      "stateMutability": "view",
      "type": "function"
    },
    {
      "inputs": [],
      "name": "asset",
      "outputs": [
        {
          "internalType": "contract ERC20",
          "name": "",
          "type": "address"
        }
      ],
      "stateMutability": "view",
      "type": "function"
    },
    {
      "inputs": [],
      "name": "authority",
      "outputs": [
        {
          "internalType": "contract Authority",
          "name": "",
          "type": "address"
        }
      ],
      "stateMutability": "view",
      "type": "function"
    },
    {
      "inputs": [
        {
          "internalType": "address",
          "name": "",
          "type": "address"
        }
      ],
      "name": "beforeTransferData",
      "outputs": [
        {
          "internalType": "uint256",
          "name": "shareUnlockTime",
          "type": "uint256"
        }
      ],
      "stateMutability": "view",
      "type": "function"
    },
    {
      "inputs": [
        {
          "internalType": "address",
          "name": "from",
          "type": "address"
        },
        {
          "internalType": "address",
          "name": "to",
          "type": "address"
        },
        {
          "internalType": "uint256",
          "name": "",
          "type": "uint256"
        },
        {
          "internalType": "address",
          "name": "",
          "type": "address"
        }
      ],
      "name": "beforeUpdate",
      "outputs": [],
      "stateMutability": "nonpayable",
      "type": "function"
    },
    {
      "inputs": [],
      "name": "bufferHelpers",
      "outputs": [
        {
          "internalType": "contract IBufferHelper",
          "name": "depositBufferHelper",
          "type": "address"
        },
        {
          "internalType": "contract IBufferHelper",
          "name": "withdrawBufferHelper",
          "type": "address"
        }
      ],
      "stateMutability": "view",
      "type": "function"
    },
    {
      "inputs": [
        {
          "internalType": "uint256",
          "name": "depositAmount",
          "type": "uint256"
        },
        {
          "internalType": "uint256",
          "name": "minimumMint",
          "type": "uint256"
        },
        {
          "internalType": "address",
          "name": "to",
          "type": "address"
        }
      ],
      "name": "bulkDeposit",
      "outputs": [
        {
          "internalType": "uint256",
          "name": "shares",
          "type": "uint256"
        }
      ],
      "stateMutability": "nonpayable",
      "type": "function"
    },
    {
      "inputs": [
        {
          "internalType": "uint256",
          "name": "depositAmount",
          "type": "uint256"
        },
        {
          "internalType": "uint256",
          "name": "minimumMint",
          "type": "uint256"
        },
        {
          "internalType": "address",
          "name": "to",
          "type": "address"
        }
      ],
      "name": "deposit",
      "outputs": [
        {
          "internalType": "uint256",
          "name": "shares",
          "type": "uint256"
        }
      ],
      "stateMutability": "nonpayable",
      "type": "function"
    },
    {
      "inputs": [
        {
          "internalType": "contract IBufferHelper",
          "name": "_bufferHelper",
          "type": "address"
        }
      ],
      "name": "disallowBufferHelper",
      "outputs": [],
      "stateMutability": "nonpayable",
      "type": "function"
    },
    {
      "inputs": [],
      "name": "distributor",
      "outputs": [
        {
          "internalType": "contract Distributor",
          "name": "",
          "type": "address"
        }
      ],
      "stateMutability": "view",
      "type": "function"
    },
    {
      "inputs": [],
      "name": "getTellerState",
      "outputs": [
        {
          "components": [
            {
              "internalType": "bool",
              "name": "allowDeposits",
              "type": "bool"
            },
            {
              "internalType": "bool",
              "name": "allowWithdraws",
              "type": "bool"
            },
            {
              "internalType": "uint64",
              "name": "shareLockPeriod",
              "type": "uint64"
            },
            {
              "internalType": "uint112",
              "name": "depositCap",
              "type": "uint112"
            }
          ],
          "internalType": "struct Teller.TellerState",
          "name": "",
          "type": "tuple"
        }
      ],
      "stateMutability": "view",
      "type": "function"
    },
    {
      "inputs": [],
      "name": "isPaused",
      "outputs": [
        {
          "internalType": "bool",
          "name": "",
          "type": "bool"
        }
      ],
      "stateMutability": "view",
      "type": "function"
    },
    {
      "inputs": [],
      "name": "owner",
      "outputs": [
        {
          "internalType": "address",
          "name": "",
          "type": "address"
        }
      ],
      "stateMutability": "view",
      "type": "function"
    },
    {
      "inputs": [],
      "name": "pause",
      "outputs": [],
      "stateMutability": "nonpayable",
      "type": "function"
    },
    {
      "inputs": [],
      "name": "primeRBAC",
      "outputs": [
        {
          "internalType": "contract IPrimeRBAC",
          "name": "",
          "type": "address"
        }
      ],
      "stateMutability": "view",
      "type": "function"
    },
    {
      "inputs": [
        {
          "internalType": "bool",
          "name": "_allowDeposits",
          "type": "bool"
        }
      ],
      "name": "setAllowDeposits",
      "outputs": [],
      "stateMutability": "nonpayable",
      "type": "function"
    },
    {
      "inputs": [
        {
          "internalType": "bool",
          "name": "_allowWithdraws",
          "type": "bool"
        }
      ],
      "name": "setAllowWithdraws",
      "outputs": [],
      "stateMutability": "nonpayable",
      "type": "function"
    },
    {
      "inputs": [
        {
          "internalType": "contract Authority",
          "name": "newAuthority",
          "type": "address"
        }
      ],
      "name": "setAuthority",
      "outputs": [],
      "stateMutability": "nonpayable",
      "type": "function"
    },
    {
      "inputs": [
        {
          "internalType": "contract IBufferHelper",
          "name": "_depositBufferHelper",
          "type": "address"
        }
      ],
      "name": "setDepositBufferHelper",
      "outputs": [],
      "stateMutability": "nonpayable",
      "type": "function"
    },
    {
      "inputs": [
        {
          "internalType": "uint112",
          "name": "cap",
          "type": "uint112"
        }
      ],
      "name": "setDepositCap",
      "outputs": [],
      "stateMutability": "nonpayable",
      "type": "function"
    },
    {
      "inputs": [
        {
          "internalType": "address",
          "name": "_distributor",
          "type": "address"
        }
      ],
      "name": "setDistributor",
      "outputs": [],
      "stateMutability": "nonpayable",
      "type": "function"
    },
    {
      "inputs": [
        {
          "internalType": "uint64",
          "name": "_shareLockPeriod",
          "type": "uint64"
        }
      ],
      "name": "setShareLockPeriod",
      "outputs": [],
      "stateMutability": "nonpayable",
      "type": "function"
    },
    {
      "inputs": [
        {
          "internalType": "contract IBufferHelper",
          "name": "_withdrawBufferHelper",
          "type": "address"
        }
      ],
      "name": "setWithdrawBufferHelper",
      "outputs": [],
      "stateMutability": "nonpayable",
      "type": "function"
    },
    {
      "inputs": [],
      "name": "tellerState",
      "outputs": [
        {
          "internalType": "bool",
          "name": "allowDeposits",
          "type": "bool"
        },
        {
          "internalType": "bool",
          "name": "allowWithdraws",
          "type": "bool"
        },
        {
          "internalType": "uint64",
          "name": "shareLockPeriod",
          "type": "uint64"
        },
        {
          "internalType": "uint112",
          "name": "depositCap",
          "type": "uint112"
        }
      ],
      "stateMutability": "view",
      "type": "function"
    },
    {
      "inputs": [
        {
          "internalType": "address",
          "name": "newOwner",
          "type": "address"
        }
      ],
      "name": "transferOwnership",
      "outputs": [],
      "stateMutability": "nonpayable",
      "type": "function"
    },
    {
      "inputs": [],
      "name": "unpause",
      "outputs": [],
      "stateMutability": "nonpayable",
      "type": "function"
    },
    {
      "inputs": [],
      "name": "vault",
      "outputs": [
        {
          "internalType": "contract BoringVault",
          "name": "",
          "type": "address"
        }
      ],
      "stateMutability": "view",
      "type": "function"
    },
    {
      "inputs": [],
      "name": "version",
      "outputs": [
        {
          "internalType": "string",
          "name": "",
          "type": "string"
        }
      ],
      "stateMutability": "pure",
      "type": "function"
    },
    {
      "inputs": [
        {
          "internalType": "uint256",
          "name": "shareAmount",
          "type": "uint256"
        },
        {
          "internalType": "uint256",
          "name": "minimumAssets",
          "type": "uint256"
        },
        {
          "internalType": "address",
          "name": "to",
          "type": "address"
        }
      ],
      "name": "withdraw",
      "outputs": [
        {
          "internalType": "uint256",
          "name": "assetsOut",
          "type": "uint256"
        }
      ],
      "stateMutability": "nonpayable",
      "type": "function"
    }
  ],
  "bytecode": "0x6101006040526001600355348015610015575f5ffd5b5060405161517a38038061517a8339818101604052810190610037919061059c565b828282828273ffffffffffffffffffffffffffffffffffffffff1663bf7e214f6040518163ffffffff1660e01b8152600401602060405180830381865afa158015610084573d5f5f3e3d5ffd5b505050506040513d601f19601f820116820180604052508101906100a89190610627565b3381815f5f6101000a81548173ffffffffffffffffffffffffffffffffffffffff021916908373ffffffffffffffffffffffffffffffffffffffff1602179055508060015f6101000a81548173ffffffffffffffffffffffffffffffffffffffff021916908373ffffffffffffffffffffffffffffffffffffffff1602179055508173ffffffffffffffffffffffffffffffffffffffff163373ffffffffffffffffffffffffffffffffffffffff167f8be0079c531659141344cd1fd0a4f28419497f9722a3daafe3b4186f6b6457e060405160405180910390a38073ffffffffffffffffffffffffffffffffffffffff163373ffffffffffffffffffffffffffffffffffffffff167fa3396fd7f6e0a21b50e5089d2da70d5ac0a3bbbd1f617a93f134b7638998019860405160405180910390a350505f73ffffffffffffffffffffffffffffffffffffffff168273ffffffffffffffffffffffffffffffffffffffff16148061024457505f73ffffffffffffffffffffffffffffffffffffffff168173ffffffffffffffffffffffffffffffffffffffff16145b1561027b576040517f538ba4f900000000000000000000000000000000000000000000000000000000815260040160405180910390fd5b8160025f6101000a81548173ffffffffffffffffffffffffffffffffffffffff021916908373ffffffffffffffffffffffffffffffffffffffff16021790555050508173ffffffffffffffffffffffffffffffffffffffff1660a08173ffffffffffffffffffffffffffffffffffffffff168152505060a05173ffffffffffffffffffffffffffffffffffffffff1663313ce5676040518163ffffffff1660e01b8152600401602060405180830381865afa15801561033c573d5f5f3e3d5ffd5b505050506040513d601f19601f820116820180604052508101906103609190610688565b600a61036c9190610818565b60e081815250508073ffffffffffffffffffffffffffffffffffffffff1660c08173ffffffffffffffffffffffffffffffffffffffff168152505060a05173ffffffffffffffffffffffffffffffffffffffff166338d52e0f6040518163ffffffff1660e01b8152600401602060405180830381865afa1580156103f2573d5f5f3e3d5ffd5b505050506040513d601f19601f82011682018060405250810190610416919061089d565b73ffffffffffffffffffffffffffffffffffffffff1660808173ffffffffffffffffffffffffffffffffffffffff168152505060405180608001604052806001151581526020016001151581526020015f67ffffffffffffffff1681526020016dffffffffffffffffffffffffffff801681525060045f820151815f015f6101000a81548160ff0219169083151502179055506020820151815f0160016101000a81548160ff0219169083151502179055506040820151815f0160026101000a81548167ffffffffffffffff021916908367ffffffffffffffff1602179055506060820151815f01600a6101000a8154816dffffffffffffffffffffffffffff02191690836dffffffffffffffffffffffffffff1602179055509050505050505050506108c8565b5f5ffd5b5f73ffffffffffffffffffffffffffffffffffffffff82169050919050565b5f61056b82610542565b9050919050565b61057b81610561565b8114610585575f5ffd5b50565b5f8151905061059681610572565b92915050565b5f5f5f606084860312156105b3576105b261053e565b5b5f6105c086828701610588565b93505060206105d186828701610588565b92505060406105e286828701610588565b9150509250925092565b5f6105f682610561565b9050919050565b610606816105ec565b8114610610575f5ffd5b50565b5f81519050610621816105fd565b92915050565b5f6020828403121561063c5761063b61053e565b5b5f61064984828501610613565b91505092915050565b5f60ff82169050919050565b61066781610652565b8114610671575f5ffd5b50565b5f815190506106828161065e565b92915050565b5f6020828403121561069d5761069c61053e565b5b5f6106aa84828501610674565b91505092915050565b7f4e487b71000000000000000000000000000000000000000000000000000000005f52601160045260245ffd5b5f8160011c9050919050565b5f5f8291508390505b600185111561073557808604811115610711576107106106b3565b5b60018516156107205780820291505b808102905061072e856106e0565b94506106f5565b94509492505050565b5f8261074d5760019050610808565b8161075a575f9050610808565b8160018114610770576002811461077a576107a9565b6001915050610808565b60ff84111561078c5761078b6106b3565b5b8360020a9150848211156107a3576107a26106b3565b5b50610808565b5060208310610133831016604e8410600b84101617156107de5782820a9050838111156107d9576107d86106b3565b5b610808565b6107eb84848460016106ec565b92509050818404811115610802576108016106b3565b5b81810290505b9392505050565b5f819050919050565b5f6108228261080f565b915061082d83610652565b925061085a7fffffffffffffffffffffffffffffffffffffffffffffffffffffffffffffffff848461073e565b905092915050565b5f61086c82610561565b9050919050565b61087c81610862565b8114610886575f5ffd5b50565b5f8151905061089781610873565b92915050565b5f602082840312156108b2576108b161053e565b5b5f6108bf84828501610889565b91505092915050565b60805160a05160c05160e0516148246109565f395f8181612ab20152612d3201525f81816112b20152818161292f01528181612a250152612d5301525f81816127d101528181612b2801528181612e7101528181612f9e01528181613252015261341901525f818161099401528181610e10015281816115fb015281816131cb015261339201526148245ff3fe608060405234801561000f575f5ffd5b50600436106101e3575f3560e01c806373ad629c1161010d578063a6549221116100a0578063e37d7e681161006f578063e37d7e6814610531578063e99109651461054f578063f2fde38b1461056d578063fbfa77cf14610589576101e3565b8063a6549221146104bb578063b187bd26146104d7578063bf7e214f146104f5578063bfe1092814610513576101e3565b80638456cb59116100dc5780638456cb59146104475780638da5cb5b146104515780638dbdbe6d1461046f5780639300003a1461049f576101e3565b806373ad629c146103d757806375619ab5146103f35780637a9e5e4b1461040f5780637bd876b61461042b576101e3565b80634c3bde42116101855780635c465430116101545780635c4654301461032657806367e1efc31461035657806368119bc51461038657806368cbc755146103b6576101e3565b80634c3bde42146102b25780634fb3ccc5146102ce57806354fd4d50146102ec5780635710b03f1461030a576101e3565b806312056e2d116101c157806312056e2d146102525780631f23afc81461026e57806338d52e0f1461028a5780633f4ba83a146102a8576101e3565b8063088c644d146101e75780630ad58d2f146102035780630d8ada4e14610233575b5f5ffd5b61020160048036038101906101fc919061357d565b6105a7565b005b61021d60048036038101906102189190613605565b610869565b60405161022a9190613664565b60405180910390f35b61023b610a0f565b6040516102499291906136d8565b60405180910390f35b61026c6004803603810190610267919061373c565b610a5e565b005b6102886004803603810190610283919061379c565b610c46565b005b610292610e0e565b60405161029f91906137e7565b60405180910390f35b6102b0610e32565b005b6102cc60048036038101906102c7919061357d565b610fed565b005b6102d66112b0565b6040516102e39190613820565b60405180910390f35b6102f46112d4565b60405161030191906138a9565b60405180910390f35b610324600480360381019061031f919061357d565b611302565b005b610340600480360381019061033b91906138c9565b61150f565b60405161034d9190613664565b60405180910390f35b610370600480360381019061036b9190613605565b611529565b60405161037d9190613664565b60405180910390f35b6103a0600480360381019061039b919061357d565b611676565b6040516103ad9190613903565b60405180910390f35b6103be611693565b6040516103ce9493929190613953565b60405180910390f35b6103f160048036038101906103ec919061379c565b6116f4565b005b61040d600480360381019061040891906138c9565b6118bd565b005b610429600480360381019061042491906139d1565b611a73565b005b61044560048036038101906104409190613a26565b611c2e565b005b61044f611e12565b005b610459611fce565b6040516104669190613a60565b60405180910390f35b61048960048036038101906104849190613605565b611ff2565b6040516104969190613664565b60405180910390f35b6104b960048036038101906104b4919061357d565b612136565b005b6104d560048036038101906104d09190613a79565b6122a0565b005b6104df612584565b6040516104ec9190613903565b60405180910390f35b6104fd612597565b60405161050a9190613afd565b60405180910390f35b61051b6125bc565b6040516105289190613b36565b60405180910390f35b6105396125e1565b6040516105469190613b6f565b60405180910390f35b610557612606565b6040516105649190613c08565b60405180910390f35b610587600480360381019061058291906138c9565b6126c7565b005b6105916127cf565b60405161059e9190613c52565b60405180910390f35b60025f9054906101000a900473ffffffffffffffffffffffffffffffffffffffff1673ffffffffffffffffffffffffffffffffffffffff1663d35911f2336040518263ffffffff1660e01b81526004016106019190613a60565b602060405180830381865afa15801561061c573d5f5f3e3d5ffd5b505050506040513d601f19601f820116820180604052508101906106409190613c7f565b1580156106e3575060025f9054906101000a900473ffffffffffffffffffffffffffffffffffffffff1673ffffffffffffffffffffffffffffffffffffffff1663c138c139336040518263ffffffff1660e01b81526004016106a29190613a60565b602060405180830381865afa1580156106bd573d5f5f3e3d5ffd5b505050506040513d601f19601f820116820180604052508101906106e19190613c7f565b155b1561071a576040517fdc85555400000000000000000000000000000000000000000000000000000000815260040160405180910390fd5b60095f8273ffffffffffffffffffffffffffffffffffffffff1673ffffffffffffffffffffffffffffffffffffffff1681526020019081526020015f205f9054906101000a900460ff168061079a57505f73ffffffffffffffffffffffffffffffffffffffff168173ffffffffffffffffffffffffffffffffffffffff16145b15610829578060075f015f6101000a81548173ffffffffffffffffffffffffffffffffffffffff021916908373ffffffffffffffffffffffffffffffffffffffff1602179055508073ffffffffffffffffffffffffffffffffffffffff167f421ac73f226261ee4c66488795b53b363d3335b860babcefd318c1f8f10c022360405160405180910390a2610866565b806040517fdb1785f500000000000000000000000000000000000000000000000000000000815260040161085d9190613caa565b60405180910390fd5b50565b5f610897335f357fffffffff00000000000000000000000000000000000000000000000000000000166127f3565b6108d6576040517f08c379a00000000000000000000000000000000000000000000000000000000081526004016108cd90613d0d565b60405180910390fd5b60016003541461091b576040517f08c379a000000000000000000000000000000000000000000000000000000000815260040161091290613d75565b60405180910390fd5b600260038190555061092b61292c565b73ffffffffffffffffffffffffffffffffffffffff166302ce728f6040518163ffffffff1660e01b81526004015f604051808303815f87803b15801561096f575f5ffd5b505af1158015610981573d5f5f3e3d5ffd5b50505050610990848484612953565b90507f000000000000000000000000000000000000000000000000000000000000000073ffffffffffffffffffffffffffffffffffffffff167f884edad9ce6fa2440d8a54cc123490eb96d2768479d49ff9c7366125a9424364856040516109f89190613664565b60405180910390a260016003819055509392505050565b6007805f015f9054906101000a900473ffffffffffffffffffffffffffffffffffffffff1690806001015f9054906101000a900473ffffffffffffffffffffffffffffffffffffffff16905082565b60025f9054906101000a900473ffffffffffffffffffffffffffffffffffffffff1673ffffffffffffffffffffffffffffffffffffffff1663d35911f2336040518263ffffffff1660e01b8152600401610ab89190613a60565b602060405180830381865afa158015610ad3573d5f5f3e3d5ffd5b505050506040513d601f19601f82011682018060405250810190610af79190613c7f565b158015610b9a575060025f9054906101000a900473ffffffffffffffffffffffffffffffffffffffff1673ffffffffffffffffffffffffffffffffffffffff1663c138c139336040518263ffffffff1660e01b8152600401610b599190613a60565b602060405180830381865afa158015610b74573d5f5f3e3d5ffd5b505050506040513d601f19601f82011682018060405250810190610b989190613c7f565b155b15610bd1576040517fdc85555400000000000000000000000000000000000000000000000000000000815260040160405180910390fd5b62093a808167ffffffffffffffff161115610c18576040517fb243837200000000000000000000000000000000000000000000000000000000815260040160405180910390fd5b8060045f0160026101000a81548167ffffffffffffffff021916908367ffffffffffffffff16021790555050565b60025f9054906101000a900473ffffffffffffffffffffffffffffffffffffffff1673ffffffffffffffffffffffffffffffffffffffff1663d35911f2336040518263ffffffff1660e01b8152600401610ca09190613a60565b602060405180830381865afa158015610cbb573d5f5f3e3d5ffd5b505050506040513d601f19601f82011682018060405250810190610cdf9190613c7f565b158015610d82575060025f9054906101000a900473ffffffffffffffffffffffffffffffffffffffff1673ffffffffffffffffffffffffffffffffffffffff1663c138c139336040518263ffffffff1660e01b8152600401610d419190613a60565b602060405180830381865afa158015610d5c573d5f5f3e3d5ffd5b505050506040513d601f19601f82011682018060405250810190610d809190613c7f565b155b15610db9576040517fdc85555400000000000000000000000000000000000000000000000000000000815260040160405180910390fd5b8060045f015f6101000a81548160ff0219169083151502179055507f64135eada30d50353f01495f95ccc6e95ab8a53af94da04b62c3b060092283e581604051610e039190613903565b60405180910390a150565b7f000000000000000000000000000000000000000000000000000000000000000081565b60025f9054906101000a900473ffffffffffffffffffffffffffffffffffffffff1673ffffffffffffffffffffffffffffffffffffffff1663d35911f2336040518263ffffffff1660e01b8152600401610e8c9190613a60565b602060405180830381865afa158015610ea7573d5f5f3e3d5ffd5b505050506040513d601f19601f82011682018060405250810190610ecb9190613c7f565b158015610f6e575060025f9054906101000a900473ffffffffffffffffffffffffffffffffffffffff1673ffffffffffffffffffffffffffffffffffffffff1663c138c139336040518263ffffffff1660e01b8152600401610f2d9190613a60565b602060405180830381865afa158015610f48573d5f5f3e3d5ffd5b505050506040513d601f19601f82011682018060405250810190610f6c9190613c7f565b155b15610fa5576040517fdc85555400000000000000000000000000000000000000000000000000000000815260040160405180910390fd5b5f600260146101000a81548160ff0219169083151502179055507fa45f47fdea8a1efdd9029a5691c7f759c32b7c698632b563573e155625d1693360405160405180910390a1565b60025f9054906101000a900473ffffffffffffffffffffffffffffffffffffffff1673ffffffffffffffffffffffffffffffffffffffff1663d35911f2336040518263ffffffff1660e01b81526004016110479190613a60565b602060405180830381865afa158015611062573d5f5f3e3d5ffd5b505050506040513d601f19601f820116820180604052508101906110869190613c7f565b158015611129575060025f9054906101000a900473ffffffffffffffffffffffffffffffffffffffff1673ffffffffffffffffffffffffffffffffffffffff1663c138c139336040518263ffffffff1660e01b81526004016110e89190613a60565b602060405180830381865afa158015611103573d5f5f3e3d5ffd5b505050506040513d601f19601f820116820180604052508101906111279190613c7f565b155b15611160576040517fdc85555400000000000000000000000000000000000000000000000000000000815260040160405180910390fd5b60095f8273ffffffffffffffffffffffffffffffffffffffff1673ffffffffffffffffffffffffffffffffffffffff1681526020019081526020015f205f9054906101000a900460ff16806111e057505f73ffffffffffffffffffffffffffffffffffffffff168173ffffffffffffffffffffffffffffffffffffffff16145b15611270578060076001015f6101000a81548173ffffffffffffffffffffffffffffffffffffffff021916908373ffffffffffffffffffffffffffffffffffffffff1602179055508073ffffffffffffffffffffffffffffffffffffffff167ffb7258ef087c9bc5a9a50c1beea112ed1a53c8dd98f107673aba61937bdcdfcd60405160405180910390a26112ad565b806040517fdb1785f50000000000000000000000000000000000000000000000000000000081526004016112a49190613caa565b60405180910390fd5b50565b7f000000000000000000000000000000000000000000000000000000000000000081565b60606112de612bba565b6040516020016112ee9190613e17565b604051602081830303815290604052905090565b60025f9054906101000a900473ffffffffffffffffffffffffffffffffffffffff1673ffffffffffffffffffffffffffffffffffffffff1663d35911f2336040518263ffffffff1660e01b815260040161135c9190613a60565b602060405180830381865afa158015611377573d5f5f3e3d5ffd5b505050506040513d601f19601f8201168201806040525081019061139b9190613c7f565b15801561143e575060025f9054906101000a900473ffffffffffffffffffffffffffffffffffffffff1673ffffffffffffffffffffffffffffffffffffffff1663c138c139336040518263ffffffff1660e01b81526004016113fd9190613a60565b602060405180830381865afa158015611418573d5f5f3e3d5ffd5b505050506040513d601f19601f8201168201806040525081019061143c9190613c7f565b155b15611475576040517fdc85555400000000000000000000000000000000000000000000000000000000815260040160405180910390fd5b5f60095f8373ffffffffffffffffffffffffffffffffffffffff1673ffffffffffffffffffffffffffffffffffffffff1681526020019081526020015f205f6101000a81548160ff0219169083151502179055508073ffffffffffffffffffffffffffffffffffffffff167fa451ec34a599afd13d737b271bcd194cd2c3b891df79bc124da826c7f1e1439560405160405180910390a250565b6005602052805f5260405f205f91509050805f0154905081565b5f611557335f357fffffffff00000000000000000000000000000000000000000000000000000000166127f3565b611596576040517f08c379a000000000000000000000000000000000000000000000000000000000815260040161158d90613d0d565b60405180910390fd5b6001600354146115db576040517f08c379a00000000000000000000000000000000000000000000000000000000081526004016115d290613d75565b60405180910390fd5b60026003819055506115eb612bf7565b6115f784843385612c8c565b90507f000000000000000000000000000000000000000000000000000000000000000073ffffffffffffffffffffffffffffffffffffffff167f6f9b974223f85a1ae805c33b8b519039e2435481d949db1110de151a94d587af8560405161165f9190613664565b60405180910390a260016003819055509392505050565b6009602052805f5260405f205f915054906101000a900460ff1681565b6004805f015f9054906101000a900460ff1690805f0160019054906101000a900460ff1690805f0160029054906101000a900467ffffffffffffffff1690805f01600a9054906101000a90046dffffffffffffffffffffffffffff16905084565b60025f9054906101000a900473ffffffffffffffffffffffffffffffffffffffff1673ffffffffffffffffffffffffffffffffffffffff1663d35911f2336040518263ffffffff1660e01b815260040161174e9190613a60565b602060405180830381865afa158015611769573d5f5f3e3d5ffd5b505050506040513d601f19601f8201168201806040525081019061178d9190613c7f565b158015611830575060025f9054906101000a900473ffffffffffffffffffffffffffffffffffffffff1673ffffffffffffffffffffffffffffffffffffffff1663c138c139336040518263ffffffff1660e01b81526004016117ef9190613a60565b602060405180830381865afa15801561180a573d5f5f3e3d5ffd5b505050506040513d601f19601f8201168201806040525081019061182e9190613c7f565b155b15611867576040517fdc85555400000000000000000000000000000000000000000000000000000000815260040160405180910390fd5b8060045f0160016101000a81548160ff0219169083151502179055507fd620fa2aed717c0d930cd04a59339f11dc1074a41073255d6072540a0a1a2b53816040516118b29190613903565b60405180910390a150565b60025f9054906101000a900473ffffffffffffffffffffffffffffffffffffffff1673ffffffffffffffffffffffffffffffffffffffff1663d35911f2336040518263ffffffff1660e01b81526004016119179190613a60565b602060405180830381865afa158015611932573d5f5f3e3d5ffd5b505050506040513d601f19601f820116820180604052508101906119569190613c7f565b1580156119f9575060025f9054906101000a900473ffffffffffffffffffffffffffffffffffffffff1673ffffffffffffffffffffffffffffffffffffffff1663c138c139336040518263ffffffff1660e01b81526004016119b89190613a60565b602060405180830381865afa1580156119d3573d5f5f3e3d5ffd5b505050506040513d601f19601f820116820180604052508101906119f79190613c7f565b155b15611a30576040517fdc85555400000000000000000000000000000000000000000000000000000000815260040160405180910390fd5b8060065f6101000a81548173ffffffffffffffffffffffffffffffffffffffff021916908373ffffffffffffffffffffffffffffffffffffffff16021790555050565b5f5f9054906101000a900473ffffffffffffffffffffffffffffffffffffffff1673ffffffffffffffffffffffffffffffffffffffff163373ffffffffffffffffffffffffffffffffffffffff161480611b89575060015f9054906101000a900473ffffffffffffffffffffffffffffffffffffffff1673ffffffffffffffffffffffffffffffffffffffff1663b700961333305f357fffffffff00000000000000000000000000000000000000000000000000000000166040518463ffffffff1660e01b8152600401611b4993929190613e72565b602060405180830381865afa158015611b64573d5f5f3e3d5ffd5b505050506040513d601f19601f82011682018060405250810190611b889190613c7f565b5b611b91575f5ffd5b8060015f6101000a81548173ffffffffffffffffffffffffffffffffffffffff021916908373ffffffffffffffffffffffffffffffffffffffff1602179055508073ffffffffffffffffffffffffffffffffffffffff163373ffffffffffffffffffffffffffffffffffffffff167fa3396fd7f6e0a21b50e5089d2da70d5ac0a3bbbd1f617a93f134b7638998019860405160405180910390a350565b60025f9054906101000a900473ffffffffffffffffffffffffffffffffffffffff1673ffffffffffffffffffffffffffffffffffffffff1663d35911f2336040518263ffffffff1660e01b8152600401611c889190613a60565b602060405180830381865afa158015611ca3573d5f5f3e3d5ffd5b505050506040513d601f19601f82011682018060405250810190611cc79190613c7f565b158015611d6a575060025f9054906101000a900473ffffffffffffffffffffffffffffffffffffffff1673ffffffffffffffffffffffffffffffffffffffff1663c138c139336040518263ffffffff1660e01b8152600401611d299190613a60565b602060405180830381865afa158015611d44573d5f5f3e3d5ffd5b505050506040513d601f19601f82011682018060405250810190611d689190613c7f565b155b15611da1576040517fdc85555400000000000000000000000000000000000000000000000000000000815260040160405180910390fd5b8060045f01600a6101000a8154816dffffffffffffffffffffffffffff02191690836dffffffffffffffffffffffffffff1602179055507f752cd3d8df6864142257fa3a2e02aedf2dc09f1875c2a25b4f117d45c7334d5d81604051611e079190613ea7565b60405180910390a150565b60025f9054906101000a900473ffffffffffffffffffffffffffffffffffffffff1673ffffffffffffffffffffffffffffffffffffffff1663d35911f2336040518263ffffffff1660e01b8152600401611e6c9190613a60565b602060405180830381865afa158015611e87573d5f5f3e3d5ffd5b505050506040513d601f19601f82011682018060405250810190611eab9190613c7f565b158015611f4e575060025f9054906101000a900473ffffffffffffffffffffffffffffffffffffffff1673ffffffffffffffffffffffffffffffffffffffff1663c138c139336040518263ffffffff1660e01b8152600401611f0d9190613a60565b602060405180830381865afa158015611f28573d5f5f3e3d5ffd5b505050506040513d601f19601f82011682018060405250810190611f4c9190613c7f565b155b15611f85576040517fdc85555400000000000000000000000000000000000000000000000000000000815260040160405180910390fd5b6001600260146101000a81548160ff0219169083151502179055507f9e87fac88ff661f02d44f95383c817fece4bce600a3dab7a54406878b965e75260405160405180910390a1565b5f5f9054906101000a900473ffffffffffffffffffffffffffffffffffffffff1681565b5f612020335f357fffffffff00000000000000000000000000000000000000000000000000000000166127f3565b61205f576040517f08c379a000000000000000000000000000000000000000000000000000000000815260040161205690613d0d565b60405180910390fd5b6001600354146120a4576040517f08c379a000000000000000000000000000000000000000000000000000000000815260040161209b90613d75565b60405180910390fd5b60026003819055505f73ffffffffffffffffffffffffffffffffffffffff168273ffffffffffffffffffffffffffffffffffffffff16036120e3573391505b6120eb612bf7565b6120f784843385612c8c565b905061212782858360045f0160029054906101000a900467ffffffffffffffff1667ffffffffffffffff1661303a565b60016003819055509392505050565b60025f9054906101000a900473ffffffffffffffffffffffffffffffffffffffff1673ffffffffffffffffffffffffffffffffffffffff1663c138c139336040518263ffffffff1660e01b81526004016121909190613a60565b602060405180830381865afa1580156121ab573d5f5f3e3d5ffd5b505050506040513d601f19601f820116820180604052508101906121cf9190613c7f565b612205576040517f71d78b1200000000000000000000000000000000000000000000000000000000815260040160405180910390fd5b600160095f8373ffffffffffffffffffffffffffffffffffffffff1673ffffffffffffffffffffffffffffffffffffffff1681526020019081526020015f205f6101000a81548160ff0219169083151502179055508073ffffffffffffffffffffffffffffffffffffffff167fbbd1060adb905a8ecf06a33a19b4c634caaec5ef6268043300f69a75ea332e3160405160405180910390a250565b6122a861292c565b73ffffffffffffffffffffffffffffffffffffffff166302ce728f6040518163ffffffff1660e01b81526004015f604051808303815f87803b1580156122ec575f5ffd5b505af11580156122fe573d5f5f3e3d5ffd5b505050505f73ffffffffffffffffffffffffffffffffffffffff1660065f9054906101000a900473ffffffffffffffffffffffffffffffffffffffff1673ffffffffffffffffffffffffffffffffffffffff16146124cd575f73ffffffffffffffffffffffffffffffffffffffff168473ffffffffffffffffffffffffffffffffffffffff16146124115760065f9054906101000a900473ffffffffffffffffffffffffffffffffffffffff1673ffffffffffffffffffffffffffffffffffffffff1663f0ea5915856040518263ffffffff1660e01b81526004016123e39190613a60565b5f604051808303815f87803b1580156123fa575f5ffd5b505af115801561240c573d5f5f3e3d5ffd5b505050505b5f73ffffffffffffffffffffffffffffffffffffffff168373ffffffffffffffffffffffffffffffffffffffff16146124cc5760065f9054906101000a900473ffffffffffffffffffffffffffffffffffffffff1673ffffffffffffffffffffffffffffffffffffffff1663f0ea5915846040518263ffffffff1660e01b815260040161249e9190613a60565b5f604051808303815f87803b1580156124b5575f5ffd5b505af11580156124c7573d5f5f3e3d5ffd5b505050505b5b5f73ffffffffffffffffffffffffffffffffffffffff168473ffffffffffffffffffffffffffffffffffffffff161415801561254757504260055f8673ffffffffffffffffffffffffffffffffffffffff1673ffffffffffffffffffffffffffffffffffffffff1681526020019081526020015f205f0154115b1561257e576040517f9e4dc5da00000000000000000000000000000000000000000000000000000000815260040160405180910390fd5b50505050565b600260149054906101000a900460ff1681565b60015f9054906101000a900473ffffffffffffffffffffffffffffffffffffffff1681565b60065f9054906101000a900473ffffffffffffffffffffffffffffffffffffffff1681565b60025f9054906101000a900473ffffffffffffffffffffffffffffffffffffffff1681565b61260e6134bf565b60046040518060800160405290815f82015f9054906101000a900460ff161515151581526020015f820160019054906101000a900460ff161515151581526020015f820160029054906101000a900467ffffffffffffffff1667ffffffffffffffff1667ffffffffffffffff1681526020015f8201600a9054906101000a90046dffffffffffffffffffffffffffff166dffffffffffffffffffffffffffff166dffffffffffffffffffffffffffff1681525050905090565b6126f4335f357fffffffff00000000000000000000000000000000000000000000000000000000166127f3565b612733576040517f08c379a000000000000000000000000000000000000000000000000000000000815260040161272a90613d0d565b60405180910390fd5b805f5f6101000a81548173ffffffffffffffffffffffffffffffffffffffff021916908373ffffffffffffffffffffffffffffffffffffffff1602179055508073ffffffffffffffffffffffffffffffffffffffff163373ffffffffffffffffffffffffffffffffffffffff167f8be0079c531659141344cd1fd0a4f28419497f9722a3daafe3b4186f6b6457e060405160405180910390a350565b7f000000000000000000000000000000000000000000000000000000000000000081565b5f5f60015f9054906101000a900473ffffffffffffffffffffffffffffffffffffffff1690505f73ffffffffffffffffffffffffffffffffffffffff168173ffffffffffffffffffffffffffffffffffffffff16141580156128cd57508073ffffffffffffffffffffffffffffffffffffffff1663b70096138530866040518463ffffffff1660e01b815260040161288d93929190613e72565b602060405180830381865afa1580156128a8573d5f5f3e3d5ffd5b505050506040513d601f19601f820116820180604052508101906128cc9190613c7f565b5b8061292357505f5f9054906101000a900473ffffffffffffffffffffffffffffffffffffffff1673ffffffffffffffffffffffffffffffffffffffff168473ffffffffffffffffffffffffffffffffffffffff16145b91505092915050565b5f7f0000000000000000000000000000000000000000000000000000000000000000905090565b5f5f60049050600260149054906101000a900460ff16156129a0576040517fe0f850f400000000000000000000000000000000000000000000000000000000815260040160405180910390fd5b805f0160019054906101000a900460ff166129e7576040517f5c786cb100000000000000000000000000000000000000000000000000000000815260040160405180910390fd5b5f8503612a20576040517f8cb116db00000000000000000000000000000000000000000000000000000000815260040160405180910390fd5b612ae17f000000000000000000000000000000000000000000000000000000000000000073ffffffffffffffffffffffffffffffffffffffff1663679aefce6040518163ffffffff1660e01b8152600401602060405180830381865afa158015612a8c573d5f5f3e3d5ffd5b505050506040513d601f19601f82011682018060405250810190612ab09190613ed4565b7f0000000000000000000000000000000000000000000000000000000000000000876130ee9092919063ffffffff16565b915083821015612b1d576040517f13d905c000000000000000000000000000000000000000000000000000000000815260040160405180910390fd5b612b268261312f565b7f000000000000000000000000000000000000000000000000000000000000000073ffffffffffffffffffffffffffffffffffffffff166392f93232848433896040518563ffffffff1660e01b8152600401612b859493929190613eff565b5f604051808303815f87803b158015612b9c575f5ffd5b505af1158015612bae573d5f5f3e3d5ffd5b50505050509392505050565b60606040518060400160405280600981526020017f426173652056302e310000000000000000000000000000000000000000000000815250905090565b5f60049050600260149054906101000a900460ff1615612c43576040517fe0f850f400000000000000000000000000000000000000000000000000000000815260040160405180910390fd5b805f015f9054906101000a900460ff16612c89576040517f9d43097e00000000000000000000000000000000000000000000000000000000815260040160405180910390fd5b50565b5f612c9561292c565b73ffffffffffffffffffffffffffffffffffffffff166302ce728f6040518163ffffffff1660e01b81526004015f604051808303815f87803b158015612cd9575f5ffd5b505af1158015612ceb573d5f5f3e3d5ffd5b505050505f600490505f8603612d2d576040517f2a27fe7000000000000000000000000000000000000000000000000000000000815260040160405180910390fd5b612dee7f00000000000000000000000000000000000000000000000000000000000000007f000000000000000000000000000000000000000000000000000000000000000073ffffffffffffffffffffffffffffffffffffffff1663679aefce6040518163ffffffff1660e01b8152600401602060405180830381865afa158015612dba573d5f5f3e3d5ffd5b505050506040513d601f19601f82011682018060405250810190612dde9190613ed4565b886130ee9092919063ffffffff16565b915084821015612e2a576040517f89ae4c3b00000000000000000000000000000000000000000000000000000000815260040160405180910390fd5b6dffffffffffffffffffffffffffff8016815f01600a9054906101000a90046dffffffffffffffffffffffffffff166dffffffffffffffffffffffffffff1614612f9c575f7f000000000000000000000000000000000000000000000000000000000000000073ffffffffffffffffffffffffffffffffffffffff166318160ddd6040518163ffffffff1660e01b8152600401602060405180830381865afa158015612ed8573d5f5f3e3d5ffd5b505050506040513d601f19601f82011682018060405250810190612efc9190613ed4565b83612f079190613f6f565b9050815f01600a9054906101000a90046dffffffffffffffffffffffffffff166dffffffffffffffffffffffffffff16811115612f9a5780825f01600a9054906101000a90046dffffffffffffffffffffffffffff166040517f43e28bca000000000000000000000000000000000000000000000000000000008152600401612f91929190613fd2565b60405180910390fd5b505b7f000000000000000000000000000000000000000000000000000000000000000073ffffffffffffffffffffffffffffffffffffffff16636baf8dbc858886866040518563ffffffff1660e01b8152600401612ffb9493929190613eff565b5f604051808303815f87803b158015613012575f5ffd5b505af1158015613024573d5f5f3e3d5ffd5b50505050613031866132f8565b50949350505050565b5f81111561309257804261304e9190613f6f565b60055f8673ffffffffffffffffffffffffffffffffffffffff1673ffffffffffffffffffffffffffffffffffffffff1681526020019081526020015f205f01819055505b8373ffffffffffffffffffffffffffffffffffffffff167f02b63b8e1c579c43105e71e3dd6fa6a50f2999d91c9fdc13b623463ef6a3086b5f858542866040516130e0959493929190614032565b60405180910390a250505050565b5f827fffffffffffffffffffffffffffffffffffffffffffffffffffffffffffffffff0484118302158202613121575f5ffd5b818385020490509392505050565b5f73ffffffffffffffffffffffffffffffffffffffff1660076001015f9054906101000a900473ffffffffffffffffffffffffffffffffffffffff1673ffffffffffffffffffffffffffffffffffffffff16146132f5575f5f5f60076001015f9054906101000a900473ffffffffffffffffffffffffffffffffffffffff1673ffffffffffffffffffffffffffffffffffffffff1663b27c77bb7f0000000000000000000000000000000000000000000000000000000000000000866040518363ffffffff1660e01b8152600401613208929190614083565b5f60405180830381865afa158015613222573d5f5f3e3d5ffd5b505050506040513d5f823e3d601f19601f8201168201806040525081019061324a919061443e565b9250925092507f000000000000000000000000000000000000000000000000000000000000000073ffffffffffffffffffffffffffffffffffffffff1663366d7fe18484846040518463ffffffff1660e01b81526004016132ad9392919061475d565b5f604051808303815f875af11580156132c8573d5f5f3e3d5ffd5b505050506040513d5f823e3d601f19601f820116820180604052508101906132f091906147a7565b505050505b50565b5f73ffffffffffffffffffffffffffffffffffffffff1660075f015f9054906101000a900473ffffffffffffffffffffffffffffffffffffffff1673ffffffffffffffffffffffffffffffffffffffff16146134bc575f5f5f60075f015f9054906101000a900473ffffffffffffffffffffffffffffffffffffffff1673ffffffffffffffffffffffffffffffffffffffff1663975d168c7f0000000000000000000000000000000000000000000000000000000000000000866040518363ffffffff1660e01b81526004016133cf929190614083565b5f60405180830381865afa1580156133e9573d5f5f3e3d5ffd5b505050506040513d5f823e3d601f19601f82011682018060405250810190613411919061443e565b9250925092507f000000000000000000000000000000000000000000000000000000000000000073ffffffffffffffffffffffffffffffffffffffff1663366d7fe18484846040518463ffffffff1660e01b81526004016134749392919061475d565b5f604051808303815f875af115801561348f573d5f5f3e3d5ffd5b505050506040513d5f823e3d601f19601f820116820180604052508101906134b791906147a7565b505050505b50565b60405180608001604052805f151581526020015f151581526020015f67ffffffffffffffff1681526020015f6dffffffffffffffffffffffffffff1681525090565b5f604051905090565b5f5ffd5b5f5ffd5b5f73ffffffffffffffffffffffffffffffffffffffff82169050919050565b5f61353b82613512565b9050919050565b5f61354c82613531565b9050919050565b61355c81613542565b8114613566575f5ffd5b50565b5f8135905061357781613553565b92915050565b5f602082840312156135925761359161350a565b5b5f61359f84828501613569565b91505092915050565b5f819050919050565b6135ba816135a8565b81146135c4575f5ffd5b50565b5f813590506135d5816135b1565b92915050565b6135e481613531565b81146135ee575f5ffd5b50565b5f813590506135ff816135db565b92915050565b5f5f5f6060848603121561361c5761361b61350a565b5b5f613629868287016135c7565b935050602061363a868287016135c7565b925050604061364b868287016135f1565b9150509250925092565b61365e816135a8565b82525050565b5f6020820190506136775f830184613655565b92915050565b5f819050919050565b5f6136a061369b61369684613512565b61367d565b613512565b9050919050565b5f6136b182613686565b9050919050565b5f6136c2826136a7565b9050919050565b6136d2816136b8565b82525050565b5f6040820190506136eb5f8301856136c9565b6136f860208301846136c9565b9392505050565b5f67ffffffffffffffff82169050919050565b61371b816136ff565b8114613725575f5ffd5b50565b5f8135905061373681613712565b92915050565b5f602082840312156137515761375061350a565b5b5f61375e84828501613728565b91505092915050565b5f8115159050919050565b61377b81613767565b8114613785575f5ffd5b50565b5f8135905061379681613772565b92915050565b5f602082840312156137b1576137b061350a565b5b5f6137be84828501613788565b91505092915050565b5f6137d1826136a7565b9050919050565b6137e1816137c7565b82525050565b5f6020820190506137fa5f8301846137d8565b92915050565b5f61380a826136a7565b9050919050565b61381a81613800565b82525050565b5f6020820190506138335f830184613811565b92915050565b5f81519050919050565b5f82825260208201905092915050565b8281835e5f83830152505050565b5f601f19601f8301169050919050565b5f61387b82613839565b6138858185613843565b9350613895818560208601613853565b61389e81613861565b840191505092915050565b5f6020820190508181035f8301526138c18184613871565b905092915050565b5f602082840312156138de576138dd61350a565b5b5f6138eb848285016135f1565b91505092915050565b6138fd81613767565b82525050565b5f6020820190506139165f8301846138f4565b92915050565b613925816136ff565b82525050565b5f6dffffffffffffffffffffffffffff82169050919050565b61394d8161392b565b82525050565b5f6080820190506139665f8301876138f4565b61397360208301866138f4565b613980604083018561391c565b61398d6060830184613944565b95945050505050565b5f6139a082613531565b9050919050565b6139b081613996565b81146139ba575f5ffd5b50565b5f813590506139cb816139a7565b92915050565b5f602082840312156139e6576139e561350a565b5b5f6139f3848285016139bd565b91505092915050565b613a058161392b565b8114613a0f575f5ffd5b50565b5f81359050613a20816139fc565b92915050565b5f60208284031215613a3b57613a3a61350a565b5b5f613a4884828501613a12565b91505092915050565b613a5a81613531565b82525050565b5f602082019050613a735f830184613a51565b92915050565b5f5f5f5f60808587031215613a9157613a9061350a565b5b5f613a9e878288016135f1565b9450506020613aaf878288016135f1565b9350506040613ac0878288016135c7565b9250506060613ad1878288016135f1565b91505092959194509250565b5f613ae7826136a7565b9050919050565b613af781613add565b82525050565b5f602082019050613b105f830184613aee565b92915050565b5f613b20826136a7565b9050919050565b613b3081613b16565b82525050565b5f602082019050613b495f830184613b27565b92915050565b5f613b59826136a7565b9050919050565b613b6981613b4f565b82525050565b5f602082019050613b825f830184613b60565b92915050565b613b9181613767565b82525050565b613ba0816136ff565b82525050565b613baf8161392b565b82525050565b608082015f820151613bc95f850182613b88565b506020820151613bdc6020850182613b88565b506040820151613bef6040850182613b97565b506060820151613c026060850182613ba6565b50505050565b5f608082019050613c1b5f830184613bb5565b92915050565b5f613c2b82613686565b9050919050565b5f613c3c82613c21565b9050919050565b613c4c81613c32565b82525050565b5f602082019050613c655f830184613c43565b92915050565b5f81519050613c7981613772565b92915050565b5f60208284031215613c9457613c9361350a565b5b5f613ca184828501613c6b565b91505092915050565b5f602082019050613cbd5f8301846136c9565b92915050565b7f554e415554484f52495a454400000000000000000000000000000000000000005f82015250565b5f613cf7600c83613843565b9150613d0282613cc3565b602082019050919050565b5f6020820190508181035f830152613d2481613ceb565b9050919050565b7f5245454e5452414e4359000000000000000000000000000000000000000000005f82015250565b5f613d5f600a83613843565b9150613d6a82613d2b565b602082019050919050565b5f6020820190508181035f830152613d8c81613d53565b9050919050565b5f81905092915050565b7f4275666665722056302e312c20000000000000000000000000000000000000005f82015250565b5f613dd1600d83613d93565b9150613ddc82613d9d565b600d82019050919050565b5f613df182613839565b613dfb8185613d93565b9350613e0b818560208601613853565b80840191505092915050565b5f613e2182613dc5565b9150613e2d8284613de7565b915081905092915050565b5f7fffffffff0000000000000000000000000000000000000000000000000000000082169050919050565b613e6c81613e38565b82525050565b5f606082019050613e855f830186613a51565b613e926020830185613a51565b613e9f6040830184613e63565b949350505050565b5f602082019050613eba5f830184613944565b92915050565b5f81519050613ece816135b1565b92915050565b5f60208284031215613ee957613ee861350a565b5b5f613ef684828501613ec0565b91505092915050565b5f608082019050613f125f830187613a51565b613f1f6020830186613655565b613f2c6040830185613a51565b613f396060830184613655565b95945050505050565b7f4e487b71000000000000000000000000000000000000000000000000000000005f52601160045260245ffd5b5f613f79826135a8565b9150613f84836135a8565b9250828201905080821115613f9c57613f9b613f42565b5b92915050565b5f613fbc613fb7613fb28461392b565b61367d565b6135a8565b9050919050565b613fcc81613fa2565b82525050565b5f604082019050613fe55f830185613655565b613ff26020830184613fc3565b9392505050565b5f819050919050565b5f61401c61401761401284613ff9565b61367d565b6135a8565b9050919050565b61402c81614002565b82525050565b5f60a0820190506140455f830188614023565b6140526020830187613655565b61405f6040830186613655565b61406c6060830185613655565b6140796080830184613655565b9695505050505050565b5f6040820190506140965f830185613a51565b6140a36020830184613655565b9392505050565b5f5ffd5b7f4e487b71000000000000000000000000000000000000000000000000000000005f52604160045260245ffd5b6140e482613861565b810181811067ffffffffffffffff82111715614103576141026140ae565b5b80604052505050565b5f614115613501565b905061412182826140db565b919050565b5f67ffffffffffffffff8211156141405761413f6140ae565b5b602082029050602081019050919050565b5f5ffd5b5f81519050614163816135db565b92915050565b5f61417b61417684614126565b61410c565b9050808382526020820190506020840283018581111561419e5761419d614151565b5b835b818110156141c757806141b38882614155565b8452602084019350506020810190506141a0565b5050509392505050565b5f82601f8301126141e5576141e46140aa565b5b81516141f5848260208601614169565b91505092915050565b5f67ffffffffffffffff821115614218576142176140ae565b5b602082029050602081019050919050565b5f5ffd5b5f67ffffffffffffffff821115614247576142466140ae565b5b61425082613861565b9050602081019050919050565b5f61426f61426a8461422d565b61410c565b90508281526020810184848401111561428b5761428a614229565b5b614296848285613853565b509392505050565b5f82601f8301126142b2576142b16140aa565b5b81516142c284826020860161425d565b91505092915050565b5f6142dd6142d8846141fe565b61410c565b90508083825260208201905060208402830185811115614300576142ff614151565b5b835b8181101561434757805167ffffffffffffffff811115614325576143246140aa565b5b808601614332898261429e565b85526020850194505050602081019050614302565b5050509392505050565b5f82601f830112614365576143646140aa565b5b81516143758482602086016142cb565b91505092915050565b5f67ffffffffffffffff821115614398576143976140ae565b5b602082029050602081019050919050565b5f6143bb6143b68461437e565b61410c565b905080838252602082019050602084028301858111156143de576143dd614151565b5b835b8181101561440757806143f38882613ec0565b8452602084019350506020810190506143e0565b5050509392505050565b5f82601f830112614425576144246140aa565b5b81516144358482602086016143a9565b91505092915050565b5f5f5f606084860312156144555761445461350a565b5b5f84015167ffffffffffffffff8111156144725761447161350e565b5b61447e868287016141d1565b935050602084015167ffffffffffffffff81111561449f5761449e61350e565b5b6144ab86828701614351565b925050604084015167ffffffffffffffff8111156144cc576144cb61350e565b5b6144d886828701614411565b9150509250925092565b5f81519050919050565b5f82825260208201905092915050565b5f819050602082019050919050565b61451481613531565b82525050565b5f614525838361450b565b60208301905092915050565b5f602082019050919050565b5f614547826144e2565b61455181856144ec565b935061455c836144fc565b805f5b8381101561458c578151614573888261451a565b975061457e83614531565b92505060018101905061455f565b5085935050505092915050565b5f81519050919050565b5f82825260208201905092915050565b5f819050602082019050919050565b5f81519050919050565b5f82825260208201905092915050565b5f6145e6826145c2565b6145f081856145cc565b9350614600818560208601613853565b61460981613861565b840191505092915050565b5f61461f83836145dc565b905092915050565b5f602082019050919050565b5f61463d82614599565b61464781856145a3565b935083602082028501614659856145b3565b805f5b8581101561469457848403895281516146758582614614565b945061468083614627565b925060208a0199505060018101905061465c565b50829750879550505050505092915050565b5f81519050919050565b5f82825260208201905092915050565b5f819050602082019050919050565b6146d8816135a8565b82525050565b5f6146e983836146cf565b60208301905092915050565b5f602082019050919050565b5f61470b826146a6565b61471581856146b0565b9350614720836146c0565b805f5b8381101561475057815161473788826146de565b9750614742836146f5565b925050600181019050614723565b5085935050505092915050565b5f6060820190508181035f830152614775818661453d565b905081810360208301526147898185614633565b9050818103604083015261479d8184614701565b9050949350505050565b5f602082840312156147bc576147bb61350a565b5b5f82015167ffffffffffffffff8111156147d9576147d861350e565b5b6147e584828501614351565b9150509291505056fea2646970667358221220e32d458d1da2c25bb7efdfb2d0bbf04bb88e1f9e2658d0cabc615bd702b3274764736f6c634300081e0033",
  "linkReferences": {},
  "deployedLinkReferences": {},
  "immutableReferences": {
    "11679": [
      {
        "length": 32,
        "start": 2452
      },
      {
        "length": 32,
        "start": 3600
      },
      {
        "length": 32,
        "start": 5627
      },
      {
        "length": 32,
        "start": 12747
      },
      {
        "length": 32,
        "start": 13202
      }
    ],
    "11683": [
      {
        "length": 32,
        "start": 10193
      },
      {
        "length": 32,
        "start": 11048
      },
      {
        "length": 32,
        "start": 11889
      },
      {
        "length": 32,
        "start": 12190
      },
      {
        "length": 32,
        "start": 12882
      },
      {
        "length": 32,
        "start": 13337
      }
    ],
    "11687": [
      {
        "length": 32,
        "start": 4786
      },
      {
        "length": 32,
        "start": 10543
      },
      {
        "length": 32,
        "start": 10789
      },
      {
        "length": 32,
        "start": 11603
      }
    ],
    "11694": [
      {
        "length": 32,
        "start": 10930
      },
      {
        "length": 32,
        "start": 11570
      }
    ]
  },
  "inputSourceName": "project/contracts/core/TellerWithBuffer.sol",
  "buildInfoId": "solc-0_8_30-1928dd092702c4b13d9ee7116b7a704288626338"
}