{
  "_format": "hh3-artifact-1",
  "contractName": "DelayedWithdraw",
  "sourceName": "contracts/core/DelayedWithdraw.sol",
  "abi": [
    {
      "inputs": [
        {
          "internalType": "address",
          "name": "_primeRBAC",
          "type": "address"
        },
        {
          "internalType": "address",
          "name": "_vault",
          "type": "address"
        },
        {
          "internalType": "address",
          "name": "_accountant",
          "type": "address"
        },
        {
          "internalType": "address",
          "name": "_teller",
          "type": "address"
        },
        {
          "internalType": "address",
          "name": "_payoutAddress",
          "type": "address"
        }
      ],
      "stateMutability": "nonpayable",
      "type": "constructor"
    },
    {
      "inputs": [],
      "name": "DelayedWithdraw__AlreadySetup",
      "type": "error"
    },
    {
      "inputs": [],
      "name": "DelayedWithdraw__BadAddress",
      "type": "error"
    },
    {
      "inputs": [],
      "name": "DelayedWithdraw__CallerNotBoringVault",
      "type": "error"
    },
    {
      "inputs": [],
      "name": "DelayedWithdraw__CannotWithdrawBoringToken",
      "type": "error"
    },
    {
      "inputs": [],
      "name": "DelayedWithdraw__ExpeditedWithdrawFeeTooHigh",
      "type": "error"
    },
    {
      "inputs": [],
      "name": "DelayedWithdraw__ExpeditedWithdrawNotAvailable",
      "type": "error"
    },
    {
      "inputs": [],
      "name": "DelayedWithdraw__MaxLossExceeded",
      "type": "error"
    },
    {
      "inputs": [],
      "name": "DelayedWithdraw__NoSharesToWithdraw",
      "type": "error"
    },
    {
      "inputs": [],
      "name": "DelayedWithdraw__NoWithdrawToAccelerate",
      "type": "error"
    },
    {
      "inputs": [],
      "name": "DelayedWithdraw__Paused",
      "type": "error"
    },
    {
      "inputs": [],
      "name": "DelayedWithdraw__ThirdPartyCompletionNotAllowed",
      "type": "error"
    },
    {
      "inputs": [],
      "name": "DelayedWithdraw__WithdrawAlreadyAccelerated",
      "type": "error"
    },
    {
      "inputs": [],
      "name": "DelayedWithdraw__WithdrawFeeTooHigh",
      "type": "error"
    },
    {
      "inputs": [],
      "name": "DelayedWithdraw__WithdrawNotMatured",
      "type": "error"
    },
    {
      "inputs": [],
      "name": "DelayedWithdraw__WithdrawPending",
      "type": "error"
    },
    {
      "inputs": [],
      "name": "DelayedWithdraw__WithdrawsNotAllowed",
      "type": "error"
    },
    {
      "inputs": [],
      "name": "NOT_OPERATOR",
      "type": "error"
    },
    {
      "inputs": [],
      "name": "NOT_PROTOCOL_ADMIN",
      "type": "error"
    },
    {
      "inputs": [],
      "name": "ZERO_ADDRESS",
      "type": "error"
    },
    {
      "anonymous": false,
      "inputs": [
        {
          "indexed": true,
          "internalType": "address",
          "name": "user",
          "type": "address"
        },
        {
          "indexed": true,
          "internalType": "contract Authority",
          "name": "newAuthority",
          "type": "address"
        }
      ],
      "name": "AuthorityUpdated",
      "type": "event"
    },
    {
      "anonymous": false,
      "inputs": [
        {
          "indexed": false,
          "internalType": "uint16",
          "name": "newFee",
          "type": "uint16"
        }
      ],
      "name": "ExpeditedWithdrawFeeUpdated",
      "type": "event"
    },
    {
      "anonymous": false,
      "inputs": [
        {
          "indexed": false,
          "internalType": "address",
          "name": "newFeeAddress",
          "type": "address"
        }
      ],
      "name": "FeeAddressSet",
      "type": "event"
    },
    {
      "anonymous": false,
      "inputs": [
        {
          "indexed": true,
          "internalType": "address",
          "name": "user",
          "type": "address"
        },
        {
          "indexed": true,
          "internalType": "address",
          "name": "newOwner",
          "type": "address"
        }
      ],
      "name": "OwnershipTransferred",
      "type": "event"
    },
    {
      "anonymous": false,
      "inputs": [],
      "name": "Paused",
      "type": "event"
    },
    {
      "anonymous": false,
      "inputs": [
        {
          "indexed": false,
          "internalType": "bool",
          "name": "_pullFundsFromVault",
          "type": "bool"
        }
      ],
      "name": "PullFundsFromVaultUpdated",
      "type": "event"
    },
    {
      "anonymous": false,
      "inputs": [
        {
          "indexed": true,
          "internalType": "address",
          "name": "asset",
          "type": "address"
        },
        {
          "indexed": false,
          "internalType": "uint64",
          "name": "withdrawDelay",
          "type": "uint64"
        },
        {
          "indexed": false,
          "internalType": "uint16",
          "name": "withdrawFee",
          "type": "uint16"
        }
      ],
      "name": "SetupWithdrawalsInAsset",
      "type": "event"
    },
    {
      "anonymous": false,
      "inputs": [
        {
          "indexed": true,
          "internalType": "address",
          "name": "account",
          "type": "address"
        },
        {
          "indexed": true,
          "internalType": "contract ERC20",
          "name": "asset",
          "type": "address"
        },
        {
          "indexed": false,
          "internalType": "bool",
          "name": "allowed",
          "type": "bool"
        }
      ],
      "name": "ThirdPartyCompletionChanged",
      "type": "event"
    },
    {
      "anonymous": false,
      "inputs": [],
      "name": "Unpaused",
      "type": "event"
    },
    {
      "anonymous": false,
      "inputs": [
        {
          "indexed": true,
          "internalType": "address",
          "name": "account",
          "type": "address"
        },
        {
          "indexed": true,
          "internalType": "contract ERC20",
          "name": "asset",
          "type": "address"
        },
        {
          "indexed": false,
          "internalType": "uint40",
          "name": "newMaturity",
          "type": "uint40"
        },
        {
          "indexed": false,
          "internalType": "uint96",
          "name": "accelerationFee",
          "type": "uint96"
        }
      ],
      "name": "WithdrawAccelerated",
      "type": "event"
    },
    {
      "anonymous": false,
      "inputs": [
        {
          "indexed": true,
          "internalType": "address",
          "name": "account",
          "type": "address"
        },
        {
          "indexed": true,
          "internalType": "contract ERC20",
          "name": "asset",
          "type": "address"
        },
        {
          "indexed": false,
          "internalType": "uint96",
          "name": "shares",
          "type": "uint96"
        }
      ],
      "name": "WithdrawCancelled",
      "type": "event"
    },
    {
      "anonymous": false,
      "inputs": [
        {
          "indexed": true,
          "internalType": "address",
          "name": "account",
          "type": "address"
        },
        {
          "indexed": true,
          "internalType": "contract ERC20",
          "name": "asset",
          "type": "address"
        },
        {
          "indexed": false,
          "internalType": "uint256",
          "name": "shares",
          "type": "uint256"
        },
        {
          "indexed": false,
          "internalType": "uint256",
          "name": "assets",
          "type": "uint256"
        }
      ],
      "name": "WithdrawCompleted",
      "type": "event"
    },
    {
      "anonymous": false,
      "inputs": [
        {
          "indexed": true,
          "internalType": "address",
          "name": "asset",
          "type": "address"
        },
        {
          "indexed": false,
          "internalType": "uint32",
          "name": "newWithdrawDelay",
          "type": "uint32"
        }
      ],
      "name": "WithdrawDelayUpdated",
      "type": "event"
    },
    {
      "anonymous": false,
      "inputs": [
        {
          "indexed": true,
          "internalType": "address",
          "name": "asset",
          "type": "address"
        },
        {
          "indexed": false,
          "internalType": "uint16",
          "name": "newWithdrawFee",
          "type": "uint16"
        }
      ],
      "name": "WithdrawFeeUpdated",
      "type": "event"
    },
    {
      "anonymous": false,
      "inputs": [
        {
          "indexed": true,
          "internalType": "address",
          "name": "account",
          "type": "address"
        },
        {
          "indexed": true,
          "internalType": "contract ERC20",
          "name": "asset",
          "type": "address"
        },
        {
          "indexed": false,
          "internalType": "uint96",
          "name": "shares",
          "type": "uint96"
        },
        {
          "indexed": false,
          "internalType": "uint40",
          "name": "maturity",
          "type": "uint40"
        }
      ],
      "name": "WithdrawRequested",
      "type": "event"
    },
    {
      "anonymous": false,
      "inputs": [
        {
          "indexed": true,
          "internalType": "address",
          "name": "asset",
          "type": "address"
        }
      ],
      "name": "WithdrawalsStopped",
      "type": "event"
    },
    {
      "inputs": [],
      "name": "accelerateWithdraw",
      "outputs": [],
      "stateMutability": "nonpayable",
      "type": "function"
    },
    {
      "inputs": [],
      "name": "asset",
      "outputs": [
        {
          "internalType": "contract ERC20",
          "name": "",
          "type": "address"
        }
      ],
      "stateMutability": "view",
      "type": "function"
    },
    {
      "inputs": [],
      "name": "authority",
      "outputs": [
        {
          "internalType": "contract Authority",
          "name": "",
          "type": "address"
        }
      ],
      "stateMutability": "view",
      "type": "function"
    },
    {
      "inputs": [],
      "name": "boringVault",
      "outputs": [
        {
          "internalType": "contract BoringVault",
          "name": "",
          "type": "address"
        }
      ],
      "stateMutability": "view",
      "type": "function"
    },
    {
      "inputs": [
        {
          "internalType": "address",
          "name": "user",
          "type": "address"
        }
      ],
      "name": "cancelUserWithdraw",
      "outputs": [],
      "stateMutability": "nonpayable",
      "type": "function"
    },
    {
      "inputs": [],
      "name": "cancelWithdraw",
      "outputs": [],
      "stateMutability": "nonpayable",
      "type": "function"
    },
    {
      "inputs": [
        {
          "internalType": "uint16",
          "name": "_expeditedWithdrawFee",
          "type": "uint16"
        }
      ],
      "name": "changeExpeditedWithdrawFee",
      "outputs": [],
      "stateMutability": "nonpayable",
      "type": "function"
    },
    {
      "inputs": [
        {
          "internalType": "uint32",
          "name": "withdrawDelay",
          "type": "uint32"
        }
      ],
      "name": "changeWithdrawDelay",
      "outputs": [],
      "stateMutability": "nonpayable",
      "type": "function"
    },
    {
      "inputs": [
        {
          "internalType": "uint16",
          "name": "withdrawFee",
          "type": "uint16"
        }
      ],
      "name": "changeWithdrawFee",
      "outputs": [],
      "stateMutability": "nonpayable",
      "type": "function"
    },
    {
      "inputs": [
        {
          "internalType": "address",
          "name": "user",
          "type": "address"
        }
      ],
      "name": "completeUserWithdraw",
      "outputs": [
        {
          "internalType": "uint256",
          "name": "assetsOut",
          "type": "uint256"
        }
      ],
      "stateMutability": "nonpayable",
      "type": "function"
    },
    {
      "inputs": [
        {
          "internalType": "address",
          "name": "account",
          "type": "address"
        }
      ],
      "name": "completeWithdraw",
      "outputs": [
        {
          "internalType": "uint256",
          "name": "assetsOut",
          "type": "uint256"
        }
      ],
      "stateMutability": "nonpayable",
      "type": "function"
    },
    {
      "inputs": [],
      "name": "feeAddress",
      "outputs": [
        {
          "internalType": "address",
          "name": "",
          "type": "address"
        }
      ],
      "stateMutability": "view",
      "type": "function"
    },
    {
      "inputs": [
        {
          "internalType": "address",
          "name": "account",
          "type": "address"
        }
      ],
      "name": "getWithdrawRequest",
      "outputs": [
        {
          "components": [
            {
              "internalType": "bool",
              "name": "allowThirdPartyToComplete",
              "type": "bool"
            },
            {
              "internalType": "uint40",
              "name": "maturity",
              "type": "uint40"
            },
            {
              "internalType": "uint96",
              "name": "shares",
              "type": "uint96"
            },
            {
              "internalType": "uint96",
              "name": "sharesFee",
              "type": "uint96"
            }
          ],
          "internalType": "struct DelayedWithdraw.WithdrawRequest",
          "name": "",
          "type": "tuple"
        }
      ],
      "stateMutability": "view",
      "type": "function"
    },
    {
      "inputs": [],
      "name": "getWithdrawState",
      "outputs": [
        {
          "components": [
            {
              "internalType": "uint32",
              "name": "withdrawDelay",
              "type": "uint32"
            },
            {
              "internalType": "uint128",
              "name": "outstandingShares",
              "type": "uint128"
            },
            {
              "internalType": "uint16",
              "name": "withdrawFee",
              "type": "uint16"
            },
            {
              "internalType": "uint16",
              "name": "expeditedWithdrawFee",
              "type": "uint16"
            }
          ],
          "internalType": "struct DelayedWithdraw.WithdrawState",
          "name": "",
          "type": "tuple"
        }
      ],
      "stateMutability": "view",
      "type": "function"
    },
    {
      "inputs": [],
      "name": "isPaused",
      "outputs": [
        {
          "internalType": "bool",
          "name": "",
          "type": "bool"
        }
      ],
      "stateMutability": "view",
      "type": "function"
    },
    {
      "inputs": [],
      "name": "owner",
      "outputs": [
        {
          "internalType": "address",
          "name": "",
          "type": "address"
        }
      ],
      "stateMutability": "view",
      "type": "function"
    },
    {
      "inputs": [],
      "name": "pause",
      "outputs": [],
      "stateMutability": "nonpayable",
      "type": "function"
    },
    {
      "inputs": [],
      "name": "primeRBAC",
      "outputs": [
        {
          "internalType": "contract IPrimeRBAC",
          "name": "",
          "type": "address"
        }
      ],
      "stateMutability": "view",
      "type": "function"
    },
    {
      "inputs": [
        {
          "internalType": "uint96",
          "name": "shares",
          "type": "uint96"
        },
        {
          "internalType": "bool",
          "name": "allowThirdPartyToComplete",
          "type": "bool"
        }
      ],
      "name": "requestWithdraw",
      "outputs": [],
      "stateMutability": "nonpayable",
      "type": "function"
    },
    {
      "inputs": [
        {
          "internalType": "bool",
          "name": "allow",
          "type": "bool"
        }
      ],
      "name": "setAllowThirdPartyToComplete",
      "outputs": [],
      "stateMutability": "nonpayable",
      "type": "function"
    },
    {
      "inputs": [
        {
          "internalType": "contract Authority",
          "name": "newAuthority",
          "type": "address"
        }
      ],
      "name": "setAuthority",
      "outputs": [],
      "stateMutability": "nonpayable",
      "type": "function"
    },
    {
      "inputs": [
        {
          "internalType": "address",
          "name": "_feeAddress",
          "type": "address"
        }
      ],
      "name": "setFeeAddress",
      "outputs": [],
      "stateMutability": "nonpayable",
      "type": "function"
    },
    {
      "inputs": [
        {
          "internalType": "uint32",
          "name": "withdrawDelay",
          "type": "uint32"
        },
        {
          "internalType": "uint16",
          "name": "withdrawFee",
          "type": "uint16"
        },
        {
          "internalType": "uint16",
          "name": "expeditedWithdrawFee",
          "type": "uint16"
        }
      ],
      "name": "setupWithdraw",
      "outputs": [],
      "stateMutability": "nonpayable",
      "type": "function"
    },
    {
      "inputs": [
        {
          "internalType": "address",
          "name": "newOwner",
          "type": "address"
        }
      ],
      "name": "transferOwnership",
      "outputs": [],
      "stateMutability": "nonpayable",
      "type": "function"
    },
    {
      "inputs": [],
      "name": "unpause",
      "outputs": [],
      "stateMutability": "nonpayable",
      "type": "function"
    },
    {
      "inputs": [],
      "name": "viewOutstandingDebt",
      "outputs": [
        {
          "internalType": "uint256",
          "name": "debt",
          "type": "uint256"
        }
      ],
      "stateMutability": "view",
      "type": "function"
    },
    {
      "inputs": [
        {
          "internalType": "contract ERC20",
          "name": "token",
          "type": "address"
        },
        {
          "internalType": "uint256",
          "name": "amount",
          "type": "uint256"
        }
      ],
      "name": "withdrawNonBoringToken",
      "outputs": [],
      "stateMutability": "nonpayable",
      "type": "function"
    },
    {
      "inputs": [
        {
          "internalType": "address",
          "name": "",
          "type": "address"
        }
      ],
      "name": "withdrawRequests",
      "outputs": [
        {
          "internalType": "bool",
          "name": "allowThirdPartyToComplete",
          "type": "bool"
        },
        {
          "internalType": "uint40",
          "name": "maturity",
          "type": "uint40"
        },
        {
          "internalType": "uint96",
          "name": "shares",
          "type": "uint96"
        },
        {
          "internalType": "uint96",
          "name": "sharesFee",
          "type": "uint96"
        }
      ],
      "stateMutability": "view",
      "type": "function"
    },
    {
      "inputs": [],
      "name": "withdrawState",
      "outputs": [
        {
          "internalType": "uint32",
          "name": "withdrawDelay",
          "type": "uint32"
        },
        {
          "internalType": "uint128",
          "name": "outstandingShares",
          "type": "uint128"
        },
        {
          "internalType": "uint16",
          "name": "withdrawFee",
          "type": "uint16"
        },
        {
          "internalType": "uint16",
          "name": "expeditedWithdrawFee",
          "type": "uint16"
        }
      ],
      "stateMutability": "view",
      "type": "function"
    }
  ],
  "bytecode": "0x6101206040526001600355348015610015575f5ffd5b506040516150b53803806150b583398181016040528101906100379190610588565b848473ffffffffffffffffffffffffffffffffffffffff1663bf7e214f6040518163ffffffff1660e01b8152600401602060405180830381865afa158015610081573d5f5f3e3d5ffd5b505050506040513d601f19601f820116820180604052508101906100a5919061063a565b3381815f5f6101000a81548173ffffffffffffffffffffffffffffffffffffffff021916908373ffffffffffffffffffffffffffffffffffffffff1602179055508060015f6101000a81548173ffffffffffffffffffffffffffffffffffffffff021916908373ffffffffffffffffffffffffffffffffffffffff1602179055508173ffffffffffffffffffffffffffffffffffffffff163373ffffffffffffffffffffffffffffffffffffffff167f8be0079c531659141344cd1fd0a4f28419497f9722a3daafe3b4186f6b6457e060405160405180910390a38073ffffffffffffffffffffffffffffffffffffffff163373ffffffffffffffffffffffffffffffffffffffff167fa3396fd7f6e0a21b50e5089d2da70d5ac0a3bbbd1f617a93f134b7638998019860405160405180910390a350505f73ffffffffffffffffffffffffffffffffffffffff168273ffffffffffffffffffffffffffffffffffffffff16148061024157505f73ffffffffffffffffffffffffffffffffffffffff168173ffffffffffffffffffffffffffffffffffffffff16145b15610278576040517f538ba4f900000000000000000000000000000000000000000000000000000000815260040160405180910390fd5b8160025f6101000a81548173ffffffffffffffffffffffffffffffffffffffff021916908373ffffffffffffffffffffffffffffffffffffffff16021790555050508273ffffffffffffffffffffffffffffffffffffffff1660808173ffffffffffffffffffffffffffffffffffffffff16815250508173ffffffffffffffffffffffffffffffffffffffff1660a08173ffffffffffffffffffffffffffffffffffffffff16815250508373ffffffffffffffffffffffffffffffffffffffff1660c08173ffffffffffffffffffffffffffffffffffffffff168152505060c05173ffffffffffffffffffffffffffffffffffffffff166338d52e0f6040518163ffffffff1660e01b8152600401602060405180830381865afa1580156103a1573d5f5f3e3d5ffd5b505050506040513d601f19601f820116820180604052508101906103c591906106a0565b73ffffffffffffffffffffffffffffffffffffffff1660e08173ffffffffffffffffffffffffffffffffffffffff168152505060c05173ffffffffffffffffffffffffffffffffffffffff1663313ce5676040518163ffffffff1660e01b8152600401602060405180830381865afa158015610443573d5f5f3e3d5ffd5b505050506040513d601f19601f820116820180604052508101906104679190610701565b600a6104739190610891565b61010081815250505f73ffffffffffffffffffffffffffffffffffffffff168173ffffffffffffffffffffffffffffffffffffffff16036104e0576040517ff3a6738800000000000000000000000000000000000000000000000000000000815260040160405180910390fd5b8060045f6101000a81548173ffffffffffffffffffffffffffffffffffffffff021916908373ffffffffffffffffffffffffffffffffffffffff16021790555050505050506108db565b5f5ffd5b5f73ffffffffffffffffffffffffffffffffffffffff82169050919050565b5f6105578261052e565b9050919050565b6105678161054d565b8114610571575f5ffd5b50565b5f815190506105828161055e565b92915050565b5f5f5f5f5f60a086880312156105a1576105a061052a565b5b5f6105ae88828901610574565b95505060206105bf88828901610574565b94505060406105d088828901610574565b93505060606105e188828901610574565b92505060806105f288828901610574565b9150509295509295909350565b5f6106098261054d565b9050919050565b610619816105ff565b8114610623575f5ffd5b50565b5f8151905061063481610610565b92915050565b5f6020828403121561064f5761064e61052a565b5b5f61065c84828501610626565b91505092915050565b5f61066f8261054d565b9050919050565b61067f81610665565b8114610689575f5ffd5b50565b5f8151905061069a81610676565b92915050565b5f602082840312156106b5576106b461052a565b5b5f6106c28482850161068c565b91505092915050565b5f60ff82169050919050565b6106e0816106cb565b81146106ea575f5ffd5b50565b5f815190506106fb816106d7565b92915050565b5f602082840312156107165761071561052a565b5b5f610723848285016106ed565b91505092915050565b7f4e487b71000000000000000000000000000000000000000000000000000000005f52601160045260245ffd5b5f8160011c9050919050565b5f5f8291508390505b60018511156107ae5780860481111561078a5761078961072c565b5b60018516156107995780820291505b80810290506107a785610759565b945061076e565b94509492505050565b5f826107c65760019050610881565b816107d3575f9050610881565b81600181146107e957600281146107f357610822565b6001915050610881565b60ff8411156108055761080461072c565b5b8360020a91508482111561081c5761081b61072c565b5b50610881565b5060208310610133831016604e8410600b84101617156108575782820a9050838111156108525761085161072c565b5b610881565b6108648484846001610765565b9250905081840481111561087b5761087a61072c565b5b81810290505b9392505050565b5f819050919050565b5f61089b82610888565b91506108a6836106cb565b92506108d37fffffffffffffffffffffffffffffffffffffffffffffffffffffffffffffffff84846107b7565b905092915050565b60805160a05160c05160e051610100516147346109815f395f818161276101526137f301525f8181610b2301528181610eea0152818161112b015281816119dc01528181611c4e015281816126010152818161285a01528181613348015261392901525f81816106940152818161181a01528181612f4f0152818161330201526136a001525f61388a01525f818161269c015281816136e7015261376601526147345ff3fe608060405234801561000f575f5ffd5b50600436106101cd575f3560e01c80638456cb5911610102578063b187bd26116100a0578063e37d7e681161006f578063e37d7e68146104a9578063e4ff4274146104c7578063f2fde38b146104e5578063f3b9778414610501576101cd565b8063b187bd261461040d578063bde18d511461042b578063bf3b826b1461045b578063bf7e214f1461048b576101cd565b80638bb8aca1116100dc5780638bb8aca1146103995780638da5cb5b146103b5578063adbc46fc146103d3578063ae172f08146103f1576101cd565b80638456cb591461036957806384b76824146103735780638705fcd41461037d576101cd565b8063412753581161016f57806352df49ec1161014957806352df49ec146102e2578063545312c014610315578063627ab8d4146103315780637a9e5e4b1461034d576101cd565b80634127535814610287578063468301dd146102a5578063475cb325146102c1576101cd565b80632ccae896116101ab5780632ccae8961461021357806338d52e0f146102435780633928bebd146102615780633f4ba83a1461027d576101cd565b806309f0e0c2146101d15780631a289278146101ed578063251a24ed146101f7575b5f5ffd5b6101eb60048036038101906101e69190613ae6565b61051f565b005b6101f56107e8565b005b610211600480360381019061020c9190613b4e565b610bb5565b005b61022d60048036038101906102289190613b4e565b610dd6565b60405161023a9190613c2b565b60405180910390f35b61024b610ee8565b6040516102589190613c9f565b60405180910390f35b61027b60048036038101906102769190613cef565b610f0c565b005b61028561119a565b005b61028f611355565b60405161029c9190613d29565b60405180910390f35b6102bf60048036038101906102ba9190613cef565b61137a565b005b6102c961158a565b6040516102d99493929190613d99565b60405180910390f35b6102fc60048036038101906102f79190613b4e565b6115eb565b60405161030c9493929190613e09565b60405180910390f35b61032f600480360381019061032a9190613ea0565b611661565b005b61034b60048036038101906103469190613f08565b611a70565b005b61036760048036038101906103629190613f6e565b611cbd565b005b610371611e78565b005b61037b612034565b005b61039760048036038101906103929190613b4e565b612100565b005b6103b360048036038101906103ae9190613f99565b612352565b005b6103bd612674565b6040516103ca9190613d29565b60405180910390f35b6103db612698565b6040516103e89190613ff8565b60405180910390f35b61040b60048036038101906104069190614011565b612796565b005b6104156128e0565b604051610422919061403c565b60405180910390f35b61044560048036038101906104409190613b4e565b6128f3565b6040516104529190613ff8565b60405180910390f35b61047560048036038101906104709190613b4e565b612b5b565b6040516104829190613ff8565b60405180910390f35b610493612d36565b6040516104a09190614075565b60405180910390f35b6104b1612d5b565b6040516104be91906140ae565b60405180910390f35b6104cf612d80565b6040516104dc9190614147565b60405180910390f35b6104ff60048036038101906104fa9190613b4e565b612e45565b005b610509612f4d565b6040516105169190614191565b60405180910390f35b60025f9054906101000a900473ffffffffffffffffffffffffffffffffffffffff1673ffffffffffffffffffffffffffffffffffffffff1663d35911f2336040518263ffffffff1660e01b81526004016105799190613d29565b602060405180830381865afa158015610594573d5f5f3e3d5ffd5b505050506040513d601f19601f820116820180604052508101906105b891906141be565b15801561065b575060025f9054906101000a900473ffffffffffffffffffffffffffffffffffffffff1673ffffffffffffffffffffffffffffffffffffffff1663c138c139336040518263ffffffff1660e01b815260040161061a9190613d29565b602060405180830381865afa158015610635573d5f5f3e3d5ffd5b505050506040513d601f19601f8201168201806040525081019061065991906141be565b155b15610692576040517fdc85555400000000000000000000000000000000000000000000000000000000815260040160405180910390fd5b7f000000000000000000000000000000000000000000000000000000000000000073ffffffffffffffffffffffffffffffffffffffff168273ffffffffffffffffffffffffffffffffffffffff1603610717576040517fa6781bfd00000000000000000000000000000000000000000000000000000000815260040160405180910390fd5b7fffffffffffffffffffffffffffffffffffffffffffffffffffffffffffffffff81036107b9578173ffffffffffffffffffffffffffffffffffffffff166370a08231306040518263ffffffff1660e01b81526004016107779190613d29565b602060405180830381865afa158015610792573d5f5f3e3d5ffd5b505050506040513d601f19601f820116820180604052508101906107b691906141fd565b90505b6107e433828473ffffffffffffffffffffffffffffffffffffffff16612f719092919063ffffffff16565b5050565b610815335f357fffffffff0000000000000000000000000000000000000000000000000000000016613028565b610854576040517f08c379a000000000000000000000000000000000000000000000000000000000815260040161084b90614282565b60405180910390fd5b600160035414610899576040517f08c379a0000000000000000000000000000000000000000000000000000000008152600401610890906142ea565b60405180910390fd5b6002600381905550600260149054906101000a900460ff16156108e8576040517fbaf7375c00000000000000000000000000000000000000000000000000000000815260040160405180910390fd5b5f60055f0160169054906101000a900461ffff1661ffff1603610937576040517fe1844a8600000000000000000000000000000000000000000000000000000000815260040160405180910390fd5b6201518063ffffffff1660055f015f9054906101000a900463ffffffff1663ffffffff1611610992576040517fe1844a8600000000000000000000000000000000000000000000000000000000815260040160405180910390fd5b5f60065f3373ffffffffffffffffffffffffffffffffffffffff1673ffffffffffffffffffffffffffffffffffffffff1681526020019081526020015f2090505f815f0160069054906101000a90046bffffffffffffffffffffffff166bffffffffffffffffffffffff1603610a34576040517f02ebfd8700000000000000000000000000000000000000000000000000000000815260040160405180910390fd5b5f610a8b60055f0160169054906101000a900461ffff1661ffff16612710845f0160069054906101000a90046bffffffffffffffffffffffff166bffffffffffffffffffffffff166131619092919063ffffffff16565b905080825f0160128282829054906101000a90046bffffffffffffffffffffffff16610ab79190614335565b92506101000a8154816bffffffffffffffffffffffff02191690836bffffffffffffffffffffffff1602179055505f6201518063ffffffff1642610afb9190614374565b905080835f0160016101000a81548164ffffffffff021916908364ffffffffff1602179055507f000000000000000000000000000000000000000000000000000000000000000073ffffffffffffffffffffffffffffffffffffffff163373ffffffffffffffffffffffffffffffffffffffff167ff057ce7eb44a7e052ea9b75a7fd43a05fff39ca69c7700a2d277e867391bf8888385604051610ba09291906143a7565b60405180910390a35050506001600381905550565b60025f9054906101000a900473ffffffffffffffffffffffffffffffffffffffff1673ffffffffffffffffffffffffffffffffffffffff1663fc4e3e0a336040518263ffffffff1660e01b8152600401610c0f9190613d29565b602060405180830381865afa158015610c2a573d5f5f3e3d5ffd5b505050506040513d601f19601f82011682018060405250810190610c4e91906141be565b158015610cf1575060025f9054906101000a900473ffffffffffffffffffffffffffffffffffffffff1673ffffffffffffffffffffffffffffffffffffffff1663d35911f2336040518263ffffffff1660e01b8152600401610cb09190613d29565b602060405180830381865afa158015610ccb573d5f5f3e3d5ffd5b505050506040513d601f19601f82011682018060405250810190610cef91906141be565b155b8015610d93575060025f9054906101000a900473ffffffffffffffffffffffffffffffffffffffff1673ffffffffffffffffffffffffffffffffffffffff1663c138c139336040518263ffffffff1660e01b8152600401610d529190613d29565b602060405180830381865afa158015610d6d573d5f5f3e3d5ffd5b505050506040513d601f19601f82011682018060405250810190610d9191906141be565b155b15610dca576040517f19ca4b5e00000000000000000000000000000000000000000000000000000000815260040160405180910390fd5b610dd3816131a2565b50565b610dde6139b7565b60065f8373ffffffffffffffffffffffffffffffffffffffff1673ffffffffffffffffffffffffffffffffffffffff1681526020019081526020015f206040518060800160405290815f82015f9054906101000a900460ff161515151581526020015f820160019054906101000a900464ffffffffff1664ffffffffff1664ffffffffff1681526020015f820160069054906101000a90046bffffffffffffffffffffffff166bffffffffffffffffffffffff166bffffffffffffffffffffffff1681526020015f820160129054906101000a90046bffffffffffffffffffffffff166bffffffffffffffffffffffff166bffffffffffffffffffffffff16815250509050919050565b7f000000000000000000000000000000000000000000000000000000000000000081565b60025f9054906101000a900473ffffffffffffffffffffffffffffffffffffffff1673ffffffffffffffffffffffffffffffffffffffff1663d35911f2336040518263ffffffff1660e01b8152600401610f669190613d29565b602060405180830381865afa158015610f81573d5f5f3e3d5ffd5b505050506040513d601f19601f82011682018060405250810190610fa591906141be565b158015611048575060025f9054906101000a900473ffffffffffffffffffffffffffffffffffffffff1673ffffffffffffffffffffffffffffffffffffffff1663c138c139336040518263ffffffff1660e01b81526004016110079190613d29565b602060405180830381865afa158015611022573d5f5f3e3d5ffd5b505050506040513d601f19601f8201168201806040525081019061104691906141be565b155b1561107f576040517fdc85555400000000000000000000000000000000000000000000000000000000815260040160405180910390fd5b600260149054906101000a900460ff16156110c6576040517fbaf7375c00000000000000000000000000000000000000000000000000000000815260040160405180910390fd5b6107d061ffff168161ffff16111561110a576040517f65c9772600000000000000000000000000000000000000000000000000000000815260040160405180910390fd5b8060055f0160146101000a81548161ffff021916908361ffff1602179055507f000000000000000000000000000000000000000000000000000000000000000073ffffffffffffffffffffffffffffffffffffffff167f8ccb18452db698466024883cfd6df6fee864c24ed64251ecf8ec814f372a2f2f8260405161118f91906143ce565b60405180910390a250565b60025f9054906101000a900473ffffffffffffffffffffffffffffffffffffffff1673ffffffffffffffffffffffffffffffffffffffff1663d35911f2336040518263ffffffff1660e01b81526004016111f49190613d29565b602060405180830381865afa15801561120f573d5f5f3e3d5ffd5b505050506040513d601f19601f8201168201806040525081019061123391906141be565b1580156112d6575060025f9054906101000a900473ffffffffffffffffffffffffffffffffffffffff1673ffffffffffffffffffffffffffffffffffffffff1663c138c139336040518263ffffffff1660e01b81526004016112959190613d29565b602060405180830381865afa1580156112b0573d5f5f3e3d5ffd5b505050506040513d601f19601f820116820180604052508101906112d491906141be565b155b1561130d576040517fdc85555400000000000000000000000000000000000000000000000000000000815260040160405180910390fd5b5f600260146101000a81548160ff0219169083151502179055507fa45f47fdea8a1efdd9029a5691c7f759c32b7c698632b563573e155625d1693360405160405180910390a1565b60045f9054906101000a900473ffffffffffffffffffffffffffffffffffffffff1681565b60025f9054906101000a900473ffffffffffffffffffffffffffffffffffffffff1673ffffffffffffffffffffffffffffffffffffffff1663d35911f2336040518263ffffffff1660e01b81526004016113d49190613d29565b602060405180830381865afa1580156113ef573d5f5f3e3d5ffd5b505050506040513d601f19601f8201168201806040525081019061141391906141be565b1580156114b6575060025f9054906101000a900473ffffffffffffffffffffffffffffffffffffffff1673ffffffffffffffffffffffffffffffffffffffff1663c138c139336040518263ffffffff1660e01b81526004016114759190613d29565b602060405180830381865afa158015611490573d5f5f3e3d5ffd5b505050506040513d601f19601f820116820180604052508101906114b491906141be565b155b156114ed576040517fdc85555400000000000000000000000000000000000000000000000000000000815260040160405180910390fd5b6107d061ffff168161ffff161115611531576040517f858a3a1e00000000000000000000000000000000000000000000000000000000815260040160405180910390fd5b8060055f0160166101000a81548161ffff021916908361ffff1602179055507f16ed1e6a61c10c9a5ce9596688e710a47fd7170fb21ac5586bb2493bfff4795e8160405161157f91906143ce565b60405180910390a150565b6005805f015f9054906101000a900463ffffffff1690805f0160049054906101000a90046fffffffffffffffffffffffffffffffff1690805f0160149054906101000a900461ffff1690805f0160169054906101000a900461ffff16905084565b6006602052805f5260405f205f91509050805f015f9054906101000a900460ff1690805f0160019054906101000a900464ffffffffff1690805f0160069054906101000a90046bffffffffffffffffffffffff1690805f0160129054906101000a90046bffffffffffffffffffffffff16905084565b61168e335f357fffffffff0000000000000000000000000000000000000000000000000000000016613028565b6116cd576040517f08c379a00000000000000000000000000000000000000000000000000000000081526004016116c490614282565b60405180910390fd5b600160035414611712576040517f08c379a0000000000000000000000000000000000000000000000000000000008152600401611709906142ea565b60405180910390fd5b6002600381905550600260149054906101000a900460ff1615611761576040517fbaf7375c00000000000000000000000000000000000000000000000000000000815260040160405180910390fd5b5f60065f3373ffffffffffffffffffffffffffffffffffffffff1673ffffffffffffffffffffffffffffffffffffffff1681526020019081526020015f2090505f815f0160069054906101000a90046bffffffffffffffffffffffff166bffffffffffffffffffffffff161115611804576040517f4f20c80100000000000000000000000000000000000000000000000000000000815260040160405180910390fd5b61185f3330856bffffffffffffffffffffffff167f000000000000000000000000000000000000000000000000000000000000000073ffffffffffffffffffffffffffffffffffffffff166133d0909392919063ffffffff16565b826bffffffffffffffffffffffff1660055f0160048282829054906101000a90046fffffffffffffffffffffffffffffffff1661189c91906143e7565b92506101000a8154816fffffffffffffffffffffffffffffffff02191690836fffffffffffffffffffffffffffffffff16021790555082815f0160066101000a8154816bffffffffffffffffffffffff02191690836bffffffffffffffffffffffff1602179055505f60055f015f9054906101000a900463ffffffff1663ffffffff164261192a9190614374565b905080825f0160016101000a81548164ffffffffff021916908364ffffffffff16021790555082825f015f6101000a81548160ff0219169083151502179055505f6119a660055f0160149054906101000a900461ffff1661ffff16612710876bffffffffffffffffffffffff166131619092919063ffffffff16565b905080835f0160126101000a8154816bffffffffffffffffffffffff02191690836bffffffffffffffffffffffff1602179055507f000000000000000000000000000000000000000000000000000000000000000073ffffffffffffffffffffffffffffffffffffffff163373ffffffffffffffffffffffffffffffffffffffff167f7c7bb9f0b469c21da4666496577565b8e0f6a5da9834e8d15b12603b260ca6c68785604051611a5992919061442a565b60405180910390a350505060016003819055505050565b60025f9054906101000a900473ffffffffffffffffffffffffffffffffffffffff1673ffffffffffffffffffffffffffffffffffffffff1663d35911f2336040518263ffffffff1660e01b8152600401611aca9190613d29565b602060405180830381865afa158015611ae5573d5f5f3e3d5ffd5b505050506040513d601f19601f82011682018060405250810190611b0991906141be565b158015611bac575060025f9054906101000a900473ffffffffffffffffffffffffffffffffffffffff1673ffffffffffffffffffffffffffffffffffffffff1663c138c139336040518263ffffffff1660e01b8152600401611b6b9190613d29565b602060405180830381865afa158015611b86573d5f5f3e3d5ffd5b505050506040513d601f19601f82011682018060405250810190611baa91906141be565b155b15611be3576040517fdc85555400000000000000000000000000000000000000000000000000000000815260040160405180910390fd5b600260149054906101000a900460ff1615611c2a576040517fbaf7375c00000000000000000000000000000000000000000000000000000000815260040160405180910390fd5b8060055f015f6101000a81548163ffffffff021916908363ffffffff1602179055507f000000000000000000000000000000000000000000000000000000000000000073ffffffffffffffffffffffffffffffffffffffff167ff460eccc96794cc59e91dc95757a6579291d9b251377740e28b39b482290052a82604051611cb29190614451565b60405180910390a250565b5f5f9054906101000a900473ffffffffffffffffffffffffffffffffffffffff1673ffffffffffffffffffffffffffffffffffffffff163373ffffffffffffffffffffffffffffffffffffffff161480611dd3575060015f9054906101000a900473ffffffffffffffffffffffffffffffffffffffff1673ffffffffffffffffffffffffffffffffffffffff1663b700961333305f357fffffffff00000000000000000000000000000000000000000000000000000000166040518463ffffffff1660e01b8152600401611d93939291906144a4565b602060405180830381865afa158015611dae573d5f5f3e3d5ffd5b505050506040513d601f19601f82011682018060405250810190611dd291906141be565b5b611ddb575f5ffd5b8060015f6101000a81548173ffffffffffffffffffffffffffffffffffffffff021916908373ffffffffffffffffffffffffffffffffffffffff1602179055508073ffffffffffffffffffffffffffffffffffffffff163373ffffffffffffffffffffffffffffffffffffffff167fa3396fd7f6e0a21b50e5089d2da70d5ac0a3bbbd1f617a93f134b7638998019860405160405180910390a350565b60025f9054906101000a900473ffffffffffffffffffffffffffffffffffffffff1673ffffffffffffffffffffffffffffffffffffffff1663d35911f2336040518263ffffffff1660e01b8152600401611ed29190613d29565b602060405180830381865afa158015611eed573d5f5f3e3d5ffd5b505050506040513d601f19601f82011682018060405250810190611f1191906141be565b158015611fb4575060025f9054906101000a900473ffffffffffffffffffffffffffffffffffffffff1673ffffffffffffffffffffffffffffffffffffffff1663c138c139336040518263ffffffff1660e01b8152600401611f739190613d29565b602060405180830381865afa158015611f8e573d5f5f3e3d5ffd5b505050506040513d601f19601f82011682018060405250810190611fb291906141be565b155b15611feb576040517fdc85555400000000000000000000000000000000000000000000000000000000815260040160405180910390fd5b6001600260146101000a81548160ff0219169083151502179055507f9e87fac88ff661f02d44f95383c817fece4bce600a3dab7a54406878b965e75260405160405180910390a1565b612061335f357fffffffff0000000000000000000000000000000000000000000000000000000016613028565b6120a0576040517f08c379a000000000000000000000000000000000000000000000000000000000815260040161209790614282565b60405180910390fd5b6001600354146120e5576040517f08c379a00000000000000000000000000000000000000000000000000000000081526004016120dc906142ea565b60405180910390fd5b60026003819055506120f6336131a2565b6001600381905550565b60025f9054906101000a900473ffffffffffffffffffffffffffffffffffffffff1673ffffffffffffffffffffffffffffffffffffffff1663d35911f2336040518263ffffffff1660e01b815260040161215a9190613d29565b602060405180830381865afa158015612175573d5f5f3e3d5ffd5b505050506040513d601f19601f8201168201806040525081019061219991906141be565b15801561223c575060025f9054906101000a900473ffffffffffffffffffffffffffffffffffffffff1673ffffffffffffffffffffffffffffffffffffffff1663c138c139336040518263ffffffff1660e01b81526004016121fb9190613d29565b602060405180830381865afa158015612216573d5f5f3e3d5ffd5b505050506040513d601f19601f8201168201806040525081019061223a91906141be565b155b15612273576040517fdc85555400000000000000000000000000000000000000000000000000000000815260040160405180910390fd5b5f73ffffffffffffffffffffffffffffffffffffffff168173ffffffffffffffffffffffffffffffffffffffff16036122d8576040517ff3a6738800000000000000000000000000000000000000000000000000000000815260040160405180910390fd5b8060045f6101000a81548173ffffffffffffffffffffffffffffffffffffffff021916908373ffffffffffffffffffffffffffffffffffffffff1602179055507f679f4cc040076580bf118e3f2307b72842331922e8054b8cc292bb37f05e5b03816040516123479190613d29565b60405180910390a150565b60025f9054906101000a900473ffffffffffffffffffffffffffffffffffffffff1673ffffffffffffffffffffffffffffffffffffffff1663d35911f2336040518263ffffffff1660e01b81526004016123ac9190613d29565b602060405180830381865afa1580156123c7573d5f5f3e3d5ffd5b505050506040513d601f19601f820116820180604052508101906123eb91906141be565b15801561248e575060025f9054906101000a900473ffffffffffffffffffffffffffffffffffffffff1673ffffffffffffffffffffffffffffffffffffffff1663c138c139336040518263ffffffff1660e01b815260040161244d9190613d29565b602060405180830381865afa158015612468573d5f5f3e3d5ffd5b505050506040513d601f19601f8201168201806040525081019061248c91906141be565b155b156124c5576040517fdc85555400000000000000000000000000000000000000000000000000000000815260040160405180910390fd5b6107d061ffff168261ffff161115612509576040517f65c9772600000000000000000000000000000000000000000000000000000000815260040160405180910390fd5b6107d061ffff168161ffff16111561254d576040517f858a3a1e00000000000000000000000000000000000000000000000000000000815260040160405180910390fd5b5f60055f015f9054906101000a900463ffffffff1663ffffffff161461259f576040517f5c5ea4ba00000000000000000000000000000000000000000000000000000000815260040160405180910390fd5b8260055f015f6101000a81548163ffffffff021916908363ffffffff1602179055508160055f0160146101000a81548161ffff021916908361ffff1602179055508060055f0160166101000a81548161ffff021916908361ffff1602179055507f000000000000000000000000000000000000000000000000000000000000000073ffffffffffffffffffffffffffffffffffffffff167f0cea879951527447b42baf1288a10716427f4b9754822556bffd7279cd02409c848460405161266792919061451c565b60405180910390a2505050565b5f5f9054906101000a900473ffffffffffffffffffffffffffffffffffffffff1681565b5f5f7f000000000000000000000000000000000000000000000000000000000000000073ffffffffffffffffffffffffffffffffffffffff1663282a87006040518163ffffffff1660e01b8152600401602060405180830381865afa158015612703573d5f5f3e3d5ffd5b505050506040513d601f19601f8201168201806040525081019061272791906141fd565b905061279060055f0160049054906101000a90046fffffffffffffffffffffffffffffffff166fffffffffffffffffffffffffffffffff167f0000000000000000000000000000000000000000000000000000000000000000836131619092919063ffffffff16565b91505090565b6127c3335f357fffffffff0000000000000000000000000000000000000000000000000000000016613028565b612802576040517f08c379a00000000000000000000000000000000000000000000000000000000081526004016127f990614282565b60405180910390fd5b8060065f3373ffffffffffffffffffffffffffffffffffffffff1673ffffffffffffffffffffffffffffffffffffffff1681526020019081526020015f205f015f6101000a81548160ff0219169083151502179055507f000000000000000000000000000000000000000000000000000000000000000073ffffffffffffffffffffffffffffffffffffffff163373ffffffffffffffffffffffffffffffffffffffff167f21620b27ba9eeb9c0fe4b328d9038784b90664af3e7f54617d2d3b14cd97c34e836040516128d5919061403c565b60405180910390a350565b600260149054906101000a900460ff1681565b5f60025f9054906101000a900473ffffffffffffffffffffffffffffffffffffffff1673ffffffffffffffffffffffffffffffffffffffff1663fc4e3e0a336040518263ffffffff1660e01b815260040161294e9190613d29565b602060405180830381865afa158015612969573d5f5f3e3d5ffd5b505050506040513d601f19601f8201168201806040525081019061298d91906141be565b158015612a30575060025f9054906101000a900473ffffffffffffffffffffffffffffffffffffffff1673ffffffffffffffffffffffffffffffffffffffff1663d35911f2336040518263ffffffff1660e01b81526004016129ef9190613d29565b602060405180830381865afa158015612a0a573d5f5f3e3d5ffd5b505050506040513d601f19601f82011682018060405250810190612a2e91906141be565b155b8015612ad2575060025f9054906101000a900473ffffffffffffffffffffffffffffffffffffffff1673ffffffffffffffffffffffffffffffffffffffff1663c138c139336040518263ffffffff1660e01b8152600401612a919190613d29565b602060405180830381865afa158015612aac573d5f5f3e3d5ffd5b505050506040513d601f19601f82011682018060405250810190612ad091906141be565b155b15612b09576040517f19ca4b5e00000000000000000000000000000000000000000000000000000000815260040160405180910390fd5b5f60065f8473ffffffffffffffffffffffffffffffffffffffff1673ffffffffffffffffffffffffffffffffffffffff1681526020019081526020015f209050612b5383826134a4565b915050919050565b5f612b89335f357fffffffff0000000000000000000000000000000000000000000000000000000016613028565b612bc8576040517f08c379a0000000000000000000000000000000000000000000000000000000008152600401612bbf90614282565b60405180910390fd5b600160035414612c0d576040517f08c379a0000000000000000000000000000000000000000000000000000000008152600401612c04906142ea565b60405180910390fd5b6002600381905550600260149054906101000a900460ff1615612c5c576040517fbaf7375c00000000000000000000000000000000000000000000000000000000815260040160405180910390fd5b5f60065f8473ffffffffffffffffffffffffffffffffffffffff1673ffffffffffffffffffffffffffffffffffffffff1681526020019081526020015f2090508273ffffffffffffffffffffffffffffffffffffffff163373ffffffffffffffffffffffffffffffffffffffff1614158015612ce55750805f015f9054906101000a900460ff16155b15612d1c576040517f541250f700000000000000000000000000000000000000000000000000000000815260040160405180910390fd5b612d2683826134a4565b9150506001600381905550919050565b60015f9054906101000a900473ffffffffffffffffffffffffffffffffffffffff1681565b60025f9054906101000a900473ffffffffffffffffffffffffffffffffffffffff1681565b612d88613a00565b60056040518060800160405290815f82015f9054906101000a900463ffffffff1663ffffffff1663ffffffff1681526020015f820160049054906101000a90046fffffffffffffffffffffffffffffffff166fffffffffffffffffffffffffffffffff166fffffffffffffffffffffffffffffffff1681526020015f820160149054906101000a900461ffff1661ffff1661ffff1681526020015f820160169054906101000a900461ffff1661ffff1661ffff1681525050905090565b612e72335f357fffffffff0000000000000000000000000000000000000000000000000000000016613028565b612eb1576040517f08c379a0000000000000000000000000000000000000000000000000000000008152600401612ea890614282565b60405180910390fd5b805f5f6101000a81548173ffffffffffffffffffffffffffffffffffffffff021916908373ffffffffffffffffffffffffffffffffffffffff1602179055508073ffffffffffffffffffffffffffffffffffffffff163373ffffffffffffffffffffffffffffffffffffffff167f8be0079c531659141344cd1fd0a4f28419497f9722a3daafe3b4186f6b6457e060405160405180910390a350565b7f000000000000000000000000000000000000000000000000000000000000000081565b5f6040517fa9059cbb00000000000000000000000000000000000000000000000000000000815273ffffffffffffffffffffffffffffffffffffffff8416600482015282602482015260205f6044835f895af1915081601f3d1160015f511416151615612fe1573d853b15171591505b5080613022576040517f08c379a00000000000000000000000000000000000000000000000000000000081526004016130199061458d565b60405180910390fd5b50505050565b5f5f60015f9054906101000a900473ffffffffffffffffffffffffffffffffffffffff1690505f73ffffffffffffffffffffffffffffffffffffffff168173ffffffffffffffffffffffffffffffffffffffff161415801561310257508073ffffffffffffffffffffffffffffffffffffffff1663b70096138530866040518463ffffffff1660e01b81526004016130c2939291906144a4565b602060405180830381865afa1580156130dd573d5f5f3e3d5ffd5b505050506040513d601f19601f8201168201806040525081019061310191906141be565b5b8061315857505f5f9054906101000a900473ffffffffffffffffffffffffffffffffffffffff1673ffffffffffffffffffffffffffffffffffffffff168473ffffffffffffffffffffffffffffffffffffffff16145b91505092915050565b5f827fffffffffffffffffffffffffffffffffffffffffffffffffffffffffffffffff0484118302158202613194575f5ffd5b818385020490509392505050565b5f60065f8373ffffffffffffffffffffffffffffffffffffffff1673ffffffffffffffffffffffffffffffffffffffff1681526020019081526020015f2090505f815f0160069054906101000a90046bffffffffffffffffffffffff1690505f816bffffffffffffffffffffffff1603613248576040517fe4ccf1f400000000000000000000000000000000000000000000000000000000815260040160405180910390fd5b806bffffffffffffffffffffffff1660055f0160048282829054906101000a90046fffffffffffffffffffffffffffffffff1661328591906145ab565b92506101000a8154816fffffffffffffffffffffffffffffffff02191690836fffffffffffffffffffffffffffffffff1602179055505f825f0160066101000a8154816bffffffffffffffffffffffff02191690836bffffffffffffffffffffffff16021790555061334683826bffffffffffffffffffffffff167f000000000000000000000000000000000000000000000000000000000000000073ffffffffffffffffffffffffffffffffffffffff16612f719092919063ffffffff16565b7f000000000000000000000000000000000000000000000000000000000000000073ffffffffffffffffffffffffffffffffffffffff168373ffffffffffffffffffffffffffffffffffffffff167fcb0f3204f6895f1e698cfa5f0cceed9d5e62b57fe0d8648a47fc3685a78e7e97836040516133c391906145ee565b60405180910390a3505050565b5f6040517f23b872dd00000000000000000000000000000000000000000000000000000000815273ffffffffffffffffffffffffffffffffffffffff8516600482015273ffffffffffffffffffffffffffffffffffffffff8416602482015282604482015260205f6064835f8a5af1915081601f3d1160015f51141615161561345c573d863b15171591505b508061349d576040517f08c379a000000000000000000000000000000000000000000000000000000000815260040161349490614651565b60405180910390fd5b5050505050565b5f600260149054906101000a900460ff16156134ec576040517fbaf7375c00000000000000000000000000000000000000000000000000000000815260040160405180910390fd5b815f0160019054906101000a900464ffffffffff1664ffffffffff16421015613541576040517f53a8b71400000000000000000000000000000000000000000000000000000000815260040160405180910390fd5b5f825f0160069054906101000a90046bffffffffffffffffffffffff166bffffffffffffffffffffffff16036135a3576040517fe4ccf1f400000000000000000000000000000000000000000000000000000000815260040160405180910390fd5b5f825f0160069054906101000a90046bffffffffffffffffffffffff166bffffffffffffffffffffffff1690505f835f0160129054906101000a90046bffffffffffffffffffffffff166bffffffffffffffffffffffff1690508160055f0160048282829054906101000a90046fffffffffffffffffffffffffffffffff1661362c91906145ab565b92506101000a8154816fffffffffffffffffffffffffffffffff02191690836fffffffffffffffffffffffffffffffff1602179055505f8111156136e5578082613676919061466f565b91506136e460045f9054906101000a900473ffffffffffffffffffffffffffffffffffffffff16827f000000000000000000000000000000000000000000000000000000000000000073ffffffffffffffffffffffffffffffffffffffff16612f719092919063ffffffff16565b5b7f000000000000000000000000000000000000000000000000000000000000000073ffffffffffffffffffffffffffffffffffffffff166302ce728f6040518163ffffffff1660e01b81526004015f604051808303815f87803b15801561374a575f5ffd5b505af115801561375c573d5f5f3e3d5ffd5b505050505f6138227f000000000000000000000000000000000000000000000000000000000000000073ffffffffffffffffffffffffffffffffffffffff1663282a87006040518163ffffffff1660e01b8152600401602060405180830381865afa1580156137cd573d5f5f3e3d5ffd5b505050506040513d601f19601f820116820180604052508101906137f191906141fd565b7f0000000000000000000000000000000000000000000000000000000000000000856131619092919063ffffffff16565b90505f855f0160066101000a8154816bffffffffffffffffffffffff02191690836bffffffffffffffffffffffff1602179055505f855f0160126101000a8154816bffffffffffffffffffffffff02191690836bffffffffffffffffffffffff1602179055507f000000000000000000000000000000000000000000000000000000000000000073ffffffffffffffffffffffffffffffffffffffff16630ad58d2f8483896040518463ffffffff1660e01b81526004016138e5939291906146a2565b6020604051808303815f875af1158015613901573d5f5f3e3d5ffd5b505050506040513d601f19601f8201168201806040525081019061392591906141fd565b93507f000000000000000000000000000000000000000000000000000000000000000073ffffffffffffffffffffffffffffffffffffffff168673ffffffffffffffffffffffffffffffffffffffff167fbf9c520fb583da9b8f434d2dfa27f8695602f498c937081299893335144e99a285876040516139a69291906146d7565b60405180910390a350505092915050565b60405180608001604052805f151581526020015f64ffffffffff1681526020015f6bffffffffffffffffffffffff1681526020015f6bffffffffffffffffffffffff1681525090565b60405180608001604052805f63ffffffff1681526020015f6fffffffffffffffffffffffffffffffff1681526020015f61ffff1681526020015f61ffff1681525090565b5f5ffd5b5f73ffffffffffffffffffffffffffffffffffffffff82169050919050565b5f613a7182613a48565b9050919050565b5f613a8282613a67565b9050919050565b613a9281613a78565b8114613a9c575f5ffd5b50565b5f81359050613aad81613a89565b92915050565b5f819050919050565b613ac581613ab3565b8114613acf575f5ffd5b50565b5f81359050613ae081613abc565b92915050565b5f5f60408385031215613afc57613afb613a44565b5b5f613b0985828601613a9f565b9250506020613b1a85828601613ad2565b9150509250929050565b613b2d81613a67565b8114613b37575f5ffd5b50565b5f81359050613b4881613b24565b92915050565b5f60208284031215613b6357613b62613a44565b5b5f613b7084828501613b3a565b91505092915050565b5f8115159050919050565b613b8d81613b79565b82525050565b5f64ffffffffff82169050919050565b613bac81613b93565b82525050565b5f6bffffffffffffffffffffffff82169050919050565b613bd281613bb2565b82525050565b608082015f820151613bec5f850182613b84565b506020820151613bff6020850182613ba3565b506040820151613c126040850182613bc9565b506060820151613c256060850182613bc9565b50505050565b5f608082019050613c3e5f830184613bd8565b92915050565b5f819050919050565b5f613c67613c62613c5d84613a48565b613c44565b613a48565b9050919050565b5f613c7882613c4d565b9050919050565b5f613c8982613c6e565b9050919050565b613c9981613c7f565b82525050565b5f602082019050613cb25f830184613c90565b92915050565b5f61ffff82169050919050565b613cce81613cb8565b8114613cd8575f5ffd5b50565b5f81359050613ce981613cc5565b92915050565b5f60208284031215613d0457613d03613a44565b5b5f613d1184828501613cdb565b91505092915050565b613d2381613a67565b82525050565b5f602082019050613d3c5f830184613d1a565b92915050565b5f63ffffffff82169050919050565b613d5a81613d42565b82525050565b5f6fffffffffffffffffffffffffffffffff82169050919050565b613d8481613d60565b82525050565b613d9381613cb8565b82525050565b5f608082019050613dac5f830187613d51565b613db96020830186613d7b565b613dc66040830185613d8a565b613dd36060830184613d8a565b95945050505050565b613de581613b79565b82525050565b613df481613b93565b82525050565b613e0381613bb2565b82525050565b5f608082019050613e1c5f830187613ddc565b613e296020830186613deb565b613e366040830185613dfa565b613e436060830184613dfa565b95945050505050565b613e5581613bb2565b8114613e5f575f5ffd5b50565b5f81359050613e7081613e4c565b92915050565b613e7f81613b79565b8114613e89575f5ffd5b50565b5f81359050613e9a81613e76565b92915050565b5f5f60408385031215613eb657613eb5613a44565b5b5f613ec385828601613e62565b9250506020613ed485828601613e8c565b9150509250929050565b613ee781613d42565b8114613ef1575f5ffd5b50565b5f81359050613f0281613ede565b92915050565b5f60208284031215613f1d57613f1c613a44565b5b5f613f2a84828501613ef4565b91505092915050565b5f613f3d82613a67565b9050919050565b613f4d81613f33565b8114613f57575f5ffd5b50565b5f81359050613f6881613f44565b92915050565b5f60208284031215613f8357613f82613a44565b5b5f613f9084828501613f5a565b91505092915050565b5f5f5f60608486031215613fb057613faf613a44565b5b5f613fbd86828701613ef4565b9350506020613fce86828701613cdb565b9250506040613fdf86828701613cdb565b9150509250925092565b613ff281613ab3565b82525050565b5f60208201905061400b5f830184613fe9565b92915050565b5f6020828403121561402657614025613a44565b5b5f61403384828501613e8c565b91505092915050565b5f60208201905061404f5f830184613ddc565b92915050565b5f61405f82613c6e565b9050919050565b61406f81614055565b82525050565b5f6020820190506140885f830184614066565b92915050565b5f61409882613c6e565b9050919050565b6140a88161408e565b82525050565b5f6020820190506140c15f83018461409f565b92915050565b6140d081613d42565b82525050565b6140df81613d60565b82525050565b6140ee81613cb8565b82525050565b608082015f8201516141085f8501826140c7565b50602082015161411b60208501826140d6565b50604082015161412e60408501826140e5565b50606082015161414160608501826140e5565b50505050565b5f60808201905061415a5f8301846140f4565b92915050565b5f61416a82613c4d565b9050919050565b5f61417b82614160565b9050919050565b61418b81614171565b82525050565b5f6020820190506141a45f830184614182565b92915050565b5f815190506141b881613e76565b92915050565b5f602082840312156141d3576141d2613a44565b5b5f6141e0848285016141aa565b91505092915050565b5f815190506141f781613abc565b92915050565b5f6020828403121561421257614211613a44565b5b5f61421f848285016141e9565b91505092915050565b5f82825260208201905092915050565b7f554e415554484f52495a454400000000000000000000000000000000000000005f82015250565b5f61426c600c83614228565b915061427782614238565b602082019050919050565b5f6020820190508181035f83015261429981614260565b9050919050565b7f5245454e5452414e4359000000000000000000000000000000000000000000005f82015250565b5f6142d4600a83614228565b91506142df826142a0565b602082019050919050565b5f6020820190508181035f830152614301816142c8565b9050919050565b7f4e487b71000000000000000000000000000000000000000000000000000000005f52601160045260245ffd5b5f61433f82613bb2565b915061434a83613bb2565b925082820190506bffffffffffffffffffffffff81111561436e5761436d614308565b5b92915050565b5f61437e82613ab3565b915061438983613ab3565b92508282019050808211156143a1576143a0614308565b5b92915050565b5f6040820190506143ba5f830185613deb565b6143c76020830184613dfa565b9392505050565b5f6020820190506143e15f830184613d8a565b92915050565b5f6143f182613d60565b91506143fc83613d60565b925082820190506fffffffffffffffffffffffffffffffff81111561442457614423614308565b5b92915050565b5f60408201905061443d5f830185613dfa565b61444a6020830184613deb565b9392505050565b5f6020820190506144645f830184613d51565b92915050565b5f7fffffffff0000000000000000000000000000000000000000000000000000000082169050919050565b61449e8161446a565b82525050565b5f6060820190506144b75f830186613d1a565b6144c46020830185613d1a565b6144d16040830184614495565b949350505050565b5f67ffffffffffffffff82169050919050565b5f6145066145016144fc84613d42565b613c44565b6144d9565b9050919050565b614516816144ec565b82525050565b5f60408201905061452f5f83018561450d565b61453c6020830184613d8a565b9392505050565b7f5452414e534645525f4641494c454400000000000000000000000000000000005f82015250565b5f614577600f83614228565b915061458282614543565b602082019050919050565b5f6020820190508181035f8301526145a48161456b565b9050919050565b5f6145b582613d60565b91506145c083613d60565b925082820390506fffffffffffffffffffffffffffffffff8111156145e8576145e7614308565b5b92915050565b5f6020820190506146015f830184613dfa565b92915050565b7f5452414e534645525f46524f4d5f4641494c45440000000000000000000000005f82015250565b5f61463b601483614228565b915061464682614607565b602082019050919050565b5f6020820190508181035f8301526146688161462f565b9050919050565b5f61467982613ab3565b915061468483613ab3565b925082820390508181111561469c5761469b614308565b5b92915050565b5f6060820190506146b55f830186613fe9565b6146c26020830185613fe9565b6146cf6040830184613d1a565b949350505050565b5f6040820190506146ea5f830185613fe9565b6146f76020830184613fe9565b939250505056fea26469706673582212207014ecfd40f151f8ffafd7f136362f6f098073974fc096fe95acc99e8020ce4364736f6c634300081e0033",
  "linkReferences": {},
  "deployedLinkReferences": {},
  "immutableReferences": {
    "9489": [
      {
        "length": 32,
        "start": 9884
      },
      {
        "length": 32,
        "start": 14055
      },
      {
        "length": 32,
        "start": 14182
      }
    ],
    "9493": [
      {
        "length": 32,
        "start": 14474
      }
    ],
    "9497": [
      {
        "length": 32,
        "start": 1684
      },
      {
        "length": 32,
        "start": 6170
      },
      {
        "length": 32,
        "start": 12111
      },
      {
        "length": 32,
        "start": 13058
      },
      {
        "length": 32,
        "start": 13984
      }
    ],
    "9501": [
      {
        "length": 32,
        "start": 2851
      },
      {
        "length": 32,
        "start": 3818
      },
      {
        "length": 32,
        "start": 4395
      },
      {
        "length": 32,
        "start": 6620
      },
      {
        "length": 32,
        "start": 7246
      },
      {
        "length": 32,
        "start": 9729
      },
      {
        "length": 32,
        "start": 10330
      },
      {
        "length": 32,
        "start": 13128
      },
      {
        "length": 32,
        "start": 14633
      }
    ],
    "9504": [
      {
        "length": 32,
        "start": 10081
      },
      {
        "length": 32,
        "start": 14323
      }
    ]
  },
  "inputSourceName": "project/contracts/core/DelayedWithdraw.sol",
  "buildInfoId": "solc-0_8_30-1928dd092702c4b13d9ee7116b7a704288626338"
}