{
  "_format": "hh3-artifact-1",
  "contractName": "DelayedWithdraw",
  "sourceName": "contracts/core/DelayedWithdraw.sol",
  "abi": [
    {
      "inputs": [
        {
          "internalType": "address",
          "name": "_primeRBAC",
          "type": "address"
        },
        {
          "internalType": "address",
          "name": "_vault",
          "type": "address"
        },
        {
          "internalType": "address",
          "name": "_accountant",
          "type": "address"
        },
        {
          "internalType": "address",
          "name": "_teller",
          "type": "address"
        },
        {
          "internalType": "address",
          "name": "_payoutAddress",
          "type": "address"
        }
      ],
      "stateMutability": "nonpayable",
      "type": "constructor"
    },
    {
      "inputs": [],
      "name": "DelayedWithdraw__AlreadySetup",
      "type": "error"
    },
    {
      "inputs": [],
      "name": "DelayedWithdraw__BadAddress",
      "type": "error"
    },
    {
      "inputs": [],
      "name": "DelayedWithdraw__CallerNotBoringVault",
      "type": "error"
    },
    {
      "inputs": [],
      "name": "DelayedWithdraw__CannotWithdrawBoringToken",
      "type": "error"
    },
    {
      "inputs": [],
      "name": "DelayedWithdraw__ExpeditedWithdrawFeeTooHigh",
      "type": "error"
    },
    {
      "inputs": [],
      "name": "DelayedWithdraw__ExpeditedWithdrawNotAvailable",
      "type": "error"
    },
    {
      "inputs": [],
      "name": "DelayedWithdraw__MaxLossExceeded",
      "type": "error"
    },
    {
      "inputs": [],
      "name": "DelayedWithdraw__NoSharesToWithdraw",
      "type": "error"
    },
    {
      "inputs": [],
      "name": "DelayedWithdraw__NoWithdrawToAccelerate",
      "type": "error"
    },
    {
      "inputs": [],
      "name": "DelayedWithdraw__Paused",
      "type": "error"
    },
    {
      "inputs": [],
      "name": "DelayedWithdraw__ThirdPartyCompletionNotAllowed",
      "type": "error"
    },
    {
      "inputs": [],
      "name": "DelayedWithdraw__WithdrawAlreadyAccelerated",
      "type": "error"
    },
    {
      "inputs": [],
      "name": "DelayedWithdraw__WithdrawFeeTooHigh",
      "type": "error"
    },
    {
      "inputs": [],
      "name": "DelayedWithdraw__WithdrawNotMatured",
      "type": "error"
    },
    {
      "inputs": [],
      "name": "DelayedWithdraw__WithdrawPending",
      "type": "error"
    },
    {
      "inputs": [],
      "name": "DelayedWithdraw__WithdrawsNotAllowed",
      "type": "error"
    },
    {
      "inputs": [],
      "name": "NOT_OPERATOR",
      "type": "error"
    },
    {
      "inputs": [],
      "name": "NOT_PROTOCOL_ADMIN",
      "type": "error"
    },
    {
      "inputs": [],
      "name": "ZERO_ADDRESS",
      "type": "error"
    },
    {
      "anonymous": false,
      "inputs": [
        {
          "indexed": true,
          "internalType": "address",
          "name": "user",
          "type": "address"
        },
        {
          "indexed": true,
          "internalType": "contract Authority",
          "name": "newAuthority",
          "type": "address"
        }
      ],
      "name": "AuthorityUpdated",
      "type": "event"
    },
    {
      "anonymous": false,
      "inputs": [
        {
          "indexed": false,
          "internalType": "uint16",
          "name": "newFee",
          "type": "uint16"
        }
      ],
      "name": "ExpeditedWithdrawFeeUpdated",
      "type": "event"
    },
    {
      "anonymous": false,
      "inputs": [
        {
          "indexed": false,
          "internalType": "address",
          "name": "newFeeAddress",
          "type": "address"
        }
      ],
      "name": "FeeAddressSet",
      "type": "event"
    },
    {
      "anonymous": false,
      "inputs": [
        {
          "indexed": true,
          "internalType": "address",
          "name": "user",
          "type": "address"
        },
        {
          "indexed": true,
          "internalType": "address",
          "name": "newOwner",
          "type": "address"
        }
      ],
      "name": "OwnershipTransferred",
      "type": "event"
    },
    {
      "anonymous": false,
      "inputs": [],
      "name": "Paused",
      "type": "event"
    },
    {
      "anonymous": false,
      "inputs": [
        {
          "indexed": false,
          "internalType": "bool",
          "name": "_pullFundsFromVault",
          "type": "bool"
        }
      ],
      "name": "PullFundsFromVaultUpdated",
      "type": "event"
    },
    {
      "anonymous": false,
      "inputs": [
        {
          "indexed": true,
          "internalType": "address",
          "name": "asset",
          "type": "address"
        },
        {
          "indexed": false,
          "internalType": "uint64",
          "name": "withdrawDelay",
          "type": "uint64"
        },
        {
          "indexed": false,
          "internalType": "uint16",
          "name": "withdrawFee",
          "type": "uint16"
        }
      ],
      "name": "SetupWithdrawalsInAsset",
      "type": "event"
    },
    {
      "anonymous": false,
      "inputs": [
        {
          "indexed": true,
          "internalType": "address",
          "name": "account",
          "type": "address"
        },
        {
          "indexed": true,
          "internalType": "contract ERC20",
          "name": "asset",
          "type": "address"
        },
        {
          "indexed": false,
          "internalType": "bool",
          "name": "allowed",
          "type": "bool"
        }
      ],
      "name": "ThirdPartyCompletionChanged",
      "type": "event"
    },
    {
      "anonymous": false,
      "inputs": [],
      "name": "Unpaused",
      "type": "event"
    },
    {
      "anonymous": false,
      "inputs": [
        {
          "indexed": true,
          "internalType": "address",
          "name": "account",
          "type": "address"
        },
        {
          "indexed": true,
          "internalType": "contract ERC20",
          "name": "asset",
          "type": "address"
        },
        {
          "indexed": false,
          "internalType": "uint40",
          "name": "newMaturity",
          "type": "uint40"
        },
        {
          "indexed": false,
          "internalType": "uint96",
          "name": "accelerationFee",
          "type": "uint96"
        }
      ],
      "name": "WithdrawAccelerated",
      "type": "event"
    },
    {
      "anonymous": false,
      "inputs": [
        {
          "indexed": true,
          "internalType": "address",
          "name": "account",
          "type": "address"
        },
        {
          "indexed": true,
          "internalType": "contract ERC20",
          "name": "asset",
          "type": "address"
        },
        {
          "indexed": false,
          "internalType": "uint96",
          "name": "shares",
          "type": "uint96"
        }
      ],
      "name": "WithdrawCancelled",
      "type": "event"
    },
    {
      "anonymous": false,
      "inputs": [
        {
          "indexed": true,
          "internalType": "address",
          "name": "account",
          "type": "address"
        },
        {
          "indexed": true,
          "internalType": "contract ERC20",
          "name": "asset",
          "type": "address"
        },
        {
          "indexed": false,
          "internalType": "uint256",
          "name": "shares",
          "type": "uint256"
        },
        {
          "indexed": false,
          "internalType": "uint256",
          "name": "assets",
          "type": "uint256"
        }
      ],
      "name": "WithdrawCompleted",
      "type": "event"
    },
    {
      "anonymous": false,
      "inputs": [
        {
          "indexed": true,
          "internalType": "address",
          "name": "asset",
          "type": "address"
        },
        {
          "indexed": false,
          "internalType": "uint32",
          "name": "newWithdrawDelay",
          "type": "uint32"
        }
      ],
      "name": "WithdrawDelayUpdated",
      "type": "event"
    },
    {
      "anonymous": false,
      "inputs": [
        {
          "indexed": true,
          "internalType": "address",
          "name": "asset",
          "type": "address"
        },
        {
          "indexed": false,
          "internalType": "uint16",
          "name": "newWithdrawFee",
          "type": "uint16"
        }
      ],
      "name": "WithdrawFeeUpdated",
      "type": "event"
    },
    {
      "anonymous": false,
      "inputs": [
        {
          "indexed": true,
          "internalType": "address",
          "name": "account",
          "type": "address"
        },
        {
          "indexed": true,
          "internalType": "contract ERC20",
          "name": "asset",
          "type": "address"
        },
        {
          "indexed": false,
          "internalType": "uint96",
          "name": "shares",
          "type": "uint96"
        },
        {
          "indexed": false,
          "internalType": "uint40",
          "name": "maturity",
          "type": "uint40"
        }
      ],
      "name": "WithdrawRequested",
      "type": "event"
    },
    {
      "anonymous": false,
      "inputs": [
        {
          "indexed": true,
          "internalType": "address",
          "name": "asset",
          "type": "address"
        }
      ],
      "name": "WithdrawalsStopped",
      "type": "event"
    },
    {
      "inputs": [],
      "name": "accelerateWithdraw",
      "outputs": [],
      "stateMutability": "nonpayable",
      "type": "function"
    },
    {
      "inputs": [],
      "name": "asset",
      "outputs": [
        {
          "internalType": "contract ERC20",
          "name": "",
          "type": "address"
        }
      ],
      "stateMutability": "view",
      "type": "function"
    },
    {
      "inputs": [],
      "name": "authority",
      "outputs": [
        {
          "internalType": "contract Authority",
          "name": "",
          "type": "address"
        }
      ],
      "stateMutability": "view",
      "type": "function"
    },
    {
      "inputs": [],
      "name": "boringVault",
      "outputs": [
        {
          "internalType": "contract BoringVault",
          "name": "",
          "type": "address"
        }
      ],
      "stateMutability": "view",
      "type": "function"
    },
    {
      "inputs": [
        {
          "internalType": "address",
          "name": "user",
          "type": "address"
        }
      ],
      "name": "cancelUserWithdraw",
      "outputs": [],
      "stateMutability": "nonpayable",
      "type": "function"
    },
    {
      "inputs": [],
      "name": "cancelWithdraw",
      "outputs": [],
      "stateMutability": "nonpayable",
      "type": "function"
    },
    {
      "inputs": [
        {
          "internalType": "uint16",
          "name": "_expeditedWithdrawFee",
          "type": "uint16"
        }
      ],
      "name": "changeExpeditedWithdrawFee",
      "outputs": [],
      "stateMutability": "nonpayable",
      "type": "function"
    },
    {
      "inputs": [
        {
          "internalType": "uint32",
          "name": "withdrawDelay",
          "type": "uint32"
        }
      ],
      "name": "changeWithdrawDelay",
      "outputs": [],
      "stateMutability": "nonpayable",
      "type": "function"
    },
    {
      "inputs": [
        {
          "internalType": "uint16",
          "name": "withdrawFee",
          "type": "uint16"
        }
      ],
      "name": "changeWithdrawFee",
      "outputs": [],
      "stateMutability": "nonpayable",
      "type": "function"
    },
    {
      "inputs": [
        {
          "internalType": "address",
          "name": "user",
          "type": "address"
        },
        {
          "internalType": "uint256",
          "name": "minimumAssets",
          "type": "uint256"
        }
      ],
      "name": "completeUserWithdraw",
      "outputs": [
        {
          "internalType": "uint256",
          "name": "assetsOut",
          "type": "uint256"
        }
      ],
      "stateMutability": "nonpayable",
      "type": "function"
    },
    {
      "inputs": [
        {
          "internalType": "address",
          "name": "account",
          "type": "address"
        },
        {
          "internalType": "uint256",
          "name": "minimumAssets",
          "type": "uint256"
        }
      ],
      "name": "completeWithdraw",
      "outputs": [
        {
          "internalType": "uint256",
          "name": "assetsOut",
          "type": "uint256"
        }
      ],
      "stateMutability": "nonpayable",
      "type": "function"
    },
    {
      "inputs": [],
      "name": "feeAddress",
      "outputs": [
        {
          "internalType": "address",
          "name": "",
          "type": "address"
        }
      ],
      "stateMutability": "view",
      "type": "function"
    },
    {
      "inputs": [
        {
          "internalType": "address",
          "name": "account",
          "type": "address"
        }
      ],
      "name": "getWithdrawRequest",
      "outputs": [
        {
          "components": [
            {
              "internalType": "bool",
              "name": "allowThirdPartyToComplete",
              "type": "bool"
            },
            {
              "internalType": "uint40",
              "name": "maturity",
              "type": "uint40"
            },
            {
              "internalType": "uint96",
              "name": "shares",
              "type": "uint96"
            },
            {
              "internalType": "uint96",
              "name": "sharesFee",
              "type": "uint96"
            }
          ],
          "internalType": "struct DelayedWithdraw.WithdrawRequest",
          "name": "",
          "type": "tuple"
        }
      ],
      "stateMutability": "view",
      "type": "function"
    },
    {
      "inputs": [],
      "name": "getWithdrawState",
      "outputs": [
        {
          "components": [
            {
              "internalType": "uint32",
              "name": "withdrawDelay",
              "type": "uint32"
            },
            {
              "internalType": "uint128",
              "name": "outstandingShares",
              "type": "uint128"
            },
            {
              "internalType": "uint16",
              "name": "withdrawFee",
              "type": "uint16"
            },
            {
              "internalType": "uint16",
              "name": "expeditedWithdrawFee",
              "type": "uint16"
            }
          ],
          "internalType": "struct DelayedWithdraw.WithdrawState",
          "name": "",
          "type": "tuple"
        }
      ],
      "stateMutability": "view",
      "type": "function"
    },
    {
      "inputs": [],
      "name": "isPaused",
      "outputs": [
        {
          "internalType": "bool",
          "name": "",
          "type": "bool"
        }
      ],
      "stateMutability": "view",
      "type": "function"
    },
    {
      "inputs": [],
      "name": "owner",
      "outputs": [
        {
          "internalType": "address",
          "name": "",
          "type": "address"
        }
      ],
      "stateMutability": "view",
      "type": "function"
    },
    {
      "inputs": [],
      "name": "pause",
      "outputs": [],
      "stateMutability": "nonpayable",
      "type": "function"
    },
    {
      "inputs": [],
      "name": "primeRBAC",
      "outputs": [
        {
          "internalType": "contract IPrimeRBAC",
          "name": "",
          "type": "address"
        }
      ],
      "stateMutability": "view",
      "type": "function"
    },
    {
      "inputs": [
        {
          "internalType": "uint96",
          "name": "shares",
          "type": "uint96"
        },
        {
          "internalType": "bool",
          "name": "allowThirdPartyToComplete",
          "type": "bool"
        }
      ],
      "name": "requestWithdraw",
      "outputs": [],
      "stateMutability": "nonpayable",
      "type": "function"
    },
    {
      "inputs": [
        {
          "internalType": "bool",
          "name": "allow",
          "type": "bool"
        }
      ],
      "name": "setAllowThirdPartyToComplete",
      "outputs": [],
      "stateMutability": "nonpayable",
      "type": "function"
    },
    {
      "inputs": [
        {
          "internalType": "contract Authority",
          "name": "newAuthority",
          "type": "address"
        }
      ],
      "name": "setAuthority",
      "outputs": [],
      "stateMutability": "nonpayable",
      "type": "function"
    },
    {
      "inputs": [
        {
          "internalType": "address",
          "name": "_feeAddress",
          "type": "address"
        }
      ],
      "name": "setFeeAddress",
      "outputs": [],
      "stateMutability": "nonpayable",
      "type": "function"
    },
    {
      "inputs": [
        {
          "internalType": "uint32",
          "name": "withdrawDelay",
          "type": "uint32"
        },
        {
          "internalType": "uint16",
          "name": "withdrawFee",
          "type": "uint16"
        },
        {
          "internalType": "uint16",
          "name": "expeditedWithdrawFee",
          "type": "uint16"
        }
      ],
      "name": "setupWithdraw",
      "outputs": [],
      "stateMutability": "nonpayable",
      "type": "function"
    },
    {
      "inputs": [
        {
          "internalType": "address",
          "name": "newOwner",
          "type": "address"
        }
      ],
      "name": "transferOwnership",
      "outputs": [],
      "stateMutability": "nonpayable",
      "type": "function"
    },
    {
      "inputs": [],
      "name": "unpause",
      "outputs": [],
      "stateMutability": "nonpayable",
      "type": "function"
    },
    {
      "inputs": [],
      "name": "viewOutstandingDebt",
      "outputs": [
        {
          "internalType": "uint256",
          "name": "debt",
          "type": "uint256"
        }
      ],
      "stateMutability": "view",
      "type": "function"
    },
    {
      "inputs": [
        {
          "internalType": "contract ERC20",
          "name": "token",
          "type": "address"
        },
        {
          "internalType": "uint256",
          "name": "amount",
          "type": "uint256"
        }
      ],
      "name": "withdrawNonBoringToken",
      "outputs": [],
      "stateMutability": "nonpayable",
      "type": "function"
    },
    {
      "inputs": [
        {
          "internalType": "address",
          "name": "",
          "type": "address"
        }
      ],
      "name": "withdrawRequests",
      "outputs": [
        {
          "internalType": "bool",
          "name": "allowThirdPartyToComplete",
          "type": "bool"
        },
        {
          "internalType": "uint40",
          "name": "maturity",
          "type": "uint40"
        },
        {
          "internalType": "uint96",
          "name": "shares",
          "type": "uint96"
        },
        {
          "internalType": "uint96",
          "name": "sharesFee",
          "type": "uint96"
        }
      ],
      "stateMutability": "view",
      "type": "function"
    },
    {
      "inputs": [],
      "name": "withdrawState",
      "outputs": [
        {
          "internalType": "uint32",
          "name": "withdrawDelay",
          "type": "uint32"
        },
        {
          "internalType": "uint128",
          "name": "outstandingShares",
          "type": "uint128"
        },
        {
          "internalType": "uint16",
          "name": "withdrawFee",
          "type": "uint16"
        },
        {
          "internalType": "uint16",
          "name": "expeditedWithdrawFee",
          "type": "uint16"
        }
      ],
      "stateMutability": "view",
      "type": "function"
    }
  ],
  "bytecode": "0x6101206040526001600355348015610015575f5ffd5b50604051614fa3380380614fa383398181016040528101906100379190610588565b848473ffffffffffffffffffffffffffffffffffffffff1663bf7e214f6040518163ffffffff1660e01b8152600401602060405180830381865afa158015610081573d5f5f3e3d5ffd5b505050506040513d601f19601f820116820180604052508101906100a5919061063a565b3381815f5f6101000a81548173ffffffffffffffffffffffffffffffffffffffff021916908373ffffffffffffffffffffffffffffffffffffffff1602179055508060015f6101000a81548173ffffffffffffffffffffffffffffffffffffffff021916908373ffffffffffffffffffffffffffffffffffffffff1602179055508173ffffffffffffffffffffffffffffffffffffffff163373ffffffffffffffffffffffffffffffffffffffff167f8be0079c531659141344cd1fd0a4f28419497f9722a3daafe3b4186f6b6457e060405160405180910390a38073ffffffffffffffffffffffffffffffffffffffff163373ffffffffffffffffffffffffffffffffffffffff167fa3396fd7f6e0a21b50e5089d2da70d5ac0a3bbbd1f617a93f134b7638998019860405160405180910390a350505f73ffffffffffffffffffffffffffffffffffffffff168273ffffffffffffffffffffffffffffffffffffffff16148061024157505f73ffffffffffffffffffffffffffffffffffffffff168173ffffffffffffffffffffffffffffffffffffffff16145b15610278576040517f538ba4f900000000000000000000000000000000000000000000000000000000815260040160405180910390fd5b8160025f6101000a81548173ffffffffffffffffffffffffffffffffffffffff021916908373ffffffffffffffffffffffffffffffffffffffff16021790555050508273ffffffffffffffffffffffffffffffffffffffff1660808173ffffffffffffffffffffffffffffffffffffffff16815250508173ffffffffffffffffffffffffffffffffffffffff1660a08173ffffffffffffffffffffffffffffffffffffffff16815250508373ffffffffffffffffffffffffffffffffffffffff1660c08173ffffffffffffffffffffffffffffffffffffffff168152505060c05173ffffffffffffffffffffffffffffffffffffffff166338d52e0f6040518163ffffffff1660e01b8152600401602060405180830381865afa1580156103a1573d5f5f3e3d5ffd5b505050506040513d601f19601f820116820180604052508101906103c591906106a0565b73ffffffffffffffffffffffffffffffffffffffff1660e08173ffffffffffffffffffffffffffffffffffffffff168152505060c05173ffffffffffffffffffffffffffffffffffffffff1663313ce5676040518163ffffffff1660e01b8152600401602060405180830381865afa158015610443573d5f5f3e3d5ffd5b505050506040513d601f19601f820116820180604052508101906104679190610701565b600a6104739190610891565b61010081815250505f73ffffffffffffffffffffffffffffffffffffffff168173ffffffffffffffffffffffffffffffffffffffff16036104e0576040517ff3a6738800000000000000000000000000000000000000000000000000000000815260040160405180910390fd5b8060045f6101000a81548173ffffffffffffffffffffffffffffffffffffffff021916908373ffffffffffffffffffffffffffffffffffffffff16021790555050505050506108db565b5f5ffd5b5f73ffffffffffffffffffffffffffffffffffffffff82169050919050565b5f6105578261052e565b9050919050565b6105678161054d565b8114610571575f5ffd5b50565b5f815190506105828161055e565b92915050565b5f5f5f5f5f60a086880312156105a1576105a061052a565b5b5f6105ae88828901610574565b95505060206105bf88828901610574565b94505060406105d088828901610574565b93505060606105e188828901610574565b92505060806105f288828901610574565b9150509295509295909350565b5f6106098261054d565b9050919050565b610619816105ff565b8114610623575f5ffd5b50565b5f8151905061063481610610565b92915050565b5f6020828403121561064f5761064e61052a565b5b5f61065c84828501610626565b91505092915050565b5f61066f8261054d565b9050919050565b61067f81610665565b8114610689575f5ffd5b50565b5f8151905061069a81610676565b92915050565b5f602082840312156106b5576106b461052a565b5b5f6106c28482850161068c565b91505092915050565b5f60ff82169050919050565b6106e0816106cb565b81146106ea575f5ffd5b50565b5f815190506106fb816106d7565b92915050565b5f602082840312156107165761071561052a565b5b5f610723848285016106ed565b91505092915050565b7f4e487b71000000000000000000000000000000000000000000000000000000005f52601160045260245ffd5b5f8160011c9050919050565b5f5f8291508390505b60018511156107ae5780860481111561078a5761078961072c565b5b60018516156107995780820291505b80810290506107a785610759565b945061076e565b94509492505050565b5f826107c65760019050610881565b816107d3575f9050610881565b81600181146107e957600281146107f357610822565b6001915050610881565b60ff8411156108055761080461072c565b5b8360020a91508482111561081c5761081b61072c565b5b50610881565b5060208310610133831016604e8410600b84101617156108575782820a9050838111156108525761085161072c565b5b610881565b6108648484846001610765565b9250905081840481111561087b5761087a61072c565b5b81810290505b9392505050565b5f819050919050565b5f61089b82610888565b91506108a6836106cb565b92506108d37fffffffffffffffffffffffffffffffffffffffffffffffffffffffffffffffff84846107b7565b905092915050565b60805160a05160c05160e0516101005161463761096c5f395f612ba801525f8181610d8d015281816111540152818161139501528181611c4601528181611eb801528181612a4801528181612ca101528181613372015261372001525f818161069401528181611a8401528181612f530152818161322801526136da01525f6132d301525f612ae301526146375ff3fe608060405234801561000f575f5ffd5b50600436106101cd575f3560e01c80637a9e5e4b11610102578063adbc46fc116100a0578063e37d7e681161006f578063e37d7e68146104a9578063e4ff4274146104c7578063f2fde38b146104e5578063f3b9778414610501576101cd565b8063adbc46fc14610433578063ae172f0814610451578063b187bd261461046d578063bf7e214f1461048b576101cd565b806384b76824116100dc57806384b76824146103d35780638705fcd4146103dd5780638bb8aca1146103f95780638da5cb5b14610415576101cd565b80637a9e5e4b1461037d5780637b66394c146103995780638456cb59146103c9576101cd565b80633f4ba83a1161016f578063475cb32511610149578063475cb325146102f157806352df49ec14610312578063545312c014610345578063627ab8d414610361576101cd565b80633f4ba83a146102ad57806341275358146102b7578063468301dd146102d5576101cd565b8063251a24ed116101ab578063251a24ed146102275780632ccae8961461024357806338d52e0f146102735780633928bebd14610291576101cd565b806309f0e0c2146101d157806317f7deb9146101ed5780631a2892781461021d575b5f5ffd5b6101eb60048036038101906101e691906139ab565b61051f565b005b61020760048036038101906102029190613a13565b6107e8565b6040516102149190613a60565b60405180910390f35b610225610a52565b005b610241600480360381019061023c9190613a79565b610e1f565b005b61025d60048036038101906102589190613a79565b611040565b60405161026a9190613b56565b60405180910390f35b61027b611152565b6040516102889190613bca565b60405180910390f35b6102ab60048036038101906102a69190613c1a565b611176565b005b6102b5611404565b005b6102bf6115bf565b6040516102cc9190613c54565b60405180910390f35b6102ef60048036038101906102ea9190613c1a565b6115e4565b005b6102f96117f4565b6040516103099493929190613cc4565b60405180910390f35b61032c60048036038101906103279190613a79565b611855565b60405161033c9493929190613d34565b60405180910390f35b61035f600480360381019061035a9190613dcb565b6118cb565b005b61037b60048036038101906103769190613e33565b611cda565b005b61039760048036038101906103929190613e99565b611f27565b005b6103b360048036038101906103ae9190613a13565b6120e2565b6040516103c09190613a60565b60405180910390f35b6103d16122bf565b005b6103db61247b565b005b6103f760048036038101906103f29190613a79565b612547565b005b610413600480360381019061040e9190613ec4565b612799565b005b61041d612abb565b60405161042a9190613c54565b60405180910390f35b61043b612adf565b6040516104489190613a60565b60405180910390f35b61046b60048036038101906104669190613f14565b612bdd565b005b610475612d27565b6040516104829190613f3f565b60405180910390f35b610493612d3a565b6040516104a09190613f78565b60405180910390f35b6104b1612d5f565b6040516104be9190613fb1565b60405180910390f35b6104cf612d84565b6040516104dc919061404a565b60405180910390f35b6104ff60048036038101906104fa9190613a79565b612e49565b005b610509612f51565b6040516105169190614094565b60405180910390f35b60025f9054906101000a900473ffffffffffffffffffffffffffffffffffffffff1673ffffffffffffffffffffffffffffffffffffffff1663d35911f2336040518263ffffffff1660e01b81526004016105799190613c54565b602060405180830381865afa158015610594573d5f5f3e3d5ffd5b505050506040513d601f19601f820116820180604052508101906105b891906140c1565b15801561065b575060025f9054906101000a900473ffffffffffffffffffffffffffffffffffffffff1673ffffffffffffffffffffffffffffffffffffffff1663c138c139336040518263ffffffff1660e01b815260040161061a9190613c54565b602060405180830381865afa158015610635573d5f5f3e3d5ffd5b505050506040513d601f19601f8201168201806040525081019061065991906140c1565b155b15610692576040517fdc85555400000000000000000000000000000000000000000000000000000000815260040160405180910390fd5b7f000000000000000000000000000000000000000000000000000000000000000073ffffffffffffffffffffffffffffffffffffffff168273ffffffffffffffffffffffffffffffffffffffff1603610717576040517fa6781bfd00000000000000000000000000000000000000000000000000000000815260040160405180910390fd5b7fffffffffffffffffffffffffffffffffffffffffffffffffffffffffffffffff81036107b9578173ffffffffffffffffffffffffffffffffffffffff166370a08231306040518263ffffffff1660e01b81526004016107779190613c54565b602060405180830381865afa158015610792573d5f5f3e3d5ffd5b505050506040513d601f19601f820116820180604052508101906107b69190614100565b90505b6107e433828473ffffffffffffffffffffffffffffffffffffffff16612f759092919063ffffffff16565b5050565b5f60025f9054906101000a900473ffffffffffffffffffffffffffffffffffffffff1673ffffffffffffffffffffffffffffffffffffffff1663fc4e3e0a336040518263ffffffff1660e01b81526004016108439190613c54565b602060405180830381865afa15801561085e573d5f5f3e3d5ffd5b505050506040513d601f19601f8201168201806040525081019061088291906140c1565b158015610925575060025f9054906101000a900473ffffffffffffffffffffffffffffffffffffffff1673ffffffffffffffffffffffffffffffffffffffff1663d35911f2336040518263ffffffff1660e01b81526004016108e49190613c54565b602060405180830381865afa1580156108ff573d5f5f3e3d5ffd5b505050506040513d601f19601f8201168201806040525081019061092391906140c1565b155b80156109c7575060025f9054906101000a900473ffffffffffffffffffffffffffffffffffffffff1673ffffffffffffffffffffffffffffffffffffffff1663c138c139336040518263ffffffff1660e01b81526004016109869190613c54565b602060405180830381865afa1580156109a1573d5f5f3e3d5ffd5b505050506040513d601f19601f820116820180604052508101906109c591906140c1565b155b156109fe576040517f19ca4b5e00000000000000000000000000000000000000000000000000000000815260040160405180910390fd5b5f60065f8573ffffffffffffffffffffffffffffffffffffffff1673ffffffffffffffffffffffffffffffffffffffff1681526020019081526020015f209050610a4984828561302c565b91505092915050565b610a7f335f357fffffffff0000000000000000000000000000000000000000000000000000000016613400565b610abe576040517f08c379a0000000000000000000000000000000000000000000000000000000008152600401610ab590614185565b60405180910390fd5b600160035414610b03576040517f08c379a0000000000000000000000000000000000000000000000000000000008152600401610afa906141ed565b60405180910390fd5b6002600381905550600260149054906101000a900460ff1615610b52576040517fbaf7375c00000000000000000000000000000000000000000000000000000000815260040160405180910390fd5b5f60055f0160169054906101000a900461ffff1661ffff1603610ba1576040517fe1844a8600000000000000000000000000000000000000000000000000000000815260040160405180910390fd5b6201518063ffffffff1660055f015f9054906101000a900463ffffffff1663ffffffff1611610bfc576040517fe1844a8600000000000000000000000000000000000000000000000000000000815260040160405180910390fd5b5f60065f3373ffffffffffffffffffffffffffffffffffffffff1673ffffffffffffffffffffffffffffffffffffffff1681526020019081526020015f2090505f815f0160069054906101000a90046bffffffffffffffffffffffff166bffffffffffffffffffffffff1603610c9e576040517f02ebfd8700000000000000000000000000000000000000000000000000000000815260040160405180910390fd5b5f610cf560055f0160169054906101000a900461ffff1661ffff16612710845f0160069054906101000a90046bffffffffffffffffffffffff166bffffffffffffffffffffffff166135399092919063ffffffff16565b905080825f0160128282829054906101000a90046bffffffffffffffffffffffff16610d219190614238565b92506101000a8154816bffffffffffffffffffffffff02191690836bffffffffffffffffffffffff1602179055505f6201518063ffffffff1642610d659190614277565b905080835f0160016101000a81548164ffffffffff021916908364ffffffffff1602179055507f000000000000000000000000000000000000000000000000000000000000000073ffffffffffffffffffffffffffffffffffffffff163373ffffffffffffffffffffffffffffffffffffffff167ff057ce7eb44a7e052ea9b75a7fd43a05fff39ca69c7700a2d277e867391bf8888385604051610e0a9291906142aa565b60405180910390a35050506001600381905550565b60025f9054906101000a900473ffffffffffffffffffffffffffffffffffffffff1673ffffffffffffffffffffffffffffffffffffffff1663fc4e3e0a336040518263ffffffff1660e01b8152600401610e799190613c54565b602060405180830381865afa158015610e94573d5f5f3e3d5ffd5b505050506040513d601f19601f82011682018060405250810190610eb891906140c1565b158015610f5b575060025f9054906101000a900473ffffffffffffffffffffffffffffffffffffffff1673ffffffffffffffffffffffffffffffffffffffff1663d35911f2336040518263ffffffff1660e01b8152600401610f1a9190613c54565b602060405180830381865afa158015610f35573d5f5f3e3d5ffd5b505050506040513d601f19601f82011682018060405250810190610f5991906140c1565b155b8015610ffd575060025f9054906101000a900473ffffffffffffffffffffffffffffffffffffffff1673ffffffffffffffffffffffffffffffffffffffff1663c138c139336040518263ffffffff1660e01b8152600401610fbc9190613c54565b602060405180830381865afa158015610fd7573d5f5f3e3d5ffd5b505050506040513d601f19601f82011682018060405250810190610ffb91906140c1565b155b15611034576040517f19ca4b5e00000000000000000000000000000000000000000000000000000000815260040160405180910390fd5b61103d8161357a565b50565b61104861387c565b60065f8373ffffffffffffffffffffffffffffffffffffffff1673ffffffffffffffffffffffffffffffffffffffff1681526020019081526020015f206040518060800160405290815f82015f9054906101000a900460ff161515151581526020015f820160019054906101000a900464ffffffffff1664ffffffffff1664ffffffffff1681526020015f820160069054906101000a90046bffffffffffffffffffffffff166bffffffffffffffffffffffff166bffffffffffffffffffffffff1681526020015f820160129054906101000a90046bffffffffffffffffffffffff166bffffffffffffffffffffffff166bffffffffffffffffffffffff16815250509050919050565b7f000000000000000000000000000000000000000000000000000000000000000081565b60025f9054906101000a900473ffffffffffffffffffffffffffffffffffffffff1673ffffffffffffffffffffffffffffffffffffffff1663d35911f2336040518263ffffffff1660e01b81526004016111d09190613c54565b602060405180830381865afa1580156111eb573d5f5f3e3d5ffd5b505050506040513d601f19601f8201168201806040525081019061120f91906140c1565b1580156112b2575060025f9054906101000a900473ffffffffffffffffffffffffffffffffffffffff1673ffffffffffffffffffffffffffffffffffffffff1663c138c139336040518263ffffffff1660e01b81526004016112719190613c54565b602060405180830381865afa15801561128c573d5f5f3e3d5ffd5b505050506040513d601f19601f820116820180604052508101906112b091906140c1565b155b156112e9576040517fdc85555400000000000000000000000000000000000000000000000000000000815260040160405180910390fd5b600260149054906101000a900460ff1615611330576040517fbaf7375c00000000000000000000000000000000000000000000000000000000815260040160405180910390fd5b6107d061ffff168161ffff161115611374576040517f65c9772600000000000000000000000000000000000000000000000000000000815260040160405180910390fd5b8060055f0160146101000a81548161ffff021916908361ffff1602179055507f000000000000000000000000000000000000000000000000000000000000000073ffffffffffffffffffffffffffffffffffffffff167f8ccb18452db698466024883cfd6df6fee864c24ed64251ecf8ec814f372a2f2f826040516113f991906142d1565b60405180910390a250565b60025f9054906101000a900473ffffffffffffffffffffffffffffffffffffffff1673ffffffffffffffffffffffffffffffffffffffff1663d35911f2336040518263ffffffff1660e01b815260040161145e9190613c54565b602060405180830381865afa158015611479573d5f5f3e3d5ffd5b505050506040513d601f19601f8201168201806040525081019061149d91906140c1565b158015611540575060025f9054906101000a900473ffffffffffffffffffffffffffffffffffffffff1673ffffffffffffffffffffffffffffffffffffffff1663c138c139336040518263ffffffff1660e01b81526004016114ff9190613c54565b602060405180830381865afa15801561151a573d5f5f3e3d5ffd5b505050506040513d601f19601f8201168201806040525081019061153e91906140c1565b155b15611577576040517fdc85555400000000000000000000000000000000000000000000000000000000815260040160405180910390fd5b5f600260146101000a81548160ff0219169083151502179055507fa45f47fdea8a1efdd9029a5691c7f759c32b7c698632b563573e155625d1693360405160405180910390a1565b60045f9054906101000a900473ffffffffffffffffffffffffffffffffffffffff1681565b60025f9054906101000a900473ffffffffffffffffffffffffffffffffffffffff1673ffffffffffffffffffffffffffffffffffffffff1663d35911f2336040518263ffffffff1660e01b815260040161163e9190613c54565b602060405180830381865afa158015611659573d5f5f3e3d5ffd5b505050506040513d601f19601f8201168201806040525081019061167d91906140c1565b158015611720575060025f9054906101000a900473ffffffffffffffffffffffffffffffffffffffff1673ffffffffffffffffffffffffffffffffffffffff1663c138c139336040518263ffffffff1660e01b81526004016116df9190613c54565b602060405180830381865afa1580156116fa573d5f5f3e3d5ffd5b505050506040513d601f19601f8201168201806040525081019061171e91906140c1565b155b15611757576040517fdc85555400000000000000000000000000000000000000000000000000000000815260040160405180910390fd5b6107d061ffff168161ffff16111561179b576040517f858a3a1e00000000000000000000000000000000000000000000000000000000815260040160405180910390fd5b8060055f0160166101000a81548161ffff021916908361ffff1602179055507f16ed1e6a61c10c9a5ce9596688e710a47fd7170fb21ac5586bb2493bfff4795e816040516117e991906142d1565b60405180910390a150565b6005805f015f9054906101000a900463ffffffff1690805f0160049054906101000a90046fffffffffffffffffffffffffffffffff1690805f0160149054906101000a900461ffff1690805f0160169054906101000a900461ffff16905084565b6006602052805f5260405f205f91509050805f015f9054906101000a900460ff1690805f0160019054906101000a900464ffffffffff1690805f0160069054906101000a90046bffffffffffffffffffffffff1690805f0160129054906101000a90046bffffffffffffffffffffffff16905084565b6118f8335f357fffffffff0000000000000000000000000000000000000000000000000000000016613400565b611937576040517f08c379a000000000000000000000000000000000000000000000000000000000815260040161192e90614185565b60405180910390fd5b60016003541461197c576040517f08c379a0000000000000000000000000000000000000000000000000000000008152600401611973906141ed565b60405180910390fd5b6002600381905550600260149054906101000a900460ff16156119cb576040517fbaf7375c00000000000000000000000000000000000000000000000000000000815260040160405180910390fd5b5f60065f3373ffffffffffffffffffffffffffffffffffffffff1673ffffffffffffffffffffffffffffffffffffffff1681526020019081526020015f2090505f815f0160069054906101000a90046bffffffffffffffffffffffff166bffffffffffffffffffffffff161115611a6e576040517f4f20c80100000000000000000000000000000000000000000000000000000000815260040160405180910390fd5b611ac93330856bffffffffffffffffffffffff167f000000000000000000000000000000000000000000000000000000000000000073ffffffffffffffffffffffffffffffffffffffff166137a8909392919063ffffffff16565b826bffffffffffffffffffffffff1660055f0160048282829054906101000a90046fffffffffffffffffffffffffffffffff16611b0691906142ea565b92506101000a8154816fffffffffffffffffffffffffffffffff02191690836fffffffffffffffffffffffffffffffff16021790555082815f0160066101000a8154816bffffffffffffffffffffffff02191690836bffffffffffffffffffffffff1602179055505f60055f015f9054906101000a900463ffffffff1663ffffffff1642611b949190614277565b905080825f0160016101000a81548164ffffffffff021916908364ffffffffff16021790555082825f015f6101000a81548160ff0219169083151502179055505f611c1060055f0160149054906101000a900461ffff1661ffff16612710876bffffffffffffffffffffffff166135399092919063ffffffff16565b905080835f0160126101000a8154816bffffffffffffffffffffffff02191690836bffffffffffffffffffffffff1602179055507f000000000000000000000000000000000000000000000000000000000000000073ffffffffffffffffffffffffffffffffffffffff163373ffffffffffffffffffffffffffffffffffffffff167f7c7bb9f0b469c21da4666496577565b8e0f6a5da9834e8d15b12603b260ca6c68785604051611cc392919061432d565b60405180910390a350505060016003819055505050565b60025f9054906101000a900473ffffffffffffffffffffffffffffffffffffffff1673ffffffffffffffffffffffffffffffffffffffff1663d35911f2336040518263ffffffff1660e01b8152600401611d349190613c54565b602060405180830381865afa158015611d4f573d5f5f3e3d5ffd5b505050506040513d601f19601f82011682018060405250810190611d7391906140c1565b158015611e16575060025f9054906101000a900473ffffffffffffffffffffffffffffffffffffffff1673ffffffffffffffffffffffffffffffffffffffff1663c138c139336040518263ffffffff1660e01b8152600401611dd59190613c54565b602060405180830381865afa158015611df0573d5f5f3e3d5ffd5b505050506040513d601f19601f82011682018060405250810190611e1491906140c1565b155b15611e4d576040517fdc85555400000000000000000000000000000000000000000000000000000000815260040160405180910390fd5b600260149054906101000a900460ff1615611e94576040517fbaf7375c00000000000000000000000000000000000000000000000000000000815260040160405180910390fd5b8060055f015f6101000a81548163ffffffff021916908363ffffffff1602179055507f000000000000000000000000000000000000000000000000000000000000000073ffffffffffffffffffffffffffffffffffffffff167ff460eccc96794cc59e91dc95757a6579291d9b251377740e28b39b482290052a82604051611f1c9190614354565b60405180910390a250565b5f5f9054906101000a900473ffffffffffffffffffffffffffffffffffffffff1673ffffffffffffffffffffffffffffffffffffffff163373ffffffffffffffffffffffffffffffffffffffff16148061203d575060015f9054906101000a900473ffffffffffffffffffffffffffffffffffffffff1673ffffffffffffffffffffffffffffffffffffffff1663b700961333305f357fffffffff00000000000000000000000000000000000000000000000000000000166040518463ffffffff1660e01b8152600401611ffd939291906143a7565b602060405180830381865afa158015612018573d5f5f3e3d5ffd5b505050506040513d601f19601f8201168201806040525081019061203c91906140c1565b5b612045575f5ffd5b8060015f6101000a81548173ffffffffffffffffffffffffffffffffffffffff021916908373ffffffffffffffffffffffffffffffffffffffff1602179055508073ffffffffffffffffffffffffffffffffffffffff163373ffffffffffffffffffffffffffffffffffffffff167fa3396fd7f6e0a21b50e5089d2da70d5ac0a3bbbd1f617a93f134b7638998019860405160405180910390a350565b5f612110335f357fffffffff0000000000000000000000000000000000000000000000000000000016613400565b61214f576040517f08c379a000000000000000000000000000000000000000000000000000000000815260040161214690614185565b60405180910390fd5b600160035414612194576040517f08c379a000000000000000000000000000000000000000000000000000000000815260040161218b906141ed565b60405180910390fd5b6002600381905550600260149054906101000a900460ff16156121e3576040517fbaf7375c00000000000000000000000000000000000000000000000000000000815260040160405180910390fd5b5f60065f8573ffffffffffffffffffffffffffffffffffffffff1673ffffffffffffffffffffffffffffffffffffffff1681526020019081526020015f2090508373ffffffffffffffffffffffffffffffffffffffff163373ffffffffffffffffffffffffffffffffffffffff161415801561226c5750805f015f9054906101000a900460ff16155b156122a3576040517f541250f700000000000000000000000000000000000000000000000000000000815260040160405180910390fd5b6122ae84828561302c565b915050600160038190555092915050565b60025f9054906101000a900473ffffffffffffffffffffffffffffffffffffffff1673ffffffffffffffffffffffffffffffffffffffff1663d35911f2336040518263ffffffff1660e01b81526004016123199190613c54565b602060405180830381865afa158015612334573d5f5f3e3d5ffd5b505050506040513d601f19601f8201168201806040525081019061235891906140c1565b1580156123fb575060025f9054906101000a900473ffffffffffffffffffffffffffffffffffffffff1673ffffffffffffffffffffffffffffffffffffffff1663c138c139336040518263ffffffff1660e01b81526004016123ba9190613c54565b602060405180830381865afa1580156123d5573d5f5f3e3d5ffd5b505050506040513d601f19601f820116820180604052508101906123f991906140c1565b155b15612432576040517fdc85555400000000000000000000000000000000000000000000000000000000815260040160405180910390fd5b6001600260146101000a81548160ff0219169083151502179055507f9e87fac88ff661f02d44f95383c817fece4bce600a3dab7a54406878b965e75260405160405180910390a1565b6124a8335f357fffffffff0000000000000000000000000000000000000000000000000000000016613400565b6124e7576040517f08c379a00000000000000000000000000000000000000000000000000000000081526004016124de90614185565b60405180910390fd5b60016003541461252c576040517f08c379a0000000000000000000000000000000000000000000000000000000008152600401612523906141ed565b60405180910390fd5b600260038190555061253d3361357a565b6001600381905550565b60025f9054906101000a900473ffffffffffffffffffffffffffffffffffffffff1673ffffffffffffffffffffffffffffffffffffffff1663d35911f2336040518263ffffffff1660e01b81526004016125a19190613c54565b602060405180830381865afa1580156125bc573d5f5f3e3d5ffd5b505050506040513d601f19601f820116820180604052508101906125e091906140c1565b158015612683575060025f9054906101000a900473ffffffffffffffffffffffffffffffffffffffff1673ffffffffffffffffffffffffffffffffffffffff1663c138c139336040518263ffffffff1660e01b81526004016126429190613c54565b602060405180830381865afa15801561265d573d5f5f3e3d5ffd5b505050506040513d601f19601f8201168201806040525081019061268191906140c1565b155b156126ba576040517fdc85555400000000000000000000000000000000000000000000000000000000815260040160405180910390fd5b5f73ffffffffffffffffffffffffffffffffffffffff168173ffffffffffffffffffffffffffffffffffffffff160361271f576040517ff3a6738800000000000000000000000000000000000000000000000000000000815260040160405180910390fd5b8060045f6101000a81548173ffffffffffffffffffffffffffffffffffffffff021916908373ffffffffffffffffffffffffffffffffffffffff1602179055507f679f4cc040076580bf118e3f2307b72842331922e8054b8cc292bb37f05e5b038160405161278e9190613c54565b60405180910390a150565b60025f9054906101000a900473ffffffffffffffffffffffffffffffffffffffff1673ffffffffffffffffffffffffffffffffffffffff1663d35911f2336040518263ffffffff1660e01b81526004016127f39190613c54565b602060405180830381865afa15801561280e573d5f5f3e3d5ffd5b505050506040513d601f19601f8201168201806040525081019061283291906140c1565b1580156128d5575060025f9054906101000a900473ffffffffffffffffffffffffffffffffffffffff1673ffffffffffffffffffffffffffffffffffffffff1663c138c139336040518263ffffffff1660e01b81526004016128949190613c54565b602060405180830381865afa1580156128af573d5f5f3e3d5ffd5b505050506040513d601f19601f820116820180604052508101906128d391906140c1565b155b1561290c576040517fdc85555400000000000000000000000000000000000000000000000000000000815260040160405180910390fd5b6107d061ffff168261ffff161115612950576040517f65c9772600000000000000000000000000000000000000000000000000000000815260040160405180910390fd5b6107d061ffff168161ffff161115612994576040517f858a3a1e00000000000000000000000000000000000000000000000000000000815260040160405180910390fd5b5f60055f015f9054906101000a900463ffffffff1663ffffffff16146129e6576040517f5c5ea4ba00000000000000000000000000000000000000000000000000000000815260040160405180910390fd5b8260055f015f6101000a81548163ffffffff021916908363ffffffff1602179055508160055f0160146101000a81548161ffff021916908361ffff1602179055508060055f0160166101000a81548161ffff021916908361ffff1602179055507f000000000000000000000000000000000000000000000000000000000000000073ffffffffffffffffffffffffffffffffffffffff167f0cea879951527447b42baf1288a10716427f4b9754822556bffd7279cd02409c8484604051612aae92919061441f565b60405180910390a2505050565b5f5f9054906101000a900473ffffffffffffffffffffffffffffffffffffffff1681565b5f5f7f000000000000000000000000000000000000000000000000000000000000000073ffffffffffffffffffffffffffffffffffffffff1663282a87006040518163ffffffff1660e01b8152600401602060405180830381865afa158015612b4a573d5f5f3e3d5ffd5b505050506040513d601f19601f82011682018060405250810190612b6e9190614100565b9050612bd760055f0160049054906101000a90046fffffffffffffffffffffffffffffffff166fffffffffffffffffffffffffffffffff167f0000000000000000000000000000000000000000000000000000000000000000836135399092919063ffffffff16565b91505090565b612c0a335f357fffffffff0000000000000000000000000000000000000000000000000000000016613400565b612c49576040517f08c379a0000000000000000000000000000000000000000000000000000000008152600401612c4090614185565b60405180910390fd5b8060065f3373ffffffffffffffffffffffffffffffffffffffff1673ffffffffffffffffffffffffffffffffffffffff1681526020019081526020015f205f015f6101000a81548160ff0219169083151502179055507f000000000000000000000000000000000000000000000000000000000000000073ffffffffffffffffffffffffffffffffffffffff163373ffffffffffffffffffffffffffffffffffffffff167f21620b27ba9eeb9c0fe4b328d9038784b90664af3e7f54617d2d3b14cd97c34e83604051612d1c9190613f3f565b60405180910390a350565b600260149054906101000a900460ff1681565b60015f9054906101000a900473ffffffffffffffffffffffffffffffffffffffff1681565b60025f9054906101000a900473ffffffffffffffffffffffffffffffffffffffff1681565b612d8c6138c5565b60056040518060800160405290815f82015f9054906101000a900463ffffffff1663ffffffff1663ffffffff1681526020015f820160049054906101000a90046fffffffffffffffffffffffffffffffff166fffffffffffffffffffffffffffffffff166fffffffffffffffffffffffffffffffff1681526020015f820160149054906101000a900461ffff1661ffff1661ffff1681526020015f820160169054906101000a900461ffff1661ffff1661ffff1681525050905090565b612e76335f357fffffffff0000000000000000000000000000000000000000000000000000000016613400565b612eb5576040517f08c379a0000000000000000000000000000000000000000000000000000000008152600401612eac90614185565b60405180910390fd5b805f5f6101000a81548173ffffffffffffffffffffffffffffffffffffffff021916908373ffffffffffffffffffffffffffffffffffffffff1602179055508073ffffffffffffffffffffffffffffffffffffffff163373ffffffffffffffffffffffffffffffffffffffff167f8be0079c531659141344cd1fd0a4f28419497f9722a3daafe3b4186f6b6457e060405160405180910390a350565b7f000000000000000000000000000000000000000000000000000000000000000081565b5f6040517fa9059cbb00000000000000000000000000000000000000000000000000000000815273ffffffffffffffffffffffffffffffffffffffff8416600482015282602482015260205f6044835f895af1915081601f3d1160015f511416151615612fe5573d853b15171591505b5080613026576040517f08c379a000000000000000000000000000000000000000000000000000000000815260040161301d90614490565b60405180910390fd5b50505050565b5f600260149054906101000a900460ff1615613074576040517fbaf7375c00000000000000000000000000000000000000000000000000000000815260040160405180910390fd5b825f0160019054906101000a900464ffffffffff1664ffffffffff164210156130c9576040517f53a8b71400000000000000000000000000000000000000000000000000000000815260040160405180910390fd5b5f835f0160069054906101000a90046bffffffffffffffffffffffff166bffffffffffffffffffffffff160361312b576040517fe4ccf1f400000000000000000000000000000000000000000000000000000000815260040160405180910390fd5b5f835f0160069054906101000a90046bffffffffffffffffffffffff166bffffffffffffffffffffffff1690505f845f0160129054906101000a90046bffffffffffffffffffffffff166bffffffffffffffffffffffff1690508160055f0160048282829054906101000a90046fffffffffffffffffffffffffffffffff166131b491906144ae565b92506101000a8154816fffffffffffffffffffffffffffffffff02191690836fffffffffffffffffffffffffffffffff1602179055505f81111561326d5780826131fe91906144f1565b915061326c60045f9054906101000a900473ffffffffffffffffffffffffffffffffffffffff16827f000000000000000000000000000000000000000000000000000000000000000073ffffffffffffffffffffffffffffffffffffffff16612f759092919063ffffffff16565b5b5f855f0160066101000a8154816bffffffffffffffffffffffff02191690836bffffffffffffffffffffffff1602179055505f855f0160126101000a8154816bffffffffffffffffffffffff02191690836bffffffffffffffffffffffff1602179055507f000000000000000000000000000000000000000000000000000000000000000073ffffffffffffffffffffffffffffffffffffffff16630ad58d2f8386896040518463ffffffff1660e01b815260040161332e93929190614524565b6020604051808303815f875af115801561334a573d5f5f3e3d5ffd5b505050506040513d601f19601f8201168201806040525081019061336e9190614100565b92507f000000000000000000000000000000000000000000000000000000000000000073ffffffffffffffffffffffffffffffffffffffff168673ffffffffffffffffffffffffffffffffffffffff167fbf9c520fb583da9b8f434d2dfa27f8695602f498c937081299893335144e99a284866040516133ef929190614559565b60405180910390a350509392505050565b5f5f60015f9054906101000a900473ffffffffffffffffffffffffffffffffffffffff1690505f73ffffffffffffffffffffffffffffffffffffffff168173ffffffffffffffffffffffffffffffffffffffff16141580156134da57508073ffffffffffffffffffffffffffffffffffffffff1663b70096138530866040518463ffffffff1660e01b815260040161349a939291906143a7565b602060405180830381865afa1580156134b5573d5f5f3e3d5ffd5b505050506040513d601f19601f820116820180604052508101906134d991906140c1565b5b8061353057505f5f9054906101000a900473ffffffffffffffffffffffffffffffffffffffff1673ffffffffffffffffffffffffffffffffffffffff168473ffffffffffffffffffffffffffffffffffffffff16145b91505092915050565b5f827fffffffffffffffffffffffffffffffffffffffffffffffffffffffffffffffff048411830215820261356c575f5ffd5b818385020490509392505050565b5f60065f8373ffffffffffffffffffffffffffffffffffffffff1673ffffffffffffffffffffffffffffffffffffffff1681526020019081526020015f2090505f815f0160069054906101000a90046bffffffffffffffffffffffff1690505f816bffffffffffffffffffffffff1603613620576040517fe4ccf1f400000000000000000000000000000000000000000000000000000000815260040160405180910390fd5b806bffffffffffffffffffffffff1660055f0160048282829054906101000a90046fffffffffffffffffffffffffffffffff1661365d91906144ae565b92506101000a8154816fffffffffffffffffffffffffffffffff02191690836fffffffffffffffffffffffffffffffff1602179055505f825f0160066101000a8154816bffffffffffffffffffffffff02191690836bffffffffffffffffffffffff16021790555061371e83826bffffffffffffffffffffffff167f000000000000000000000000000000000000000000000000000000000000000073ffffffffffffffffffffffffffffffffffffffff16612f759092919063ffffffff16565b7f000000000000000000000000000000000000000000000000000000000000000073ffffffffffffffffffffffffffffffffffffffff168373ffffffffffffffffffffffffffffffffffffffff167fcb0f3204f6895f1e698cfa5f0cceed9d5e62b57fe0d8648a47fc3685a78e7e978360405161379b9190614580565b60405180910390a3505050565b5f6040517f23b872dd00000000000000000000000000000000000000000000000000000000815273ffffffffffffffffffffffffffffffffffffffff8516600482015273ffffffffffffffffffffffffffffffffffffffff8416602482015282604482015260205f6064835f8a5af1915081601f3d1160015f511416151615613834573d863b15171591505b5080613875576040517f08c379a000000000000000000000000000000000000000000000000000000000815260040161386c906145e3565b60405180910390fd5b5050505050565b60405180608001604052805f151581526020015f64ffffffffff1681526020015f6bffffffffffffffffffffffff1681526020015f6bffffffffffffffffffffffff1681525090565b60405180608001604052805f63ffffffff1681526020015f6fffffffffffffffffffffffffffffffff1681526020015f61ffff1681526020015f61ffff1681525090565b5f5ffd5b5f73ffffffffffffffffffffffffffffffffffffffff82169050919050565b5f6139368261390d565b9050919050565b5f6139478261392c565b9050919050565b6139578161393d565b8114613961575f5ffd5b50565b5f813590506139728161394e565b92915050565b5f819050919050565b61398a81613978565b8114613994575f5ffd5b50565b5f813590506139a581613981565b92915050565b5f5f604083850312156139c1576139c0613909565b5b5f6139ce85828601613964565b92505060206139df85828601613997565b9150509250929050565b6139f28161392c565b81146139fc575f5ffd5b50565b5f81359050613a0d816139e9565b92915050565b5f5f60408385031215613a2957613a28613909565b5b5f613a36858286016139ff565b9250506020613a4785828601613997565b9150509250929050565b613a5a81613978565b82525050565b5f602082019050613a735f830184613a51565b92915050565b5f60208284031215613a8e57613a8d613909565b5b5f613a9b848285016139ff565b91505092915050565b5f8115159050919050565b613ab881613aa4565b82525050565b5f64ffffffffff82169050919050565b613ad781613abe565b82525050565b5f6bffffffffffffffffffffffff82169050919050565b613afd81613add565b82525050565b608082015f820151613b175f850182613aaf565b506020820151613b2a6020850182613ace565b506040820151613b3d6040850182613af4565b506060820151613b506060850182613af4565b50505050565b5f608082019050613b695f830184613b03565b92915050565b5f819050919050565b5f613b92613b8d613b888461390d565b613b6f565b61390d565b9050919050565b5f613ba382613b78565b9050919050565b5f613bb482613b99565b9050919050565b613bc481613baa565b82525050565b5f602082019050613bdd5f830184613bbb565b92915050565b5f61ffff82169050919050565b613bf981613be3565b8114613c03575f5ffd5b50565b5f81359050613c1481613bf0565b92915050565b5f60208284031215613c2f57613c2e613909565b5b5f613c3c84828501613c06565b91505092915050565b613c4e8161392c565b82525050565b5f602082019050613c675f830184613c45565b92915050565b5f63ffffffff82169050919050565b613c8581613c6d565b82525050565b5f6fffffffffffffffffffffffffffffffff82169050919050565b613caf81613c8b565b82525050565b613cbe81613be3565b82525050565b5f608082019050613cd75f830187613c7c565b613ce46020830186613ca6565b613cf16040830185613cb5565b613cfe6060830184613cb5565b95945050505050565b613d1081613aa4565b82525050565b613d1f81613abe565b82525050565b613d2e81613add565b82525050565b5f608082019050613d475f830187613d07565b613d546020830186613d16565b613d616040830185613d25565b613d6e6060830184613d25565b95945050505050565b613d8081613add565b8114613d8a575f5ffd5b50565b5f81359050613d9b81613d77565b92915050565b613daa81613aa4565b8114613db4575f5ffd5b50565b5f81359050613dc581613da1565b92915050565b5f5f60408385031215613de157613de0613909565b5b5f613dee85828601613d8d565b9250506020613dff85828601613db7565b9150509250929050565b613e1281613c6d565b8114613e1c575f5ffd5b50565b5f81359050613e2d81613e09565b92915050565b5f60208284031215613e4857613e47613909565b5b5f613e5584828501613e1f565b91505092915050565b5f613e688261392c565b9050919050565b613e7881613e5e565b8114613e82575f5ffd5b50565b5f81359050613e9381613e6f565b92915050565b5f60208284031215613eae57613ead613909565b5b5f613ebb84828501613e85565b91505092915050565b5f5f5f60608486031215613edb57613eda613909565b5b5f613ee886828701613e1f565b9350506020613ef986828701613c06565b9250506040613f0a86828701613c06565b9150509250925092565b5f60208284031215613f2957613f28613909565b5b5f613f3684828501613db7565b91505092915050565b5f602082019050613f525f830184613d07565b92915050565b5f613f6282613b99565b9050919050565b613f7281613f58565b82525050565b5f602082019050613f8b5f830184613f69565b92915050565b5f613f9b82613b99565b9050919050565b613fab81613f91565b82525050565b5f602082019050613fc45f830184613fa2565b92915050565b613fd381613c6d565b82525050565b613fe281613c8b565b82525050565b613ff181613be3565b82525050565b608082015f82015161400b5f850182613fca565b50602082015161401e6020850182613fd9565b5060408201516140316040850182613fe8565b5060608201516140446060850182613fe8565b50505050565b5f60808201905061405d5f830184613ff7565b92915050565b5f61406d82613b78565b9050919050565b5f61407e82614063565b9050919050565b61408e81614074565b82525050565b5f6020820190506140a75f830184614085565b92915050565b5f815190506140bb81613da1565b92915050565b5f602082840312156140d6576140d5613909565b5b5f6140e3848285016140ad565b91505092915050565b5f815190506140fa81613981565b92915050565b5f6020828403121561411557614114613909565b5b5f614122848285016140ec565b91505092915050565b5f82825260208201905092915050565b7f554e415554484f52495a454400000000000000000000000000000000000000005f82015250565b5f61416f600c8361412b565b915061417a8261413b565b602082019050919050565b5f6020820190508181035f83015261419c81614163565b9050919050565b7f5245454e5452414e4359000000000000000000000000000000000000000000005f82015250565b5f6141d7600a8361412b565b91506141e2826141a3565b602082019050919050565b5f6020820190508181035f830152614204816141cb565b9050919050565b7f4e487b71000000000000000000000000000000000000000000000000000000005f52601160045260245ffd5b5f61424282613add565b915061424d83613add565b925082820190506bffffffffffffffffffffffff8111156142715761427061420b565b5b92915050565b5f61428182613978565b915061428c83613978565b92508282019050808211156142a4576142a361420b565b5b92915050565b5f6040820190506142bd5f830185613d16565b6142ca6020830184613d25565b9392505050565b5f6020820190506142e45f830184613cb5565b92915050565b5f6142f482613c8b565b91506142ff83613c8b565b925082820190506fffffffffffffffffffffffffffffffff8111156143275761432661420b565b5b92915050565b5f6040820190506143405f830185613d25565b61434d6020830184613d16565b9392505050565b5f6020820190506143675f830184613c7c565b92915050565b5f7fffffffff0000000000000000000000000000000000000000000000000000000082169050919050565b6143a18161436d565b82525050565b5f6060820190506143ba5f830186613c45565b6143c76020830185613c45565b6143d46040830184614398565b949350505050565b5f67ffffffffffffffff82169050919050565b5f6144096144046143ff84613c6d565b613b6f565b6143dc565b9050919050565b614419816143ef565b82525050565b5f6040820190506144325f830185614410565b61443f6020830184613cb5565b9392505050565b7f5452414e534645525f4641494c454400000000000000000000000000000000005f82015250565b5f61447a600f8361412b565b915061448582614446565b602082019050919050565b5f6020820190508181035f8301526144a78161446e565b9050919050565b5f6144b882613c8b565b91506144c383613c8b565b925082820390506fffffffffffffffffffffffffffffffff8111156144eb576144ea61420b565b5b92915050565b5f6144fb82613978565b915061450683613978565b925082820390508181111561451e5761451d61420b565b5b92915050565b5f6060820190506145375f830186613a51565b6145446020830185613a51565b6145516040830184613c45565b949350505050565b5f60408201905061456c5f830185613a51565b6145796020830184613a51565b9392505050565b5f6020820190506145935f830184613d25565b92915050565b7f5452414e534645525f46524f4d5f4641494c45440000000000000000000000005f82015250565b5f6145cd60148361412b565b91506145d882614599565b602082019050919050565b5f6020820190508181035f8301526145fa816145c1565b905091905056fea2646970667358221220487c52e2ec423c1d01e6533c92aec6040aa22809b23c7f19a87213f4e3f01c4f64736f6c634300081e0033",
  "linkReferences": {},
  "deployedLinkReferences": {},
  "immutableReferences": {
    "10561": [
      {
        "length": 32,
        "start": 10979
      }
    ],
    "10565": [
      {
        "length": 32,
        "start": 13011
      }
    ],
    "10569": [
      {
        "length": 32,
        "start": 1684
      },
      {
        "length": 32,
        "start": 6788
      },
      {
        "length": 32,
        "start": 12115
      },
      {
        "length": 32,
        "start": 12840
      },
      {
        "length": 32,
        "start": 14042
      }
    ],
    "10573": [
      {
        "length": 32,
        "start": 3469
      },
      {
        "length": 32,
        "start": 4436
      },
      {
        "length": 32,
        "start": 5013
      },
      {
        "length": 32,
        "start": 7238
      },
      {
        "length": 32,
        "start": 7864
      },
      {
        "length": 32,
        "start": 10824
      },
      {
        "length": 32,
        "start": 11425
      },
      {
        "length": 32,
        "start": 13170
      },
      {
        "length": 32,
        "start": 14112
      }
    ],
    "10576": [
      {
        "length": 32,
        "start": 11176
      }
    ]
  },
  "inputSourceName": "project/contracts/core/DelayedWithdraw.sol",
  "buildInfoId": "solc-0_8_30-2aa10bd6f380147b8802731ab3e408937ef31a1c"
}