{
  "_format": "hh3-artifact-1",
  "contractName": "FullDecoderAndSanitizer",
  "sourceName": "contracts/decodersAndSanitizers/FullDecoderAndSanitizer.sol",
  "abi": [
    {
      "inputs": [],
      "name": "BaseDecoderAndSanitizer__FunctionSelectorNotSupported",
      "type": "error"
    },
    {
      "inputs": [],
      "name": "FullDecoderAndSanitizer__FunctionSelectorNotSupported",
      "type": "error"
    },
    {
      "inputs": [],
      "name": "PrimeDecoderAndSanitizer__FunctionSelectorNotSupported",
      "type": "error"
    },
    {
      "stateMutability": "nonpayable",
      "type": "fallback"
    },
    {
      "inputs": [
        {
          "internalType": "address",
          "name": "spender",
          "type": "address"
        },
        {
          "internalType": "uint256",
          "name": "",
          "type": "uint256"
        }
      ],
      "name": "approve",
      "outputs": [
        {
          "internalType": "bytes",
          "name": "addressesFound",
          "type": "bytes"
        }
      ],
      "stateMutability": "pure",
      "type": "function"
    },
    {
      "inputs": [
        {
          "internalType": "address",
          "name": "feeAsset",
          "type": "address"
        }
      ],
      "name": "claimFees",
      "outputs": [
        {
          "internalType": "bytes",
          "name": "addressesFound",
          "type": "bytes"
        }
      ],
      "stateMutability": "pure",
      "type": "function"
    },
    {
      "inputs": [],
      "name": "claimFees",
      "outputs": [
        {
          "internalType": "bytes",
          "name": "addressesFound",
          "type": "bytes"
        }
      ],
      "stateMutability": "pure",
      "type": "function"
    },
    {
      "inputs": [
        {
          "internalType": "address",
          "name": "yieldAsset",
          "type": "address"
        }
      ],
      "name": "claimYield",
      "outputs": [
        {
          "internalType": "bytes",
          "name": "addressesFound",
          "type": "bytes"
        }
      ],
      "stateMutability": "pure",
      "type": "function"
    },
    {
      "inputs": [
        {
          "internalType": "address",
          "name": "asset",
          "type": "address"
        },
        {
          "internalType": "uint256",
          "name": "",
          "type": "uint256"
        }
      ],
      "name": "deposit",
      "outputs": [
        {
          "internalType": "bytes",
          "name": "addressesFound",
          "type": "bytes"
        }
      ],
      "stateMutability": "pure",
      "type": "function"
    },
    {
      "inputs": [
        {
          "internalType": "address",
          "name": "_to",
          "type": "address"
        },
        {
          "internalType": "uint256",
          "name": "",
          "type": "uint256"
        }
      ],
      "name": "transfer",
      "outputs": [
        {
          "internalType": "bytes",
          "name": "addressesFound",
          "type": "bytes"
        }
      ],
      "stateMutability": "pure",
      "type": "function"
    },
    {
      "inputs": [
        {
          "internalType": "address",
          "name": "asset",
          "type": "address"
        },
        {
          "internalType": "uint256",
          "name": "",
          "type": "uint256"
        }
      ],
      "name": "withdraw",
      "outputs": [
        {
          "internalType": "bytes",
          "name": "addressesFound",
          "type": "bytes"
        }
      ],
      "stateMutability": "pure",
      "type": "function"
    },
    {
      "inputs": [],
      "name": "withdrawNativeFromDrone",
      "outputs": [
        {
          "internalType": "bytes",
          "name": "addressesFound",
          "type": "bytes"
        }
      ],
      "stateMutability": "pure",
      "type": "function"
    },
    {
      "inputs": [
        {
          "internalType": "address",
          "name": "token",
          "type": "address"
        },
        {
          "internalType": "uint256",
          "name": "",
          "type": "uint256"
        }
      ],
      "name": "withdrawNonBoringToken",
      "outputs": [
        {
          "internalType": "bytes",
          "name": "addressesFound",
          "type": "bytes"
        }
      ],
      "stateMutability": "pure",
      "type": "function"
    }
  ],
  "bytecode": "0x6080604052348015600e575f5ffd5b506105a18061001c5f395ff3fe608060405234801561000f575f5ffd5b5060043610610095575f3560e01c8063999927df11610064578063999927df14610188578063a9059cbb146101b8578063d294f093146101e8578063da3ef9d214610206578063f3fef3a31461022457610096565b8063095ea7b3146100c857806309f0e0c2146100f857806315a0ea6a1461012857806347e7ef241461015857610096565b5b6040517fcfbaa7ce00000000000000000000000000000000000000000000000000000000815260040160405180910390fd5b6100e260048036038101906100dd9190610413565b610254565b6040516100ef91906104c1565b60405180910390f35b610112600480360381019061010d9190610413565b61027e565b60405161011f91906104c1565b60405180910390f35b610142600480360381019061013d91906104e1565b6102a8565b60405161014f91906104c1565b60405180910390f35b610172600480360381019061016d9190610413565b6102d1565b60405161017f91906104c1565b60405180910390f35b6101a2600480360381019061019d91906104e1565b6102fb565b6040516101af91906104c1565b60405180910390f35b6101d260048036038101906101cd9190610413565b610324565b6040516101df91906104c1565b60405180910390f35b6101f061034e565b6040516101fd91906104c1565b60405180910390f35b61020e610353565b60405161021b91906104c1565b60405180910390f35b61023e60048036038101906102399190610413565b610358565b60405161024b91906104c1565b60405180910390f35b6060826040516020016102679190610551565b604051602081830303815290604052905092915050565b6060826040516020016102919190610551565b604051602081830303815290604052905092915050565b6060816040516020016102bb9190610551565b6040516020818303038152906040529050919050565b6060826040516020016102e49190610551565b604051602081830303815290604052905092915050565b60608160405160200161030e9190610551565b6040516020818303038152906040529050919050565b6060826040516020016103379190610551565b604051602081830303815290604052905092915050565b606090565b606090565b60608260405160200161036b9190610551565b604051602081830303815290604052905092915050565b5f5ffd5b5f73ffffffffffffffffffffffffffffffffffffffff82169050919050565b5f6103af82610386565b9050919050565b6103bf816103a5565b81146103c9575f5ffd5b50565b5f813590506103da816103b6565b92915050565b5f819050919050565b6103f2816103e0565b81146103fc575f5ffd5b50565b5f8135905061040d816103e9565b92915050565b5f5f6040838503121561042957610428610382565b5b5f610436858286016103cc565b9250506020610447858286016103ff565b9150509250929050565b5f81519050919050565b5f82825260208201905092915050565b8281835e5f83830152505050565b5f601f19601f8301169050919050565b5f61049382610451565b61049d818561045b565b93506104ad81856020860161046b565b6104b681610479565b840191505092915050565b5f6020820190508181035f8301526104d98184610489565b905092915050565b5f602082840312156104f6576104f5610382565b5b5f610503848285016103cc565b91505092915050565b5f8160601b9050919050565b5f6105228261050c565b9050919050565b5f61053382610518565b9050919050565b61054b610546826103a5565b610529565b82525050565b5f61055c828461053a565b6014820191508190509291505056fea264697066735822122015245c405a17bfe68a904c86eca64a0efe05f7208597c7a4872363af10684e6864736f6c634300081e0033",
  "linkReferences": {},
  "deployedLinkReferences": {},
  "immutableReferences": {},
  "inputSourceName": "project/contracts/decodersAndSanitizers/FullDecoderAndSanitizer.sol",
  "buildInfoId": "solc-0_8_30-63599ffcbdd8fcd8a4b04b152bafcf3e3da2cf67"
}