{
  "_format": "hh3-artifact-1",
  "contractName": "PrimeRegistry",
  "sourceName": "contracts/core/PrimeRegistry.sol",
  "abi": [
    {
      "inputs": [
        {
          "internalType": "address",
          "name": "_primeRBAC",
          "type": "address"
        }
      ],
      "stateMutability": "nonpayable",
      "type": "constructor"
    },
    {
      "inputs": [],
      "name": "NOT_PROTOCOL_ADMIN",
      "type": "error"
    },
    {
      "inputs": [],
      "name": "PrimeRegistry__AccountantNotRegistered",
      "type": "error"
    },
    {
      "inputs": [],
      "name": "PrimeRegistry__InvalidAuthority",
      "type": "error"
    },
    {
      "inputs": [],
      "name": "PrimeRegistry__TellerNotRegistered",
      "type": "error"
    },
    {
      "inputs": [],
      "name": "PrimeRegistry__WithdrawerNotRegistered",
      "type": "error"
    },
    {
      "inputs": [],
      "name": "PrimeRegistry__ZeroAddress",
      "type": "error"
    },
    {
      "inputs": [],
      "name": "ZERO_ADDRESS",
      "type": "error"
    },
    {
      "anonymous": false,
      "inputs": [
        {
          "indexed": true,
          "internalType": "address",
          "name": "accountant",
          "type": "address"
        },
        {
          "indexed": true,
          "internalType": "address",
          "name": "vault",
          "type": "address"
        }
      ],
      "name": "AccountantRegistered",
      "type": "event"
    },
    {
      "anonymous": false,
      "inputs": [
        {
          "indexed": true,
          "internalType": "address",
          "name": "user",
          "type": "address"
        },
        {
          "indexed": true,
          "internalType": "contract Authority",
          "name": "newAuthority",
          "type": "address"
        }
      ],
      "name": "AuthorityUpdated",
      "type": "event"
    },
    {
      "anonymous": false,
      "inputs": [
        {
          "indexed": true,
          "internalType": "address",
          "name": "manager",
          "type": "address"
        },
        {
          "indexed": true,
          "internalType": "address",
          "name": "vault",
          "type": "address"
        }
      ],
      "name": "ManagerRegistered",
      "type": "event"
    },
    {
      "anonymous": false,
      "inputs": [
        {
          "indexed": true,
          "internalType": "address",
          "name": "user",
          "type": "address"
        },
        {
          "indexed": true,
          "internalType": "address",
          "name": "newOwner",
          "type": "address"
        }
      ],
      "name": "OwnershipTransferred",
      "type": "event"
    },
    {
      "anonymous": false,
      "inputs": [
        {
          "indexed": true,
          "internalType": "address",
          "name": "teller",
          "type": "address"
        },
        {
          "indexed": true,
          "internalType": "address",
          "name": "vault",
          "type": "address"
        }
      ],
      "name": "TellerRegistered",
      "type": "event"
    },
    {
      "anonymous": false,
      "inputs": [
        {
          "indexed": true,
          "internalType": "address",
          "name": "vault",
          "type": "address"
        },
        {
          "indexed": true,
          "internalType": "address",
          "name": "asset",
          "type": "address"
        },
        {
          "indexed": true,
          "internalType": "address",
          "name": "rolesAuthority",
          "type": "address"
        }
      ],
      "name": "VaultCreated",
      "type": "event"
    },
    {
      "anonymous": false,
      "inputs": [
        {
          "indexed": true,
          "internalType": "address",
          "name": "withdrawer",
          "type": "address"
        },
        {
          "indexed": true,
          "internalType": "address",
          "name": "vault",
          "type": "address"
        }
      ],
      "name": "WithdrawerRegistered",
      "type": "event"
    },
    {
      "inputs": [],
      "name": "ADMIN_ROLE",
      "outputs": [
        {
          "internalType": "uint8",
          "name": "",
          "type": "uint8"
        }
      ],
      "stateMutability": "view",
      "type": "function"
    },
    {
      "inputs": [],
      "name": "BORING_VAULT_ROLE",
      "outputs": [
        {
          "internalType": "uint8",
          "name": "",
          "type": "uint8"
        }
      ],
      "stateMutability": "view",
      "type": "function"
    },
    {
      "inputs": [],
      "name": "BURNER_ROLE",
      "outputs": [
        {
          "internalType": "uint8",
          "name": "",
          "type": "uint8"
        }
      ],
      "stateMutability": "view",
      "type": "function"
    },
    {
      "inputs": [],
      "name": "CAN_SOLVE_ROLE",
      "outputs": [
        {
          "internalType": "uint8",
          "name": "",
          "type": "uint8"
        }
      ],
      "stateMutability": "view",
      "type": "function"
    },
    {
      "inputs": [],
      "name": "MANAGER_ROLE",
      "outputs": [
        {
          "internalType": "uint8",
          "name": "",
          "type": "uint8"
        }
      ],
      "stateMutability": "view",
      "type": "function"
    },
    {
      "inputs": [],
      "name": "MINTER_ROLE",
      "outputs": [
        {
          "internalType": "uint8",
          "name": "",
          "type": "uint8"
        }
      ],
      "stateMutability": "view",
      "type": "function"
    },
    {
      "inputs": [],
      "name": "QUEUE_ROLE",
      "outputs": [
        {
          "internalType": "uint8",
          "name": "",
          "type": "uint8"
        }
      ],
      "stateMutability": "view",
      "type": "function"
    },
    {
      "inputs": [],
      "name": "SOLVER_ROLE",
      "outputs": [
        {
          "internalType": "uint8",
          "name": "",
          "type": "uint8"
        }
      ],
      "stateMutability": "view",
      "type": "function"
    },
    {
      "inputs": [],
      "name": "STRATEGIST_ROLE",
      "outputs": [
        {
          "internalType": "uint8",
          "name": "",
          "type": "uint8"
        }
      ],
      "stateMutability": "view",
      "type": "function"
    },
    {
      "inputs": [],
      "name": "authority",
      "outputs": [
        {
          "internalType": "contract Authority",
          "name": "",
          "type": "address"
        }
      ],
      "stateMutability": "view",
      "type": "function"
    },
    {
      "inputs": [],
      "name": "owner",
      "outputs": [
        {
          "internalType": "address",
          "name": "",
          "type": "address"
        }
      ],
      "stateMutability": "view",
      "type": "function"
    },
    {
      "inputs": [],
      "name": "primeRBAC",
      "outputs": [
        {
          "internalType": "contract IPrimeRBAC",
          "name": "",
          "type": "address"
        }
      ],
      "stateMutability": "view",
      "type": "function"
    },
    {
      "inputs": [
        {
          "internalType": "contract AccountantWithYieldStreaming",
          "name": "accountant",
          "type": "address"
        }
      ],
      "name": "registerAccountant",
      "outputs": [],
      "stateMutability": "nonpayable",
      "type": "function"
    },
    {
      "inputs": [
        {
          "internalType": "contract ManagerWithMerkleVerification",
          "name": "manager",
          "type": "address"
        }
      ],
      "name": "registerManager",
      "outputs": [],
      "stateMutability": "nonpayable",
      "type": "function"
    },
    {
      "inputs": [
        {
          "internalType": "contract TellerWithYieldStreaming",
          "name": "teller",
          "type": "address"
        }
      ],
      "name": "registerTeller",
      "outputs": [],
      "stateMutability": "nonpayable",
      "type": "function"
    },
    {
      "inputs": [
        {
          "internalType": "contract BoringVault",
          "name": "vault",
          "type": "address"
        }
      ],
      "name": "registerVault",
      "outputs": [],
      "stateMutability": "nonpayable",
      "type": "function"
    },
    {
      "inputs": [
        {
          "internalType": "contract DelayedWithdraw",
          "name": "withdrawer",
          "type": "address"
        }
      ],
      "name": "registerWithdrawer",
      "outputs": [],
      "stateMutability": "nonpayable",
      "type": "function"
    },
    {
      "inputs": [
        {
          "internalType": "contract Authority",
          "name": "newAuthority",
          "type": "address"
        }
      ],
      "name": "setAuthority",
      "outputs": [],
      "stateMutability": "nonpayable",
      "type": "function"
    },
    {
      "inputs": [
        {
          "internalType": "address",
          "name": "newOwner",
          "type": "address"
        }
      ],
      "name": "transferOwnership",
      "outputs": [],
      "stateMutability": "nonpayable",
      "type": "function"
    },
    {
      "inputs": [
        {
          "internalType": "address",
          "name": "",
          "type": "address"
        }
      ],
      "name": "vaults",
      "outputs": [
        {
          "internalType": "address",
          "name": "accountant",
          "type": "address"
        },
        {
          "internalType": "address",
          "name": "teller",
          "type": "address"
        },
        {
          "internalType": "address",
          "name": "manager",
          "type": "address"
        },
        {
          "internalType": "address",
          "name": "withdrawer",
          "type": "address"
        },
        {
          "internalType": "address",
          "name": "rolesAuthority",
          "type": "address"
        }
      ],
      "stateMutability": "view",
      "type": "function"
    }
  ],
  "bytecode": "0x608060405234801561000f575f5ffd5b50604051612e2a380380612e2a83398181016040528101906100319190610275565b805f3381815f5f6101000a81548173ffffffffffffffffffffffffffffffffffffffff021916908373ffffffffffffffffffffffffffffffffffffffff1602179055508060015f6101000a81548173ffffffffffffffffffffffffffffffffffffffff021916908373ffffffffffffffffffffffffffffffffffffffff1602179055508173ffffffffffffffffffffffffffffffffffffffff163373ffffffffffffffffffffffffffffffffffffffff167f8be0079c531659141344cd1fd0a4f28419497f9722a3daafe3b4186f6b6457e060405160405180910390a38073ffffffffffffffffffffffffffffffffffffffff163373ffffffffffffffffffffffffffffffffffffffff167fa3396fd7f6e0a21b50e5089d2da70d5ac0a3bbbd1f617a93f134b7638998019860405160405180910390a350505f73ffffffffffffffffffffffffffffffffffffffff168273ffffffffffffffffffffffffffffffffffffffff16036101cf576040517f538ba4f900000000000000000000000000000000000000000000000000000000815260040160405180910390fd5b8160025f6101000a81548173ffffffffffffffffffffffffffffffffffffffff021916908373ffffffffffffffffffffffffffffffffffffffff1602179055505050506102a0565b5f5ffd5b5f73ffffffffffffffffffffffffffffffffffffffff82169050919050565b5f6102448261021b565b9050919050565b6102548161023a565b811461025e575f5ffd5b50565b5f8151905061026f8161024b565b92915050565b5f6020828403121561028a57610289610217565b5b5f61029784828501610261565b91505092915050565b612b7d806102ad5f395ff3fe608060405234801561000f575f5ffd5b506004361061012a575f3560e01c80638da5cb5b116100ab578063bf7e214f1161006f578063bf7e214f146102fa578063d539139314610318578063e37d7e6814610336578063ec87621c14610354578063f2fde38b146103725761012a565b80638da5cb5b14610250578063a218351b1461026e578063a3539f5e1461028a578063a378a324146102a8578063a622ee7c146102c65761012a565b806367ccd1cb116100f257806367ccd1cb146101c05780636dfcc4a5146101dc578063702339d9146101f857806375b238fc146102165780637a9e5e4b146102345761012a565b8063282c51f31461012e5780632b2da97e1461014c57806340b0b4de146101685780635abe4c58146101865780635c48a342146101a2575b5f5ffd5b61013661038e565b6040516101439190612423565b60405180910390f35b610166600480360381019061016191906124ab565b610393565b005b610170610785565b60405161017d9190612423565b60405180910390f35b6101a0600480360381019061019b9190612511565b61078a565b005b6101aa610f62565b6040516101b79190612423565b60405180910390f35b6101da60048036038101906101d59190612588565b610f67565b005b6101f660048036038101906101f191906125ee565b61144a565b005b610200611976565b60405161020d9190612423565b60405180910390f35b61021e61197b565b60405161022b9190612423565b60405180910390f35b61024e60048036038101906102499190612654565b611980565b005b610258611b3b565b604051610265919061268e565b60405180910390f35b610288600480360381019061028391906126e2565b611b5f565b005b61029261209c565b60405161029f9190612423565b60405180910390f35b6102b06120a1565b6040516102bd9190612423565b60405180910390f35b6102e060048036038101906102db9190612737565b6120a6565b6040516102f1959493929190612762565b60405180910390f35b610302612173565b60405161030f919061280e565b60405180910390f35b610320612198565b60405161032d9190612423565b60405180910390f35b61033e61219d565b60405161034b9190612847565b60405180910390f35b61035c6121c2565b6040516103699190612423565b60405180910390f35b61038c60048036038101906103879190612737565b6121c7565b005b600881565b60025f9054906101000a900473ffffffffffffffffffffffffffffffffffffffff1673ffffffffffffffffffffffffffffffffffffffff1663d35911f2336040518263ffffffff1660e01b81526004016103ed919061268e565b602060405180830381865afa158015610408573d5f5f3e3d5ffd5b505050506040513d601f19601f8201168201806040525081019061042c9190612895565b610462576040517fdc85555400000000000000000000000000000000000000000000000000000000815260040160405180910390fd5b5f8173ffffffffffffffffffffffffffffffffffffffff1663bf7e214f6040518163ffffffff1660e01b8152600401602060405180830381865afa1580156104ac573d5f5f3e3d5ffd5b505050506040513d601f19601f820116820180604052508101906104d091906128d4565b90505f8190508073ffffffffffffffffffffffffffffffffffffffff16637d40583d6007857f2aaeb1876b7ea1ab1a5581ca4bd0045761ef7abae3f6677a8e8d8ffd6119a34a60016040518563ffffffff1660e01b81526004016105379493929190612948565b5f604051808303815f87803b15801561054e575f5ffd5b505af1158015610560573d5f5f3e3d5ffd5b505050508073ffffffffffffffffffffffffffffffffffffffff166367aff48484600260016040518463ffffffff1660e01b81526004016105a39392919061298b565b5f604051808303815f87803b1580156105ba575f5ffd5b505af11580156105cc573d5f5f3e3d5ffd5b505050508260035f8573ffffffffffffffffffffffffffffffffffffffff1663fbfa77cf6040518163ffffffff1660e01b8152600401602060405180830381865afa15801561061d573d5f5f3e3d5ffd5b505050506040513d601f19601f8201168201806040525081019061064191906129d4565b73ffffffffffffffffffffffffffffffffffffffff1673ffffffffffffffffffffffffffffffffffffffff1681526020019081526020015f206002015f6101000a81548173ffffffffffffffffffffffffffffffffffffffff021916908373ffffffffffffffffffffffffffffffffffffffff1602179055508273ffffffffffffffffffffffffffffffffffffffff1663fbfa77cf6040518163ffffffff1660e01b8152600401602060405180830381865afa158015610703573d5f5f3e3d5ffd5b505050506040513d601f19601f8201168201806040525081019061072791906129d4565b73ffffffffffffffffffffffffffffffffffffffff168373ffffffffffffffffffffffffffffffffffffffff167f8fc18cc172f74c81235145b7927190d2bd0e351fc45bfb17bb572593273cef2160405160405180910390a3505050565b600a81565b60025f9054906101000a900473ffffffffffffffffffffffffffffffffffffffff1673ffffffffffffffffffffffffffffffffffffffff1663d35911f2336040518263ffffffff1660e01b81526004016107e4919061268e565b602060405180830381865afa1580156107ff573d5f5f3e3d5ffd5b505050506040513d601f19601f820116820180604052508101906108239190612895565b610859576040517fdc85555400000000000000000000000000000000000000000000000000000000815260040160405180910390fd5b5f8173ffffffffffffffffffffffffffffffffffffffff1663bf7e214f6040518163ffffffff1660e01b8152600401602060405180830381865afa1580156108a3573d5f5f3e3d5ffd5b505050506040513d601f19601f820116820180604052508101906108c791906128d4565b90505f8190508073ffffffffffffffffffffffffffffffffffffffff1663c6b0263e84638dbdbe6d60e01b60016040518463ffffffff1660e01b8152600401610912939291906129ff565b5f604051808303815f87803b158015610929575f5ffd5b505af115801561093b573d5f5f3e3d5ffd5b505050508073ffffffffffffffffffffffffffffffffffffffff16637d40583d60038563a316f21b60e01b60016040518563ffffffff1660e01b81526004016109879493929190612948565b5f604051808303815f87803b15801561099e575f5ffd5b505af11580156109b0573d5f5f3e3d5ffd5b505050508073ffffffffffffffffffffffffffffffffffffffff16637d40583d600885630ad58d2f60e01b60016040518563ffffffff1660e01b81526004016109fc9493929190612948565b5f604051808303815f87803b158015610a13575f5ffd5b505af1158015610a25573d5f5f3e3d5ffd5b505050508073ffffffffffffffffffffffffffffffffffffffff16637d40583d60088563657ae3f160e01b60016040518563ffffffff1660e01b8152600401610a719493929190612948565b5f604051808303815f87803b158015610a88575f5ffd5b505af1158015610a9a573d5f5f3e3d5ffd5b505050508073ffffffffffffffffffffffffffffffffffffffff16637d40583d60028563088c644d60e01b60016040518563ffffffff1660e01b8152600401610ae69493929190612948565b5f604051808303815f87803b158015610afd575f5ffd5b505af1158015610b0f573d5f5f3e3d5ffd5b505050508073ffffffffffffffffffffffffffffffffffffffff16637d40583d600285634c3bde4260e01b60016040518563ffffffff1660e01b8152600401610b5b9493929190612948565b5f604051808303815f87803b158015610b72575f5ffd5b505af1158015610b84573d5f5f3e3d5ffd5b505050508073ffffffffffffffffffffffffffffffffffffffff16637d40583d600285639300003a60e01b60016040518563ffffffff1660e01b8152600401610bd09493929190612948565b5f604051808303815f87803b158015610be7575f5ffd5b505af1158015610bf9573d5f5f3e3d5ffd5b505050508073ffffffffffffffffffffffffffffffffffffffff166367aff48484600360016040518463ffffffff1660e01b8152600401610c3c9392919061298b565b5f604051808303815f87803b158015610c53575f5ffd5b505af1158015610c65573d5f5f3e3d5ffd5b505050508073ffffffffffffffffffffffffffffffffffffffff166367aff48484600860016040518463ffffffff1660e01b8152600401610ca89392919061298b565b5f604051808303815f87803b158015610cbf575f5ffd5b505af1158015610cd1573d5f5f3e3d5ffd5b505050508073ffffffffffffffffffffffffffffffffffffffff166367aff48484600260016040518463ffffffff1660e01b8152600401610d149392919061298b565b5f604051808303815f87803b158015610d2b575f5ffd5b505af1158015610d3d573d5f5f3e3d5ffd5b505050508073ffffffffffffffffffffffffffffffffffffffff166367aff48484600760016040518463ffffffff1660e01b8152600401610d809392919061298b565b5f604051808303815f87803b158015610d97575f5ffd5b505af1158015610da9573d5f5f3e3d5ffd5b505050508260035f8573ffffffffffffffffffffffffffffffffffffffff1663fbfa77cf6040518163ffffffff1660e01b8152600401602060405180830381865afa158015610dfa573d5f5f3e3d5ffd5b505050506040513d601f19601f82011682018060405250810190610e1e91906129d4565b73ffffffffffffffffffffffffffffffffffffffff1673ffffffffffffffffffffffffffffffffffffffff1681526020019081526020015f206001015f6101000a81548173ffffffffffffffffffffffffffffffffffffffff021916908373ffffffffffffffffffffffffffffffffffffffff1602179055508273ffffffffffffffffffffffffffffffffffffffff1663fbfa77cf6040518163ffffffff1660e01b8152600401602060405180830381865afa158015610ee0573d5f5f3e3d5ffd5b505050506040513d601f19601f82011682018060405250810190610f0491906129d4565b73ffffffffffffffffffffffffffffffffffffffff168373ffffffffffffffffffffffffffffffffffffffff167f6c6908583514a9aaafa43490a34a4401dd0fd913e2b7b6725d81d57f3abe841860405160405180910390a3505050565b600981565b60025f9054906101000a900473ffffffffffffffffffffffffffffffffffffffff1673ffffffffffffffffffffffffffffffffffffffff1663d35911f2336040518263ffffffff1660e01b8152600401610fc1919061268e565b602060405180830381865afa158015610fdc573d5f5f3e3d5ffd5b505050506040513d601f19601f820116820180604052508101906110009190612895565b611036576040517fdc85555400000000000000000000000000000000000000000000000000000000815260040160405180910390fd5b5f8173ffffffffffffffffffffffffffffffffffffffff1663bf7e214f6040518163ffffffff1660e01b8152600401602060405180830381865afa158015611080573d5f5f3e3d5ffd5b505050506040513d601f19601f820116820180604052508101906110a491906128d4565b90505f8190508073ffffffffffffffffffffffffffffffffffffffff16637d40583d60028563f6e715d060e01b60016040518563ffffffff1660e01b81526004016110f29493929190612948565b5f604051808303815f87803b158015611109575f5ffd5b505af115801561111b573d5f5f3e3d5ffd5b505050508073ffffffffffffffffffffffffffffffffffffffff16637d40583d60028563366d7fe160e01b60016040518563ffffffff1660e01b81526004016111679493929190612948565b5f604051808303815f87803b15801561117e575f5ffd5b505af1158015611190573d5f5f3e3d5ffd5b505050508073ffffffffffffffffffffffffffffffffffffffff16637d40583d600385636baf8dbc60e01b60016040518563ffffffff1660e01b81526004016111dc9493929190612948565b5f604051808303815f87803b1580156111f3575f5ffd5b505af1158015611205573d5f5f3e3d5ffd5b505050508073ffffffffffffffffffffffffffffffffffffffff16637d40583d6008856392f9323260e01b60016040518563ffffffff1660e01b81526004016112519493929190612948565b5f604051808303815f87803b158015611268575f5ffd5b505af115801561127a573d5f5f3e3d5ffd5b505050508073ffffffffffffffffffffffffffffffffffffffff166367aff48484600460016040518463ffffffff1660e01b81526004016112bd9392919061298b565b5f604051808303815f87803b1580156112d4575f5ffd5b505af11580156112e6573d5f5f3e3d5ffd5b505050508060035f8573ffffffffffffffffffffffffffffffffffffffff1673ffffffffffffffffffffffffffffffffffffffff1681526020019081526020015f206004015f6101000a81548173ffffffffffffffffffffffffffffffffffffffff021916908373ffffffffffffffffffffffffffffffffffffffff1602179055508073ffffffffffffffffffffffffffffffffffffffff168373ffffffffffffffffffffffffffffffffffffffff166338d52e0f6040518163ffffffff1660e01b8152600401602060405180830381865afa1580156113c8573d5f5f3e3d5ffd5b505050506040513d601f19601f820116820180604052508101906113ec9190612a6f565b73ffffffffffffffffffffffffffffffffffffffff168473ffffffffffffffffffffffffffffffffffffffff167f897c133dfbfe1f6239e98b4ffd7e4f6c86a62350a131a7a37790419f58af02f960405160405180910390a4505050565b60025f9054906101000a900473ffffffffffffffffffffffffffffffffffffffff1673ffffffffffffffffffffffffffffffffffffffff1663d35911f2336040518263ffffffff1660e01b81526004016114a4919061268e565b602060405180830381865afa1580156114bf573d5f5f3e3d5ffd5b505050506040513d601f19601f820116820180604052508101906114e39190612895565b611519576040517fdc85555400000000000000000000000000000000000000000000000000000000815260040160405180910390fd5b5f8173ffffffffffffffffffffffffffffffffffffffff1663bf7e214f6040518163ffffffff1660e01b8152600401602060405180830381865afa158015611563573d5f5f3e3d5ffd5b505050506040513d601f19601f8201168201806040525081019061158791906128d4565b90505f8190508073ffffffffffffffffffffffffffffffffffffffff1663c6b0263e846384b7682460e01b60016040518463ffffffff1660e01b81526004016115d2939291906129ff565b5f604051808303815f87803b1580156115e9575f5ffd5b505af11580156115fb573d5f5f3e3d5ffd5b505050508073ffffffffffffffffffffffffffffffffffffffff1663c6b0263e8463545312c060e01b60016040518463ffffffff1660e01b8152600401611644939291906129ff565b5f604051808303815f87803b15801561165b575f5ffd5b505af115801561166d573d5f5f3e3d5ffd5b505050508073ffffffffffffffffffffffffffffffffffffffff1663c6b0263e8463bf3b826b60e01b60016040518463ffffffff1660e01b81526004016116b6939291906129ff565b5f604051808303815f87803b1580156116cd575f5ffd5b505af11580156116df573d5f5f3e3d5ffd5b505050508073ffffffffffffffffffffffffffffffffffffffff1663c6b0263e8463ae172f0860e01b60016040518463ffffffff1660e01b8152600401611728939291906129ff565b5f604051808303815f87803b15801561173f575f5ffd5b505af1158015611751573d5f5f3e3d5ffd5b505050508073ffffffffffffffffffffffffffffffffffffffff166367aff48484600860016040518463ffffffff1660e01b81526004016117949392919061298b565b5f604051808303815f87803b1580156117ab575f5ffd5b505af11580156117bd573d5f5f3e3d5ffd5b505050508260035f8573ffffffffffffffffffffffffffffffffffffffff1663f3b977846040518163ffffffff1660e01b8152600401602060405180830381865afa15801561180e573d5f5f3e3d5ffd5b505050506040513d601f19601f8201168201806040525081019061183291906129d4565b73ffffffffffffffffffffffffffffffffffffffff1673ffffffffffffffffffffffffffffffffffffffff1681526020019081526020015f206003015f6101000a81548173ffffffffffffffffffffffffffffffffffffffff021916908373ffffffffffffffffffffffffffffffffffffffff1602179055508273ffffffffffffffffffffffffffffffffffffffff1663f3b977846040518163ffffffff1660e01b8152600401602060405180830381865afa1580156118f4573d5f5f3e3d5ffd5b505050506040513d601f19601f8201168201806040525081019061191891906129d4565b73ffffffffffffffffffffffffffffffffffffffff168373ffffffffffffffffffffffffffffffffffffffff167f6fcc7908450856abe50f242afba0e65041d8f5a43e673d4ce02a7f5557b6c8dc60405160405180910390a3505050565b600481565b600181565b5f5f9054906101000a900473ffffffffffffffffffffffffffffffffffffffff1673ffffffffffffffffffffffffffffffffffffffff163373ffffffffffffffffffffffffffffffffffffffff161480611a96575060015f9054906101000a900473ffffffffffffffffffffffffffffffffffffffff1673ffffffffffffffffffffffffffffffffffffffff1663b700961333305f357fffffffff00000000000000000000000000000000000000000000000000000000166040518463ffffffff1660e01b8152600401611a5693929190612a9a565b602060405180830381865afa158015611a71573d5f5f3e3d5ffd5b505050506040513d601f19601f82011682018060405250810190611a959190612895565b5b611a9e575f5ffd5b8060015f6101000a81548173ffffffffffffffffffffffffffffffffffffffff021916908373ffffffffffffffffffffffffffffffffffffffff1602179055508073ffffffffffffffffffffffffffffffffffffffff163373ffffffffffffffffffffffffffffffffffffffff167fa3396fd7f6e0a21b50e5089d2da70d5ac0a3bbbd1f617a93f134b7638998019860405160405180910390a350565b5f5f9054906101000a900473ffffffffffffffffffffffffffffffffffffffff1681565b60025f9054906101000a900473ffffffffffffffffffffffffffffffffffffffff1673ffffffffffffffffffffffffffffffffffffffff1663d35911f2336040518263ffffffff1660e01b8152600401611bb9919061268e565b602060405180830381865afa158015611bd4573d5f5f3e3d5ffd5b505050506040513d601f19601f82011682018060405250810190611bf89190612895565b611c2e576040517fdc85555400000000000000000000000000000000000000000000000000000000815260040160405180910390fd5b5f8173ffffffffffffffffffffffffffffffffffffffff1663bf7e214f6040518163ffffffff1660e01b8152600401602060405180830381865afa158015611c78573d5f5f3e3d5ffd5b505050506040513d601f19601f82011682018060405250810190611c9c91906128d4565b90505f8190508073ffffffffffffffffffffffffffffffffffffffff16637d40583d600385634512deb760e01b60016040518563ffffffff1660e01b8152600401611cea9493929190612948565b5f604051808303815f87803b158015611d01575f5ffd5b505af1158015611d13573d5f5f3e3d5ffd5b505050508073ffffffffffffffffffffffffffffffffffffffff16637d40583d6007857f02ce728f3dfd50ef0e286830f4c6cf42b2a74d1f418687d2c51776ef089f72d560016040518563ffffffff1660e01b8152600401611d789493929190612948565b5f604051808303815f87803b158015611d8f575f5ffd5b505af1158015611da1573d5f5f3e3d5ffd5b505050508073ffffffffffffffffffffffffffffffffffffffff166367aff48484600360016040518463ffffffff1660e01b8152600401611de49392919061298b565b5f604051808303815f87803b158015611dfb575f5ffd5b505af1158015611e0d573d5f5f3e3d5ffd5b505050508073ffffffffffffffffffffffffffffffffffffffff166367aff484846001806040518463ffffffff1660e01b8152600401611e4f9392919061298b565b5f604051808303815f87803b158015611e66575f5ffd5b505af1158015611e78573d5f5f3e3d5ffd5b505050508073ffffffffffffffffffffffffffffffffffffffff166367aff48484600760016040518463ffffffff1660e01b8152600401611ebb9392919061298b565b5f604051808303815f87803b158015611ed2575f5ffd5b505af1158015611ee4573d5f5f3e3d5ffd5b505050508260035f8573ffffffffffffffffffffffffffffffffffffffff1663fbfa77cf6040518163ffffffff1660e01b8152600401602060405180830381865afa158015611f35573d5f5f3e3d5ffd5b505050506040513d601f19601f82011682018060405250810190611f5991906129d4565b73ffffffffffffffffffffffffffffffffffffffff1673ffffffffffffffffffffffffffffffffffffffff1681526020019081526020015f205f015f6101000a81548173ffffffffffffffffffffffffffffffffffffffff021916908373ffffffffffffffffffffffffffffffffffffffff1602179055508273ffffffffffffffffffffffffffffffffffffffff1663fbfa77cf6040518163ffffffff1660e01b8152600401602060405180830381865afa15801561201a573d5f5f3e3d5ffd5b505050506040513d601f19601f8201168201806040525081019061203e91906129d4565b73ffffffffffffffffffffffffffffffffffffffff168373ffffffffffffffffffffffffffffffffffffffff167ff742282aa167afa02e36e50de1698a48985eef879c9041e1afbb8a98a5c795c060405160405180910390a3505050565b600b81565b600781565b6003602052805f5260405f205f91509050805f015f9054906101000a900473ffffffffffffffffffffffffffffffffffffffff1690806001015f9054906101000a900473ffffffffffffffffffffffffffffffffffffffff1690806002015f9054906101000a900473ffffffffffffffffffffffffffffffffffffffff1690806003015f9054906101000a900473ffffffffffffffffffffffffffffffffffffffff1690806004015f9054906101000a900473ffffffffffffffffffffffffffffffffffffffff16905085565b60015f9054906101000a900473ffffffffffffffffffffffffffffffffffffffff1681565b600381565b60025f9054906101000a900473ffffffffffffffffffffffffffffffffffffffff1681565b600281565b6121f4335f357fffffffff00000000000000000000000000000000000000000000000000000000166122cf565b612233576040517f08c379a000000000000000000000000000000000000000000000000000000000815260040161222a90612b29565b60405180910390fd5b805f5f6101000a81548173ffffffffffffffffffffffffffffffffffffffff021916908373ffffffffffffffffffffffffffffffffffffffff1602179055508073ffffffffffffffffffffffffffffffffffffffff163373ffffffffffffffffffffffffffffffffffffffff167f8be0079c531659141344cd1fd0a4f28419497f9722a3daafe3b4186f6b6457e060405160405180910390a350565b5f5f60015f9054906101000a900473ffffffffffffffffffffffffffffffffffffffff1690505f73ffffffffffffffffffffffffffffffffffffffff168173ffffffffffffffffffffffffffffffffffffffff16141580156123a957508073ffffffffffffffffffffffffffffffffffffffff1663b70096138530866040518463ffffffff1660e01b815260040161236993929190612a9a565b602060405180830381865afa158015612384573d5f5f3e3d5ffd5b505050506040513d601f19601f820116820180604052508101906123a89190612895565b5b806123ff57505f5f9054906101000a900473ffffffffffffffffffffffffffffffffffffffff1673ffffffffffffffffffffffffffffffffffffffff168473ffffffffffffffffffffffffffffffffffffffff16145b91505092915050565b5f60ff82169050919050565b61241d81612408565b82525050565b5f6020820190506124365f830184612414565b92915050565b5f5ffd5b5f73ffffffffffffffffffffffffffffffffffffffff82169050919050565b5f61246982612440565b9050919050565b5f61247a8261245f565b9050919050565b61248a81612470565b8114612494575f5ffd5b50565b5f813590506124a581612481565b92915050565b5f602082840312156124c0576124bf61243c565b5b5f6124cd84828501612497565b91505092915050565b5f6124e08261245f565b9050919050565b6124f0816124d6565b81146124fa575f5ffd5b50565b5f8135905061250b816124e7565b92915050565b5f602082840312156125265761252561243c565b5b5f612533848285016124fd565b91505092915050565b5f61254682612440565b9050919050565b5f6125578261253c565b9050919050565b6125678161254d565b8114612571575f5ffd5b50565b5f813590506125828161255e565b92915050565b5f6020828403121561259d5761259c61243c565b5b5f6125aa84828501612574565b91505092915050565b5f6125bd8261245f565b9050919050565b6125cd816125b3565b81146125d7575f5ffd5b50565b5f813590506125e8816125c4565b92915050565b5f602082840312156126035761260261243c565b5b5f612610848285016125da565b91505092915050565b5f6126238261245f565b9050919050565b61263381612619565b811461263d575f5ffd5b50565b5f8135905061264e8161262a565b92915050565b5f602082840312156126695761266861243c565b5b5f61267684828501612640565b91505092915050565b6126888161245f565b82525050565b5f6020820190506126a15f83018461267f565b92915050565b5f6126b18261245f565b9050919050565b6126c1816126a7565b81146126cb575f5ffd5b50565b5f813590506126dc816126b8565b92915050565b5f602082840312156126f7576126f661243c565b5b5f612704848285016126ce565b91505092915050565b6127168161245f565b8114612720575f5ffd5b50565b5f813590506127318161270d565b92915050565b5f6020828403121561274c5761274b61243c565b5b5f61275984828501612723565b91505092915050565b5f60a0820190506127755f83018861267f565b612782602083018761267f565b61278f604083018661267f565b61279c606083018561267f565b6127a9608083018461267f565b9695505050505050565b5f819050919050565b5f6127d66127d16127cc84612440565b6127b3565b612440565b9050919050565b5f6127e7826127bc565b9050919050565b5f6127f8826127dd565b9050919050565b612808816127ee565b82525050565b5f6020820190506128215f8301846127ff565b92915050565b5f612831826127dd565b9050919050565b61284181612827565b82525050565b5f60208201905061285a5f830184612838565b92915050565b5f8115159050919050565b61287481612860565b811461287e575f5ffd5b50565b5f8151905061288f8161286b565b92915050565b5f602082840312156128aa576128a961243c565b5b5f6128b784828501612881565b91505092915050565b5f815190506128ce8161262a565b92915050565b5f602082840312156128e9576128e861243c565b5b5f6128f6848285016128c0565b91505092915050565b5f7fffffffff0000000000000000000000000000000000000000000000000000000082169050919050565b612933816128ff565b82525050565b61294281612860565b82525050565b5f60808201905061295b5f830187612414565b612968602083018661267f565b612975604083018561292a565b6129826060830184612939565b95945050505050565b5f60608201905061299e5f83018661267f565b6129ab6020830185612414565b6129b86040830184612939565b949350505050565b5f815190506129ce8161255e565b92915050565b5f602082840312156129e9576129e861243c565b5b5f6129f6848285016129c0565b91505092915050565b5f606082019050612a125f83018661267f565b612a1f602083018561292a565b612a2c6040830184612939565b949350505050565b5f612a3e8261245f565b9050919050565b612a4e81612a34565b8114612a58575f5ffd5b50565b5f81519050612a6981612a45565b92915050565b5f60208284031215612a8457612a8361243c565b5b5f612a9184828501612a5b565b91505092915050565b5f606082019050612aad5f83018661267f565b612aba602083018561267f565b612ac7604083018461292a565b949350505050565b5f82825260208201905092915050565b7f554e415554484f52495a454400000000000000000000000000000000000000005f82015250565b5f612b13600c83612acf565b9150612b1e82612adf565b602082019050919050565b5f6020820190508181035f830152612b4081612b07565b905091905056fea26469706673582212200c6fc7f0f0ef6adf232323c9f5ddc6b7e4ebdb77ab4dab22e60f0c4afa085e8164736f6c634300081e0033",
  "linkReferences": {},
  "deployedLinkReferences": {},
  "immutableReferences": {},
  "inputSourceName": "project/contracts/core/PrimeRegistry.sol",
  "buildInfoId": "solc-0_8_30-3a829844aa418378e61e279ddb57f9006f58923d"
}