{
  "_format": "hh3-artifact-1",
  "contractName": "FullDecoderAndSanitizer",
  "sourceName": "contracts/decodersAndSanitizers/FullDecoderAndSanitizer.sol",
  "abi": [
    {
      "inputs": [],
      "name": "BaseDecoderAndSanitizer__FunctionSelectorNotSupported",
      "type": "error"
    },
    {
      "inputs": [],
      "name": "FullDecoderAndSanitizer__FunctionSelectorNotSupported",
      "type": "error"
    },
    {
      "inputs": [],
      "name": "PrimeDecoderAndSanitizer__FunctionSelectorNotSupported",
      "type": "error"
    },
    {
      "stateMutability": "nonpayable",
      "type": "fallback"
    },
    {
      "inputs": [
        {
          "internalType": "address",
          "name": "spender",
          "type": "address"
        },
        {
          "internalType": "uint256",
          "name": "",
          "type": "uint256"
        }
      ],
      "name": "approve",
      "outputs": [
        {
          "internalType": "bytes",
          "name": "addressesFound",
          "type": "bytes"
        }
      ],
      "stateMutability": "pure",
      "type": "function"
    },
    {
      "inputs": [
        {
          "internalType": "address",
          "name": "feeAsset",
          "type": "address"
        }
      ],
      "name": "claimFees",
      "outputs": [
        {
          "internalType": "bytes",
          "name": "addressesFound",
          "type": "bytes"
        }
      ],
      "stateMutability": "pure",
      "type": "function"
    },
    {
      "inputs": [],
      "name": "claimFees",
      "outputs": [
        {
          "internalType": "bytes",
          "name": "addressesFound",
          "type": "bytes"
        }
      ],
      "stateMutability": "pure",
      "type": "function"
    },
    {
      "inputs": [
        {
          "internalType": "address",
          "name": "yieldAsset",
          "type": "address"
        }
      ],
      "name": "claimYield",
      "outputs": [
        {
          "internalType": "bytes",
          "name": "addressesFound",
          "type": "bytes"
        }
      ],
      "stateMutability": "pure",
      "type": "function"
    },
    {
      "inputs": [
        {
          "internalType": "address",
          "name": "asset",
          "type": "address"
        },
        {
          "internalType": "uint256",
          "name": "",
          "type": "uint256"
        }
      ],
      "name": "deposit",
      "outputs": [
        {
          "internalType": "bytes",
          "name": "addressesFound",
          "type": "bytes"
        }
      ],
      "stateMutability": "pure",
      "type": "function"
    },
    {
      "inputs": [
        {
          "internalType": "address",
          "name": "_to",
          "type": "address"
        },
        {
          "internalType": "uint256",
          "name": "",
          "type": "uint256"
        }
      ],
      "name": "transfer",
      "outputs": [
        {
          "internalType": "bytes",
          "name": "addressesFound",
          "type": "bytes"
        }
      ],
      "stateMutability": "pure",
      "type": "function"
    },
    {
      "inputs": [
        {
          "internalType": "address",
          "name": "asset",
          "type": "address"
        },
        {
          "internalType": "uint256",
          "name": "",
          "type": "uint256"
        },
        {
          "internalType": "address",
          "name": "to",
          "type": "address"
        }
      ],
      "name": "withdraw",
      "outputs": [
        {
          "internalType": "bytes",
          "name": "addressesFound",
          "type": "bytes"
        }
      ],
      "stateMutability": "pure",
      "type": "function"
    },
    {
      "inputs": [],
      "name": "withdrawNativeFromDrone",
      "outputs": [
        {
          "internalType": "bytes",
          "name": "addressesFound",
          "type": "bytes"
        }
      ],
      "stateMutability": "pure",
      "type": "function"
    },
    {
      "inputs": [
        {
          "internalType": "address",
          "name": "token",
          "type": "address"
        },
        {
          "internalType": "uint256",
          "name": "",
          "type": "uint256"
        }
      ],
      "name": "withdrawNonBoringToken",
      "outputs": [
        {
          "internalType": "bytes",
          "name": "addressesFound",
          "type": "bytes"
        }
      ],
      "stateMutability": "pure",
      "type": "function"
    }
  ],
  "bytecode": "0x6080604052348015600e575f5ffd5b5061061f8061001c5f395ff3fe608060405234801561000f575f5ffd5b5060043610610095575f3560e01c806369328dec1161006457806369328dec14610188578063999927df146101b8578063a9059cbb146101e8578063d294f09314610218578063da3ef9d21461023657610096565b8063095ea7b3146100c857806309f0e0c2146100f857806315a0ea6a1461012857806347e7ef241461015857610096565b5b6040517fcfbaa7ce00000000000000000000000000000000000000000000000000000000815260040160405180910390fd5b6100e260048036038101906100dd9190610416565b610254565b6040516100ef91906104c4565b60405180910390f35b610112600480360381019061010d9190610416565b61027e565b60405161011f91906104c4565b60405180910390f35b610142600480360381019061013d91906104e4565b6102a8565b60405161014f91906104c4565b60405180910390f35b610172600480360381019061016d9190610416565b6102d1565b60405161017f91906104c4565b60405180910390f35b6101a2600480360381019061019d919061050f565b6102fb565b6040516101af91906104c4565b60405180910390f35b6101d260048036038101906101cd91906104e4565b610328565b6040516101df91906104c4565b60405180910390f35b61020260048036038101906101fd9190610416565b610351565b60405161020f91906104c4565b60405180910390f35b61022061037b565b60405161022d91906104c4565b60405180910390f35b61023e610380565b60405161024b91906104c4565b60405180910390f35b60608260405160200161026791906105a4565b604051602081830303815290604052905092915050565b60608260405160200161029191906105a4565b604051602081830303815290604052905092915050565b6060816040516020016102bb91906105a4565b6040516020818303038152906040529050919050565b6060826040516020016102e491906105a4565b604051602081830303815290604052905092915050565b606083826040516020016103109291906105be565b60405160208183030381529060405290509392505050565b60608160405160200161033b91906105a4565b6040516020818303038152906040529050919050565b60608260405160200161036491906105a4565b604051602081830303815290604052905092915050565b606090565b606090565b5f5ffd5b5f73ffffffffffffffffffffffffffffffffffffffff82169050919050565b5f6103b282610389565b9050919050565b6103c2816103a8565b81146103cc575f5ffd5b50565b5f813590506103dd816103b9565b92915050565b5f819050919050565b6103f5816103e3565b81146103ff575f5ffd5b50565b5f81359050610410816103ec565b92915050565b5f5f6040838503121561042c5761042b610385565b5b5f610439858286016103cf565b925050602061044a85828601610402565b9150509250929050565b5f81519050919050565b5f82825260208201905092915050565b8281835e5f83830152505050565b5f601f19601f8301169050919050565b5f61049682610454565b6104a0818561045e565b93506104b081856020860161046e565b6104b98161047c565b840191505092915050565b5f6020820190508181035f8301526104dc818461048c565b905092915050565b5f602082840312156104f9576104f8610385565b5b5f610506848285016103cf565b91505092915050565b5f5f5f6060848603121561052657610525610385565b5b5f610533868287016103cf565b935050602061054486828701610402565b9250506040610555868287016103cf565b9150509250925092565b5f8160601b9050919050565b5f6105758261055f565b9050919050565b5f6105868261056b565b9050919050565b61059e610599826103a8565b61057c565b82525050565b5f6105af828461058d565b60148201915081905092915050565b5f6105c9828561058d565b6014820191506105d9828461058d565b601482019150819050939250505056fea2646970667358221220df360740750374e6e299a3283d1fe5cdf13b61a4e9e9055cf3de020a1355ff3d64736f6c634300081e0033",
  "linkReferences": {},
  "deployedLinkReferences": {},
  "immutableReferences": {},
  "inputSourceName": "project/contracts/decodersAndSanitizers/FullDecoderAndSanitizer.sol",
  "buildInfoId": "solc-0_8_30-3a829844aa418378e61e279ddb57f9006f58923d"
}