{
  "_format": "hh3-artifact-1",
  "contractName": "AccountantProviders",
  "sourceName": "contracts/core/AccountantProviders.sol",
  "abi": [
    {
      "inputs": [
        {
          "internalType": "address",
          "name": "_primeRBAC",
          "type": "address"
        },
        {
          "internalType": "address",
          "name": "_vault",
          "type": "address"
        },
        {
          "internalType": "address",
          "name": "_payoutAddress",
          "type": "address"
        },
        {
          "internalType": "uint16",
          "name": "platformFee",
          "type": "uint16"
        }
      ],
      "stateMutability": "nonpayable",
      "type": "constructor"
    },
    {
      "inputs": [],
      "name": "AccountantProviders__OnlyCallableByBoringVault",
      "type": "error"
    },
    {
      "inputs": [],
      "name": "AccountantProviders__Paused",
      "type": "error"
    },
    {
      "inputs": [],
      "name": "AccountantProviders__PlatformFeeTooLarge",
      "type": "error"
    },
    {
      "inputs": [],
      "name": "AccountantProviders__ZeroFeesOwed",
      "type": "error"
    },
    {
      "inputs": [],
      "name": "NOT_PROTOCOL_ADMIN",
      "type": "error"
    },
    {
      "inputs": [],
      "name": "ZERO_ADDRESS",
      "type": "error"
    },
    {
      "anonymous": false,
      "inputs": [
        {
          "indexed": true,
          "internalType": "address",
          "name": "user",
          "type": "address"
        },
        {
          "indexed": true,
          "internalType": "contract Authority",
          "name": "newAuthority",
          "type": "address"
        }
      ],
      "name": "AuthorityUpdated",
      "type": "event"
    },
    {
      "anonymous": false,
      "inputs": [
        {
          "indexed": false,
          "internalType": "uint96",
          "name": "oldRate",
          "type": "uint96"
        },
        {
          "indexed": false,
          "internalType": "uint96",
          "name": "newRate",
          "type": "uint96"
        },
        {
          "indexed": false,
          "internalType": "uint64",
          "name": "currentTime",
          "type": "uint64"
        }
      ],
      "name": "ExchangeRateUpdated",
      "type": "event"
    },
    {
      "anonymous": false,
      "inputs": [
        {
          "indexed": true,
          "internalType": "address",
          "name": "feeAsset",
          "type": "address"
        },
        {
          "indexed": false,
          "internalType": "uint256",
          "name": "amount",
          "type": "uint256"
        }
      ],
      "name": "FeesClaimed",
      "type": "event"
    },
    {
      "anonymous": false,
      "inputs": [
        {
          "indexed": true,
          "internalType": "address",
          "name": "user",
          "type": "address"
        },
        {
          "indexed": true,
          "internalType": "address",
          "name": "newOwner",
          "type": "address"
        }
      ],
      "name": "OwnershipTransferred",
      "type": "event"
    },
    {
      "anonymous": false,
      "inputs": [],
      "name": "Paused",
      "type": "event"
    },
    {
      "anonymous": false,
      "inputs": [
        {
          "indexed": false,
          "internalType": "address",
          "name": "oldPayout",
          "type": "address"
        },
        {
          "indexed": false,
          "internalType": "address",
          "name": "newPayout",
          "type": "address"
        }
      ],
      "name": "PayoutAddressUpdated",
      "type": "event"
    },
    {
      "anonymous": false,
      "inputs": [
        {
          "indexed": false,
          "internalType": "uint16",
          "name": "oldFee",
          "type": "uint16"
        },
        {
          "indexed": false,
          "internalType": "uint16",
          "name": "newFee",
          "type": "uint16"
        }
      ],
      "name": "PlatformFeeUpdated",
      "type": "event"
    },
    {
      "anonymous": false,
      "inputs": [],
      "name": "Unpaused",
      "type": "event"
    },
    {
      "inputs": [],
      "name": "accountantState",
      "outputs": [
        {
          "internalType": "address",
          "name": "payoutAddress",
          "type": "address"
        },
        {
          "internalType": "uint128",
          "name": "feesOwedInBase",
          "type": "uint128"
        },
        {
          "internalType": "uint128",
          "name": "totalSharesLastUpdate",
          "type": "uint128"
        },
        {
          "internalType": "uint96",
          "name": "exchangeRate",
          "type": "uint96"
        },
        {
          "internalType": "uint64",
          "name": "lastUpdateTimestamp",
          "type": "uint64"
        },
        {
          "internalType": "uint16",
          "name": "platformFee",
          "type": "uint16"
        }
      ],
      "stateMutability": "view",
      "type": "function"
    },
    {
      "inputs": [],
      "name": "authority",
      "outputs": [
        {
          "internalType": "contract Authority",
          "name": "",
          "type": "address"
        }
      ],
      "stateMutability": "view",
      "type": "function"
    },
    {
      "inputs": [],
      "name": "base",
      "outputs": [
        {
          "internalType": "contract ERC20",
          "name": "",
          "type": "address"
        }
      ],
      "stateMutability": "view",
      "type": "function"
    },
    {
      "inputs": [],
      "name": "claimFees",
      "outputs": [],
      "stateMutability": "nonpayable",
      "type": "function"
    },
    {
      "inputs": [],
      "name": "decimals",
      "outputs": [
        {
          "internalType": "uint8",
          "name": "",
          "type": "uint8"
        }
      ],
      "stateMutability": "view",
      "type": "function"
    },
    {
      "inputs": [],
      "name": "getAccountantState",
      "outputs": [
        {
          "components": [
            {
              "internalType": "address",
              "name": "payoutAddress",
              "type": "address"
            },
            {
              "internalType": "uint128",
              "name": "feesOwedInBase",
              "type": "uint128"
            },
            {
              "internalType": "uint128",
              "name": "totalSharesLastUpdate",
              "type": "uint128"
            },
            {
              "internalType": "uint96",
              "name": "exchangeRate",
              "type": "uint96"
            },
            {
              "internalType": "uint64",
              "name": "lastUpdateTimestamp",
              "type": "uint64"
            },
            {
              "internalType": "uint16",
              "name": "platformFee",
              "type": "uint16"
            }
          ],
          "internalType": "struct AccountantProviders.AccountantState",
          "name": "",
          "type": "tuple"
        }
      ],
      "stateMutability": "view",
      "type": "function"
    },
    {
      "inputs": [],
      "name": "getRate",
      "outputs": [
        {
          "internalType": "uint256",
          "name": "rate",
          "type": "uint256"
        }
      ],
      "stateMutability": "view",
      "type": "function"
    },
    {
      "inputs": [],
      "name": "getRateSafe",
      "outputs": [
        {
          "internalType": "uint256",
          "name": "rate",
          "type": "uint256"
        }
      ],
      "stateMutability": "view",
      "type": "function"
    },
    {
      "inputs": [],
      "name": "isPaused",
      "outputs": [
        {
          "internalType": "bool",
          "name": "",
          "type": "bool"
        }
      ],
      "stateMutability": "view",
      "type": "function"
    },
    {
      "inputs": [],
      "name": "owner",
      "outputs": [
        {
          "internalType": "address",
          "name": "",
          "type": "address"
        }
      ],
      "stateMutability": "view",
      "type": "function"
    },
    {
      "inputs": [],
      "name": "pause",
      "outputs": [],
      "stateMutability": "nonpayable",
      "type": "function"
    },
    {
      "inputs": [],
      "name": "primeRBAC",
      "outputs": [
        {
          "internalType": "contract IPrimeRBAC",
          "name": "",
          "type": "address"
        }
      ],
      "stateMutability": "view",
      "type": "function"
    },
    {
      "inputs": [
        {
          "internalType": "contract Authority",
          "name": "newAuthority",
          "type": "address"
        }
      ],
      "name": "setAuthority",
      "outputs": [],
      "stateMutability": "nonpayable",
      "type": "function"
    },
    {
      "inputs": [
        {
          "internalType": "address",
          "name": "newOwner",
          "type": "address"
        }
      ],
      "name": "transferOwnership",
      "outputs": [],
      "stateMutability": "nonpayable",
      "type": "function"
    },
    {
      "inputs": [],
      "name": "unpause",
      "outputs": [],
      "stateMutability": "nonpayable",
      "type": "function"
    },
    {
      "inputs": [],
      "name": "updateExchangeRate",
      "outputs": [],
      "stateMutability": "nonpayable",
      "type": "function"
    },
    {
      "inputs": [
        {
          "internalType": "address",
          "name": "payoutAddress",
          "type": "address"
        }
      ],
      "name": "updatePayoutAddress",
      "outputs": [],
      "stateMutability": "nonpayable",
      "type": "function"
    },
    {
      "inputs": [
        {
          "internalType": "uint16",
          "name": "platformFee",
          "type": "uint16"
        }
      ],
      "name": "updatePlatformFee",
      "outputs": [],
      "stateMutability": "nonpayable",
      "type": "function"
    },
    {
      "inputs": [],
      "name": "vault",
      "outputs": [
        {
          "internalType": "contract BoringVault",
          "name": "",
          "type": "address"
        }
      ],
      "stateMutability": "view",
      "type": "function"
    }
  ],
  "bytecode": "0x610100604052348015610010575f5ffd5b50604051612d68380380612d6883398181016040528101906100329190610774565b838373ffffffffffffffffffffffffffffffffffffffff1663bf7e214f6040518163ffffffff1660e01b8152600401602060405180830381865afa15801561007c573d5f5f3e3d5ffd5b505050506040513d601f19601f820116820180604052508101906100a09190610813565b3381815f5f6101000a81548173ffffffffffffffffffffffffffffffffffffffff021916908373ffffffffffffffffffffffffffffffffffffffff1602179055508060015f6101000a81548173ffffffffffffffffffffffffffffffffffffffff021916908373ffffffffffffffffffffffffffffffffffffffff1602179055508173ffffffffffffffffffffffffffffffffffffffff163373ffffffffffffffffffffffffffffffffffffffff167f8be0079c531659141344cd1fd0a4f28419497f9722a3daafe3b4186f6b6457e060405160405180910390a38073ffffffffffffffffffffffffffffffffffffffff163373ffffffffffffffffffffffffffffffffffffffff167fa3396fd7f6e0a21b50e5089d2da70d5ac0a3bbbd1f617a93f134b7638998019860405160405180910390a350505f73ffffffffffffffffffffffffffffffffffffffff168273ffffffffffffffffffffffffffffffffffffffff16148061023c57505f73ffffffffffffffffffffffffffffffffffffffff168173ffffffffffffffffffffffffffffffffffffffff16145b15610273576040517f538ba4f900000000000000000000000000000000000000000000000000000000815260040160405180910390fd5b8160025f6101000a81548173ffffffffffffffffffffffffffffffffffffffff021916908373ffffffffffffffffffffffffffffffffffffffff16021790555050508273ffffffffffffffffffffffffffffffffffffffff1660c08173ffffffffffffffffffffffffffffffffffffffff168152505060c05173ffffffffffffffffffffffffffffffffffffffff166338d52e0f6040518163ffffffff1660e01b8152600401602060405180830381865afa158015610334573d5f5f3e3d5ffd5b505050506040513d601f19601f820116820180604052508101906103589190610879565b73ffffffffffffffffffffffffffffffffffffffff1660808173ffffffffffffffffffffffffffffffffffffffff168152505060805173ffffffffffffffffffffffffffffffffffffffff1663313ce5676040518163ffffffff1660e01b8152600401602060405180830381865afa1580156103d6573d5f5f3e3d5ffd5b505050506040513d601f19601f820116820180604052508101906103fa91906108da565b60ff1660a08160ff168152505060c05173ffffffffffffffffffffffffffffffffffffffff1663313ce5676040518163ffffffff1660e01b8152600401602060405180830381865afa158015610452573d5f5f3e3d5ffd5b505050506040513d601f19601f8201168201806040525081019061047691906108da565b600a6104829190610a6a565b60e081815250506040518060c001604052808373ffffffffffffffffffffffffffffffffffffffff1681526020015f6fffffffffffffffffffffffffffffffff16815260200160c05173ffffffffffffffffffffffffffffffffffffffff166318160ddd6040518163ffffffff1660e01b8152600401602060405180830381865afa158015610513573d5f5f3e3d5ffd5b505050506040513d601f19601f820116820180604052508101906105379190610ade565b6fffffffffffffffffffffffffffffffff16815260200160a051600a61055d9190610a6a565b6bffffffffffffffffffffffff1681526020014267ffffffffffffffff1681526020018261ffff1681525060035f820151815f015f6101000a81548173ffffffffffffffffffffffffffffffffffffffff021916908373ffffffffffffffffffffffffffffffffffffffff1602179055506020820151816001015f6101000a8154816fffffffffffffffffffffffffffffffff02191690836fffffffffffffffffffffffffffffffff16021790555060408201518160010160106101000a8154816fffffffffffffffffffffffffffffffff02191690836fffffffffffffffffffffffffffffffff1602179055506060820151816002015f6101000a8154816bffffffffffffffffffffffff02191690836bffffffffffffffffffffffff160217905550608082015181600201600c6101000a81548167ffffffffffffffff021916908367ffffffffffffffff16021790555060a08201518160020160146101000a81548161ffff021916908361ffff16021790555090505050505050610b09565b5f5ffd5b5f73ffffffffffffffffffffffffffffffffffffffff82169050919050565b5f61070c826106e3565b9050919050565b61071c81610702565b8114610726575f5ffd5b50565b5f8151905061073781610713565b92915050565b5f61ffff82169050919050565b6107538161073d565b811461075d575f5ffd5b50565b5f8151905061076e8161074a565b92915050565b5f5f5f5f6080858703121561078c5761078b6106df565b5b5f61079987828801610729565b94505060206107aa87828801610729565b93505060406107bb87828801610729565b92505060606107cc87828801610760565b91505092959194509250565b5f6107e282610702565b9050919050565b6107f2816107d8565b81146107fc575f5ffd5b50565b5f8151905061080d816107e9565b92915050565b5f60208284031215610828576108276106df565b5b5f610835848285016107ff565b91505092915050565b5f61084882610702565b9050919050565b6108588161083e565b8114610862575f5ffd5b50565b5f815190506108738161084f565b92915050565b5f6020828403121561088e5761088d6106df565b5b5f61089b84828501610865565b91505092915050565b5f60ff82169050919050565b6108b9816108a4565b81146108c3575f5ffd5b50565b5f815190506108d4816108b0565b92915050565b5f602082840312156108ef576108ee6106df565b5b5f6108fc848285016108c6565b91505092915050565b7f4e487b71000000000000000000000000000000000000000000000000000000005f52601160045260245ffd5b5f8160011c9050919050565b5f5f8291508390505b60018511156109875780860481111561096357610962610905565b5b60018516156109725780820291505b808102905061098085610932565b9450610947565b94509492505050565b5f8261099f5760019050610a5a565b816109ac575f9050610a5a565b81600181146109c257600281146109cc576109fb565b6001915050610a5a565b60ff8411156109de576109dd610905565b5b8360020a9150848211156109f5576109f4610905565b5b50610a5a565b5060208310610133831016604e8410600b8410161715610a305782820a905083811115610a2b57610a2a610905565b5b610a5a565b610a3d848484600161093e565b92509050818404811115610a5457610a53610905565b5b81810290505b9392505050565b5f819050919050565b5f610a7482610a61565b9150610a7f836108a4565b9250610aac7fffffffffffffffffffffffffffffffffffffffffffffffffffffffffffffffff8484610990565b905092915050565b610abd81610a61565b8114610ac7575f5ffd5b50565b5f81519050610ad881610ab4565b92915050565b5f60208284031215610af357610af26106df565b5b5f610b0084828501610aca565b91505092915050565b60805160a05160c05160e051612202610b665f395f818161055f01528181610614015261176001525f81816103e80152818161119101526115a401525f61079201525f8181610b15015281816113be015261140501526122025ff3fe608060405234801561000f575f5ffd5b506004361061011f575f3560e01c80637a9e5e4b116100ab578063bf7e214f1161006f578063bf7e214f1461028a578063d294f093146102a8578063e37d7e68146102b2578063f2fde38b146102d0578063fbfa77cf146102ec5761011f565b80637a9e5e4b1461020c5780638456cb59146102285780638da5cb5b14610232578063afb0695214610250578063b187bd261461026c5761011f565b806342a20b76116100f257806342a20b7614610173578063433255de146101915780635001f3b5146101b457806356200819146101d2578063679aefce146101ee5761011f565b806302ce728f14610123578063282a87001461012d578063313ce5671461014b5780633f4ba83a14610169575b5f5ffd5b61012b61030a565b005b61013561073b565b604051610142919061198c565b60405180910390f35b610153610790565b60405161016091906119c0565b60405180910390f35b6101716107b4565b005b61017b6108cb565b6040516101889190611b1f565b60405180910390f35b610199610a5b565b6040516101ab96959493929190611b83565b60405180910390f35b6101bc610b13565b6040516101c99190611c3d565b60405180910390f35b6101ec60048036038101906101e79190611c84565b610b37565b005b6101f6610cac565b604051610203919061198c565b60405180910390f35b61022660048036038101906102219190611cea565b610cdd565b005b610230610e98565b005b61023a610fb0565b6040516102479190611d15565b60405180910390f35b61026a60048036038101906102659190611d58565b610fd4565b005b610274611157565b6040516102819190611d9d565b60405180910390f35b61029261116a565b60405161029f9190611dd6565b60405180910390f35b6102b061118f565b005b6102ba611475565b6040516102c79190611e0f565b60405180910390f35b6102ea60048036038101906102e59190611c84565b61149a565b005b6102f46115a2565b6040516103019190611e59565b60405180910390f35b610337335f357fffffffff00000000000000000000000000000000000000000000000000000000166115c6565b610376576040517f08c379a000000000000000000000000000000000000000000000000000000000815260040161036d90611ecc565b60405180910390fd5b5f60039050600260149054906101000a900460ff16156103c2576040517f7a0a59a500000000000000000000000000000000000000000000000000000000815260040160405180910390fd5b5f4290505f826002015f9054906101000a90046bffffffffffffffffffffffff1690505f7f000000000000000000000000000000000000000000000000000000000000000073ffffffffffffffffffffffffffffffffffffffff166318160ddd6040518163ffffffff1660e01b8152600401602060405180830381865afa15801561044f573d5f5f3e3d5ffd5b505050506040513d601f19601f820116820180604052508101906104739190611f14565b90505f6104dc8560010160109054906101000a90046fffffffffffffffffffffffffffffffff1686600201600c9054906101000a900467ffffffffffffffff168760020160149054906101000a900461ffff16866bffffffffffffffffffffffff1686896116ff565b905080856001015f8282829054906101000a90046fffffffffffffffffffffffffffffffff1661050c9190611f6c565b92506101000a8154816fffffffffffffffffffffffffffffffff02191690836fffffffffffffffffffffffffffffffff1602179055505f821115610678575f61058e846bffffffffffffffffffffffff167f0000000000000000000000000000000000000000000000000000000000000000856117d99092919063ffffffff16565b90505f866001015f9054906101000a90046fffffffffffffffffffffffffffffffff166fffffffffffffffffffffffffffffffff1682116105cf575f61060d565b866001015f9054906101000a90046fffffffffffffffffffffffffffffffff166fffffffffffffffffffffffffffffffff168261060c9190611faf565b5b90506106447f000000000000000000000000000000000000000000000000000000000000000085836117d99092919063ffffffff16565b876002015f6101000a8154816bffffffffffffffffffffffff02191690836bffffffffffffffffffffffff16021790555050505b8385600201600c6101000a81548167ffffffffffffffff021916908367ffffffffffffffff160217905550818560010160106101000a8154816fffffffffffffffffffffffffffffffff02191690836fffffffffffffffffffffffffffffffff1602179055507fa95bc6aba40bbc4d95fc35f118c4cd8b53fc5d5b89ed264002af03503a7a943983866002015f9054906101000a90046bffffffffffffffffffffffff168660405161072c93929190611fe2565b60405180910390a15050505050565b5f600260149054906101000a900460ff1615610783576040517f7a0a59a500000000000000000000000000000000000000000000000000000000815260040160405180910390fd5b61078b610cac565b905090565b7f000000000000000000000000000000000000000000000000000000000000000081565b60025f9054906101000a900473ffffffffffffffffffffffffffffffffffffffff1673ffffffffffffffffffffffffffffffffffffffff1663d35911f2336040518263ffffffff1660e01b815260040161080e9190611d15565b602060405180830381865afa158015610829573d5f5f3e3d5ffd5b505050506040513d601f19601f8201168201806040525081019061084d9190612041565b610883576040517fdc85555400000000000000000000000000000000000000000000000000000000815260040160405180910390fd5b5f600260146101000a81548160ff0219169083151502179055507fa45f47fdea8a1efdd9029a5691c7f759c32b7c698632b563573e155625d1693360405160405180910390a1565b6108d36118ee565b60036040518060c00160405290815f82015f9054906101000a900473ffffffffffffffffffffffffffffffffffffffff1673ffffffffffffffffffffffffffffffffffffffff1673ffffffffffffffffffffffffffffffffffffffff168152602001600182015f9054906101000a90046fffffffffffffffffffffffffffffffff166fffffffffffffffffffffffffffffffff166fffffffffffffffffffffffffffffffff1681526020016001820160109054906101000a90046fffffffffffffffffffffffffffffffff166fffffffffffffffffffffffffffffffff166fffffffffffffffffffffffffffffffff168152602001600282015f9054906101000a90046bffffffffffffffffffffffff166bffffffffffffffffffffffff166bffffffffffffffffffffffff16815260200160028201600c9054906101000a900467ffffffffffffffff1667ffffffffffffffff1667ffffffffffffffff1681526020016002820160149054906101000a900461ffff1661ffff1661ffff1681525050905090565b6003805f015f9054906101000a900473ffffffffffffffffffffffffffffffffffffffff1690806001015f9054906101000a90046fffffffffffffffffffffffffffffffff16908060010160109054906101000a90046fffffffffffffffffffffffffffffffff1690806002015f9054906101000a90046bffffffffffffffffffffffff169080600201600c9054906101000a900467ffffffffffffffff16908060020160149054906101000a900461ffff16905086565b7f000000000000000000000000000000000000000000000000000000000000000081565b60025f9054906101000a900473ffffffffffffffffffffffffffffffffffffffff1673ffffffffffffffffffffffffffffffffffffffff1663d35911f2336040518263ffffffff1660e01b8152600401610b919190611d15565b602060405180830381865afa158015610bac573d5f5f3e3d5ffd5b505050506040513d601f19601f82011682018060405250810190610bd09190612041565b610c06576040517fdc85555400000000000000000000000000000000000000000000000000000000815260040160405180910390fd5b5f60035f015f9054906101000a900473ffffffffffffffffffffffffffffffffffffffff1690508160035f015f6101000a81548173ffffffffffffffffffffffffffffffffffffffff021916908373ffffffffffffffffffffffffffffffffffffffff1602179055507fba2be5e898fed1646bc0814dee1cc9a2aee98f51fced7d5fc4699c47d99077538183604051610ca092919061206c565b60405180910390a15050565b5f60036002015f9054906101000a90046bffffffffffffffffffffffff166bffffffffffffffffffffffff16905090565b5f5f9054906101000a900473ffffffffffffffffffffffffffffffffffffffff1673ffffffffffffffffffffffffffffffffffffffff163373ffffffffffffffffffffffffffffffffffffffff161480610df3575060015f9054906101000a900473ffffffffffffffffffffffffffffffffffffffff1673ffffffffffffffffffffffffffffffffffffffff1663b700961333305f357fffffffff00000000000000000000000000000000000000000000000000000000166040518463ffffffff1660e01b8152600401610db3939291906120cd565b602060405180830381865afa158015610dce573d5f5f3e3d5ffd5b505050506040513d601f19601f82011682018060405250810190610df29190612041565b5b610dfb575f5ffd5b8060015f6101000a81548173ffffffffffffffffffffffffffffffffffffffff021916908373ffffffffffffffffffffffffffffffffffffffff1602179055508073ffffffffffffffffffffffffffffffffffffffff163373ffffffffffffffffffffffffffffffffffffffff167fa3396fd7f6e0a21b50e5089d2da70d5ac0a3bbbd1f617a93f134b7638998019860405160405180910390a350565b60025f9054906101000a900473ffffffffffffffffffffffffffffffffffffffff1673ffffffffffffffffffffffffffffffffffffffff1663d35911f2336040518263ffffffff1660e01b8152600401610ef29190611d15565b602060405180830381865afa158015610f0d573d5f5f3e3d5ffd5b505050506040513d601f19601f82011682018060405250810190610f319190612041565b610f67576040517fdc85555400000000000000000000000000000000000000000000000000000000815260040160405180910390fd5b6001600260146101000a81548160ff0219169083151502179055507f9e87fac88ff661f02d44f95383c817fece4bce600a3dab7a54406878b965e75260405160405180910390a1565b5f5f9054906101000a900473ffffffffffffffffffffffffffffffffffffffff1681565b60025f9054906101000a900473ffffffffffffffffffffffffffffffffffffffff1673ffffffffffffffffffffffffffffffffffffffff1663d35911f2336040518263ffffffff1660e01b815260040161102e9190611d15565b602060405180830381865afa158015611049573d5f5f3e3d5ffd5b505050506040513d601f19601f8201168201806040525081019061106d9190612041565b6110a3576040517fdc85555400000000000000000000000000000000000000000000000000000000815260040160405180910390fd5b6107d08161ffff1611156110e3576040517f21af90b700000000000000000000000000000000000000000000000000000000815260040160405180910390fd5b5f600360020160149054906101000a900461ffff16905081600360020160146101000a81548161ffff021916908361ffff1602179055507f84e4fe32bf74c4011a7e1fde79c63acdffaf92a0112cde153e7b0abee665bc6b818360405161114b929190612102565b60405180910390a15050565b600260149054906101000a900460ff1681565b60015f9054906101000a900473ffffffffffffffffffffffffffffffffffffffff1681565b7f000000000000000000000000000000000000000000000000000000000000000073ffffffffffffffffffffffffffffffffffffffff163373ffffffffffffffffffffffffffffffffffffffff1614611214576040517fdfdf4cff00000000000000000000000000000000000000000000000000000000815260040160405180910390fd5b5f60039050600260149054906101000a900460ff1615611260576040517f7a0a59a500000000000000000000000000000000000000000000000000000000815260040160405180910390fd5b3073ffffffffffffffffffffffffffffffffffffffff166302ce728f6040518163ffffffff1660e01b81526004015f604051808303815f87803b1580156112a5575f5ffd5b505af11580156112b7573d5f5f3e3d5ffd5b505050505f816001015f9054906101000a90046fffffffffffffffffffffffffffffffff166fffffffffffffffffffffffffffffffff1603611325576040517fb356a8c700000000000000000000000000000000000000000000000000000000815260040160405180910390fd5b5f816001015f9054906101000a90046fffffffffffffffffffffffffffffffff166fffffffffffffffffffffffffffffffff1690505f826001015f6101000a8154816fffffffffffffffffffffffffffffffff02191690836fffffffffffffffffffffffffffffffff16021790555061140333835f015f9054906101000a900473ffffffffffffffffffffffffffffffffffffffff16837f000000000000000000000000000000000000000000000000000000000000000073ffffffffffffffffffffffffffffffffffffffff1661181a909392919063ffffffff16565b7f000000000000000000000000000000000000000000000000000000000000000073ffffffffffffffffffffffffffffffffffffffff167f9493e5bbe4e8e0ac67284469a2d677403d0378a85a59e341d3abc433d0d9a20982604051611469919061198c565b60405180910390a25050565b60025f9054906101000a900473ffffffffffffffffffffffffffffffffffffffff1681565b6114c7335f357fffffffff00000000000000000000000000000000000000000000000000000000166115c6565b611506576040517f08c379a00000000000000000000000000000000000000000000000000000000081526004016114fd90611ecc565b60405180910390fd5b805f5f6101000a81548173ffffffffffffffffffffffffffffffffffffffff021916908373ffffffffffffffffffffffffffffffffffffffff1602179055508073ffffffffffffffffffffffffffffffffffffffff163373ffffffffffffffffffffffffffffffffffffffff167f8be0079c531659141344cd1fd0a4f28419497f9722a3daafe3b4186f6b6457e060405160405180910390a350565b7f000000000000000000000000000000000000000000000000000000000000000081565b5f5f60015f9054906101000a900473ffffffffffffffffffffffffffffffffffffffff1690505f73ffffffffffffffffffffffffffffffffffffffff168173ffffffffffffffffffffffffffffffffffffffff16141580156116a057508073ffffffffffffffffffffffffffffffffffffffff1663b70096138530866040518463ffffffff1660e01b8152600401611660939291906120cd565b602060405180830381865afa15801561167b573d5f5f3e3d5ffd5b505050506040513d601f19601f8201168201806040525081019061169f9190612041565b5b806116f657505f5f9054906101000a900473ffffffffffffffffffffffffffffffffffffffff1673ffffffffffffffffffffffffffffffffffffffff168473ffffffffffffffffffffffffffffffffffffffff16145b91505092915050565b5f5f83905080886fffffffffffffffffffffffffffffffff16111561173457876fffffffffffffffffffffffffffffffff1690505b5f8661ffff1611156117ce575f878461174d9190612129565b67ffffffffffffffff1690505f61178f877f0000000000000000000000000000000000000000000000000000000000000000856117d99092919063ffffffff16565b90505f6117ad8961ffff16612710846117d99092919063ffffffff16565b90506117c8836301e13380836117d99092919063ffffffff16565b94505050505b509695505050505050565b5f827fffffffffffffffffffffffffffffffffffffffffffffffffffffffffffffffff048411830215820261180c575f5ffd5b818385020490509392505050565b5f6040517f23b872dd00000000000000000000000000000000000000000000000000000000815273ffffffffffffffffffffffffffffffffffffffff8516600482015273ffffffffffffffffffffffffffffffffffffffff8416602482015282604482015260205f6064835f8a5af1915081601f3d1160015f5114161516156118a6573d863b15171591505b50806118e7576040517f08c379a00000000000000000000000000000000000000000000000000000000081526004016118de906121ae565b60405180910390fd5b5050505050565b6040518060c001604052805f73ffffffffffffffffffffffffffffffffffffffff1681526020015f6fffffffffffffffffffffffffffffffff1681526020015f6fffffffffffffffffffffffffffffffff1681526020015f6bffffffffffffffffffffffff1681526020015f67ffffffffffffffff1681526020015f61ffff1681525090565b5f819050919050565b61198681611974565b82525050565b5f60208201905061199f5f83018461197d565b92915050565b5f60ff82169050919050565b6119ba816119a5565b82525050565b5f6020820190506119d35f8301846119b1565b92915050565b5f73ffffffffffffffffffffffffffffffffffffffff82169050919050565b5f611a02826119d9565b9050919050565b611a12816119f8565b82525050565b5f6fffffffffffffffffffffffffffffffff82169050919050565b611a3c81611a18565b82525050565b5f6bffffffffffffffffffffffff82169050919050565b611a6281611a42565b82525050565b5f67ffffffffffffffff82169050919050565b611a8481611a68565b82525050565b5f61ffff82169050919050565b611aa081611a8a565b82525050565b60c082015f820151611aba5f850182611a09565b506020820151611acd6020850182611a33565b506040820151611ae06040850182611a33565b506060820151611af36060850182611a59565b506080820151611b066080850182611a7b565b5060a0820151611b1960a0850182611a97565b50505050565b5f60c082019050611b325f830184611aa6565b92915050565b611b41816119f8565b82525050565b611b5081611a18565b82525050565b611b5f81611a42565b82525050565b611b6e81611a68565b82525050565b611b7d81611a8a565b82525050565b5f60c082019050611b965f830189611b38565b611ba36020830188611b47565b611bb06040830187611b47565b611bbd6060830186611b56565b611bca6080830185611b65565b611bd760a0830184611b74565b979650505050505050565b5f819050919050565b5f611c05611c00611bfb846119d9565b611be2565b6119d9565b9050919050565b5f611c1682611beb565b9050919050565b5f611c2782611c0c565b9050919050565b611c3781611c1d565b82525050565b5f602082019050611c505f830184611c2e565b92915050565b5f5ffd5b611c63816119f8565b8114611c6d575f5ffd5b50565b5f81359050611c7e81611c5a565b92915050565b5f60208284031215611c9957611c98611c56565b5b5f611ca684828501611c70565b91505092915050565b5f611cb9826119f8565b9050919050565b611cc981611caf565b8114611cd3575f5ffd5b50565b5f81359050611ce481611cc0565b92915050565b5f60208284031215611cff57611cfe611c56565b5b5f611d0c84828501611cd6565b91505092915050565b5f602082019050611d285f830184611b38565b92915050565b611d3781611a8a565b8114611d41575f5ffd5b50565b5f81359050611d5281611d2e565b92915050565b5f60208284031215611d6d57611d6c611c56565b5b5f611d7a84828501611d44565b91505092915050565b5f8115159050919050565b611d9781611d83565b82525050565b5f602082019050611db05f830184611d8e565b92915050565b5f611dc082611c0c565b9050919050565b611dd081611db6565b82525050565b5f602082019050611de95f830184611dc7565b92915050565b5f611df982611c0c565b9050919050565b611e0981611def565b82525050565b5f602082019050611e225f830184611e00565b92915050565b5f611e3282611beb565b9050919050565b5f611e4382611e28565b9050919050565b611e5381611e39565b82525050565b5f602082019050611e6c5f830184611e4a565b92915050565b5f82825260208201905092915050565b7f554e415554484f52495a454400000000000000000000000000000000000000005f82015250565b5f611eb6600c83611e72565b9150611ec182611e82565b602082019050919050565b5f6020820190508181035f830152611ee381611eaa565b9050919050565b611ef381611974565b8114611efd575f5ffd5b50565b5f81519050611f0e81611eea565b92915050565b5f60208284031215611f2957611f28611c56565b5b5f611f3684828501611f00565b91505092915050565b7f4e487b71000000000000000000000000000000000000000000000000000000005f52601160045260245ffd5b5f611f7682611a18565b9150611f8183611a18565b925082820190506fffffffffffffffffffffffffffffffff811115611fa957611fa8611f3f565b5b92915050565b5f611fb982611974565b9150611fc483611974565b9250828203905081811115611fdc57611fdb611f3f565b5b92915050565b5f606082019050611ff55f830186611b56565b6120026020830185611b56565b61200f6040830184611b65565b949350505050565b61202081611d83565b811461202a575f5ffd5b50565b5f8151905061203b81612017565b92915050565b5f6020828403121561205657612055611c56565b5b5f6120638482850161202d565b91505092915050565b5f60408201905061207f5f830185611b38565b61208c6020830184611b38565b9392505050565b5f7fffffffff0000000000000000000000000000000000000000000000000000000082169050919050565b6120c781612093565b82525050565b5f6060820190506120e05f830186611b38565b6120ed6020830185611b38565b6120fa60408301846120be565b949350505050565b5f6040820190506121155f830185611b74565b6121226020830184611b74565b9392505050565b5f61213382611a68565b915061213e83611a68565b9250828203905067ffffffffffffffff81111561215e5761215d611f3f565b5b92915050565b7f5452414e534645525f46524f4d5f4641494c45440000000000000000000000005f82015250565b5f612198601483611e72565b91506121a382612164565b602082019050919050565b5f6020820190508181035f8301526121c58161218c565b905091905056fea264697066735822122037bd166cd89ea3c7a571aa7146ea8f0160828d6a9140343b6541b54f6d7d40dd64736f6c634300081e0033",
  "linkReferences": {},
  "deployedLinkReferences": {},
  "immutableReferences": {
    "8508": [
      {
        "length": 32,
        "start": 2837
      },
      {
        "length": 32,
        "start": 5054
      },
      {
        "length": 32,
        "start": 5125
      }
    ],
    "8511": [
      {
        "length": 32,
        "start": 1938
      }
    ],
    "8515": [
      {
        "length": 32,
        "start": 1000
      },
      {
        "length": 32,
        "start": 4497
      },
      {
        "length": 32,
        "start": 5540
      }
    ],
    "8518": [
      {
        "length": 32,
        "start": 1375
      },
      {
        "length": 32,
        "start": 1556
      },
      {
        "length": 32,
        "start": 5984
      }
    ]
  },
  "inputSourceName": "project/contracts/core/AccountantProviders.sol",
  "buildInfoId": "solc-0_8_30-e7ac28edc80ee071fd8bf3e691f238b4916e4080"
}