{
  "_format": "hh3-artifact-1",
  "contractName": "Distributor",
  "sourceName": "contracts/core/Distributor.sol",
  "abi": [
    {
      "inputs": [
        {
          "internalType": "address",
          "name": "_primeRBAC",
          "type": "address"
        },
        {
          "internalType": "address",
          "name": "_teller",
          "type": "address"
        }
      ],
      "stateMutability": "nonpayable",
      "type": "constructor"
    },
    {
      "inputs": [],
      "name": "Distributor__AlreadyAdded",
      "type": "error"
    },
    {
      "inputs": [],
      "name": "Distributor__CannotWithdrawRewardToken",
      "type": "error"
    },
    {
      "inputs": [],
      "name": "Distributor__CompoundFeeExceedsMaximum",
      "type": "error"
    },
    {
      "inputs": [],
      "name": "Distributor__NotAuthorized",
      "type": "error"
    },
    {
      "inputs": [],
      "name": "Distributor__Paused",
      "type": "error"
    },
    {
      "inputs": [],
      "name": "Distributor__RewardPeriodActive",
      "type": "error"
    },
    {
      "inputs": [],
      "name": "Distributor__ThirdPartyCompoundNotAllowed",
      "type": "error"
    },
    {
      "inputs": [],
      "name": "Distributor__ZeroDuration",
      "type": "error"
    },
    {
      "inputs": [],
      "name": "NOT_OPERATOR",
      "type": "error"
    },
    {
      "inputs": [],
      "name": "NOT_PROTOCOL_ADMIN",
      "type": "error"
    },
    {
      "inputs": [],
      "name": "ZERO_ADDRESS",
      "type": "error"
    },
    {
      "anonymous": false,
      "inputs": [
        {
          "indexed": true,
          "internalType": "address",
          "name": "user",
          "type": "address"
        },
        {
          "indexed": true,
          "internalType": "contract Authority",
          "name": "newAuthority",
          "type": "address"
        }
      ],
      "name": "AuthorityUpdated",
      "type": "event"
    },
    {
      "anonymous": false,
      "inputs": [
        {
          "indexed": false,
          "internalType": "uint256",
          "name": "newFee",
          "type": "uint256"
        }
      ],
      "name": "CompoundFeeUpdated",
      "type": "event"
    },
    {
      "anonymous": false,
      "inputs": [
        {
          "indexed": true,
          "internalType": "address",
          "name": "account",
          "type": "address"
        },
        {
          "indexed": true,
          "internalType": "address",
          "name": "rewardToken",
          "type": "address"
        },
        {
          "indexed": false,
          "internalType": "uint256",
          "name": "rewardAmount",
          "type": "uint256"
        },
        {
          "indexed": false,
          "internalType": "uint256",
          "name": "shares",
          "type": "uint256"
        },
        {
          "indexed": false,
          "internalType": "uint256",
          "name": "fee",
          "type": "uint256"
        }
      ],
      "name": "CompoundReward",
      "type": "event"
    },
    {
      "anonymous": false,
      "inputs": [
        {
          "indexed": true,
          "internalType": "address",
          "name": "user",
          "type": "address"
        },
        {
          "indexed": true,
          "internalType": "address",
          "name": "newOwner",
          "type": "address"
        }
      ],
      "name": "OwnershipTransferred",
      "type": "event"
    },
    {
      "anonymous": false,
      "inputs": [],
      "name": "Paused",
      "type": "event"
    },
    {
      "anonymous": false,
      "inputs": [
        {
          "indexed": false,
          "internalType": "address",
          "name": "token",
          "type": "address"
        },
        {
          "indexed": false,
          "internalType": "uint256",
          "name": "amount",
          "type": "uint256"
        }
      ],
      "name": "Recovered",
      "type": "event"
    },
    {
      "anonymous": false,
      "inputs": [
        {
          "indexed": false,
          "internalType": "uint256",
          "name": "reward",
          "type": "uint256"
        }
      ],
      "name": "RewardAdded",
      "type": "event"
    },
    {
      "anonymous": false,
      "inputs": [
        {
          "indexed": true,
          "internalType": "address",
          "name": "user",
          "type": "address"
        },
        {
          "indexed": true,
          "internalType": "address",
          "name": "rewardsToken",
          "type": "address"
        },
        {
          "indexed": false,
          "internalType": "uint256",
          "name": "reward",
          "type": "uint256"
        },
        {
          "indexed": false,
          "internalType": "address",
          "name": "to",
          "type": "address"
        }
      ],
      "name": "RewardPaid",
      "type": "event"
    },
    {
      "anonymous": false,
      "inputs": [
        {
          "indexed": false,
          "internalType": "address",
          "name": "token",
          "type": "address"
        },
        {
          "indexed": false,
          "internalType": "uint256",
          "name": "newDuration",
          "type": "uint256"
        }
      ],
      "name": "RewardsDurationUpdated",
      "type": "event"
    },
    {
      "anonymous": false,
      "inputs": [
        {
          "indexed": true,
          "internalType": "address",
          "name": "user",
          "type": "address"
        },
        {
          "indexed": false,
          "internalType": "bool",
          "name": "allowed",
          "type": "bool"
        }
      ],
      "name": "ThirdPartyCompoundAllowed",
      "type": "event"
    },
    {
      "anonymous": false,
      "inputs": [],
      "name": "Unpaused",
      "type": "event"
    },
    {
      "inputs": [],
      "name": "MAX_COMPOUND_FEE",
      "outputs": [
        {
          "internalType": "uint256",
          "name": "",
          "type": "uint256"
        }
      ],
      "stateMutability": "view",
      "type": "function"
    },
    {
      "inputs": [
        {
          "internalType": "address",
          "name": "_rewardsToken",
          "type": "address"
        },
        {
          "internalType": "uint256",
          "name": "_rewardsDuration",
          "type": "uint256"
        }
      ],
      "name": "addReward",
      "outputs": [],
      "stateMutability": "nonpayable",
      "type": "function"
    },
    {
      "inputs": [
        {
          "internalType": "address",
          "name": "",
          "type": "address"
        }
      ],
      "name": "allowThirdPartyCompound",
      "outputs": [
        {
          "internalType": "bool",
          "name": "",
          "type": "bool"
        }
      ],
      "stateMutability": "view",
      "type": "function"
    },
    {
      "inputs": [],
      "name": "authority",
      "outputs": [
        {
          "internalType": "contract Authority",
          "name": "",
          "type": "address"
        }
      ],
      "stateMutability": "view",
      "type": "function"
    },
    {
      "inputs": [
        {
          "internalType": "address",
          "name": "account",
          "type": "address"
        }
      ],
      "name": "balanceOf",
      "outputs": [
        {
          "internalType": "uint256",
          "name": "",
          "type": "uint256"
        }
      ],
      "stateMutability": "view",
      "type": "function"
    },
    {
      "inputs": [
        {
          "internalType": "address",
          "name": "from",
          "type": "address"
        },
        {
          "internalType": "address",
          "name": "to",
          "type": "address"
        },
        {
          "internalType": "uint256",
          "name": "",
          "type": "uint256"
        },
        {
          "internalType": "address",
          "name": "",
          "type": "address"
        }
      ],
      "name": "beforeUpdate",
      "outputs": [],
      "stateMutability": "nonpayable",
      "type": "function"
    },
    {
      "inputs": [
        {
          "internalType": "address[]",
          "name": "_rewardTokens",
          "type": "address[]"
        }
      ],
      "name": "claimRewards",
      "outputs": [
        {
          "internalType": "uint256[]",
          "name": "rewardsOut",
          "type": "uint256[]"
        }
      ],
      "stateMutability": "nonpayable",
      "type": "function"
    },
    {
      "inputs": [],
      "name": "compoundFee",
      "outputs": [
        {
          "internalType": "uint256",
          "name": "",
          "type": "uint256"
        }
      ],
      "stateMutability": "view",
      "type": "function"
    },
    {
      "inputs": [
        {
          "internalType": "address",
          "name": "_account",
          "type": "address"
        }
      ],
      "name": "compoundReward",
      "outputs": [],
      "stateMutability": "nonpayable",
      "type": "function"
    },
    {
      "inputs": [
        {
          "internalType": "address",
          "name": "account",
          "type": "address"
        },
        {
          "internalType": "address",
          "name": "_rewardsToken",
          "type": "address"
        }
      ],
      "name": "earned",
      "outputs": [
        {
          "internalType": "uint256",
          "name": "",
          "type": "uint256"
        }
      ],
      "stateMutability": "view",
      "type": "function"
    },
    {
      "inputs": [
        {
          "internalType": "address",
          "name": "_rewardsToken",
          "type": "address"
        }
      ],
      "name": "getRewardForDuration",
      "outputs": [
        {
          "internalType": "uint256",
          "name": "",
          "type": "uint256"
        }
      ],
      "stateMutability": "view",
      "type": "function"
    },
    {
      "inputs": [],
      "name": "getRewards",
      "outputs": [
        {
          "components": [
            {
              "internalType": "address",
              "name": "rewardsToken",
              "type": "address"
            },
            {
              "internalType": "uint256",
              "name": "rewardsDuration",
              "type": "uint256"
            },
            {
              "internalType": "uint256",
              "name": "periodFinish",
              "type": "uint256"
            },
            {
              "internalType": "uint256",
              "name": "rewardRate",
              "type": "uint256"
            },
            {
              "internalType": "uint256",
              "name": "lastUpdateTime",
              "type": "uint256"
            },
            {
              "internalType": "uint256",
              "name": "rewardPerTokenStored",
              "type": "uint256"
            }
          ],
          "internalType": "struct Distributor.RewardData[]",
          "name": "",
          "type": "tuple[]"
        }
      ],
      "stateMutability": "view",
      "type": "function"
    },
    {
      "inputs": [],
      "name": "isPaused",
      "outputs": [
        {
          "internalType": "bool",
          "name": "",
          "type": "bool"
        }
      ],
      "stateMutability": "view",
      "type": "function"
    },
    {
      "inputs": [
        {
          "internalType": "address",
          "name": "_rewardsToken",
          "type": "address"
        }
      ],
      "name": "lastTimeRewardApplicable",
      "outputs": [
        {
          "internalType": "uint256",
          "name": "",
          "type": "uint256"
        }
      ],
      "stateMutability": "view",
      "type": "function"
    },
    {
      "inputs": [
        {
          "internalType": "address",
          "name": "_rewardsToken",
          "type": "address"
        },
        {
          "internalType": "uint256",
          "name": "reward",
          "type": "uint256"
        }
      ],
      "name": "notifyRewardAmount",
      "outputs": [],
      "stateMutability": "nonpayable",
      "type": "function"
    },
    {
      "inputs": [],
      "name": "owner",
      "outputs": [
        {
          "internalType": "address",
          "name": "",
          "type": "address"
        }
      ],
      "stateMutability": "view",
      "type": "function"
    },
    {
      "inputs": [],
      "name": "pause",
      "outputs": [],
      "stateMutability": "nonpayable",
      "type": "function"
    },
    {
      "inputs": [],
      "name": "primeRBAC",
      "outputs": [
        {
          "internalType": "contract IPrimeRBAC",
          "name": "",
          "type": "address"
        }
      ],
      "stateMutability": "view",
      "type": "function"
    },
    {
      "inputs": [
        {
          "internalType": "address",
          "name": "tokenAddress",
          "type": "address"
        },
        {
          "internalType": "uint256",
          "name": "tokenAmount",
          "type": "uint256"
        }
      ],
      "name": "recoverERC20",
      "outputs": [],
      "stateMutability": "nonpayable",
      "type": "function"
    },
    {
      "inputs": [
        {
          "internalType": "address",
          "name": "",
          "type": "address"
        }
      ],
      "name": "rewardData",
      "outputs": [
        {
          "internalType": "address",
          "name": "rewardsToken",
          "type": "address"
        },
        {
          "internalType": "uint256",
          "name": "rewardsDuration",
          "type": "uint256"
        },
        {
          "internalType": "uint256",
          "name": "periodFinish",
          "type": "uint256"
        },
        {
          "internalType": "uint256",
          "name": "rewardRate",
          "type": "uint256"
        },
        {
          "internalType": "uint256",
          "name": "lastUpdateTime",
          "type": "uint256"
        },
        {
          "internalType": "uint256",
          "name": "rewardPerTokenStored",
          "type": "uint256"
        }
      ],
      "stateMutability": "view",
      "type": "function"
    },
    {
      "inputs": [
        {
          "internalType": "address",
          "name": "_rewardsToken",
          "type": "address"
        }
      ],
      "name": "rewardPerToken",
      "outputs": [
        {
          "internalType": "uint256",
          "name": "",
          "type": "uint256"
        }
      ],
      "stateMutability": "view",
      "type": "function"
    },
    {
      "inputs": [
        {
          "internalType": "uint256",
          "name": "",
          "type": "uint256"
        }
      ],
      "name": "rewardTokens",
      "outputs": [
        {
          "internalType": "address",
          "name": "",
          "type": "address"
        }
      ],
      "stateMutability": "view",
      "type": "function"
    },
    {
      "inputs": [
        {
          "internalType": "address",
          "name": "",
          "type": "address"
        },
        {
          "internalType": "address",
          "name": "",
          "type": "address"
        }
      ],
      "name": "rewards",
      "outputs": [
        {
          "internalType": "uint256",
          "name": "",
          "type": "uint256"
        }
      ],
      "stateMutability": "view",
      "type": "function"
    },
    {
      "inputs": [
        {
          "internalType": "bool",
          "name": "_allowed",
          "type": "bool"
        }
      ],
      "name": "setAllowThirdPartyCompound",
      "outputs": [],
      "stateMutability": "nonpayable",
      "type": "function"
    },
    {
      "inputs": [
        {
          "internalType": "contract Authority",
          "name": "newAuthority",
          "type": "address"
        }
      ],
      "name": "setAuthority",
      "outputs": [],
      "stateMutability": "nonpayable",
      "type": "function"
    },
    {
      "inputs": [
        {
          "internalType": "uint256",
          "name": "_compoundFee",
          "type": "uint256"
        }
      ],
      "name": "setCompoundFee",
      "outputs": [],
      "stateMutability": "nonpayable",
      "type": "function"
    },
    {
      "inputs": [
        {
          "internalType": "address",
          "name": "_rewardsToken",
          "type": "address"
        },
        {
          "internalType": "uint256",
          "name": "_rewardsDuration",
          "type": "uint256"
        }
      ],
      "name": "setRewardsDuration",
      "outputs": [],
      "stateMutability": "nonpayable",
      "type": "function"
    },
    {
      "inputs": [],
      "name": "teller",
      "outputs": [
        {
          "internalType": "contract Teller",
          "name": "",
          "type": "address"
        }
      ],
      "stateMutability": "view",
      "type": "function"
    },
    {
      "inputs": [],
      "name": "totalSupply",
      "outputs": [
        {
          "internalType": "uint256",
          "name": "",
          "type": "uint256"
        }
      ],
      "stateMutability": "view",
      "type": "function"
    },
    {
      "inputs": [
        {
          "internalType": "address",
          "name": "newOwner",
          "type": "address"
        }
      ],
      "name": "transferOwnership",
      "outputs": [],
      "stateMutability": "nonpayable",
      "type": "function"
    },
    {
      "inputs": [],
      "name": "unpause",
      "outputs": [],
      "stateMutability": "nonpayable",
      "type": "function"
    },
    {
      "inputs": [
        {
          "internalType": "address",
          "name": "account",
          "type": "address"
        }
      ],
      "name": "updateRewardForAccount",
      "outputs": [],
      "stateMutability": "nonpayable",
      "type": "function"
    },
    {
      "inputs": [
        {
          "internalType": "address",
          "name": "",
          "type": "address"
        },
        {
          "internalType": "address",
          "name": "",
          "type": "address"
        }
      ],
      "name": "userRewardPerTokenPaid",
      "outputs": [
        {
          "internalType": "uint256",
          "name": "",
          "type": "uint256"
        }
      ],
      "stateMutability": "view",
      "type": "function"
    },
    {
      "inputs": [],
      "name": "vault",
      "outputs": [
        {
          "internalType": "contract ERC20",
          "name": "",
          "type": "address"
        }
      ],
      "stateMutability": "view",
      "type": "function"
    }
  ],
  "bytecode": "0x60c06040526001600355348015610014575f5ffd5b50604051614cef380380614cef83398181016040528101906100369190610460565b818173ffffffffffffffffffffffffffffffffffffffff1663fbfa77cf6040518163ffffffff1660e01b8152600401602060405180830381865afa158015610080573d5f5f3e3d5ffd5b505050506040513d601f19601f820116820180604052508101906100a491906104ea565b73ffffffffffffffffffffffffffffffffffffffff1663bf7e214f6040518163ffffffff1660e01b8152600401602060405180830381865afa1580156100ec573d5f5f3e3d5ffd5b505050506040513d601f19601f820116820180604052508101906101109190610550565b3381815f5f6101000a81548173ffffffffffffffffffffffffffffffffffffffff021916908373ffffffffffffffffffffffffffffffffffffffff1602179055508060015f6101000a81548173ffffffffffffffffffffffffffffffffffffffff021916908373ffffffffffffffffffffffffffffffffffffffff1602179055508173ffffffffffffffffffffffffffffffffffffffff163373ffffffffffffffffffffffffffffffffffffffff167f8be0079c531659141344cd1fd0a4f28419497f9722a3daafe3b4186f6b6457e060405160405180910390a38073ffffffffffffffffffffffffffffffffffffffff163373ffffffffffffffffffffffffffffffffffffffff167fa3396fd7f6e0a21b50e5089d2da70d5ac0a3bbbd1f617a93f134b7638998019860405160405180910390a350505f73ffffffffffffffffffffffffffffffffffffffff168273ffffffffffffffffffffffffffffffffffffffff1614806102ac57505f73ffffffffffffffffffffffffffffffffffffffff168173ffffffffffffffffffffffffffffffffffffffff16145b156102e3576040517f538ba4f900000000000000000000000000000000000000000000000000000000815260040160405180910390fd5b8160025f6101000a81548173ffffffffffffffffffffffffffffffffffffffff021916908373ffffffffffffffffffffffffffffffffffffffff16021790555050508073ffffffffffffffffffffffffffffffffffffffff1660a08173ffffffffffffffffffffffffffffffffffffffff168152505060a05173ffffffffffffffffffffffffffffffffffffffff1663fbfa77cf6040518163ffffffff1660e01b8152600401602060405180830381865afa1580156103a4573d5f5f3e3d5ffd5b505050506040513d601f19601f820116820180604052508101906103c891906104ea565b73ffffffffffffffffffffffffffffffffffffffff1660808173ffffffffffffffffffffffffffffffffffffffff1681525050505061057b565b5f5ffd5b5f73ffffffffffffffffffffffffffffffffffffffff82169050919050565b5f61042f82610406565b9050919050565b61043f81610425565b8114610449575f5ffd5b50565b5f8151905061045a81610436565b92915050565b5f5f6040838503121561047657610475610402565b5b5f6104838582860161044c565b92505060206104948582860161044c565b9150509250929050565b5f6104a882610406565b9050919050565b5f6104b98261049e565b9050919050565b6104c9816104af565b81146104d3575f5ffd5b50565b5f815190506104e4816104c0565b92915050565b5f602082840312156104ff576104fe610402565b5b5f61050c848285016104d6565b91505092915050565b5f61051f82610425565b9050919050565b61052f81610515565b8114610539575f5ffd5b50565b5f8151905061054a81610526565b92915050565b5f6020828403121561056557610564610402565b5b5f6105728482850161053c565b91505092915050565b60805160a05161471b6105d45f395f8181610cfb015261182e01525f81816109b901528181610cb201528181610fc1015281816112730152818161190a01528181612c7001528181612d4a0152613154015261471b5ff3fe608060405234801561000f575f5ffd5b5060043610610204575f3560e01c80638980f11f11610118578063bcd11014116100ab578063f0ea59151161007a578063f0ea5915146105db578063f1229777146105f7578063f2fde38b14610627578063f9f031df14610643578063fbfa77cf1461067357610204565b8063bcd110141461053f578063bf7e214f1461056f578063e37d7e681461058d578063e70b9e27146105ab57610204565b8063a6549221116100e7578063a6549221146104b9578063a78ffca5146104d5578063b187bd2614610505578063b66503cf1461052357610204565b80638980f11f146104455780638ad029f1146104615780638da5cb5b1461047f5780639feb8f501461049d57610204565b80633f4ba83a1161019b5780637035ab981161016a5780637035ab981461038f57806370a08231146103bf5780637a9e5e4b146103ef5780637bb7bed11461040b5780638456cb591461043b57610204565b80633f4ba83a1461030257806348e5d9f81461030c57806357edab4e14610341578063638634ee1461035f57610204565b8063208be4f3116101d7578063208be4f31461027e578063211dc32d1461029a5780632378bea6146102ca57806327ec5066146102e657610204565b806302b3b7ea146102085780630572b0cc146102245780630a6c3bb21461024257806318160ddd14610260575b5f5ffd5b610222600480360381019061021d91906139b0565b610691565b005b61022c610e0c565b6040516102399190613b23565b60405180910390f35b61024a610fb8565b6040516102579190613b52565b60405180910390f35b610268610fbe565b6040516102759190613b52565b60405180910390f35b61029860048036038101906102939190613ba0565b611051565b005b6102b460048036038101906102af9190613bcb565b611162565b6040516102c19190613b52565b60405180910390f35b6102e460048036038101906102df9190613c33565b61132f565b005b61030060048036038101906102fb9190613c71565b611572565b005b61030a6116be565b005b610326600480360381019061032191906139b0565b6117d5565b60405161033896959493929190613cab565b60405180910390f35b61034961182c565b6040516103569190613d65565b60405180910390f35b610379600480360381019061037491906139b0565b611850565b6040516103869190613b52565b60405180910390f35b6103a960048036038101906103a49190613bcb565b6118e7565b6040516103b69190613b52565b60405180910390f35b6103d960048036038101906103d491906139b0565b611907565b6040516103e69190613b52565b60405180910390f35b61040960048036038101906104049190613db9565b6119a7565b005b61042560048036038101906104209190613c71565b611b62565b6040516104329190613de4565b60405180910390f35b610443611b9d565b005b61045f600480360381019061045a9190613c33565b611cb5565b005b610469611e65565b6040516104769190613b52565b60405180910390f35b610487611e6b565b6040516104949190613de4565b60405180910390f35b6104b760048036038101906104b29190613c33565b611e8f565b005b6104d360048036038101906104ce9190613dfd565b612134565b005b6104ef60048036038101906104ea91906139b0565b612267565b6040516104fc9190613e70565b60405180910390f35b61050d612284565b60405161051a9190613e70565b60405180910390f35b61053d60048036038101906105389190613c33565b612297565b005b610559600480360381019061055491906139b0565b61292e565b6040516105669190613b52565b60405180910390f35b6105776129c2565b6040516105849190613ea9565b60405180910390f35b6105956129e7565b6040516105a29190613ee2565b60405180910390f35b6105c560048036038101906105c09190613bcb565b612a0c565b6040516105d29190613b52565b60405180910390f35b6105f560048036038101906105f091906139b0565b612a2c565b005b610611600480360381019061060c91906139b0565b612c6c565b60405161061e9190613b52565b60405180910390f35b610641600480360381019061063c91906139b0565b612ee4565b005b61065d6004803603810190610658919061404b565b612fec565b60405161066a919061413a565b60405180910390f35b61067b613152565b604051610688919061417a565b60405180910390f35b805f5f90505b600580549050811015610902575f600582815481106106b9576106b8614193565b5b905f5260205f20015f9054906101000a900473ffffffffffffffffffffffffffffffffffffffff1690506106ec81612c6c565b60045f8373ffffffffffffffffffffffffffffffffffffffff1673ffffffffffffffffffffffffffffffffffffffff1681526020019081526020015f206005018190555061073981611850565b60045f8373ffffffffffffffffffffffffffffffffffffffff1673ffffffffffffffffffffffffffffffffffffffff1681526020019081526020015f20600401819055505f73ffffffffffffffffffffffffffffffffffffffff168373ffffffffffffffffffffffffffffffffffffffff16146108f4576107ba8382611162565b60075f8573ffffffffffffffffffffffffffffffffffffffff1673ffffffffffffffffffffffffffffffffffffffff1681526020019081526020015f205f8373ffffffffffffffffffffffffffffffffffffffff1673ffffffffffffffffffffffffffffffffffffffff1681526020019081526020015f208190555060045f8273ffffffffffffffffffffffffffffffffffffffff1673ffffffffffffffffffffffffffffffffffffffff1681526020019081526020015f206005015460065f8573ffffffffffffffffffffffffffffffffffffffff1673ffffffffffffffffffffffffffffffffffffffff1681526020019081526020015f205f8373ffffffffffffffffffffffffffffffffffffffff1673ffffffffffffffffffffffffffffffffffffffff1681526020019081526020015f20819055505b508080600101915050610697565b50610930335f357fffffffff0000000000000000000000000000000000000000000000000000000016613176565b61096f576040517f08c379a00000000000000000000000000000000000000000000000000000000081526004016109669061421a565b60405180910390fd5b600260149054906101000a900460ff16156109b6576040517fe3763d9700000000000000000000000000000000000000000000000000000000815260040160405180910390fd5b5f7f000000000000000000000000000000000000000000000000000000000000000073ffffffffffffffffffffffffffffffffffffffff166338d52e0f6040518163ffffffff1660e01b8152600401602060405180830381865afa158015610a20573d5f5f3e3d5ffd5b505050506040513d601f19601f82011682018060405250810190610a449190614273565b90508273ffffffffffffffffffffffffffffffffffffffff163373ffffffffffffffffffffffffffffffffffffffff1614610afa5760095f8473ffffffffffffffffffffffffffffffffffffffff1673ffffffffffffffffffffffffffffffffffffffff1681526020019081526020015f205f9054906101000a900460ff16610af9576040517fe0507a2e00000000000000000000000000000000000000000000000000000000815260040160405180910390fd5b5b5f60075f8573ffffffffffffffffffffffffffffffffffffffff1673ffffffffffffffffffffffffffffffffffffffff1681526020019081526020015f205f8373ffffffffffffffffffffffffffffffffffffffff1673ffffffffffffffffffffffffffffffffffffffff1681526020019081526020015f205490505f811115610e06575f60075f8673ffffffffffffffffffffffffffffffffffffffff1673ffffffffffffffffffffffffffffffffffffffff1681526020019081526020015f205f8473ffffffffffffffffffffffffffffffffffffffff1673ffffffffffffffffffffffffffffffffffffffff1681526020019081526020015f20819055505f5f90505f8290508573ffffffffffffffffffffffffffffffffffffffff163373ffffffffffffffffffffffffffffffffffffffff1614158015610c4057505f600854115b15610ca55761271060085484610c5691906142cb565b610c609190614339565b91508183610c6e9190614369565b90505f821115610ca457610ca333838673ffffffffffffffffffffffffffffffffffffffff166132af9092919063ffffffff16565b5b5b5f811115610e0357610cf87f0000000000000000000000000000000000000000000000000000000000000000828673ffffffffffffffffffffffffffffffffffffffff166133669092919063ffffffff16565b5f7f000000000000000000000000000000000000000000000000000000000000000073ffffffffffffffffffffffffffffffffffffffff16638dbdbe6d835f8a6040518463ffffffff1660e01b8152600401610d56939291906143d5565b6020604051808303815f875af1158015610d72573d5f5f3e3d5ffd5b505050506040513d601f19601f82011682018060405250810190610d96919061441e565b90508473ffffffffffffffffffffffffffffffffffffffff168773ffffffffffffffffffffffffffffffffffffffff167f082a49debd7523359a7e587893fa757c15a9ebb7c8928a1df53c8b40b381738c848487604051610df993929190614449565b60405180910390a3505b50505b50505050565b60605f60058054905067ffffffffffffffff811115610e2e57610e2d613f0f565b5b604051908082528060200260200182016040528015610e6757816020015b610e546138ff565b815260200190600190039081610e4c5790505b5090505f5f90505b600580549050811015610fb05760045f60058381548110610e9357610e92614193565b5b905f5260205f20015f9054906101000a900473ffffffffffffffffffffffffffffffffffffffff1673ffffffffffffffffffffffffffffffffffffffff1673ffffffffffffffffffffffffffffffffffffffff1681526020019081526020015f206040518060c00160405290815f82015f9054906101000a900473ffffffffffffffffffffffffffffffffffffffff1673ffffffffffffffffffffffffffffffffffffffff1673ffffffffffffffffffffffffffffffffffffffff16815260200160018201548152602001600282015481526020016003820154815260200160048201548152602001600582015481525050828281518110610f9857610f97614193565b5b60200260200101819052508080600101915050610e6f565b508091505090565b60085481565b5f7f000000000000000000000000000000000000000000000000000000000000000073ffffffffffffffffffffffffffffffffffffffff166318160ddd6040518163ffffffff1660e01b8152600401602060405180830381865afa158015611028573d5f5f3e3d5ffd5b505050506040513d601f19601f8201168201806040525081019061104c919061441e565b905090565b61107e335f357fffffffff0000000000000000000000000000000000000000000000000000000016613176565b6110bd576040517f08c379a00000000000000000000000000000000000000000000000000000000081526004016110b49061421a565b60405180910390fd5b8060095f3373ffffffffffffffffffffffffffffffffffffffff1673ffffffffffffffffffffffffffffffffffffffff1681526020019081526020015f205f6101000a81548160ff0219169083151502179055503373ffffffffffffffffffffffffffffffffffffffff167fbdfee831ca1ffc3205aae8250f2a8aac2e2fa68c9da227c46d927f295bd2aabb826040516111579190613e70565b60405180910390a250565b5f60075f8473ffffffffffffffffffffffffffffffffffffffff1673ffffffffffffffffffffffffffffffffffffffff1681526020019081526020015f205f8373ffffffffffffffffffffffffffffffffffffffff1673ffffffffffffffffffffffffffffffffffffffff1681526020019081526020015f2054670de0b6b3a764000060065f8673ffffffffffffffffffffffffffffffffffffffff1673ffffffffffffffffffffffffffffffffffffffff1681526020019081526020015f205f8573ffffffffffffffffffffffffffffffffffffffff1673ffffffffffffffffffffffffffffffffffffffff1681526020019081526020015f205461126785612c6c565b6112719190614369565b7f000000000000000000000000000000000000000000000000000000000000000073ffffffffffffffffffffffffffffffffffffffff166370a08231876040518263ffffffff1660e01b81526004016112ca9190613de4565b602060405180830381865afa1580156112e5573d5f5f3e3d5ffd5b505050506040513d601f19601f82011682018060405250810190611309919061441e565b61131391906142cb565b61131d9190614339565b611327919061447e565b905092915050565b60025f9054906101000a900473ffffffffffffffffffffffffffffffffffffffff1673ffffffffffffffffffffffffffffffffffffffff1663fc4e3e0a336040518263ffffffff1660e01b81526004016113899190613de4565b602060405180830381865afa1580156113a4573d5f5f3e3d5ffd5b505050506040513d601f19601f820116820180604052508101906113c891906144c5565b6113fe576040517f19ca4b5e00000000000000000000000000000000000000000000000000000000815260040160405180910390fd5b60045f8373ffffffffffffffffffffffffffffffffffffffff1673ffffffffffffffffffffffffffffffffffffffff1681526020019081526020015f20600201544211611477576040517ffb61f6df00000000000000000000000000000000000000000000000000000000815260040160405180910390fd5b5f81036114b0576040517f386d595500000000000000000000000000000000000000000000000000000000815260040160405180910390fd5b8060045f8473ffffffffffffffffffffffffffffffffffffffff1673ffffffffffffffffffffffffffffffffffffffff1681526020019081526020015f20600101819055507fad2f86b01ed93b4b3a150d448c61a4f5d8d38075d3c0c64cc0a26fd6e1f495458260045f8573ffffffffffffffffffffffffffffffffffffffff1673ffffffffffffffffffffffffffffffffffffffff1681526020019081526020015f20600101546040516115669291906144f0565b60405180910390a15050565b60025f9054906101000a900473ffffffffffffffffffffffffffffffffffffffff1673ffffffffffffffffffffffffffffffffffffffff1663d35911f2336040518263ffffffff1660e01b81526004016115cc9190613de4565b602060405180830381865afa1580156115e7573d5f5f3e3d5ffd5b505050506040513d601f19601f8201168201806040525081019061160b91906144c5565b611641576040517fdc85555400000000000000000000000000000000000000000000000000000000815260040160405180910390fd5b6107d081111561167d576040517f6aa7144700000000000000000000000000000000000000000000000000000000815260040160405180910390fd5b806008819055507fa6d9a48d7e4e52ec0546321cd0b69b8bb699a75701b9bca931fadba0fece2d7e816040516116b39190613b52565b60405180910390a150565b60025f9054906101000a900473ffffffffffffffffffffffffffffffffffffffff1673ffffffffffffffffffffffffffffffffffffffff1663d35911f2336040518263ffffffff1660e01b81526004016117189190613de4565b602060405180830381865afa158015611733573d5f5f3e3d5ffd5b505050506040513d601f19601f8201168201806040525081019061175791906144c5565b61178d576040517fdc85555400000000000000000000000000000000000000000000000000000000815260040160405180910390fd5b5f600260146101000a81548160ff0219169083151502179055507fa45f47fdea8a1efdd9029a5691c7f759c32b7c698632b563573e155625d1693360405160405180910390a1565b6004602052805f5260405f205f91509050805f015f9054906101000a900473ffffffffffffffffffffffffffffffffffffffff16908060010154908060020154908060030154908060040154908060050154905086565b7f000000000000000000000000000000000000000000000000000000000000000081565b5f60045f8373ffffffffffffffffffffffffffffffffffffffff1673ffffffffffffffffffffffffffffffffffffffff1681526020019081526020015f206002015442106118de5760045f8373ffffffffffffffffffffffffffffffffffffffff1673ffffffffffffffffffffffffffffffffffffffff1681526020019081526020015f20600201546118e0565b425b9050919050565b6006602052815f5260405f20602052805f5260405f205f91509150505481565b5f7f000000000000000000000000000000000000000000000000000000000000000073ffffffffffffffffffffffffffffffffffffffff166370a08231836040518263ffffffff1660e01b81526004016119619190613de4565b602060405180830381865afa15801561197c573d5f5f3e3d5ffd5b505050506040513d601f19601f820116820180604052508101906119a0919061441e565b9050919050565b5f5f9054906101000a900473ffffffffffffffffffffffffffffffffffffffff1673ffffffffffffffffffffffffffffffffffffffff163373ffffffffffffffffffffffffffffffffffffffff161480611abd575060015f9054906101000a900473ffffffffffffffffffffffffffffffffffffffff1673ffffffffffffffffffffffffffffffffffffffff1663b700961333305f357fffffffff00000000000000000000000000000000000000000000000000000000166040518463ffffffff1660e01b8152600401611a7d93929190614551565b602060405180830381865afa158015611a98573d5f5f3e3d5ffd5b505050506040513d601f19601f82011682018060405250810190611abc91906144c5565b5b611ac5575f5ffd5b8060015f6101000a81548173ffffffffffffffffffffffffffffffffffffffff021916908373ffffffffffffffffffffffffffffffffffffffff1602179055508073ffffffffffffffffffffffffffffffffffffffff163373ffffffffffffffffffffffffffffffffffffffff167fa3396fd7f6e0a21b50e5089d2da70d5ac0a3bbbd1f617a93f134b7638998019860405160405180910390a350565b60058181548110611b71575f80fd5b905f5260205f20015f915054906101000a900473ffffffffffffffffffffffffffffffffffffffff1681565b60025f9054906101000a900473ffffffffffffffffffffffffffffffffffffffff1673ffffffffffffffffffffffffffffffffffffffff1663d35911f2336040518263ffffffff1660e01b8152600401611bf79190613de4565b602060405180830381865afa158015611c12573d5f5f3e3d5ffd5b505050506040513d601f19601f82011682018060405250810190611c3691906144c5565b611c6c576040517fdc85555400000000000000000000000000000000000000000000000000000000815260040160405180910390fd5b6001600260146101000a81548160ff0219169083151502179055507f9e87fac88ff661f02d44f95383c817fece4bce600a3dab7a54406878b965e75260405160405180910390a1565b60025f9054906101000a900473ffffffffffffffffffffffffffffffffffffffff1673ffffffffffffffffffffffffffffffffffffffff1663d35911f2336040518263ffffffff1660e01b8152600401611d0f9190613de4565b602060405180830381865afa158015611d2a573d5f5f3e3d5ffd5b505050506040513d601f19601f82011682018060405250810190611d4e91906144c5565b611d84576040517fdc85555400000000000000000000000000000000000000000000000000000000815260040160405180910390fd5b5f60045f8473ffffffffffffffffffffffffffffffffffffffff1673ffffffffffffffffffffffffffffffffffffffff1681526020019081526020015f206004015414611dfd576040517f18ac301100000000000000000000000000000000000000000000000000000000815260040160405180910390fd5b611e2833828473ffffffffffffffffffffffffffffffffffffffff166132af9092919063ffffffff16565b7f8c1256b8896378cd5044f80c202f9772b9d77dc85c8a6eb51967210b09bfaa288282604051611e599291906144f0565b60405180910390a15050565b6107d081565b5f5f9054906101000a900473ffffffffffffffffffffffffffffffffffffffff1681565b60025f9054906101000a900473ffffffffffffffffffffffffffffffffffffffff1673ffffffffffffffffffffffffffffffffffffffff1663d35911f2336040518263ffffffff1660e01b8152600401611ee99190613de4565b602060405180830381865afa158015611f04573d5f5f3e3d5ffd5b505050506040513d601f19601f82011682018060405250810190611f2891906144c5565b611f5e576040517fdc85555400000000000000000000000000000000000000000000000000000000815260040160405180910390fd5b5f60045f8473ffffffffffffffffffffffffffffffffffffffff1673ffffffffffffffffffffffffffffffffffffffff1681526020019081526020015f206001015414611fd7576040517f43c1476600000000000000000000000000000000000000000000000000000000815260040160405180910390fd5b600582908060018154018082558091505060019003905f5260205f20015f9091909190916101000a81548173ffffffffffffffffffffffffffffffffffffffff021916908373ffffffffffffffffffffffffffffffffffffffff1602179055506040518060c001604052808373ffffffffffffffffffffffffffffffffffffffff1681526020018281526020015f81526020015f81526020015f81526020015f81525060045f8473ffffffffffffffffffffffffffffffffffffffff1673ffffffffffffffffffffffffffffffffffffffff1681526020019081526020015f205f820151815f015f6101000a81548173ffffffffffffffffffffffffffffffffffffffff021916908373ffffffffffffffffffffffffffffffffffffffff1602179055506020820151816001015560408201518160020155606082015181600301556080820151816004015560a082015181600501559050505050565b612161335f357fffffffff0000000000000000000000000000000000000000000000000000000016613176565b6121a0576040517f08c379a00000000000000000000000000000000000000000000000000000000081526004016121979061421a565b60405180910390fd5b600260149054906101000a900460ff16156121e7576040517fe3763d9700000000000000000000000000000000000000000000000000000000815260040160405180910390fd5b5f73ffffffffffffffffffffffffffffffffffffffff168473ffffffffffffffffffffffffffffffffffffffff16146122245761222384612a2c565b5b5f73ffffffffffffffffffffffffffffffffffffffff168373ffffffffffffffffffffffffffffffffffffffff16146122615761226083612a2c565b5b50505050565b6009602052805f5260405f205f915054906101000a900460ff1681565b600260149054906101000a900460ff1681565b60025f9054906101000a900473ffffffffffffffffffffffffffffffffffffffff1673ffffffffffffffffffffffffffffffffffffffff1663fc4e3e0a336040518263ffffffff1660e01b81526004016122f19190613de4565b602060405180830381865afa15801561230c573d5f5f3e3d5ffd5b505050506040513d601f19601f8201168201806040525081019061233091906144c5565b612366576040517f19ca4b5e00000000000000000000000000000000000000000000000000000000815260040160405180910390fd5b5f5f5f90505b6005805490508110156125d7575f6005828154811061238e5761238d614193565b5b905f5260205f20015f9054906101000a900473ffffffffffffffffffffffffffffffffffffffff1690506123c181612c6c565b60045f8373ffffffffffffffffffffffffffffffffffffffff1673ffffffffffffffffffffffffffffffffffffffff1681526020019081526020015f206005018190555061240e81611850565b60045f8373ffffffffffffffffffffffffffffffffffffffff1673ffffffffffffffffffffffffffffffffffffffff1681526020019081526020015f20600401819055505f73ffffffffffffffffffffffffffffffffffffffff168373ffffffffffffffffffffffffffffffffffffffff16146125c95761248f8382611162565b60075f8573ffffffffffffffffffffffffffffffffffffffff1673ffffffffffffffffffffffffffffffffffffffff1681526020019081526020015f205f8373ffffffffffffffffffffffffffffffffffffffff1673ffffffffffffffffffffffffffffffffffffffff1681526020019081526020015f208190555060045f8273ffffffffffffffffffffffffffffffffffffffff1673ffffffffffffffffffffffffffffffffffffffff1681526020019081526020015f206005015460065f8573ffffffffffffffffffffffffffffffffffffffff1673ffffffffffffffffffffffffffffffffffffffff1681526020019081526020015f205f8373ffffffffffffffffffffffffffffffffffffffff1673ffffffffffffffffffffffffffffffffffffffff1681526020019081526020015f20819055505b50808060010191505061236c565b506126053330848673ffffffffffffffffffffffffffffffffffffffff1661341d909392919063ffffffff16565b60045f8473ffffffffffffffffffffffffffffffffffffffff1673ffffffffffffffffffffffffffffffffffffffff1681526020019081526020015f206002015442106126e15760045f8473ffffffffffffffffffffffffffffffffffffffff1673ffffffffffffffffffffffffffffffffffffffff1681526020019081526020015f2060010154826126989190614339565b60045f8573ffffffffffffffffffffffffffffffffffffffff1673ffffffffffffffffffffffffffffffffffffffff1681526020019081526020015f206003018190555061281d565b5f4260045f8673ffffffffffffffffffffffffffffffffffffffff1673ffffffffffffffffffffffffffffffffffffffff1681526020019081526020015f206002015461272e9190614369565b90505f60045f8673ffffffffffffffffffffffffffffffffffffffff1673ffffffffffffffffffffffffffffffffffffffff1681526020019081526020015f20600301548261277d91906142cb565b905060045f8673ffffffffffffffffffffffffffffffffffffffff1673ffffffffffffffffffffffffffffffffffffffff1681526020019081526020015f206001015481856127cc919061447e565b6127d69190614339565b60045f8773ffffffffffffffffffffffffffffffffffffffff1673ffffffffffffffffffffffffffffffffffffffff1681526020019081526020015f206003018190555050505b4260045f8573ffffffffffffffffffffffffffffffffffffffff1673ffffffffffffffffffffffffffffffffffffffff1681526020019081526020015f206004018190555060045f8473ffffffffffffffffffffffffffffffffffffffff1673ffffffffffffffffffffffffffffffffffffffff1681526020019081526020015f2060010154426128ae919061447e565b60045f8573ffffffffffffffffffffffffffffffffffffffff1673ffffffffffffffffffffffffffffffffffffffff1681526020019081526020015f20600201819055507fde88a922e0d3b88b24e9623efeb464919c6bf9f66857a65e2bfcf2ce87a9433d826040516129219190613b52565b60405180910390a1505050565b5f60045f8373ffffffffffffffffffffffffffffffffffffffff1673ffffffffffffffffffffffffffffffffffffffff1681526020019081526020015f206001015460045f8473ffffffffffffffffffffffffffffffffffffffff1673ffffffffffffffffffffffffffffffffffffffff1681526020019081526020015f20600301546129bb91906142cb565b9050919050565b60015f9054906101000a900473ffffffffffffffffffffffffffffffffffffffff1681565b60025f9054906101000a900473ffffffffffffffffffffffffffffffffffffffff1681565b6007602052815f5260405f20602052805f5260405f205f91509150505481565b5f5f90505b600580549050811015612c68575f60058281548110612a5357612a52614193565b5b905f5260205f20015f9054906101000a900473ffffffffffffffffffffffffffffffffffffffff169050612a8681612c6c565b60045f8373ffffffffffffffffffffffffffffffffffffffff1673ffffffffffffffffffffffffffffffffffffffff1681526020019081526020015f2060050181905550612ad381611850565b60045f8373ffffffffffffffffffffffffffffffffffffffff1673ffffffffffffffffffffffffffffffffffffffff1681526020019081526020015f2060040181905550612b218382611162565b60075f8573ffffffffffffffffffffffffffffffffffffffff1673ffffffffffffffffffffffffffffffffffffffff1681526020019081526020015f205f8373ffffffffffffffffffffffffffffffffffffffff1673ffffffffffffffffffffffffffffffffffffffff1681526020019081526020015f208190555060045f8273ffffffffffffffffffffffffffffffffffffffff1673ffffffffffffffffffffffffffffffffffffffff1681526020019081526020015f206005015460065f8573ffffffffffffffffffffffffffffffffffffffff1673ffffffffffffffffffffffffffffffffffffffff1681526020019081526020015f205f8373ffffffffffffffffffffffffffffffffffffffff1673ffffffffffffffffffffffffffffffffffffffff1681526020019081526020015f2081905550508080600101915050612a31565b5050565b5f5f7f000000000000000000000000000000000000000000000000000000000000000073ffffffffffffffffffffffffffffffffffffffff166318160ddd6040518163ffffffff1660e01b8152600401602060405180830381865afa158015612cd7573d5f5f3e3d5ffd5b505050506040513d601f19601f82011682018060405250810190612cfb919061441e565b03612d485760045f8373ffffffffffffffffffffffffffffffffffffffff1673ffffffffffffffffffffffffffffffffffffffff1681526020019081526020015f20600501549050612edf565b7f000000000000000000000000000000000000000000000000000000000000000073ffffffffffffffffffffffffffffffffffffffff166318160ddd6040518163ffffffff1660e01b8152600401602060405180830381865afa158015612db1573d5f5f3e3d5ffd5b505050506040513d601f19601f82011682018060405250810190612dd5919061441e565b670de0b6b3a764000060045f8573ffffffffffffffffffffffffffffffffffffffff1673ffffffffffffffffffffffffffffffffffffffff1681526020019081526020015f206003015460045f8673ffffffffffffffffffffffffffffffffffffffff1673ffffffffffffffffffffffffffffffffffffffff1681526020019081526020015f2060040154612e6986611850565b612e739190614369565b612e7d91906142cb565b612e8791906142cb565b612e919190614339565b60045f8473ffffffffffffffffffffffffffffffffffffffff1673ffffffffffffffffffffffffffffffffffffffff1681526020019081526020015f2060050154612edc919061447e565b90505b919050565b612f11335f357fffffffff0000000000000000000000000000000000000000000000000000000016613176565b612f50576040517f08c379a0000000000000000000000000000000000000000000000000000000008152600401612f479061421a565b60405180910390fd5b805f5f6101000a81548173ffffffffffffffffffffffffffffffffffffffff021916908373ffffffffffffffffffffffffffffffffffffffff1602179055508073ffffffffffffffffffffffffffffffffffffffff163373ffffffffffffffffffffffffffffffffffffffff167f8be0079c531659141344cd1fd0a4f28419497f9722a3daafe3b4186f6b6457e060405160405180910390a350565b606061301b335f357fffffffff0000000000000000000000000000000000000000000000000000000016613176565b61305a576040517f08c379a00000000000000000000000000000000000000000000000000000000081526004016130519061421a565b60405180910390fd5b600260149054906101000a900460ff16156130a1576040517fe3763d9700000000000000000000000000000000000000000000000000000000815260040160405180910390fd5b815167ffffffffffffffff8111156130bc576130bb613f0f565b5b6040519080825280602002602001820160405280156130ea5781602001602082028036833780820191505090505b5090505f5f90505b825181101561314c576131203384838151811061311257613111614193565b5b6020026020010151336134f1565b82828151811061313357613132614193565b5b60200260200101818152505080806001019150506130f2565b50919050565b7f000000000000000000000000000000000000000000000000000000000000000081565b5f5f60015f9054906101000a900473ffffffffffffffffffffffffffffffffffffffff1690505f73ffffffffffffffffffffffffffffffffffffffff168173ffffffffffffffffffffffffffffffffffffffff161415801561325057508073ffffffffffffffffffffffffffffffffffffffff1663b70096138530866040518463ffffffff1660e01b815260040161321093929190614551565b602060405180830381865afa15801561322b573d5f5f3e3d5ffd5b505050506040513d601f19601f8201168201806040525081019061324f91906144c5565b5b806132a657505f5f9054906101000a900473ffffffffffffffffffffffffffffffffffffffff1673ffffffffffffffffffffffffffffffffffffffff168473ffffffffffffffffffffffffffffffffffffffff16145b91505092915050565b5f6040517fa9059cbb00000000000000000000000000000000000000000000000000000000815273ffffffffffffffffffffffffffffffffffffffff8416600482015282602482015260205f6044835f895af1915081601f3d1160015f51141615161561331f573d853b15171591505b5080613360576040517f08c379a0000000000000000000000000000000000000000000000000000000008152600401613357906145d0565b60405180910390fd5b50505050565b5f6040517f095ea7b300000000000000000000000000000000000000000000000000000000815273ffffffffffffffffffffffffffffffffffffffff8416600482015282602482015260205f6044835f895af1915081601f3d1160015f5114161516156133d6573d853b15171591505b5080613417576040517f08c379a000000000000000000000000000000000000000000000000000000000815260040161340e90614638565b60405180910390fd5b50505050565b5f6040517f23b872dd00000000000000000000000000000000000000000000000000000000815273ffffffffffffffffffffffffffffffffffffffff8516600482015273ffffffffffffffffffffffffffffffffffffffff8416602482015282604482015260205f6064835f8a5af1915081601f3d1160015f5114161516156134a9573d863b15171591505b50806134ea576040517f08c379a00000000000000000000000000000000000000000000000000000000081526004016134e1906146a0565b60405180910390fd5b5050505050565b5f835f5f90505b600580549050811015613763575f6005828154811061351a57613519614193565b5b905f5260205f20015f9054906101000a900473ffffffffffffffffffffffffffffffffffffffff16905061354d81612c6c565b60045f8373ffffffffffffffffffffffffffffffffffffffff1673ffffffffffffffffffffffffffffffffffffffff1681526020019081526020015f206005018190555061359a81611850565b60045f8373ffffffffffffffffffffffffffffffffffffffff1673ffffffffffffffffffffffffffffffffffffffff1681526020019081526020015f20600401819055505f73ffffffffffffffffffffffffffffffffffffffff168373ffffffffffffffffffffffffffffffffffffffff16146137555761361b8382611162565b60075f8573ffffffffffffffffffffffffffffffffffffffff1673ffffffffffffffffffffffffffffffffffffffff1681526020019081526020015f205f8373ffffffffffffffffffffffffffffffffffffffff1673ffffffffffffffffffffffffffffffffffffffff1681526020019081526020015f208190555060045f8273ffffffffffffffffffffffffffffffffffffffff1673ffffffffffffffffffffffffffffffffffffffff1681526020019081526020015f206005015460065f8573ffffffffffffffffffffffffffffffffffffffff1673ffffffffffffffffffffffffffffffffffffffff1681526020019081526020015f205f8373ffffffffffffffffffffffffffffffffffffffff1673ffffffffffffffffffffffffffffffffffffffff1681526020019081526020015f20819055505b5080806001019150506134f8565b5060075f8673ffffffffffffffffffffffffffffffffffffffff1673ffffffffffffffffffffffffffffffffffffffff1681526020019081526020015f205f8573ffffffffffffffffffffffffffffffffffffffff1673ffffffffffffffffffffffffffffffffffffffff1681526020019081526020015f205491505f8211156138f7575f60075f8773ffffffffffffffffffffffffffffffffffffffff1673ffffffffffffffffffffffffffffffffffffffff1681526020019081526020015f205f8673ffffffffffffffffffffffffffffffffffffffff1673ffffffffffffffffffffffffffffffffffffffff1681526020019081526020015f208190555061388f83838673ffffffffffffffffffffffffffffffffffffffff166132af9092919063ffffffff16565b8373ffffffffffffffffffffffffffffffffffffffff168573ffffffffffffffffffffffffffffffffffffffff167f7fe1dfb5fd2a01640e1b559e082ce63e369d4d61e01dc0caec9521e55a8d1e4f84866040516138ee9291906146be565b60405180910390a35b509392505050565b6040518060c001604052805f73ffffffffffffffffffffffffffffffffffffffff1681526020015f81526020015f81526020015f81526020015f81526020015f81525090565b5f604051905090565b5f5ffd5b5f5ffd5b5f73ffffffffffffffffffffffffffffffffffffffff82169050919050565b5f61397f82613956565b9050919050565b61398f81613975565b8114613999575f5ffd5b50565b5f813590506139aa81613986565b92915050565b5f602082840312156139c5576139c461394e565b5b5f6139d28482850161399c565b91505092915050565b5f81519050919050565b5f82825260208201905092915050565b5f819050602082019050919050565b613a0d81613975565b82525050565b5f819050919050565b613a2581613a13565b82525050565b60c082015f820151613a3f5f850182613a04565b506020820151613a526020850182613a1c565b506040820151613a656040850182613a1c565b506060820151613a786060850182613a1c565b506080820151613a8b6080850182613a1c565b5060a0820151613a9e60a0850182613a1c565b50505050565b5f613aaf8383613a2b565b60c08301905092915050565b5f602082019050919050565b5f613ad1826139db565b613adb81856139e5565b9350613ae6836139f5565b805f5b83811015613b16578151613afd8882613aa4565b9750613b0883613abb565b925050600181019050613ae9565b5085935050505092915050565b5f6020820190508181035f830152613b3b8184613ac7565b905092915050565b613b4c81613a13565b82525050565b5f602082019050613b655f830184613b43565b92915050565b5f8115159050919050565b613b7f81613b6b565b8114613b89575f5ffd5b50565b5f81359050613b9a81613b76565b92915050565b5f60208284031215613bb557613bb461394e565b5b5f613bc284828501613b8c565b91505092915050565b5f5f60408385031215613be157613be061394e565b5b5f613bee8582860161399c565b9250506020613bff8582860161399c565b9150509250929050565b613c1281613a13565b8114613c1c575f5ffd5b50565b5f81359050613c2d81613c09565b92915050565b5f5f60408385031215613c4957613c4861394e565b5b5f613c568582860161399c565b9250506020613c6785828601613c1f565b9150509250929050565b5f60208284031215613c8657613c8561394e565b5b5f613c9384828501613c1f565b91505092915050565b613ca581613975565b82525050565b5f60c082019050613cbe5f830189613c9c565b613ccb6020830188613b43565b613cd86040830187613b43565b613ce56060830186613b43565b613cf26080830185613b43565b613cff60a0830184613b43565b979650505050505050565b5f819050919050565b5f613d2d613d28613d2384613956565b613d0a565b613956565b9050919050565b5f613d3e82613d13565b9050919050565b5f613d4f82613d34565b9050919050565b613d5f81613d45565b82525050565b5f602082019050613d785f830184613d56565b92915050565b5f613d8882613975565b9050919050565b613d9881613d7e565b8114613da2575f5ffd5b50565b5f81359050613db381613d8f565b92915050565b5f60208284031215613dce57613dcd61394e565b5b5f613ddb84828501613da5565b91505092915050565b5f602082019050613df75f830184613c9c565b92915050565b5f5f5f5f60808587031215613e1557613e1461394e565b5b5f613e228782880161399c565b9450506020613e338782880161399c565b9350506040613e4487828801613c1f565b9250506060613e558782880161399c565b91505092959194509250565b613e6a81613b6b565b82525050565b5f602082019050613e835f830184613e61565b92915050565b5f613e9382613d34565b9050919050565b613ea381613e89565b82525050565b5f602082019050613ebc5f830184613e9a565b92915050565b5f613ecc82613d34565b9050919050565b613edc81613ec2565b82525050565b5f602082019050613ef55f830184613ed3565b92915050565b5f5ffd5b5f601f19601f8301169050919050565b7f4e487b71000000000000000000000000000000000000000000000000000000005f52604160045260245ffd5b613f4582613eff565b810181811067ffffffffffffffff82111715613f6457613f63613f0f565b5b80604052505050565b5f613f76613945565b9050613f828282613f3c565b919050565b5f67ffffffffffffffff821115613fa157613fa0613f0f565b5b602082029050602081019050919050565b5f5ffd5b5f613fc8613fc384613f87565b613f6d565b90508083825260208201905060208402830185811115613feb57613fea613fb2565b5b835b818110156140145780614000888261399c565b845260208401935050602081019050613fed565b5050509392505050565b5f82601f83011261403257614031613efb565b5b8135614042848260208601613fb6565b91505092915050565b5f602082840312156140605761405f61394e565b5b5f82013567ffffffffffffffff81111561407d5761407c613952565b5b6140898482850161401e565b91505092915050565b5f81519050919050565b5f82825260208201905092915050565b5f819050602082019050919050565b5f6140c68383613a1c565b60208301905092915050565b5f602082019050919050565b5f6140e882614092565b6140f2818561409c565b93506140fd836140ac565b805f5b8381101561412d57815161411488826140bb565b975061411f836140d2565b925050600181019050614100565b5085935050505092915050565b5f6020820190508181035f83015261415281846140de565b905092915050565b5f61416482613d34565b9050919050565b6141748161415a565b82525050565b5f60208201905061418d5f83018461416b565b92915050565b7f4e487b71000000000000000000000000000000000000000000000000000000005f52603260045260245ffd5b5f82825260208201905092915050565b7f554e415554484f52495a454400000000000000000000000000000000000000005f82015250565b5f614204600c836141c0565b915061420f826141d0565b602082019050919050565b5f6020820190508181035f830152614231816141f8565b9050919050565b5f61424282613975565b9050919050565b61425281614238565b811461425c575f5ffd5b50565b5f8151905061426d81614249565b92915050565b5f602082840312156142885761428761394e565b5b5f6142958482850161425f565b91505092915050565b7f4e487b71000000000000000000000000000000000000000000000000000000005f52601160045260245ffd5b5f6142d582613a13565b91506142e083613a13565b92508282026142ee81613a13565b915082820484148315176143055761430461429e565b5b5092915050565b7f4e487b71000000000000000000000000000000000000000000000000000000005f52601260045260245ffd5b5f61434382613a13565b915061434e83613a13565b92508261435e5761435d61430c565b5b828204905092915050565b5f61437382613a13565b915061437e83613a13565b92508282039050818111156143965761439561429e565b5b92915050565b5f819050919050565b5f6143bf6143ba6143b58461439c565b613d0a565b613a13565b9050919050565b6143cf816143a5565b82525050565b5f6060820190506143e85f830186613b43565b6143f560208301856143c6565b6144026040830184613c9c565b949350505050565b5f8151905061441881613c09565b92915050565b5f602082840312156144335761443261394e565b5b5f6144408482850161440a565b91505092915050565b5f60608201905061445c5f830186613b43565b6144696020830185613b43565b6144766040830184613b43565b949350505050565b5f61448882613a13565b915061449383613a13565b92508282019050808211156144ab576144aa61429e565b5b92915050565b5f815190506144bf81613b76565b92915050565b5f602082840312156144da576144d961394e565b5b5f6144e7848285016144b1565b91505092915050565b5f6040820190506145035f830185613c9c565b6145106020830184613b43565b9392505050565b5f7fffffffff0000000000000000000000000000000000000000000000000000000082169050919050565b61454b81614517565b82525050565b5f6060820190506145645f830186613c9c565b6145716020830185613c9c565b61457e6040830184614542565b949350505050565b7f5452414e534645525f4641494c454400000000000000000000000000000000005f82015250565b5f6145ba600f836141c0565b91506145c582614586565b602082019050919050565b5f6020820190508181035f8301526145e7816145ae565b9050919050565b7f415050524f56455f4641494c45440000000000000000000000000000000000005f82015250565b5f614622600e836141c0565b915061462d826145ee565b602082019050919050565b5f6020820190508181035f83015261464f81614616565b9050919050565b7f5452414e534645525f46524f4d5f4641494c45440000000000000000000000005f82015250565b5f61468a6014836141c0565b915061469582614656565b602082019050919050565b5f6020820190508181035f8301526146b78161467e565b9050919050565b5f6040820190506146d15f830185613b43565b6146de6020830184613c9c565b939250505056fea264697066735822122003b0411ea2cacdeb7383b3e650171adb955d53c2483d5396953fd770815faed064736f6c634300081e0033",
  "linkReferences": {},
  "deployedLinkReferences": {},
  "immutableReferences": {
    "10363": [
      {
        "length": 32,
        "start": 2489
      },
      {
        "length": 32,
        "start": 3250
      },
      {
        "length": 32,
        "start": 4033
      },
      {
        "length": 32,
        "start": 4723
      },
      {
        "length": 32,
        "start": 6410
      },
      {
        "length": 32,
        "start": 11376
      },
      {
        "length": 32,
        "start": 11594
      },
      {
        "length": 32,
        "start": 12628
      }
    ],
    "10366": [
      {
        "length": 32,
        "start": 3323
      },
      {
        "length": 32,
        "start": 6190
      }
    ]
  },
  "inputSourceName": "project/contracts/core/Distributor.sol",
  "buildInfoId": "solc-0_8_30-e7ac28edc80ee071fd8bf3e691f238b4916e4080"
}