{
  "_format": "hh3-artifact-1",
  "contractName": "RolesAuthority",
  "sourceName": "contracts/auth/RolesAuthority.sol",
  "abi": [
    {
      "inputs": [
        {
          "internalType": "address",
          "name": "_auth",
          "type": "address"
        }
      ],
      "stateMutability": "nonpayable",
      "type": "constructor"
    },
    {
      "anonymous": false,
      "inputs": [
        {
          "indexed": true,
          "internalType": "address",
          "name": "user",
          "type": "address"
        },
        {
          "indexed": true,
          "internalType": "contract Authority",
          "name": "newAuthority",
          "type": "address"
        }
      ],
      "name": "AuthorityUpdated",
      "type": "event"
    },
    {
      "anonymous": false,
      "inputs": [
        {
          "indexed": true,
          "internalType": "address",
          "name": "user",
          "type": "address"
        },
        {
          "indexed": true,
          "internalType": "address",
          "name": "newOwner",
          "type": "address"
        }
      ],
      "name": "OwnershipTransferred",
      "type": "event"
    },
    {
      "anonymous": false,
      "inputs": [
        {
          "indexed": true,
          "internalType": "address",
          "name": "target",
          "type": "address"
        },
        {
          "indexed": true,
          "internalType": "bytes4",
          "name": "functionSig",
          "type": "bytes4"
        },
        {
          "indexed": false,
          "internalType": "bool",
          "name": "enabled",
          "type": "bool"
        }
      ],
      "name": "PublicCapabilityUpdated",
      "type": "event"
    },
    {
      "anonymous": false,
      "inputs": [
        {
          "indexed": true,
          "internalType": "uint8",
          "name": "role",
          "type": "uint8"
        },
        {
          "indexed": true,
          "internalType": "address",
          "name": "target",
          "type": "address"
        },
        {
          "indexed": true,
          "internalType": "bytes4",
          "name": "functionSig",
          "type": "bytes4"
        },
        {
          "indexed": false,
          "internalType": "bool",
          "name": "enabled",
          "type": "bool"
        }
      ],
      "name": "RoleCapabilityUpdated",
      "type": "event"
    },
    {
      "anonymous": false,
      "inputs": [
        {
          "indexed": true,
          "internalType": "address",
          "name": "user",
          "type": "address"
        },
        {
          "indexed": true,
          "internalType": "uint8",
          "name": "role",
          "type": "uint8"
        },
        {
          "indexed": false,
          "internalType": "bool",
          "name": "enabled",
          "type": "bool"
        }
      ],
      "name": "UserRoleUpdated",
      "type": "event"
    },
    {
      "inputs": [],
      "name": "authority",
      "outputs": [
        {
          "internalType": "contract Authority",
          "name": "",
          "type": "address"
        }
      ],
      "stateMutability": "view",
      "type": "function"
    },
    {
      "inputs": [
        {
          "internalType": "address",
          "name": "user",
          "type": "address"
        },
        {
          "internalType": "address",
          "name": "target",
          "type": "address"
        },
        {
          "internalType": "bytes4",
          "name": "functionSig",
          "type": "bytes4"
        }
      ],
      "name": "canCall",
      "outputs": [
        {
          "internalType": "bool",
          "name": "",
          "type": "bool"
        }
      ],
      "stateMutability": "view",
      "type": "function"
    },
    {
      "inputs": [
        {
          "internalType": "uint8",
          "name": "role",
          "type": "uint8"
        },
        {
          "internalType": "address",
          "name": "target",
          "type": "address"
        },
        {
          "internalType": "bytes4",
          "name": "functionSig",
          "type": "bytes4"
        }
      ],
      "name": "doesRoleHaveCapability",
      "outputs": [
        {
          "internalType": "bool",
          "name": "",
          "type": "bool"
        }
      ],
      "stateMutability": "view",
      "type": "function"
    },
    {
      "inputs": [
        {
          "internalType": "address",
          "name": "user",
          "type": "address"
        },
        {
          "internalType": "uint8",
          "name": "role",
          "type": "uint8"
        }
      ],
      "name": "doesUserHaveRole",
      "outputs": [
        {
          "internalType": "bool",
          "name": "",
          "type": "bool"
        }
      ],
      "stateMutability": "view",
      "type": "function"
    },
    {
      "inputs": [
        {
          "internalType": "address",
          "name": "",
          "type": "address"
        },
        {
          "internalType": "bytes4",
          "name": "",
          "type": "bytes4"
        }
      ],
      "name": "getRolesWithCapability",
      "outputs": [
        {
          "internalType": "bytes32",
          "name": "",
          "type": "bytes32"
        }
      ],
      "stateMutability": "view",
      "type": "function"
    },
    {
      "inputs": [
        {
          "internalType": "address",
          "name": "",
          "type": "address"
        }
      ],
      "name": "getUserRoles",
      "outputs": [
        {
          "internalType": "bytes32",
          "name": "",
          "type": "bytes32"
        }
      ],
      "stateMutability": "view",
      "type": "function"
    },
    {
      "inputs": [
        {
          "internalType": "address",
          "name": "",
          "type": "address"
        },
        {
          "internalType": "bytes4",
          "name": "",
          "type": "bytes4"
        }
      ],
      "name": "isCapabilityPublic",
      "outputs": [
        {
          "internalType": "bool",
          "name": "",
          "type": "bool"
        }
      ],
      "stateMutability": "view",
      "type": "function"
    },
    {
      "inputs": [],
      "name": "owner",
      "outputs": [
        {
          "internalType": "address",
          "name": "",
          "type": "address"
        }
      ],
      "stateMutability": "view",
      "type": "function"
    },
    {
      "inputs": [
        {
          "internalType": "contract Authority",
          "name": "newAuthority",
          "type": "address"
        }
      ],
      "name": "setAuthority",
      "outputs": [],
      "stateMutability": "nonpayable",
      "type": "function"
    },
    {
      "inputs": [
        {
          "internalType": "address",
          "name": "target",
          "type": "address"
        },
        {
          "internalType": "bytes4",
          "name": "functionSig",
          "type": "bytes4"
        },
        {
          "internalType": "bool",
          "name": "enabled",
          "type": "bool"
        }
      ],
      "name": "setPublicCapability",
      "outputs": [],
      "stateMutability": "nonpayable",
      "type": "function"
    },
    {
      "inputs": [
        {
          "internalType": "uint8",
          "name": "role",
          "type": "uint8"
        },
        {
          "internalType": "address",
          "name": "target",
          "type": "address"
        },
        {
          "internalType": "bytes4",
          "name": "functionSig",
          "type": "bytes4"
        },
        {
          "internalType": "bool",
          "name": "enabled",
          "type": "bool"
        }
      ],
      "name": "setRoleCapability",
      "outputs": [],
      "stateMutability": "nonpayable",
      "type": "function"
    },
    {
      "inputs": [
        {
          "internalType": "address",
          "name": "user",
          "type": "address"
        },
        {
          "internalType": "uint8",
          "name": "role",
          "type": "uint8"
        },
        {
          "internalType": "bool",
          "name": "enabled",
          "type": "bool"
        }
      ],
      "name": "setUserRole",
      "outputs": [],
      "stateMutability": "nonpayable",
      "type": "function"
    },
    {
      "inputs": [
        {
          "internalType": "address",
          "name": "newOwner",
          "type": "address"
        }
      ],
      "name": "transferOwnership",
      "outputs": [],
      "stateMutability": "nonpayable",
      "type": "function"
    }
  ],
  "bytecode": "0x608060405234801561000f575f5ffd5b506040516116f03803806116f0833981810160405281019061003191906101d0565b33818181815f5f6101000a81548173ffffffffffffffffffffffffffffffffffffffff021916908373ffffffffffffffffffffffffffffffffffffffff1602179055508060015f6101000a81548173ffffffffffffffffffffffffffffffffffffffff021916908373ffffffffffffffffffffffffffffffffffffffff1602179055508173ffffffffffffffffffffffffffffffffffffffff163373ffffffffffffffffffffffffffffffffffffffff167f8be0079c531659141344cd1fd0a4f28419497f9722a3daafe3b4186f6b6457e060405160405180910390a38073ffffffffffffffffffffffffffffffffffffffff163373ffffffffffffffffffffffffffffffffffffffff167fa3396fd7f6e0a21b50e5089d2da70d5ac0a3bbbd1f617a93f134b7638998019860405160405180910390a350505050506101fb565b5f5ffd5b5f73ffffffffffffffffffffffffffffffffffffffff82169050919050565b5f61019f82610176565b9050919050565b6101af81610195565b81146101b9575f5ffd5b50565b5f815190506101ca816101a6565b92915050565b5f602082840312156101e5576101e4610172565b5b5f6101f2848285016101bc565b91505092915050565b6114e8806102085f395ff3fe608060405234801561000f575f5ffd5b50600436106100cd575f3560e01c80638da5cb5b1161008a578063bf7e214f11610064578063bf7e214f14610233578063c6b0263e14610251578063ea7ca2761461026d578063f2fde38b1461029d576100cd565b80638da5cb5b146101b5578063b4bad06a146101d3578063b700961314610203576100cd565b806306a36aee146100d15780632f47571f1461010157806367aff484146101315780637917b7941461014d5780637a9e5e4b1461017d5780637d40583d14610199575b5f5ffd5b6100eb60048036038101906100e69190610f51565b6102b9565b6040516100f89190610f94565b60405180910390f35b61011b60048036038101906101169190611002565b6102ce565b604051610128919061105a565b60405180910390f35b61014b600480360381019061014691906110d3565b6102f8565b005b61016760048036038101906101629190611002565b61046e565b6040516101749190610f94565b60405180910390f35b6101976004803603810190610192919061115e565b61048e565b005b6101b360048036038101906101ae9190611189565b610649565b005b6101bd61087a565b6040516101ca91906111fc565b60405180910390f35b6101ed60048036038101906101e89190611215565b61089e565b6040516101fa919061105a565b60405180910390f35b61021d60048036038101906102189190611265565b610941565b60405161022a919061105a565b60405180910390f35b61023b610ab8565b6040516102489190611310565b60405180910390f35b61026b60048036038101906102669190611329565b610add565b005b61028760048036038101906102829190611379565b610c5d565b604051610294919061105a565b60405180910390f35b6102b760048036038101906102b29190610f51565b610cb2565b005b6002602052805f5260405f205f915090505481565b6003602052815f5260405f20602052805f5260405f205f915091509054906101000a900460ff1681565b610325335f357fffffffff0000000000000000000000000000000000000000000000000000000016610dba565b610364576040517f08c379a000000000000000000000000000000000000000000000000000000000815260040161035b90611411565b60405180910390fd5b80156103c2578160ff166001901b5f1b60025f8573ffffffffffffffffffffffffffffffffffffffff1673ffffffffffffffffffffffffffffffffffffffff1681526020019081526020015f205f8282541792505081905550610417565b8160ff166001901b5f1b1960025f8573ffffffffffffffffffffffffffffffffffffffff1673ffffffffffffffffffffffffffffffffffffffff1681526020019081526020015f205f82825416925050819055505b8160ff168373ffffffffffffffffffffffffffffffffffffffff167f4c9bdd0c8e073eb5eda2250b18d8e5121ff27b62064fbeeeed4869bb99bc5bf283604051610461919061105a565b60405180910390a3505050565b6004602052815f5260405f20602052805f5260405f205f91509150505481565b5f5f9054906101000a900473ffffffffffffffffffffffffffffffffffffffff1673ffffffffffffffffffffffffffffffffffffffff163373ffffffffffffffffffffffffffffffffffffffff1614806105a4575060015f9054906101000a900473ffffffffffffffffffffffffffffffffffffffff1673ffffffffffffffffffffffffffffffffffffffff1663b700961333305f357fffffffff00000000000000000000000000000000000000000000000000000000166040518463ffffffff1660e01b81526004016105649392919061143e565b602060405180830381865afa15801561057f573d5f5f3e3d5ffd5b505050506040513d601f19601f820116820180604052508101906105a39190611487565b5b6105ac575f5ffd5b8060015f6101000a81548173ffffffffffffffffffffffffffffffffffffffff021916908373ffffffffffffffffffffffffffffffffffffffff1602179055508073ffffffffffffffffffffffffffffffffffffffff163373ffffffffffffffffffffffffffffffffffffffff167fa3396fd7f6e0a21b50e5089d2da70d5ac0a3bbbd1f617a93f134b7638998019860405160405180910390a350565b610676335f357fffffffff0000000000000000000000000000000000000000000000000000000016610dba565b6106b5576040517f08c379a00000000000000000000000000000000000000000000000000000000081526004016106ac90611411565b60405180910390fd5b8015610760578360ff166001901b5f1b60045f8573ffffffffffffffffffffffffffffffffffffffff1673ffffffffffffffffffffffffffffffffffffffff1681526020019081526020015f205f847bffffffffffffffffffffffffffffffffffffffffffffffffffffffff19167bffffffffffffffffffffffffffffffffffffffffffffffffffffffff191681526020019081526020015f205f8282541792505081905550610802565b8360ff166001901b5f1b1960045f8573ffffffffffffffffffffffffffffffffffffffff1673ffffffffffffffffffffffffffffffffffffffff1681526020019081526020015f205f847bffffffffffffffffffffffffffffffffffffffffffffffffffffffff19167bffffffffffffffffffffffffffffffffffffffffffffffffffffffff191681526020019081526020015f205f82825416925050819055505b817bffffffffffffffffffffffffffffffffffffffffffffffffffffffff19168373ffffffffffffffffffffffffffffffffffffffff168560ff167fa52ea92e6e955aa8ac66420b86350f7139959adfcc7e6a14eee1bd116d09860e8460405161086c919061105a565b60405180910390a450505050565b5f5f9054906101000a900473ffffffffffffffffffffffffffffffffffffffff1681565b5f5f60018560ff1660045f8773ffffffffffffffffffffffffffffffffffffffff1673ffffffffffffffffffffffffffffffffffffffff1681526020019081526020015f205f867bffffffffffffffffffffffffffffffffffffffffffffffffffffffff19167bffffffffffffffffffffffffffffffffffffffffffffffffffffffff191681526020019081526020015f20545f1c901c16141590509392505050565b5f60035f8473ffffffffffffffffffffffffffffffffffffffff1673ffffffffffffffffffffffffffffffffffffffff1681526020019081526020015f205f837bffffffffffffffffffffffffffffffffffffffffffffffffffffffff19167bffffffffffffffffffffffffffffffffffffffffffffffffffffffff191681526020019081526020015f205f9054906101000a900460ff1680610aaf575060045f8473ffffffffffffffffffffffffffffffffffffffff1673ffffffffffffffffffffffffffffffffffffffff1681526020019081526020015f205f837bffffffffffffffffffffffffffffffffffffffffffffffffffffffff19167bffffffffffffffffffffffffffffffffffffffffffffffffffffffff191681526020019081526020015f205460025f8673ffffffffffffffffffffffffffffffffffffffff1673ffffffffffffffffffffffffffffffffffffffff1681526020019081526020015f2054165f5f1b14155b90509392505050565b60015f9054906101000a900473ffffffffffffffffffffffffffffffffffffffff1681565b610b0a335f357fffffffff0000000000000000000000000000000000000000000000000000000016610dba565b610b49576040517f08c379a0000000000000000000000000000000000000000000000000000000008152600401610b4090611411565b60405180910390fd5b8060035f8573ffffffffffffffffffffffffffffffffffffffff1673ffffffffffffffffffffffffffffffffffffffff1681526020019081526020015f205f847bffffffffffffffffffffffffffffffffffffffffffffffffffffffff19167bffffffffffffffffffffffffffffffffffffffffffffffffffffffff191681526020019081526020015f205f6101000a81548160ff021916908315150217905550817bffffffffffffffffffffffffffffffffffffffffffffffffffffffff19168373ffffffffffffffffffffffffffffffffffffffff167f950a343f5d10445e82a71036d3f4fb3016180a25805141932543b83e2078a93e83604051610c50919061105a565b60405180910390a3505050565b5f5f60018360ff1660025f8773ffffffffffffffffffffffffffffffffffffffff1673ffffffffffffffffffffffffffffffffffffffff1681526020019081526020015f20545f1c901c161415905092915050565b610cdf335f357fffffffff0000000000000000000000000000000000000000000000000000000016610dba565b610d1e576040517f08c379a0000000000000000000000000000000000000000000000000000000008152600401610d1590611411565b60405180910390fd5b805f5f6101000a81548173ffffffffffffffffffffffffffffffffffffffff021916908373ffffffffffffffffffffffffffffffffffffffff1602179055508073ffffffffffffffffffffffffffffffffffffffff163373ffffffffffffffffffffffffffffffffffffffff167f8be0079c531659141344cd1fd0a4f28419497f9722a3daafe3b4186f6b6457e060405160405180910390a350565b5f5f60015f9054906101000a900473ffffffffffffffffffffffffffffffffffffffff1690505f73ffffffffffffffffffffffffffffffffffffffff168173ffffffffffffffffffffffffffffffffffffffff1614158015610e9457508073ffffffffffffffffffffffffffffffffffffffff1663b70096138530866040518463ffffffff1660e01b8152600401610e549392919061143e565b602060405180830381865afa158015610e6f573d5f5f3e3d5ffd5b505050506040513d601f19601f82011682018060405250810190610e939190611487565b5b80610eea57505f5f9054906101000a900473ffffffffffffffffffffffffffffffffffffffff1673ffffffffffffffffffffffffffffffffffffffff168473ffffffffffffffffffffffffffffffffffffffff16145b91505092915050565b5f5ffd5b5f73ffffffffffffffffffffffffffffffffffffffff82169050919050565b5f610f2082610ef7565b9050919050565b610f3081610f16565b8114610f3a575f5ffd5b50565b5f81359050610f4b81610f27565b92915050565b5f60208284031215610f6657610f65610ef3565b5b5f610f7384828501610f3d565b91505092915050565b5f819050919050565b610f8e81610f7c565b82525050565b5f602082019050610fa75f830184610f85565b92915050565b5f7fffffffff0000000000000000000000000000000000000000000000000000000082169050919050565b610fe181610fad565b8114610feb575f5ffd5b50565b5f81359050610ffc81610fd8565b92915050565b5f5f6040838503121561101857611017610ef3565b5b5f61102585828601610f3d565b925050602061103685828601610fee565b9150509250929050565b5f8115159050919050565b61105481611040565b82525050565b5f60208201905061106d5f83018461104b565b92915050565b5f60ff82169050919050565b61108881611073565b8114611092575f5ffd5b50565b5f813590506110a38161107f565b92915050565b6110b281611040565b81146110bc575f5ffd5b50565b5f813590506110cd816110a9565b92915050565b5f5f5f606084860312156110ea576110e9610ef3565b5b5f6110f786828701610f3d565b935050602061110886828701611095565b9250506040611119868287016110bf565b9150509250925092565b5f61112d82610f16565b9050919050565b61113d81611123565b8114611147575f5ffd5b50565b5f8135905061115881611134565b92915050565b5f6020828403121561117357611172610ef3565b5b5f6111808482850161114a565b91505092915050565b5f5f5f5f608085870312156111a1576111a0610ef3565b5b5f6111ae87828801611095565b94505060206111bf87828801610f3d565b93505060406111d087828801610fee565b92505060606111e1878288016110bf565b91505092959194509250565b6111f681610f16565b82525050565b5f60208201905061120f5f8301846111ed565b92915050565b5f5f5f6060848603121561122c5761122b610ef3565b5b5f61123986828701611095565b935050602061124a86828701610f3d565b925050604061125b86828701610fee565b9150509250925092565b5f5f5f6060848603121561127c5761127b610ef3565b5b5f61128986828701610f3d565b935050602061129a86828701610f3d565b92505060406112ab86828701610fee565b9150509250925092565b5f819050919050565b5f6112d86112d36112ce84610ef7565b6112b5565b610ef7565b9050919050565b5f6112e9826112be565b9050919050565b5f6112fa826112df565b9050919050565b61130a816112f0565b82525050565b5f6020820190506113235f830184611301565b92915050565b5f5f5f606084860312156113405761133f610ef3565b5b5f61134d86828701610f3d565b935050602061135e86828701610fee565b925050604061136f868287016110bf565b9150509250925092565b5f5f6040838503121561138f5761138e610ef3565b5b5f61139c85828601610f3d565b92505060206113ad85828601611095565b9150509250929050565b5f82825260208201905092915050565b7f554e415554484f52495a454400000000000000000000000000000000000000005f82015250565b5f6113fb600c836113b7565b9150611406826113c7565b602082019050919050565b5f6020820190508181035f830152611428816113ef565b9050919050565b61143881610fad565b82525050565b5f6060820190506114515f8301866111ed565b61145e60208301856111ed565b61146b604083018461142f565b949350505050565b5f81519050611481816110a9565b92915050565b5f6020828403121561149c5761149b610ef3565b5b5f6114a984828501611473565b9150509291505056fea264697066735822122039f26c593919f62b6eb8d2a9589b036ffb8bce07958e88b64f9d435274bc321e64736f6c634300081e0033",
  "linkReferences": {},
  "deployedLinkReferences": {},
  "immutableReferences": {},
  "inputSourceName": "project/contracts/auth/RolesAuthority.sol",
  "buildInfoId": "solc-0_8_30-c343951cd4ea2dd0f437bcf4da6c38bb2f2936dc"
}