{
  "_format": "hh3-artifact-1",
  "contractName": "BoringVault",
  "sourceName": "contracts/core/BoringVault.sol",
  "abi": [
    {
      "inputs": [
        {
          "internalType": "address",
          "name": "_primeRBAC",
          "type": "address"
        },
        {
          "internalType": "address",
          "name": "_authority",
          "type": "address"
        },
        {
          "internalType": "string",
          "name": "_name",
          "type": "string"
        },
        {
          "internalType": "string",
          "name": "_symbol",
          "type": "string"
        },
        {
          "internalType": "address",
          "name": "_asset",
          "type": "address"
        }
      ],
      "stateMutability": "nonpayable",
      "type": "constructor"
    },
    {
      "inputs": [
        {
          "internalType": "address",
          "name": "target",
          "type": "address"
        }
      ],
      "name": "AddressEmptyCode",
      "type": "error"
    },
    {
      "inputs": [],
      "name": "BoringVault__InvalidAsset",
      "type": "error"
    },
    {
      "inputs": [],
      "name": "FailedCall",
      "type": "error"
    },
    {
      "inputs": [
        {
          "internalType": "uint256",
          "name": "balance",
          "type": "uint256"
        },
        {
          "internalType": "uint256",
          "name": "needed",
          "type": "uint256"
        }
      ],
      "name": "InsufficientBalance",
      "type": "error"
    },
    {
      "inputs": [],
      "name": "NOT_PROTOCOL_ADMIN",
      "type": "error"
    },
    {
      "inputs": [],
      "name": "ZERO_ADDRESS",
      "type": "error"
    },
    {
      "anonymous": false,
      "inputs": [
        {
          "indexed": true,
          "internalType": "address",
          "name": "owner",
          "type": "address"
        },
        {
          "indexed": true,
          "internalType": "address",
          "name": "spender",
          "type": "address"
        },
        {
          "indexed": false,
          "internalType": "uint256",
          "name": "amount",
          "type": "uint256"
        }
      ],
      "name": "Approval",
      "type": "event"
    },
    {
      "anonymous": false,
      "inputs": [
        {
          "indexed": true,
          "internalType": "address",
          "name": "user",
          "type": "address"
        },
        {
          "indexed": true,
          "internalType": "contract Authority",
          "name": "newAuthority",
          "type": "address"
        }
      ],
      "name": "AuthorityUpdated",
      "type": "event"
    },
    {
      "anonymous": false,
      "inputs": [
        {
          "indexed": true,
          "internalType": "address",
          "name": "from",
          "type": "address"
        },
        {
          "indexed": true,
          "internalType": "address",
          "name": "asset",
          "type": "address"
        },
        {
          "indexed": false,
          "internalType": "uint256",
          "name": "amount",
          "type": "uint256"
        },
        {
          "indexed": true,
          "internalType": "address",
          "name": "to",
          "type": "address"
        },
        {
          "indexed": false,
          "internalType": "uint256",
          "name": "shares",
          "type": "uint256"
        }
      ],
      "name": "Enter",
      "type": "event"
    },
    {
      "anonymous": false,
      "inputs": [
        {
          "indexed": true,
          "internalType": "address",
          "name": "to",
          "type": "address"
        },
        {
          "indexed": true,
          "internalType": "address",
          "name": "asset",
          "type": "address"
        },
        {
          "indexed": false,
          "internalType": "uint256",
          "name": "amount",
          "type": "uint256"
        },
        {
          "indexed": true,
          "internalType": "address",
          "name": "from",
          "type": "address"
        },
        {
          "indexed": false,
          "internalType": "uint256",
          "name": "shares",
          "type": "uint256"
        }
      ],
      "name": "Exit",
      "type": "event"
    },
    {
      "anonymous": false,
      "inputs": [
        {
          "indexed": true,
          "internalType": "address",
          "name": "user",
          "type": "address"
        },
        {
          "indexed": true,
          "internalType": "address",
          "name": "newOwner",
          "type": "address"
        }
      ],
      "name": "OwnershipTransferred",
      "type": "event"
    },
    {
      "anonymous": false,
      "inputs": [],
      "name": "Paused",
      "type": "event"
    },
    {
      "anonymous": false,
      "inputs": [
        {
          "indexed": true,
          "internalType": "address",
          "name": "from",
          "type": "address"
        },
        {
          "indexed": true,
          "internalType": "address",
          "name": "to",
          "type": "address"
        },
        {
          "indexed": false,
          "internalType": "uint256",
          "name": "amount",
          "type": "uint256"
        }
      ],
      "name": "Transfer",
      "type": "event"
    },
    {
      "anonymous": false,
      "inputs": [],
      "name": "Unpaused",
      "type": "event"
    },
    {
      "inputs": [],
      "name": "DOMAIN_SEPARATOR",
      "outputs": [
        {
          "internalType": "bytes32",
          "name": "",
          "type": "bytes32"
        }
      ],
      "stateMutability": "view",
      "type": "function"
    },
    {
      "inputs": [
        {
          "internalType": "address",
          "name": "",
          "type": "address"
        },
        {
          "internalType": "address",
          "name": "",
          "type": "address"
        }
      ],
      "name": "allowance",
      "outputs": [
        {
          "internalType": "uint256",
          "name": "",
          "type": "uint256"
        }
      ],
      "stateMutability": "view",
      "type": "function"
    },
    {
      "inputs": [
        {
          "internalType": "address",
          "name": "spender",
          "type": "address"
        },
        {
          "internalType": "uint256",
          "name": "amount",
          "type": "uint256"
        }
      ],
      "name": "approve",
      "outputs": [
        {
          "internalType": "bool",
          "name": "",
          "type": "bool"
        }
      ],
      "stateMutability": "nonpayable",
      "type": "function"
    },
    {
      "inputs": [],
      "name": "asset",
      "outputs": [
        {
          "internalType": "contract ERC20",
          "name": "",
          "type": "address"
        }
      ],
      "stateMutability": "view",
      "type": "function"
    },
    {
      "inputs": [],
      "name": "authority",
      "outputs": [
        {
          "internalType": "contract Authority",
          "name": "",
          "type": "address"
        }
      ],
      "stateMutability": "view",
      "type": "function"
    },
    {
      "inputs": [
        {
          "internalType": "address",
          "name": "",
          "type": "address"
        }
      ],
      "name": "balanceOf",
      "outputs": [
        {
          "internalType": "uint256",
          "name": "",
          "type": "uint256"
        }
      ],
      "stateMutability": "view",
      "type": "function"
    },
    {
      "inputs": [],
      "name": "beforeUpdateHook",
      "outputs": [
        {
          "internalType": "contract IBeforeUpdateHook",
          "name": "",
          "type": "address"
        }
      ],
      "stateMutability": "view",
      "type": "function"
    },
    {
      "inputs": [
        {
          "internalType": "address[]",
          "name": "targets",
          "type": "address[]"
        },
        {
          "internalType": "bytes[]",
          "name": "data",
          "type": "bytes[]"
        },
        {
          "internalType": "uint256[]",
          "name": "values",
          "type": "uint256[]"
        }
      ],
      "name": "bulkManage",
      "outputs": [
        {
          "internalType": "bytes[]",
          "name": "results",
          "type": "bytes[]"
        }
      ],
      "stateMutability": "nonpayable",
      "type": "function"
    },
    {
      "inputs": [],
      "name": "decimals",
      "outputs": [
        {
          "internalType": "uint8",
          "name": "",
          "type": "uint8"
        }
      ],
      "stateMutability": "view",
      "type": "function"
    },
    {
      "inputs": [
        {
          "internalType": "address",
          "name": "from",
          "type": "address"
        },
        {
          "internalType": "uint256",
          "name": "assetAmount",
          "type": "uint256"
        },
        {
          "internalType": "address",
          "name": "to",
          "type": "address"
        },
        {
          "internalType": "uint256",
          "name": "shareAmount",
          "type": "uint256"
        }
      ],
      "name": "enter",
      "outputs": [],
      "stateMutability": "nonpayable",
      "type": "function"
    },
    {
      "inputs": [
        {
          "internalType": "address",
          "name": "to",
          "type": "address"
        },
        {
          "internalType": "uint256",
          "name": "assetAmount",
          "type": "uint256"
        },
        {
          "internalType": "address",
          "name": "from",
          "type": "address"
        },
        {
          "internalType": "uint256",
          "name": "shareAmount",
          "type": "uint256"
        }
      ],
      "name": "exit",
      "outputs": [],
      "stateMutability": "nonpayable",
      "type": "function"
    },
    {
      "inputs": [],
      "name": "isPaused",
      "outputs": [
        {
          "internalType": "bool",
          "name": "",
          "type": "bool"
        }
      ],
      "stateMutability": "view",
      "type": "function"
    },
    {
      "inputs": [
        {
          "internalType": "address",
          "name": "target",
          "type": "address"
        },
        {
          "internalType": "bytes",
          "name": "data",
          "type": "bytes"
        },
        {
          "internalType": "uint256",
          "name": "value",
          "type": "uint256"
        }
      ],
      "name": "manage",
      "outputs": [
        {
          "internalType": "bytes",
          "name": "result",
          "type": "bytes"
        }
      ],
      "stateMutability": "nonpayable",
      "type": "function"
    },
    {
      "inputs": [],
      "name": "name",
      "outputs": [
        {
          "internalType": "string",
          "name": "",
          "type": "string"
        }
      ],
      "stateMutability": "view",
      "type": "function"
    },
    {
      "inputs": [
        {
          "internalType": "address",
          "name": "",
          "type": "address"
        }
      ],
      "name": "nonces",
      "outputs": [
        {
          "internalType": "uint256",
          "name": "",
          "type": "uint256"
        }
      ],
      "stateMutability": "view",
      "type": "function"
    },
    {
      "inputs": [
        {
          "internalType": "address",
          "name": "",
          "type": "address"
        },
        {
          "internalType": "address",
          "name": "",
          "type": "address"
        },
        {
          "internalType": "uint256[]",
          "name": "",
          "type": "uint256[]"
        },
        {
          "internalType": "uint256[]",
          "name": "",
          "type": "uint256[]"
        },
        {
          "internalType": "bytes",
          "name": "",
          "type": "bytes"
        }
      ],
      "name": "onERC1155BatchReceived",
      "outputs": [
        {
          "internalType": "bytes4",
          "name": "",
          "type": "bytes4"
        }
      ],
      "stateMutability": "nonpayable",
      "type": "function"
    },
    {
      "inputs": [
        {
          "internalType": "address",
          "name": "",
          "type": "address"
        },
        {
          "internalType": "address",
          "name": "",
          "type": "address"
        },
        {
          "internalType": "uint256",
          "name": "",
          "type": "uint256"
        },
        {
          "internalType": "uint256",
          "name": "",
          "type": "uint256"
        },
        {
          "internalType": "bytes",
          "name": "",
          "type": "bytes"
        }
      ],
      "name": "onERC1155Received",
      "outputs": [
        {
          "internalType": "bytes4",
          "name": "",
          "type": "bytes4"
        }
      ],
      "stateMutability": "nonpayable",
      "type": "function"
    },
    {
      "inputs": [
        {
          "internalType": "address",
          "name": "",
          "type": "address"
        },
        {
          "internalType": "address",
          "name": "",
          "type": "address"
        },
        {
          "internalType": "uint256",
          "name": "",
          "type": "uint256"
        },
        {
          "internalType": "bytes",
          "name": "",
          "type": "bytes"
        }
      ],
      "name": "onERC721Received",
      "outputs": [
        {
          "internalType": "bytes4",
          "name": "",
          "type": "bytes4"
        }
      ],
      "stateMutability": "nonpayable",
      "type": "function"
    },
    {
      "inputs": [],
      "name": "owner",
      "outputs": [
        {
          "internalType": "address",
          "name": "",
          "type": "address"
        }
      ],
      "stateMutability": "view",
      "type": "function"
    },
    {
      "inputs": [],
      "name": "pause",
      "outputs": [],
      "stateMutability": "nonpayable",
      "type": "function"
    },
    {
      "inputs": [
        {
          "internalType": "address",
          "name": "owner",
          "type": "address"
        },
        {
          "internalType": "address",
          "name": "spender",
          "type": "address"
        },
        {
          "internalType": "uint256",
          "name": "value",
          "type": "uint256"
        },
        {
          "internalType": "uint256",
          "name": "deadline",
          "type": "uint256"
        },
        {
          "internalType": "uint8",
          "name": "v",
          "type": "uint8"
        },
        {
          "internalType": "bytes32",
          "name": "r",
          "type": "bytes32"
        },
        {
          "internalType": "bytes32",
          "name": "s",
          "type": "bytes32"
        }
      ],
      "name": "permit",
      "outputs": [],
      "stateMutability": "nonpayable",
      "type": "function"
    },
    {
      "inputs": [],
      "name": "primeRBAC",
      "outputs": [
        {
          "internalType": "contract IPrimeRBAC",
          "name": "",
          "type": "address"
        }
      ],
      "stateMutability": "view",
      "type": "function"
    },
    {
      "inputs": [
        {
          "internalType": "contract Authority",
          "name": "newAuthority",
          "type": "address"
        }
      ],
      "name": "setAuthority",
      "outputs": [],
      "stateMutability": "nonpayable",
      "type": "function"
    },
    {
      "inputs": [
        {
          "internalType": "address",
          "name": "_hook",
          "type": "address"
        }
      ],
      "name": "setBeforeUpdateHook",
      "outputs": [],
      "stateMutability": "nonpayable",
      "type": "function"
    },
    {
      "inputs": [
        {
          "internalType": "bytes4",
          "name": "interfaceId",
          "type": "bytes4"
        }
      ],
      "name": "supportsInterface",
      "outputs": [
        {
          "internalType": "bool",
          "name": "",
          "type": "bool"
        }
      ],
      "stateMutability": "view",
      "type": "function"
    },
    {
      "inputs": [],
      "name": "symbol",
      "outputs": [
        {
          "internalType": "string",
          "name": "",
          "type": "string"
        }
      ],
      "stateMutability": "view",
      "type": "function"
    },
    {
      "inputs": [],
      "name": "totalSupply",
      "outputs": [
        {
          "internalType": "uint256",
          "name": "",
          "type": "uint256"
        }
      ],
      "stateMutability": "view",
      "type": "function"
    },
    {
      "inputs": [
        {
          "internalType": "address",
          "name": "to",
          "type": "address"
        },
        {
          "internalType": "uint256",
          "name": "amount",
          "type": "uint256"
        }
      ],
      "name": "transfer",
      "outputs": [
        {
          "internalType": "bool",
          "name": "",
          "type": "bool"
        }
      ],
      "stateMutability": "nonpayable",
      "type": "function"
    },
    {
      "inputs": [
        {
          "internalType": "address",
          "name": "from",
          "type": "address"
        },
        {
          "internalType": "address",
          "name": "to",
          "type": "address"
        },
        {
          "internalType": "uint256",
          "name": "amount",
          "type": "uint256"
        }
      ],
      "name": "transferFrom",
      "outputs": [
        {
          "internalType": "bool",
          "name": "",
          "type": "bool"
        }
      ],
      "stateMutability": "nonpayable",
      "type": "function"
    },
    {
      "inputs": [
        {
          "internalType": "address",
          "name": "newOwner",
          "type": "address"
        }
      ],
      "name": "transferOwnership",
      "outputs": [],
      "stateMutability": "nonpayable",
      "type": "function"
    },
    {
      "inputs": [],
      "name": "unpause",
      "outputs": [],
      "stateMutability": "nonpayable",
      "type": "function"
    },
    {
      "stateMutability": "payable",
      "type": "receive"
    }
  ],
  "bytecode": "0x610100604052348015610010575f5ffd5b5060405161469938038061469983398181016040528101906100329190610575565b8484338186868673ffffffffffffffffffffffffffffffffffffffff1663313ce5676040518163ffffffff1660e01b8152600401602060405180830381865afa158015610081573d5f5f3e3d5ffd5b505050506040513d601f19601f820116820180604052508101906100a5919061065a565b825f90816100b39190610895565b5081600190816100c39190610895565b508060ff1660808160ff16815250504660a081815250506100e861034460201b60201c565b60c081815250505050508160065f6101000a81548173ffffffffffffffffffffffffffffffffffffffff021916908373ffffffffffffffffffffffffffffffffffffffff1602179055508060075f6101000a81548173ffffffffffffffffffffffffffffffffffffffff021916908373ffffffffffffffffffffffffffffffffffffffff1602179055508173ffffffffffffffffffffffffffffffffffffffff163373ffffffffffffffffffffffffffffffffffffffff167f8be0079c531659141344cd1fd0a4f28419497f9722a3daafe3b4186f6b6457e060405160405180910390a38073ffffffffffffffffffffffffffffffffffffffff163373ffffffffffffffffffffffffffffffffffffffff167fa3396fd7f6e0a21b50e5089d2da70d5ac0a3bbbd1f617a93f134b7638998019860405160405180910390a350505f73ffffffffffffffffffffffffffffffffffffffff168273ffffffffffffffffffffffffffffffffffffffff16148061028d57505f73ffffffffffffffffffffffffffffffffffffffff168173ffffffffffffffffffffffffffffffffffffffff16145b156102c4576040517f538ba4f900000000000000000000000000000000000000000000000000000000815260040160405180910390fd5b8160085f6101000a81548173ffffffffffffffffffffffffffffffffffffffff021916908373ffffffffffffffffffffffffffffffffffffffff16021790555050508073ffffffffffffffffffffffffffffffffffffffff1660e08173ffffffffffffffffffffffffffffffffffffffff16815250505050505050610a9d565b5f7f8b73c3c69bb8fe3d512ecc4cf759cc79239f7b179b0ffacaa9a75d522b39400f5f6040516103749190610a00565b60405180910390207fc89efdaa54c0f20c7adf612882df0950f5a951637e0307cdcb4c672f298b8bc646306040516020016103b3959493929190610a4c565b60405160208183030381529060405280519060200120905090565b5f604051905090565b5f5ffd5b5f5ffd5b5f73ffffffffffffffffffffffffffffffffffffffff82169050919050565b5f610408826103df565b9050919050565b610418816103fe565b8114610422575f5ffd5b50565b5f815190506104338161040f565b92915050565b5f5ffd5b5f5ffd5b5f601f19601f8301169050919050565b7f4e487b71000000000000000000000000000000000000000000000000000000005f52604160045260245ffd5b61048782610441565b810181811067ffffffffffffffff821117156104a6576104a5610451565b5b80604052505050565b5f6104b86103ce565b90506104c4828261047e565b919050565b5f67ffffffffffffffff8211156104e3576104e2610451565b5b6104ec82610441565b9050602081019050919050565b8281835e5f83830152505050565b5f610519610514846104c9565b6104af565b9050828152602081018484840111156105355761053461043d565b5b6105408482856104f9565b509392505050565b5f82601f83011261055c5761055b610439565b5b815161056c848260208601610507565b91505092915050565b5f5f5f5f5f60a0868803121561058e5761058d6103d7565b5b5f61059b88828901610425565b95505060206105ac88828901610425565b945050604086015167ffffffffffffffff8111156105cd576105cc6103db565b5b6105d988828901610548565b935050606086015167ffffffffffffffff8111156105fa576105f96103db565b5b61060688828901610548565b925050608061061788828901610425565b9150509295509295909350565b5f60ff82169050919050565b61063981610624565b8114610643575f5ffd5b50565b5f8151905061065481610630565b92915050565b5f6020828403121561066f5761066e6103d7565b5b5f61067c84828501610646565b91505092915050565b5f81519050919050565b7f4e487b71000000000000000000000000000000000000000000000000000000005f52602260045260245ffd5b5f60028204905060018216806106d357607f821691505b6020821081036106e6576106e561068f565b5b50919050565b5f819050815f5260205f209050919050565b5f6020601f8301049050919050565b5f82821b905092915050565b5f600883026107487fffffffffffffffffffffffffffffffffffffffffffffffffffffffffffffffff8261070d565b610752868361070d565b95508019841693508086168417925050509392505050565b5f819050919050565b5f819050919050565b5f61079661079161078c8461076a565b610773565b61076a565b9050919050565b5f819050919050565b6107af8361077c565b6107c36107bb8261079d565b848454610719565b825550505050565b5f5f905090565b6107da6107cb565b6107e58184846107a6565b505050565b5b81811015610808576107fd5f826107d2565b6001810190506107eb565b5050565b601f82111561084d5761081e816106ec565b610827846106fe565b81016020851015610836578190505b61084a610842856106fe565b8301826107ea565b50505b505050565b5f82821c905092915050565b5f61086d5f1984600802610852565b1980831691505092915050565b5f610885838361085e565b9150826002028217905092915050565b61089e82610685565b67ffffffffffffffff8111156108b7576108b6610451565b5b6108c182546106bc565b6108cc82828561080c565b5f60209050601f8311600181146108fd575f84156108eb578287015190505b6108f5858261087a565b86555061095c565b601f19841661090b866106ec565b5f5b828110156109325784890151825560018201915060208501945060208101905061090d565b8683101561094f578489015161094b601f89168261085e565b8355505b6001600288020188555050505b505050505050565b5f81905092915050565b5f819050815f5260205f209050919050565b5f815461098c816106bc565b6109968186610964565b9450600182165f81146109b057600181146109c5576109f7565b60ff19831686528115158202860193506109f7565b6109ce8561096e565b5f5b838110156109ef578154818901526001820191506020810190506109d0565b838801955050505b50505092915050565b5f610a0b8284610980565b915081905092915050565b5f819050919050565b610a2881610a16565b82525050565b610a378161076a565b82525050565b610a46816103fe565b82525050565b5f60a082019050610a5f5f830188610a1f565b610a6c6020830187610a1f565b610a796040830186610a1f565b610a866060830185610a2e565b610a936080830184610a3d565b9695505050505050565b60805160a05160c05160e051613bad610aec5f395f8181610c2201528181610f0e01528181610f83015281816113c2015261142001525f610a2601525f6109f201525f6109cd0152613bad5ff3fe6080604052600436106101db575f3560e01c80637a9e5e4b11610101578063bc197c8111610094578063e37d7e6811610063578063e37d7e68146106d6578063f23a6e6114610700578063f2fde38b1461073c578063f6e715d014610764576101e2565b8063bc197c811461060c578063bf7e214f14610648578063d505accf14610672578063dd62ed3e1461069a576101e2565b806392f93232116100d057806392f932321461055457806395d89b411461057c578063a9059cbb146105a6578063b187bd26146105e2576101e2565b80637a9e5e4b146104b05780637ecebe00146104d85780638456cb59146105145780638da5cb5b1461052a576101e2565b80633644e515116101795780633f4ba83a116101485780633f4ba83a1461040c578063617fc690146104225780636baf8dbc1461044c57806370a0823114610474576101e2565b80633644e51514610354578063366d7fe11461037e57806338d52e0f146103ba57806339f8d492146103e4576101e2565b8063150b7a02116101b5578063150b7a021461028857806318160ddd146102c457806323b872dd146102ee578063313ce5671461032a576101e2565b806301ffc9a7146101e657806306fdde0314610222578063095ea7b31461024c576101e2565b366101e257005b5f5ffd5b3480156101f1575f5ffd5b5061020c60048036038101906102079190612656565b6107a0565b604051610219919061269b565b60405180910390f35b34801561022d575f5ffd5b50610236610819565b6040516102439190612724565b60405180910390f35b348015610257575f5ffd5b50610272600480360381019061026d91906127d1565b6108a4565b60405161027f919061269b565b60405180910390f35b348015610293575f5ffd5b506102ae60048036038101906102a9919061293b565b610991565b6040516102bb91906129ca565b60405180910390f35b3480156102cf575f5ffd5b506102d86109a4565b6040516102e591906129f2565b60405180910390f35b3480156102f9575f5ffd5b50610314600480360381019061030f9190612a0b565b6109aa565b604051610321919061269b565b60405180910390f35b348015610335575f5ffd5b5061033e6109cb565b60405161034b9190612a76565b60405180910390f35b34801561035f575f5ffd5b506103686109ef565b6040516103759190612aa7565b60405180910390f35b348015610389575f5ffd5b506103a4600480360381019061039f9190612bc7565b610a4b565b6040516103b19190612d84565b60405180910390f35b3480156103c5575f5ffd5b506103ce610c20565b6040516103db9190612dff565b60405180910390f35b3480156103ef575f5ffd5b5061040a60048036038101906104059190612e18565b610c44565b005b348015610417575f5ffd5b50610420610d56565b005b34801561042d575f5ffd5b50610436610e6d565b6040516104439190612e63565b60405180910390f35b348015610457575f5ffd5b50610472600480360381019061046d9190612e7c565b610e92565b005b34801561047f575f5ffd5b5061049a60048036038101906104959190612e18565b61100e565b6040516104a791906129f2565b60405180910390f35b3480156104bb575f5ffd5b506104d660048036038101906104d19190612f1b565b611023565b005b3480156104e3575f5ffd5b506104fe60048036038101906104f99190612e18565b6111df565b60405161050b91906129f2565b60405180910390f35b34801561051f575f5ffd5b506105286111f4565b005b348015610535575f5ffd5b5061053e61130c565b60405161054b9190612f55565b60405180910390f35b34801561055f575f5ffd5b5061057a60048036038101906105759190612e7c565b611331565b005b348015610587575f5ffd5b506105906114ab565b60405161059d9190612724565b60405180910390f35b3480156105b1575f5ffd5b506105cc60048036038101906105c791906127d1565b611537565b6040516105d9919061269b565b60405180910390f35b3480156105ed575f5ffd5b506105f6611556565b604051610603919061269b565b60405180910390f35b348015610617575f5ffd5b50610632600480360381019061062d919061302e565b611569565b60405161063f91906129ca565b60405180910390f35b348015610653575f5ffd5b5061065c61157d565b6040516106699190613119565b60405180910390f35b34801561067d575f5ffd5b5061069860048036038101906106939190613186565b6115a2565b005b3480156106a5575f5ffd5b506106c060048036038101906106bb9190613223565b61188f565b6040516106cd91906129f2565b60405180910390f35b3480156106e1575f5ffd5b506106ea6118af565b6040516106f79190613281565b60405180910390f35b34801561070b575f5ffd5b506107266004803603810190610721919061329a565b6118d4565b60405161073391906129ca565b60405180910390f35b348015610747575f5ffd5b50610762600480360381019061075d9190612e18565b6118e8565b005b34801561076f575f5ffd5b5061078a60048036038101906107859190613382565b6119f1565b604051610797919061343b565b60405180910390f35b5f7f4e2312e0000000000000000000000000000000000000000000000000000000007bffffffffffffffffffffffffffffffffffffffffffffffffffffffff1916827bffffffffffffffffffffffffffffffffffffffffffffffffffffffff19161480610812575061081182611ad7565b5b9050919050565b5f805461082590613488565b80601f016020809104026020016040519081016040528092919081815260200182805461085190613488565b801561089c5780601f106108735761010080835404028352916020019161089c565b820191905f5260205f20905b81548152906001019060200180831161087f57829003601f168201915b505050505081565b5f8160045f3373ffffffffffffffffffffffffffffffffffffffff1673ffffffffffffffffffffffffffffffffffffffff1681526020019081526020015f205f8573ffffffffffffffffffffffffffffffffffffffff1673ffffffffffffffffffffffffffffffffffffffff1681526020019081526020015f20819055508273ffffffffffffffffffffffffffffffffffffffff163373ffffffffffffffffffffffffffffffffffffffff167f8c5be1e5ebec7d5bd14f71427d1e84f3dd0314c0f7b2291e5b200ac8c7c3b9258460405161097f91906129f2565b60405180910390a36001905092915050565b5f63150b7a0260e01b9050949350505050565b60025481565b5f6109b784848433611b40565b6109c2848484611c28565b90509392505050565b7f000000000000000000000000000000000000000000000000000000000000000081565b5f7f00000000000000000000000000000000000000000000000000000000000000004614610a2457610a1f611e63565b610a46565b7f00000000000000000000000000000000000000000000000000000000000000005b905090565b6060610a7a335f357fffffffff0000000000000000000000000000000000000000000000000000000016611eed565b610ab9576040517f08c379a0000000000000000000000000000000000000000000000000000000008152600401610ab090613502565b60405180910390fd5b5f8787905090508067ffffffffffffffff811115610ada57610ad9612817565b5b604051908082528060200260200182016040528015610b0d57816020015b6060815260200190600190039081610af85790505b5091505f5b81811015610c1457610beb878783818110610b3057610b2f613520565b5b9050602002810190610b429190613559565b8080601f0160208091040260200160405190810160405280939291908181526020018383808284375f81840152601f19601f82011690508083019250505050505050868684818110610b9757610b96613520565b5b905060200201358b8b85818110610bb157610bb0613520565b5b9050602002016020810190610bc69190612e18565b73ffffffffffffffffffffffffffffffffffffffff166120279092919063ffffffff16565b838281518110610bfe57610bfd613520565b5b6020026020010181905250806001019050610b12565b50509695505050505050565b7f000000000000000000000000000000000000000000000000000000000000000081565b60085f9054906101000a900473ffffffffffffffffffffffffffffffffffffffff1673ffffffffffffffffffffffffffffffffffffffff1663d35911f2336040518263ffffffff1660e01b8152600401610c9e9190612f55565b602060405180830381865afa158015610cb9573d5f5f3e3d5ffd5b505050506040513d601f19601f82011682018060405250810190610cdd91906135e5565b610d13576040517fdc85555400000000000000000000000000000000000000000000000000000000815260040160405180910390fd5b8060095f6101000a81548173ffffffffffffffffffffffffffffffffffffffff021916908373ffffffffffffffffffffffffffffffffffffffff16021790555050565b60085f9054906101000a900473ffffffffffffffffffffffffffffffffffffffff1673ffffffffffffffffffffffffffffffffffffffff1663d35911f2336040518263ffffffff1660e01b8152600401610db09190612f55565b602060405180830381865afa158015610dcb573d5f5f3e3d5ffd5b505050506040513d601f19601f82011682018060405250810190610def91906135e5565b610e25576040517fdc85555400000000000000000000000000000000000000000000000000000000815260040160405180910390fd5b5f600860146101000a81548160ff0219169083151502179055507fa45f47fdea8a1efdd9029a5691c7f759c32b7c698632b563573e155625d1693360405160405180910390a1565b60095f9054906101000a900473ffffffffffffffffffffffffffffffffffffffff1681565b610ebf335f357fffffffff0000000000000000000000000000000000000000000000000000000016611eed565b610efe576040517f08c379a0000000000000000000000000000000000000000000000000000000008152600401610ef590613502565b60405180910390fd5b5f831115610f5457610f538430857f000000000000000000000000000000000000000000000000000000000000000073ffffffffffffffffffffffffffffffffffffffff166120f2909392919063ffffffff16565b5b610f605f838333611b40565b610f6a82826121c6565b8173ffffffffffffffffffffffffffffffffffffffff167f000000000000000000000000000000000000000000000000000000000000000073ffffffffffffffffffffffffffffffffffffffff168573ffffffffffffffffffffffffffffffffffffffff167fea00f88768a86184a6e515238a549c171769fe7460a011d6fd0bcd48ca078ea48685604051611000929190613610565b60405180910390a450505050565b6003602052805f5260405f205f915090505481565b60065f9054906101000a900473ffffffffffffffffffffffffffffffffffffffff1673ffffffffffffffffffffffffffffffffffffffff163373ffffffffffffffffffffffffffffffffffffffff16148061113a575060075f9054906101000a900473ffffffffffffffffffffffffffffffffffffffff1673ffffffffffffffffffffffffffffffffffffffff1663b700961333305f357fffffffff00000000000000000000000000000000000000000000000000000000166040518463ffffffff1660e01b81526004016110fa93929190613637565b602060405180830381865afa158015611115573d5f5f3e3d5ffd5b505050506040513d601f19601f8201168201806040525081019061113991906135e5565b5b611142575f5ffd5b8060075f6101000a81548173ffffffffffffffffffffffffffffffffffffffff021916908373ffffffffffffffffffffffffffffffffffffffff1602179055508073ffffffffffffffffffffffffffffffffffffffff163373ffffffffffffffffffffffffffffffffffffffff167fa3396fd7f6e0a21b50e5089d2da70d5ac0a3bbbd1f617a93f134b7638998019860405160405180910390a350565b6005602052805f5260405f205f915090505481565b60085f9054906101000a900473ffffffffffffffffffffffffffffffffffffffff1673ffffffffffffffffffffffffffffffffffffffff1663d35911f2336040518263ffffffff1660e01b815260040161124e9190612f55565b602060405180830381865afa158015611269573d5f5f3e3d5ffd5b505050506040513d601f19601f8201168201806040525081019061128d91906135e5565b6112c3576040517fdc85555400000000000000000000000000000000000000000000000000000000815260040160405180910390fd5b6001600860146101000a81548160ff0219169083151502179055507f9e87fac88ff661f02d44f95383c817fece4bce600a3dab7a54406878b965e75260405160405180910390a1565b60065f9054906101000a900473ffffffffffffffffffffffffffffffffffffffff1681565b61135e335f357fffffffff0000000000000000000000000000000000000000000000000000000016611eed565b61139d576040517f08c379a000000000000000000000000000000000000000000000000000000000815260040161139490613502565b60405180910390fd5b6113a9825f8333611b40565b6113b38282612291565b5f8311156114075761140684847f000000000000000000000000000000000000000000000000000000000000000073ffffffffffffffffffffffffffffffffffffffff1661235c9092919063ffffffff16565b5b8173ffffffffffffffffffffffffffffffffffffffff167f000000000000000000000000000000000000000000000000000000000000000073ffffffffffffffffffffffffffffffffffffffff168573ffffffffffffffffffffffffffffffffffffffff167fe0c82280a1164680e0cf43be7db4c4c9f985423623ad7a544fb76c772bdc6043868560405161149d929190613610565b60405180910390a450505050565b600180546114b890613488565b80601f01602080910402602001604051908101604052809291908181526020018280546114e490613488565b801561152f5780601f106115065761010080835404028352916020019161152f565b820191905f5260205f20905b81548152906001019060200180831161151257829003601f168201915b505050505081565b5f61154433848433611b40565b61154e8383612413565b905092915050565b600860149054906101000a900460ff1681565b5f63bc197c8160e01b905095945050505050565b60075f9054906101000a900473ffffffffffffffffffffffffffffffffffffffff1681565b428410156115e5576040517f08c379a00000000000000000000000000000000000000000000000000000000081526004016115dc906136b6565b60405180910390fd5b5f60016115f06109ef565b7f6e71edae12b1b97f4d1f60370fef10105fa2faae0126114a169c64845d6126c98a8a8a60055f8f73ffffffffffffffffffffffffffffffffffffffff1673ffffffffffffffffffffffffffffffffffffffff1681526020019081526020015f205f815480929190600101919050558b604051602001611675969594939291906136d4565b6040516020818303038152906040528051906020012060405160200161169c9291906137a7565b604051602081830303815290604052805190602001208585856040515f81526020016040526040516116d194939291906137dd565b6020604051602081039080840390855afa1580156116f1573d5f5f3e3d5ffd5b5050506020604051035190505f73ffffffffffffffffffffffffffffffffffffffff168173ffffffffffffffffffffffffffffffffffffffff161415801561176457508773ffffffffffffffffffffffffffffffffffffffff168173ffffffffffffffffffffffffffffffffffffffff16145b6117a3576040517f08c379a000000000000000000000000000000000000000000000000000000000815260040161179a9061386a565b60405180910390fd5b8560045f8373ffffffffffffffffffffffffffffffffffffffff1673ffffffffffffffffffffffffffffffffffffffff1681526020019081526020015f205f8973ffffffffffffffffffffffffffffffffffffffff1673ffffffffffffffffffffffffffffffffffffffff1681526020019081526020015f2081905550508573ffffffffffffffffffffffffffffffffffffffff168773ffffffffffffffffffffffffffffffffffffffff167f8c5be1e5ebec7d5bd14f71427d1e84f3dd0314c0f7b2291e5b200ac8c7c3b9258760405161187e91906129f2565b60405180910390a350505050505050565b6004602052815f5260405f20602052805f5260405f205f91509150505481565b60085f9054906101000a900473ffffffffffffffffffffffffffffffffffffffff1681565b5f63f23a6e6160e01b905095945050505050565b611915335f357fffffffff0000000000000000000000000000000000000000000000000000000016611eed565b611954576040517f08c379a000000000000000000000000000000000000000000000000000000000815260040161194b90613502565b60405180910390fd5b8060065f6101000a81548173ffffffffffffffffffffffffffffffffffffffff021916908373ffffffffffffffffffffffffffffffffffffffff1602179055508073ffffffffffffffffffffffffffffffffffffffff163373ffffffffffffffffffffffffffffffffffffffff167f8be0079c531659141344cd1fd0a4f28419497f9722a3daafe3b4186f6b6457e060405160405180910390a350565b6060611a20335f357fffffffff0000000000000000000000000000000000000000000000000000000016611eed565b611a5f576040517f08c379a0000000000000000000000000000000000000000000000000000000008152600401611a5690613502565b60405180910390fd5b611acd84848080601f0160208091040260200160405190810160405280939291908181526020018383808284375f81840152601f19601f82011690508083019250505050505050838773ffffffffffffffffffffffffffffffffffffffff166120279092919063ffffffff16565b9050949350505050565b5f7f01ffc9a7000000000000000000000000000000000000000000000000000000007bffffffffffffffffffffffffffffffffffffffffffffffffffffffff1916827bffffffffffffffffffffffffffffffffffffffffffffffffffffffff1916149050919050565b5f73ffffffffffffffffffffffffffffffffffffffff1660095f9054906101000a900473ffffffffffffffffffffffffffffffffffffffff1673ffffffffffffffffffffffffffffffffffffffff1614611c225760095f9054906101000a900473ffffffffffffffffffffffffffffffffffffffff1673ffffffffffffffffffffffffffffffffffffffff1663a6549221858585856040518563ffffffff1660e01b8152600401611bf49493929190613888565b5f604051808303815f87803b158015611c0b575f5ffd5b505af1158015611c1d573d5f5f3e3d5ffd5b505050505b50505050565b5f5f60045f8673ffffffffffffffffffffffffffffffffffffffff1673ffffffffffffffffffffffffffffffffffffffff1681526020019081526020015f205f3373ffffffffffffffffffffffffffffffffffffffff1673ffffffffffffffffffffffffffffffffffffffff1681526020019081526020015f205490507fffffffffffffffffffffffffffffffffffffffffffffffffffffffffffffffff8114611d55578281611cd891906138f8565b60045f8773ffffffffffffffffffffffffffffffffffffffff1673ffffffffffffffffffffffffffffffffffffffff1681526020019081526020015f205f3373ffffffffffffffffffffffffffffffffffffffff1673ffffffffffffffffffffffffffffffffffffffff1681526020019081526020015f20819055505b8260035f8773ffffffffffffffffffffffffffffffffffffffff1673ffffffffffffffffffffffffffffffffffffffff1681526020019081526020015f205f828254611da191906138f8565b925050819055508260035f8673ffffffffffffffffffffffffffffffffffffffff1673ffffffffffffffffffffffffffffffffffffffff1681526020019081526020015f205f82825401925050819055508373ffffffffffffffffffffffffffffffffffffffff168573ffffffffffffffffffffffffffffffffffffffff167fddf252ad1be2c89b69c2b068fc378daa952ba7f163c4a11628f55a4df523b3ef85604051611e4f91906129f2565b60405180910390a360019150509392505050565b5f7f8b73c3c69bb8fe3d512ecc4cf759cc79239f7b179b0ffacaa9a75d522b39400f5f604051611e9391906139c7565b60405180910390207fc89efdaa54c0f20c7adf612882df0950f5a951637e0307cdcb4c672f298b8bc64630604051602001611ed29594939291906139dd565b60405160208183030381529060405280519060200120905090565b5f5f60075f9054906101000a900473ffffffffffffffffffffffffffffffffffffffff1690505f73ffffffffffffffffffffffffffffffffffffffff168173ffffffffffffffffffffffffffffffffffffffff1614158015611fc757508073ffffffffffffffffffffffffffffffffffffffff1663b70096138530866040518463ffffffff1660e01b8152600401611f8793929190613637565b602060405180830381865afa158015611fa2573d5f5f3e3d5ffd5b505050506040513d601f19601f82011682018060405250810190611fc691906135e5565b5b8061201e575060065f9054906101000a900473ffffffffffffffffffffffffffffffffffffffff1673ffffffffffffffffffffffffffffffffffffffff168473ffffffffffffffffffffffffffffffffffffffff16145b91505092915050565b6060814710156120705747826040517fcf479181000000000000000000000000000000000000000000000000000000008152600401612067929190613610565b60405180910390fd5b5f5f8573ffffffffffffffffffffffffffffffffffffffff1684866040516120989190613a5e565b5f6040518083038185875af1925050503d805f81146120d2576040519150601f19603f3d011682016040523d82523d5f602084013e6120d7565b606091505b50915091506120e7868383612520565b925050509392505050565b5f6040517f23b872dd00000000000000000000000000000000000000000000000000000000815273ffffffffffffffffffffffffffffffffffffffff8516600482015273ffffffffffffffffffffffffffffffffffffffff8416602482015282604482015260205f6064835f8a5af1915081601f3d1160015f51141615161561217e573d863b15171591505b50806121bf576040517f08c379a00000000000000000000000000000000000000000000000000000000081526004016121b690613abe565b60405180910390fd5b5050505050565b8060025f8282546121d79190613adc565b925050819055508060035f8473ffffffffffffffffffffffffffffffffffffffff1673ffffffffffffffffffffffffffffffffffffffff1681526020019081526020015f205f82825401925050819055508173ffffffffffffffffffffffffffffffffffffffff165f73ffffffffffffffffffffffffffffffffffffffff167fddf252ad1be2c89b69c2b068fc378daa952ba7f163c4a11628f55a4df523b3ef8360405161228591906129f2565b60405180910390a35050565b8060035f8473ffffffffffffffffffffffffffffffffffffffff1673ffffffffffffffffffffffffffffffffffffffff1681526020019081526020015f205f8282546122dd91906138f8565b925050819055508060025f82825403925050819055505f73ffffffffffffffffffffffffffffffffffffffff168273ffffffffffffffffffffffffffffffffffffffff167fddf252ad1be2c89b69c2b068fc378daa952ba7f163c4a11628f55a4df523b3ef8360405161235091906129f2565b60405180910390a35050565b5f6040517fa9059cbb00000000000000000000000000000000000000000000000000000000815273ffffffffffffffffffffffffffffffffffffffff8416600482015282602482015260205f6044835f895af1915081601f3d1160015f5114161516156123cc573d853b15171591505b508061240d576040517f08c379a000000000000000000000000000000000000000000000000000000000815260040161240490613b59565b60405180910390fd5b50505050565b5f8160035f3373ffffffffffffffffffffffffffffffffffffffff1673ffffffffffffffffffffffffffffffffffffffff1681526020019081526020015f205f82825461246091906138f8565b925050819055508160035f8573ffffffffffffffffffffffffffffffffffffffff1673ffffffffffffffffffffffffffffffffffffffff1681526020019081526020015f205f82825401925050819055508273ffffffffffffffffffffffffffffffffffffffff163373ffffffffffffffffffffffffffffffffffffffff167fddf252ad1be2c89b69c2b068fc378daa952ba7f163c4a11628f55a4df523b3ef8460405161250e91906129f2565b60405180910390a36001905092915050565b60608261253557612530826125ad565b6125a5565b5f825114801561255b57505f8473ffffffffffffffffffffffffffffffffffffffff163b145b1561259d57836040517f9996b3150000000000000000000000000000000000000000000000000000000081526004016125949190612f55565b60405180910390fd5b8190506125a6565b5b9392505050565b5f815111156125be57805160208201fd5b6040517fd6bda27500000000000000000000000000000000000000000000000000000000815260040160405180910390fd5b5f604051905090565b5f5ffd5b5f5ffd5b5f7fffffffff0000000000000000000000000000000000000000000000000000000082169050919050565b61263581612601565b811461263f575f5ffd5b50565b5f813590506126508161262c565b92915050565b5f6020828403121561266b5761266a6125f9565b5b5f61267884828501612642565b91505092915050565b5f8115159050919050565b61269581612681565b82525050565b5f6020820190506126ae5f83018461268c565b92915050565b5f81519050919050565b5f82825260208201905092915050565b8281835e5f83830152505050565b5f601f19601f8301169050919050565b5f6126f6826126b4565b61270081856126be565b93506127108185602086016126ce565b612719816126dc565b840191505092915050565b5f6020820190508181035f83015261273c81846126ec565b905092915050565b5f73ffffffffffffffffffffffffffffffffffffffff82169050919050565b5f61276d82612744565b9050919050565b61277d81612763565b8114612787575f5ffd5b50565b5f8135905061279881612774565b92915050565b5f819050919050565b6127b08161279e565b81146127ba575f5ffd5b50565b5f813590506127cb816127a7565b92915050565b5f5f604083850312156127e7576127e66125f9565b5b5f6127f48582860161278a565b9250506020612805858286016127bd565b9150509250929050565b5f5ffd5b5f5ffd5b7f4e487b71000000000000000000000000000000000000000000000000000000005f52604160045260245ffd5b61284d826126dc565b810181811067ffffffffffffffff8211171561286c5761286b612817565b5b80604052505050565b5f61287e6125f0565b905061288a8282612844565b919050565b5f67ffffffffffffffff8211156128a9576128a8612817565b5b6128b2826126dc565b9050602081019050919050565b828183375f83830152505050565b5f6128df6128da8461288f565b612875565b9050828152602081018484840111156128fb576128fa612813565b5b6129068482856128bf565b509392505050565b5f82601f8301126129225761292161280f565b5b81356129328482602086016128cd565b91505092915050565b5f5f5f5f60808587031215612953576129526125f9565b5b5f6129608782880161278a565b94505060206129718782880161278a565b9350506040612982878288016127bd565b925050606085013567ffffffffffffffff8111156129a3576129a26125fd565b5b6129af8782880161290e565b91505092959194509250565b6129c481612601565b82525050565b5f6020820190506129dd5f8301846129bb565b92915050565b6129ec8161279e565b82525050565b5f602082019050612a055f8301846129e3565b92915050565b5f5f5f60608486031215612a2257612a216125f9565b5b5f612a2f8682870161278a565b9350506020612a408682870161278a565b9250506040612a51868287016127bd565b9150509250925092565b5f60ff82169050919050565b612a7081612a5b565b82525050565b5f602082019050612a895f830184612a67565b92915050565b5f819050919050565b612aa181612a8f565b82525050565b5f602082019050612aba5f830184612a98565b92915050565b5f5ffd5b5f5ffd5b5f5f83601f840112612add57612adc61280f565b5b8235905067ffffffffffffffff811115612afa57612af9612ac0565b5b602083019150836020820283011115612b1657612b15612ac4565b5b9250929050565b5f5f83601f840112612b3257612b3161280f565b5b8235905067ffffffffffffffff811115612b4f57612b4e612ac0565b5b602083019150836020820283011115612b6b57612b6a612ac4565b5b9250929050565b5f5f83601f840112612b8757612b8661280f565b5b8235905067ffffffffffffffff811115612ba457612ba3612ac0565b5b602083019150836020820283011115612bc057612bbf612ac4565b5b9250929050565b5f5f5f5f5f5f60608789031215612be157612be06125f9565b5b5f87013567ffffffffffffffff811115612bfe57612bfd6125fd565b5b612c0a89828a01612ac8565b9650965050602087013567ffffffffffffffff811115612c2d57612c2c6125fd565b5b612c3989828a01612b1d565b9450945050604087013567ffffffffffffffff811115612c5c57612c5b6125fd565b5b612c6889828a01612b72565b92509250509295509295509295565b5f81519050919050565b5f82825260208201905092915050565b5f819050602082019050919050565b5f81519050919050565b5f82825260208201905092915050565b5f612cc482612ca0565b612cce8185612caa565b9350612cde8185602086016126ce565b612ce7816126dc565b840191505092915050565b5f612cfd8383612cba565b905092915050565b5f602082019050919050565b5f612d1b82612c77565b612d258185612c81565b935083602082028501612d3785612c91565b805f5b85811015612d725784840389528151612d538582612cf2565b9450612d5e83612d05565b925060208a01995050600181019050612d3a565b50829750879550505050505092915050565b5f6020820190508181035f830152612d9c8184612d11565b905092915050565b5f819050919050565b5f612dc7612dc2612dbd84612744565b612da4565b612744565b9050919050565b5f612dd882612dad565b9050919050565b5f612de982612dce565b9050919050565b612df981612ddf565b82525050565b5f602082019050612e125f830184612df0565b92915050565b5f60208284031215612e2d57612e2c6125f9565b5b5f612e3a8482850161278a565b91505092915050565b5f612e4d82612dce565b9050919050565b612e5d81612e43565b82525050565b5f602082019050612e765f830184612e54565b92915050565b5f5f5f5f60808587031215612e9457612e936125f9565b5b5f612ea18782880161278a565b9450506020612eb2878288016127bd565b9350506040612ec38782880161278a565b9250506060612ed4878288016127bd565b91505092959194509250565b5f612eea82612763565b9050919050565b612efa81612ee0565b8114612f04575f5ffd5b50565b5f81359050612f1581612ef1565b92915050565b5f60208284031215612f3057612f2f6125f9565b5b5f612f3d84828501612f07565b91505092915050565b612f4f81612763565b82525050565b5f602082019050612f685f830184612f46565b92915050565b5f67ffffffffffffffff821115612f8857612f87612817565b5b602082029050602081019050919050565b5f612fab612fa684612f6e565b612875565b90508083825260208201905060208402830185811115612fce57612fcd612ac4565b5b835b81811015612ff75780612fe388826127bd565b845260208401935050602081019050612fd0565b5050509392505050565b5f82601f8301126130155761301461280f565b5b8135613025848260208601612f99565b91505092915050565b5f5f5f5f5f60a08688031215613047576130466125f9565b5b5f6130548882890161278a565b95505060206130658882890161278a565b945050604086013567ffffffffffffffff811115613086576130856125fd565b5b61309288828901613001565b935050606086013567ffffffffffffffff8111156130b3576130b26125fd565b5b6130bf88828901613001565b925050608086013567ffffffffffffffff8111156130e0576130df6125fd565b5b6130ec8882890161290e565b9150509295509295909350565b5f61310382612dce565b9050919050565b613113816130f9565b82525050565b5f60208201905061312c5f83018461310a565b92915050565b61313b81612a5b565b8114613145575f5ffd5b50565b5f8135905061315681613132565b92915050565b61316581612a8f565b811461316f575f5ffd5b50565b5f813590506131808161315c565b92915050565b5f5f5f5f5f5f5f60e0888a0312156131a1576131a06125f9565b5b5f6131ae8a828b0161278a565b97505060206131bf8a828b0161278a565b96505060406131d08a828b016127bd565b95505060606131e18a828b016127bd565b94505060806131f28a828b01613148565b93505060a06132038a828b01613172565b92505060c06132148a828b01613172565b91505092959891949750929550565b5f5f60408385031215613239576132386125f9565b5b5f6132468582860161278a565b92505060206132578582860161278a565b9150509250929050565b5f61326b82612dce565b9050919050565b61327b81613261565b82525050565b5f6020820190506132945f830184613272565b92915050565b5f5f5f5f5f60a086880312156132b3576132b26125f9565b5b5f6132c08882890161278a565b95505060206132d18882890161278a565b94505060406132e2888289016127bd565b93505060606132f3888289016127bd565b925050608086013567ffffffffffffffff811115613314576133136125fd565b5b6133208882890161290e565b9150509295509295909350565b5f5f83601f8401126133425761334161280f565b5b8235905067ffffffffffffffff81111561335f5761335e612ac0565b5b60208301915083600182028301111561337b5761337a612ac4565b5b9250929050565b5f5f5f5f6060858703121561339a576133996125f9565b5b5f6133a78782880161278a565b945050602085013567ffffffffffffffff8111156133c8576133c76125fd565b5b6133d48782880161332d565b935093505060406133e7878288016127bd565b91505092959194509250565b5f82825260208201905092915050565b5f61340d82612ca0565b61341781856133f3565b93506134278185602086016126ce565b613430816126dc565b840191505092915050565b5f6020820190508181035f8301526134538184613403565b905092915050565b7f4e487b71000000000000000000000000000000000000000000000000000000005f52602260045260245ffd5b5f600282049050600182168061349f57607f821691505b6020821081036134b2576134b161345b565b5b50919050565b7f554e415554484f52495a454400000000000000000000000000000000000000005f82015250565b5f6134ec600c836126be565b91506134f7826134b8565b602082019050919050565b5f6020820190508181035f830152613519816134e0565b9050919050565b7f4e487b71000000000000000000000000000000000000000000000000000000005f52603260045260245ffd5b5f5ffd5b5f5ffd5b5f5ffd5b5f5f833560016020038436030381126135755761357461354d565b5b80840192508235915067ffffffffffffffff82111561359757613596613551565b5b6020830192506001820236038313156135b3576135b2613555565b5b509250929050565b6135c481612681565b81146135ce575f5ffd5b50565b5f815190506135df816135bb565b92915050565b5f602082840312156135fa576135f96125f9565b5b5f613607848285016135d1565b91505092915050565b5f6040820190506136235f8301856129e3565b61363060208301846129e3565b9392505050565b5f60608201905061364a5f830186612f46565b6136576020830185612f46565b61366460408301846129bb565b949350505050565b7f5045524d49545f444541444c494e455f455850495245440000000000000000005f82015250565b5f6136a06017836126be565b91506136ab8261366c565b602082019050919050565b5f6020820190508181035f8301526136cd81613694565b9050919050565b5f60c0820190506136e75f830189612a98565b6136f46020830188612f46565b6137016040830187612f46565b61370e60608301866129e3565b61371b60808301856129e3565b61372860a08301846129e3565b979650505050505050565b5f81905092915050565b7f19010000000000000000000000000000000000000000000000000000000000005f82015250565b5f613771600283613733565b915061377c8261373d565b600282019050919050565b5f819050919050565b6137a161379c82612a8f565b613787565b82525050565b5f6137b182613765565b91506137bd8285613790565b6020820191506137cd8284613790565b6020820191508190509392505050565b5f6080820190506137f05f830187612a98565b6137fd6020830186612a67565b61380a6040830185612a98565b6138176060830184612a98565b95945050505050565b7f494e56414c49445f5349474e45520000000000000000000000000000000000005f82015250565b5f613854600e836126be565b915061385f82613820565b602082019050919050565b5f6020820190508181035f83015261388181613848565b9050919050565b5f60808201905061389b5f830187612f46565b6138a86020830186612f46565b6138b560408301856129e3565b6138c26060830184612f46565b95945050505050565b7f4e487b71000000000000000000000000000000000000000000000000000000005f52601160045260245ffd5b5f6139028261279e565b915061390d8361279e565b9250828203905081811115613925576139246138cb565b5b92915050565b5f81905092915050565b5f819050815f5260205f209050919050565b5f815461395381613488565b61395d818661392b565b9450600182165f8114613977576001811461398c576139be565b60ff19831686528115158202860193506139be565b61399585613935565b5f5b838110156139b657815481890152600182019150602081019050613997565b838801955050505b50505092915050565b5f6139d28284613947565b915081905092915050565b5f60a0820190506139f05f830188612a98565b6139fd6020830187612a98565b613a0a6040830186612a98565b613a1760608301856129e3565b613a246080830184612f46565b9695505050505050565b5f613a3882612ca0565b613a42818561392b565b9350613a528185602086016126ce565b80840191505092915050565b5f613a698284613a2e565b915081905092915050565b7f5452414e534645525f46524f4d5f4641494c45440000000000000000000000005f82015250565b5f613aa86014836126be565b9150613ab382613a74565b602082019050919050565b5f6020820190508181035f830152613ad581613a9c565b9050919050565b5f613ae68261279e565b9150613af18361279e565b9250828201905080821115613b0957613b086138cb565b5b92915050565b7f5452414e534645525f4641494c454400000000000000000000000000000000005f82015250565b5f613b43600f836126be565b9150613b4e82613b0f565b602082019050919050565b5f6020820190508181035f830152613b7081613b37565b905091905056fea2646970667358221220798977b344ff49ba98c17ed62393667234921fab6dd5020407c209063a324e3c64736f6c634300081e0033",
  "linkReferences": {},
  "deployedLinkReferences": {},
  "immutableReferences": {
    "7506": [
      {
        "length": 32,
        "start": 2509
      }
    ],
    "7520": [
      {
        "length": 32,
        "start": 2546
      }
    ],
    "7522": [
      {
        "length": 32,
        "start": 2598
      }
    ],
    "8986": [
      {
        "length": 32,
        "start": 3106
      },
      {
        "length": 32,
        "start": 3854
      },
      {
        "length": 32,
        "start": 3971
      },
      {
        "length": 32,
        "start": 5058
      },
      {
        "length": 32,
        "start": 5152
      }
    ]
  },
  "inputSourceName": "project/contracts/core/BoringVault.sol",
  "buildInfoId": "solc-0_8_30-e7ac28edc80ee071fd8bf3e691f238b4916e4080"
}