{
  "_format": "hh3-artifact-1",
  "contractName": "BoringVault",
  "sourceName": "contracts/core/BoringVault.sol",
  "abi": [
    {
      "inputs": [
        {
          "internalType": "address",
          "name": "_primeRBAC",
          "type": "address"
        },
        {
          "internalType": "address",
          "name": "_authority",
          "type": "address"
        },
        {
          "internalType": "string",
          "name": "_name",
          "type": "string"
        },
        {
          "internalType": "string",
          "name": "_symbol",
          "type": "string"
        },
        {
          "internalType": "address",
          "name": "_asset",
          "type": "address"
        }
      ],
      "stateMutability": "nonpayable",
      "type": "constructor"
    },
    {
      "inputs": [
        {
          "internalType": "address",
          "name": "target",
          "type": "address"
        }
      ],
      "name": "AddressEmptyCode",
      "type": "error"
    },
    {
      "inputs": [],
      "name": "BoringVault__InvalidAsset",
      "type": "error"
    },
    {
      "inputs": [],
      "name": "FailedCall",
      "type": "error"
    },
    {
      "inputs": [
        {
          "internalType": "uint256",
          "name": "balance",
          "type": "uint256"
        },
        {
          "internalType": "uint256",
          "name": "needed",
          "type": "uint256"
        }
      ],
      "name": "InsufficientBalance",
      "type": "error"
    },
    {
      "inputs": [],
      "name": "NOT_OWNER",
      "type": "error"
    },
    {
      "inputs": [],
      "name": "NOT_PROTOCOL_ADMIN",
      "type": "error"
    },
    {
      "inputs": [],
      "name": "ZERO_ADDRESS",
      "type": "error"
    },
    {
      "anonymous": false,
      "inputs": [
        {
          "indexed": true,
          "internalType": "address",
          "name": "owner",
          "type": "address"
        },
        {
          "indexed": true,
          "internalType": "address",
          "name": "spender",
          "type": "address"
        },
        {
          "indexed": false,
          "internalType": "uint256",
          "name": "amount",
          "type": "uint256"
        }
      ],
      "name": "Approval",
      "type": "event"
    },
    {
      "anonymous": false,
      "inputs": [
        {
          "indexed": true,
          "internalType": "address",
          "name": "user",
          "type": "address"
        },
        {
          "indexed": true,
          "internalType": "contract Authority",
          "name": "newAuthority",
          "type": "address"
        }
      ],
      "name": "AuthorityUpdated",
      "type": "event"
    },
    {
      "anonymous": false,
      "inputs": [
        {
          "indexed": true,
          "internalType": "address",
          "name": "from",
          "type": "address"
        },
        {
          "indexed": true,
          "internalType": "address",
          "name": "asset",
          "type": "address"
        },
        {
          "indexed": false,
          "internalType": "uint256",
          "name": "amount",
          "type": "uint256"
        },
        {
          "indexed": true,
          "internalType": "address",
          "name": "to",
          "type": "address"
        },
        {
          "indexed": false,
          "internalType": "uint256",
          "name": "shares",
          "type": "uint256"
        }
      ],
      "name": "Enter",
      "type": "event"
    },
    {
      "anonymous": false,
      "inputs": [
        {
          "indexed": true,
          "internalType": "address",
          "name": "to",
          "type": "address"
        },
        {
          "indexed": true,
          "internalType": "address",
          "name": "asset",
          "type": "address"
        },
        {
          "indexed": false,
          "internalType": "uint256",
          "name": "amount",
          "type": "uint256"
        },
        {
          "indexed": true,
          "internalType": "address",
          "name": "from",
          "type": "address"
        },
        {
          "indexed": false,
          "internalType": "uint256",
          "name": "shares",
          "type": "uint256"
        }
      ],
      "name": "Exit",
      "type": "event"
    },
    {
      "anonymous": false,
      "inputs": [
        {
          "indexed": true,
          "internalType": "address",
          "name": "user",
          "type": "address"
        },
        {
          "indexed": true,
          "internalType": "address",
          "name": "newOwner",
          "type": "address"
        }
      ],
      "name": "OwnershipTransferred",
      "type": "event"
    },
    {
      "anonymous": false,
      "inputs": [],
      "name": "Paused",
      "type": "event"
    },
    {
      "anonymous": false,
      "inputs": [
        {
          "indexed": true,
          "internalType": "address",
          "name": "from",
          "type": "address"
        },
        {
          "indexed": true,
          "internalType": "address",
          "name": "to",
          "type": "address"
        },
        {
          "indexed": false,
          "internalType": "uint256",
          "name": "amount",
          "type": "uint256"
        }
      ],
      "name": "Transfer",
      "type": "event"
    },
    {
      "anonymous": false,
      "inputs": [],
      "name": "Unpaused",
      "type": "event"
    },
    {
      "inputs": [],
      "name": "DOMAIN_SEPARATOR",
      "outputs": [
        {
          "internalType": "bytes32",
          "name": "",
          "type": "bytes32"
        }
      ],
      "stateMutability": "view",
      "type": "function"
    },
    {
      "inputs": [
        {
          "internalType": "address",
          "name": "",
          "type": "address"
        },
        {
          "internalType": "address",
          "name": "",
          "type": "address"
        }
      ],
      "name": "allowance",
      "outputs": [
        {
          "internalType": "uint256",
          "name": "",
          "type": "uint256"
        }
      ],
      "stateMutability": "view",
      "type": "function"
    },
    {
      "inputs": [
        {
          "internalType": "address",
          "name": "spender",
          "type": "address"
        },
        {
          "internalType": "uint256",
          "name": "amount",
          "type": "uint256"
        }
      ],
      "name": "approve",
      "outputs": [
        {
          "internalType": "bool",
          "name": "",
          "type": "bool"
        }
      ],
      "stateMutability": "nonpayable",
      "type": "function"
    },
    {
      "inputs": [],
      "name": "asset",
      "outputs": [
        {
          "internalType": "contract ERC20",
          "name": "",
          "type": "address"
        }
      ],
      "stateMutability": "view",
      "type": "function"
    },
    {
      "inputs": [],
      "name": "authority",
      "outputs": [
        {
          "internalType": "contract Authority",
          "name": "",
          "type": "address"
        }
      ],
      "stateMutability": "view",
      "type": "function"
    },
    {
      "inputs": [
        {
          "internalType": "address",
          "name": "",
          "type": "address"
        }
      ],
      "name": "balanceOf",
      "outputs": [
        {
          "internalType": "uint256",
          "name": "",
          "type": "uint256"
        }
      ],
      "stateMutability": "view",
      "type": "function"
    },
    {
      "inputs": [],
      "name": "beforeUpdateHook",
      "outputs": [
        {
          "internalType": "contract IBeforeUpdateHook",
          "name": "",
          "type": "address"
        }
      ],
      "stateMutability": "view",
      "type": "function"
    },
    {
      "inputs": [
        {
          "internalType": "address[]",
          "name": "targets",
          "type": "address[]"
        },
        {
          "internalType": "bytes[]",
          "name": "data",
          "type": "bytes[]"
        },
        {
          "internalType": "uint256[]",
          "name": "values",
          "type": "uint256[]"
        }
      ],
      "name": "bulkManage",
      "outputs": [
        {
          "internalType": "bytes[]",
          "name": "results",
          "type": "bytes[]"
        }
      ],
      "stateMutability": "nonpayable",
      "type": "function"
    },
    {
      "inputs": [],
      "name": "decimals",
      "outputs": [
        {
          "internalType": "uint8",
          "name": "",
          "type": "uint8"
        }
      ],
      "stateMutability": "view",
      "type": "function"
    },
    {
      "inputs": [
        {
          "internalType": "address",
          "name": "from",
          "type": "address"
        },
        {
          "internalType": "uint256",
          "name": "assetAmount",
          "type": "uint256"
        },
        {
          "internalType": "address",
          "name": "to",
          "type": "address"
        },
        {
          "internalType": "uint256",
          "name": "shareAmount",
          "type": "uint256"
        }
      ],
      "name": "enter",
      "outputs": [],
      "stateMutability": "nonpayable",
      "type": "function"
    },
    {
      "inputs": [
        {
          "internalType": "address",
          "name": "to",
          "type": "address"
        },
        {
          "internalType": "uint256",
          "name": "assetAmount",
          "type": "uint256"
        },
        {
          "internalType": "address",
          "name": "from",
          "type": "address"
        },
        {
          "internalType": "uint256",
          "name": "shareAmount",
          "type": "uint256"
        }
      ],
      "name": "exit",
      "outputs": [],
      "stateMutability": "nonpayable",
      "type": "function"
    },
    {
      "inputs": [],
      "name": "isPaused",
      "outputs": [
        {
          "internalType": "bool",
          "name": "",
          "type": "bool"
        }
      ],
      "stateMutability": "view",
      "type": "function"
    },
    {
      "inputs": [
        {
          "internalType": "address",
          "name": "target",
          "type": "address"
        },
        {
          "internalType": "bytes",
          "name": "data",
          "type": "bytes"
        },
        {
          "internalType": "uint256",
          "name": "value",
          "type": "uint256"
        }
      ],
      "name": "manage",
      "outputs": [
        {
          "internalType": "bytes",
          "name": "result",
          "type": "bytes"
        }
      ],
      "stateMutability": "nonpayable",
      "type": "function"
    },
    {
      "inputs": [],
      "name": "name",
      "outputs": [
        {
          "internalType": "string",
          "name": "",
          "type": "string"
        }
      ],
      "stateMutability": "view",
      "type": "function"
    },
    {
      "inputs": [
        {
          "internalType": "address",
          "name": "",
          "type": "address"
        }
      ],
      "name": "nonces",
      "outputs": [
        {
          "internalType": "uint256",
          "name": "",
          "type": "uint256"
        }
      ],
      "stateMutability": "view",
      "type": "function"
    },
    {
      "inputs": [
        {
          "internalType": "address",
          "name": "",
          "type": "address"
        },
        {
          "internalType": "address",
          "name": "",
          "type": "address"
        },
        {
          "internalType": "uint256[]",
          "name": "",
          "type": "uint256[]"
        },
        {
          "internalType": "uint256[]",
          "name": "",
          "type": "uint256[]"
        },
        {
          "internalType": "bytes",
          "name": "",
          "type": "bytes"
        }
      ],
      "name": "onERC1155BatchReceived",
      "outputs": [
        {
          "internalType": "bytes4",
          "name": "",
          "type": "bytes4"
        }
      ],
      "stateMutability": "nonpayable",
      "type": "function"
    },
    {
      "inputs": [
        {
          "internalType": "address",
          "name": "",
          "type": "address"
        },
        {
          "internalType": "address",
          "name": "",
          "type": "address"
        },
        {
          "internalType": "uint256",
          "name": "",
          "type": "uint256"
        },
        {
          "internalType": "uint256",
          "name": "",
          "type": "uint256"
        },
        {
          "internalType": "bytes",
          "name": "",
          "type": "bytes"
        }
      ],
      "name": "onERC1155Received",
      "outputs": [
        {
          "internalType": "bytes4",
          "name": "",
          "type": "bytes4"
        }
      ],
      "stateMutability": "nonpayable",
      "type": "function"
    },
    {
      "inputs": [
        {
          "internalType": "address",
          "name": "",
          "type": "address"
        },
        {
          "internalType": "address",
          "name": "",
          "type": "address"
        },
        {
          "internalType": "uint256",
          "name": "",
          "type": "uint256"
        },
        {
          "internalType": "bytes",
          "name": "",
          "type": "bytes"
        }
      ],
      "name": "onERC721Received",
      "outputs": [
        {
          "internalType": "bytes4",
          "name": "",
          "type": "bytes4"
        }
      ],
      "stateMutability": "nonpayable",
      "type": "function"
    },
    {
      "inputs": [],
      "name": "owner",
      "outputs": [
        {
          "internalType": "address",
          "name": "",
          "type": "address"
        }
      ],
      "stateMutability": "view",
      "type": "function"
    },
    {
      "inputs": [],
      "name": "pause",
      "outputs": [],
      "stateMutability": "nonpayable",
      "type": "function"
    },
    {
      "inputs": [
        {
          "internalType": "address",
          "name": "owner",
          "type": "address"
        },
        {
          "internalType": "address",
          "name": "spender",
          "type": "address"
        },
        {
          "internalType": "uint256",
          "name": "value",
          "type": "uint256"
        },
        {
          "internalType": "uint256",
          "name": "deadline",
          "type": "uint256"
        },
        {
          "internalType": "uint8",
          "name": "v",
          "type": "uint8"
        },
        {
          "internalType": "bytes32",
          "name": "r",
          "type": "bytes32"
        },
        {
          "internalType": "bytes32",
          "name": "s",
          "type": "bytes32"
        }
      ],
      "name": "permit",
      "outputs": [],
      "stateMutability": "nonpayable",
      "type": "function"
    },
    {
      "inputs": [],
      "name": "primeRBAC",
      "outputs": [
        {
          "internalType": "contract IPrimeRBAC",
          "name": "",
          "type": "address"
        }
      ],
      "stateMutability": "view",
      "type": "function"
    },
    {
      "inputs": [
        {
          "internalType": "contract Authority",
          "name": "newAuthority",
          "type": "address"
        }
      ],
      "name": "setAuthority",
      "outputs": [],
      "stateMutability": "nonpayable",
      "type": "function"
    },
    {
      "inputs": [
        {
          "internalType": "address",
          "name": "_hook",
          "type": "address"
        }
      ],
      "name": "setBeforeUpdateHook",
      "outputs": [],
      "stateMutability": "nonpayable",
      "type": "function"
    },
    {
      "inputs": [
        {
          "internalType": "bytes4",
          "name": "interfaceId",
          "type": "bytes4"
        }
      ],
      "name": "supportsInterface",
      "outputs": [
        {
          "internalType": "bool",
          "name": "",
          "type": "bool"
        }
      ],
      "stateMutability": "view",
      "type": "function"
    },
    {
      "inputs": [],
      "name": "symbol",
      "outputs": [
        {
          "internalType": "string",
          "name": "",
          "type": "string"
        }
      ],
      "stateMutability": "view",
      "type": "function"
    },
    {
      "inputs": [],
      "name": "totalSupply",
      "outputs": [
        {
          "internalType": "uint256",
          "name": "",
          "type": "uint256"
        }
      ],
      "stateMutability": "view",
      "type": "function"
    },
    {
      "inputs": [
        {
          "internalType": "address",
          "name": "to",
          "type": "address"
        },
        {
          "internalType": "uint256",
          "name": "amount",
          "type": "uint256"
        }
      ],
      "name": "transfer",
      "outputs": [
        {
          "internalType": "bool",
          "name": "",
          "type": "bool"
        }
      ],
      "stateMutability": "nonpayable",
      "type": "function"
    },
    {
      "inputs": [
        {
          "internalType": "address",
          "name": "from",
          "type": "address"
        },
        {
          "internalType": "address",
          "name": "to",
          "type": "address"
        },
        {
          "internalType": "uint256",
          "name": "amount",
          "type": "uint256"
        }
      ],
      "name": "transferFrom",
      "outputs": [
        {
          "internalType": "bool",
          "name": "",
          "type": "bool"
        }
      ],
      "stateMutability": "nonpayable",
      "type": "function"
    },
    {
      "inputs": [
        {
          "internalType": "address",
          "name": "newOwner",
          "type": "address"
        }
      ],
      "name": "transferOwnership",
      "outputs": [],
      "stateMutability": "nonpayable",
      "type": "function"
    },
    {
      "inputs": [],
      "name": "unpause",
      "outputs": [],
      "stateMutability": "nonpayable",
      "type": "function"
    },
    {
      "stateMutability": "payable",
      "type": "receive"
    }
  ],
  "bytecode": "0x610100604052348015610010575f5ffd5b506040516147e13803806147e183398181016040528101906100329190610575565b8484338186868673ffffffffffffffffffffffffffffffffffffffff1663313ce5676040518163ffffffff1660e01b8152600401602060405180830381865afa158015610081573d5f5f3e3d5ffd5b505050506040513d601f19601f820116820180604052508101906100a5919061065a565b825f90816100b39190610895565b5081600190816100c39190610895565b508060ff1660808160ff16815250504660a081815250506100e861034460201b60201c565b60c081815250505050508160065f6101000a81548173ffffffffffffffffffffffffffffffffffffffff021916908373ffffffffffffffffffffffffffffffffffffffff1602179055508060075f6101000a81548173ffffffffffffffffffffffffffffffffffffffff021916908373ffffffffffffffffffffffffffffffffffffffff1602179055508173ffffffffffffffffffffffffffffffffffffffff163373ffffffffffffffffffffffffffffffffffffffff167f8be0079c531659141344cd1fd0a4f28419497f9722a3daafe3b4186f6b6457e060405160405180910390a38073ffffffffffffffffffffffffffffffffffffffff163373ffffffffffffffffffffffffffffffffffffffff167fa3396fd7f6e0a21b50e5089d2da70d5ac0a3bbbd1f617a93f134b7638998019860405160405180910390a350505f73ffffffffffffffffffffffffffffffffffffffff168273ffffffffffffffffffffffffffffffffffffffff16148061028d57505f73ffffffffffffffffffffffffffffffffffffffff168173ffffffffffffffffffffffffffffffffffffffff16145b156102c4576040517f538ba4f900000000000000000000000000000000000000000000000000000000815260040160405180910390fd5b8160085f6101000a81548173ffffffffffffffffffffffffffffffffffffffff021916908373ffffffffffffffffffffffffffffffffffffffff16021790555050508073ffffffffffffffffffffffffffffffffffffffff1660e08173ffffffffffffffffffffffffffffffffffffffff16815250505050505050610a9d565b5f7f8b73c3c69bb8fe3d512ecc4cf759cc79239f7b179b0ffacaa9a75d522b39400f5f6040516103749190610a00565b60405180910390207fc89efdaa54c0f20c7adf612882df0950f5a951637e0307cdcb4c672f298b8bc646306040516020016103b3959493929190610a4c565b60405160208183030381529060405280519060200120905090565b5f604051905090565b5f5ffd5b5f5ffd5b5f73ffffffffffffffffffffffffffffffffffffffff82169050919050565b5f610408826103df565b9050919050565b610418816103fe565b8114610422575f5ffd5b50565b5f815190506104338161040f565b92915050565b5f5ffd5b5f5ffd5b5f601f19601f8301169050919050565b7f4e487b71000000000000000000000000000000000000000000000000000000005f52604160045260245ffd5b61048782610441565b810181811067ffffffffffffffff821117156104a6576104a5610451565b5b80604052505050565b5f6104b86103ce565b90506104c4828261047e565b919050565b5f67ffffffffffffffff8211156104e3576104e2610451565b5b6104ec82610441565b9050602081019050919050565b8281835e5f83830152505050565b5f610519610514846104c9565b6104af565b9050828152602081018484840111156105355761053461043d565b5b6105408482856104f9565b509392505050565b5f82601f83011261055c5761055b610439565b5b815161056c848260208601610507565b91505092915050565b5f5f5f5f5f60a0868803121561058e5761058d6103d7565b5b5f61059b88828901610425565b95505060206105ac88828901610425565b945050604086015167ffffffffffffffff8111156105cd576105cc6103db565b5b6105d988828901610548565b935050606086015167ffffffffffffffff8111156105fa576105f96103db565b5b61060688828901610548565b925050608061061788828901610425565b9150509295509295909350565b5f60ff82169050919050565b61063981610624565b8114610643575f5ffd5b50565b5f8151905061065481610630565b92915050565b5f6020828403121561066f5761066e6103d7565b5b5f61067c84828501610646565b91505092915050565b5f81519050919050565b7f4e487b71000000000000000000000000000000000000000000000000000000005f52602260045260245ffd5b5f60028204905060018216806106d357607f821691505b6020821081036106e6576106e561068f565b5b50919050565b5f819050815f5260205f209050919050565b5f6020601f8301049050919050565b5f82821b905092915050565b5f600883026107487fffffffffffffffffffffffffffffffffffffffffffffffffffffffffffffffff8261070d565b610752868361070d565b95508019841693508086168417925050509392505050565b5f819050919050565b5f819050919050565b5f61079661079161078c8461076a565b610773565b61076a565b9050919050565b5f819050919050565b6107af8361077c565b6107c36107bb8261079d565b848454610719565b825550505050565b5f5f905090565b6107da6107cb565b6107e58184846107a6565b505050565b5b81811015610808576107fd5f826107d2565b6001810190506107eb565b5050565b601f82111561084d5761081e816106ec565b610827846106fe565b81016020851015610836578190505b61084a610842856106fe565b8301826107ea565b50505b505050565b5f82821c905092915050565b5f61086d5f1984600802610852565b1980831691505092915050565b5f610885838361085e565b9150826002028217905092915050565b61089e82610685565b67ffffffffffffffff8111156108b7576108b6610451565b5b6108c182546106bc565b6108cc82828561080c565b5f60209050601f8311600181146108fd575f84156108eb578287015190505b6108f5858261087a565b86555061095c565b601f19841661090b866106ec565b5f5b828110156109325784890151825560018201915060208501945060208101905061090d565b8683101561094f578489015161094b601f89168261085e565b8355505b6001600288020188555050505b505050505050565b5f81905092915050565b5f819050815f5260205f209050919050565b5f815461098c816106bc565b6109968186610964565b9450600182165f81146109b057600181146109c5576109f7565b60ff19831686528115158202860193506109f7565b6109ce8561096e565b5f5b838110156109ef578154818901526001820191506020810190506109d0565b838801955050505b50505092915050565b5f610a0b8284610980565b915081905092915050565b5f819050919050565b610a2881610a16565b82525050565b610a378161076a565b82525050565b610a46816103fe565b82525050565b5f60a082019050610a5f5f830188610a1f565b610a6c6020830187610a1f565b610a796040830186610a1f565b610a866060830185610a2e565b610a936080830184610a3d565b9695505050505050565b60805160a05160c05160e051613cf5610aec5f395f8181610c2201528181610fb2015281816110270152818161150a015261156801525f610a2601525f6109f201525f6109cd0152613cf55ff3fe6080604052600436106101db575f3560e01c80637a9e5e4b11610101578063bc197c8111610094578063e37d7e6811610063578063e37d7e68146106d6578063f23a6e6114610700578063f2fde38b1461073c578063f6e715d014610764576101e2565b8063bc197c811461060c578063bf7e214f14610648578063d505accf14610672578063dd62ed3e1461069a576101e2565b806392f93232116100d057806392f932321461055457806395d89b411461057c578063a9059cbb146105a6578063b187bd26146105e2576101e2565b80637a9e5e4b146104b05780637ecebe00146104d85780638456cb59146105145780638da5cb5b1461052a576101e2565b80633644e515116101795780633f4ba83a116101485780633f4ba83a1461040c578063617fc690146104225780636baf8dbc1461044c57806370a0823114610474576101e2565b80633644e51514610354578063366d7fe11461037e57806338d52e0f146103ba57806339f8d492146103e4576101e2565b8063150b7a02116101b5578063150b7a021461028857806318160ddd146102c457806323b872dd146102ee578063313ce5671461032a576101e2565b806301ffc9a7146101e657806306fdde0314610222578063095ea7b31461024c576101e2565b366101e257005b5f5ffd5b3480156101f1575f5ffd5b5061020c6004803603810190610207919061279e565b6107a0565b60405161021991906127e3565b60405180910390f35b34801561022d575f5ffd5b50610236610819565b604051610243919061286c565b60405180910390f35b348015610257575f5ffd5b50610272600480360381019061026d9190612919565b6108a4565b60405161027f91906127e3565b60405180910390f35b348015610293575f5ffd5b506102ae60048036038101906102a99190612a83565b610991565b6040516102bb9190612b12565b60405180910390f35b3480156102cf575f5ffd5b506102d86109a4565b6040516102e59190612b3a565b60405180910390f35b3480156102f9575f5ffd5b50610314600480360381019061030f9190612b53565b6109aa565b60405161032191906127e3565b60405180910390f35b348015610335575f5ffd5b5061033e6109cb565b60405161034b9190612bbe565b60405180910390f35b34801561035f575f5ffd5b506103686109ef565b6040516103759190612bef565b60405180910390f35b348015610389575f5ffd5b506103a4600480360381019061039f9190612d0f565b610a4b565b6040516103b19190612ecc565b60405180910390f35b3480156103c5575f5ffd5b506103ce610c20565b6040516103db9190612f47565b60405180910390f35b3480156103ef575f5ffd5b5061040a60048036038101906104059190612f60565b610c44565b005b348015610417575f5ffd5b50610420610d56565b005b34801561042d575f5ffd5b50610436610f11565b6040516104439190612fab565b60405180910390f35b348015610457575f5ffd5b50610472600480360381019061046d9190612fc4565b610f36565b005b34801561047f575f5ffd5b5061049a60048036038101906104959190612f60565b6110b2565b6040516104a79190612b3a565b60405180910390f35b3480156104bb575f5ffd5b506104d660048036038101906104d19190613063565b6110c7565b005b3480156104e3575f5ffd5b506104fe60048036038101906104f99190612f60565b611283565b60405161050b9190612b3a565b60405180910390f35b34801561051f575f5ffd5b50610528611298565b005b348015610535575f5ffd5b5061053e611454565b60405161054b919061309d565b60405180910390f35b34801561055f575f5ffd5b5061057a60048036038101906105759190612fc4565b611479565b005b348015610587575f5ffd5b506105906115f3565b60405161059d919061286c565b60405180910390f35b3480156105b1575f5ffd5b506105cc60048036038101906105c79190612919565b61167f565b6040516105d991906127e3565b60405180910390f35b3480156105ed575f5ffd5b506105f661169e565b60405161060391906127e3565b60405180910390f35b348015610617575f5ffd5b50610632600480360381019061062d9190613176565b6116b1565b60405161063f9190612b12565b60405180910390f35b348015610653575f5ffd5b5061065c6116c5565b6040516106699190613261565b60405180910390f35b34801561067d575f5ffd5b50610698600480360381019061069391906132ce565b6116ea565b005b3480156106a5575f5ffd5b506106c060048036038101906106bb919061336b565b6119d7565b6040516106cd9190612b3a565b60405180910390f35b3480156106e1575f5ffd5b506106ea6119f7565b6040516106f791906133c9565b60405180910390f35b34801561070b575f5ffd5b50610726600480360381019061072191906133e2565b611a1c565b6040516107339190612b12565b60405180910390f35b348015610747575f5ffd5b50610762600480360381019061075d9190612f60565b611a30565b005b34801561076f575f5ffd5b5061078a600480360381019061078591906134ca565b611b39565b6040516107979190613583565b60405180910390f35b5f7f4e2312e0000000000000000000000000000000000000000000000000000000007bffffffffffffffffffffffffffffffffffffffffffffffffffffffff1916827bffffffffffffffffffffffffffffffffffffffffffffffffffffffff19161480610812575061081182611c1f565b5b9050919050565b5f8054610825906135d0565b80601f0160208091040260200160405190810160405280929190818152602001828054610851906135d0565b801561089c5780601f106108735761010080835404028352916020019161089c565b820191905f5260205f20905b81548152906001019060200180831161087f57829003601f168201915b505050505081565b5f8160045f3373ffffffffffffffffffffffffffffffffffffffff1673ffffffffffffffffffffffffffffffffffffffff1681526020019081526020015f205f8573ffffffffffffffffffffffffffffffffffffffff1673ffffffffffffffffffffffffffffffffffffffff1681526020019081526020015f20819055508273ffffffffffffffffffffffffffffffffffffffff163373ffffffffffffffffffffffffffffffffffffffff167f8c5be1e5ebec7d5bd14f71427d1e84f3dd0314c0f7b2291e5b200ac8c7c3b9258460405161097f9190612b3a565b60405180910390a36001905092915050565b5f63150b7a0260e01b9050949350505050565b60025481565b5f6109b784848433611c88565b6109c2848484611d70565b90509392505050565b7f000000000000000000000000000000000000000000000000000000000000000081565b5f7f00000000000000000000000000000000000000000000000000000000000000004614610a2457610a1f611fab565b610a46565b7f00000000000000000000000000000000000000000000000000000000000000005b905090565b6060610a7a335f357fffffffff0000000000000000000000000000000000000000000000000000000016612035565b610ab9576040517f08c379a0000000000000000000000000000000000000000000000000000000008152600401610ab09061364a565b60405180910390fd5b5f8787905090508067ffffffffffffffff811115610ada57610ad961295f565b5b604051908082528060200260200182016040528015610b0d57816020015b6060815260200190600190039081610af85790505b5091505f5b81811015610c1457610beb878783818110610b3057610b2f613668565b5b9050602002810190610b4291906136a1565b8080601f0160208091040260200160405190810160405280939291908181526020018383808284375f81840152601f19601f82011690508083019250505050505050868684818110610b9757610b96613668565b5b905060200201358b8b85818110610bb157610bb0613668565b5b9050602002016020810190610bc69190612f60565b73ffffffffffffffffffffffffffffffffffffffff1661216f9092919063ffffffff16565b838281518110610bfe57610bfd613668565b5b6020026020010181905250806001019050610b12565b50509695505050505050565b7f000000000000000000000000000000000000000000000000000000000000000081565b60085f9054906101000a900473ffffffffffffffffffffffffffffffffffffffff1673ffffffffffffffffffffffffffffffffffffffff1663c138c139336040518263ffffffff1660e01b8152600401610c9e919061309d565b602060405180830381865afa158015610cb9573d5f5f3e3d5ffd5b505050506040513d601f19601f82011682018060405250810190610cdd919061372d565b610d13576040517f71d78b1200000000000000000000000000000000000000000000000000000000815260040160405180910390fd5b8060095f6101000a81548173ffffffffffffffffffffffffffffffffffffffff021916908373ffffffffffffffffffffffffffffffffffffffff16021790555050565b60085f9054906101000a900473ffffffffffffffffffffffffffffffffffffffff1673ffffffffffffffffffffffffffffffffffffffff1663d35911f2336040518263ffffffff1660e01b8152600401610db0919061309d565b602060405180830381865afa158015610dcb573d5f5f3e3d5ffd5b505050506040513d601f19601f82011682018060405250810190610def919061372d565b158015610e92575060085f9054906101000a900473ffffffffffffffffffffffffffffffffffffffff1673ffffffffffffffffffffffffffffffffffffffff1663c138c139336040518263ffffffff1660e01b8152600401610e51919061309d565b602060405180830381865afa158015610e6c573d5f5f3e3d5ffd5b505050506040513d601f19601f82011682018060405250810190610e90919061372d565b155b15610ec9576040517fdc85555400000000000000000000000000000000000000000000000000000000815260040160405180910390fd5b5f600860146101000a81548160ff0219169083151502179055507fa45f47fdea8a1efdd9029a5691c7f759c32b7c698632b563573e155625d1693360405160405180910390a1565b60095f9054906101000a900473ffffffffffffffffffffffffffffffffffffffff1681565b610f63335f357fffffffff0000000000000000000000000000000000000000000000000000000016612035565b610fa2576040517f08c379a0000000000000000000000000000000000000000000000000000000008152600401610f999061364a565b60405180910390fd5b5f831115610ff857610ff78430857f000000000000000000000000000000000000000000000000000000000000000073ffffffffffffffffffffffffffffffffffffffff1661223a909392919063ffffffff16565b5b6110045f838333611c88565b61100e828261230e565b8173ffffffffffffffffffffffffffffffffffffffff167f000000000000000000000000000000000000000000000000000000000000000073ffffffffffffffffffffffffffffffffffffffff168573ffffffffffffffffffffffffffffffffffffffff167fea00f88768a86184a6e515238a549c171769fe7460a011d6fd0bcd48ca078ea486856040516110a4929190613758565b60405180910390a450505050565b6003602052805f5260405f205f915090505481565b60065f9054906101000a900473ffffffffffffffffffffffffffffffffffffffff1673ffffffffffffffffffffffffffffffffffffffff163373ffffffffffffffffffffffffffffffffffffffff1614806111de575060075f9054906101000a900473ffffffffffffffffffffffffffffffffffffffff1673ffffffffffffffffffffffffffffffffffffffff1663b700961333305f357fffffffff00000000000000000000000000000000000000000000000000000000166040518463ffffffff1660e01b815260040161119e9392919061377f565b602060405180830381865afa1580156111b9573d5f5f3e3d5ffd5b505050506040513d601f19601f820116820180604052508101906111dd919061372d565b5b6111e6575f5ffd5b8060075f6101000a81548173ffffffffffffffffffffffffffffffffffffffff021916908373ffffffffffffffffffffffffffffffffffffffff1602179055508073ffffffffffffffffffffffffffffffffffffffff163373ffffffffffffffffffffffffffffffffffffffff167fa3396fd7f6e0a21b50e5089d2da70d5ac0a3bbbd1f617a93f134b7638998019860405160405180910390a350565b6005602052805f5260405f205f915090505481565b60085f9054906101000a900473ffffffffffffffffffffffffffffffffffffffff1673ffffffffffffffffffffffffffffffffffffffff1663d35911f2336040518263ffffffff1660e01b81526004016112f2919061309d565b602060405180830381865afa15801561130d573d5f5f3e3d5ffd5b505050506040513d601f19601f82011682018060405250810190611331919061372d565b1580156113d4575060085f9054906101000a900473ffffffffffffffffffffffffffffffffffffffff1673ffffffffffffffffffffffffffffffffffffffff1663c138c139336040518263ffffffff1660e01b8152600401611393919061309d565b602060405180830381865afa1580156113ae573d5f5f3e3d5ffd5b505050506040513d601f19601f820116820180604052508101906113d2919061372d565b155b1561140b576040517fdc85555400000000000000000000000000000000000000000000000000000000815260040160405180910390fd5b6001600860146101000a81548160ff0219169083151502179055507f9e87fac88ff661f02d44f95383c817fece4bce600a3dab7a54406878b965e75260405160405180910390a1565b60065f9054906101000a900473ffffffffffffffffffffffffffffffffffffffff1681565b6114a6335f357fffffffff0000000000000000000000000000000000000000000000000000000016612035565b6114e5576040517f08c379a00000000000000000000000000000000000000000000000000000000081526004016114dc9061364a565b60405180910390fd5b6114f1825f8333611c88565b6114fb82826123d9565b5f83111561154f5761154e84847f000000000000000000000000000000000000000000000000000000000000000073ffffffffffffffffffffffffffffffffffffffff166124a49092919063ffffffff16565b5b8173ffffffffffffffffffffffffffffffffffffffff167f000000000000000000000000000000000000000000000000000000000000000073ffffffffffffffffffffffffffffffffffffffff168573ffffffffffffffffffffffffffffffffffffffff167fe0c82280a1164680e0cf43be7db4c4c9f985423623ad7a544fb76c772bdc604386856040516115e5929190613758565b60405180910390a450505050565b60018054611600906135d0565b80601f016020809104026020016040519081016040528092919081815260200182805461162c906135d0565b80156116775780601f1061164e57610100808354040283529160200191611677565b820191905f5260205f20905b81548152906001019060200180831161165a57829003601f168201915b505050505081565b5f61168c33848433611c88565b611696838361255b565b905092915050565b600860149054906101000a900460ff1681565b5f63bc197c8160e01b905095945050505050565b60075f9054906101000a900473ffffffffffffffffffffffffffffffffffffffff1681565b4284101561172d576040517f08c379a0000000000000000000000000000000000000000000000000000000008152600401611724906137fe565b60405180910390fd5b5f60016117386109ef565b7f6e71edae12b1b97f4d1f60370fef10105fa2faae0126114a169c64845d6126c98a8a8a60055f8f73ffffffffffffffffffffffffffffffffffffffff1673ffffffffffffffffffffffffffffffffffffffff1681526020019081526020015f205f815480929190600101919050558b6040516020016117bd9695949392919061381c565b604051602081830303815290604052805190602001206040516020016117e49291906138ef565b604051602081830303815290604052805190602001208585856040515f81526020016040526040516118199493929190613925565b6020604051602081039080840390855afa158015611839573d5f5f3e3d5ffd5b5050506020604051035190505f73ffffffffffffffffffffffffffffffffffffffff168173ffffffffffffffffffffffffffffffffffffffff16141580156118ac57508773ffffffffffffffffffffffffffffffffffffffff168173ffffffffffffffffffffffffffffffffffffffff16145b6118eb576040517f08c379a00000000000000000000000000000000000000000000000000000000081526004016118e2906139b2565b60405180910390fd5b8560045f8373ffffffffffffffffffffffffffffffffffffffff1673ffffffffffffffffffffffffffffffffffffffff1681526020019081526020015f205f8973ffffffffffffffffffffffffffffffffffffffff1673ffffffffffffffffffffffffffffffffffffffff1681526020019081526020015f2081905550508573ffffffffffffffffffffffffffffffffffffffff168773ffffffffffffffffffffffffffffffffffffffff167f8c5be1e5ebec7d5bd14f71427d1e84f3dd0314c0f7b2291e5b200ac8c7c3b925876040516119c69190612b3a565b60405180910390a350505050505050565b6004602052815f5260405f20602052805f5260405f205f91509150505481565b60085f9054906101000a900473ffffffffffffffffffffffffffffffffffffffff1681565b5f63f23a6e6160e01b905095945050505050565b611a5d335f357fffffffff0000000000000000000000000000000000000000000000000000000016612035565b611a9c576040517f08c379a0000000000000000000000000000000000000000000000000000000008152600401611a939061364a565b60405180910390fd5b8060065f6101000a81548173ffffffffffffffffffffffffffffffffffffffff021916908373ffffffffffffffffffffffffffffffffffffffff1602179055508073ffffffffffffffffffffffffffffffffffffffff163373ffffffffffffffffffffffffffffffffffffffff167f8be0079c531659141344cd1fd0a4f28419497f9722a3daafe3b4186f6b6457e060405160405180910390a350565b6060611b68335f357fffffffff0000000000000000000000000000000000000000000000000000000016612035565b611ba7576040517f08c379a0000000000000000000000000000000000000000000000000000000008152600401611b9e9061364a565b60405180910390fd5b611c1584848080601f0160208091040260200160405190810160405280939291908181526020018383808284375f81840152601f19601f82011690508083019250505050505050838773ffffffffffffffffffffffffffffffffffffffff1661216f9092919063ffffffff16565b9050949350505050565b5f7f01ffc9a7000000000000000000000000000000000000000000000000000000007bffffffffffffffffffffffffffffffffffffffffffffffffffffffff1916827bffffffffffffffffffffffffffffffffffffffffffffffffffffffff1916149050919050565b5f73ffffffffffffffffffffffffffffffffffffffff1660095f9054906101000a900473ffffffffffffffffffffffffffffffffffffffff1673ffffffffffffffffffffffffffffffffffffffff1614611d6a5760095f9054906101000a900473ffffffffffffffffffffffffffffffffffffffff1673ffffffffffffffffffffffffffffffffffffffff1663a6549221858585856040518563ffffffff1660e01b8152600401611d3c94939291906139d0565b5f604051808303815f87803b158015611d53575f5ffd5b505af1158015611d65573d5f5f3e3d5ffd5b505050505b50505050565b5f5f60045f8673ffffffffffffffffffffffffffffffffffffffff1673ffffffffffffffffffffffffffffffffffffffff1681526020019081526020015f205f3373ffffffffffffffffffffffffffffffffffffffff1673ffffffffffffffffffffffffffffffffffffffff1681526020019081526020015f205490507fffffffffffffffffffffffffffffffffffffffffffffffffffffffffffffffff8114611e9d578281611e209190613a40565b60045f8773ffffffffffffffffffffffffffffffffffffffff1673ffffffffffffffffffffffffffffffffffffffff1681526020019081526020015f205f3373ffffffffffffffffffffffffffffffffffffffff1673ffffffffffffffffffffffffffffffffffffffff1681526020019081526020015f20819055505b8260035f8773ffffffffffffffffffffffffffffffffffffffff1673ffffffffffffffffffffffffffffffffffffffff1681526020019081526020015f205f828254611ee99190613a40565b925050819055508260035f8673ffffffffffffffffffffffffffffffffffffffff1673ffffffffffffffffffffffffffffffffffffffff1681526020019081526020015f205f82825401925050819055508373ffffffffffffffffffffffffffffffffffffffff168573ffffffffffffffffffffffffffffffffffffffff167fddf252ad1be2c89b69c2b068fc378daa952ba7f163c4a11628f55a4df523b3ef85604051611f979190612b3a565b60405180910390a360019150509392505050565b5f7f8b73c3c69bb8fe3d512ecc4cf759cc79239f7b179b0ffacaa9a75d522b39400f5f604051611fdb9190613b0f565b60405180910390207fc89efdaa54c0f20c7adf612882df0950f5a951637e0307cdcb4c672f298b8bc6463060405160200161201a959493929190613b25565b60405160208183030381529060405280519060200120905090565b5f5f60075f9054906101000a900473ffffffffffffffffffffffffffffffffffffffff1690505f73ffffffffffffffffffffffffffffffffffffffff168173ffffffffffffffffffffffffffffffffffffffff161415801561210f57508073ffffffffffffffffffffffffffffffffffffffff1663b70096138530866040518463ffffffff1660e01b81526004016120cf9392919061377f565b602060405180830381865afa1580156120ea573d5f5f3e3d5ffd5b505050506040513d601f19601f8201168201806040525081019061210e919061372d565b5b80612166575060065f9054906101000a900473ffffffffffffffffffffffffffffffffffffffff1673ffffffffffffffffffffffffffffffffffffffff168473ffffffffffffffffffffffffffffffffffffffff16145b91505092915050565b6060814710156121b85747826040517fcf4791810000000000000000000000000000000000000000000000000000000081526004016121af929190613758565b60405180910390fd5b5f5f8573ffffffffffffffffffffffffffffffffffffffff1684866040516121e09190613ba6565b5f6040518083038185875af1925050503d805f811461221a576040519150601f19603f3d011682016040523d82523d5f602084013e61221f565b606091505b509150915061222f868383612668565b925050509392505050565b5f6040517f23b872dd00000000000000000000000000000000000000000000000000000000815273ffffffffffffffffffffffffffffffffffffffff8516600482015273ffffffffffffffffffffffffffffffffffffffff8416602482015282604482015260205f6064835f8a5af1915081601f3d1160015f5114161516156122c6573d863b15171591505b5080612307576040517f08c379a00000000000000000000000000000000000000000000000000000000081526004016122fe90613c06565b60405180910390fd5b5050505050565b8060025f82825461231f9190613c24565b925050819055508060035f8473ffffffffffffffffffffffffffffffffffffffff1673ffffffffffffffffffffffffffffffffffffffff1681526020019081526020015f205f82825401925050819055508173ffffffffffffffffffffffffffffffffffffffff165f73ffffffffffffffffffffffffffffffffffffffff167fddf252ad1be2c89b69c2b068fc378daa952ba7f163c4a11628f55a4df523b3ef836040516123cd9190612b3a565b60405180910390a35050565b8060035f8473ffffffffffffffffffffffffffffffffffffffff1673ffffffffffffffffffffffffffffffffffffffff1681526020019081526020015f205f8282546124259190613a40565b925050819055508060025f82825403925050819055505f73ffffffffffffffffffffffffffffffffffffffff168273ffffffffffffffffffffffffffffffffffffffff167fddf252ad1be2c89b69c2b068fc378daa952ba7f163c4a11628f55a4df523b3ef836040516124989190612b3a565b60405180910390a35050565b5f6040517fa9059cbb00000000000000000000000000000000000000000000000000000000815273ffffffffffffffffffffffffffffffffffffffff8416600482015282602482015260205f6044835f895af1915081601f3d1160015f511416151615612514573d853b15171591505b5080612555576040517f08c379a000000000000000000000000000000000000000000000000000000000815260040161254c90613ca1565b60405180910390fd5b50505050565b5f8160035f3373ffffffffffffffffffffffffffffffffffffffff1673ffffffffffffffffffffffffffffffffffffffff1681526020019081526020015f205f8282546125a89190613a40565b925050819055508160035f8573ffffffffffffffffffffffffffffffffffffffff1673ffffffffffffffffffffffffffffffffffffffff1681526020019081526020015f205f82825401925050819055508273ffffffffffffffffffffffffffffffffffffffff163373ffffffffffffffffffffffffffffffffffffffff167fddf252ad1be2c89b69c2b068fc378daa952ba7f163c4a11628f55a4df523b3ef846040516126569190612b3a565b60405180910390a36001905092915050565b60608261267d57612678826126f5565b6126ed565b5f82511480156126a357505f8473ffffffffffffffffffffffffffffffffffffffff163b145b156126e557836040517f9996b3150000000000000000000000000000000000000000000000000000000081526004016126dc919061309d565b60405180910390fd5b8190506126ee565b5b9392505050565b5f8151111561270657805160208201fd5b6040517fd6bda27500000000000000000000000000000000000000000000000000000000815260040160405180910390fd5b5f604051905090565b5f5ffd5b5f5ffd5b5f7fffffffff0000000000000000000000000000000000000000000000000000000082169050919050565b61277d81612749565b8114612787575f5ffd5b50565b5f8135905061279881612774565b92915050565b5f602082840312156127b3576127b2612741565b5b5f6127c08482850161278a565b91505092915050565b5f8115159050919050565b6127dd816127c9565b82525050565b5f6020820190506127f65f8301846127d4565b92915050565b5f81519050919050565b5f82825260208201905092915050565b8281835e5f83830152505050565b5f601f19601f8301169050919050565b5f61283e826127fc565b6128488185612806565b9350612858818560208601612816565b61286181612824565b840191505092915050565b5f6020820190508181035f8301526128848184612834565b905092915050565b5f73ffffffffffffffffffffffffffffffffffffffff82169050919050565b5f6128b58261288c565b9050919050565b6128c5816128ab565b81146128cf575f5ffd5b50565b5f813590506128e0816128bc565b92915050565b5f819050919050565b6128f8816128e6565b8114612902575f5ffd5b50565b5f81359050612913816128ef565b92915050565b5f5f6040838503121561292f5761292e612741565b5b5f61293c858286016128d2565b925050602061294d85828601612905565b9150509250929050565b5f5ffd5b5f5ffd5b7f4e487b71000000000000000000000000000000000000000000000000000000005f52604160045260245ffd5b61299582612824565b810181811067ffffffffffffffff821117156129b4576129b361295f565b5b80604052505050565b5f6129c6612738565b90506129d2828261298c565b919050565b5f67ffffffffffffffff8211156129f1576129f061295f565b5b6129fa82612824565b9050602081019050919050565b828183375f83830152505050565b5f612a27612a22846129d7565b6129bd565b905082815260208101848484011115612a4357612a4261295b565b5b612a4e848285612a07565b509392505050565b5f82601f830112612a6a57612a69612957565b5b8135612a7a848260208601612a15565b91505092915050565b5f5f5f5f60808587031215612a9b57612a9a612741565b5b5f612aa8878288016128d2565b9450506020612ab9878288016128d2565b9350506040612aca87828801612905565b925050606085013567ffffffffffffffff811115612aeb57612aea612745565b5b612af787828801612a56565b91505092959194509250565b612b0c81612749565b82525050565b5f602082019050612b255f830184612b03565b92915050565b612b34816128e6565b82525050565b5f602082019050612b4d5f830184612b2b565b92915050565b5f5f5f60608486031215612b6a57612b69612741565b5b5f612b77868287016128d2565b9350506020612b88868287016128d2565b9250506040612b9986828701612905565b9150509250925092565b5f60ff82169050919050565b612bb881612ba3565b82525050565b5f602082019050612bd15f830184612baf565b92915050565b5f819050919050565b612be981612bd7565b82525050565b5f602082019050612c025f830184612be0565b92915050565b5f5ffd5b5f5ffd5b5f5f83601f840112612c2557612c24612957565b5b8235905067ffffffffffffffff811115612c4257612c41612c08565b5b602083019150836020820283011115612c5e57612c5d612c0c565b5b9250929050565b5f5f83601f840112612c7a57612c79612957565b5b8235905067ffffffffffffffff811115612c9757612c96612c08565b5b602083019150836020820283011115612cb357612cb2612c0c565b5b9250929050565b5f5f83601f840112612ccf57612cce612957565b5b8235905067ffffffffffffffff811115612cec57612ceb612c08565b5b602083019150836020820283011115612d0857612d07612c0c565b5b9250929050565b5f5f5f5f5f5f60608789031215612d2957612d28612741565b5b5f87013567ffffffffffffffff811115612d4657612d45612745565b5b612d5289828a01612c10565b9650965050602087013567ffffffffffffffff811115612d7557612d74612745565b5b612d8189828a01612c65565b9450945050604087013567ffffffffffffffff811115612da457612da3612745565b5b612db089828a01612cba565b92509250509295509295509295565b5f81519050919050565b5f82825260208201905092915050565b5f819050602082019050919050565b5f81519050919050565b5f82825260208201905092915050565b5f612e0c82612de8565b612e168185612df2565b9350612e26818560208601612816565b612e2f81612824565b840191505092915050565b5f612e458383612e02565b905092915050565b5f602082019050919050565b5f612e6382612dbf565b612e6d8185612dc9565b935083602082028501612e7f85612dd9565b805f5b85811015612eba5784840389528151612e9b8582612e3a565b9450612ea683612e4d565b925060208a01995050600181019050612e82565b50829750879550505050505092915050565b5f6020820190508181035f830152612ee48184612e59565b905092915050565b5f819050919050565b5f612f0f612f0a612f058461288c565b612eec565b61288c565b9050919050565b5f612f2082612ef5565b9050919050565b5f612f3182612f16565b9050919050565b612f4181612f27565b82525050565b5f602082019050612f5a5f830184612f38565b92915050565b5f60208284031215612f7557612f74612741565b5b5f612f82848285016128d2565b91505092915050565b5f612f9582612f16565b9050919050565b612fa581612f8b565b82525050565b5f602082019050612fbe5f830184612f9c565b92915050565b5f5f5f5f60808587031215612fdc57612fdb612741565b5b5f612fe9878288016128d2565b9450506020612ffa87828801612905565b935050604061300b878288016128d2565b925050606061301c87828801612905565b91505092959194509250565b5f613032826128ab565b9050919050565b61304281613028565b811461304c575f5ffd5b50565b5f8135905061305d81613039565b92915050565b5f6020828403121561307857613077612741565b5b5f6130858482850161304f565b91505092915050565b613097816128ab565b82525050565b5f6020820190506130b05f83018461308e565b92915050565b5f67ffffffffffffffff8211156130d0576130cf61295f565b5b602082029050602081019050919050565b5f6130f36130ee846130b6565b6129bd565b9050808382526020820190506020840283018581111561311657613115612c0c565b5b835b8181101561313f578061312b8882612905565b845260208401935050602081019050613118565b5050509392505050565b5f82601f83011261315d5761315c612957565b5b813561316d8482602086016130e1565b91505092915050565b5f5f5f5f5f60a0868803121561318f5761318e612741565b5b5f61319c888289016128d2565b95505060206131ad888289016128d2565b945050604086013567ffffffffffffffff8111156131ce576131cd612745565b5b6131da88828901613149565b935050606086013567ffffffffffffffff8111156131fb576131fa612745565b5b61320788828901613149565b925050608086013567ffffffffffffffff81111561322857613227612745565b5b61323488828901612a56565b9150509295509295909350565b5f61324b82612f16565b9050919050565b61325b81613241565b82525050565b5f6020820190506132745f830184613252565b92915050565b61328381612ba3565b811461328d575f5ffd5b50565b5f8135905061329e8161327a565b92915050565b6132ad81612bd7565b81146132b7575f5ffd5b50565b5f813590506132c8816132a4565b92915050565b5f5f5f5f5f5f5f60e0888a0312156132e9576132e8612741565b5b5f6132f68a828b016128d2565b97505060206133078a828b016128d2565b96505060406133188a828b01612905565b95505060606133298a828b01612905565b945050608061333a8a828b01613290565b93505060a061334b8a828b016132ba565b92505060c061335c8a828b016132ba565b91505092959891949750929550565b5f5f6040838503121561338157613380612741565b5b5f61338e858286016128d2565b925050602061339f858286016128d2565b9150509250929050565b5f6133b382612f16565b9050919050565b6133c3816133a9565b82525050565b5f6020820190506133dc5f8301846133ba565b92915050565b5f5f5f5f5f60a086880312156133fb576133fa612741565b5b5f613408888289016128d2565b9550506020613419888289016128d2565b945050604061342a88828901612905565b935050606061343b88828901612905565b925050608086013567ffffffffffffffff81111561345c5761345b612745565b5b61346888828901612a56565b9150509295509295909350565b5f5f83601f84011261348a57613489612957565b5b8235905067ffffffffffffffff8111156134a7576134a6612c08565b5b6020830191508360018202830111156134c3576134c2612c0c565b5b9250929050565b5f5f5f5f606085870312156134e2576134e1612741565b5b5f6134ef878288016128d2565b945050602085013567ffffffffffffffff8111156135105761350f612745565b5b61351c87828801613475565b9350935050604061352f87828801612905565b91505092959194509250565b5f82825260208201905092915050565b5f61355582612de8565b61355f818561353b565b935061356f818560208601612816565b61357881612824565b840191505092915050565b5f6020820190508181035f83015261359b818461354b565b905092915050565b7f4e487b71000000000000000000000000000000000000000000000000000000005f52602260045260245ffd5b5f60028204905060018216806135e757607f821691505b6020821081036135fa576135f96135a3565b5b50919050565b7f554e415554484f52495a454400000000000000000000000000000000000000005f82015250565b5f613634600c83612806565b915061363f82613600565b602082019050919050565b5f6020820190508181035f83015261366181613628565b9050919050565b7f4e487b71000000000000000000000000000000000000000000000000000000005f52603260045260245ffd5b5f5ffd5b5f5ffd5b5f5ffd5b5f5f833560016020038436030381126136bd576136bc613695565b5b80840192508235915067ffffffffffffffff8211156136df576136de613699565b5b6020830192506001820236038313156136fb576136fa61369d565b5b509250929050565b61370c816127c9565b8114613716575f5ffd5b50565b5f8151905061372781613703565b92915050565b5f6020828403121561374257613741612741565b5b5f61374f84828501613719565b91505092915050565b5f60408201905061376b5f830185612b2b565b6137786020830184612b2b565b9392505050565b5f6060820190506137925f83018661308e565b61379f602083018561308e565b6137ac6040830184612b03565b949350505050565b7f5045524d49545f444541444c494e455f455850495245440000000000000000005f82015250565b5f6137e8601783612806565b91506137f3826137b4565b602082019050919050565b5f6020820190508181035f830152613815816137dc565b9050919050565b5f60c08201905061382f5f830189612be0565b61383c602083018861308e565b613849604083018761308e565b6138566060830186612b2b565b6138636080830185612b2b565b61387060a0830184612b2b565b979650505050505050565b5f81905092915050565b7f19010000000000000000000000000000000000000000000000000000000000005f82015250565b5f6138b960028361387b565b91506138c482613885565b600282019050919050565b5f819050919050565b6138e96138e482612bd7565b6138cf565b82525050565b5f6138f9826138ad565b915061390582856138d8565b60208201915061391582846138d8565b6020820191508190509392505050565b5f6080820190506139385f830187612be0565b6139456020830186612baf565b6139526040830185612be0565b61395f6060830184612be0565b95945050505050565b7f494e56414c49445f5349474e45520000000000000000000000000000000000005f82015250565b5f61399c600e83612806565b91506139a782613968565b602082019050919050565b5f6020820190508181035f8301526139c981613990565b9050919050565b5f6080820190506139e35f83018761308e565b6139f0602083018661308e565b6139fd6040830185612b2b565b613a0a606083018461308e565b95945050505050565b7f4e487b71000000000000000000000000000000000000000000000000000000005f52601160045260245ffd5b5f613a4a826128e6565b9150613a55836128e6565b9250828203905081811115613a6d57613a6c613a13565b5b92915050565b5f81905092915050565b5f819050815f5260205f209050919050565b5f8154613a9b816135d0565b613aa58186613a73565b9450600182165f8114613abf5760018114613ad457613b06565b60ff1983168652811515820286019350613b06565b613add85613a7d565b5f5b83811015613afe57815481890152600182019150602081019050613adf565b838801955050505b50505092915050565b5f613b1a8284613a8f565b915081905092915050565b5f60a082019050613b385f830188612be0565b613b456020830187612be0565b613b526040830186612be0565b613b5f6060830185612b2b565b613b6c608083018461308e565b9695505050505050565b5f613b8082612de8565b613b8a8185613a73565b9350613b9a818560208601612816565b80840191505092915050565b5f613bb18284613b76565b915081905092915050565b7f5452414e534645525f46524f4d5f4641494c45440000000000000000000000005f82015250565b5f613bf0601483612806565b9150613bfb82613bbc565b602082019050919050565b5f6020820190508181035f830152613c1d81613be4565b9050919050565b5f613c2e826128e6565b9150613c39836128e6565b9250828201905080821115613c5157613c50613a13565b5b92915050565b7f5452414e534645525f4641494c454400000000000000000000000000000000005f82015250565b5f613c8b600f83612806565b9150613c9682613c57565b602082019050919050565b5f6020820190508181035f830152613cb881613c7f565b905091905056fea26469706673582212202900edd8ef0ad471cf39de4543926fc9036e47f976359fe603cc7223c3ed8a3264736f6c634300081e0033",
  "linkReferences": {},
  "deployedLinkReferences": {},
  "immutableReferences": {
    "8537": [
      {
        "length": 32,
        "start": 2509
      }
    ],
    "8551": [
      {
        "length": 32,
        "start": 2546
      }
    ],
    "8553": [
      {
        "length": 32,
        "start": 2598
      }
    ],
    "10113": [
      {
        "length": 32,
        "start": 3106
      },
      {
        "length": 32,
        "start": 4018
      },
      {
        "length": 32,
        "start": 4135
      },
      {
        "length": 32,
        "start": 5386
      },
      {
        "length": 32,
        "start": 5480
      }
    ]
  },
  "inputSourceName": "project/contracts/core/BoringVault.sol",
  "buildInfoId": "solc-0_8_30-c343951cd4ea2dd0f437bcf4da6c38bb2f2936dc"
}