{
  "_format": "hh3-artifact-1",
  "contractName": "MockStrategist",
  "sourceName": "contracts/helper/MockStrategist.sol",
  "abi": [
    {
      "inputs": [],
      "stateMutability": "nonpayable",
      "type": "constructor"
    },
    {
      "inputs": [
        {
          "internalType": "address",
          "name": "asset",
          "type": "address"
        },
        {
          "internalType": "uint256",
          "name": "amount",
          "type": "uint256"
        }
      ],
      "name": "deposit",
      "outputs": [],
      "stateMutability": "nonpayable",
      "type": "function"
    },
    {
      "inputs": [
        {
          "internalType": "address",
          "name": "asset",
          "type": "address"
        },
        {
          "internalType": "uint256",
          "name": "amount",
          "type": "uint256"
        }
      ],
      "name": "withdraw",
      "outputs": [],
      "stateMutability": "nonpayable",
      "type": "function"
    }
  ],
  "bytecode": "0x6080604052348015600e575f5ffd5b506104408061001c5f395ff3fe608060405234801561000f575f5ffd5b5060043610610034575f3560e01c806347e7ef2414610038578063f3fef3a314610054575b5f5ffd5b610052600480360381019061004d91906102ec565b610070565b005b61006e600480360381019061006991906102ec565b6100a1565b005b61009d3330838573ffffffffffffffffffffffffffffffffffffffff166100d0909392919063ffffffff16565b5050565b6100cc33828473ffffffffffffffffffffffffffffffffffffffff166101a49092919063ffffffff16565b5050565b5f6040517f23b872dd00000000000000000000000000000000000000000000000000000000815273ffffffffffffffffffffffffffffffffffffffff8516600482015273ffffffffffffffffffffffffffffffffffffffff8416602482015282604482015260205f6064835f8a5af1915081601f3d1160015f51141615161561015c573d863b15171591505b508061019d576040517f08c379a000000000000000000000000000000000000000000000000000000000815260040161019490610384565b60405180910390fd5b5050505050565b5f6040517fa9059cbb00000000000000000000000000000000000000000000000000000000815273ffffffffffffffffffffffffffffffffffffffff8416600482015282602482015260205f6044835f895af1915081601f3d1160015f511416151615610214573d853b15171591505b5080610255576040517f08c379a000000000000000000000000000000000000000000000000000000000815260040161024c906103ec565b60405180910390fd5b50505050565b5f5ffd5b5f73ffffffffffffffffffffffffffffffffffffffff82169050919050565b5f6102888261025f565b9050919050565b6102988161027e565b81146102a2575f5ffd5b50565b5f813590506102b38161028f565b92915050565b5f819050919050565b6102cb816102b9565b81146102d5575f5ffd5b50565b5f813590506102e6816102c2565b92915050565b5f5f604083850312156103025761030161025b565b5b5f61030f858286016102a5565b9250506020610320858286016102d8565b9150509250929050565b5f82825260208201905092915050565b7f5452414e534645525f46524f4d5f4641494c45440000000000000000000000005f82015250565b5f61036e60148361032a565b91506103798261033a565b602082019050919050565b5f6020820190508181035f83015261039b81610362565b9050919050565b7f5452414e534645525f4641494c454400000000000000000000000000000000005f82015250565b5f6103d6600f8361032a565b91506103e1826103a2565b602082019050919050565b5f6020820190508181035f830152610403816103ca565b905091905056fea2646970667358221220532292857ead222fb2ea4d9241846792e53238adb1feb73629535a4abdb77c3e64736f6c634300081e0033",
  "linkReferences": {},
  "deployedLinkReferences": {},
  "immutableReferences": {},
  "inputSourceName": "project/contracts/helper/MockStrategist.sol",
  "buildInfoId": "solc-0_8_30-beb2decf7d274dc7b8fec36cfd5faa8fba2ea8b9"
}