{
  "_format": "hh3-artifact-1",
  "contractName": "DelayedWithdraw",
  "sourceName": "contracts/core/DelayedWithdraw.sol",
  "abi": [
    {
      "inputs": [
        {
          "internalType": "address",
          "name": "_primeRBAC",
          "type": "address"
        },
        {
          "internalType": "address",
          "name": "_vault",
          "type": "address"
        },
        {
          "internalType": "address",
          "name": "_accountant",
          "type": "address"
        },
        {
          "internalType": "address",
          "name": "_teller",
          "type": "address"
        },
        {
          "internalType": "address",
          "name": "_payoutAddress",
          "type": "address"
        }
      ],
      "stateMutability": "nonpayable",
      "type": "constructor"
    },
    {
      "inputs": [],
      "name": "DelayedWithdraw__AlreadySetup",
      "type": "error"
    },
    {
      "inputs": [],
      "name": "DelayedWithdraw__BadAddress",
      "type": "error"
    },
    {
      "inputs": [],
      "name": "DelayedWithdraw__CallerNotBoringVault",
      "type": "error"
    },
    {
      "inputs": [],
      "name": "DelayedWithdraw__CannotWithdrawBoringToken",
      "type": "error"
    },
    {
      "inputs": [],
      "name": "DelayedWithdraw__ExpeditedWithdrawFeeTooHigh",
      "type": "error"
    },
    {
      "inputs": [],
      "name": "DelayedWithdraw__ExpeditedWithdrawNotAvailable",
      "type": "error"
    },
    {
      "inputs": [],
      "name": "DelayedWithdraw__MaxLossExceeded",
      "type": "error"
    },
    {
      "inputs": [],
      "name": "DelayedWithdraw__NoSharesToWithdraw",
      "type": "error"
    },
    {
      "inputs": [],
      "name": "DelayedWithdraw__NoWithdrawToAccelerate",
      "type": "error"
    },
    {
      "inputs": [],
      "name": "DelayedWithdraw__Paused",
      "type": "error"
    },
    {
      "inputs": [],
      "name": "DelayedWithdraw__ThirdPartyCompletionNotAllowed",
      "type": "error"
    },
    {
      "inputs": [],
      "name": "DelayedWithdraw__WithdrawAlreadyAccelerated",
      "type": "error"
    },
    {
      "inputs": [],
      "name": "DelayedWithdraw__WithdrawFeeTooHigh",
      "type": "error"
    },
    {
      "inputs": [],
      "name": "DelayedWithdraw__WithdrawNotMatured",
      "type": "error"
    },
    {
      "inputs": [],
      "name": "DelayedWithdraw__WithdrawPending",
      "type": "error"
    },
    {
      "inputs": [],
      "name": "DelayedWithdraw__WithdrawsNotAllowed",
      "type": "error"
    },
    {
      "inputs": [],
      "name": "NOT_OPERATOR",
      "type": "error"
    },
    {
      "inputs": [],
      "name": "NOT_PROTOCOL_ADMIN",
      "type": "error"
    },
    {
      "inputs": [],
      "name": "ZERO_ADDRESS",
      "type": "error"
    },
    {
      "anonymous": false,
      "inputs": [
        {
          "indexed": true,
          "internalType": "address",
          "name": "user",
          "type": "address"
        },
        {
          "indexed": true,
          "internalType": "contract Authority",
          "name": "newAuthority",
          "type": "address"
        }
      ],
      "name": "AuthorityUpdated",
      "type": "event"
    },
    {
      "anonymous": false,
      "inputs": [
        {
          "indexed": false,
          "internalType": "uint16",
          "name": "newFee",
          "type": "uint16"
        }
      ],
      "name": "ExpeditedWithdrawFeeUpdated",
      "type": "event"
    },
    {
      "anonymous": false,
      "inputs": [
        {
          "indexed": false,
          "internalType": "address",
          "name": "newFeeAddress",
          "type": "address"
        }
      ],
      "name": "FeeAddressSet",
      "type": "event"
    },
    {
      "anonymous": false,
      "inputs": [
        {
          "indexed": true,
          "internalType": "address",
          "name": "user",
          "type": "address"
        },
        {
          "indexed": true,
          "internalType": "address",
          "name": "newOwner",
          "type": "address"
        }
      ],
      "name": "OwnershipTransferred",
      "type": "event"
    },
    {
      "anonymous": false,
      "inputs": [],
      "name": "Paused",
      "type": "event"
    },
    {
      "anonymous": false,
      "inputs": [
        {
          "indexed": false,
          "internalType": "bool",
          "name": "_pullFundsFromVault",
          "type": "bool"
        }
      ],
      "name": "PullFundsFromVaultUpdated",
      "type": "event"
    },
    {
      "anonymous": false,
      "inputs": [
        {
          "indexed": true,
          "internalType": "address",
          "name": "asset",
          "type": "address"
        },
        {
          "indexed": false,
          "internalType": "uint64",
          "name": "withdrawDelay",
          "type": "uint64"
        },
        {
          "indexed": false,
          "internalType": "uint16",
          "name": "withdrawFee",
          "type": "uint16"
        }
      ],
      "name": "SetupWithdrawalsInAsset",
      "type": "event"
    },
    {
      "anonymous": false,
      "inputs": [
        {
          "indexed": true,
          "internalType": "address",
          "name": "account",
          "type": "address"
        },
        {
          "indexed": true,
          "internalType": "contract ERC20",
          "name": "asset",
          "type": "address"
        },
        {
          "indexed": false,
          "internalType": "bool",
          "name": "allowed",
          "type": "bool"
        }
      ],
      "name": "ThirdPartyCompletionChanged",
      "type": "event"
    },
    {
      "anonymous": false,
      "inputs": [],
      "name": "Unpaused",
      "type": "event"
    },
    {
      "anonymous": false,
      "inputs": [
        {
          "indexed": true,
          "internalType": "address",
          "name": "account",
          "type": "address"
        },
        {
          "indexed": true,
          "internalType": "contract ERC20",
          "name": "asset",
          "type": "address"
        },
        {
          "indexed": false,
          "internalType": "uint40",
          "name": "newMaturity",
          "type": "uint40"
        },
        {
          "indexed": false,
          "internalType": "uint96",
          "name": "accelerationFee",
          "type": "uint96"
        }
      ],
      "name": "WithdrawAccelerated",
      "type": "event"
    },
    {
      "anonymous": false,
      "inputs": [
        {
          "indexed": true,
          "internalType": "address",
          "name": "account",
          "type": "address"
        },
        {
          "indexed": true,
          "internalType": "contract ERC20",
          "name": "asset",
          "type": "address"
        },
        {
          "indexed": false,
          "internalType": "uint96",
          "name": "shares",
          "type": "uint96"
        }
      ],
      "name": "WithdrawCancelled",
      "type": "event"
    },
    {
      "anonymous": false,
      "inputs": [
        {
          "indexed": true,
          "internalType": "address",
          "name": "account",
          "type": "address"
        },
        {
          "indexed": true,
          "internalType": "contract ERC20",
          "name": "asset",
          "type": "address"
        },
        {
          "indexed": false,
          "internalType": "uint256",
          "name": "shares",
          "type": "uint256"
        },
        {
          "indexed": false,
          "internalType": "uint256",
          "name": "assets",
          "type": "uint256"
        }
      ],
      "name": "WithdrawCompleted",
      "type": "event"
    },
    {
      "anonymous": false,
      "inputs": [
        {
          "indexed": true,
          "internalType": "address",
          "name": "asset",
          "type": "address"
        },
        {
          "indexed": false,
          "internalType": "uint32",
          "name": "newWithdrawDelay",
          "type": "uint32"
        }
      ],
      "name": "WithdrawDelayUpdated",
      "type": "event"
    },
    {
      "anonymous": false,
      "inputs": [
        {
          "indexed": true,
          "internalType": "address",
          "name": "asset",
          "type": "address"
        },
        {
          "indexed": false,
          "internalType": "uint16",
          "name": "newWithdrawFee",
          "type": "uint16"
        }
      ],
      "name": "WithdrawFeeUpdated",
      "type": "event"
    },
    {
      "anonymous": false,
      "inputs": [
        {
          "indexed": true,
          "internalType": "address",
          "name": "account",
          "type": "address"
        },
        {
          "indexed": true,
          "internalType": "contract ERC20",
          "name": "asset",
          "type": "address"
        },
        {
          "indexed": false,
          "internalType": "uint96",
          "name": "shares",
          "type": "uint96"
        },
        {
          "indexed": false,
          "internalType": "uint40",
          "name": "maturity",
          "type": "uint40"
        }
      ],
      "name": "WithdrawRequested",
      "type": "event"
    },
    {
      "anonymous": false,
      "inputs": [
        {
          "indexed": true,
          "internalType": "address",
          "name": "asset",
          "type": "address"
        }
      ],
      "name": "WithdrawalsStopped",
      "type": "event"
    },
    {
      "inputs": [],
      "name": "accelerateWithdraw",
      "outputs": [],
      "stateMutability": "nonpayable",
      "type": "function"
    },
    {
      "inputs": [],
      "name": "asset",
      "outputs": [
        {
          "internalType": "contract ERC20",
          "name": "",
          "type": "address"
        }
      ],
      "stateMutability": "view",
      "type": "function"
    },
    {
      "inputs": [],
      "name": "authority",
      "outputs": [
        {
          "internalType": "contract Authority",
          "name": "",
          "type": "address"
        }
      ],
      "stateMutability": "view",
      "type": "function"
    },
    {
      "inputs": [],
      "name": "boringVault",
      "outputs": [
        {
          "internalType": "contract BoringVault",
          "name": "",
          "type": "address"
        }
      ],
      "stateMutability": "view",
      "type": "function"
    },
    {
      "inputs": [
        {
          "internalType": "address",
          "name": "user",
          "type": "address"
        }
      ],
      "name": "cancelUserWithdraw",
      "outputs": [],
      "stateMutability": "nonpayable",
      "type": "function"
    },
    {
      "inputs": [],
      "name": "cancelWithdraw",
      "outputs": [],
      "stateMutability": "nonpayable",
      "type": "function"
    },
    {
      "inputs": [
        {
          "internalType": "uint16",
          "name": "_expeditedWithdrawFee",
          "type": "uint16"
        }
      ],
      "name": "changeExpeditedWithdrawFee",
      "outputs": [],
      "stateMutability": "nonpayable",
      "type": "function"
    },
    {
      "inputs": [
        {
          "internalType": "uint32",
          "name": "withdrawDelay",
          "type": "uint32"
        }
      ],
      "name": "changeWithdrawDelay",
      "outputs": [],
      "stateMutability": "nonpayable",
      "type": "function"
    },
    {
      "inputs": [
        {
          "internalType": "uint16",
          "name": "withdrawFee",
          "type": "uint16"
        }
      ],
      "name": "changeWithdrawFee",
      "outputs": [],
      "stateMutability": "nonpayable",
      "type": "function"
    },
    {
      "inputs": [
        {
          "internalType": "address",
          "name": "user",
          "type": "address"
        }
      ],
      "name": "completeUserWithdraw",
      "outputs": [
        {
          "internalType": "uint256",
          "name": "assetsOut",
          "type": "uint256"
        }
      ],
      "stateMutability": "nonpayable",
      "type": "function"
    },
    {
      "inputs": [
        {
          "internalType": "address",
          "name": "account",
          "type": "address"
        }
      ],
      "name": "completeWithdraw",
      "outputs": [
        {
          "internalType": "uint256",
          "name": "assetsOut",
          "type": "uint256"
        }
      ],
      "stateMutability": "nonpayable",
      "type": "function"
    },
    {
      "inputs": [],
      "name": "feeAddress",
      "outputs": [
        {
          "internalType": "address",
          "name": "",
          "type": "address"
        }
      ],
      "stateMutability": "view",
      "type": "function"
    },
    {
      "inputs": [
        {
          "internalType": "address",
          "name": "account",
          "type": "address"
        }
      ],
      "name": "getWithdrawRequest",
      "outputs": [
        {
          "components": [
            {
              "internalType": "bool",
              "name": "allowThirdPartyToComplete",
              "type": "bool"
            },
            {
              "internalType": "uint40",
              "name": "maturity",
              "type": "uint40"
            },
            {
              "internalType": "uint96",
              "name": "shares",
              "type": "uint96"
            },
            {
              "internalType": "uint96",
              "name": "exchangeRateAtTimeOfRequest",
              "type": "uint96"
            },
            {
              "internalType": "uint96",
              "name": "sharesFee",
              "type": "uint96"
            }
          ],
          "internalType": "struct DelayedWithdraw.WithdrawRequest",
          "name": "",
          "type": "tuple"
        }
      ],
      "stateMutability": "view",
      "type": "function"
    },
    {
      "inputs": [],
      "name": "getWithdrawState",
      "outputs": [
        {
          "components": [
            {
              "internalType": "uint32",
              "name": "withdrawDelay",
              "type": "uint32"
            },
            {
              "internalType": "uint128",
              "name": "outstandingShares",
              "type": "uint128"
            },
            {
              "internalType": "uint16",
              "name": "withdrawFee",
              "type": "uint16"
            },
            {
              "internalType": "uint16",
              "name": "expeditedWithdrawFee",
              "type": "uint16"
            }
          ],
          "internalType": "struct DelayedWithdraw.WithdrawState",
          "name": "",
          "type": "tuple"
        }
      ],
      "stateMutability": "view",
      "type": "function"
    },
    {
      "inputs": [],
      "name": "isPaused",
      "outputs": [
        {
          "internalType": "bool",
          "name": "",
          "type": "bool"
        }
      ],
      "stateMutability": "view",
      "type": "function"
    },
    {
      "inputs": [],
      "name": "owner",
      "outputs": [
        {
          "internalType": "address",
          "name": "",
          "type": "address"
        }
      ],
      "stateMutability": "view",
      "type": "function"
    },
    {
      "inputs": [],
      "name": "pause",
      "outputs": [],
      "stateMutability": "nonpayable",
      "type": "function"
    },
    {
      "inputs": [],
      "name": "primeRBAC",
      "outputs": [
        {
          "internalType": "contract IPrimeRBAC",
          "name": "",
          "type": "address"
        }
      ],
      "stateMutability": "view",
      "type": "function"
    },
    {
      "inputs": [
        {
          "internalType": "uint96",
          "name": "shares",
          "type": "uint96"
        },
        {
          "internalType": "bool",
          "name": "allowThirdPartyToComplete",
          "type": "bool"
        }
      ],
      "name": "requestWithdraw",
      "outputs": [],
      "stateMutability": "nonpayable",
      "type": "function"
    },
    {
      "inputs": [
        {
          "internalType": "bool",
          "name": "allow",
          "type": "bool"
        }
      ],
      "name": "setAllowThirdPartyToComplete",
      "outputs": [],
      "stateMutability": "nonpayable",
      "type": "function"
    },
    {
      "inputs": [
        {
          "internalType": "contract Authority",
          "name": "newAuthority",
          "type": "address"
        }
      ],
      "name": "setAuthority",
      "outputs": [],
      "stateMutability": "nonpayable",
      "type": "function"
    },
    {
      "inputs": [
        {
          "internalType": "address",
          "name": "_feeAddress",
          "type": "address"
        }
      ],
      "name": "setFeeAddress",
      "outputs": [],
      "stateMutability": "nonpayable",
      "type": "function"
    },
    {
      "inputs": [
        {
          "internalType": "uint32",
          "name": "withdrawDelay",
          "type": "uint32"
        },
        {
          "internalType": "uint16",
          "name": "withdrawFee",
          "type": "uint16"
        },
        {
          "internalType": "uint16",
          "name": "expeditedWithdrawFee",
          "type": "uint16"
        }
      ],
      "name": "setupWithdraw",
      "outputs": [],
      "stateMutability": "nonpayable",
      "type": "function"
    },
    {
      "inputs": [
        {
          "internalType": "address",
          "name": "newOwner",
          "type": "address"
        }
      ],
      "name": "transferOwnership",
      "outputs": [],
      "stateMutability": "nonpayable",
      "type": "function"
    },
    {
      "inputs": [],
      "name": "unpause",
      "outputs": [],
      "stateMutability": "nonpayable",
      "type": "function"
    },
    {
      "inputs": [],
      "name": "viewOutstandingDebt",
      "outputs": [
        {
          "internalType": "uint256",
          "name": "debt",
          "type": "uint256"
        }
      ],
      "stateMutability": "view",
      "type": "function"
    },
    {
      "inputs": [
        {
          "internalType": "contract ERC20",
          "name": "token",
          "type": "address"
        },
        {
          "internalType": "uint256",
          "name": "amount",
          "type": "uint256"
        }
      ],
      "name": "withdrawNonBoringToken",
      "outputs": [],
      "stateMutability": "nonpayable",
      "type": "function"
    },
    {
      "inputs": [
        {
          "internalType": "address",
          "name": "",
          "type": "address"
        }
      ],
      "name": "withdrawRequests",
      "outputs": [
        {
          "internalType": "bool",
          "name": "allowThirdPartyToComplete",
          "type": "bool"
        },
        {
          "internalType": "uint40",
          "name": "maturity",
          "type": "uint40"
        },
        {
          "internalType": "uint96",
          "name": "shares",
          "type": "uint96"
        },
        {
          "internalType": "uint96",
          "name": "exchangeRateAtTimeOfRequest",
          "type": "uint96"
        },
        {
          "internalType": "uint96",
          "name": "sharesFee",
          "type": "uint96"
        }
      ],
      "stateMutability": "view",
      "type": "function"
    },
    {
      "inputs": [],
      "name": "withdrawState",
      "outputs": [
        {
          "internalType": "uint32",
          "name": "withdrawDelay",
          "type": "uint32"
        },
        {
          "internalType": "uint128",
          "name": "outstandingShares",
          "type": "uint128"
        },
        {
          "internalType": "uint16",
          "name": "withdrawFee",
          "type": "uint16"
        },
        {
          "internalType": "uint16",
          "name": "expeditedWithdrawFee",
          "type": "uint16"
        }
      ],
      "stateMutability": "view",
      "type": "function"
    }
  ],
  "bytecode": "0x6101206040526001600355348015610015575f5ffd5b5060405161495338038061495383398181016040528101906100379190610588565b848473ffffffffffffffffffffffffffffffffffffffff1663bf7e214f6040518163ffffffff1660e01b8152600401602060405180830381865afa158015610081573d5f5f3e3d5ffd5b505050506040513d601f19601f820116820180604052508101906100a5919061063a565b3381815f5f6101000a81548173ffffffffffffffffffffffffffffffffffffffff021916908373ffffffffffffffffffffffffffffffffffffffff1602179055508060015f6101000a81548173ffffffffffffffffffffffffffffffffffffffff021916908373ffffffffffffffffffffffffffffffffffffffff1602179055508173ffffffffffffffffffffffffffffffffffffffff163373ffffffffffffffffffffffffffffffffffffffff167f8be0079c531659141344cd1fd0a4f28419497f9722a3daafe3b4186f6b6457e060405160405180910390a38073ffffffffffffffffffffffffffffffffffffffff163373ffffffffffffffffffffffffffffffffffffffff167fa3396fd7f6e0a21b50e5089d2da70d5ac0a3bbbd1f617a93f134b7638998019860405160405180910390a350505f73ffffffffffffffffffffffffffffffffffffffff168273ffffffffffffffffffffffffffffffffffffffff16148061024157505f73ffffffffffffffffffffffffffffffffffffffff168173ffffffffffffffffffffffffffffffffffffffff16145b15610278576040517f538ba4f900000000000000000000000000000000000000000000000000000000815260040160405180910390fd5b8160025f6101000a81548173ffffffffffffffffffffffffffffffffffffffff021916908373ffffffffffffffffffffffffffffffffffffffff16021790555050508273ffffffffffffffffffffffffffffffffffffffff1660808173ffffffffffffffffffffffffffffffffffffffff16815250508173ffffffffffffffffffffffffffffffffffffffff1660a08173ffffffffffffffffffffffffffffffffffffffff16815250508373ffffffffffffffffffffffffffffffffffffffff1660c08173ffffffffffffffffffffffffffffffffffffffff168152505060c05173ffffffffffffffffffffffffffffffffffffffff166338d52e0f6040518163ffffffff1660e01b8152600401602060405180830381865afa1580156103a1573d5f5f3e3d5ffd5b505050506040513d601f19601f820116820180604052508101906103c591906106a0565b73ffffffffffffffffffffffffffffffffffffffff1660e08173ffffffffffffffffffffffffffffffffffffffff168152505060c05173ffffffffffffffffffffffffffffffffffffffff1663313ce5676040518163ffffffff1660e01b8152600401602060405180830381865afa158015610443573d5f5f3e3d5ffd5b505050506040513d601f19601f820116820180604052508101906104679190610701565b600a6104739190610891565b61010081815250505f73ffffffffffffffffffffffffffffffffffffffff168173ffffffffffffffffffffffffffffffffffffffff16036104e0576040517ff3a6738800000000000000000000000000000000000000000000000000000000815260040160405180910390fd5b8060045f6101000a81548173ffffffffffffffffffffffffffffffffffffffff021916908373ffffffffffffffffffffffffffffffffffffffff16021790555050505050506108db565b5f5ffd5b5f73ffffffffffffffffffffffffffffffffffffffff82169050919050565b5f6105578261052e565b9050919050565b6105678161054d565b8114610571575f5ffd5b50565b5f815190506105828161055e565b92915050565b5f5f5f5f5f60a086880312156105a1576105a061052a565b5b5f6105ae88828901610574565b95505060206105bf88828901610574565b94505060406105d088828901610574565b93505060606105e188828901610574565b92505060806105f288828901610574565b9150509295509295909350565b5f6106098261054d565b9050919050565b610619816105ff565b8114610623575f5ffd5b50565b5f8151905061063481610610565b92915050565b5f6020828403121561064f5761064e61052a565b5b5f61065c84828501610626565b91505092915050565b5f61066f8261054d565b9050919050565b61067f81610665565b8114610689575f5ffd5b50565b5f8151905061069a81610676565b92915050565b5f602082840312156106b5576106b461052a565b5b5f6106c28482850161068c565b91505092915050565b5f60ff82169050919050565b6106e0816106cb565b81146106ea575f5ffd5b50565b5f815190506106fb816106d7565b92915050565b5f602082840312156107165761071561052a565b5b5f610723848285016106ed565b91505092915050565b7f4e487b71000000000000000000000000000000000000000000000000000000005f52601160045260245ffd5b5f8160011c9050919050565b5f5f8291508390505b60018511156107ae5780860481111561078a5761078961072c565b5b60018516156107995780820291505b80810290506107a785610759565b945061076e565b94509492505050565b5f826107c65760019050610881565b816107d3575f9050610881565b81600181146107e957600281146107f357610822565b6001915050610881565b60ff8411156108055761080461072c565b5b8360020a91508482111561081c5761081b61072c565b5b50610881565b5060208310610133831016604e8410600b84101617156108575782820a9050838111156108525761085161072c565b5b610881565b6108648484846001610765565b9250905081840481111561087b5761087a61072c565b5b81810290505b9392505050565b5f819050919050565b5f61089b82610888565b91506108a6836106cb565b92506108d37fffffffffffffffffffffffffffffffffffffffffffffffffffffffffffffffff84846107b7565b905092915050565b60805160a05160c05160e05161010051613fcb6109885f395f81816121ea015261305701525f8181610a5601528181610d1401528181610eb1015281816116f5015281816118c30152818161208a015281816122e301528181612c8b015261318c01525f8181610522015281816105a7015281816106d1015281816114750152818161289201528181612c450152612fe301525f6130ee01525f81816115ad01526121250152613fcb5ff3fe608060405234801561000f575f5ffd5b50600436106101cd575f3560e01c80638456cb5911610102578063b187bd26116100a0578063e37d7e681161006f578063e37d7e68146104aa578063e4ff4274146104c8578063f2fde38b146104e6578063f3b9778414610502576101cd565b8063b187bd261461040e578063bde18d511461042c578063bf3b826b1461045c578063bf7e214f1461048c576101cd565b80638bb8aca1116100dc5780638bb8aca11461039a5780638da5cb5b146103b6578063adbc46fc146103d4578063ae172f08146103f2576101cd565b80638456cb591461036a57806384b76824146103745780638705fcd41461037e576101cd565b8063412753581161016f57806352df49ec1161014957806352df49ec146102e2578063545312c014610316578063627ab8d4146103325780637a9e5e4b1461034e576101cd565b80634127535814610287578063468301dd146102a5578063475cb325146102c1576101cd565b80632ccae896116101ab5780632ccae8961461021357806338d52e0f146102435780633928bebd146102615780633f4ba83a1461027d576101cd565b806309f0e0c2146101d15780631a289278146101ed578063251a24ed146101f7575b5f5ffd5b6101eb60048036038101906101e6919061335c565b610520565b005b6101f561071b565b005b610211600480360381019061020c91906133c4565b610ae8565b005b61022d600480360381019061022891906133c4565b610bc3565b60405161023a91906134b4565b60405180910390f35b61024b610d12565b6040516102589190613528565b60405180910390f35b61027b60048036038101906102769190613578565b610d36565b005b610285610f20565b005b61028f611037565b60405161029c91906135b2565b60405180910390f35b6102bf60048036038101906102ba9190613578565b61105c565b005b6102c96111c8565b6040516102d99493929190613622565b60405180910390f35b6102fc60048036038101906102f791906133c4565b611229565b60405161030d959493929190613692565b60405180910390f35b610330600480360381019061032b9190613737565b6112bc565b005b61034c6004803603810190610347919061379f565b611789565b005b61036860048036038101906103639190613805565b611932565b005b610372611aed565b005b61037c611c05565b005b610398600480360381019061039391906133c4565b611cd1565b005b6103b460048036038101906103af9190613830565b611e7f565b005b6103be6120fd565b6040516103cb91906135b2565b60405180910390f35b6103dc612121565b6040516103e9919061388f565b60405180910390f35b61040c600480360381019061040791906138a8565b61221f565b005b610416612369565b60405161042391906138d3565b60405180910390f35b610446600480360381019061044191906133c4565b61237c565b604051610453919061388f565b60405180910390f35b610476600480360381019061047191906133c4565b61249e565b604051610483919061388f565b60405180910390f35b610494612679565b6040516104a1919061390c565b60405180910390f35b6104b261269e565b6040516104bf9190613945565b60405180910390f35b6104d06126c3565b6040516104dd91906139de565b60405180910390f35b61050060048036038101906104fb91906133c4565b612788565b005b61050a612890565b6040516105179190613a28565b60405180910390f35b7f000000000000000000000000000000000000000000000000000000000000000073ffffffffffffffffffffffffffffffffffffffff163373ffffffffffffffffffffffffffffffffffffffff16146105a5576040517f0a9803f000000000000000000000000000000000000000000000000000000000815260040160405180910390fd5b7f000000000000000000000000000000000000000000000000000000000000000073ffffffffffffffffffffffffffffffffffffffff168273ffffffffffffffffffffffffffffffffffffffff160361062a576040517fa6781bfd00000000000000000000000000000000000000000000000000000000815260040160405180910390fd5b7fffffffffffffffffffffffffffffffffffffffffffffffffffffffffffffffff81036106cc578173ffffffffffffffffffffffffffffffffffffffff166370a08231306040518263ffffffff1660e01b815260040161068a91906135b2565b602060405180830381865afa1580156106a5573d5f5f3e3d5ffd5b505050506040513d601f19601f820116820180604052508101906106c99190613a55565b90505b6107177f0000000000000000000000000000000000000000000000000000000000000000828473ffffffffffffffffffffffffffffffffffffffff166128b49092919063ffffffff16565b5050565b610748335f357fffffffff000000000000000000000000000000000000000000000000000000001661296b565b610787576040517f08c379a000000000000000000000000000000000000000000000000000000000815260040161077e90613ada565b60405180910390fd5b6001600354146107cc576040517f08c379a00000000000000000000000000000000000000000000000000000000081526004016107c390613b42565b60405180910390fd5b6002600381905550600260149054906101000a900460ff161561081b576040517fbaf7375c00000000000000000000000000000000000000000000000000000000815260040160405180910390fd5b5f60055f0160169054906101000a900461ffff1661ffff160361086a576040517fe1844a8600000000000000000000000000000000000000000000000000000000815260040160405180910390fd5b6201518063ffffffff1660055f015f9054906101000a900463ffffffff1663ffffffff16116108c5576040517fe1844a8600000000000000000000000000000000000000000000000000000000815260040160405180910390fd5b5f60065f3373ffffffffffffffffffffffffffffffffffffffff1673ffffffffffffffffffffffffffffffffffffffff1681526020019081526020015f2090505f815f0160069054906101000a90046bffffffffffffffffffffffff166bffffffffffffffffffffffff1603610967576040517f02ebfd8700000000000000000000000000000000000000000000000000000000815260040160405180910390fd5b5f6109be60055f0160169054906101000a900461ffff1661ffff16612710845f0160069054906101000a90046bffffffffffffffffffffffff166bffffffffffffffffffffffff16612aa49092919063ffffffff16565b905080826001015f8282829054906101000a90046bffffffffffffffffffffffff166109ea9190613b8d565b92506101000a8154816bffffffffffffffffffffffff02191690836bffffffffffffffffffffffff1602179055505f6201518063ffffffff1642610a2e9190613bcc565b905080835f0160016101000a81548164ffffffffff021916908364ffffffffff1602179055507f000000000000000000000000000000000000000000000000000000000000000073ffffffffffffffffffffffffffffffffffffffff163373ffffffffffffffffffffffffffffffffffffffff167ff057ce7eb44a7e052ea9b75a7fd43a05fff39ca69c7700a2d277e867391bf8888385604051610ad3929190613bff565b60405180910390a35050506001600381905550565b60025f9054906101000a900473ffffffffffffffffffffffffffffffffffffffff1673ffffffffffffffffffffffffffffffffffffffff1663fc4e3e0a336040518263ffffffff1660e01b8152600401610b4291906135b2565b602060405180830381865afa158015610b5d573d5f5f3e3d5ffd5b505050506040513d601f19601f82011682018060405250810190610b819190613c3a565b610bb7576040517f19ca4b5e00000000000000000000000000000000000000000000000000000000815260040160405180910390fd5b610bc081612ae5565b50565b610bcb613219565b60065f8373ffffffffffffffffffffffffffffffffffffffff1673ffffffffffffffffffffffffffffffffffffffff1681526020019081526020015f206040518060a00160405290815f82015f9054906101000a900460ff161515151581526020015f820160019054906101000a900464ffffffffff1664ffffffffff1664ffffffffff1681526020015f820160069054906101000a90046bffffffffffffffffffffffff166bffffffffffffffffffffffff166bffffffffffffffffffffffff1681526020015f820160129054906101000a90046bffffffffffffffffffffffff166bffffffffffffffffffffffff166bffffffffffffffffffffffff168152602001600182015f9054906101000a90046bffffffffffffffffffffffff166bffffffffffffffffffffffff166bffffffffffffffffffffffff16815250509050919050565b7f000000000000000000000000000000000000000000000000000000000000000081565b60025f9054906101000a900473ffffffffffffffffffffffffffffffffffffffff1673ffffffffffffffffffffffffffffffffffffffff1663d35911f2336040518263ffffffff1660e01b8152600401610d9091906135b2565b602060405180830381865afa158015610dab573d5f5f3e3d5ffd5b505050506040513d601f19601f82011682018060405250810190610dcf9190613c3a565b610e05576040517fdc85555400000000000000000000000000000000000000000000000000000000815260040160405180910390fd5b600260149054906101000a900460ff1615610e4c576040517fbaf7375c00000000000000000000000000000000000000000000000000000000815260040160405180910390fd5b6107d061ffff168161ffff161115610e90576040517f65c9772600000000000000000000000000000000000000000000000000000000815260040160405180910390fd5b8060055f0160146101000a81548161ffff021916908361ffff1602179055507f000000000000000000000000000000000000000000000000000000000000000073ffffffffffffffffffffffffffffffffffffffff167f8ccb18452db698466024883cfd6df6fee864c24ed64251ecf8ec814f372a2f2f82604051610f159190613c65565b60405180910390a250565b60025f9054906101000a900473ffffffffffffffffffffffffffffffffffffffff1673ffffffffffffffffffffffffffffffffffffffff1663d35911f2336040518263ffffffff1660e01b8152600401610f7a91906135b2565b602060405180830381865afa158015610f95573d5f5f3e3d5ffd5b505050506040513d601f19601f82011682018060405250810190610fb99190613c3a565b610fef576040517fdc85555400000000000000000000000000000000000000000000000000000000815260040160405180910390fd5b5f600260146101000a81548160ff0219169083151502179055507fa45f47fdea8a1efdd9029a5691c7f759c32b7c698632b563573e155625d1693360405160405180910390a1565b60045f9054906101000a900473ffffffffffffffffffffffffffffffffffffffff1681565b60025f9054906101000a900473ffffffffffffffffffffffffffffffffffffffff1673ffffffffffffffffffffffffffffffffffffffff1663d35911f2336040518263ffffffff1660e01b81526004016110b691906135b2565b602060405180830381865afa1580156110d1573d5f5f3e3d5ffd5b505050506040513d601f19601f820116820180604052508101906110f59190613c3a565b61112b576040517fdc85555400000000000000000000000000000000000000000000000000000000815260040160405180910390fd5b6107d061ffff168161ffff16111561116f576040517f858a3a1e00000000000000000000000000000000000000000000000000000000815260040160405180910390fd5b8060055f0160166101000a81548161ffff021916908361ffff1602179055507f16ed1e6a61c10c9a5ce9596688e710a47fd7170fb21ac5586bb2493bfff4795e816040516111bd9190613c65565b60405180910390a150565b6005805f015f9054906101000a900463ffffffff1690805f0160049054906101000a90046fffffffffffffffffffffffffffffffff1690805f0160149054906101000a900461ffff1690805f0160169054906101000a900461ffff16905084565b6006602052805f5260405f205f91509050805f015f9054906101000a900460ff1690805f0160019054906101000a900464ffffffffff1690805f0160069054906101000a90046bffffffffffffffffffffffff1690805f0160129054906101000a90046bffffffffffffffffffffffff1690806001015f9054906101000a90046bffffffffffffffffffffffff16905085565b6112e9335f357fffffffff000000000000000000000000000000000000000000000000000000001661296b565b611328576040517f08c379a000000000000000000000000000000000000000000000000000000000815260040161131f90613ada565b60405180910390fd5b60016003541461136d576040517f08c379a000000000000000000000000000000000000000000000000000000000815260040161136490613b42565b60405180910390fd5b6002600381905550600260149054906101000a900460ff16156113bc576040517fbaf7375c00000000000000000000000000000000000000000000000000000000815260040160405180910390fd5b5f60065f3373ffffffffffffffffffffffffffffffffffffffff1673ffffffffffffffffffffffffffffffffffffffff1681526020019081526020015f2090505f815f0160069054906101000a90046bffffffffffffffffffffffff166bffffffffffffffffffffffff16111561145f576040517f4f20c80100000000000000000000000000000000000000000000000000000000815260040160405180910390fd5b6114ba3330856bffffffffffffffffffffffff167f000000000000000000000000000000000000000000000000000000000000000073ffffffffffffffffffffffffffffffffffffffff16612d13909392919063ffffffff16565b826bffffffffffffffffffffffff1660055f0160048282829054906101000a90046fffffffffffffffffffffffffffffffff166114f79190613c7e565b92506101000a8154816fffffffffffffffffffffffffffffffff02191690836fffffffffffffffffffffffffffffffff16021790555082815f0160066101000a8154816bffffffffffffffffffffffff02191690836bffffffffffffffffffffffff1602179055505f60055f015f9054906101000a900463ffffffff1663ffffffff16426115859190613bcc565b905080825f0160016101000a81548164ffffffffff021916908364ffffffffff1602179055507f000000000000000000000000000000000000000000000000000000000000000073ffffffffffffffffffffffffffffffffffffffff1663282a87006040518163ffffffff1660e01b8152600401602060405180830381865afa158015611614573d5f5f3e3d5ffd5b505050506040513d601f19601f820116820180604052508101906116389190613a55565b825f0160126101000a8154816bffffffffffffffffffffffff02191690836bffffffffffffffffffffffff16021790555082825f015f6101000a81548160ff0219169083151502179055505f6116bf60055f0160149054906101000a900461ffff1661ffff16612710876bffffffffffffffffffffffff16612aa49092919063ffffffff16565b905080836001015f6101000a8154816bffffffffffffffffffffffff02191690836bffffffffffffffffffffffff1602179055507f000000000000000000000000000000000000000000000000000000000000000073ffffffffffffffffffffffffffffffffffffffff163373ffffffffffffffffffffffffffffffffffffffff167f7c7bb9f0b469c21da4666496577565b8e0f6a5da9834e8d15b12603b260ca6c68785604051611772929190613cc1565b60405180910390a350505060016003819055505050565b60025f9054906101000a900473ffffffffffffffffffffffffffffffffffffffff1673ffffffffffffffffffffffffffffffffffffffff1663d35911f2336040518263ffffffff1660e01b81526004016117e391906135b2565b602060405180830381865afa1580156117fe573d5f5f3e3d5ffd5b505050506040513d601f19601f820116820180604052508101906118229190613c3a565b611858576040517fdc85555400000000000000000000000000000000000000000000000000000000815260040160405180910390fd5b600260149054906101000a900460ff161561189f576040517fbaf7375c00000000000000000000000000000000000000000000000000000000815260040160405180910390fd5b8060055f015f6101000a81548163ffffffff021916908363ffffffff1602179055507f000000000000000000000000000000000000000000000000000000000000000073ffffffffffffffffffffffffffffffffffffffff167ff460eccc96794cc59e91dc95757a6579291d9b251377740e28b39b482290052a826040516119279190613ce8565b60405180910390a250565b5f5f9054906101000a900473ffffffffffffffffffffffffffffffffffffffff1673ffffffffffffffffffffffffffffffffffffffff163373ffffffffffffffffffffffffffffffffffffffff161480611a48575060015f9054906101000a900473ffffffffffffffffffffffffffffffffffffffff1673ffffffffffffffffffffffffffffffffffffffff1663b700961333305f357fffffffff00000000000000000000000000000000000000000000000000000000166040518463ffffffff1660e01b8152600401611a0893929190613d3b565b602060405180830381865afa158015611a23573d5f5f3e3d5ffd5b505050506040513d601f19601f82011682018060405250810190611a479190613c3a565b5b611a50575f5ffd5b8060015f6101000a81548173ffffffffffffffffffffffffffffffffffffffff021916908373ffffffffffffffffffffffffffffffffffffffff1602179055508073ffffffffffffffffffffffffffffffffffffffff163373ffffffffffffffffffffffffffffffffffffffff167fa3396fd7f6e0a21b50e5089d2da70d5ac0a3bbbd1f617a93f134b7638998019860405160405180910390a350565b60025f9054906101000a900473ffffffffffffffffffffffffffffffffffffffff1673ffffffffffffffffffffffffffffffffffffffff1663d35911f2336040518263ffffffff1660e01b8152600401611b4791906135b2565b602060405180830381865afa158015611b62573d5f5f3e3d5ffd5b505050506040513d601f19601f82011682018060405250810190611b869190613c3a565b611bbc576040517fdc85555400000000000000000000000000000000000000000000000000000000815260040160405180910390fd5b6001600260146101000a81548160ff0219169083151502179055507f9e87fac88ff661f02d44f95383c817fece4bce600a3dab7a54406878b965e75260405160405180910390a1565b611c32335f357fffffffff000000000000000000000000000000000000000000000000000000001661296b565b611c71576040517f08c379a0000000000000000000000000000000000000000000000000000000008152600401611c6890613ada565b60405180910390fd5b600160035414611cb6576040517f08c379a0000000000000000000000000000000000000000000000000000000008152600401611cad90613b42565b60405180910390fd5b6002600381905550611cc733612ae5565b6001600381905550565b60025f9054906101000a900473ffffffffffffffffffffffffffffffffffffffff1673ffffffffffffffffffffffffffffffffffffffff1663d35911f2336040518263ffffffff1660e01b8152600401611d2b91906135b2565b602060405180830381865afa158015611d46573d5f5f3e3d5ffd5b505050506040513d601f19601f82011682018060405250810190611d6a9190613c3a565b611da0576040517fdc85555400000000000000000000000000000000000000000000000000000000815260040160405180910390fd5b5f73ffffffffffffffffffffffffffffffffffffffff168173ffffffffffffffffffffffffffffffffffffffff1603611e05576040517ff3a6738800000000000000000000000000000000000000000000000000000000815260040160405180910390fd5b8060045f6101000a81548173ffffffffffffffffffffffffffffffffffffffff021916908373ffffffffffffffffffffffffffffffffffffffff1602179055507f679f4cc040076580bf118e3f2307b72842331922e8054b8cc292bb37f05e5b0381604051611e7491906135b2565b60405180910390a150565b60025f9054906101000a900473ffffffffffffffffffffffffffffffffffffffff1673ffffffffffffffffffffffffffffffffffffffff1663d35911f2336040518263ffffffff1660e01b8152600401611ed991906135b2565b602060405180830381865afa158015611ef4573d5f5f3e3d5ffd5b505050506040513d601f19601f82011682018060405250810190611f189190613c3a565b611f4e576040517fdc85555400000000000000000000000000000000000000000000000000000000815260040160405180910390fd5b6107d061ffff168261ffff161115611f92576040517f65c9772600000000000000000000000000000000000000000000000000000000815260040160405180910390fd5b6107d061ffff168161ffff161115611fd6576040517f858a3a1e00000000000000000000000000000000000000000000000000000000815260040160405180910390fd5b5f60055f015f9054906101000a900463ffffffff1663ffffffff1614612028576040517f5c5ea4ba00000000000000000000000000000000000000000000000000000000815260040160405180910390fd5b8260055f015f6101000a81548163ffffffff021916908363ffffffff1602179055508160055f0160146101000a81548161ffff021916908361ffff1602179055508060055f0160166101000a81548161ffff021916908361ffff1602179055507f000000000000000000000000000000000000000000000000000000000000000073ffffffffffffffffffffffffffffffffffffffff167f0cea879951527447b42baf1288a10716427f4b9754822556bffd7279cd02409c84846040516120f0929190613db3565b60405180910390a2505050565b5f5f9054906101000a900473ffffffffffffffffffffffffffffffffffffffff1681565b5f5f7f000000000000000000000000000000000000000000000000000000000000000073ffffffffffffffffffffffffffffffffffffffff1663282a87006040518163ffffffff1660e01b8152600401602060405180830381865afa15801561218c573d5f5f3e3d5ffd5b505050506040513d601f19601f820116820180604052508101906121b09190613a55565b905061221960055f0160049054906101000a90046fffffffffffffffffffffffffffffffff166fffffffffffffffffffffffffffffffff167f000000000000000000000000000000000000000000000000000000000000000083612aa49092919063ffffffff16565b91505090565b61224c335f357fffffffff000000000000000000000000000000000000000000000000000000001661296b565b61228b576040517f08c379a000000000000000000000000000000000000000000000000000000000815260040161228290613ada565b60405180910390fd5b8060065f3373ffffffffffffffffffffffffffffffffffffffff1673ffffffffffffffffffffffffffffffffffffffff1681526020019081526020015f205f015f6101000a81548160ff0219169083151502179055507f000000000000000000000000000000000000000000000000000000000000000073ffffffffffffffffffffffffffffffffffffffff163373ffffffffffffffffffffffffffffffffffffffff167f21620b27ba9eeb9c0fe4b328d9038784b90664af3e7f54617d2d3b14cd97c34e8360405161235e91906138d3565b60405180910390a350565b600260149054906101000a900460ff1681565b5f60025f9054906101000a900473ffffffffffffffffffffffffffffffffffffffff1673ffffffffffffffffffffffffffffffffffffffff1663fc4e3e0a336040518263ffffffff1660e01b81526004016123d791906135b2565b602060405180830381865afa1580156123f2573d5f5f3e3d5ffd5b505050506040513d601f19601f820116820180604052508101906124169190613c3a565b61244c576040517f19ca4b5e00000000000000000000000000000000000000000000000000000000815260040160405180910390fd5b5f60065f8473ffffffffffffffffffffffffffffffffffffffff1673ffffffffffffffffffffffffffffffffffffffff1681526020019081526020015f2090506124968382612de7565b915050919050565b5f6124cc335f357fffffffff000000000000000000000000000000000000000000000000000000001661296b565b61250b576040517f08c379a000000000000000000000000000000000000000000000000000000000815260040161250290613ada565b60405180910390fd5b600160035414612550576040517f08c379a000000000000000000000000000000000000000000000000000000000815260040161254790613b42565b60405180910390fd5b6002600381905550600260149054906101000a900460ff161561259f576040517fbaf7375c00000000000000000000000000000000000000000000000000000000815260040160405180910390fd5b5f60065f8473ffffffffffffffffffffffffffffffffffffffff1673ffffffffffffffffffffffffffffffffffffffff1681526020019081526020015f2090508273ffffffffffffffffffffffffffffffffffffffff163373ffffffffffffffffffffffffffffffffffffffff16141580156126285750805f015f9054906101000a900460ff16155b1561265f576040517f541250f700000000000000000000000000000000000000000000000000000000815260040160405180910390fd5b6126698382612de7565b9150506001600381905550919050565b60015f9054906101000a900473ffffffffffffffffffffffffffffffffffffffff1681565b60025f9054906101000a900473ffffffffffffffffffffffffffffffffffffffff1681565b6126cb613276565b60056040518060800160405290815f82015f9054906101000a900463ffffffff1663ffffffff1663ffffffff1681526020015f820160049054906101000a90046fffffffffffffffffffffffffffffffff166fffffffffffffffffffffffffffffffff166fffffffffffffffffffffffffffffffff1681526020015f820160149054906101000a900461ffff1661ffff1661ffff1681526020015f820160169054906101000a900461ffff1661ffff1661ffff1681525050905090565b6127b5335f357fffffffff000000000000000000000000000000000000000000000000000000001661296b565b6127f4576040517f08c379a00000000000000000000000000000000000000000000000000000000081526004016127eb90613ada565b60405180910390fd5b805f5f6101000a81548173ffffffffffffffffffffffffffffffffffffffff021916908373ffffffffffffffffffffffffffffffffffffffff1602179055508073ffffffffffffffffffffffffffffffffffffffff163373ffffffffffffffffffffffffffffffffffffffff167f8be0079c531659141344cd1fd0a4f28419497f9722a3daafe3b4186f6b6457e060405160405180910390a350565b7f000000000000000000000000000000000000000000000000000000000000000081565b5f6040517fa9059cbb00000000000000000000000000000000000000000000000000000000815273ffffffffffffffffffffffffffffffffffffffff8416600482015282602482015260205f6044835f895af1915081601f3d1160015f511416151615612924573d853b15171591505b5080612965576040517f08c379a000000000000000000000000000000000000000000000000000000000815260040161295c90613e24565b60405180910390fd5b50505050565b5f5f60015f9054906101000a900473ffffffffffffffffffffffffffffffffffffffff1690505f73ffffffffffffffffffffffffffffffffffffffff168173ffffffffffffffffffffffffffffffffffffffff1614158015612a4557508073ffffffffffffffffffffffffffffffffffffffff1663b70096138530866040518463ffffffff1660e01b8152600401612a0593929190613d3b565b602060405180830381865afa158015612a20573d5f5f3e3d5ffd5b505050506040513d601f19601f82011682018060405250810190612a449190613c3a565b5b80612a9b57505f5f9054906101000a900473ffffffffffffffffffffffffffffffffffffffff1673ffffffffffffffffffffffffffffffffffffffff168473ffffffffffffffffffffffffffffffffffffffff16145b91505092915050565b5f827fffffffffffffffffffffffffffffffffffffffffffffffffffffffffffffffff0484118302158202612ad7575f5ffd5b818385020490509392505050565b5f60065f8373ffffffffffffffffffffffffffffffffffffffff1673ffffffffffffffffffffffffffffffffffffffff1681526020019081526020015f2090505f815f0160069054906101000a90046bffffffffffffffffffffffff1690505f816bffffffffffffffffffffffff1603612b8b576040517fe4ccf1f400000000000000000000000000000000000000000000000000000000815260040160405180910390fd5b806bffffffffffffffffffffffff1660055f0160048282829054906101000a90046fffffffffffffffffffffffffffffffff16612bc89190613e42565b92506101000a8154816fffffffffffffffffffffffffffffffff02191690836fffffffffffffffffffffffffffffffff1602179055505f825f0160066101000a8154816bffffffffffffffffffffffff02191690836bffffffffffffffffffffffff160217905550612c8983826bffffffffffffffffffffffff167f000000000000000000000000000000000000000000000000000000000000000073ffffffffffffffffffffffffffffffffffffffff166128b49092919063ffffffff16565b7f000000000000000000000000000000000000000000000000000000000000000073ffffffffffffffffffffffffffffffffffffffff168373ffffffffffffffffffffffffffffffffffffffff167fcb0f3204f6895f1e698cfa5f0cceed9d5e62b57fe0d8648a47fc3685a78e7e9783604051612d069190613e85565b60405180910390a3505050565b5f6040517f23b872dd00000000000000000000000000000000000000000000000000000000815273ffffffffffffffffffffffffffffffffffffffff8516600482015273ffffffffffffffffffffffffffffffffffffffff8416602482015282604482015260205f6064835f8a5af1915081601f3d1160015f511416151615612d9f573d863b15171591505b5080612de0576040517f08c379a0000000000000000000000000000000000000000000000000000000008152600401612dd790613ee8565b60405180910390fd5b5050505050565b5f600260149054906101000a900460ff1615612e2f576040517fbaf7375c00000000000000000000000000000000000000000000000000000000815260040160405180910390fd5b815f0160019054906101000a900464ffffffffff1664ffffffffff16421015612e84576040517f53a8b71400000000000000000000000000000000000000000000000000000000815260040160405180910390fd5b5f825f0160069054906101000a90046bffffffffffffffffffffffff166bffffffffffffffffffffffff1603612ee6576040517fe4ccf1f400000000000000000000000000000000000000000000000000000000815260040160405180910390fd5b5f825f0160069054906101000a90046bffffffffffffffffffffffff166bffffffffffffffffffffffff1690505f836001015f9054906101000a90046bffffffffffffffffffffffff166bffffffffffffffffffffffff1690508160055f0160048282829054906101000a90046fffffffffffffffffffffffffffffffff16612f6f9190613e42565b92506101000a8154816fffffffffffffffffffffffffffffffff02191690836fffffffffffffffffffffffffffffffff1602179055505f811115613028578082612fb99190613f06565b915061302760045f9054906101000a900473ffffffffffffffffffffffffffffffffffffffff16827f000000000000000000000000000000000000000000000000000000000000000073ffffffffffffffffffffffffffffffffffffffff166128b49092919063ffffffff16565b5b613086845f0160129054906101000a90046bffffffffffffffffffffffff166bffffffffffffffffffffffff167f000000000000000000000000000000000000000000000000000000000000000084612aa49092919063ffffffff16565b92505f845f0160066101000a8154816bffffffffffffffffffffffff02191690836bffffffffffffffffffffffff1602179055505f846001015f6101000a8154816bffffffffffffffffffffffff02191690836bffffffffffffffffffffffff1602179055507f000000000000000000000000000000000000000000000000000000000000000073ffffffffffffffffffffffffffffffffffffffff1663657ae3f18385886040518463ffffffff1660e01b815260040161314993929190613f39565b6020604051808303815f875af1158015613165573d5f5f3e3d5ffd5b505050506040513d601f19601f820116820180604052508101906131899190613a55565b507f000000000000000000000000000000000000000000000000000000000000000073ffffffffffffffffffffffffffffffffffffffff168573ffffffffffffffffffffffffffffffffffffffff167fbf9c520fb583da9b8f434d2dfa27f8695602f498c937081299893335144e99a28486604051613209929190613f6e565b60405180910390a3505092915050565b6040518060a001604052805f151581526020015f64ffffffffff1681526020015f6bffffffffffffffffffffffff1681526020015f6bffffffffffffffffffffffff1681526020015f6bffffffffffffffffffffffff1681525090565b60405180608001604052805f63ffffffff1681526020015f6fffffffffffffffffffffffffffffffff1681526020015f61ffff1681526020015f61ffff1681525090565b5f5ffd5b5f73ffffffffffffffffffffffffffffffffffffffff82169050919050565b5f6132e7826132be565b9050919050565b5f6132f8826132dd565b9050919050565b613308816132ee565b8114613312575f5ffd5b50565b5f81359050613323816132ff565b92915050565b5f819050919050565b61333b81613329565b8114613345575f5ffd5b50565b5f8135905061335681613332565b92915050565b5f5f60408385031215613372576133716132ba565b5b5f61337f85828601613315565b925050602061339085828601613348565b9150509250929050565b6133a3816132dd565b81146133ad575f5ffd5b50565b5f813590506133be8161339a565b92915050565b5f602082840312156133d9576133d86132ba565b5b5f6133e6848285016133b0565b91505092915050565b5f8115159050919050565b613403816133ef565b82525050565b5f64ffffffffff82169050919050565b61342281613409565b82525050565b5f6bffffffffffffffffffffffff82169050919050565b61344881613428565b82525050565b60a082015f8201516134625f8501826133fa565b5060208201516134756020850182613419565b506040820151613488604085018261343f565b50606082015161349b606085018261343f565b5060808201516134ae608085018261343f565b50505050565b5f60a0820190506134c75f83018461344e565b92915050565b5f819050919050565b5f6134f06134eb6134e6846132be565b6134cd565b6132be565b9050919050565b5f613501826134d6565b9050919050565b5f613512826134f7565b9050919050565b61352281613508565b82525050565b5f60208201905061353b5f830184613519565b92915050565b5f61ffff82169050919050565b61355781613541565b8114613561575f5ffd5b50565b5f813590506135728161354e565b92915050565b5f6020828403121561358d5761358c6132ba565b5b5f61359a84828501613564565b91505092915050565b6135ac816132dd565b82525050565b5f6020820190506135c55f8301846135a3565b92915050565b5f63ffffffff82169050919050565b6135e3816135cb565b82525050565b5f6fffffffffffffffffffffffffffffffff82169050919050565b61360d816135e9565b82525050565b61361c81613541565b82525050565b5f6080820190506136355f8301876135da565b6136426020830186613604565b61364f6040830185613613565b61365c6060830184613613565b95945050505050565b61366e816133ef565b82525050565b61367d81613409565b82525050565b61368c81613428565b82525050565b5f60a0820190506136a55f830188613665565b6136b26020830187613674565b6136bf6040830186613683565b6136cc6060830185613683565b6136d96080830184613683565b9695505050505050565b6136ec81613428565b81146136f6575f5ffd5b50565b5f81359050613707816136e3565b92915050565b613716816133ef565b8114613720575f5ffd5b50565b5f813590506137318161370d565b92915050565b5f5f6040838503121561374d5761374c6132ba565b5b5f61375a858286016136f9565b925050602061376b85828601613723565b9150509250929050565b61377e816135cb565b8114613788575f5ffd5b50565b5f8135905061379981613775565b92915050565b5f602082840312156137b4576137b36132ba565b5b5f6137c18482850161378b565b91505092915050565b5f6137d4826132dd565b9050919050565b6137e4816137ca565b81146137ee575f5ffd5b50565b5f813590506137ff816137db565b92915050565b5f6020828403121561381a576138196132ba565b5b5f613827848285016137f1565b91505092915050565b5f5f5f60608486031215613847576138466132ba565b5b5f6138548682870161378b565b935050602061386586828701613564565b925050604061387686828701613564565b9150509250925092565b61388981613329565b82525050565b5f6020820190506138a25f830184613880565b92915050565b5f602082840312156138bd576138bc6132ba565b5b5f6138ca84828501613723565b91505092915050565b5f6020820190506138e65f830184613665565b92915050565b5f6138f6826134f7565b9050919050565b613906816138ec565b82525050565b5f60208201905061391f5f8301846138fd565b92915050565b5f61392f826134f7565b9050919050565b61393f81613925565b82525050565b5f6020820190506139585f830184613936565b92915050565b613967816135cb565b82525050565b613976816135e9565b82525050565b61398581613541565b82525050565b608082015f82015161399f5f85018261395e565b5060208201516139b2602085018261396d565b5060408201516139c5604085018261397c565b5060608201516139d8606085018261397c565b50505050565b5f6080820190506139f15f83018461398b565b92915050565b5f613a01826134d6565b9050919050565b5f613a12826139f7565b9050919050565b613a2281613a08565b82525050565b5f602082019050613a3b5f830184613a19565b92915050565b5f81519050613a4f81613332565b92915050565b5f60208284031215613a6a57613a696132ba565b5b5f613a7784828501613a41565b91505092915050565b5f82825260208201905092915050565b7f554e415554484f52495a454400000000000000000000000000000000000000005f82015250565b5f613ac4600c83613a80565b9150613acf82613a90565b602082019050919050565b5f6020820190508181035f830152613af181613ab8565b9050919050565b7f5245454e5452414e4359000000000000000000000000000000000000000000005f82015250565b5f613b2c600a83613a80565b9150613b3782613af8565b602082019050919050565b5f6020820190508181035f830152613b5981613b20565b9050919050565b7f4e487b71000000000000000000000000000000000000000000000000000000005f52601160045260245ffd5b5f613b9782613428565b9150613ba283613428565b925082820190506bffffffffffffffffffffffff811115613bc657613bc5613b60565b5b92915050565b5f613bd682613329565b9150613be183613329565b9250828201905080821115613bf957613bf8613b60565b5b92915050565b5f604082019050613c125f830185613674565b613c1f6020830184613683565b9392505050565b5f81519050613c348161370d565b92915050565b5f60208284031215613c4f57613c4e6132ba565b5b5f613c5c84828501613c26565b91505092915050565b5f602082019050613c785f830184613613565b92915050565b5f613c88826135e9565b9150613c93836135e9565b925082820190506fffffffffffffffffffffffffffffffff811115613cbb57613cba613b60565b5b92915050565b5f604082019050613cd45f830185613683565b613ce16020830184613674565b9392505050565b5f602082019050613cfb5f8301846135da565b92915050565b5f7fffffffff0000000000000000000000000000000000000000000000000000000082169050919050565b613d3581613d01565b82525050565b5f606082019050613d4e5f8301866135a3565b613d5b60208301856135a3565b613d686040830184613d2c565b949350505050565b5f67ffffffffffffffff82169050919050565b5f613d9d613d98613d93846135cb565b6134cd565b613d70565b9050919050565b613dad81613d83565b82525050565b5f604082019050613dc65f830185613da4565b613dd36020830184613613565b9392505050565b7f5452414e534645525f4641494c454400000000000000000000000000000000005f82015250565b5f613e0e600f83613a80565b9150613e1982613dda565b602082019050919050565b5f6020820190508181035f830152613e3b81613e02565b9050919050565b5f613e4c826135e9565b9150613e57836135e9565b925082820390506fffffffffffffffffffffffffffffffff811115613e7f57613e7e613b60565b5b92915050565b5f602082019050613e985f830184613683565b92915050565b7f5452414e534645525f46524f4d5f4641494c45440000000000000000000000005f82015250565b5f613ed2601483613a80565b9150613edd82613e9e565b602082019050919050565b5f6020820190508181035f830152613eff81613ec6565b9050919050565b5f613f1082613329565b9150613f1b83613329565b9250828203905081811115613f3357613f32613b60565b5b92915050565b5f606082019050613f4c5f830186613880565b613f596020830185613880565b613f6660408301846135a3565b949350505050565b5f604082019050613f815f830185613880565b613f8e6020830184613880565b939250505056fea26469706673582212201c3617642ffd24bb29585666720e0777ff2a793d061b4ffbeb6cbf6375562e0c64736f6c634300081e0033",
  "linkReferences": {},
  "deployedLinkReferences": {},
  "immutableReferences": {
    "9436": [
      {
        "length": 32,
        "start": 5549
      },
      {
        "length": 32,
        "start": 8485
      }
    ],
    "9440": [
      {
        "length": 32,
        "start": 12526
      }
    ],
    "9444": [
      {
        "length": 32,
        "start": 1314
      },
      {
        "length": 32,
        "start": 1447
      },
      {
        "length": 32,
        "start": 1745
      },
      {
        "length": 32,
        "start": 5237
      },
      {
        "length": 32,
        "start": 10386
      },
      {
        "length": 32,
        "start": 11333
      },
      {
        "length": 32,
        "start": 12259
      }
    ],
    "9448": [
      {
        "length": 32,
        "start": 2646
      },
      {
        "length": 32,
        "start": 3348
      },
      {
        "length": 32,
        "start": 3761
      },
      {
        "length": 32,
        "start": 5877
      },
      {
        "length": 32,
        "start": 6339
      },
      {
        "length": 32,
        "start": 8330
      },
      {
        "length": 32,
        "start": 8931
      },
      {
        "length": 32,
        "start": 11403
      },
      {
        "length": 32,
        "start": 12684
      }
    ],
    "9451": [
      {
        "length": 32,
        "start": 8682
      },
      {
        "length": 32,
        "start": 12375
      }
    ]
  },
  "inputSourceName": "project/contracts/core/DelayedWithdraw.sol",
  "buildInfoId": "solc-0_8_30-e7ac28edc80ee071fd8bf3e691f238b4916e4080"
}